
benos.elf:     file format elf64-littleriscv


Disassembly of section .text.boot:

0000000000022000 <_start>:
   22000:	10401073          	csrw	sie,zero
   22004:	5bd020ef          	jal	ra,24dc0 <__init_uart>
   22008:	00000097          	auipc	ra,0x0
   2200c:	01c080e7          	jalr	28(ra) # 22024 <print_asm>
   22010:	00004117          	auipc	sp,0x4
   22014:	ff010113          	addi	sp,sp,-16 # 26000 <stacks_start>
   22018:	000012b7          	lui	t0,0x1
   2201c:	00510133          	add	sp,sp,t0
   22020:	77c0006f          	j	2279c <kernel_main>

0000000000022024 <print_asm>:
   22024:	00008493          	mv	s1,ra
   22028:	00003517          	auipc	a0,0x3
   2202c:	22050513          	addi	a0,a0,544 # 25248 <boot_string>
   22030:	651020ef          	jal	ra,24e80 <put_string_uart>
   22034:	00048093          	mv	ra,s1
   22038:	00008067          	ret

Disassembly of section .text:

0000000000022040 <print_func_name>:
   22040:	fc010113          	addi	sp,sp,-64
   22044:	02113c23          	sd	ra,56(sp)
   22048:	02813823          	sd	s0,48(sp)
   2204c:	04010413          	addi	s0,sp,64
   22050:	fca43423          	sd	a0,-56(s0)
   22054:	fe042623          	sw	zero,-20(s0)
   22058:	0300006f          	j	22088 <print_func_name+0x48>
   2205c:	00003717          	auipc	a4,0x3
   22060:	cc470713          	addi	a4,a4,-828 # 24d20 <func_addr>
   22064:	fec42783          	lw	a5,-20(s0)
   22068:	00379793          	slli	a5,a5,0x3
   2206c:	00f707b3          	add	a5,a4,a5
   22070:	0007b783          	ld	a5,0(a5)
   22074:	fc843703          	ld	a4,-56(s0)
   22078:	02f70663          	beq	a4,a5,220a4 <print_func_name+0x64>
   2207c:	fec42783          	lw	a5,-20(s0)
   22080:	0017879b          	addiw	a5,a5,1
   22084:	fef42623          	sw	a5,-20(s0)
   22088:	fec42703          	lw	a4,-20(s0)
   2208c:	00003797          	auipc	a5,0x3
   22090:	cc478793          	addi	a5,a5,-828 # 24d50 <func_num_syms>
   22094:	0007b783          	ld	a5,0(a5)
   22098:	fcf762e3          	bltu	a4,a5,2205c <print_func_name+0x1c>
   2209c:	00000793          	li	a5,0
   220a0:	0880006f          	j	22128 <print_func_name+0xe8>
   220a4:	00000013          	nop
   220a8:	00003797          	auipc	a5,0x3
   220ac:	c9078793          	addi	a5,a5,-880 # 24d38 <func_string>
   220b0:	fef43023          	sd	a5,-32(s0)
   220b4:	fec42783          	lw	a5,-20(s0)
   220b8:	0007879b          	sext.w	a5,a5
   220bc:	00079863          	bnez	a5,220cc <print_func_name+0x8c>
   220c0:	fe043783          	ld	a5,-32(s0)
   220c4:	fcf43c23          	sd	a5,-40(s0)
   220c8:	0480006f          	j	22110 <print_func_name+0xd0>
   220cc:	fe043783          	ld	a5,-32(s0)
   220d0:	00178793          	addi	a5,a5,1
   220d4:	fef43023          	sd	a5,-32(s0)
   220d8:	fe043783          	ld	a5,-32(s0)
   220dc:	0007c783          	lbu	a5,0(a5)
   220e0:	00079863          	bnez	a5,220f0 <print_func_name+0xb0>
   220e4:	fec42783          	lw	a5,-20(s0)
   220e8:	fff7879b          	addiw	a5,a5,-1
   220ec:	fef42623          	sw	a5,-20(s0)
   220f0:	fec42783          	lw	a5,-20(s0)
   220f4:	0007879b          	sext.w	a5,a5
   220f8:	fc079ae3          	bnez	a5,220cc <print_func_name+0x8c>
   220fc:	fe043783          	ld	a5,-32(s0)
   22100:	00178793          	addi	a5,a5,1
   22104:	fef43023          	sd	a5,-32(s0)
   22108:	fe043783          	ld	a5,-32(s0)
   2210c:	fcf43c23          	sd	a5,-40(s0)
   22110:	fd843603          	ld	a2,-40(s0)
   22114:	fc843583          	ld	a1,-56(s0)
   22118:	00003517          	auipc	a0,0x3
   2211c:	da850513          	addi	a0,a0,-600 # 24ec0 <_etext+0x4>
   22120:	664010ef          	jal	ra,23784 <printk>
   22124:	00000793          	li	a5,0
   22128:	00078513          	mv	a0,a5
   2212c:	03813083          	ld	ra,56(sp)
   22130:	03013403          	ld	s0,48(sp)
   22134:	04010113          	addi	sp,sp,64
   22138:	00008067          	ret

000000000002213c <my_memcpy_asm_test1>:
   2213c:	fc010113          	addi	sp,sp,-64
   22140:	02813c23          	sd	s0,56(sp)
   22144:	04010413          	addi	s0,sp,64
   22148:	fca43c23          	sd	a0,-40(s0)
   2214c:	fcb43823          	sd	a1,-48(s0)
   22150:	fcc43423          	sd	a2,-56(s0)
   22154:	fe043423          	sd	zero,-24(s0)
   22158:	fd843703          	ld	a4,-40(s0)
   2215c:	fc843783          	ld	a5,-56(s0)
   22160:	00f707b3          	add	a5,a4,a5
   22164:	fef43023          	sd	a5,-32(s0)
   22168:	fe043603          	ld	a2,-32(s0)
   2216c:	fd043683          	ld	a3,-48(s0)
   22170:	fe843703          	ld	a4,-24(s0)
   22174:	fd843783          	ld	a5,-40(s0)
   22178:	0007b703          	ld	a4,0(a5)
   2217c:	00e6b023          	sd	a4,0(a3)
   22180:	00868693          	addi	a3,a3,8
   22184:	00878793          	addi	a5,a5,8
   22188:	fec7c8e3          	blt	a5,a2,22178 <my_memcpy_asm_test1+0x3c>
   2218c:	fcd43823          	sd	a3,-48(s0)
   22190:	fee43423          	sd	a4,-24(s0)
   22194:	fcf43c23          	sd	a5,-40(s0)
   22198:	00000013          	nop
   2219c:	03813403          	ld	s0,56(sp)
   221a0:	04010113          	addi	sp,sp,64
   221a4:	00008067          	ret

00000000000221a8 <my_memcpy_asm_test2>:
   221a8:	fc010113          	addi	sp,sp,-64
   221ac:	02813c23          	sd	s0,56(sp)
   221b0:	04010413          	addi	s0,sp,64
   221b4:	fca43c23          	sd	a0,-40(s0)
   221b8:	fcb43823          	sd	a1,-48(s0)
   221bc:	fcc43423          	sd	a2,-56(s0)
   221c0:	fe043423          	sd	zero,-24(s0)
   221c4:	fd843703          	ld	a4,-40(s0)
   221c8:	fc843783          	ld	a5,-56(s0)
   221cc:	00f707b3          	add	a5,a4,a5
   221d0:	fef43023          	sd	a5,-32(s0)
   221d4:	fe043603          	ld	a2,-32(s0)
   221d8:	fd043683          	ld	a3,-48(s0)
   221dc:	fe843703          	ld	a4,-24(s0)
   221e0:	fd843783          	ld	a5,-40(s0)
   221e4:	0007b703          	ld	a4,0(a5)
   221e8:	00e6b023          	sd	a4,0(a3)
   221ec:	00868693          	addi	a3,a3,8
   221f0:	00878793          	addi	a5,a5,8
   221f4:	fec7c8e3          	blt	a5,a2,221e4 <my_memcpy_asm_test2+0x3c>
   221f8:	fcd43823          	sd	a3,-48(s0)
   221fc:	fee43423          	sd	a4,-24(s0)
   22200:	fcf43c23          	sd	a5,-40(s0)
   22204:	00000013          	nop
   22208:	03813403          	ld	s0,56(sp)
   2220c:	04010113          	addi	sp,sp,64
   22210:	00008067          	ret

0000000000022214 <my_asm_orr>:
   22214:	fd010113          	addi	sp,sp,-48
   22218:	02813423          	sd	s0,40(sp)
   2221c:	03010413          	addi	s0,sp,48
   22220:	fca43c23          	sd	a0,-40(s0)
   22224:	fcb43823          	sd	a1,-48(s0)
   22228:	fe043423          	sd	zero,-24(s0)
   2222c:	fd843683          	ld	a3,-40(s0)
   22230:	fd043703          	ld	a4,-48(s0)
   22234:	fe843783          	ld	a5,-24(s0)
   22238:	00073783          	ld	a5,0(a4)
   2223c:	00d7e7b3          	or	a5,a5,a3
   22240:	00f73023          	sd	a5,0(a4)
   22244:	fce43823          	sd	a4,-48(s0)
   22248:	fef43423          	sd	a5,-24(s0)
   2224c:	00000013          	nop
   22250:	02813403          	ld	s0,40(sp)
   22254:	03010113          	addi	sp,sp,48
   22258:	00008067          	ret

000000000002225c <my_asm_and>:
   2225c:	fd010113          	addi	sp,sp,-48
   22260:	02813423          	sd	s0,40(sp)
   22264:	03010413          	addi	s0,sp,48
   22268:	fca43c23          	sd	a0,-40(s0)
   2226c:	fcb43823          	sd	a1,-48(s0)
   22270:	fe043423          	sd	zero,-24(s0)
   22274:	fd843683          	ld	a3,-40(s0)
   22278:	fd043703          	ld	a4,-48(s0)
   2227c:	fe843783          	ld	a5,-24(s0)
   22280:	00073783          	ld	a5,0(a4)
   22284:	00d7f7b3          	and	a5,a5,a3
   22288:	00f73023          	sd	a5,0(a4)
   2228c:	fce43823          	sd	a4,-48(s0)
   22290:	fef43423          	sd	a5,-24(s0)
   22294:	00000013          	nop
   22298:	02813403          	ld	s0,40(sp)
   2229c:	03010113          	addi	sp,sp,48
   222a0:	00008067          	ret

00000000000222a4 <my_asm_add>:
   222a4:	fd010113          	addi	sp,sp,-48
   222a8:	02813423          	sd	s0,40(sp)
   222ac:	03010413          	addi	s0,sp,48
   222b0:	fca43c23          	sd	a0,-40(s0)
   222b4:	fcb43823          	sd	a1,-48(s0)
   222b8:	fe043423          	sd	zero,-24(s0)
   222bc:	fd843683          	ld	a3,-40(s0)
   222c0:	fd043703          	ld	a4,-48(s0)
   222c4:	fe843783          	ld	a5,-24(s0)
   222c8:	00073783          	ld	a5,0(a4)
   222cc:	00d787b3          	add	a5,a5,a3
   222d0:	00f73023          	sd	a5,0(a4)
   222d4:	fce43823          	sd	a4,-48(s0)
   222d8:	fef43423          	sd	a5,-24(s0)
   222dc:	00000013          	nop
   222e0:	02813403          	ld	s0,40(sp)
   222e4:	03010113          	addi	sp,sp,48
   222e8:	00008067          	ret

00000000000222ec <my_ops_test>:
   222ec:	fe010113          	addi	sp,sp,-32
   222f0:	00113c23          	sd	ra,24(sp)
   222f4:	00813823          	sd	s0,16(sp)
   222f8:	02010413          	addi	s0,sp,32
   222fc:	00f00793          	li	a5,15
   22300:	fef43423          	sd	a5,-24(s0)
   22304:	fe840793          	addi	a5,s0,-24
   22308:	00078593          	mv	a1,a5
   2230c:	00200513          	li	a0,2
   22310:	f4dff0ef          	jal	ra,2225c <my_asm_and>
   22314:	fe843783          	ld	a5,-24(s0)
   22318:	00078593          	mv	a1,a5
   2231c:	00003517          	auipc	a0,0x3
   22320:	bb450513          	addi	a0,a0,-1100 # 24ed0 <_etext+0x14>
   22324:	460010ef          	jal	ra,23784 <printk>
   22328:	08000793          	li	a5,128
   2232c:	fef43423          	sd	a5,-24(s0)
   22330:	fe840793          	addi	a5,s0,-24
   22334:	00078593          	mv	a1,a5
   22338:	00300513          	li	a0,3
   2233c:	ed9ff0ef          	jal	ra,22214 <my_asm_orr>
   22340:	fe843783          	ld	a5,-24(s0)
   22344:	00078593          	mv	a1,a5
   22348:	00003517          	auipc	a0,0x3
   2234c:	ba050513          	addi	a0,a0,-1120 # 24ee8 <_etext+0x2c>
   22350:	434010ef          	jal	ra,23784 <printk>
   22354:	00300793          	li	a5,3
   22358:	fef43423          	sd	a5,-24(s0)
   2235c:	fe840793          	addi	a5,s0,-24
   22360:	00078593          	mv	a1,a5
   22364:	00200513          	li	a0,2
   22368:	f3dff0ef          	jal	ra,222a4 <my_asm_add>
   2236c:	fe843783          	ld	a5,-24(s0)
   22370:	00078593          	mv	a1,a5
   22374:	00003517          	auipc	a0,0x3
   22378:	b8c50513          	addi	a0,a0,-1140 # 24f00 <_etext+0x44>
   2237c:	408010ef          	jal	ra,23784 <printk>
   22380:	00000013          	nop
   22384:	01813083          	ld	ra,24(sp)
   22388:	01013403          	ld	s0,16(sp)
   2238c:	02010113          	addi	sp,sp,32
   22390:	00008067          	ret

0000000000022394 <test_sysregs>:
   22394:	fe010113          	addi	sp,sp,-32
   22398:	00113c23          	sd	ra,24(sp)
   2239c:	00813823          	sd	s0,16(sp)
   223a0:	02010413          	addi	s0,sp,32
   223a4:	100027f3          	csrr	a5,sstatus
   223a8:	00078093          	mv	ra,a5
   223ac:	00008793          	mv	a5,ra
   223b0:	fef43423          	sd	a5,-24(s0)
   223b4:	fe843583          	ld	a1,-24(s0)
   223b8:	00003517          	auipc	a0,0x3
   223bc:	b6050513          	addi	a0,a0,-1184 # 24f18 <_etext+0x5c>
   223c0:	3c4010ef          	jal	ra,23784 <printk>
   223c4:	00000013          	nop
   223c8:	01813083          	ld	ra,24(sp)
   223cc:	01013403          	ld	s0,16(sp)
   223d0:	02010113          	addi	sp,sp,32
   223d4:	00008067          	ret

00000000000223d8 <test_asm_goto>:
   223d8:	fe010113          	addi	sp,sp,-32
   223dc:	00113c23          	sd	ra,24(sp)
   223e0:	00813823          	sd	s0,16(sp)
   223e4:	02010413          	addi	s0,sp,32
   223e8:	00050793          	mv	a5,a0
   223ec:	fef42623          	sw	a5,-20(s0)
   223f0:	fec42783          	lw	a5,-20(s0)
   223f4:	fff78793          	addi	a5,a5,-1
   223f8:	00078663          	beqz	a5,22404 <test_asm_goto+0x2c>
   223fc:	00000793          	li	a5,0
   22400:	0240006f          	j	22424 <test_asm_goto+0x4c>
   22404:	fec42783          	lw	a5,-20(s0)
   22408:	00078613          	mv	a2,a5
   2240c:	00003597          	auipc	a1,0x3
   22410:	d0c58593          	addi	a1,a1,-756 # 25118 <__func__.0>
   22414:	00003517          	auipc	a0,0x3
   22418:	b1450513          	addi	a0,a0,-1260 # 24f28 <_etext+0x6c>
   2241c:	368010ef          	jal	ra,23784 <printk>
   22420:	00100793          	li	a5,1
   22424:	00078513          	mv	a0,a5
   22428:	01813083          	ld	ra,24(sp)
   2242c:	01013403          	ld	s0,16(sp)
   22430:	02010113          	addi	sp,sp,32
   22434:	00008067          	ret

0000000000022438 <inline_asm_test>:
   22438:	fe010113          	addi	sp,sp,-32
   2243c:	00113c23          	sd	ra,24(sp)
   22440:	00813823          	sd	s0,16(sp)
   22444:	02010413          	addi	s0,sp,32
   22448:	02000613          	li	a2,32
   2244c:	000285b7          	lui	a1,0x28
   22450:	00020537          	lui	a0,0x20
   22454:	ce9ff0ef          	jal	ra,2213c <my_memcpy_asm_test1>
   22458:	02000613          	li	a2,32
   2245c:	000285b7          	lui	a1,0x28
   22460:	00020537          	lui	a0,0x20
   22464:	d45ff0ef          	jal	ra,221a8 <my_memcpy_asm_test2>
   22468:	03000613          	li	a2,48
   2246c:	05500593          	li	a1,85
   22470:	000287b7          	lui	a5,0x28
   22474:	00278513          	addi	a0,a5,2 # 28002 <_ebss+0xdea>
   22478:	5d8000ef          	jal	ra,22a50 <memset>
   2247c:	e71ff0ef          	jal	ra,222ec <my_ops_test>
   22480:	f15ff0ef          	jal	ra,22394 <test_sysregs>
   22484:	00100793          	li	a5,1
   22488:	fef42623          	sw	a5,-20(s0)
   2248c:	fec42783          	lw	a5,-20(s0)
   22490:	00078513          	mv	a0,a5
   22494:	f45ff0ef          	jal	ra,223d8 <test_asm_goto>
   22498:	00050793          	mv	a5,a0
   2249c:	00078713          	mv	a4,a5
   224a0:	00100793          	li	a5,1
   224a4:	00f71863          	bne	a4,a5,224b4 <inline_asm_test+0x7c>
   224a8:	00003517          	auipc	a0,0x3
   224ac:	a9050513          	addi	a0,a0,-1392 # 24f38 <_etext+0x7c>
   224b0:	2d4010ef          	jal	ra,23784 <printk>
   224b4:	fe042423          	sw	zero,-24(s0)
   224b8:	fe842783          	lw	a5,-24(s0)
   224bc:	00078513          	mv	a0,a5
   224c0:	f19ff0ef          	jal	ra,223d8 <test_asm_goto>
   224c4:	00050793          	mv	a5,a0
   224c8:	00079863          	bnez	a5,224d8 <inline_asm_test+0xa0>
   224cc:	00003517          	auipc	a0,0x3
   224d0:	a8450513          	addi	a0,a0,-1404 # 24f50 <_etext+0x94>
   224d4:	2b0010ef          	jal	ra,23784 <printk>
   224d8:	00000013          	nop
   224dc:	01813083          	ld	ra,24(sp)
   224e0:	01013403          	ld	s0,16(sp)
   224e4:	02010113          	addi	sp,sp,32
   224e8:	00008067          	ret

00000000000224ec <asm_test>:
   224ec:	fe010113          	addi	sp,sp,-32
   224f0:	00113c23          	sd	ra,24(sp)
   224f4:	00813823          	sd	s0,16(sp)
   224f8:	02010413          	addi	s0,sp,32
   224fc:	6c4020ef          	jal	ra,24bc0 <load_store_test>
   22500:	6f4020ef          	jal	ra,24bf4 <shift_test>
   22504:	738020ef          	jal	ra,24c3c <add_sub_test>
   22508:	784020ef          	jal	ra,24c8c <branch_test>
   2250c:	7a4020ef          	jal	ra,24cb0 <my_memcpy_test>
   22510:	02800613          	li	a2,40
   22514:	05500593          	li	a1,85
   22518:	00028537          	lui	a0,0x28
   2251c:	534000ef          	jal	ra,22a50 <memset>
   22520:	00900593          	li	a1,9
   22524:	00a00513          	li	a0,10
   22528:	7ac020ef          	jal	ra,24cd4 <compare_and_return>
   2252c:	fea43423          	sd	a0,-24(s0)
   22530:	fe843783          	ld	a5,-24(s0)
   22534:	00079863          	bnez	a5,22544 <asm_test+0x58>
   22538:	00003517          	auipc	a0,0x3
   2253c:	a3050513          	addi	a0,a0,-1488 # 24f68 <_etext+0xac>
   22540:	01c020ef          	jal	ra,2455c <uart_send_string>
   22544:	00a00593          	li	a1,10
   22548:	00900513          	li	a0,9
   2254c:	788020ef          	jal	ra,24cd4 <compare_and_return>
   22550:	fea43023          	sd	a0,-32(s0)
   22554:	fe043703          	ld	a4,-32(s0)
   22558:	fff00793          	li	a5,-1
   2255c:	00f71863          	bne	a4,a5,2256c <asm_test+0x80>
   22560:	00003517          	auipc	a0,0x3
   22564:	a0850513          	addi	a0,a0,-1528 # 24f68 <_etext+0xac>
   22568:	7f5010ef          	jal	ra,2455c <uart_send_string>
   2256c:	00900593          	li	a1,9
   22570:	00000513          	li	a0,0
   22574:	778020ef          	jal	ra,24cec <sel_test>
   22578:	fea43423          	sd	a0,-24(s0)
   2257c:	00200593          	li	a1,2
   22580:	00500513          	li	a0,5
   22584:	768020ef          	jal	ra,24cec <sel_test>
   22588:	fea43023          	sd	a0,-32(s0)
   2258c:	778020ef          	jal	ra,24d04 <bl_test>
   22590:	00003517          	auipc	a0,0x3
   22594:	9f850513          	addi	a0,a0,-1544 # 24f88 <_etext+0xcc>
   22598:	7c5010ef          	jal	ra,2455c <uart_send_string>
   2259c:	00500593          	li	a1,5
   225a0:	00500513          	li	a0,5
   225a4:	7c4020ef          	jal	ra,24d68 <macro_test_1>
   225a8:	fea43423          	sd	a0,-24(s0)
   225ac:	fe843703          	ld	a4,-24(s0)
   225b0:	00a00793          	li	a5,10
   225b4:	00f71863          	bne	a4,a5,225c4 <asm_test+0xd8>
   225b8:	00003517          	auipc	a0,0x3
   225bc:	9e850513          	addi	a0,a0,-1560 # 24fa0 <_etext+0xe4>
   225c0:	79d010ef          	jal	ra,2455c <uart_send_string>
   225c4:	00500593          	li	a1,5
   225c8:	00500513          	li	a0,5
   225cc:	7c4020ef          	jal	ra,24d90 <macro_test_2>
   225d0:	fea43023          	sd	a0,-32(s0)
   225d4:	fe043783          	ld	a5,-32(s0)
   225d8:	00079863          	bnez	a5,225e8 <asm_test+0xfc>
   225dc:	00003517          	auipc	a0,0x3
   225e0:	9e450513          	addi	a0,a0,-1564 # 24fc0 <_etext+0x104>
   225e4:	779010ef          	jal	ra,2455c <uart_send_string>
   225e8:	00000013          	nop
   225ec:	01813083          	ld	ra,24(sp)
   225f0:	01013403          	ld	s0,16(sp)
   225f4:	02010113          	addi	sp,sp,32
   225f8:	00008067          	ret

00000000000225fc <print_mem>:
   225fc:	ff010113          	addi	sp,sp,-16
   22600:	00113423          	sd	ra,8(sp)
   22604:	00813023          	sd	s0,0(sp)
   22608:	01010413          	addi	s0,sp,16
   2260c:	00003517          	auipc	a0,0x3
   22610:	9d450513          	addi	a0,a0,-1580 # 24fe0 <_etext+0x124>
   22614:	170010ef          	jal	ra,23784 <printk>
   22618:	00000597          	auipc	a1,0x0
   2261c:	9e858593          	addi	a1,a1,-1560 # 22000 <_start>
   22620:	00000617          	auipc	a2,0x0
   22624:	a1c60613          	addi	a2,a2,-1508 # 2203c <_etext_boot>
   22628:	00000717          	auipc	a4,0x0
   2262c:	a1470713          	addi	a4,a4,-1516 # 2203c <_etext_boot>
   22630:	00000797          	auipc	a5,0x0
   22634:	9d078793          	addi	a5,a5,-1584 # 22000 <_start>
   22638:	40f707b3          	sub	a5,a4,a5
   2263c:	00078693          	mv	a3,a5
   22640:	00003517          	auipc	a0,0x3
   22644:	9b850513          	addi	a0,a0,-1608 # 24ff8 <_etext+0x13c>
   22648:	13c010ef          	jal	ra,23784 <printk>
   2264c:	00000597          	auipc	a1,0x0
   22650:	9f058593          	addi	a1,a1,-1552 # 2203c <_etext_boot>
   22654:	00003617          	auipc	a2,0x3
   22658:	86860613          	addi	a2,a2,-1944 # 24ebc <_etext>
   2265c:	00003717          	auipc	a4,0x3
   22660:	86070713          	addi	a4,a4,-1952 # 24ebc <_etext>
   22664:	00000797          	auipc	a5,0x0
   22668:	9d878793          	addi	a5,a5,-1576 # 2203c <_etext_boot>
   2266c:	40f707b3          	sub	a5,a4,a5
   22670:	00078693          	mv	a3,a5
   22674:	00003517          	auipc	a0,0x3
   22678:	9b450513          	addi	a0,a0,-1612 # 25028 <_etext+0x16c>
   2267c:	108010ef          	jal	ra,23784 <printk>
   22680:	00003597          	auipc	a1,0x3
   22684:	83c58593          	addi	a1,a1,-1988 # 24ebc <_etext>
   22688:	00003617          	auipc	a2,0x3
   2268c:	bd360613          	addi	a2,a2,-1069 # 2525b <_data>
   22690:	00003717          	auipc	a4,0x3
   22694:	bcb70713          	addi	a4,a4,-1077 # 2525b <_data>
   22698:	00003797          	auipc	a5,0x3
   2269c:	82478793          	addi	a5,a5,-2012 # 24ebc <_etext>
   226a0:	40f707b3          	sub	a5,a4,a5
   226a4:	00078693          	mv	a3,a5
   226a8:	00003517          	auipc	a0,0x3
   226ac:	9b050513          	addi	a0,a0,-1616 # 25058 <_etext+0x19c>
   226b0:	0d4010ef          	jal	ra,23784 <printk>
   226b4:	00003597          	auipc	a1,0x3
   226b8:	ba758593          	addi	a1,a1,-1113 # 2525b <_data>
   226bc:	00005617          	auipc	a2,0x5
   226c0:	94460613          	addi	a2,a2,-1724 # 27000 <g_record>
   226c4:	00005717          	auipc	a4,0x5
   226c8:	93c70713          	addi	a4,a4,-1732 # 27000 <g_record>
   226cc:	00003797          	auipc	a5,0x3
   226d0:	b8f78793          	addi	a5,a5,-1137 # 2525b <_data>
   226d4:	40f707b3          	sub	a5,a4,a5
   226d8:	00078693          	mv	a3,a5
   226dc:	00003517          	auipc	a0,0x3
   226e0:	9ac50513          	addi	a0,a0,-1620 # 25088 <_etext+0x1cc>
   226e4:	0a0010ef          	jal	ra,23784 <printk>
   226e8:	00005597          	auipc	a1,0x5
   226ec:	92058593          	addi	a1,a1,-1760 # 27008 <print_buf>
   226f0:	00005617          	auipc	a2,0x5
   226f4:	b2860613          	addi	a2,a2,-1240 # 27218 <_ebss>
   226f8:	00005717          	auipc	a4,0x5
   226fc:	b2070713          	addi	a4,a4,-1248 # 27218 <_ebss>
   22700:	00005797          	auipc	a5,0x5
   22704:	90878793          	addi	a5,a5,-1784 # 27008 <print_buf>
   22708:	40f707b3          	sub	a5,a4,a5
   2270c:	00078693          	mv	a3,a5
   22710:	00003517          	auipc	a0,0x3
   22714:	9a850513          	addi	a0,a0,-1624 # 250b8 <_etext+0x1fc>
   22718:	06c010ef          	jal	ra,23784 <printk>
   2271c:	00000013          	nop
   22720:	00813083          	ld	ra,8(sp)
   22724:	00013403          	ld	s0,0(sp)
   22728:	01010113          	addi	sp,sp,16
   2272c:	00008067          	ret

0000000000022730 <clean_bss>:
   22730:	fd010113          	addi	sp,sp,-48
   22734:	02113423          	sd	ra,40(sp)
   22738:	02813023          	sd	s0,32(sp)
   2273c:	03010413          	addi	s0,sp,48
   22740:	00005797          	auipc	a5,0x5
   22744:	8c878793          	addi	a5,a5,-1848 # 27008 <print_buf>
   22748:	fef43423          	sd	a5,-24(s0)
   2274c:	00005797          	auipc	a5,0x5
   22750:	acc78793          	addi	a5,a5,-1332 # 27218 <_ebss>
   22754:	fef43023          	sd	a5,-32(s0)
   22758:	fe043783          	ld	a5,-32(s0)
   2275c:	0007871b          	sext.w	a4,a5
   22760:	fe843783          	ld	a5,-24(s0)
   22764:	0007879b          	sext.w	a5,a5
   22768:	40f707bb          	subw	a5,a4,a5
   2276c:	fcf42e23          	sw	a5,-36(s0)
   22770:	fe843783          	ld	a5,-24(s0)
   22774:	fdc46703          	lwu	a4,-36(s0)
   22778:	00070613          	mv	a2,a4
   2277c:	00000593          	li	a1,0
   22780:	00078513          	mv	a0,a5
   22784:	2cc000ef          	jal	ra,22a50 <memset>
   22788:	00000013          	nop
   2278c:	02813083          	ld	ra,40(sp)
   22790:	02013403          	ld	s0,32(sp)
   22794:	03010113          	addi	sp,sp,48
   22798:	00008067          	ret

000000000002279c <kernel_main>:
   2279c:	ff010113          	addi	sp,sp,-16
   227a0:	00113423          	sd	ra,8(sp)
   227a4:	00813023          	sd	s0,0(sp)
   227a8:	01010413          	addi	s0,sp,16
   227ac:	f85ff0ef          	jal	ra,22730 <clean_bss>
   227b0:	251010ef          	jal	ra,24200 <uart_init>
   227b4:	00003517          	auipc	a0,0x3
   227b8:	93450513          	addi	a0,a0,-1740 # 250e8 <_etext+0x22c>
   227bc:	5a1010ef          	jal	ra,2455c <uart_send_string>
   227c0:	729000ef          	jal	ra,236e8 <init_printk_done>
   227c4:	00003517          	auipc	a0,0x3
   227c8:	93c50513          	addi	a0,a0,-1732 # 25100 <_etext+0x244>
   227cc:	7b9000ef          	jal	ra,23784 <printk>
   227d0:	d1dff0ef          	jal	ra,224ec <asm_test>
   227d4:	c65ff0ef          	jal	ra,22438 <inline_asm_test>
   227d8:	008017b7          	lui	a5,0x801
   227dc:	88078513          	addi	a0,a5,-1920 # 800880 <_ebss+0x7d9668>
   227e0:	861ff0ef          	jal	ra,22040 <print_func_name>
   227e4:	008017b7          	lui	a5,0x801
   227e8:	86078513          	addi	a0,a5,-1952 # 800860 <_ebss+0x7d9648>
   227ec:	855ff0ef          	jal	ra,22040 <print_func_name>
   227f0:	008017b7          	lui	a5,0x801
   227f4:	80078513          	addi	a0,a5,-2048 # 800800 <_ebss+0x7d95e8>
   227f8:	849ff0ef          	jal	ra,22040 <print_func_name>
   227fc:	e01ff0ef          	jal	ra,225fc <print_mem>
   22800:	0000006f          	j	22800 <kernel_main+0x64>

0000000000022804 <__memset_16bytes_inline_asm>:
   22804:	fc010113          	addi	sp,sp,-64
   22808:	02813c23          	sd	s0,56(sp)
   2280c:	04010413          	addi	s0,sp,64
   22810:	fca43c23          	sd	a0,-40(s0)
   22814:	fcb43823          	sd	a1,-48(s0)
   22818:	00060793          	mv	a5,a2
   2281c:	fcf42623          	sw	a5,-52(s0)
   22820:	fe042623          	sw	zero,-20(s0)
   22824:	fd043603          	ld	a2,-48(s0)
   22828:	fd843683          	ld	a3,-40(s0)
   2282c:	fcc42703          	lw	a4,-52(s0)
   22830:	fec42783          	lw	a5,-20(s0)
   22834:	00c6b023          	sd	a2,0(a3)
   22838:	00c6b423          	sd	a2,8(a3)
   2283c:	01078793          	addi	a5,a5,16
   22840:	fee7cae3          	blt	a5,a4,22834 <__memset_16bytes_inline_asm+0x30>
   22844:	fcd43c23          	sd	a3,-40(s0)
   22848:	fce42623          	sw	a4,-52(s0)
   2284c:	fef42623          	sw	a5,-20(s0)
   22850:	00000013          	nop
   22854:	03813403          	ld	s0,56(sp)
   22858:	04010113          	addi	sp,sp,64
   2285c:	00008067          	ret

0000000000022860 <__memset_1bytes>:
   22860:	fc010113          	addi	sp,sp,-64
   22864:	02813c23          	sd	s0,56(sp)
   22868:	04010413          	addi	s0,sp,64
   2286c:	fca43c23          	sd	a0,-40(s0)
   22870:	00058793          	mv	a5,a1
   22874:	fcc43423          	sd	a2,-56(s0)
   22878:	fcf42a23          	sw	a5,-44(s0)
   2287c:	fd843783          	ld	a5,-40(s0)
   22880:	fef43423          	sd	a5,-24(s0)
   22884:	01c0006f          	j	228a0 <__memset_1bytes+0x40>
   22888:	fe843783          	ld	a5,-24(s0)
   2288c:	00178713          	addi	a4,a5,1
   22890:	fee43423          	sd	a4,-24(s0)
   22894:	fd442703          	lw	a4,-44(s0)
   22898:	0ff77713          	andi	a4,a4,255
   2289c:	00e78023          	sb	a4,0(a5)
   228a0:	fc843783          	ld	a5,-56(s0)
   228a4:	fff78713          	addi	a4,a5,-1
   228a8:	fce43423          	sd	a4,-56(s0)
   228ac:	fc079ee3          	bnez	a5,22888 <__memset_1bytes+0x28>
   228b0:	fd843783          	ld	a5,-40(s0)
   228b4:	00078513          	mv	a0,a5
   228b8:	03813403          	ld	s0,56(sp)
   228bc:	04010113          	addi	sp,sp,64
   228c0:	00008067          	ret

00000000000228c4 <__memset>:
   228c4:	f9010113          	addi	sp,sp,-112
   228c8:	06113423          	sd	ra,104(sp)
   228cc:	06813023          	sd	s0,96(sp)
   228d0:	07010413          	addi	s0,sp,112
   228d4:	faa43423          	sd	a0,-88(s0)
   228d8:	00058793          	mv	a5,a1
   228dc:	f8c43c23          	sd	a2,-104(s0)
   228e0:	faf42223          	sw	a5,-92(s0)
   228e4:	fa843783          	ld	a5,-88(s0)
   228e8:	fef43423          	sd	a5,-24(s0)
   228ec:	01000793          	li	a5,16
   228f0:	fcf43423          	sd	a5,-56(s0)
   228f4:	f9843783          	ld	a5,-104(s0)
   228f8:	fef43023          	sd	a5,-32(s0)
   228fc:	fe843783          	ld	a5,-24(s0)
   22900:	fcf43023          	sd	a5,-64(s0)
   22904:	fc043823          	sd	zero,-48(s0)
   22908:	fc042e23          	sw	zero,-36(s0)
   2290c:	0340006f          	j	22940 <__memset+0x7c>
   22910:	fa442783          	lw	a5,-92(s0)
   22914:	0ff7f793          	andi	a5,a5,255
   22918:	fdc42703          	lw	a4,-36(s0)
   2291c:	0037171b          	slliw	a4,a4,0x3
   22920:	0007071b          	sext.w	a4,a4
   22924:	00e797b3          	sll	a5,a5,a4
   22928:	fd043703          	ld	a4,-48(s0)
   2292c:	00f767b3          	or	a5,a4,a5
   22930:	fcf43823          	sd	a5,-48(s0)
   22934:	fdc42783          	lw	a5,-36(s0)
   22938:	0017879b          	addiw	a5,a5,1
   2293c:	fcf42e23          	sw	a5,-36(s0)
   22940:	fdc42783          	lw	a5,-36(s0)
   22944:	0007871b          	sext.w	a4,a5
   22948:	00700793          	li	a5,7
   2294c:	fce7d2e3          	bge	a5,a4,22910 <__memset+0x4c>
   22950:	fc843783          	ld	a5,-56(s0)
   22954:	fff78713          	addi	a4,a5,-1
   22958:	fc043783          	ld	a5,-64(s0)
   2295c:	00f777b3          	and	a5,a4,a5
   22960:	04078e63          	beqz	a5,229bc <__memset+0xf8>
   22964:	fc843783          	ld	a5,-56(s0)
   22968:	fff78793          	addi	a5,a5,-1
   2296c:	fc043703          	ld	a4,-64(s0)
   22970:	00f777b3          	and	a5,a4,a5
   22974:	faf43c23          	sd	a5,-72(s0)
   22978:	fc843703          	ld	a4,-56(s0)
   2297c:	fb843783          	ld	a5,-72(s0)
   22980:	40f707b3          	sub	a5,a4,a5
   22984:	faf43c23          	sd	a5,-72(s0)
   22988:	fa442783          	lw	a5,-92(s0)
   2298c:	fb843603          	ld	a2,-72(s0)
   22990:	00078593          	mv	a1,a5
   22994:	fe843503          	ld	a0,-24(s0)
   22998:	ec9ff0ef          	jal	ra,22860 <__memset_1bytes>
   2299c:	fe843703          	ld	a4,-24(s0)
   229a0:	fb843783          	ld	a5,-72(s0)
   229a4:	00f707b3          	add	a5,a4,a5
   229a8:	fef43423          	sd	a5,-24(s0)
   229ac:	f9843703          	ld	a4,-104(s0)
   229b0:	fb843783          	ld	a5,-72(s0)
   229b4:	40f707b3          	sub	a5,a4,a5
   229b8:	fef43023          	sd	a5,-32(s0)
   229bc:	fe043703          	ld	a4,-32(s0)
   229c0:	fc843783          	ld	a5,-56(s0)
   229c4:	06e7fa63          	bgeu	a5,a4,22a38 <__memset+0x174>
   229c8:	fe043703          	ld	a4,-32(s0)
   229cc:	fc843783          	ld	a5,-56(s0)
   229d0:	02f757b3          	divu	a5,a4,a5
   229d4:	faf42a23          	sw	a5,-76(s0)
   229d8:	fe043703          	ld	a4,-32(s0)
   229dc:	fc843783          	ld	a5,-56(s0)
   229e0:	02f777b3          	remu	a5,a4,a5
   229e4:	fef43023          	sd	a5,-32(s0)
   229e8:	fb442783          	lw	a5,-76(s0)
   229ec:	0047979b          	slliw	a5,a5,0x4
   229f0:	0007879b          	sext.w	a5,a5
   229f4:	00078613          	mv	a2,a5
   229f8:	fd043583          	ld	a1,-48(s0)
   229fc:	fe843503          	ld	a0,-24(s0)
   22a00:	e05ff0ef          	jal	ra,22804 <__memset_16bytes_inline_asm>
   22a04:	fe043783          	ld	a5,-32(s0)
   22a08:	02078863          	beqz	a5,22a38 <__memset+0x174>
   22a0c:	fb442783          	lw	a5,-76(s0)
   22a10:	0047979b          	slliw	a5,a5,0x4
   22a14:	0007879b          	sext.w	a5,a5
   22a18:	00078713          	mv	a4,a5
   22a1c:	fe843783          	ld	a5,-24(s0)
   22a20:	00e787b3          	add	a5,a5,a4
   22a24:	fa442703          	lw	a4,-92(s0)
   22a28:	fe043603          	ld	a2,-32(s0)
   22a2c:	00070593          	mv	a1,a4
   22a30:	00078513          	mv	a0,a5
   22a34:	e2dff0ef          	jal	ra,22860 <__memset_1bytes>
   22a38:	fa843783          	ld	a5,-88(s0)
   22a3c:	00078513          	mv	a0,a5
   22a40:	06813083          	ld	ra,104(sp)
   22a44:	06013403          	ld	s0,96(sp)
   22a48:	07010113          	addi	sp,sp,112
   22a4c:	00008067          	ret

0000000000022a50 <memset>:
   22a50:	fd010113          	addi	sp,sp,-48
   22a54:	02113423          	sd	ra,40(sp)
   22a58:	02813023          	sd	s0,32(sp)
   22a5c:	03010413          	addi	s0,sp,48
   22a60:	fea43423          	sd	a0,-24(s0)
   22a64:	00058793          	mv	a5,a1
   22a68:	fcc43c23          	sd	a2,-40(s0)
   22a6c:	fef42223          	sw	a5,-28(s0)
   22a70:	fe442783          	lw	a5,-28(s0)
   22a74:	fd843603          	ld	a2,-40(s0)
   22a78:	00078593          	mv	a1,a5
   22a7c:	fe843503          	ld	a0,-24(s0)
   22a80:	e45ff0ef          	jal	ra,228c4 <__memset>
   22a84:	00050793          	mv	a5,a0
   22a88:	00078513          	mv	a0,a5
   22a8c:	02813083          	ld	ra,40(sp)
   22a90:	02013403          	ld	s0,32(sp)
   22a94:	03010113          	addi	sp,sp,48
   22a98:	00008067          	ret

0000000000022a9c <scan_number>:
   22a9c:	fd010113          	addi	sp,sp,-48
   22aa0:	02813423          	sd	s0,40(sp)
   22aa4:	03010413          	addi	s0,sp,48
   22aa8:	fca43c23          	sd	a0,-40(s0)
   22aac:	fcb43823          	sd	a1,-48(s0)
   22ab0:	fe042623          	sw	zero,-20(s0)
   22ab4:	0440006f          	j	22af8 <scan_number+0x5c>
   22ab8:	fec42703          	lw	a4,-20(s0)
   22abc:	00070793          	mv	a5,a4
   22ac0:	0027979b          	slliw	a5,a5,0x2
   22ac4:	00e787bb          	addw	a5,a5,a4
   22ac8:	0017979b          	slliw	a5,a5,0x1
   22acc:	fef42623          	sw	a5,-20(s0)
   22ad0:	fd843783          	ld	a5,-40(s0)
   22ad4:	00178713          	addi	a4,a5,1
   22ad8:	fce43c23          	sd	a4,-40(s0)
   22adc:	0007c783          	lbu	a5,0(a5)
   22ae0:	0007879b          	sext.w	a5,a5
   22ae4:	fd07879b          	addiw	a5,a5,-48
   22ae8:	0007879b          	sext.w	a5,a5
   22aec:	fec42703          	lw	a4,-20(s0)
   22af0:	00f707bb          	addw	a5,a4,a5
   22af4:	fef42623          	sw	a5,-20(s0)
   22af8:	fd843783          	ld	a5,-40(s0)
   22afc:	0007c783          	lbu	a5,0(a5)
   22b00:	00078713          	mv	a4,a5
   22b04:	02f00793          	li	a5,47
   22b08:	00e7fc63          	bgeu	a5,a4,22b20 <scan_number+0x84>
   22b0c:	fd843783          	ld	a5,-40(s0)
   22b10:	0007c783          	lbu	a5,0(a5)
   22b14:	00078713          	mv	a4,a5
   22b18:	03900793          	li	a5,57
   22b1c:	f8e7fee3          	bgeu	a5,a4,22ab8 <scan_number+0x1c>
   22b20:	fd043783          	ld	a5,-48(s0)
   22b24:	fec42703          	lw	a4,-20(s0)
   22b28:	00e7a023          	sw	a4,0(a5)
   22b2c:	fd843783          	ld	a5,-40(s0)
   22b30:	00078513          	mv	a0,a5
   22b34:	02813403          	ld	s0,40(sp)
   22b38:	03010113          	addi	sp,sp,48
   22b3c:	00008067          	ret

0000000000022b40 <number>:
   22b40:	f2010113          	addi	sp,sp,-224
   22b44:	0c813c23          	sd	s0,216(sp)
   22b48:	0e010413          	addi	s0,sp,224
   22b4c:	f2a43c23          	sd	a0,-200(s0)
   22b50:	f2b43823          	sd	a1,-208(s0)
   22b54:	00060593          	mv	a1,a2
   22b58:	00068613          	mv	a2,a3
   22b5c:	00070693          	mv	a3,a4
   22b60:	00078713          	mv	a4,a5
   22b64:	00058793          	mv	a5,a1
   22b68:	f2f42623          	sw	a5,-212(s0)
   22b6c:	00060793          	mv	a5,a2
   22b70:	f2f42423          	sw	a5,-216(s0)
   22b74:	00068793          	mv	a5,a3
   22b78:	f2f42223          	sw	a5,-220(s0)
   22b7c:	00070793          	mv	a5,a4
   22b80:	f2f42023          	sw	a5,-224(s0)
   22b84:	fe0407a3          	sb	zero,-17(s0)
   22b88:	00002797          	auipc	a5,0x2
   22b8c:	5a078793          	addi	a5,a5,1440 # 25128 <__func__.0+0x10>
   22b90:	fef43023          	sd	a5,-32(s0)
   22b94:	f2042783          	lw	a5,-224(s0)
   22b98:	0407f793          	andi	a5,a5,64
   22b9c:	0007879b          	sext.w	a5,a5
   22ba0:	00078863          	beqz	a5,22bb0 <number+0x70>
   22ba4:	00002797          	auipc	a5,0x2
   22ba8:	5ac78793          	addi	a5,a5,1452 # 25150 <__func__.0+0x38>
   22bac:	fef43023          	sd	a5,-32(s0)
   22bb0:	f2042783          	lw	a5,-224(s0)
   22bb4:	0107f793          	andi	a5,a5,16
   22bb8:	0007879b          	sext.w	a5,a5
   22bbc:	00078863          	beqz	a5,22bcc <number+0x8c>
   22bc0:	f2042783          	lw	a5,-224(s0)
   22bc4:	ffe7f793          	andi	a5,a5,-2
   22bc8:	f2f42023          	sw	a5,-224(s0)
   22bcc:	f2c42783          	lw	a5,-212(s0)
   22bd0:	0007871b          	sext.w	a4,a5
   22bd4:	00100793          	li	a5,1
   22bd8:	00e7da63          	bge	a5,a4,22bec <number+0xac>
   22bdc:	f2c42783          	lw	a5,-212(s0)
   22be0:	0007871b          	sext.w	a4,a5
   22be4:	02400793          	li	a5,36
   22be8:	00e7d663          	bge	a5,a4,22bf4 <number+0xb4>
   22bec:	00000793          	li	a5,0
   22bf0:	3400006f          	j	22f30 <number+0x3f0>
   22bf4:	f2042783          	lw	a5,-224(s0)
   22bf8:	0017f793          	andi	a5,a5,1
   22bfc:	0007879b          	sext.w	a5,a5
   22c00:	00078663          	beqz	a5,22c0c <number+0xcc>
   22c04:	03000793          	li	a5,48
   22c08:	0080006f          	j	22c10 <number+0xd0>
   22c0c:	02000793          	li	a5,32
   22c10:	fcf40da3          	sb	a5,-37(s0)
   22c14:	f2042783          	lw	a5,-224(s0)
   22c18:	0027f793          	andi	a5,a5,2
   22c1c:	0007879b          	sext.w	a5,a5
   22c20:	06078c63          	beqz	a5,22c98 <number+0x158>
   22c24:	f3043783          	ld	a5,-208(s0)
   22c28:	fcf43823          	sd	a5,-48(s0)
   22c2c:	fd043783          	ld	a5,-48(s0)
   22c30:	0007de63          	bgez	a5,22c4c <number+0x10c>
   22c34:	02d00793          	li	a5,45
   22c38:	fef407a3          	sb	a5,-17(s0)
   22c3c:	fd043783          	ld	a5,-48(s0)
   22c40:	40f007b3          	neg	a5,a5
   22c44:	f2f43823          	sd	a5,-208(s0)
   22c48:	0500006f          	j	22c98 <number+0x158>
   22c4c:	f2042783          	lw	a5,-224(s0)
   22c50:	0047f793          	andi	a5,a5,4
   22c54:	0007879b          	sext.w	a5,a5
   22c58:	00078e63          	beqz	a5,22c74 <number+0x134>
   22c5c:	02b00793          	li	a5,43
   22c60:	fef407a3          	sb	a5,-17(s0)
   22c64:	f2842783          	lw	a5,-216(s0)
   22c68:	fff7879b          	addiw	a5,a5,-1
   22c6c:	f2f42423          	sw	a5,-216(s0)
   22c70:	0280006f          	j	22c98 <number+0x158>
   22c74:	f2042783          	lw	a5,-224(s0)
   22c78:	0087f793          	andi	a5,a5,8
   22c7c:	0007879b          	sext.w	a5,a5
   22c80:	00078c63          	beqz	a5,22c98 <number+0x158>
   22c84:	02000793          	li	a5,32
   22c88:	fef407a3          	sb	a5,-17(s0)
   22c8c:	f2842783          	lw	a5,-216(s0)
   22c90:	fff7879b          	addiw	a5,a5,-1
   22c94:	f2f42423          	sw	a5,-216(s0)
   22c98:	f2042783          	lw	a5,-224(s0)
   22c9c:	0207f793          	andi	a5,a5,32
   22ca0:	0007879b          	sext.w	a5,a5
   22ca4:	04078063          	beqz	a5,22ce4 <number+0x1a4>
   22ca8:	f2c42783          	lw	a5,-212(s0)
   22cac:	0007871b          	sext.w	a4,a5
   22cb0:	01000793          	li	a5,16
   22cb4:	00f71a63          	bne	a4,a5,22cc8 <number+0x188>
   22cb8:	f2842783          	lw	a5,-216(s0)
   22cbc:	ffe7879b          	addiw	a5,a5,-2
   22cc0:	f2f42423          	sw	a5,-216(s0)
   22cc4:	0200006f          	j	22ce4 <number+0x1a4>
   22cc8:	f2c42783          	lw	a5,-212(s0)
   22ccc:	0007871b          	sext.w	a4,a5
   22cd0:	00800793          	li	a5,8
   22cd4:	00f71863          	bne	a4,a5,22ce4 <number+0x1a4>
   22cd8:	f2842783          	lw	a5,-216(s0)
   22cdc:	fff7879b          	addiw	a5,a5,-1
   22ce0:	f2f42423          	sw	a5,-216(s0)
   22ce4:	fc042e23          	sw	zero,-36(s0)
   22ce8:	f3043783          	ld	a5,-208(s0)
   22cec:	06079e63          	bnez	a5,22d68 <number+0x228>
   22cf0:	fdc42783          	lw	a5,-36(s0)
   22cf4:	0017871b          	addiw	a4,a5,1
   22cf8:	fce42e23          	sw	a4,-36(s0)
   22cfc:	ff040713          	addi	a4,s0,-16
   22d00:	00f707b3          	add	a5,a4,a5
   22d04:	03000713          	li	a4,48
   22d08:	f4e78c23          	sb	a4,-168(a5)
   22d0c:	0640006f          	j	22d70 <number+0x230>
   22d10:	f2c42783          	lw	a5,-212(s0)
   22d14:	fcf42623          	sw	a5,-52(s0)
   22d18:	fcc46783          	lwu	a5,-52(s0)
   22d1c:	f3043703          	ld	a4,-208(s0)
   22d20:	02f777b3          	remu	a5,a4,a5
   22d24:	fcf42423          	sw	a5,-56(s0)
   22d28:	fcc46783          	lwu	a5,-52(s0)
   22d2c:	f3043703          	ld	a4,-208(s0)
   22d30:	02f757b3          	divu	a5,a4,a5
   22d34:	f2f43823          	sd	a5,-208(s0)
   22d38:	fc842783          	lw	a5,-56(s0)
   22d3c:	02079793          	slli	a5,a5,0x20
   22d40:	0207d793          	srli	a5,a5,0x20
   22d44:	fe043703          	ld	a4,-32(s0)
   22d48:	00f70733          	add	a4,a4,a5
   22d4c:	fdc42783          	lw	a5,-36(s0)
   22d50:	0017869b          	addiw	a3,a5,1
   22d54:	fcd42e23          	sw	a3,-36(s0)
   22d58:	00074703          	lbu	a4,0(a4)
   22d5c:	ff040693          	addi	a3,s0,-16
   22d60:	00f687b3          	add	a5,a3,a5
   22d64:	f4e78c23          	sb	a4,-168(a5)
   22d68:	f3043783          	ld	a5,-208(s0)
   22d6c:	fa0792e3          	bnez	a5,22d10 <number+0x1d0>
   22d70:	fdc42703          	lw	a4,-36(s0)
   22d74:	f2442783          	lw	a5,-220(s0)
   22d78:	0007071b          	sext.w	a4,a4
   22d7c:	0007879b          	sext.w	a5,a5
   22d80:	00e7d663          	bge	a5,a4,22d8c <number+0x24c>
   22d84:	fdc42783          	lw	a5,-36(s0)
   22d88:	f2f42223          	sw	a5,-220(s0)
   22d8c:	f2842703          	lw	a4,-216(s0)
   22d90:	f2442783          	lw	a5,-220(s0)
   22d94:	40f707bb          	subw	a5,a4,a5
   22d98:	f2f42423          	sw	a5,-216(s0)
   22d9c:	f2042783          	lw	a5,-224(s0)
   22da0:	0117f793          	andi	a5,a5,17
   22da4:	0007879b          	sext.w	a5,a5
   22da8:	02079663          	bnez	a5,22dd4 <number+0x294>
   22dac:	0180006f          	j	22dc4 <number+0x284>
   22db0:	f3843783          	ld	a5,-200(s0)
   22db4:	00178713          	addi	a4,a5,1
   22db8:	f2e43c23          	sd	a4,-200(s0)
   22dbc:	02000713          	li	a4,32
   22dc0:	00e78023          	sb	a4,0(a5)
   22dc4:	f2842783          	lw	a5,-216(s0)
   22dc8:	fff7871b          	addiw	a4,a5,-1
   22dcc:	f2e42423          	sw	a4,-216(s0)
   22dd0:	fef040e3          	bgtz	a5,22db0 <number+0x270>
   22dd4:	fef44783          	lbu	a5,-17(s0)
   22dd8:	0ff7f793          	andi	a5,a5,255
   22ddc:	00078c63          	beqz	a5,22df4 <number+0x2b4>
   22de0:	f3843783          	ld	a5,-200(s0)
   22de4:	00178713          	addi	a4,a5,1
   22de8:	f2e43c23          	sd	a4,-200(s0)
   22dec:	fef44703          	lbu	a4,-17(s0)
   22df0:	00e78023          	sb	a4,0(a5)
   22df4:	f2042783          	lw	a5,-224(s0)
   22df8:	0207f793          	andi	a5,a5,32
   22dfc:	0007879b          	sext.w	a5,a5
   22e00:	06078463          	beqz	a5,22e68 <number+0x328>
   22e04:	f2c42783          	lw	a5,-212(s0)
   22e08:	0007871b          	sext.w	a4,a5
   22e0c:	00800793          	li	a5,8
   22e10:	00f71e63          	bne	a4,a5,22e2c <number+0x2ec>
   22e14:	f3843783          	ld	a5,-200(s0)
   22e18:	00178713          	addi	a4,a5,1
   22e1c:	f2e43c23          	sd	a4,-200(s0)
   22e20:	03000713          	li	a4,48
   22e24:	00e78023          	sb	a4,0(a5)
   22e28:	0400006f          	j	22e68 <number+0x328>
   22e2c:	f2c42783          	lw	a5,-212(s0)
   22e30:	0007871b          	sext.w	a4,a5
   22e34:	01000793          	li	a5,16
   22e38:	02f71863          	bne	a4,a5,22e68 <number+0x328>
   22e3c:	f3843783          	ld	a5,-200(s0)
   22e40:	00178713          	addi	a4,a5,1
   22e44:	f2e43c23          	sd	a4,-200(s0)
   22e48:	03000713          	li	a4,48
   22e4c:	00e78023          	sb	a4,0(a5)
   22e50:	f3843783          	ld	a5,-200(s0)
   22e54:	00178713          	addi	a4,a5,1
   22e58:	f2e43c23          	sd	a4,-200(s0)
   22e5c:	fe043703          	ld	a4,-32(s0)
   22e60:	02174703          	lbu	a4,33(a4)
   22e64:	00e78023          	sb	a4,0(a5)
   22e68:	f2042783          	lw	a5,-224(s0)
   22e6c:	0107f793          	andi	a5,a5,16
   22e70:	0007879b          	sext.w	a5,a5
   22e74:	04079263          	bnez	a5,22eb8 <number+0x378>
   22e78:	0180006f          	j	22e90 <number+0x350>
   22e7c:	f3843783          	ld	a5,-200(s0)
   22e80:	00178713          	addi	a4,a5,1
   22e84:	f2e43c23          	sd	a4,-200(s0)
   22e88:	fdb44703          	lbu	a4,-37(s0)
   22e8c:	00e78023          	sb	a4,0(a5)
   22e90:	f2842783          	lw	a5,-216(s0)
   22e94:	fff7871b          	addiw	a4,a5,-1
   22e98:	f2e42423          	sw	a4,-216(s0)
   22e9c:	fef040e3          	bgtz	a5,22e7c <number+0x33c>
   22ea0:	0180006f          	j	22eb8 <number+0x378>
   22ea4:	f3843783          	ld	a5,-200(s0)
   22ea8:	00178713          	addi	a4,a5,1
   22eac:	f2e43c23          	sd	a4,-200(s0)
   22eb0:	03000713          	li	a4,48
   22eb4:	00e78023          	sb	a4,0(a5)
   22eb8:	f2442783          	lw	a5,-220(s0)
   22ebc:	fff7871b          	addiw	a4,a5,-1
   22ec0:	f2e42223          	sw	a4,-220(s0)
   22ec4:	fdc42703          	lw	a4,-36(s0)
   22ec8:	0007071b          	sext.w	a4,a4
   22ecc:	fcf74ce3          	blt	a4,a5,22ea4 <number+0x364>
   22ed0:	0240006f          	j	22ef4 <number+0x3b4>
   22ed4:	f3843783          	ld	a5,-200(s0)
   22ed8:	00178713          	addi	a4,a5,1
   22edc:	f2e43c23          	sd	a4,-200(s0)
   22ee0:	fdc42703          	lw	a4,-36(s0)
   22ee4:	ff040693          	addi	a3,s0,-16
   22ee8:	00e68733          	add	a4,a3,a4
   22eec:	f5874703          	lbu	a4,-168(a4)
   22ef0:	00e78023          	sb	a4,0(a5)
   22ef4:	fdc42783          	lw	a5,-36(s0)
   22ef8:	fff7871b          	addiw	a4,a5,-1
   22efc:	fce42e23          	sw	a4,-36(s0)
   22f00:	fcf04ae3          	bgtz	a5,22ed4 <number+0x394>
   22f04:	0180006f          	j	22f1c <number+0x3dc>
   22f08:	f3843783          	ld	a5,-200(s0)
   22f0c:	00178713          	addi	a4,a5,1
   22f10:	f2e43c23          	sd	a4,-200(s0)
   22f14:	02000713          	li	a4,32
   22f18:	00e78023          	sb	a4,0(a5)
   22f1c:	f2842783          	lw	a5,-216(s0)
   22f20:	fff7871b          	addiw	a4,a5,-1
   22f24:	f2e42423          	sw	a4,-216(s0)
   22f28:	fef040e3          	bgtz	a5,22f08 <number+0x3c8>
   22f2c:	f3843783          	ld	a5,-200(s0)
   22f30:	00078513          	mv	a0,a5
   22f34:	0d813403          	ld	s0,216(sp)
   22f38:	0e010113          	addi	sp,sp,224
   22f3c:	00008067          	ret

0000000000022f40 <myprintf>:
   22f40:	f9010113          	addi	sp,sp,-112
   22f44:	06113423          	sd	ra,104(sp)
   22f48:	06813023          	sd	s0,96(sp)
   22f4c:	07010413          	addi	s0,sp,112
   22f50:	faa43423          	sd	a0,-88(s0)
   22f54:	00058793          	mv	a5,a1
   22f58:	f8c43c23          	sd	a2,-104(s0)
   22f5c:	f8d43823          	sd	a3,-112(s0)
   22f60:	faf42223          	sw	a5,-92(s0)
   22f64:	fa843783          	ld	a5,-88(s0)
   22f68:	fef43423          	sd	a5,-24(s0)
   22f6c:	7440006f          	j	236b0 <myprintf+0x770>
   22f70:	f9843783          	ld	a5,-104(s0)
   22f74:	0007c783          	lbu	a5,0(a5)
   22f78:	00078713          	mv	a4,a5
   22f7c:	02500793          	li	a5,37
   22f80:	02f70063          	beq	a4,a5,22fa0 <myprintf+0x60>
   22f84:	fe843783          	ld	a5,-24(s0)
   22f88:	00178713          	addi	a4,a5,1
   22f8c:	fee43423          	sd	a4,-24(s0)
   22f90:	f9843703          	ld	a4,-104(s0)
   22f94:	00074703          	lbu	a4,0(a4)
   22f98:	00e78023          	sb	a4,0(a5)
   22f9c:	7080006f          	j	236a4 <myprintf+0x764>
   22fa0:	fe042223          	sw	zero,-28(s0)
   22fa4:	f9843783          	ld	a5,-104(s0)
   22fa8:	00178793          	addi	a5,a5,1
   22fac:	f8f43c23          	sd	a5,-104(s0)
   22fb0:	f9843783          	ld	a5,-104(s0)
   22fb4:	0007c783          	lbu	a5,0(a5)
   22fb8:	0007879b          	sext.w	a5,a5
   22fbc:	fe07869b          	addiw	a3,a5,-32
   22fc0:	0006871b          	sext.w	a4,a3
   22fc4:	01000793          	li	a5,16
   22fc8:	08e7e263          	bltu	a5,a4,2304c <myprintf+0x10c>
   22fcc:	02069793          	slli	a5,a3,0x20
   22fd0:	0207d793          	srli	a5,a5,0x20
   22fd4:	00279713          	slli	a4,a5,0x2
   22fd8:	00002797          	auipc	a5,0x2
   22fdc:	1a878793          	addi	a5,a5,424 # 25180 <__func__.0+0x68>
   22fe0:	00f707b3          	add	a5,a4,a5
   22fe4:	0007a783          	lw	a5,0(a5)
   22fe8:	0007871b          	sext.w	a4,a5
   22fec:	00002797          	auipc	a5,0x2
   22ff0:	19478793          	addi	a5,a5,404 # 25180 <__func__.0+0x68>
   22ff4:	00f707b3          	add	a5,a4,a5
   22ff8:	00078067          	jr	a5
   22ffc:	fe442783          	lw	a5,-28(s0)
   23000:	0107e793          	ori	a5,a5,16
   23004:	fef42223          	sw	a5,-28(s0)
   23008:	f9dff06f          	j	22fa4 <myprintf+0x64>
   2300c:	fe442783          	lw	a5,-28(s0)
   23010:	0047e793          	ori	a5,a5,4
   23014:	fef42223          	sw	a5,-28(s0)
   23018:	f8dff06f          	j	22fa4 <myprintf+0x64>
   2301c:	fe442783          	lw	a5,-28(s0)
   23020:	0087e793          	ori	a5,a5,8
   23024:	fef42223          	sw	a5,-28(s0)
   23028:	f7dff06f          	j	22fa4 <myprintf+0x64>
   2302c:	fe442783          	lw	a5,-28(s0)
   23030:	0207e793          	ori	a5,a5,32
   23034:	fef42223          	sw	a5,-28(s0)
   23038:	f6dff06f          	j	22fa4 <myprintf+0x64>
   2303c:	fe442783          	lw	a5,-28(s0)
   23040:	0017e793          	ori	a5,a5,1
   23044:	fef42223          	sw	a5,-28(s0)
   23048:	f5dff06f          	j	22fa4 <myprintf+0x64>
   2304c:	fff00793          	li	a5,-1
   23050:	faf42a23          	sw	a5,-76(s0)
   23054:	f9843783          	ld	a5,-104(s0)
   23058:	0007c783          	lbu	a5,0(a5)
   2305c:	00078713          	mv	a4,a5
   23060:	02f00793          	li	a5,47
   23064:	02e7f863          	bgeu	a5,a4,23094 <myprintf+0x154>
   23068:	f9843783          	ld	a5,-104(s0)
   2306c:	0007c783          	lbu	a5,0(a5)
   23070:	00078713          	mv	a4,a5
   23074:	03900793          	li	a5,57
   23078:	00e7ee63          	bltu	a5,a4,23094 <myprintf+0x154>
   2307c:	fb440793          	addi	a5,s0,-76
   23080:	00078593          	mv	a1,a5
   23084:	f9843503          	ld	a0,-104(s0)
   23088:	a15ff0ef          	jal	ra,22a9c <scan_number>
   2308c:	f8a43c23          	sd	a0,-104(s0)
   23090:	0500006f          	j	230e0 <myprintf+0x1a0>
   23094:	f9843783          	ld	a5,-104(s0)
   23098:	0007c783          	lbu	a5,0(a5)
   2309c:	00078713          	mv	a4,a5
   230a0:	02a00793          	li	a5,42
   230a4:	02f71e63          	bne	a4,a5,230e0 <myprintf+0x1a0>
   230a8:	f9043783          	ld	a5,-112(s0)
   230ac:	00878713          	addi	a4,a5,8
   230b0:	f8e43823          	sd	a4,-112(s0)
   230b4:	0007a783          	lw	a5,0(a5)
   230b8:	faf42a23          	sw	a5,-76(s0)
   230bc:	fb442783          	lw	a5,-76(s0)
   230c0:	0207d063          	bgez	a5,230e0 <myprintf+0x1a0>
   230c4:	fb442783          	lw	a5,-76(s0)
   230c8:	40f007bb          	negw	a5,a5
   230cc:	0007879b          	sext.w	a5,a5
   230d0:	faf42a23          	sw	a5,-76(s0)
   230d4:	fe442783          	lw	a5,-28(s0)
   230d8:	0107e793          	ori	a5,a5,16
   230dc:	fef42223          	sw	a5,-28(s0)
   230e0:	fff00793          	li	a5,-1
   230e4:	faf42823          	sw	a5,-80(s0)
   230e8:	f9843783          	ld	a5,-104(s0)
   230ec:	0007c783          	lbu	a5,0(a5)
   230f0:	00078713          	mv	a4,a5
   230f4:	02e00793          	li	a5,46
   230f8:	08f71263          	bne	a4,a5,2317c <myprintf+0x23c>
   230fc:	f9843783          	ld	a5,-104(s0)
   23100:	00178793          	addi	a5,a5,1
   23104:	f8f43c23          	sd	a5,-104(s0)
   23108:	f9843783          	ld	a5,-104(s0)
   2310c:	0007c783          	lbu	a5,0(a5)
   23110:	00078713          	mv	a4,a5
   23114:	02f00793          	li	a5,47
   23118:	02e7f863          	bgeu	a5,a4,23148 <myprintf+0x208>
   2311c:	f9843783          	ld	a5,-104(s0)
   23120:	0007c783          	lbu	a5,0(a5)
   23124:	00078713          	mv	a4,a5
   23128:	03900793          	li	a5,57
   2312c:	00e7ee63          	bltu	a5,a4,23148 <myprintf+0x208>
   23130:	fb040793          	addi	a5,s0,-80
   23134:	00078593          	mv	a1,a5
   23138:	f9843503          	ld	a0,-104(s0)
   2313c:	961ff0ef          	jal	ra,22a9c <scan_number>
   23140:	f8a43c23          	sd	a0,-104(s0)
   23144:	02c0006f          	j	23170 <myprintf+0x230>
   23148:	f9843783          	ld	a5,-104(s0)
   2314c:	0007c783          	lbu	a5,0(a5)
   23150:	00078713          	mv	a4,a5
   23154:	02a00793          	li	a5,42
   23158:	00f71c63          	bne	a4,a5,23170 <myprintf+0x230>
   2315c:	f9043783          	ld	a5,-112(s0)
   23160:	00878713          	addi	a4,a5,8
   23164:	f8e43823          	sd	a4,-112(s0)
   23168:	0007a783          	lw	a5,0(a5)
   2316c:	faf42823          	sw	a5,-80(s0)
   23170:	fb042783          	lw	a5,-80(s0)
   23174:	0007d463          	bgez	a5,2317c <myprintf+0x23c>
   23178:	fa042823          	sw	zero,-80(s0)
   2317c:	fff00793          	li	a5,-1
   23180:	fef42023          	sw	a5,-32(s0)
   23184:	f9843783          	ld	a5,-104(s0)
   23188:	0007c783          	lbu	a5,0(a5)
   2318c:	00078713          	mv	a4,a5
   23190:	06800793          	li	a5,104
   23194:	02f70663          	beq	a4,a5,231c0 <myprintf+0x280>
   23198:	f9843783          	ld	a5,-104(s0)
   2319c:	0007c783          	lbu	a5,0(a5)
   231a0:	00078713          	mv	a4,a5
   231a4:	06c00793          	li	a5,108
   231a8:	00f70c63          	beq	a4,a5,231c0 <myprintf+0x280>
   231ac:	f9843783          	ld	a5,-104(s0)
   231b0:	0007c783          	lbu	a5,0(a5)
   231b4:	00078713          	mv	a4,a5
   231b8:	04c00793          	li	a5,76
   231bc:	04f71a63          	bne	a4,a5,23210 <myprintf+0x2d0>
   231c0:	f9843783          	ld	a5,-104(s0)
   231c4:	0007c783          	lbu	a5,0(a5)
   231c8:	fef42023          	sw	a5,-32(s0)
   231cc:	f9843783          	ld	a5,-104(s0)
   231d0:	00178793          	addi	a5,a5,1
   231d4:	f8f43c23          	sd	a5,-104(s0)
   231d8:	fe042783          	lw	a5,-32(s0)
   231dc:	0007871b          	sext.w	a4,a5
   231e0:	06c00793          	li	a5,108
   231e4:	02f71663          	bne	a4,a5,23210 <myprintf+0x2d0>
   231e8:	f9843783          	ld	a5,-104(s0)
   231ec:	0007c783          	lbu	a5,0(a5)
   231f0:	00078713          	mv	a4,a5
   231f4:	06c00793          	li	a5,108
   231f8:	00f71c63          	bne	a4,a5,23210 <myprintf+0x2d0>
   231fc:	04c00793          	li	a5,76
   23200:	fef42023          	sw	a5,-32(s0)
   23204:	f9843783          	ld	a5,-104(s0)
   23208:	00178793          	addi	a5,a5,1
   2320c:	f8f43c23          	sd	a5,-104(s0)
   23210:	f9843783          	ld	a5,-104(s0)
   23214:	0007c783          	lbu	a5,0(a5)
   23218:	0007879b          	sext.w	a5,a5
   2321c:	fa87869b          	addiw	a3,a5,-88
   23220:	0006871b          	sext.w	a4,a3
   23224:	02000793          	li	a5,32
   23228:	2ae7ec63          	bltu	a5,a4,234e0 <myprintf+0x5a0>
   2322c:	02069793          	slli	a5,a3,0x20
   23230:	0207d793          	srli	a5,a5,0x20
   23234:	00279713          	slli	a4,a5,0x2
   23238:	00002797          	auipc	a5,0x2
   2323c:	f8c78793          	addi	a5,a5,-116 # 251c4 <__func__.0+0xac>
   23240:	00f707b3          	add	a5,a4,a5
   23244:	0007a783          	lw	a5,0(a5)
   23248:	0007871b          	sext.w	a4,a5
   2324c:	00002797          	auipc	a5,0x2
   23250:	f7878793          	addi	a5,a5,-136 # 251c4 <__func__.0+0xac>
   23254:	00f707b3          	add	a5,a4,a5
   23258:	00078067          	jr	a5
   2325c:	fe442783          	lw	a5,-28(s0)
   23260:	0107f793          	andi	a5,a5,16
   23264:	0007879b          	sext.w	a5,a5
   23268:	02079a63          	bnez	a5,2329c <myprintf+0x35c>
   2326c:	0180006f          	j	23284 <myprintf+0x344>
   23270:	fe843783          	ld	a5,-24(s0)
   23274:	00178713          	addi	a4,a5,1
   23278:	fee43423          	sd	a4,-24(s0)
   2327c:	02000713          	li	a4,32
   23280:	00e78023          	sb	a4,0(a5)
   23284:	fb442783          	lw	a5,-76(s0)
   23288:	fff7879b          	addiw	a5,a5,-1
   2328c:	0007879b          	sext.w	a5,a5
   23290:	faf42a23          	sw	a5,-76(s0)
   23294:	fb442783          	lw	a5,-76(s0)
   23298:	fcf04ce3          	bgtz	a5,23270 <myprintf+0x330>
   2329c:	f9043783          	ld	a5,-112(s0)
   232a0:	00878713          	addi	a4,a5,8
   232a4:	f8e43823          	sd	a4,-112(s0)
   232a8:	0007a683          	lw	a3,0(a5)
   232ac:	fe843783          	ld	a5,-24(s0)
   232b0:	00178713          	addi	a4,a5,1
   232b4:	fee43423          	sd	a4,-24(s0)
   232b8:	0ff6f713          	andi	a4,a3,255
   232bc:	00e78023          	sb	a4,0(a5)
   232c0:	0180006f          	j	232d8 <myprintf+0x398>
   232c4:	fe843783          	ld	a5,-24(s0)
   232c8:	00178713          	addi	a4,a5,1
   232cc:	fee43423          	sd	a4,-24(s0)
   232d0:	02000713          	li	a4,32
   232d4:	00e78023          	sb	a4,0(a5)
   232d8:	fb442783          	lw	a5,-76(s0)
   232dc:	fff7879b          	addiw	a5,a5,-1
   232e0:	0007879b          	sext.w	a5,a5
   232e4:	faf42a23          	sw	a5,-76(s0)
   232e8:	fb442783          	lw	a5,-76(s0)
   232ec:	fcf04ce3          	bgtz	a5,232c4 <myprintf+0x384>
   232f0:	3b40006f          	j	236a4 <myprintf+0x764>
   232f4:	f9043783          	ld	a5,-112(s0)
   232f8:	00878713          	addi	a4,a5,8
   232fc:	f8e43823          	sd	a4,-112(s0)
   23300:	0007b783          	ld	a5,0(a5)
   23304:	fcf43c23          	sd	a5,-40(s0)
   23308:	fd843783          	ld	a5,-40(s0)
   2330c:	00079863          	bnez	a5,2331c <myprintf+0x3dc>
   23310:	00002797          	auipc	a5,0x2
   23314:	e6878793          	addi	a5,a5,-408 # 25178 <__func__.0+0x60>
   23318:	fcf43c23          	sd	a5,-40(s0)
   2331c:	fd843503          	ld	a0,-40(s0)
   23320:	5e4000ef          	jal	ra,23904 <strlen>
   23324:	00050793          	mv	a5,a0
   23328:	fcf42823          	sw	a5,-48(s0)
   2332c:	fb042783          	lw	a5,-80(s0)
   23330:	0007d863          	bgez	a5,23340 <myprintf+0x400>
   23334:	fd042783          	lw	a5,-48(s0)
   23338:	faf42823          	sw	a5,-80(s0)
   2333c:	01c0006f          	j	23358 <myprintf+0x418>
   23340:	fb042703          	lw	a4,-80(s0)
   23344:	fd042783          	lw	a5,-48(s0)
   23348:	0007879b          	sext.w	a5,a5
   2334c:	00f75663          	bge	a4,a5,23358 <myprintf+0x418>
   23350:	fb042783          	lw	a5,-80(s0)
   23354:	fcf42823          	sw	a5,-48(s0)
   23358:	fe442783          	lw	a5,-28(s0)
   2335c:	0107f793          	andi	a5,a5,16
   23360:	0007879b          	sext.w	a5,a5
   23364:	02079c63          	bnez	a5,2339c <myprintf+0x45c>
   23368:	0180006f          	j	23380 <myprintf+0x440>
   2336c:	fe843783          	ld	a5,-24(s0)
   23370:	00178713          	addi	a4,a5,1
   23374:	fee43423          	sd	a4,-24(s0)
   23378:	02000713          	li	a4,32
   2337c:	00e78023          	sb	a4,0(a5)
   23380:	fb442783          	lw	a5,-76(s0)
   23384:	fff7871b          	addiw	a4,a5,-1
   23388:	0007071b          	sext.w	a4,a4
   2338c:	fae42a23          	sw	a4,-76(s0)
   23390:	fd042703          	lw	a4,-48(s0)
   23394:	0007071b          	sext.w	a4,a4
   23398:	fcf74ae3          	blt	a4,a5,2336c <myprintf+0x42c>
   2339c:	fc042a23          	sw	zero,-44(s0)
   233a0:	0300006f          	j	233d0 <myprintf+0x490>
   233a4:	fd843703          	ld	a4,-40(s0)
   233a8:	00170793          	addi	a5,a4,1
   233ac:	fcf43c23          	sd	a5,-40(s0)
   233b0:	fe843783          	ld	a5,-24(s0)
   233b4:	00178693          	addi	a3,a5,1
   233b8:	fed43423          	sd	a3,-24(s0)
   233bc:	00074703          	lbu	a4,0(a4)
   233c0:	00e78023          	sb	a4,0(a5)
   233c4:	fd442783          	lw	a5,-44(s0)
   233c8:	0017879b          	addiw	a5,a5,1
   233cc:	fcf42a23          	sw	a5,-44(s0)
   233d0:	fd442703          	lw	a4,-44(s0)
   233d4:	fd042783          	lw	a5,-48(s0)
   233d8:	0007071b          	sext.w	a4,a4
   233dc:	0007879b          	sext.w	a5,a5
   233e0:	fcf742e3          	blt	a4,a5,233a4 <myprintf+0x464>
   233e4:	0180006f          	j	233fc <myprintf+0x4bc>
   233e8:	fe843783          	ld	a5,-24(s0)
   233ec:	00178713          	addi	a4,a5,1
   233f0:	fee43423          	sd	a4,-24(s0)
   233f4:	02000713          	li	a4,32
   233f8:	00e78023          	sb	a4,0(a5)
   233fc:	fb442783          	lw	a5,-76(s0)
   23400:	fff7871b          	addiw	a4,a5,-1
   23404:	0007071b          	sext.w	a4,a4
   23408:	fae42a23          	sw	a4,-76(s0)
   2340c:	fd042703          	lw	a4,-48(s0)
   23410:	0007071b          	sext.w	a4,a4
   23414:	fcf74ae3          	blt	a4,a5,233e8 <myprintf+0x4a8>
   23418:	28c0006f          	j	236a4 <myprintf+0x764>
   2341c:	f9043783          	ld	a5,-112(s0)
   23420:	00878713          	addi	a4,a5,8
   23424:	f8e43823          	sd	a4,-112(s0)
   23428:	0007b783          	ld	a5,0(a5)
   2342c:	faf43c23          	sd	a5,-72(s0)
   23430:	fe843703          	ld	a4,-24(s0)
   23434:	fa843783          	ld	a5,-88(s0)
   23438:	40f707b3          	sub	a5,a4,a5
   2343c:	0ff7f713          	andi	a4,a5,255
   23440:	fb843783          	ld	a5,-72(s0)
   23444:	00e78023          	sb	a4,0(a5)
   23448:	25c0006f          	j	236a4 <myprintf+0x764>
   2344c:	fb442783          	lw	a5,-76(s0)
   23450:	00078713          	mv	a4,a5
   23454:	fff00793          	li	a5,-1
   23458:	00f71c63          	bne	a4,a5,23470 <myprintf+0x530>
   2345c:	01000793          	li	a5,16
   23460:	faf42a23          	sw	a5,-76(s0)
   23464:	fe442783          	lw	a5,-28(s0)
   23468:	0017e793          	ori	a5,a5,1
   2346c:	fef42223          	sw	a5,-28(s0)
   23470:	f9043783          	ld	a5,-112(s0)
   23474:	00878713          	addi	a4,a5,8
   23478:	f8e43823          	sd	a4,-112(s0)
   2347c:	0007b783          	ld	a5,0(a5)
   23480:	00078593          	mv	a1,a5
   23484:	fb442683          	lw	a3,-76(s0)
   23488:	fb042703          	lw	a4,-80(s0)
   2348c:	fe442783          	lw	a5,-28(s0)
   23490:	01000613          	li	a2,16
   23494:	fe843503          	ld	a0,-24(s0)
   23498:	ea8ff0ef          	jal	ra,22b40 <number>
   2349c:	fea43423          	sd	a0,-24(s0)
   234a0:	2040006f          	j	236a4 <myprintf+0x764>
   234a4:	00800793          	li	a5,8
   234a8:	fcf42223          	sw	a5,-60(s0)
   234ac:	0940006f          	j	23540 <myprintf+0x600>
   234b0:	fe442783          	lw	a5,-28(s0)
   234b4:	0407e793          	ori	a5,a5,64
   234b8:	fef42223          	sw	a5,-28(s0)
   234bc:	01000793          	li	a5,16
   234c0:	fcf42223          	sw	a5,-60(s0)
   234c4:	07c0006f          	j	23540 <myprintf+0x600>
   234c8:	fe442783          	lw	a5,-28(s0)
   234cc:	0027e793          	ori	a5,a5,2
   234d0:	fef42223          	sw	a5,-28(s0)
   234d4:	00a00793          	li	a5,10
   234d8:	fcf42223          	sw	a5,-60(s0)
   234dc:	0640006f          	j	23540 <myprintf+0x600>
   234e0:	f9843783          	ld	a5,-104(s0)
   234e4:	0007c783          	lbu	a5,0(a5)
   234e8:	00078713          	mv	a4,a5
   234ec:	02500793          	li	a5,37
   234f0:	00f70c63          	beq	a4,a5,23508 <myprintf+0x5c8>
   234f4:	fe843783          	ld	a5,-24(s0)
   234f8:	00178713          	addi	a4,a5,1
   234fc:	fee43423          	sd	a4,-24(s0)
   23500:	02500713          	li	a4,37
   23504:	00e78023          	sb	a4,0(a5)
   23508:	f9843783          	ld	a5,-104(s0)
   2350c:	0007c783          	lbu	a5,0(a5)
   23510:	02078063          	beqz	a5,23530 <myprintf+0x5f0>
   23514:	fe843783          	ld	a5,-24(s0)
   23518:	00178713          	addi	a4,a5,1
   2351c:	fee43423          	sd	a4,-24(s0)
   23520:	f9843703          	ld	a4,-104(s0)
   23524:	00074703          	lbu	a4,0(a4)
   23528:	00e78023          	sb	a4,0(a5)
   2352c:	0100006f          	j	2353c <myprintf+0x5fc>
   23530:	f9843783          	ld	a5,-104(s0)
   23534:	fff78793          	addi	a5,a5,-1
   23538:	f8f43c23          	sd	a5,-104(s0)
   2353c:	00000013          	nop
   23540:	fe042783          	lw	a5,-32(s0)
   23544:	0007871b          	sext.w	a4,a5
   23548:	04c00793          	li	a5,76
   2354c:	04f71263          	bne	a4,a5,23590 <myprintf+0x650>
   23550:	fe442783          	lw	a5,-28(s0)
   23554:	0027f793          	andi	a5,a5,2
   23558:	0007879b          	sext.w	a5,a5
   2355c:	00078e63          	beqz	a5,23578 <myprintf+0x638>
   23560:	f9043783          	ld	a5,-112(s0)
   23564:	00878713          	addi	a4,a5,8
   23568:	f8e43823          	sd	a4,-112(s0)
   2356c:	0007b783          	ld	a5,0(a5)
   23570:	fcf43423          	sd	a5,-56(s0)
   23574:	1100006f          	j	23684 <myprintf+0x744>
   23578:	f9043783          	ld	a5,-112(s0)
   2357c:	00878713          	addi	a4,a5,8
   23580:	f8e43823          	sd	a4,-112(s0)
   23584:	0007b783          	ld	a5,0(a5)
   23588:	fcf43423          	sd	a5,-56(s0)
   2358c:	0f80006f          	j	23684 <myprintf+0x744>
   23590:	fe042783          	lw	a5,-32(s0)
   23594:	0007871b          	sext.w	a4,a5
   23598:	06800793          	li	a5,104
   2359c:	04f71a63          	bne	a4,a5,235f0 <myprintf+0x6b0>
   235a0:	fe442783          	lw	a5,-28(s0)
   235a4:	0027f793          	andi	a5,a5,2
   235a8:	0007879b          	sext.w	a5,a5
   235ac:	02078263          	beqz	a5,235d0 <myprintf+0x690>
   235b0:	f9043783          	ld	a5,-112(s0)
   235b4:	00878713          	addi	a4,a5,8
   235b8:	f8e43823          	sd	a4,-112(s0)
   235bc:	0007a783          	lw	a5,0(a5)
   235c0:	0107979b          	slliw	a5,a5,0x10
   235c4:	4107d79b          	sraiw	a5,a5,0x10
   235c8:	fcf43423          	sd	a5,-56(s0)
   235cc:	0b80006f          	j	23684 <myprintf+0x744>
   235d0:	f9043783          	ld	a5,-112(s0)
   235d4:	00878713          	addi	a4,a5,8
   235d8:	f8e43823          	sd	a4,-112(s0)
   235dc:	0007a783          	lw	a5,0(a5)
   235e0:	03079793          	slli	a5,a5,0x30
   235e4:	0307d793          	srli	a5,a5,0x30
   235e8:	fcf43423          	sd	a5,-56(s0)
   235ec:	0980006f          	j	23684 <myprintf+0x744>
   235f0:	fe042783          	lw	a5,-32(s0)
   235f4:	0007871b          	sext.w	a4,a5
   235f8:	06c00793          	li	a5,108
   235fc:	04f71263          	bne	a4,a5,23640 <myprintf+0x700>
   23600:	fe442783          	lw	a5,-28(s0)
   23604:	0027f793          	andi	a5,a5,2
   23608:	0007879b          	sext.w	a5,a5
   2360c:	00078e63          	beqz	a5,23628 <myprintf+0x6e8>
   23610:	f9043783          	ld	a5,-112(s0)
   23614:	00878713          	addi	a4,a5,8
   23618:	f8e43823          	sd	a4,-112(s0)
   2361c:	0007b783          	ld	a5,0(a5)
   23620:	fcf43423          	sd	a5,-56(s0)
   23624:	0600006f          	j	23684 <myprintf+0x744>
   23628:	f9043783          	ld	a5,-112(s0)
   2362c:	00878713          	addi	a4,a5,8
   23630:	f8e43823          	sd	a4,-112(s0)
   23634:	0007b783          	ld	a5,0(a5)
   23638:	fcf43423          	sd	a5,-56(s0)
   2363c:	0480006f          	j	23684 <myprintf+0x744>
   23640:	fe442783          	lw	a5,-28(s0)
   23644:	0027f793          	andi	a5,a5,2
   23648:	0007879b          	sext.w	a5,a5
   2364c:	00078e63          	beqz	a5,23668 <myprintf+0x728>
   23650:	f9043783          	ld	a5,-112(s0)
   23654:	00878713          	addi	a4,a5,8
   23658:	f8e43823          	sd	a4,-112(s0)
   2365c:	0007a783          	lw	a5,0(a5)
   23660:	fcf43423          	sd	a5,-56(s0)
   23664:	0200006f          	j	23684 <myprintf+0x744>
   23668:	f9043783          	ld	a5,-112(s0)
   2366c:	00878713          	addi	a4,a5,8
   23670:	f8e43823          	sd	a4,-112(s0)
   23674:	0007a783          	lw	a5,0(a5)
   23678:	02079793          	slli	a5,a5,0x20
   2367c:	0207d793          	srli	a5,a5,0x20
   23680:	fcf43423          	sd	a5,-56(s0)
   23684:	fb442683          	lw	a3,-76(s0)
   23688:	fb042703          	lw	a4,-80(s0)
   2368c:	fe442783          	lw	a5,-28(s0)
   23690:	fc442603          	lw	a2,-60(s0)
   23694:	fc843583          	ld	a1,-56(s0)
   23698:	fe843503          	ld	a0,-24(s0)
   2369c:	ca4ff0ef          	jal	ra,22b40 <number>
   236a0:	fea43423          	sd	a0,-24(s0)
   236a4:	f9843783          	ld	a5,-104(s0)
   236a8:	00178793          	addi	a5,a5,1
   236ac:	f8f43c23          	sd	a5,-104(s0)
   236b0:	f9843783          	ld	a5,-104(s0)
   236b4:	0007c783          	lbu	a5,0(a5)
   236b8:	8a079ce3          	bnez	a5,22f70 <myprintf+0x30>
   236bc:	fe843783          	ld	a5,-24(s0)
   236c0:	00078023          	sb	zero,0(a5)
   236c4:	fe843703          	ld	a4,-24(s0)
   236c8:	fa843783          	ld	a5,-88(s0)
   236cc:	40f707b3          	sub	a5,a4,a5
   236d0:	0007879b          	sext.w	a5,a5
   236d4:	00078513          	mv	a0,a5
   236d8:	06813083          	ld	ra,104(sp)
   236dc:	06013403          	ld	s0,96(sp)
   236e0:	07010113          	addi	sp,sp,112
   236e4:	00008067          	ret

00000000000236e8 <init_printk_done>:
   236e8:	fe010113          	addi	sp,sp,-32
   236ec:	00113c23          	sd	ra,24(sp)
   236f0:	00813823          	sd	s0,16(sp)
   236f4:	02010413          	addi	s0,sp,32
   236f8:	00004797          	auipc	a5,0x4
   236fc:	b1078793          	addi	a5,a5,-1264 # 27208 <g_printk_status>
   23700:	00100713          	li	a4,1
   23704:	00e7a023          	sw	a4,0(a5)
   23708:	fe043423          	sd	zero,-24(s0)
   2370c:	0300006f          	j	2373c <init_printk_done+0x54>
   23710:	00004717          	auipc	a4,0x4
   23714:	9f870713          	addi	a4,a4,-1544 # 27108 <log_buf>
   23718:	fe843783          	ld	a5,-24(s0)
   2371c:	00f707b3          	add	a5,a4,a5
   23720:	0007c783          	lbu	a5,0(a5)
   23724:	0007879b          	sext.w	a5,a5
   23728:	00078513          	mv	a0,a5
   2372c:	591000ef          	jal	ra,244bc <putchar>
   23730:	fe843783          	ld	a5,-24(s0)
   23734:	00178793          	addi	a5,a5,1
   23738:	fef43423          	sd	a5,-24(s0)
   2373c:	00004797          	auipc	a5,0x4
   23740:	ad478793          	addi	a5,a5,-1324 # 27210 <g_record_len>
   23744:	0007b783          	ld	a5,0(a5)
   23748:	fe843703          	ld	a4,-24(s0)
   2374c:	fcf762e3          	bltu	a4,a5,23710 <init_printk_done+0x28>
   23750:	00004797          	auipc	a5,0x4
   23754:	8b078793          	addi	a5,a5,-1872 # 27000 <g_record>
   23758:	00004717          	auipc	a4,0x4
   2375c:	9b070713          	addi	a4,a4,-1616 # 27108 <log_buf>
   23760:	00e7b023          	sd	a4,0(a5)
   23764:	00004797          	auipc	a5,0x4
   23768:	aac78793          	addi	a5,a5,-1364 # 27210 <g_record_len>
   2376c:	0007b023          	sd	zero,0(a5)
   23770:	00000013          	nop
   23774:	01813083          	ld	ra,24(sp)
   23778:	01013403          	ld	s0,16(sp)
   2377c:	02010113          	addi	sp,sp,32
   23780:	00008067          	ret

0000000000023784 <printk>:
   23784:	f9010113          	addi	sp,sp,-112
   23788:	02113423          	sd	ra,40(sp)
   2378c:	02813023          	sd	s0,32(sp)
   23790:	03010413          	addi	s0,sp,48
   23794:	fca43c23          	sd	a0,-40(s0)
   23798:	00b43423          	sd	a1,8(s0)
   2379c:	00c43823          	sd	a2,16(s0)
   237a0:	00d43c23          	sd	a3,24(s0)
   237a4:	02e43023          	sd	a4,32(s0)
   237a8:	02f43423          	sd	a5,40(s0)
   237ac:	03043823          	sd	a6,48(s0)
   237b0:	03143c23          	sd	a7,56(s0)
   237b4:	04040793          	addi	a5,s0,64
   237b8:	fcf43823          	sd	a5,-48(s0)
   237bc:	fd043783          	ld	a5,-48(s0)
   237c0:	fc878793          	addi	a5,a5,-56
   237c4:	fef43023          	sd	a5,-32(s0)
   237c8:	fe043783          	ld	a5,-32(s0)
   237cc:	00078693          	mv	a3,a5
   237d0:	fd843603          	ld	a2,-40(s0)
   237d4:	10000593          	li	a1,256
   237d8:	00004517          	auipc	a0,0x4
   237dc:	83050513          	addi	a0,a0,-2000 # 27008 <print_buf>
   237e0:	f60ff0ef          	jal	ra,22f40 <myprintf>
   237e4:	00050793          	mv	a5,a0
   237e8:	fef42423          	sw	a5,-24(s0)
   237ec:	00004797          	auipc	a5,0x4
   237f0:	a1c78793          	addi	a5,a5,-1508 # 27208 <g_printk_status>
   237f4:	0007a783          	lw	a5,0(a5)
   237f8:	06079663          	bnez	a5,23864 <printk+0xe0>
   237fc:	00004797          	auipc	a5,0x4
   23800:	80478793          	addi	a5,a5,-2044 # 27000 <g_record>
   23804:	0007b783          	ld	a5,0(a5)
   23808:	fe842703          	lw	a4,-24(s0)
   2380c:	00070613          	mv	a2,a4
   23810:	00003597          	auipc	a1,0x3
   23814:	7f858593          	addi	a1,a1,2040 # 27008 <print_buf>
   23818:	00078513          	mv	a0,a5
   2381c:	138000ef          	jal	ra,23954 <memcpy>
   23820:	fe842703          	lw	a4,-24(s0)
   23824:	00004797          	auipc	a5,0x4
   23828:	8e478793          	addi	a5,a5,-1820 # 27108 <log_buf>
   2382c:	00f70733          	add	a4,a4,a5
   23830:	00003797          	auipc	a5,0x3
   23834:	7d078793          	addi	a5,a5,2000 # 27000 <g_record>
   23838:	00e7b023          	sd	a4,0(a5)
   2383c:	fe842703          	lw	a4,-24(s0)
   23840:	00004797          	auipc	a5,0x4
   23844:	9d078793          	addi	a5,a5,-1584 # 27210 <g_record_len>
   23848:	0007b783          	ld	a5,0(a5)
   2384c:	00f70733          	add	a4,a4,a5
   23850:	00004797          	auipc	a5,0x4
   23854:	9c078793          	addi	a5,a5,-1600 # 27210 <g_record_len>
   23858:	00e7b023          	sd	a4,0(a5)
   2385c:	00000793          	li	a5,0
   23860:	0900006f          	j	238f0 <printk+0x16c>
   23864:	fe042623          	sw	zero,-20(s0)
   23868:	0680006f          	j	238d0 <printk+0x14c>
   2386c:	00003717          	auipc	a4,0x3
   23870:	79c70713          	addi	a4,a4,1948 # 27008 <print_buf>
   23874:	fec42783          	lw	a5,-20(s0)
   23878:	00f707b3          	add	a5,a4,a5
   2387c:	0007c783          	lbu	a5,0(a5)
   23880:	00078713          	mv	a4,a5
   23884:	00a00793          	li	a5,10
   23888:	00f71663          	bne	a4,a5,23894 <printk+0x110>
   2388c:	00d00513          	li	a0,13
   23890:	42d000ef          	jal	ra,244bc <putchar>
   23894:	00003717          	auipc	a4,0x3
   23898:	77470713          	addi	a4,a4,1908 # 27008 <print_buf>
   2389c:	fec42783          	lw	a5,-20(s0)
   238a0:	00f707b3          	add	a5,a4,a5
   238a4:	0007c783          	lbu	a5,0(a5)
   238a8:	0007879b          	sext.w	a5,a5
   238ac:	00078513          	mv	a0,a5
   238b0:	40d000ef          	jal	ra,244bc <putchar>
   238b4:	fec42783          	lw	a5,-20(s0)
   238b8:	00078713          	mv	a4,a5
   238bc:	10000793          	li	a5,256
   238c0:	02e7e463          	bltu	a5,a4,238e8 <printk+0x164>
   238c4:	fec42783          	lw	a5,-20(s0)
   238c8:	0017879b          	addiw	a5,a5,1
   238cc:	fef42623          	sw	a5,-20(s0)
   238d0:	fec42703          	lw	a4,-20(s0)
   238d4:	fe842783          	lw	a5,-24(s0)
   238d8:	0007071b          	sext.w	a4,a4
   238dc:	0007879b          	sext.w	a5,a5
   238e0:	f8f746e3          	blt	a4,a5,2386c <printk+0xe8>
   238e4:	0080006f          	j	238ec <printk+0x168>
   238e8:	00000013          	nop
   238ec:	fe842783          	lw	a5,-24(s0)
   238f0:	00078513          	mv	a0,a5
   238f4:	02813083          	ld	ra,40(sp)
   238f8:	02013403          	ld	s0,32(sp)
   238fc:	07010113          	addi	sp,sp,112
   23900:	00008067          	ret

0000000000023904 <strlen>:
   23904:	fd010113          	addi	sp,sp,-48
   23908:	02813423          	sd	s0,40(sp)
   2390c:	03010413          	addi	s0,sp,48
   23910:	fca43c23          	sd	a0,-40(s0)
   23914:	fd843783          	ld	a5,-40(s0)
   23918:	fef43423          	sd	a5,-24(s0)
   2391c:	0100006f          	j	2392c <strlen+0x28>
   23920:	fe843783          	ld	a5,-24(s0)
   23924:	00178793          	addi	a5,a5,1
   23928:	fef43423          	sd	a5,-24(s0)
   2392c:	fe843783          	ld	a5,-24(s0)
   23930:	0007c783          	lbu	a5,0(a5)
   23934:	fe0796e3          	bnez	a5,23920 <strlen+0x1c>
   23938:	fe843703          	ld	a4,-24(s0)
   2393c:	fd843783          	ld	a5,-40(s0)
   23940:	40f707b3          	sub	a5,a4,a5
   23944:	00078513          	mv	a0,a5
   23948:	02813403          	ld	s0,40(sp)
   2394c:	03010113          	addi	sp,sp,48
   23950:	00008067          	ret

0000000000023954 <memcpy>:
   23954:	fc010113          	addi	sp,sp,-64
   23958:	02813c23          	sd	s0,56(sp)
   2395c:	04010413          	addi	s0,sp,64
   23960:	fca43c23          	sd	a0,-40(s0)
   23964:	fcb43823          	sd	a1,-48(s0)
   23968:	fcc43423          	sd	a2,-56(s0)
   2396c:	fd843783          	ld	a5,-40(s0)
   23970:	fef43423          	sd	a5,-24(s0)
   23974:	fd043783          	ld	a5,-48(s0)
   23978:	fef43023          	sd	a5,-32(s0)
   2397c:	0240006f          	j	239a0 <memcpy+0x4c>
   23980:	fe043703          	ld	a4,-32(s0)
   23984:	00170793          	addi	a5,a4,1
   23988:	fef43023          	sd	a5,-32(s0)
   2398c:	fe843783          	ld	a5,-24(s0)
   23990:	00178693          	addi	a3,a5,1
   23994:	fed43423          	sd	a3,-24(s0)
   23998:	00074703          	lbu	a4,0(a4)
   2399c:	00e78023          	sb	a4,0(a5)
   239a0:	fc843783          	ld	a5,-56(s0)
   239a4:	fff78713          	addi	a4,a5,-1
   239a8:	fce43423          	sd	a4,-56(s0)
   239ac:	fc079ae3          	bnez	a5,23980 <memcpy+0x2c>
   239b0:	fd843783          	ld	a5,-40(s0)
   239b4:	00078513          	mv	a0,a5
   239b8:	03813403          	ld	s0,56(sp)
   239bc:	04010113          	addi	sp,sp,64
   239c0:	00008067          	ret

00000000000239c4 <read32>:
   239c4:	fe010113          	addi	sp,sp,-32
   239c8:	00813c23          	sd	s0,24(sp)
   239cc:	02010413          	addi	s0,sp,32
   239d0:	fea43423          	sd	a0,-24(s0)
   239d4:	fe843783          	ld	a5,-24(s0)
   239d8:	0007a783          	lw	a5,0(a5)
   239dc:	0007879b          	sext.w	a5,a5
   239e0:	00078513          	mv	a0,a5
   239e4:	01813403          	ld	s0,24(sp)
   239e8:	02010113          	addi	sp,sp,32
   239ec:	00008067          	ret

00000000000239f0 <write32>:
   239f0:	fe010113          	addi	sp,sp,-32
   239f4:	00813c23          	sd	s0,24(sp)
   239f8:	02010413          	addi	s0,sp,32
   239fc:	fea43423          	sd	a0,-24(s0)
   23a00:	00058793          	mv	a5,a1
   23a04:	fef42223          	sw	a5,-28(s0)
   23a08:	fe843783          	ld	a5,-24(s0)
   23a0c:	fe442703          	lw	a4,-28(s0)
   23a10:	00e7a023          	sw	a4,0(a5)
   23a14:	00000013          	nop
   23a18:	01813403          	ld	s0,24(sp)
   23a1c:	02010113          	addi	sp,sp,32
   23a20:	00008067          	ret

0000000000023a24 <sdelay>:
   23a24:	fe010113          	addi	sp,sp,-32
   23a28:	00813c23          	sd	s0,24(sp)
   23a2c:	02010413          	addi	s0,sp,32
   23a30:	fea43423          	sd	a0,-24(s0)
   23a34:	fe843783          	ld	a5,-24(s0)
   23a38:	00a79793          	slli	a5,a5,0xa
   23a3c:	fef43423          	sd	a5,-24(s0)
   23a40:	00000013          	nop
   23a44:	fe843783          	ld	a5,-24(s0)
   23a48:	fff78713          	addi	a4,a5,-1
   23a4c:	fee43423          	sd	a4,-24(s0)
   23a50:	fe079ae3          	bnez	a5,23a44 <sdelay+0x20>
   23a54:	00000013          	nop
   23a58:	00000013          	nop
   23a5c:	01813403          	ld	s0,24(sp)
   23a60:	02010113          	addi	sp,sp,32
   23a64:	00008067          	ret

0000000000023a68 <set_pll_cpux_axi>:
   23a68:	fe010113          	addi	sp,sp,-32
   23a6c:	00113c23          	sd	ra,24(sp)
   23a70:	00813823          	sd	s0,16(sp)
   23a74:	02010413          	addi	s0,sp,32
   23a78:	30100593          	li	a1,769
   23a7c:	020027b7          	lui	a5,0x2002
   23a80:	d0078513          	addi	a0,a5,-768 # 2001d00 <_ebss+0x1fdaae8>
   23a84:	f6dff0ef          	jal	ra,239f0 <write32>
   23a88:	00100513          	li	a0,1
   23a8c:	f99ff0ef          	jal	ra,23a24 <sdelay>
   23a90:	02001537          	lui	a0,0x2001
   23a94:	f31ff0ef          	jal	ra,239c4 <read32>
   23a98:	00050793          	mv	a5,a0
   23a9c:	fef42623          	sw	a5,-20(s0)
   23aa0:	fec42703          	lw	a4,-20(s0)
   23aa4:	f80007b7          	lui	a5,0xf8000
   23aa8:	fff78793          	addi	a5,a5,-1 # fffffffff7ffffff <_ebss+0xfffffffff7fd8de7>
   23aac:	00f777b3          	and	a5,a4,a5
   23ab0:	fef42623          	sw	a5,-20(s0)
   23ab4:	fec42783          	lw	a5,-20(s0)
   23ab8:	00078593          	mv	a1,a5
   23abc:	02001537          	lui	a0,0x2001
   23ac0:	f31ff0ef          	jal	ra,239f0 <write32>
   23ac4:	02001537          	lui	a0,0x2001
   23ac8:	efdff0ef          	jal	ra,239c4 <read32>
   23acc:	00050793          	mv	a5,a0
   23ad0:	fef42623          	sw	a5,-20(s0)
   23ad4:	fec42703          	lw	a4,-20(s0)
   23ad8:	400007b7          	lui	a5,0x40000
   23adc:	00f767b3          	or	a5,a4,a5
   23ae0:	fef42623          	sw	a5,-20(s0)
   23ae4:	fec42783          	lw	a5,-20(s0)
   23ae8:	00078593          	mv	a1,a5
   23aec:	02001537          	lui	a0,0x2001
   23af0:	f01ff0ef          	jal	ra,239f0 <write32>
   23af4:	00500513          	li	a0,5
   23af8:	f2dff0ef          	jal	ra,23a24 <sdelay>
   23afc:	02001537          	lui	a0,0x2001
   23b00:	ec5ff0ef          	jal	ra,239c4 <read32>
   23b04:	00050793          	mv	a5,a0
   23b08:	fef42623          	sw	a5,-20(s0)
   23b0c:	fec42703          	lw	a4,-20(s0)
   23b10:	fffc07b7          	lui	a5,0xfffc0
   23b14:	0fc78793          	addi	a5,a5,252 # fffffffffffc00fc <_ebss+0xfffffffffff98ee4>
   23b18:	00f777b3          	and	a5,a4,a5
   23b1c:	fef42623          	sw	a5,-20(s0)
   23b20:	fec42703          	lw	a4,-20(s0)
   23b24:	000037b7          	lui	a5,0x3
   23b28:	90078793          	addi	a5,a5,-1792 # 2900 <_start-0x1f700>
   23b2c:	00f767b3          	or	a5,a4,a5
   23b30:	fef42623          	sw	a5,-20(s0)
   23b34:	fec42783          	lw	a5,-20(s0)
   23b38:	00078593          	mv	a1,a5
   23b3c:	02001537          	lui	a0,0x2001
   23b40:	eb1ff0ef          	jal	ra,239f0 <write32>
   23b44:	02001537          	lui	a0,0x2001
   23b48:	e7dff0ef          	jal	ra,239c4 <read32>
   23b4c:	00050793          	mv	a5,a0
   23b50:	fef42623          	sw	a5,-20(s0)
   23b54:	fec42703          	lw	a4,-20(s0)
   23b58:	200007b7          	lui	a5,0x20000
   23b5c:	00f767b3          	or	a5,a4,a5
   23b60:	fef42623          	sw	a5,-20(s0)
   23b64:	fec42783          	lw	a5,-20(s0)
   23b68:	00078593          	mv	a1,a5
   23b6c:	02001537          	lui	a0,0x2001
   23b70:	e81ff0ef          	jal	ra,239f0 <write32>
   23b74:	02001537          	lui	a0,0x2001
   23b78:	e4dff0ef          	jal	ra,239c4 <read32>
   23b7c:	00050793          	mv	a5,a0
   23b80:	fef42623          	sw	a5,-20(s0)
   23b84:	fec42703          	lw	a4,-20(s0)
   23b88:	800007b7          	lui	a5,0x80000
   23b8c:	00f767b3          	or	a5,a4,a5
   23b90:	fef42623          	sw	a5,-20(s0)
   23b94:	fec42783          	lw	a5,-20(s0)
   23b98:	00078593          	mv	a1,a5
   23b9c:	02001537          	lui	a0,0x2001
   23ba0:	e51ff0ef          	jal	ra,239f0 <write32>
   23ba4:	00000013          	nop
   23ba8:	02001537          	lui	a0,0x2001
   23bac:	e19ff0ef          	jal	ra,239c4 <read32>
   23bb0:	00050793          	mv	a5,a0
   23bb4:	0007879b          	sext.w	a5,a5
   23bb8:	00078713          	mv	a4,a5
   23bbc:	100007b7          	lui	a5,0x10000
   23bc0:	00f777b3          	and	a5,a4,a5
   23bc4:	0007879b          	sext.w	a5,a5
   23bc8:	fe0780e3          	beqz	a5,23ba8 <set_pll_cpux_axi+0x140>
   23bcc:	01400513          	li	a0,20
   23bd0:	e55ff0ef          	jal	ra,23a24 <sdelay>
   23bd4:	02001537          	lui	a0,0x2001
   23bd8:	dedff0ef          	jal	ra,239c4 <read32>
   23bdc:	00050793          	mv	a5,a0
   23be0:	fef42623          	sw	a5,-20(s0)
   23be4:	fec42703          	lw	a4,-20(s0)
   23be8:	080007b7          	lui	a5,0x8000
   23bec:	00f767b3          	or	a5,a4,a5
   23bf0:	fef42623          	sw	a5,-20(s0)
   23bf4:	fec42783          	lw	a5,-20(s0)
   23bf8:	00078593          	mv	a1,a5
   23bfc:	02001537          	lui	a0,0x2001
   23c00:	df1ff0ef          	jal	ra,239f0 <write32>
   23c04:	02001537          	lui	a0,0x2001
   23c08:	dbdff0ef          	jal	ra,239c4 <read32>
   23c0c:	00050793          	mv	a5,a0
   23c10:	fef42623          	sw	a5,-20(s0)
   23c14:	fec42703          	lw	a4,-20(s0)
   23c18:	e00007b7          	lui	a5,0xe0000
   23c1c:	fff78793          	addi	a5,a5,-1 # ffffffffdfffffff <_ebss+0xffffffffdffd8de7>
   23c20:	00f777b3          	and	a5,a4,a5
   23c24:	fef42623          	sw	a5,-20(s0)
   23c28:	fec42783          	lw	a5,-20(s0)
   23c2c:	00078593          	mv	a1,a5
   23c30:	02001537          	lui	a0,0x2001
   23c34:	dbdff0ef          	jal	ra,239f0 <write32>
   23c38:	00100513          	li	a0,1
   23c3c:	de9ff0ef          	jal	ra,23a24 <sdelay>
   23c40:	020027b7          	lui	a5,0x2002
   23c44:	d0078513          	addi	a0,a5,-768 # 2001d00 <_ebss+0x1fdaae8>
   23c48:	d7dff0ef          	jal	ra,239c4 <read32>
   23c4c:	00050793          	mv	a5,a0
   23c50:	fef42623          	sw	a5,-20(s0)
   23c54:	fec42703          	lw	a4,-20(s0)
   23c58:	f90007b7          	lui	a5,0xf9000
   23c5c:	cf078793          	addi	a5,a5,-784 # fffffffff8fffcf0 <_ebss+0xfffffffff8fd8ad8>
   23c60:	00f777b3          	and	a5,a4,a5
   23c64:	fef42623          	sw	a5,-20(s0)
   23c68:	fec42703          	lw	a4,-20(s0)
   23c6c:	050007b7          	lui	a5,0x5000
   23c70:	10078793          	addi	a5,a5,256 # 5000100 <_ebss+0x4fd8ee8>
   23c74:	00f767b3          	or	a5,a4,a5
   23c78:	fef42623          	sw	a5,-20(s0)
   23c7c:	fec42783          	lw	a5,-20(s0)
   23c80:	00078593          	mv	a1,a5
   23c84:	020027b7          	lui	a5,0x2002
   23c88:	d0078513          	addi	a0,a5,-768 # 2001d00 <_ebss+0x1fdaae8>
   23c8c:	d65ff0ef          	jal	ra,239f0 <write32>
   23c90:	00100513          	li	a0,1
   23c94:	d91ff0ef          	jal	ra,23a24 <sdelay>
   23c98:	00000013          	nop
   23c9c:	01813083          	ld	ra,24(sp)
   23ca0:	01013403          	ld	s0,16(sp)
   23ca4:	02010113          	addi	sp,sp,32
   23ca8:	00008067          	ret

0000000000023cac <set_pll_periph0>:
   23cac:	fe010113          	addi	sp,sp,-32
   23cb0:	00113c23          	sd	ra,24(sp)
   23cb4:	00813823          	sd	s0,16(sp)
   23cb8:	02010413          	addi	s0,sp,32
   23cbc:	020017b7          	lui	a5,0x2001
   23cc0:	02078513          	addi	a0,a5,32 # 2001020 <_ebss+0x1fd9e08>
   23cc4:	d01ff0ef          	jal	ra,239c4 <read32>
   23cc8:	00050793          	mv	a5,a0
   23ccc:	0007879b          	sext.w	a5,a5
   23cd0:	0007879b          	sext.w	a5,a5
   23cd4:	1207cc63          	bltz	a5,23e0c <set_pll_periph0+0x160>
   23cd8:	020017b7          	lui	a5,0x2001
   23cdc:	51078513          	addi	a0,a5,1296 # 2001510 <_ebss+0x1fda2f8>
   23ce0:	ce5ff0ef          	jal	ra,239c4 <read32>
   23ce4:	00050793          	mv	a5,a0
   23ce8:	fef42623          	sw	a5,-20(s0)
   23cec:	fec42703          	lw	a4,-20(s0)
   23cf0:	fd0007b7          	lui	a5,0xfd000
   23cf4:	fff78793          	addi	a5,a5,-1 # fffffffffcffffff <_ebss+0xfffffffffcfd8de7>
   23cf8:	00f777b3          	and	a5,a4,a5
   23cfc:	fef42623          	sw	a5,-20(s0)
   23d00:	fec46703          	lwu	a4,-20(s0)
   23d04:	020017b7          	lui	a5,0x2001
   23d08:	51078593          	addi	a1,a5,1296 # 2001510 <_ebss+0x1fda2f8>
   23d0c:	00070513          	mv	a0,a4
   23d10:	ce1ff0ef          	jal	ra,239f0 <write32>
   23d14:	000067b7          	lui	a5,0x6
   23d18:	30078593          	addi	a1,a5,768 # 6300 <_start-0x1bd00>
   23d1c:	020017b7          	lui	a5,0x2001
   23d20:	02078513          	addi	a0,a5,32 # 2001020 <_ebss+0x1fd9e08>
   23d24:	ccdff0ef          	jal	ra,239f0 <write32>
   23d28:	020017b7          	lui	a5,0x2001
   23d2c:	02078513          	addi	a0,a5,32 # 2001020 <_ebss+0x1fd9e08>
   23d30:	c95ff0ef          	jal	ra,239c4 <read32>
   23d34:	00050793          	mv	a5,a0
   23d38:	fef42623          	sw	a5,-20(s0)
   23d3c:	fec42703          	lw	a4,-20(s0)
   23d40:	200007b7          	lui	a5,0x20000
   23d44:	00f767b3          	or	a5,a4,a5
   23d48:	fef42623          	sw	a5,-20(s0)
   23d4c:	fec42783          	lw	a5,-20(s0)
   23d50:	00078593          	mv	a1,a5
   23d54:	020017b7          	lui	a5,0x2001
   23d58:	02078513          	addi	a0,a5,32 # 2001020 <_ebss+0x1fd9e08>
   23d5c:	c95ff0ef          	jal	ra,239f0 <write32>
   23d60:	020017b7          	lui	a5,0x2001
   23d64:	02078513          	addi	a0,a5,32 # 2001020 <_ebss+0x1fd9e08>
   23d68:	c5dff0ef          	jal	ra,239c4 <read32>
   23d6c:	00050793          	mv	a5,a0
   23d70:	fef42623          	sw	a5,-20(s0)
   23d74:	fec42703          	lw	a4,-20(s0)
   23d78:	800007b7          	lui	a5,0x80000
   23d7c:	00f767b3          	or	a5,a4,a5
   23d80:	fef42623          	sw	a5,-20(s0)
   23d84:	fec42783          	lw	a5,-20(s0)
   23d88:	00078593          	mv	a1,a5
   23d8c:	020017b7          	lui	a5,0x2001
   23d90:	02078513          	addi	a0,a5,32 # 2001020 <_ebss+0x1fd9e08>
   23d94:	c5dff0ef          	jal	ra,239f0 <write32>
   23d98:	00000013          	nop
   23d9c:	020017b7          	lui	a5,0x2001
   23da0:	02078513          	addi	a0,a5,32 # 2001020 <_ebss+0x1fd9e08>
   23da4:	c21ff0ef          	jal	ra,239c4 <read32>
   23da8:	00050793          	mv	a5,a0
   23dac:	0007879b          	sext.w	a5,a5
   23db0:	00078713          	mv	a4,a5
   23db4:	100007b7          	lui	a5,0x10000
   23db8:	00f777b3          	and	a5,a4,a5
   23dbc:	0007879b          	sext.w	a5,a5
   23dc0:	fc078ee3          	beqz	a5,23d9c <set_pll_periph0+0xf0>
   23dc4:	01400513          	li	a0,20
   23dc8:	c5dff0ef          	jal	ra,23a24 <sdelay>
   23dcc:	020017b7          	lui	a5,0x2001
   23dd0:	02078513          	addi	a0,a5,32 # 2001020 <_ebss+0x1fd9e08>
   23dd4:	bf1ff0ef          	jal	ra,239c4 <read32>
   23dd8:	00050793          	mv	a5,a0
   23ddc:	fef42623          	sw	a5,-20(s0)
   23de0:	fec42703          	lw	a4,-20(s0)
   23de4:	e00007b7          	lui	a5,0xe0000
   23de8:	fff78793          	addi	a5,a5,-1 # ffffffffdfffffff <_ebss+0xffffffffdffd8de7>
   23dec:	00f777b3          	and	a5,a4,a5
   23df0:	fef42623          	sw	a5,-20(s0)
   23df4:	fec42783          	lw	a5,-20(s0)
   23df8:	00078593          	mv	a1,a5
   23dfc:	020017b7          	lui	a5,0x2001
   23e00:	02078513          	addi	a0,a5,32 # 2001020 <_ebss+0x1fd9e08>
   23e04:	bedff0ef          	jal	ra,239f0 <write32>
   23e08:	0080006f          	j	23e10 <set_pll_periph0+0x164>
   23e0c:	00000013          	nop
   23e10:	01813083          	ld	ra,24(sp)
   23e14:	01013403          	ld	s0,16(sp)
   23e18:	02010113          	addi	sp,sp,32
   23e1c:	00008067          	ret

0000000000023e20 <set_ahb>:
   23e20:	ff010113          	addi	sp,sp,-16
   23e24:	00113423          	sd	ra,8(sp)
   23e28:	00813023          	sd	s0,0(sp)
   23e2c:	01010413          	addi	s0,sp,16
   23e30:	00200593          	li	a1,2
   23e34:	020017b7          	lui	a5,0x2001
   23e38:	51078513          	addi	a0,a5,1296 # 2001510 <_ebss+0x1fda2f8>
   23e3c:	bb5ff0ef          	jal	ra,239f0 <write32>
   23e40:	020017b7          	lui	a5,0x2001
   23e44:	51078513          	addi	a0,a5,1296 # 2001510 <_ebss+0x1fda2f8>
   23e48:	b7dff0ef          	jal	ra,239c4 <read32>
   23e4c:	00050793          	mv	a5,a0
   23e50:	0007879b          	sext.w	a5,a5
   23e54:	00078713          	mv	a4,a5
   23e58:	030007b7          	lui	a5,0x3000
   23e5c:	00f767b3          	or	a5,a4,a5
   23e60:	0007879b          	sext.w	a5,a5
   23e64:	00078593          	mv	a1,a5
   23e68:	020017b7          	lui	a5,0x2001
   23e6c:	51078513          	addi	a0,a5,1296 # 2001510 <_ebss+0x1fda2f8>
   23e70:	b81ff0ef          	jal	ra,239f0 <write32>
   23e74:	00100513          	li	a0,1
   23e78:	badff0ef          	jal	ra,23a24 <sdelay>
   23e7c:	00000013          	nop
   23e80:	00813083          	ld	ra,8(sp)
   23e84:	00013403          	ld	s0,0(sp)
   23e88:	01010113          	addi	sp,sp,16
   23e8c:	00008067          	ret

0000000000023e90 <set_apb>:
   23e90:	ff010113          	addi	sp,sp,-16
   23e94:	00113423          	sd	ra,8(sp)
   23e98:	00813023          	sd	s0,0(sp)
   23e9c:	01010413          	addi	s0,sp,16
   23ea0:	10200593          	li	a1,258
   23ea4:	020017b7          	lui	a5,0x2001
   23ea8:	52078513          	addi	a0,a5,1312 # 2001520 <_ebss+0x1fda308>
   23eac:	b45ff0ef          	jal	ra,239f0 <write32>
   23eb0:	020017b7          	lui	a5,0x2001
   23eb4:	52078513          	addi	a0,a5,1312 # 2001520 <_ebss+0x1fda308>
   23eb8:	b0dff0ef          	jal	ra,239c4 <read32>
   23ebc:	00050793          	mv	a5,a0
   23ec0:	0007879b          	sext.w	a5,a5
   23ec4:	00078713          	mv	a4,a5
   23ec8:	030007b7          	lui	a5,0x3000
   23ecc:	00f767b3          	or	a5,a4,a5
   23ed0:	0007879b          	sext.w	a5,a5
   23ed4:	00078593          	mv	a1,a5
   23ed8:	020017b7          	lui	a5,0x2001
   23edc:	52078513          	addi	a0,a5,1312 # 2001520 <_ebss+0x1fda308>
   23ee0:	b11ff0ef          	jal	ra,239f0 <write32>
   23ee4:	00100513          	li	a0,1
   23ee8:	b3dff0ef          	jal	ra,23a24 <sdelay>
   23eec:	00000013          	nop
   23ef0:	00813083          	ld	ra,8(sp)
   23ef4:	00013403          	ld	s0,0(sp)
   23ef8:	01010113          	addi	sp,sp,16
   23efc:	00008067          	ret

0000000000023f00 <set_dma>:
   23f00:	ff010113          	addi	sp,sp,-16
   23f04:	00113423          	sd	ra,8(sp)
   23f08:	00813023          	sd	s0,0(sp)
   23f0c:	01010413          	addi	s0,sp,16
   23f10:	020017b7          	lui	a5,0x2001
   23f14:	70c78513          	addi	a0,a5,1804 # 200170c <_ebss+0x1fda4f4>
   23f18:	aadff0ef          	jal	ra,239c4 <read32>
   23f1c:	00050793          	mv	a5,a0
   23f20:	0007879b          	sext.w	a5,a5
   23f24:	00078713          	mv	a4,a5
   23f28:	000107b7          	lui	a5,0x10
   23f2c:	00f767b3          	or	a5,a4,a5
   23f30:	0007879b          	sext.w	a5,a5
   23f34:	00078593          	mv	a1,a5
   23f38:	020017b7          	lui	a5,0x2001
   23f3c:	70c78513          	addi	a0,a5,1804 # 200170c <_ebss+0x1fda4f4>
   23f40:	ab1ff0ef          	jal	ra,239f0 <write32>
   23f44:	01400513          	li	a0,20
   23f48:	addff0ef          	jal	ra,23a24 <sdelay>
   23f4c:	020017b7          	lui	a5,0x2001
   23f50:	70c78513          	addi	a0,a5,1804 # 200170c <_ebss+0x1fda4f4>
   23f54:	a71ff0ef          	jal	ra,239c4 <read32>
   23f58:	00050793          	mv	a5,a0
   23f5c:	0007879b          	sext.w	a5,a5
   23f60:	0017e793          	ori	a5,a5,1
   23f64:	0007879b          	sext.w	a5,a5
   23f68:	00078593          	mv	a1,a5
   23f6c:	020017b7          	lui	a5,0x2001
   23f70:	70c78513          	addi	a0,a5,1804 # 200170c <_ebss+0x1fda4f4>
   23f74:	a7dff0ef          	jal	ra,239f0 <write32>
   23f78:	00000013          	nop
   23f7c:	00813083          	ld	ra,8(sp)
   23f80:	00013403          	ld	s0,0(sp)
   23f84:	01010113          	addi	sp,sp,16
   23f88:	00008067          	ret

0000000000023f8c <set_mbus>:
   23f8c:	fe010113          	addi	sp,sp,-32
   23f90:	00113c23          	sd	ra,24(sp)
   23f94:	00813823          	sd	s0,16(sp)
   23f98:	02010413          	addi	s0,sp,32
   23f9c:	020017b7          	lui	a5,0x2001
   23fa0:	54078513          	addi	a0,a5,1344 # 2001540 <_ebss+0x1fda328>
   23fa4:	a21ff0ef          	jal	ra,239c4 <read32>
   23fa8:	00050793          	mv	a5,a0
   23fac:	fef42623          	sw	a5,-20(s0)
   23fb0:	fec42703          	lw	a4,-20(s0)
   23fb4:	400007b7          	lui	a5,0x40000
   23fb8:	00f767b3          	or	a5,a4,a5
   23fbc:	fef42623          	sw	a5,-20(s0)
   23fc0:	fec42783          	lw	a5,-20(s0)
   23fc4:	00078593          	mv	a1,a5
   23fc8:	020017b7          	lui	a5,0x2001
   23fcc:	54078513          	addi	a0,a5,1344 # 2001540 <_ebss+0x1fda328>
   23fd0:	a21ff0ef          	jal	ra,239f0 <write32>
   23fd4:	00100513          	li	a0,1
   23fd8:	a4dff0ef          	jal	ra,23a24 <sdelay>
   23fdc:	00000013          	nop
   23fe0:	01813083          	ld	ra,24(sp)
   23fe4:	01013403          	ld	s0,16(sp)
   23fe8:	02010113          	addi	sp,sp,32
   23fec:	00008067          	ret

0000000000023ff0 <set_module>:
   23ff0:	fd010113          	addi	sp,sp,-48
   23ff4:	02113423          	sd	ra,40(sp)
   23ff8:	02813023          	sd	s0,32(sp)
   23ffc:	03010413          	addi	s0,sp,48
   24000:	fca43c23          	sd	a0,-40(s0)
   24004:	fd843503          	ld	a0,-40(s0)
   24008:	9bdff0ef          	jal	ra,239c4 <read32>
   2400c:	00050793          	mv	a5,a0
   24010:	0007879b          	sext.w	a5,a5
   24014:	0007879b          	sext.w	a5,a5
   24018:	0c07c263          	bltz	a5,240dc <set_module+0xec>
   2401c:	fd843503          	ld	a0,-40(s0)
   24020:	9a5ff0ef          	jal	ra,239c4 <read32>
   24024:	00050793          	mv	a5,a0
   24028:	fef42623          	sw	a5,-20(s0)
   2402c:	fec42703          	lw	a4,-20(s0)
   24030:	c00007b7          	lui	a5,0xc0000
   24034:	00f767b3          	or	a5,a4,a5
   24038:	0007879b          	sext.w	a5,a5
   2403c:	00078593          	mv	a1,a5
   24040:	fd843503          	ld	a0,-40(s0)
   24044:	9adff0ef          	jal	ra,239f0 <write32>
   24048:	fd843503          	ld	a0,-40(s0)
   2404c:	979ff0ef          	jal	ra,239c4 <read32>
   24050:	00050793          	mv	a5,a0
   24054:	fef42623          	sw	a5,-20(s0)
   24058:	fec42703          	lw	a4,-20(s0)
   2405c:	200007b7          	lui	a5,0x20000
   24060:	00f767b3          	or	a5,a4,a5
   24064:	fef42623          	sw	a5,-20(s0)
   24068:	fec42783          	lw	a5,-20(s0)
   2406c:	00078593          	mv	a1,a5
   24070:	fd843503          	ld	a0,-40(s0)
   24074:	97dff0ef          	jal	ra,239f0 <write32>
   24078:	00000013          	nop
   2407c:	fd843503          	ld	a0,-40(s0)
   24080:	945ff0ef          	jal	ra,239c4 <read32>
   24084:	00050793          	mv	a5,a0
   24088:	0007879b          	sext.w	a5,a5
   2408c:	00078713          	mv	a4,a5
   24090:	100007b7          	lui	a5,0x10000
   24094:	00f777b3          	and	a5,a4,a5
   24098:	0007879b          	sext.w	a5,a5
   2409c:	fe0780e3          	beqz	a5,2407c <set_module+0x8c>
   240a0:	01400513          	li	a0,20
   240a4:	981ff0ef          	jal	ra,23a24 <sdelay>
   240a8:	fd843503          	ld	a0,-40(s0)
   240ac:	919ff0ef          	jal	ra,239c4 <read32>
   240b0:	00050793          	mv	a5,a0
   240b4:	fef42623          	sw	a5,-20(s0)
   240b8:	fec42703          	lw	a4,-20(s0)
   240bc:	e00007b7          	lui	a5,0xe0000
   240c0:	fff78793          	addi	a5,a5,-1 # ffffffffdfffffff <_ebss+0xffffffffdffd8de7>
   240c4:	00f777b3          	and	a5,a4,a5
   240c8:	fef42623          	sw	a5,-20(s0)
   240cc:	fec42783          	lw	a5,-20(s0)
   240d0:	00078593          	mv	a1,a5
   240d4:	fd843503          	ld	a0,-40(s0)
   240d8:	919ff0ef          	jal	ra,239f0 <write32>
   240dc:	00000013          	nop
   240e0:	02813083          	ld	ra,40(sp)
   240e4:	02013403          	ld	s0,32(sp)
   240e8:	03010113          	addi	sp,sp,48
   240ec:	00008067          	ret

00000000000240f0 <sys_clock_init>:
   240f0:	ff010113          	addi	sp,sp,-16
   240f4:	00113423          	sd	ra,8(sp)
   240f8:	00813023          	sd	s0,0(sp)
   240fc:	01010413          	addi	s0,sp,16
   24100:	969ff0ef          	jal	ra,23a68 <set_pll_cpux_axi>
   24104:	ba9ff0ef          	jal	ra,23cac <set_pll_periph0>
   24108:	d19ff0ef          	jal	ra,23e20 <set_ahb>
   2410c:	d85ff0ef          	jal	ra,23e90 <set_apb>
   24110:	df1ff0ef          	jal	ra,23f00 <set_dma>
   24114:	e79ff0ef          	jal	ra,23f8c <set_mbus>
   24118:	020017b7          	lui	a5,0x2001
   2411c:	02078513          	addi	a0,a5,32 # 2001020 <_ebss+0x1fd9e08>
   24120:	ed1ff0ef          	jal	ra,23ff0 <set_module>
   24124:	020017b7          	lui	a5,0x2001
   24128:	04078513          	addi	a0,a5,64 # 2001040 <_ebss+0x1fd9e28>
   2412c:	ec5ff0ef          	jal	ra,23ff0 <set_module>
   24130:	020017b7          	lui	a5,0x2001
   24134:	04878513          	addi	a0,a5,72 # 2001048 <_ebss+0x1fd9e30>
   24138:	eb9ff0ef          	jal	ra,23ff0 <set_module>
   2413c:	020017b7          	lui	a5,0x2001
   24140:	05878513          	addi	a0,a5,88 # 2001058 <_ebss+0x1fd9e40>
   24144:	eadff0ef          	jal	ra,23ff0 <set_module>
   24148:	020017b7          	lui	a5,0x2001
   2414c:	07878513          	addi	a0,a5,120 # 2001078 <_ebss+0x1fd9e60>
   24150:	ea1ff0ef          	jal	ra,23ff0 <set_module>
   24154:	020017b7          	lui	a5,0x2001
   24158:	08078513          	addi	a0,a5,128 # 2001080 <_ebss+0x1fd9e68>
   2415c:	e95ff0ef          	jal	ra,23ff0 <set_module>
   24160:	00000013          	nop
   24164:	00813083          	ld	ra,8(sp)
   24168:	00013403          	ld	s0,0(sp)
   2416c:	01010113          	addi	sp,sp,16
   24170:	00008067          	ret

0000000000024174 <read8>:
   24174:	fe010113          	addi	sp,sp,-32
   24178:	00813c23          	sd	s0,24(sp)
   2417c:	02010413          	addi	s0,sp,32
   24180:	fea43423          	sd	a0,-24(s0)
   24184:	fe843783          	ld	a5,-24(s0)
   24188:	0007c783          	lbu	a5,0(a5)
   2418c:	0ff7f793          	andi	a5,a5,255
   24190:	00078513          	mv	a0,a5
   24194:	01813403          	ld	s0,24(sp)
   24198:	02010113          	addi	sp,sp,32
   2419c:	00008067          	ret

00000000000241a0 <read32>:
   241a0:	fe010113          	addi	sp,sp,-32
   241a4:	00813c23          	sd	s0,24(sp)
   241a8:	02010413          	addi	s0,sp,32
   241ac:	fea43423          	sd	a0,-24(s0)
   241b0:	fe843783          	ld	a5,-24(s0)
   241b4:	0007a783          	lw	a5,0(a5)
   241b8:	0007879b          	sext.w	a5,a5
   241bc:	00078513          	mv	a0,a5
   241c0:	01813403          	ld	s0,24(sp)
   241c4:	02010113          	addi	sp,sp,32
   241c8:	00008067          	ret

00000000000241cc <write32>:
   241cc:	fe010113          	addi	sp,sp,-32
   241d0:	00813c23          	sd	s0,24(sp)
   241d4:	02010413          	addi	s0,sp,32
   241d8:	fea43423          	sd	a0,-24(s0)
   241dc:	00058793          	mv	a5,a1
   241e0:	fef42223          	sw	a5,-28(s0)
   241e4:	fe843783          	ld	a5,-24(s0)
   241e8:	fe442703          	lw	a4,-28(s0)
   241ec:	00e7a023          	sw	a4,0(a5)
   241f0:	00000013          	nop
   241f4:	01813403          	ld	s0,24(sp)
   241f8:	02010113          	addi	sp,sp,32
   241fc:	00008067          	ret

0000000000024200 <uart_init>:
   24200:	fe010113          	addi	sp,sp,-32
   24204:	00113c23          	sd	ra,24(sp)
   24208:	00813823          	sd	s0,16(sp)
   2420c:	02010413          	addi	s0,sp,32
   24210:	020007b7          	lui	a5,0x2000
   24214:	0f078793          	addi	a5,a5,240 # 20000f0 <_ebss+0x1fd8ed8>
   24218:	fef43423          	sd	a5,-24(s0)
   2421c:	fe843503          	ld	a0,-24(s0)
   24220:	f81ff0ef          	jal	ra,241a0 <read32>
   24224:	00050793          	mv	a5,a0
   24228:	fef42223          	sw	a5,-28(s0)
   2422c:	fe442703          	lw	a4,-28(s0)
   24230:	fffff7b7          	lui	a5,0xfffff
   24234:	0ff78793          	addi	a5,a5,255 # fffffffffffff0ff <_ebss+0xfffffffffffd7ee7>
   24238:	00f777b3          	and	a5,a4,a5
   2423c:	fef42223          	sw	a5,-28(s0)
   24240:	fe442783          	lw	a5,-28(s0)
   24244:	3007e793          	ori	a5,a5,768
   24248:	fef42223          	sw	a5,-28(s0)
   2424c:	fe442783          	lw	a5,-28(s0)
   24250:	00078593          	mv	a1,a5
   24254:	fe843503          	ld	a0,-24(s0)
   24258:	f75ff0ef          	jal	ra,241cc <write32>
   2425c:	fe843503          	ld	a0,-24(s0)
   24260:	f41ff0ef          	jal	ra,241a0 <read32>
   24264:	00050793          	mv	a5,a0
   24268:	fef42223          	sw	a5,-28(s0)
   2426c:	fe442703          	lw	a4,-28(s0)
   24270:	fff107b7          	lui	a5,0xfff10
   24274:	fff78793          	addi	a5,a5,-1 # fffffffffff0ffff <_ebss+0xffffffffffee8de7>
   24278:	00f777b3          	and	a5,a4,a5
   2427c:	fef42223          	sw	a5,-28(s0)
   24280:	fe442703          	lw	a4,-28(s0)
   24284:	000307b7          	lui	a5,0x30
   24288:	00f767b3          	or	a5,a4,a5
   2428c:	fef42223          	sw	a5,-28(s0)
   24290:	fe442783          	lw	a5,-28(s0)
   24294:	00078593          	mv	a1,a5
   24298:	fe843503          	ld	a0,-24(s0)
   2429c:	f31ff0ef          	jal	ra,241cc <write32>
   242a0:	020027b7          	lui	a5,0x2002
   242a4:	90c78793          	addi	a5,a5,-1780 # 200190c <_ebss+0x1fda6f4>
   242a8:	fef43423          	sd	a5,-24(s0)
   242ac:	fe843503          	ld	a0,-24(s0)
   242b0:	ef1ff0ef          	jal	ra,241a0 <read32>
   242b4:	00050793          	mv	a5,a0
   242b8:	fef42223          	sw	a5,-28(s0)
   242bc:	fe442783          	lw	a5,-28(s0)
   242c0:	0017e793          	ori	a5,a5,1
   242c4:	fef42223          	sw	a5,-28(s0)
   242c8:	fe442783          	lw	a5,-28(s0)
   242cc:	00078593          	mv	a1,a5
   242d0:	fe843503          	ld	a0,-24(s0)
   242d4:	ef9ff0ef          	jal	ra,241cc <write32>
   242d8:	020027b7          	lui	a5,0x2002
   242dc:	90c78793          	addi	a5,a5,-1780 # 200190c <_ebss+0x1fda6f4>
   242e0:	fef43423          	sd	a5,-24(s0)
   242e4:	fe843503          	ld	a0,-24(s0)
   242e8:	eb9ff0ef          	jal	ra,241a0 <read32>
   242ec:	00050793          	mv	a5,a0
   242f0:	fef42223          	sw	a5,-28(s0)
   242f4:	fe442703          	lw	a4,-28(s0)
   242f8:	000107b7          	lui	a5,0x10
   242fc:	00f767b3          	or	a5,a4,a5
   24300:	fef42223          	sw	a5,-28(s0)
   24304:	fe442783          	lw	a5,-28(s0)
   24308:	00078593          	mv	a1,a5
   2430c:	fe843503          	ld	a0,-24(s0)
   24310:	ebdff0ef          	jal	ra,241cc <write32>
   24314:	025007b7          	lui	a5,0x2500
   24318:	fef43423          	sd	a5,-24(s0)
   2431c:	fe843783          	ld	a5,-24(s0)
   24320:	00478793          	addi	a5,a5,4 # 2500004 <_ebss+0x24d8dec>
   24324:	00000593          	li	a1,0
   24328:	00078513          	mv	a0,a5
   2432c:	ea1ff0ef          	jal	ra,241cc <write32>
   24330:	fe843783          	ld	a5,-24(s0)
   24334:	00878793          	addi	a5,a5,8
   24338:	0f100593          	li	a1,241
   2433c:	00078513          	mv	a0,a5
   24340:	e8dff0ef          	jal	ra,241cc <write32>
   24344:	fe843783          	ld	a5,-24(s0)
   24348:	01078793          	addi	a5,a5,16
   2434c:	00000593          	li	a1,0
   24350:	00078513          	mv	a0,a5
   24354:	e79ff0ef          	jal	ra,241cc <write32>
   24358:	fe843783          	ld	a5,-24(s0)
   2435c:	00c78793          	addi	a5,a5,12
   24360:	00078513          	mv	a0,a5
   24364:	e3dff0ef          	jal	ra,241a0 <read32>
   24368:	00050793          	mv	a5,a0
   2436c:	fef42223          	sw	a5,-28(s0)
   24370:	fe442783          	lw	a5,-28(s0)
   24374:	0807e793          	ori	a5,a5,128
   24378:	fef42223          	sw	a5,-28(s0)
   2437c:	fe843783          	ld	a5,-24(s0)
   24380:	00c78793          	addi	a5,a5,12
   24384:	fe442703          	lw	a4,-28(s0)
   24388:	00070593          	mv	a1,a4
   2438c:	00078513          	mv	a0,a5
   24390:	e3dff0ef          	jal	ra,241cc <write32>
   24394:	00d00593          	li	a1,13
   24398:	fe843503          	ld	a0,-24(s0)
   2439c:	e31ff0ef          	jal	ra,241cc <write32>
   243a0:	fe843783          	ld	a5,-24(s0)
   243a4:	00478793          	addi	a5,a5,4
   243a8:	00000593          	li	a1,0
   243ac:	00078513          	mv	a0,a5
   243b0:	e1dff0ef          	jal	ra,241cc <write32>
   243b4:	fe843783          	ld	a5,-24(s0)
   243b8:	00c78793          	addi	a5,a5,12
   243bc:	00078513          	mv	a0,a5
   243c0:	de1ff0ef          	jal	ra,241a0 <read32>
   243c4:	00050793          	mv	a5,a0
   243c8:	fef42223          	sw	a5,-28(s0)
   243cc:	fe442783          	lw	a5,-28(s0)
   243d0:	f7f7f793          	andi	a5,a5,-129
   243d4:	fef42223          	sw	a5,-28(s0)
   243d8:	fe843783          	ld	a5,-24(s0)
   243dc:	00c78793          	addi	a5,a5,12
   243e0:	fe442703          	lw	a4,-28(s0)
   243e4:	00070593          	mv	a1,a4
   243e8:	00078513          	mv	a0,a5
   243ec:	de1ff0ef          	jal	ra,241cc <write32>
   243f0:	fe843783          	ld	a5,-24(s0)
   243f4:	00c78793          	addi	a5,a5,12
   243f8:	00078513          	mv	a0,a5
   243fc:	da5ff0ef          	jal	ra,241a0 <read32>
   24400:	00050793          	mv	a5,a0
   24404:	fef42223          	sw	a5,-28(s0)
   24408:	fe442783          	lw	a5,-28(s0)
   2440c:	fe07f793          	andi	a5,a5,-32
   24410:	fef42223          	sw	a5,-28(s0)
   24414:	fe442783          	lw	a5,-28(s0)
   24418:	0037e793          	ori	a5,a5,3
   2441c:	fef42223          	sw	a5,-28(s0)
   24420:	fe843783          	ld	a5,-24(s0)
   24424:	00c78793          	addi	a5,a5,12
   24428:	fe442703          	lw	a4,-28(s0)
   2442c:	00070593          	mv	a1,a4
   24430:	00078513          	mv	a0,a5
   24434:	d99ff0ef          	jal	ra,241cc <write32>
   24438:	00000013          	nop
   2443c:	01813083          	ld	ra,24(sp)
   24440:	01013403          	ld	s0,16(sp)
   24444:	02010113          	addi	sp,sp,32
   24448:	00008067          	ret

000000000002444c <uart_send>:
   2444c:	fd010113          	addi	sp,sp,-48
   24450:	02113423          	sd	ra,40(sp)
   24454:	02813023          	sd	s0,32(sp)
   24458:	03010413          	addi	s0,sp,48
   2445c:	00050793          	mv	a5,a0
   24460:	fcf40fa3          	sb	a5,-33(s0)
   24464:	025007b7          	lui	a5,0x2500
   24468:	fef43423          	sd	a5,-24(s0)
   2446c:	00000013          	nop
   24470:	fe843783          	ld	a5,-24(s0)
   24474:	07c78793          	addi	a5,a5,124 # 250007c <_ebss+0x24d8e64>
   24478:	00078513          	mv	a0,a5
   2447c:	d25ff0ef          	jal	ra,241a0 <read32>
   24480:	00050793          	mv	a5,a0
   24484:	0007879b          	sext.w	a5,a5
   24488:	0027f793          	andi	a5,a5,2
   2448c:	0007879b          	sext.w	a5,a5
   24490:	fe0780e3          	beqz	a5,24470 <uart_send+0x24>
   24494:	fdf44783          	lbu	a5,-33(s0)
   24498:	0007879b          	sext.w	a5,a5
   2449c:	00078593          	mv	a1,a5
   244a0:	fe843503          	ld	a0,-24(s0)
   244a4:	d29ff0ef          	jal	ra,241cc <write32>
   244a8:	00000013          	nop
   244ac:	02813083          	ld	ra,40(sp)
   244b0:	02013403          	ld	s0,32(sp)
   244b4:	03010113          	addi	sp,sp,48
   244b8:	00008067          	ret

00000000000244bc <putchar>:
   244bc:	fe010113          	addi	sp,sp,-32
   244c0:	00113c23          	sd	ra,24(sp)
   244c4:	00813823          	sd	s0,16(sp)
   244c8:	02010413          	addi	s0,sp,32
   244cc:	00050793          	mv	a5,a0
   244d0:	fef42623          	sw	a5,-20(s0)
   244d4:	fec42783          	lw	a5,-20(s0)
   244d8:	0ff7f793          	andi	a5,a5,255
   244dc:	00078513          	mv	a0,a5
   244e0:	f6dff0ef          	jal	ra,2444c <uart_send>
   244e4:	fec42783          	lw	a5,-20(s0)
   244e8:	00078513          	mv	a0,a5
   244ec:	01813083          	ld	ra,24(sp)
   244f0:	01013403          	ld	s0,16(sp)
   244f4:	02010113          	addi	sp,sp,32
   244f8:	00008067          	ret

00000000000244fc <uart_recv>:
   244fc:	fe010113          	addi	sp,sp,-32
   24500:	00113c23          	sd	ra,24(sp)
   24504:	00813823          	sd	s0,16(sp)
   24508:	02010413          	addi	s0,sp,32
   2450c:	025007b7          	lui	a5,0x2500
   24510:	fef43423          	sd	a5,-24(s0)
   24514:	00000013          	nop
   24518:	fe843783          	ld	a5,-24(s0)
   2451c:	07c78793          	addi	a5,a5,124 # 250007c <_ebss+0x24d8e64>
   24520:	00078513          	mv	a0,a5
   24524:	c7dff0ef          	jal	ra,241a0 <read32>
   24528:	00050793          	mv	a5,a0
   2452c:	0007879b          	sext.w	a5,a5
   24530:	0087f793          	andi	a5,a5,8
   24534:	0007879b          	sext.w	a5,a5
   24538:	fe0780e3          	beqz	a5,24518 <uart_recv+0x1c>
   2453c:	fe843503          	ld	a0,-24(s0)
   24540:	c35ff0ef          	jal	ra,24174 <read8>
   24544:	00050793          	mv	a5,a0
   24548:	00078513          	mv	a0,a5
   2454c:	01813083          	ld	ra,24(sp)
   24550:	01013403          	ld	s0,16(sp)
   24554:	02010113          	addi	sp,sp,32
   24558:	00008067          	ret

000000000002455c <uart_send_string>:
   2455c:	fd010113          	addi	sp,sp,-48
   24560:	02113423          	sd	ra,40(sp)
   24564:	02813023          	sd	s0,32(sp)
   24568:	03010413          	addi	s0,sp,48
   2456c:	fca43c23          	sd	a0,-40(s0)
   24570:	fe042623          	sw	zero,-20(s0)
   24574:	04c0006f          	j	245c0 <uart_send_string+0x64>
   24578:	fec42783          	lw	a5,-20(s0)
   2457c:	fd843703          	ld	a4,-40(s0)
   24580:	00f707b3          	add	a5,a4,a5
   24584:	0007c783          	lbu	a5,0(a5)
   24588:	00078713          	mv	a4,a5
   2458c:	00a00793          	li	a5,10
   24590:	00f71663          	bne	a4,a5,2459c <uart_send_string+0x40>
   24594:	00d00513          	li	a0,13
   24598:	eb5ff0ef          	jal	ra,2444c <uart_send>
   2459c:	fec42783          	lw	a5,-20(s0)
   245a0:	fd843703          	ld	a4,-40(s0)
   245a4:	00f707b3          	add	a5,a4,a5
   245a8:	0007c783          	lbu	a5,0(a5)
   245ac:	00078513          	mv	a0,a5
   245b0:	e9dff0ef          	jal	ra,2444c <uart_send>
   245b4:	fec42783          	lw	a5,-20(s0)
   245b8:	0017879b          	addiw	a5,a5,1
   245bc:	fef42623          	sw	a5,-20(s0)
   245c0:	fec42783          	lw	a5,-20(s0)
   245c4:	fd843703          	ld	a4,-40(s0)
   245c8:	00f707b3          	add	a5,a4,a5
   245cc:	0007c783          	lbu	a5,0(a5)
   245d0:	fa0794e3          	bnez	a5,24578 <uart_send_string+0x1c>
   245d4:	00000013          	nop
   245d8:	00000013          	nop
   245dc:	02813083          	ld	ra,40(sp)
   245e0:	02013403          	ld	s0,32(sp)
   245e4:	03010113          	addi	sp,sp,48
   245e8:	00008067          	ret

00000000000245ec <vpf_str_to_num>:
   245ec:	fc010113          	addi	sp,sp,-64
   245f0:	02813c23          	sd	s0,56(sp)
   245f4:	04010413          	addi	s0,sp,64
   245f8:	fca43423          	sd	a0,-56(s0)
   245fc:	fcb43023          	sd	a1,-64(s0)
   24600:	fe042223          	sw	zero,-28(s0)
   24604:	fc843783          	ld	a5,-56(s0)
   24608:	fef43423          	sd	a5,-24(s0)
   2460c:	0900006f          	j	2469c <vpf_str_to_num+0xb0>
   24610:	fe843783          	ld	a5,-24(s0)
   24614:	0007c783          	lbu	a5,0(a5)
   24618:	00078713          	mv	a4,a5
   2461c:	02f00793          	li	a5,47
   24620:	02e7f063          	bgeu	a5,a4,24640 <vpf_str_to_num+0x54>
   24624:	fe843783          	ld	a5,-24(s0)
   24628:	0007c783          	lbu	a5,0(a5)
   2462c:	00078713          	mv	a4,a5
   24630:	03900793          	li	a5,57
   24634:	00e7e663          	bltu	a5,a4,24640 <vpf_str_to_num+0x54>
   24638:	00100793          	li	a5,1
   2463c:	0080006f          	j	24644 <vpf_str_to_num+0x58>
   24640:	00000793          	li	a5,0
   24644:	fef42023          	sw	a5,-32(s0)
   24648:	fe042783          	lw	a5,-32(s0)
   2464c:	0007879b          	sext.w	a5,a5
   24650:	04078e63          	beqz	a5,246ac <vpf_str_to_num+0xc0>
   24654:	fe843783          	ld	a5,-24(s0)
   24658:	0007c783          	lbu	a5,0(a5)
   2465c:	0007879b          	sext.w	a5,a5
   24660:	fd07879b          	addiw	a5,a5,-48
   24664:	fcf42e23          	sw	a5,-36(s0)
   24668:	fe442703          	lw	a4,-28(s0)
   2466c:	00070793          	mv	a5,a4
   24670:	0027979b          	slliw	a5,a5,0x2
   24674:	00e787bb          	addw	a5,a5,a4
   24678:	0017979b          	slliw	a5,a5,0x1
   2467c:	fef42223          	sw	a5,-28(s0)
   24680:	fe442703          	lw	a4,-28(s0)
   24684:	fdc42783          	lw	a5,-36(s0)
   24688:	00f707bb          	addw	a5,a4,a5
   2468c:	fef42223          	sw	a5,-28(s0)
   24690:	fe843783          	ld	a5,-24(s0)
   24694:	00178793          	addi	a5,a5,1
   24698:	fef43423          	sd	a5,-24(s0)
   2469c:	fc843783          	ld	a5,-56(s0)
   246a0:	0007c783          	lbu	a5,0(a5)
   246a4:	f60796e3          	bnez	a5,24610 <vpf_str_to_num+0x24>
   246a8:	0080006f          	j	246b0 <vpf_str_to_num+0xc4>
   246ac:	00000013          	nop
   246b0:	fc043783          	ld	a5,-64(s0)
   246b4:	fe442703          	lw	a4,-28(s0)
   246b8:	00e7a023          	sw	a4,0(a5)
   246bc:	fe843703          	ld	a4,-24(s0)
   246c0:	fc843783          	ld	a5,-56(s0)
   246c4:	40f707b3          	sub	a5,a4,a5
   246c8:	0007879b          	sext.w	a5,a5
   246cc:	00078513          	mv	a0,a5
   246d0:	03813403          	ld	s0,56(sp)
   246d4:	04010113          	addi	sp,sp,64
   246d8:	00008067          	ret

00000000000246dc <vpf_num_to_str>:
   246dc:	fb010113          	addi	sp,sp,-80
   246e0:	04113423          	sd	ra,72(sp)
   246e4:	04813023          	sd	s0,64(sp)
   246e8:	05010413          	addi	s0,sp,80
   246ec:	00050793          	mv	a5,a0
   246f0:	00068713          	mv	a4,a3
   246f4:	faf42e23          	sw	a5,-68(s0)
   246f8:	00058793          	mv	a5,a1
   246fc:	faf42c23          	sw	a5,-72(s0)
   24700:	00060793          	mv	a5,a2
   24704:	faf42a23          	sw	a5,-76(s0)
   24708:	00070793          	mv	a5,a4
   2470c:	faf42823          	sw	a5,-80(s0)
   24710:	fe042223          	sw	zero,-28(s0)
   24714:	0280006f          	j	2473c <vpf_num_to_str+0x60>
   24718:	fb042783          	lw	a5,-80(s0)
   2471c:	0ff7f713          	andi	a4,a5,255
   24720:	fe442783          	lw	a5,-28(s0)
   24724:	ff040693          	addi	a3,s0,-16
   24728:	00f687b3          	add	a5,a3,a5
   2472c:	fce78823          	sb	a4,-48(a5)
   24730:	fe442783          	lw	a5,-28(s0)
   24734:	0017879b          	addiw	a5,a5,1
   24738:	fef42223          	sw	a5,-28(s0)
   2473c:	fe442783          	lw	a5,-28(s0)
   24740:	00078713          	mv	a4,a5
   24744:	01f00793          	li	a5,31
   24748:	fce7f8e3          	bgeu	a5,a4,24718 <vpf_num_to_str+0x3c>
   2474c:	00a00793          	li	a5,10
   24750:	fef42623          	sw	a5,-20(s0)
   24754:	fb842783          	lw	a5,-72(s0)
   24758:	0007879b          	sext.w	a5,a5
   2475c:	00078663          	beqz	a5,24768 <vpf_num_to_str+0x8c>
   24760:	01000793          	li	a5,16
   24764:	fef42623          	sw	a5,-20(s0)
   24768:	fe042423          	sw	zero,-24(s0)
   2476c:	fbc42703          	lw	a4,-68(s0)
   24770:	fec42783          	lw	a5,-20(s0)
   24774:	02f777bb          	remuw	a5,a4,a5
   24778:	0007879b          	sext.w	a5,a5
   2477c:	fef42023          	sw	a5,-32(s0)
   24780:	fe042783          	lw	a5,-32(s0)
   24784:	0007871b          	sext.w	a4,a5
   24788:	00900793          	li	a5,9
   2478c:	02e7d463          	bge	a5,a4,247b4 <vpf_num_to_str+0xd8>
   24790:	fe042783          	lw	a5,-32(s0)
   24794:	0ff7f793          	andi	a5,a5,255
   24798:	0577879b          	addiw	a5,a5,87
   2479c:	0ff7f713          	andi	a4,a5,255
   247a0:	fe842783          	lw	a5,-24(s0)
   247a4:	ff040693          	addi	a3,s0,-16
   247a8:	00f687b3          	add	a5,a3,a5
   247ac:	fce78823          	sb	a4,-48(a5)
   247b0:	0240006f          	j	247d4 <vpf_num_to_str+0xf8>
   247b4:	fe042783          	lw	a5,-32(s0)
   247b8:	0ff7f793          	andi	a5,a5,255
   247bc:	0307879b          	addiw	a5,a5,48
   247c0:	0ff7f713          	andi	a4,a5,255
   247c4:	fe842783          	lw	a5,-24(s0)
   247c8:	ff040693          	addi	a3,s0,-16
   247cc:	00f687b3          	add	a5,a3,a5
   247d0:	fce78823          	sb	a4,-48(a5)
   247d4:	fbc42703          	lw	a4,-68(s0)
   247d8:	fec42783          	lw	a5,-20(s0)
   247dc:	02f757bb          	divuw	a5,a4,a5
   247e0:	faf42e23          	sw	a5,-68(s0)
   247e4:	fe842783          	lw	a5,-24(s0)
   247e8:	0017879b          	addiw	a5,a5,1
   247ec:	fef42423          	sw	a5,-24(s0)
   247f0:	fbc42783          	lw	a5,-68(s0)
   247f4:	0007879b          	sext.w	a5,a5
   247f8:	f6079ae3          	bnez	a5,2476c <vpf_num_to_str+0x90>
   247fc:	fb442783          	lw	a5,-76(s0)
   24800:	0007879b          	sext.w	a5,a5
   24804:	02f05c63          	blez	a5,2483c <vpf_num_to_str+0x160>
   24808:	fb442783          	lw	a5,-76(s0)
   2480c:	00078713          	mv	a4,a5
   24810:	01f00793          	li	a5,31
   24814:	00e7f663          	bgeu	a5,a4,24820 <vpf_num_to_str+0x144>
   24818:	01f00793          	li	a5,31
   2481c:	faf42a23          	sw	a5,-76(s0)
   24820:	fe842703          	lw	a4,-24(s0)
   24824:	fb442783          	lw	a5,-76(s0)
   24828:	0007071b          	sext.w	a4,a4
   2482c:	0007879b          	sext.w	a5,a5
   24830:	00f75663          	bge	a4,a5,2483c <vpf_num_to_str+0x160>
   24834:	fb442783          	lw	a5,-76(s0)
   24838:	fef42423          	sw	a5,-24(s0)
   2483c:	fe842783          	lw	a5,-24(s0)
   24840:	ff040713          	addi	a4,s0,-16
   24844:	00f707b3          	add	a5,a4,a5
   24848:	fc078823          	sb	zero,-48(a5)
   2484c:	fe842783          	lw	a5,-24(s0)
   24850:	fff7879b          	addiw	a5,a5,-1
   24854:	fef42223          	sw	a5,-28(s0)
   24858:	0280006f          	j	24880 <vpf_num_to_str+0x1a4>
   2485c:	fe442783          	lw	a5,-28(s0)
   24860:	ff040713          	addi	a4,s0,-16
   24864:	00f707b3          	add	a5,a4,a5
   24868:	fd07c783          	lbu	a5,-48(a5)
   2486c:	00078513          	mv	a0,a5
   24870:	bddff0ef          	jal	ra,2444c <uart_send>
   24874:	fe442783          	lw	a5,-28(s0)
   24878:	fff7879b          	addiw	a5,a5,-1
   2487c:	fef42223          	sw	a5,-28(s0)
   24880:	fe442783          	lw	a5,-28(s0)
   24884:	0007879b          	sext.w	a5,a5
   24888:	fc07dae3          	bgez	a5,2485c <vpf_num_to_str+0x180>
   2488c:	00000013          	nop
   24890:	00000013          	nop
   24894:	04813083          	ld	ra,72(sp)
   24898:	04013403          	ld	s0,64(sp)
   2489c:	05010113          	addi	sp,sp,80
   248a0:	00008067          	ret

00000000000248a4 <vpf>:
   248a4:	fb010113          	addi	sp,sp,-80
   248a8:	04113423          	sd	ra,72(sp)
   248ac:	04813023          	sd	s0,64(sp)
   248b0:	05010413          	addi	s0,sp,80
   248b4:	faa43c23          	sd	a0,-72(s0)
   248b8:	fab43823          	sd	a1,-80(s0)
   248bc:	02000793          	li	a5,32
   248c0:	fcf42a23          	sw	a5,-44(s0)
   248c4:	fb843783          	ld	a5,-72(s0)
   248c8:	fef43423          	sd	a5,-24(s0)
   248cc:	1880006f          	j	24a54 <vpf+0x1b0>
   248d0:	fc042e23          	sw	zero,-36(s0)
   248d4:	fc042223          	sw	zero,-60(s0)
   248d8:	fe843783          	ld	a5,-24(s0)
   248dc:	0007c783          	lbu	a5,0(a5)
   248e0:	fcf42823          	sw	a5,-48(s0)
   248e4:	fe843783          	ld	a5,-24(s0)
   248e8:	fef43023          	sd	a5,-32(s0)
   248ec:	fe843783          	ld	a5,-24(s0)
   248f0:	0007c783          	lbu	a5,0(a5)
   248f4:	00078713          	mv	a4,a5
   248f8:	02500793          	li	a5,37
   248fc:	06f71863          	bne	a4,a5,2496c <vpf+0xc8>
   24900:	fe843783          	ld	a5,-24(s0)
   24904:	fef43023          	sd	a5,-32(s0)
   24908:	fe843783          	ld	a5,-24(s0)
   2490c:	00178793          	addi	a5,a5,1
   24910:	fef43423          	sd	a5,-24(s0)
   24914:	fe843783          	ld	a5,-24(s0)
   24918:	0007c783          	lbu	a5,0(a5)
   2491c:	00078713          	mv	a4,a5
   24920:	02f00793          	li	a5,47
   24924:	02e7fe63          	bgeu	a5,a4,24960 <vpf+0xbc>
   24928:	fe843783          	ld	a5,-24(s0)
   2492c:	0007c783          	lbu	a5,0(a5)
   24930:	00078713          	mv	a4,a5
   24934:	03900793          	li	a5,57
   24938:	02e7e463          	bltu	a5,a4,24960 <vpf+0xbc>
   2493c:	fc440793          	addi	a5,s0,-60
   24940:	00078593          	mv	a1,a5
   24944:	fe843503          	ld	a0,-24(s0)
   24948:	ca5ff0ef          	jal	ra,245ec <vpf_str_to_num>
   2494c:	00050793          	mv	a5,a0
   24950:	00078713          	mv	a4,a5
   24954:	fe843783          	ld	a5,-24(s0)
   24958:	00e787b3          	add	a5,a5,a4
   2495c:	fef43423          	sd	a5,-24(s0)
   24960:	fe843783          	ld	a5,-24(s0)
   24964:	0007c783          	lbu	a5,0(a5)
   24968:	fcf42e23          	sw	a5,-36(s0)
   2496c:	fdc42783          	lw	a5,-36(s0)
   24970:	0007871b          	sext.w	a4,a5
   24974:	06400793          	li	a5,100
   24978:	00f70a63          	beq	a4,a5,2498c <vpf+0xe8>
   2497c:	fdc42783          	lw	a5,-36(s0)
   24980:	0007871b          	sext.w	a4,a5
   24984:	07800793          	li	a5,120
   24988:	04f71863          	bne	a4,a5,249d8 <vpf+0x134>
   2498c:	fb043783          	ld	a5,-80(s0)
   24990:	00878713          	addi	a4,a5,8
   24994:	fae43823          	sd	a4,-80(s0)
   24998:	0007a783          	lw	a5,0(a5)
   2499c:	fcf42423          	sw	a5,-56(s0)
   249a0:	fc842503          	lw	a0,-56(s0)
   249a4:	fdc42783          	lw	a5,-36(s0)
   249a8:	0007871b          	sext.w	a4,a5
   249ac:	07800793          	li	a5,120
   249b0:	40f707b3          	sub	a5,a4,a5
   249b4:	0017b793          	seqz	a5,a5
   249b8:	0ff7f793          	andi	a5,a5,255
   249bc:	0007879b          	sext.w	a5,a5
   249c0:	fc442703          	lw	a4,-60(s0)
   249c4:	fd442683          	lw	a3,-44(s0)
   249c8:	00070613          	mv	a2,a4
   249cc:	00078593          	mv	a1,a5
   249d0:	d0dff0ef          	jal	ra,246dc <vpf_num_to_str>
   249d4:	0740006f          	j	24a48 <vpf+0x1a4>
   249d8:	fc042c23          	sw	zero,-40(s0)
   249dc:	0280006f          	j	24a04 <vpf+0x160>
   249e0:	fd842783          	lw	a5,-40(s0)
   249e4:	fe043703          	ld	a4,-32(s0)
   249e8:	00f707b3          	add	a5,a4,a5
   249ec:	0007c783          	lbu	a5,0(a5)
   249f0:	00078513          	mv	a0,a5
   249f4:	a59ff0ef          	jal	ra,2444c <uart_send>
   249f8:	fd842783          	lw	a5,-40(s0)
   249fc:	0017879b          	addiw	a5,a5,1
   24a00:	fcf42c23          	sw	a5,-40(s0)
   24a04:	fd842703          	lw	a4,-40(s0)
   24a08:	fe843683          	ld	a3,-24(s0)
   24a0c:	fe043783          	ld	a5,-32(s0)
   24a10:	40f687b3          	sub	a5,a3,a5
   24a14:	fcf746e3          	blt	a4,a5,249e0 <vpf+0x13c>
   24a18:	fdc42783          	lw	a5,-36(s0)
   24a1c:	0007879b          	sext.w	a5,a5
   24a20:	00078863          	beqz	a5,24a30 <vpf+0x18c>
   24a24:	fdc42783          	lw	a5,-36(s0)
   24a28:	0ff7f793          	andi	a5,a5,255
   24a2c:	00c0006f          	j	24a38 <vpf+0x194>
   24a30:	fd042783          	lw	a5,-48(s0)
   24a34:	0ff7f793          	andi	a5,a5,255
   24a38:	fcf407a3          	sb	a5,-49(s0)
   24a3c:	fcf44783          	lbu	a5,-49(s0)
   24a40:	00078513          	mv	a0,a5
   24a44:	a09ff0ef          	jal	ra,2444c <uart_send>
   24a48:	fe843783          	ld	a5,-24(s0)
   24a4c:	00178793          	addi	a5,a5,1
   24a50:	fef43423          	sd	a5,-24(s0)
   24a54:	fe843783          	ld	a5,-24(s0)
   24a58:	0007c783          	lbu	a5,0(a5)
   24a5c:	e6079ae3          	bnez	a5,248d0 <vpf+0x2c>
   24a60:	00000793          	li	a5,0
   24a64:	00078513          	mv	a0,a5
   24a68:	04813083          	ld	ra,72(sp)
   24a6c:	04013403          	ld	s0,64(sp)
   24a70:	05010113          	addi	sp,sp,80
   24a74:	00008067          	ret

0000000000024a78 <sys_uart_printf>:
   24a78:	f9010113          	addi	sp,sp,-112
   24a7c:	02113423          	sd	ra,40(sp)
   24a80:	02813023          	sd	s0,32(sp)
   24a84:	03010413          	addi	s0,sp,48
   24a88:	fca43c23          	sd	a0,-40(s0)
   24a8c:	00b43423          	sd	a1,8(s0)
   24a90:	00c43823          	sd	a2,16(s0)
   24a94:	00d43c23          	sd	a3,24(s0)
   24a98:	02e43023          	sd	a4,32(s0)
   24a9c:	02f43423          	sd	a5,40(s0)
   24aa0:	03043823          	sd	a6,48(s0)
   24aa4:	03143c23          	sd	a7,56(s0)
   24aa8:	04040793          	addi	a5,s0,64
   24aac:	fcf43823          	sd	a5,-48(s0)
   24ab0:	fd043783          	ld	a5,-48(s0)
   24ab4:	fc878793          	addi	a5,a5,-56
   24ab8:	fef43423          	sd	a5,-24(s0)
   24abc:	fe843783          	ld	a5,-24(s0)
   24ac0:	00078593          	mv	a1,a5
   24ac4:	fd843503          	ld	a0,-40(s0)
   24ac8:	dddff0ef          	jal	ra,248a4 <vpf>
   24acc:	00000793          	li	a5,0
   24ad0:	00078513          	mv	a0,a5
   24ad4:	02813083          	ld	ra,40(sp)
   24ad8:	02013403          	ld	s0,32(sp)
   24adc:	07010113          	addi	sp,sp,112
   24ae0:	00008067          	ret

0000000000024ae4 <print_hex>:
   24ae4:	fd010113          	addi	sp,sp,-48
   24ae8:	02113423          	sd	ra,40(sp)
   24aec:	02813023          	sd	s0,32(sp)
   24af0:	03010413          	addi	s0,sp,48
   24af4:	00050793          	mv	a5,a0
   24af8:	fcf42e23          	sw	a5,-36(s0)
   24afc:	03000513          	li	a0,48
   24b00:	94dff0ef          	jal	ra,2444c <uart_send>
   24b04:	07800513          	li	a0,120
   24b08:	945ff0ef          	jal	ra,2444c <uart_send>
   24b0c:	00700793          	li	a5,7
   24b10:	fef42623          	sw	a5,-20(s0)
   24b14:	07c0006f          	j	24b90 <print_hex+0xac>
   24b18:	fec42783          	lw	a5,-20(s0)
   24b1c:	0027979b          	slliw	a5,a5,0x2
   24b20:	0007879b          	sext.w	a5,a5
   24b24:	00078713          	mv	a4,a5
   24b28:	fdc42783          	lw	a5,-36(s0)
   24b2c:	00e7d7bb          	srlw	a5,a5,a4
   24b30:	0007879b          	sext.w	a5,a5
   24b34:	0007879b          	sext.w	a5,a5
   24b38:	00f7f793          	andi	a5,a5,15
   24b3c:	fef42423          	sw	a5,-24(s0)
   24b40:	fe842783          	lw	a5,-24(s0)
   24b44:	0007871b          	sext.w	a4,a5
   24b48:	00900793          	li	a5,9
   24b4c:	02e7c063          	blt	a5,a4,24b6c <print_hex+0x88>
   24b50:	fe842783          	lw	a5,-24(s0)
   24b54:	0ff7f793          	andi	a5,a5,255
   24b58:	0307879b          	addiw	a5,a5,48
   24b5c:	0ff7f793          	andi	a5,a5,255
   24b60:	00078513          	mv	a0,a5
   24b64:	8e9ff0ef          	jal	ra,2444c <uart_send>
   24b68:	01c0006f          	j	24b84 <print_hex+0xa0>
   24b6c:	fe842783          	lw	a5,-24(s0)
   24b70:	0ff7f793          	andi	a5,a5,255
   24b74:	0377879b          	addiw	a5,a5,55
   24b78:	0ff7f793          	andi	a5,a5,255
   24b7c:	00078513          	mv	a0,a5
   24b80:	8cdff0ef          	jal	ra,2444c <uart_send>
   24b84:	fec42783          	lw	a5,-20(s0)
   24b88:	fff7879b          	addiw	a5,a5,-1
   24b8c:	fef42623          	sw	a5,-20(s0)
   24b90:	fec42783          	lw	a5,-20(s0)
   24b94:	0007879b          	sext.w	a5,a5
   24b98:	f807d0e3          	bgez	a5,24b18 <print_hex+0x34>
   24b9c:	00000013          	nop
   24ba0:	00000013          	nop
   24ba4:	02813083          	ld	ra,40(sp)
   24ba8:	02013403          	ld	s0,32(sp)
   24bac:	03010113          	addi	sp,sp,48
   24bb0:	00008067          	ret
   24bb4:	0000                	unimp
	...

0000000000024bb8 <my_test_data>:
   24bb8:	abcd                	j	251aa <__func__.0+0x92>
   24bba:	abcd                	j	251ac <__func__.0+0x94>
   24bbc:	5678                	lw	a4,108(a2)
   24bbe:	1234                	addi	a3,sp,296

0000000000024bc0 <load_store_test>:
   24bc0:	000212b7          	lui	t0,0x21
   24bc4:	00028303          	lb	t1,0(t0) # 21000 <_start-0x1000>
   24bc8:	00428303          	lb	t1,4(t0)
   24bcc:	ffc28303          	lb	t1,-4(t0)
   24bd0:	0002b303          	ld	t1,0(t0)
   24bd4:	00428303          	lb	t1,4(t0)
   24bd8:	00000297          	auipc	t0,0x0
   24bdc:	fe028293          	addi	t0,t0,-32 # 24bb8 <my_test_data>
   24be0:	00000317          	auipc	t1,0x0
   24be4:	fd830313          	addi	t1,t1,-40 # 24bb8 <my_test_data>
   24be8:	802002b7          	lui	t0,0x80200
   24bec:	40200337          	lui	t1,0x40200
   24bf0:	00008067          	ret

0000000000024bf4 <shift_test>:
   24bf4:	c00002b7          	lui	t0,0xc0000
   24bf8:	0452829b          	addiw	t0,t0,69
   24bfc:	02129293          	slli	t0,t0,0x21
   24c00:	4012d593          	srai	a1,t0,0x1
   24c04:	0012d313          	srli	t1,t0,0x1
   24c08:	0250029b          	addiw	t0,zero,37
   24c0c:	01f29293          	slli	t0,t0,0x1f
   24c10:	08a28293          	addi	t0,t0,138 # ffffffffc000008a <_ebss+0xffffffffbffd8e72>
   24c14:	4012d61b          	sraiw	a2,t0,0x1
   24c18:	0012d31b          	srliw	t1,t0,0x1
   24c1c:	0012969b          	slliw	a3,t0,0x1
   24c20:	0490029b          	addiw	t0,zero,73
   24c24:	01e29293          	slli	t0,t0,0x1e
   24c28:	08a28293          	addi	t0,t0,138
   24c2c:	4012d61b          	sraiw	a2,t0,0x1
   24c30:	0012d31b          	srliw	t1,t0,0x1
   24c34:	0012971b          	slliw	a4,t0,0x1
   24c38:	00008067          	ret

0000000000024c3c <add_sub_test>:
   24c3c:	80028593          	addi	a1,t0,-2048
   24c40:	000012b7          	lui	t0,0x1
   24c44:	a012829b          	addiw	t0,t0,-1535
   24c48:	01529293          	slli	t0,t0,0x15
   24c4c:	40000337          	lui	t1,0x40000
   24c50:	70028593          	addi	a1,t0,1792 # 1700 <_start-0x20900>
   24c54:	80028593          	addi	a1,t0,-2048
   24c58:	0802861b          	addiw	a2,t0,128
   24c5c:	006286b3          	add	a3,t0,t1
   24c60:	0062873b          	addw	a4,t0,t1
   24c64:	000012b7          	lui	t0,0x1
   24c68:	c012829b          	addiw	t0,t0,-1023
   24c6c:	01529293          	slli	t0,t0,0x15
   24c70:	00200337          	lui	t1,0x200
   24c74:	40628533          	sub	a0,t0,t1
   24c78:	406285bb          	subw	a1,t0,t1
   24c7c:	00008067          	ret

0000000000024c80 <add_test>:
   24c80:	00b50533          	add	a0,a0,a1
   24c84:	00000013          	nop
   24c88:	00008067          	ret

0000000000024c8c <branch_test>:
   24c8c:	ff810113          	addi	sp,sp,-8
   24c90:	00113023          	sd	ra,0(sp)
   24c94:	00100513          	li	a0,1
   24c98:	00200593          	li	a1,2
   24c9c:	fe5ff0ef          	jal	ra,24c80 <add_test>
   24ca0:	00000013          	nop
   24ca4:	00013083          	ld	ra,0(sp)
   24ca8:	00810113          	addi	sp,sp,8
   24cac:	00008067          	ret

0000000000024cb0 <my_memcpy_test>:
   24cb0:	000202b7          	lui	t0,0x20
   24cb4:	00021337          	lui	t1,0x21
   24cb8:	02028393          	addi	t2,t0,32 # 20020 <_start-0x1fe0>

0000000000024cbc <.loop>:
   24cbc:	0002be03          	ld	t3,0(t0)
   24cc0:	01c33023          	sd	t3,0(t1) # 21000 <_start-0x1000>
   24cc4:	00828293          	addi	t0,t0,8
   24cc8:	00830313          	addi	t1,t1,8
   24ccc:	fe72c8e3          	blt	t0,t2,24cbc <.loop>
   24cd0:	00008067          	ret

0000000000024cd4 <compare_and_return>:
   24cd4:	00b56663          	bltu	a0,a1,24ce0 <compare_and_return+0xc>
   24cd8:	00000793          	li	a5,0
   24cdc:	0080006f          	j	24ce4 <compare_and_return+0x10>
   24ce0:	fff00793          	li	a5,-1
   24ce4:	00078513          	mv	a0,a5
   24ce8:	00008067          	ret

0000000000024cec <sel_test>:
   24cec:	00050663          	beqz	a0,24cf8 <sel_test+0xc>
   24cf0:	fff58793          	addi	a5,a1,-1
   24cf4:	0080006f          	j	24cfc <sel_test+0x10>
   24cf8:	00258793          	addi	a5,a1,2
   24cfc:	00078513          	mv	a0,a5
   24d00:	00008067          	ret

0000000000024d04 <bl_test>:
   24d04:	ff010113          	addi	sp,sp,-16
   24d08:	00113423          	sd	ra,8(sp)
   24d0c:	fe1ff0ef          	jal	ra,24cec <sel_test>
   24d10:	00813083          	ld	ra,8(sp)
   24d14:	01010113          	addi	sp,sp,16
   24d18:	00008067          	ret
   24d1c:	00000013          	nop

0000000000024d20 <func_addr>:
   24d20:	0800                	addi	s0,sp,16
   24d22:	0080                	addi	s0,sp,64
   24d24:	0000                	unimp
   24d26:	0000                	unimp
   24d28:	0860                	addi	s0,sp,28
   24d2a:	0080                	addi	s0,sp,64
   24d2c:	0000                	unimp
   24d2e:	0000                	unimp
   24d30:	0880                	addi	s0,sp,80
   24d32:	0080                	addi	s0,sp,64
   24d34:	0000                	unimp
	...

0000000000024d38 <func_string>:
   24d38:	7566                	ld	a0,120(sp)
   24d3a:	636e                	ld	t1,216(sp)
   24d3c:	615f 6600 6e75      	0x6e756600615f
   24d42:	00625f63          	bge	tp,t1,24d60 <op_2>
   24d46:	7566                	ld	a0,120(sp)
   24d48:	636e                	ld	t1,216(sp)
   24d4a:	635f 0100 0000      	0x100635f

0000000000024d50 <func_num_syms>:
   24d50:	00000003          	lb	zero,0(zero) # 0 <_start-0x22000>
   24d54:	0000                	unimp
	...

0000000000024d58 <op_1>:
   24d58:	00b50533          	add	a0,a0,a1
   24d5c:	00008067          	ret

0000000000024d60 <op_2>:
   24d60:	40b50533          	sub	a0,a0,a1
   24d64:	00008067          	ret

0000000000024d68 <macro_test_1>:
   24d68:	ff010113          	addi	sp,sp,-16
   24d6c:	00113423          	sd	ra,8(sp)
   24d70:	00050293          	mv	t0,a0
   24d74:	00058313          	mv	t1,a1
   24d78:	00028513          	mv	a0,t0
   24d7c:	00030593          	mv	a1,t1
   24d80:	fd9ff0ef          	jal	ra,24d58 <op_1>
   24d84:	00813083          	ld	ra,8(sp)
   24d88:	01010113          	addi	sp,sp,16
   24d8c:	00008067          	ret

0000000000024d90 <macro_test_2>:
   24d90:	ff010113          	addi	sp,sp,-16
   24d94:	00113423          	sd	ra,8(sp)
   24d98:	00050293          	mv	t0,a0
   24d9c:	00058313          	mv	t1,a1
   24da0:	00028513          	mv	a0,t0
   24da4:	00030593          	mv	a1,t1
   24da8:	fb9ff0ef          	jal	ra,24d60 <op_2>
   24dac:	00813083          	ld	ra,8(sp)
   24db0:	01010113          	addi	sp,sp,16
   24db4:	00008067          	ret
	...

0000000000024dc0 <__init_uart>:
   24dc0:	020002b7          	lui	t0,0x2000
   24dc4:	0f02829b          	addiw	t0,t0,240
   24dc8:	0002a303          	lw	t1,0(t0) # 2000000 <_ebss+0x1fd8de8>
   24dcc:	fff0f3b7          	lui	t2,0xfff0f
   24dd0:	0ff3839b          	addiw	t2,t2,255
   24dd4:	00737333          	and	t1,t1,t2
   24dd8:	000303b7          	lui	t2,0x30
   24ddc:	3003839b          	addiw	t2,t2,768
   24de0:	00736333          	or	t1,t1,t2
   24de4:	0062a023          	sw	t1,0(t0)
   24de8:	020022b7          	lui	t0,0x2002
   24dec:	90c2829b          	addiw	t0,t0,-1780
   24df0:	0002a303          	lw	t1,0(t0) # 2002000 <_ebss+0x1fdade8>
   24df4:	00136313          	ori	t1,t1,1
   24df8:	0062a023          	sw	t1,0(t0)
   24dfc:	020022b7          	lui	t0,0x2002
   24e00:	90c2829b          	addiw	t0,t0,-1780
   24e04:	0002a303          	lw	t1,0(t0) # 2002000 <_ebss+0x1fdade8>
   24e08:	000103b7          	lui	t2,0x10
   24e0c:	00736333          	or	t1,t1,t2
   24e10:	0062a023          	sw	t1,0(t0)
   24e14:	025002b7          	lui	t0,0x2500
   24e18:	0002a223          	sw	zero,4(t0) # 2500004 <_ebss+0x24d8dec>
   24e1c:	0f700313          	li	t1,247
   24e20:	0062a423          	sw	t1,8(t0)
   24e24:	0002a823          	sw	zero,16(t0)
   24e28:	00c2a303          	lw	t1,12(t0)
   24e2c:	08036313          	ori	t1,t1,128
   24e30:	0062a623          	sw	t1,12(t0)
   24e34:	00d00393          	li	t2,13
   24e38:	0072a023          	sw	t2,0(t0)
   24e3c:	00000393          	li	t2,0
   24e40:	0072a223          	sw	t2,4(t0)
   24e44:	08034313          	xori	t1,t1,128
   24e48:	0062a623          	sw	t1,12(t0)
   24e4c:	00c2a303          	lw	t1,12(t0)
   24e50:	ff000393          	li	t2,-16
   24e54:	00737333          	and	t1,t1,t2
   24e58:	00300393          	li	t2,3
   24e5c:	00736333          	or	t1,t1,t2
   24e60:	0062a623          	sw	t1,12(t0)
   24e64:	00008067          	ret

0000000000024e68 <put_uart>:
   24e68:	025002b7          	lui	t0,0x2500

0000000000024e6c <.loop>:
   24e6c:	07c2a303          	lw	t1,124(t0) # 250007c <_ebss+0x24d8e64>
   24e70:	00237313          	andi	t1,t1,2
   24e74:	fe030ce3          	beqz	t1,24e6c <.loop>
   24e78:	00a28023          	sb	a0,0(t0)
   24e7c:	00008067          	ret

0000000000024e80 <put_string_uart>:
   24e80:	00008c13          	mv	s8,ra
   24e84:	00050793          	mv	a5,a0

0000000000024e88 <.loop1>:
   24e88:	0007c503          	lbu	a0,0(a5)
   24e8c:	00050863          	beqz	a0,24e9c <.loop1+0x14>
   24e90:	fd9ff0ef          	jal	ra,24e68 <put_uart>
   24e94:	00178793          	addi	a5,a5,1
   24e98:	ff1ff06f          	j	24e88 <.loop1>
   24e9c:	000c0093          	mv	ra,s8
   24ea0:	00008067          	ret

0000000000024ea4 <__memset_16bytes_asm>:
   24ea4:	00000293          	li	t0,0

0000000000024ea8 <.loop>:
   24ea8:	00b53023          	sd	a1,0(a0) # 2001000 <_ebss+0x1fd9de8>
   24eac:	00b53423          	sd	a1,8(a0)
   24eb0:	01028293          	addi	t0,t0,16
   24eb4:	fec2cae3          	blt	t0,a2,24ea8 <.loop>
   24eb8:	00008067          	ret

Disassembly of section .rodata:

0000000000024ec0 <__func__.0-0x258>:
   24ec0:	303c                	fld	fa5,96(s0)
   24ec2:	2578                	fld	fa4,200(a0)
   24ec4:	786c                	ld	a1,240(s0)
   24ec6:	203e                	fld	ft0,456(sp)
   24ec8:	7325                	lui	t1,0xfffe9
   24eca:	000a                	c.slli	zero,0x2
   24ecc:	0000                	unimp
   24ece:	0000                	unimp
   24ed0:	6574                	ld	a3,200(a0)
   24ed2:	61207473          	csrrci	s0,0x612,0
   24ed6:	646e                	ld	s0,216(sp)
   24ed8:	203a                	fld	ft0,392(sp)
   24eda:	3d70                	fld	fa2,248(a0)
   24edc:	7830                	ld	a2,112(s0)
   24ede:	7825                	lui	a6,0xfffe9
   24ee0:	000a                	c.slli	zero,0x2
   24ee2:	0000                	unimp
   24ee4:	0000                	unimp
   24ee6:	0000                	unimp
   24ee8:	6574                	ld	a3,200(a0)
   24eea:	6f207473          	csrrci	s0,0x6f2,0
   24eee:	7272                	ld	tp,312(sp)
   24ef0:	203a                	fld	ft0,392(sp)
   24ef2:	3d70                	fld	fa2,248(a0)
   24ef4:	7830                	ld	a2,112(s0)
   24ef6:	7825                	lui	a6,0xfffe9
   24ef8:	000a                	c.slli	zero,0x2
   24efa:	0000                	unimp
   24efc:	0000                	unimp
   24efe:	0000                	unimp
   24f00:	6574                	ld	a3,200(a0)
   24f02:	61207473          	csrrci	s0,0x612,0
   24f06:	6464                	ld	s1,200(s0)
   24f08:	203a                	fld	ft0,392(sp)
   24f0a:	3d70                	fld	fa2,248(a0)
   24f0c:	7830                	ld	a2,112(s0)
   24f0e:	7825                	lui	a6,0xfffe9
   24f10:	000a                	c.slli	zero,0x2
   24f12:	0000                	unimp
   24f14:	0000                	unimp
   24f16:	0000                	unimp
   24f18:	61747373          	csrrci	t1,0x617,8
   24f1c:	7574                	ld	a3,232(a0)
   24f1e:	303d2073          	csrs	mideleg,s10
   24f22:	2578                	fld	fa4,200(a0)
   24f24:	0a78                	addi	a4,sp,284
   24f26:	0000                	unimp
   24f28:	7325                	lui	t1,0xfffe9
   24f2a:	203a                	fld	ft0,392(sp)
   24f2c:	2061                	0x2061
   24f2e:	203d                	0x203d
   24f30:	6425                	lui	s0,0x9
   24f32:	000a                	c.slli	zero,0x2
   24f34:	0000                	unimp
   24f36:	0000                	unimp
   24f38:	7361                	lui	t1,0xffff8
   24f3a:	5f6d                	li	t5,-5
   24f3c:	6f746f67          	0x6f746f67
   24f40:	203a                	fld	ft0,392(sp)
   24f42:	6572                	ld	a0,280(sp)
   24f44:	7574                	ld	a3,232(a0)
   24f46:	6e72                	ld	t3,280(sp)
   24f48:	3120                	fld	fs0,96(a0)
   24f4a:	000a                	c.slli	zero,0x2
   24f4c:	0000                	unimp
   24f4e:	0000                	unimp
   24f50:	7361                	lui	t1,0xffff8
   24f52:	5f6d                	li	t5,-5
   24f54:	6f746f67          	0x6f746f67
   24f58:	203a                	fld	ft0,392(sp)
   24f5a:	2062                	fld	ft0,24(sp)
   24f5c:	7369                	lui	t1,0xffffa
   24f5e:	6e20                	ld	s0,88(a2)
   24f60:	3120746f          	jal	s0,2c272 <_ebss+0x505a>
   24f64:	000a                	c.slli	zero,0x2
   24f66:	0000                	unimp
   24f68:	616c                	ld	a1,192(a0)
   24f6a:	3362                	fld	ft6,56(sp)
   24f6c:	352d                	addiw	a0,a0,-21
   24f6e:	203a                	fld	ft0,392(sp)
   24f70:	706d6f63          	bltu	s10,t1,2568e <_data+0x433>
   24f74:	7261                	lui	tp,0xffff8
   24f76:	5f65                	li	t5,-7
   24f78:	6e61                	lui	t3,0x18
   24f7a:	5f64                	lw	s1,124(a4)
   24f7c:	6572                	ld	a0,280(sp)
   24f7e:	7574                	ld	a3,232(a0)
   24f80:	6e72                	ld	t3,280(sp)
   24f82:	6f20                	ld	s0,88(a4)
   24f84:	00000a6b          	0xa6b
   24f88:	616c                	ld	a1,192(a0)
   24f8a:	3362                	fld	ft6,56(sp)
   24f8c:	372d                	addiw	a4,a4,-21
   24f8e:	203a                	fld	ft0,392(sp)
   24f90:	7262                	ld	tp,56(sp)
   24f92:	6e61                	lui	t3,0x18
   24f94:	74206863          	bltu	zero,sp,256e4 <_data+0x489>
   24f98:	7365                	lui	t1,0xffff9
   24f9a:	2074                	fld	fa3,192(s0)
   24f9c:	000a6b6f          	jal	s6,caf9c <_ebss+0xa3d84>
   24fa0:	616c                	ld	a1,192(a0)
   24fa2:	3562                	fld	fa0,56(sp)
   24fa4:	352d                	addiw	a0,a0,-21
   24fa6:	203a                	fld	ft0,392(sp)
   24fa8:	616d                	addi	sp,sp,240
   24faa:	5f6f7263          	bgeu	t5,s6,2558e <_data+0x333>
   24fae:	6574                	ld	a3,200(a0)
   24fb0:	315f7473          	csrrci	s0,0x315,30
   24fb4:	6f20                	ld	s0,88(a4)
   24fb6:	00000a6b          	0xa6b
   24fba:	0000                	unimp
   24fbc:	0000                	unimp
   24fbe:	0000                	unimp
   24fc0:	616c                	ld	a1,192(a0)
   24fc2:	3562                	fld	fa0,56(sp)
   24fc4:	352d                	addiw	a0,a0,-21
   24fc6:	203a                	fld	ft0,392(sp)
   24fc8:	616d                	addi	sp,sp,240
   24fca:	5f6f7263          	bgeu	t5,s6,255ae <_data+0x353>
   24fce:	6574                	ld	a3,200(a0)
   24fd0:	325f7473          	csrrci	s0,mhpmevent5,30
   24fd4:	6f20                	ld	s0,88(a4)
   24fd6:	00000a6b          	0xa6b
   24fda:	0000                	unimp
   24fdc:	0000                	unimp
   24fde:	0000                	unimp
   24fe0:	6542                	ld	a0,16(sp)
   24fe2:	4f6e                	lw	t5,216(sp)
   24fe4:	6d692053          	0x6d692053
   24fe8:	6761                	lui	a4,0x18
   24fea:	2065                	0x2065
   24fec:	616c                	ld	a1,192(a0)
   24fee:	6f79                	lui	t5,0x1e
   24ff0:	7475                	lui	s0,0xffffd
   24ff2:	0a3a                	slli	s4,s4,0xe
   24ff4:	0000                	unimp
   24ff6:	0000                	unimp
   24ff8:	2020                	fld	fs0,64(s0)
   24ffa:	742e                	ld	s0,232(sp)
   24ffc:	7865                	lui	a6,0xffff9
   24ffe:	2e74                	fld	fa3,216(a2)
   25000:	6f62                	ld	t5,24(sp)
   25002:	203a746f          	jal	s0,cca04 <_ebss+0xa57ec>
   25006:	7830                	ld	a2,112(s0)
   25008:	3025                	0x3025
   2500a:	6c38                	ld	a4,88(s0)
   2500c:	2078                	fld	fa4,192(s0)
   2500e:	202d                	0x202d
   25010:	7830                	ld	a2,112(s0)
   25012:	3025                	0x3025
   25014:	6c38                	ld	a4,88(s0)
   25016:	2078                	fld	fa4,192(s0)
   25018:	2528                	fld	fa0,72(a0)
   2501a:	6c36                	ld	s8,328(sp)
   2501c:	2064                	fld	fs1,192(s0)
   2501e:	2942                	fld	fs2,16(sp)
   25020:	000a                	c.slli	zero,0x2
   25022:	0000                	unimp
   25024:	0000                	unimp
   25026:	0000                	unimp
   25028:	2020                	fld	fs0,64(s0)
   2502a:	2020                	fld	fs0,64(s0)
   2502c:	2020                	fld	fs0,64(s0)
   2502e:	2e20                	fld	fs0,88(a2)
   25030:	6574                	ld	a3,200(a0)
   25032:	7478                	ld	a4,232(s0)
   25034:	203a                	fld	ft0,392(sp)
   25036:	7830                	ld	a2,112(s0)
   25038:	3025                	0x3025
   2503a:	6c38                	ld	a4,88(s0)
   2503c:	2078                	fld	fa4,192(s0)
   2503e:	202d                	0x202d
   25040:	7830                	ld	a2,112(s0)
   25042:	3025                	0x3025
   25044:	6c38                	ld	a4,88(s0)
   25046:	2078                	fld	fa4,192(s0)
   25048:	2528                	fld	fa0,72(a0)
   2504a:	6c36                	ld	s8,328(sp)
   2504c:	2064                	fld	fs1,192(s0)
   2504e:	2942                	fld	fs2,16(sp)
   25050:	000a                	c.slli	zero,0x2
   25052:	0000                	unimp
   25054:	0000                	unimp
   25056:	0000                	unimp
   25058:	2020                	fld	fs0,64(s0)
   2505a:	2020                	fld	fs0,64(s0)
   2505c:	2e20                	fld	fs0,88(a2)
   2505e:	6f72                	ld	t5,280(sp)
   25060:	6164                	ld	s1,192(a0)
   25062:	6174                	ld	a3,192(a0)
   25064:	203a                	fld	ft0,392(sp)
   25066:	7830                	ld	a2,112(s0)
   25068:	3025                	0x3025
   2506a:	6c38                	ld	a4,88(s0)
   2506c:	2078                	fld	fa4,192(s0)
   2506e:	202d                	0x202d
   25070:	7830                	ld	a2,112(s0)
   25072:	3025                	0x3025
   25074:	6c38                	ld	a4,88(s0)
   25076:	2078                	fld	fa4,192(s0)
   25078:	2528                	fld	fa0,72(a0)
   2507a:	6c36                	ld	s8,328(sp)
   2507c:	2064                	fld	fs1,192(s0)
   2507e:	2942                	fld	fs2,16(sp)
   25080:	000a                	c.slli	zero,0x2
   25082:	0000                	unimp
   25084:	0000                	unimp
   25086:	0000                	unimp
   25088:	2020                	fld	fs0,64(s0)
   2508a:	2020                	fld	fs0,64(s0)
   2508c:	2020                	fld	fs0,64(s0)
   2508e:	2e20                	fld	fs0,88(a2)
   25090:	6164                	ld	s1,192(a0)
   25092:	6174                	ld	a3,192(a0)
   25094:	203a                	fld	ft0,392(sp)
   25096:	7830                	ld	a2,112(s0)
   25098:	3025                	0x3025
   2509a:	6c38                	ld	a4,88(s0)
   2509c:	2078                	fld	fa4,192(s0)
   2509e:	202d                	0x202d
   250a0:	7830                	ld	a2,112(s0)
   250a2:	3025                	0x3025
   250a4:	6c38                	ld	a4,88(s0)
   250a6:	2078                	fld	fa4,192(s0)
   250a8:	2528                	fld	fa0,72(a0)
   250aa:	6c36                	ld	s8,328(sp)
   250ac:	2064                	fld	fs1,192(s0)
   250ae:	2942                	fld	fs2,16(sp)
   250b0:	000a                	c.slli	zero,0x2
   250b2:	0000                	unimp
   250b4:	0000                	unimp
   250b6:	0000                	unimp
   250b8:	2020                	fld	fs0,64(s0)
   250ba:	2020                	fld	fs0,64(s0)
   250bc:	2020                	fld	fs0,64(s0)
   250be:	2020                	fld	fs0,64(s0)
   250c0:	622e                	ld	tp,200(sp)
   250c2:	203a7373          	csrrci	t1,0x203,20
   250c6:	7830                	ld	a2,112(s0)
   250c8:	3025                	0x3025
   250ca:	6c38                	ld	a4,88(s0)
   250cc:	2078                	fld	fa4,192(s0)
   250ce:	202d                	0x202d
   250d0:	7830                	ld	a2,112(s0)
   250d2:	3025                	0x3025
   250d4:	6c38                	ld	a4,88(s0)
   250d6:	2078                	fld	fa4,192(s0)
   250d8:	2528                	fld	fa0,72(a0)
   250da:	6c36                	ld	s8,328(sp)
   250dc:	2064                	fld	fs1,192(s0)
   250de:	2942                	fld	fs2,16(sp)
   250e0:	000a                	c.slli	zero,0x2
   250e2:	0000                	unimp
   250e4:	0000                	unimp
   250e6:	0000                	unimp
   250e8:	636c6557          	0x636c6557
   250ec:	20656d6f          	jal	s10,7b2f2 <_ebss+0x540da>
   250f0:	4952                	lw	s2,20(sp)
   250f2:	562d4353          	0x562d4353
   250f6:	0d21                	addi	s10,s10,8
   250f8:	000a                	c.slli	zero,0x2
   250fa:	0000                	unimp
   250fc:	0000                	unimp
   250fe:	0000                	unimp
   25100:	7270                	ld	a2,224(a2)
   25102:	6e69                	lui	t3,0x1a
   25104:	6b74                	ld	a3,208(a4)
   25106:	6920                	ld	s0,80(a0)
   25108:	696e                	ld	s2,216(sp)
   2510a:	2074                	fld	fa3,192(s0)
   2510c:	6f64                	ld	s1,216(a4)
   2510e:	656e                	ld	a0,216(sp)
   25110:	000a                	c.slli	zero,0x2
   25112:	0000                	unimp
   25114:	0000                	unimp
	...

0000000000025118 <__func__.0>:
   25118:	6574                	ld	a3,200(a0)
   2511a:	615f7473          	csrrci	s0,0x615,30
   2511e:	675f6d73          	csrrsi	s10,0x675,30
   25122:	006f746f          	jal	s0,11c128 <_ebss+0xf4f10>
   25126:	0000                	unimp
   25128:	3130                	fld	fa2,96(a0)
   2512a:	3332                	fld	ft6,296(sp)
   2512c:	3534                	fld	fa3,104(a0)
   2512e:	3736                	fld	fa4,360(sp)
   25130:	3938                	fld	fa4,112(a0)
   25132:	4241                	li	tp,16
   25134:	46454443          	fmadd.q	fs0,fa0,ft4,fs0,rmm
   25138:	4a494847          	fmsub.d	fa6,fs2,ft4,fs1,rmm
   2513c:	4e4d4c4b          	fnmsub.q	fs8,fs10,ft4,fs1,rmm
   25140:	5251504f          	fnmadd.d	ft0,ft2,ft5,fa0,unknown
   25144:	56555453          	0x56555453
   25148:	5a595857          	0x5a595857
   2514c:	0000                	unimp
   2514e:	0000                	unimp
   25150:	3130                	fld	fa2,96(a0)
   25152:	3332                	fld	ft6,296(sp)
   25154:	3534                	fld	fa3,104(a0)
   25156:	3736                	fld	fa4,360(sp)
   25158:	3938                	fld	fa4,112(a0)
   2515a:	6261                	lui	tp,0x18
   2515c:	66656463          	bltu	a0,t1,257c4 <_data+0x569>
   25160:	6a696867          	0x6a696867
   25164:	6e6d6c6b          	0x6e6d6c6b
   25168:	7271706f          	j	3d08e <_ebss+0x15e76>
   2516c:	76757473          	csrrci	s0,0x767,10
   25170:	7a797877          	0x7a797877
   25174:	0000                	unimp
   25176:	0000                	unimp
   25178:	4e3c                	lw	a5,88(a2)
   2517a:	4c55                	li	s8,21
   2517c:	3e4c                	fld	fa1,184(a2)
   2517e:	0000                	unimp
   25180:	de9c                	sw	a5,56(a3)
   25182:	deccffff          	0xdeccffff
   25186:	deccffff          	0xdeccffff
   2518a:	deacffff          	0xdeacffff
   2518e:	deccffff          	0xdeccffff
   25192:	deccffff          	0xdeccffff
   25196:	deccffff          	0xdeccffff
   2519a:	deccffff          	0xdeccffff
   2519e:	deccffff          	0xdeccffff
   251a2:	deccffff          	0xdeccffff
   251a6:	deccffff          	0xdeccffff
   251aa:	de8cffff          	0xde8cffff
   251ae:	deccffff          	0xdeccffff
   251b2:	de7cffff          	0xde7cffff
   251b6:	deccffff          	0xdeccffff
   251ba:	deccffff          	0xdeccffff
   251be:	debcffff          	0xdebcffff
   251c2:	e2f8ffff          	0xe2f8ffff
   251c6:	e31cffff          	0xe31cffff
   251ca:	e31cffff          	0xe31cffff
   251ce:	e31cffff          	0xe31cffff
   251d2:	e31cffff          	0xe31cffff
   251d6:	e31cffff          	0xe31cffff
   251da:	e31cffff          	0xe31cffff
   251de:	e31cffff          	0xe31cffff
   251e2:	e31cffff          	0xe31cffff
   251e6:	e31cffff          	0xe31cffff
   251ea:	e31cffff          	0xe31cffff
   251ee:	e098ffff          	0xe098ffff
   251f2:	e304ffff          	0xe304ffff
   251f6:	e31cffff          	0xe31cffff
   251fa:	e31cffff          	0xe31cffff
   251fe:	e31cffff          	0xe31cffff
   25202:	e31cffff          	0xe31cffff
   25206:	e304ffff          	0xe304ffff
   2520a:	e31cffff          	0xe31cffff
   2520e:	e31cffff          	0xe31cffff
   25212:	e31cffff          	0xe31cffff
   25216:	e31cffff          	0xe31cffff
   2521a:	e258ffff          	0xe258ffff
   2521e:	e2e0ffff          	0xe2e0ffff
   25222:	e288ffff          	0xe288ffff
   25226:	e31cffff          	0xe31cffff
   2522a:	e31cffff          	0xe31cffff
   2522e:	e130ffff          	0xe130ffff
   25232:	e31cffff          	0xe31cffff
   25236:	e310ffff          	0xe310ffff
   2523a:	e31cffff          	0xe31cffff
   2523e:	e31cffff          	0xe31cffff
   25242:	e2ecffff          	0xe2ecffff
   25246:	          	0xa0dffff

0000000000025248 <boot_string>:
   25248:	0a0d                	addi	s4,s4,3
   2524a:	6f42                	ld	t5,16(sp)
   2524c:	6e69746f          	jal	s0,bc932 <_ebss+0x9571a>
   25250:	74612067          	0x74612067
   25254:	6120                	ld	s0,64(a0)
   25256:	0a0d6d73          	csrrsi	s10,0xa0,26
	...

Disassembly of section .data:

0000000000026000 <stacks_start>:
	...

Disassembly of section .sdata:

0000000000027000 <g_record>:
   27000:	7108                	ld	a0,32(a0)
   27002:	0002                	c.slli64	zero
   27004:	0000                	unimp
	...

Disassembly of section .bss:

0000000000027008 <print_buf>:
	...

0000000000027108 <log_buf>:
	...

0000000000027208 <g_printk_status>:
	...

0000000000027210 <g_record_len>:
	...

