
mysbi.elf:     file format elf64-littleriscv


Disassembly of section .text.boot:

0000000000020000 <_start>:
   20000:	0300006f          	j	20030 <reset>
   20004:	4765                	li	a4,25
   20006:	422e4e4f          	fnmadd.d	ft8,ft8,ft2,fs0,rmm
   2000a:	3054                	fld	fa3,160(s0)
   2000c:	5678                	lw	a4,108(a2)
   2000e:	1234                	addi	a3,sp,296
   20010:	7000                	ld	s0,32(s0)
   20012:	0000                	unimp
   20014:	0030                	addi	a2,sp,8
   20016:	0000                	unimp
   20018:	30303033          	0x30303033
   2001c:	0000                	unimp
   2001e:	0002                	c.slli64	zero
   20020:	0000                	unimp
   20022:	0002                	c.slli64	zero
	...
   2002c:	2e34                	fld	fa3,88(a2)
   2002e:	0030                	addi	a2,sp,8

0000000000020030 <reset>:
   20030:	00006117          	auipc	sp,0x6
   20034:	fd010113          	addi	sp,sp,-48 # 26000 <stacks_start>
   20038:	000012b7          	lui	t0,0x1
   2003c:	00510133          	add	sp,sp,t0
   20040:	4a00006f          	j	204e0 <sbi_main>

Disassembly of section .text:

0000000000020044 <read_csr_num>:
   20044:	fd010113          	addi	sp,sp,-48
   20048:	02813423          	sd	s0,40(sp)
   2004c:	02913023          	sd	s1,32(sp)
   20050:	03010413          	addi	s0,sp,48
   20054:	00050793          	mv	a5,a0
   20058:	fcf42e23          	sw	a5,-36(s0)
   2005c:	fe043423          	sd	zero,-24(s0)
   20060:	fdc42783          	lw	a5,-36(s0)
   20064:	c607869b          	addiw	a3,a5,-928
   20068:	0006871b          	sext.w	a4,a3
   2006c:	01700793          	li	a5,23
   20070:	0ee7e463          	bltu	a5,a4,20158 <read_csr_num+0x114>
   20074:	02069793          	slli	a5,a3,0x20
   20078:	0207d793          	srli	a5,a5,0x20
   2007c:	00279713          	slli	a4,a5,0x2
   20080:	00005797          	auipc	a5,0x5
   20084:	54078793          	addi	a5,a5,1344 # 255c0 <payload_bin+0x5008>
   20088:	00f707b3          	add	a5,a4,a5
   2008c:	0007a783          	lw	a5,0(a5)
   20090:	0007871b          	sext.w	a4,a5
   20094:	00005797          	auipc	a5,0x5
   20098:	52c78793          	addi	a5,a5,1324 # 255c0 <payload_bin+0x5008>
   2009c:	00f707b3          	add	a5,a4,a5
   200a0:	00078067          	jr	a5
   200a4:	3a0027f3          	csrr	a5,pmpcfg0
   200a8:	00078493          	mv	s1,a5
   200ac:	00048793          	mv	a5,s1
   200b0:	fef43423          	sd	a5,-24(s0)
   200b4:	0a80006f          	j	2015c <read_csr_num+0x118>
   200b8:	3b0027f3          	csrr	a5,pmpaddr0
   200bc:	00078493          	mv	s1,a5
   200c0:	00048793          	mv	a5,s1
   200c4:	fef43423          	sd	a5,-24(s0)
   200c8:	0940006f          	j	2015c <read_csr_num+0x118>
   200cc:	3b1027f3          	csrr	a5,pmpaddr1
   200d0:	00078493          	mv	s1,a5
   200d4:	00048793          	mv	a5,s1
   200d8:	fef43423          	sd	a5,-24(s0)
   200dc:	0800006f          	j	2015c <read_csr_num+0x118>
   200e0:	3b2027f3          	csrr	a5,pmpaddr2
   200e4:	00078493          	mv	s1,a5
   200e8:	00048793          	mv	a5,s1
   200ec:	fef43423          	sd	a5,-24(s0)
   200f0:	06c0006f          	j	2015c <read_csr_num+0x118>
   200f4:	3b3027f3          	csrr	a5,pmpaddr3
   200f8:	00078493          	mv	s1,a5
   200fc:	00048793          	mv	a5,s1
   20100:	fef43423          	sd	a5,-24(s0)
   20104:	0580006f          	j	2015c <read_csr_num+0x118>
   20108:	3b4027f3          	csrr	a5,pmpaddr4
   2010c:	00078493          	mv	s1,a5
   20110:	00048793          	mv	a5,s1
   20114:	fef43423          	sd	a5,-24(s0)
   20118:	0440006f          	j	2015c <read_csr_num+0x118>
   2011c:	3b5027f3          	csrr	a5,pmpaddr5
   20120:	00078493          	mv	s1,a5
   20124:	00048793          	mv	a5,s1
   20128:	fef43423          	sd	a5,-24(s0)
   2012c:	0300006f          	j	2015c <read_csr_num+0x118>
   20130:	3b6027f3          	csrr	a5,pmpaddr6
   20134:	00078493          	mv	s1,a5
   20138:	00048793          	mv	a5,s1
   2013c:	fef43423          	sd	a5,-24(s0)
   20140:	01c0006f          	j	2015c <read_csr_num+0x118>
   20144:	3b7027f3          	csrr	a5,pmpaddr7
   20148:	00078493          	mv	s1,a5
   2014c:	00048793          	mv	a5,s1
   20150:	fef43423          	sd	a5,-24(s0)
   20154:	0080006f          	j	2015c <read_csr_num+0x118>
   20158:	00000013          	nop
   2015c:	fe843783          	ld	a5,-24(s0)
   20160:	00078513          	mv	a0,a5
   20164:	02813403          	ld	s0,40(sp)
   20168:	02013483          	ld	s1,32(sp)
   2016c:	03010113          	addi	sp,sp,48
   20170:	00008067          	ret

0000000000020174 <write_csr_num>:
   20174:	f9010113          	addi	sp,sp,-112
   20178:	06813423          	sd	s0,104(sp)
   2017c:	07010413          	addi	s0,sp,112
   20180:	00050793          	mv	a5,a0
   20184:	f8b43823          	sd	a1,-112(s0)
   20188:	f8f42e23          	sw	a5,-100(s0)
   2018c:	f9c42783          	lw	a5,-100(s0)
   20190:	c607869b          	addiw	a3,a5,-928
   20194:	0006871b          	sext.w	a4,a3
   20198:	01700793          	li	a5,23
   2019c:	0ee7e463          	bltu	a5,a4,20284 <write_csr_num+0x110>
   201a0:	02069793          	slli	a5,a3,0x20
   201a4:	0207d793          	srli	a5,a5,0x20
   201a8:	00279713          	slli	a4,a5,0x2
   201ac:	00005797          	auipc	a5,0x5
   201b0:	47478793          	addi	a5,a5,1140 # 25620 <payload_bin+0x5068>
   201b4:	00f707b3          	add	a5,a4,a5
   201b8:	0007a783          	lw	a5,0(a5)
   201bc:	0007871b          	sext.w	a4,a5
   201c0:	00005797          	auipc	a5,0x5
   201c4:	46078793          	addi	a5,a5,1120 # 25620 <payload_bin+0x5068>
   201c8:	00f707b3          	add	a5,a4,a5
   201cc:	00078067          	jr	a5
   201d0:	f9043783          	ld	a5,-112(s0)
   201d4:	faf43423          	sd	a5,-88(s0)
   201d8:	fa843783          	ld	a5,-88(s0)
   201dc:	3a079073          	csrw	pmpcfg0,a5
   201e0:	0a80006f          	j	20288 <write_csr_num+0x114>
   201e4:	f9043783          	ld	a5,-112(s0)
   201e8:	faf43823          	sd	a5,-80(s0)
   201ec:	fb043783          	ld	a5,-80(s0)
   201f0:	3b079073          	csrw	pmpaddr0,a5
   201f4:	0940006f          	j	20288 <write_csr_num+0x114>
   201f8:	f9043783          	ld	a5,-112(s0)
   201fc:	faf43c23          	sd	a5,-72(s0)
   20200:	fb843783          	ld	a5,-72(s0)
   20204:	3b179073          	csrw	pmpaddr1,a5
   20208:	0800006f          	j	20288 <write_csr_num+0x114>
   2020c:	f9043783          	ld	a5,-112(s0)
   20210:	fcf43023          	sd	a5,-64(s0)
   20214:	fc043783          	ld	a5,-64(s0)
   20218:	3b279073          	csrw	pmpaddr2,a5
   2021c:	06c0006f          	j	20288 <write_csr_num+0x114>
   20220:	f9043783          	ld	a5,-112(s0)
   20224:	fcf43423          	sd	a5,-56(s0)
   20228:	fc843783          	ld	a5,-56(s0)
   2022c:	3b379073          	csrw	pmpaddr3,a5
   20230:	0580006f          	j	20288 <write_csr_num+0x114>
   20234:	f9043783          	ld	a5,-112(s0)
   20238:	fcf43823          	sd	a5,-48(s0)
   2023c:	fd043783          	ld	a5,-48(s0)
   20240:	3b479073          	csrw	pmpaddr4,a5
   20244:	0440006f          	j	20288 <write_csr_num+0x114>
   20248:	f9043783          	ld	a5,-112(s0)
   2024c:	fcf43c23          	sd	a5,-40(s0)
   20250:	fd843783          	ld	a5,-40(s0)
   20254:	3b579073          	csrw	pmpaddr5,a5
   20258:	0300006f          	j	20288 <write_csr_num+0x114>
   2025c:	f9043783          	ld	a5,-112(s0)
   20260:	fef43023          	sd	a5,-32(s0)
   20264:	fe043783          	ld	a5,-32(s0)
   20268:	3b679073          	csrw	pmpaddr6,a5
   2026c:	01c0006f          	j	20288 <write_csr_num+0x114>
   20270:	f9043783          	ld	a5,-112(s0)
   20274:	fef43423          	sd	a5,-24(s0)
   20278:	fe843783          	ld	a5,-24(s0)
   2027c:	3b779073          	csrw	pmpaddr7,a5
   20280:	0080006f          	j	20288 <write_csr_num+0x114>
   20284:	00000013          	nop
   20288:	00000013          	nop
   2028c:	06813403          	ld	s0,104(sp)
   20290:	07010113          	addi	sp,sp,112
   20294:	00008067          	ret

0000000000020298 <log2roundup>:
   20298:	fd010113          	addi	sp,sp,-48
   2029c:	02813423          	sd	s0,40(sp)
   202a0:	03010413          	addi	s0,sp,48
   202a4:	fca43c23          	sd	a0,-40(s0)
   202a8:	fe043423          	sd	zero,-24(s0)
   202ac:	02c0006f          	j	202d8 <log2roundup+0x40>
   202b0:	fe843783          	ld	a5,-24(s0)
   202b4:	0007879b          	sext.w	a5,a5
   202b8:	00078713          	mv	a4,a5
   202bc:	00100793          	li	a5,1
   202c0:	00e797b3          	sll	a5,a5,a4
   202c4:	fd843703          	ld	a4,-40(s0)
   202c8:	02e7f063          	bgeu	a5,a4,202e8 <log2roundup+0x50>
   202cc:	fe843783          	ld	a5,-24(s0)
   202d0:	00178793          	addi	a5,a5,1
   202d4:	fef43423          	sd	a5,-24(s0)
   202d8:	fe843703          	ld	a4,-24(s0)
   202dc:	03f00793          	li	a5,63
   202e0:	fce7f8e3          	bgeu	a5,a4,202b0 <log2roundup+0x18>
   202e4:	0080006f          	j	202ec <log2roundup+0x54>
   202e8:	00000013          	nop
   202ec:	fe843783          	ld	a5,-24(s0)
   202f0:	00078513          	mv	a0,a5
   202f4:	02813403          	ld	s0,40(sp)
   202f8:	03010113          	addi	sp,sp,48
   202fc:	00008067          	ret

0000000000020300 <sbi_set_pmp>:
   20300:	fa010113          	addi	sp,sp,-96
   20304:	04113c23          	sd	ra,88(sp)
   20308:	04813823          	sd	s0,80(sp)
   2030c:	06010413          	addi	s0,sp,96
   20310:	00050793          	mv	a5,a0
   20314:	fab43823          	sd	a1,-80(s0)
   20318:	fac43423          	sd	a2,-88(s0)
   2031c:	fad43023          	sd	a3,-96(s0)
   20320:	faf42e23          	sw	a5,-68(s0)
   20324:	fbc42783          	lw	a5,-68(s0)
   20328:	0007871b          	sext.w	a4,a5
   2032c:	00800793          	li	a5,8
   20330:	00e7d663          	bge	a5,a4,2033c <sbi_set_pmp+0x3c>
   20334:	fff00793          	li	a5,-1
   20338:	1940006f          	j	204cc <sbi_set_pmp+0x1cc>
   2033c:	fa843503          	ld	a0,-88(s0)
   20340:	f59ff0ef          	jal	ra,20298 <log2roundup>
   20344:	00050793          	mv	a5,a0
   20348:	fef42223          	sw	a5,-28(s0)
   2034c:	fe442783          	lw	a5,-28(s0)
   20350:	0007871b          	sext.w	a4,a5
   20354:	00100793          	li	a5,1
   20358:	00e7c663          	blt	a5,a4,20364 <sbi_set_pmp+0x64>
   2035c:	fff00793          	li	a5,-1
   20360:	16c0006f          	j	204cc <sbi_set_pmp+0x1cc>
   20364:	fb043783          	ld	a5,-80(s0)
   20368:	0027d793          	srli	a5,a5,0x2
   2036c:	fef43423          	sd	a5,-24(s0)
   20370:	fbc42783          	lw	a5,-68(s0)
   20374:	4027d79b          	sraiw	a5,a5,0x2
   20378:	0007879b          	sext.w	a5,a5
   2037c:	3a07879b          	addiw	a5,a5,928
   20380:	0007879b          	sext.w	a5,a5
   20384:	ffe7f793          	andi	a5,a5,-2
   20388:	fef42023          	sw	a5,-32(s0)
   2038c:	fbc42783          	lw	a5,-68(s0)
   20390:	0037979b          	slliw	a5,a5,0x3
   20394:	0007879b          	sext.w	a5,a5
   20398:	0387f793          	andi	a5,a5,56
   2039c:	fcf42e23          	sw	a5,-36(s0)
   203a0:	fbc42783          	lw	a5,-68(s0)
   203a4:	3b07879b          	addiw	a5,a5,944
   203a8:	fcf42c23          	sw	a5,-40(s0)
   203ac:	fa043783          	ld	a5,-96(s0)
   203b0:	fe77f793          	andi	a5,a5,-25
   203b4:	faf43023          	sd	a5,-96(s0)
   203b8:	fe442783          	lw	a5,-28(s0)
   203bc:	0007871b          	sext.w	a4,a5
   203c0:	00200793          	li	a5,2
   203c4:	00f71663          	bne	a4,a5,203d0 <sbi_set_pmp+0xd0>
   203c8:	01000793          	li	a5,16
   203cc:	0080006f          	j	203d4 <sbi_set_pmp+0xd4>
   203d0:	01800793          	li	a5,24
   203d4:	fa043703          	ld	a4,-96(s0)
   203d8:	00f767b3          	or	a5,a4,a5
   203dc:	faf43023          	sd	a5,-96(s0)
   203e0:	fdc42783          	lw	a5,-36(s0)
   203e4:	0ff00713          	li	a4,255
   203e8:	00f717b3          	sll	a5,a4,a5
   203ec:	fff7c793          	not	a5,a5
   203f0:	fcf43823          	sd	a5,-48(s0)
   203f4:	fe042783          	lw	a5,-32(s0)
   203f8:	00078513          	mv	a0,a5
   203fc:	c49ff0ef          	jal	ra,20044 <read_csr_num>
   20400:	00050713          	mv	a4,a0
   20404:	fd043783          	ld	a5,-48(s0)
   20408:	00e7f7b3          	and	a5,a5,a4
   2040c:	fcf43423          	sd	a5,-56(s0)
   20410:	fdc42783          	lw	a5,-36(s0)
   20414:	fa043703          	ld	a4,-96(s0)
   20418:	00f71733          	sll	a4,a4,a5
   2041c:	fd043783          	ld	a5,-48(s0)
   20420:	fff7c793          	not	a5,a5
   20424:	00f777b3          	and	a5,a4,a5
   20428:	fc843703          	ld	a4,-56(s0)
   2042c:	00f767b3          	or	a5,a4,a5
   20430:	fcf43423          	sd	a5,-56(s0)
   20434:	fe442783          	lw	a5,-28(s0)
   20438:	0007871b          	sext.w	a4,a5
   2043c:	00200793          	li	a5,2
   20440:	06e7d463          	bge	a5,a4,204a8 <sbi_set_pmp+0x1a8>
   20444:	fe442783          	lw	a5,-28(s0)
   20448:	0007871b          	sext.w	a4,a5
   2044c:	04000793          	li	a5,64
   20450:	00f71863          	bne	a4,a5,20460 <sbi_set_pmp+0x160>
   20454:	fff00793          	li	a5,-1
   20458:	fef43423          	sd	a5,-24(s0)
   2045c:	04c0006f          	j	204a8 <sbi_set_pmp+0x1a8>
   20460:	fe442783          	lw	a5,-28(s0)
   20464:	ffe7879b          	addiw	a5,a5,-2
   20468:	0007879b          	sext.w	a5,a5
   2046c:	00078713          	mv	a4,a5
   20470:	00100793          	li	a5,1
   20474:	00e797b3          	sll	a5,a5,a4
   20478:	fff78793          	addi	a5,a5,-1
   2047c:	fcf43023          	sd	a5,-64(s0)
   20480:	fc043783          	ld	a5,-64(s0)
   20484:	fff7c793          	not	a5,a5
   20488:	fe843703          	ld	a4,-24(s0)
   2048c:	00f777b3          	and	a5,a4,a5
   20490:	fef43423          	sd	a5,-24(s0)
   20494:	fc043783          	ld	a5,-64(s0)
   20498:	0017d793          	srli	a5,a5,0x1
   2049c:	fe843703          	ld	a4,-24(s0)
   204a0:	00f767b3          	or	a5,a4,a5
   204a4:	fef43423          	sd	a5,-24(s0)
   204a8:	fd842783          	lw	a5,-40(s0)
   204ac:	fe843583          	ld	a1,-24(s0)
   204b0:	00078513          	mv	a0,a5
   204b4:	cc1ff0ef          	jal	ra,20174 <write_csr_num>
   204b8:	fe042783          	lw	a5,-32(s0)
   204bc:	fc843583          	ld	a1,-56(s0)
   204c0:	00078513          	mv	a0,a5
   204c4:	cb1ff0ef          	jal	ra,20174 <write_csr_num>
   204c8:	00000793          	li	a5,0
   204cc:	00078513          	mv	a0,a5
   204d0:	05813083          	ld	ra,88(sp)
   204d4:	05013403          	ld	s0,80(sp)
   204d8:	06010113          	addi	sp,sp,96
   204dc:	00008067          	ret

00000000000204e0 <sbi_main>:
   204e0:	fa010113          	addi	sp,sp,-96
   204e4:	04113c23          	sd	ra,88(sp)
   204e8:	04813823          	sd	s0,80(sp)
   204ec:	04913423          	sd	s1,72(sp)
   204f0:	06010413          	addi	s0,sp,96
   204f4:	00700693          	li	a3,7
   204f8:	fff00613          	li	a2,-1
   204fc:	00000593          	li	a1,0
   20500:	00000513          	li	a0,0
   20504:	dfdff0ef          	jal	ra,20300 <sbi_set_pmp>
   20508:	300027f3          	csrr	a5,mstatus
   2050c:	00078493          	mv	s1,a5
   20510:	00048793          	mv	a5,s1
   20514:	fcf43c23          	sd	a5,-40(s0)
   20518:	fd843703          	ld	a4,-40(s0)
   2051c:	ffffe7b7          	lui	a5,0xffffe
   20520:	7ff78793          	addi	a5,a5,2047 # ffffffffffffe7ff <bss_begin+0xfffffffffffd77ff>
   20524:	00f77733          	and	a4,a4,a5
   20528:	000017b7          	lui	a5,0x1
   2052c:	80078793          	addi	a5,a5,-2048 # 800 <__bin_size-0x6800>
   20530:	00f767b3          	or	a5,a4,a5
   20534:	fcf43c23          	sd	a5,-40(s0)
   20538:	fd843783          	ld	a5,-40(s0)
   2053c:	f7f7f793          	andi	a5,a5,-129
   20540:	fcf43c23          	sd	a5,-40(s0)
   20544:	fd843783          	ld	a5,-40(s0)
   20548:	fcf43823          	sd	a5,-48(s0)
   2054c:	fd043783          	ld	a5,-48(s0)
   20550:	30079073          	csrw	mstatus,a5
   20554:	000227b7          	lui	a5,0x22
   20558:	fcf43423          	sd	a5,-56(s0)
   2055c:	fc843783          	ld	a5,-56(s0)
   20560:	34179073          	csrw	mepc,a5
   20564:	000207b7          	lui	a5,0x20
   20568:	fcf43023          	sd	a5,-64(s0)
   2056c:	fc043783          	ld	a5,-64(s0)
   20570:	30579073          	csrw	mtvec,a5
   20574:	000227b7          	lui	a5,0x22
   20578:	faf43c23          	sd	a5,-72(s0)
   2057c:	fb843783          	ld	a5,-72(s0)
   20580:	10579073          	csrw	stvec,a5
   20584:	fa043823          	sd	zero,-80(s0)
   20588:	fb043783          	ld	a5,-80(s0)
   2058c:	10479073          	csrw	sie,a5
   20590:	fa043423          	sd	zero,-88(s0)
   20594:	fa843783          	ld	a5,-88(s0)
   20598:	18079073          	csrw	satp,a5
   2059c:	30200073          	mret
   205a0:	00000013          	nop
   205a4:	05813083          	ld	ra,88(sp)
   205a8:	05013403          	ld	s0,80(sp)
   205ac:	04813483          	ld	s1,72(sp)
   205b0:	06010113          	addi	sp,sp,96
   205b4:	00008067          	ret

Disassembly of section .payload:

00000000000205b8 <payload_bin>:
   205b8:	10401073          	csrw	sie,zero
   205bc:	5bd020ef          	jal	ra,23378 <payload_bin+0x2dc0>
   205c0:	00000097          	auipc	ra,0x0
   205c4:	01c080e7          	jalr	28(ra) # 205dc <payload_bin+0x24>
   205c8:	00004117          	auipc	sp,0x4
   205cc:	ff010113          	addi	sp,sp,-16 # 245b8 <payload_bin+0x4000>
   205d0:	000012b7          	lui	t0,0x1
   205d4:	00510133          	add	sp,sp,t0
   205d8:	77c0006f          	j	20d54 <payload_bin+0x79c>
   205dc:	00008493          	mv	s1,ra
   205e0:	00003517          	auipc	a0,0x3
   205e4:	22050513          	addi	a0,a0,544 # 23800 <payload_bin+0x3248>
   205e8:	651020ef          	jal	ra,23438 <payload_bin+0x2e80>
   205ec:	00048093          	mv	ra,s1
   205f0:	00008067          	ret
   205f4:	0000                	unimp
   205f6:	0000                	unimp
   205f8:	fc010113          	addi	sp,sp,-64
   205fc:	02113c23          	sd	ra,56(sp)
   20600:	02813823          	sd	s0,48(sp)
   20604:	04010413          	addi	s0,sp,64
   20608:	fca43423          	sd	a0,-56(s0)
   2060c:	fe042623          	sw	zero,-20(s0)
   20610:	0300006f          	j	20640 <payload_bin+0x88>
   20614:	00003717          	auipc	a4,0x3
   20618:	cc470713          	addi	a4,a4,-828 # 232d8 <payload_bin+0x2d20>
   2061c:	fec42783          	lw	a5,-20(s0)
   20620:	00379793          	slli	a5,a5,0x3
   20624:	00f707b3          	add	a5,a4,a5
   20628:	0007b783          	ld	a5,0(a5) # 22000 <payload_bin+0x1a48>
   2062c:	fc843703          	ld	a4,-56(s0)
   20630:	02f70663          	beq	a4,a5,2065c <payload_bin+0xa4>
   20634:	fec42783          	lw	a5,-20(s0)
   20638:	0017879b          	addiw	a5,a5,1
   2063c:	fef42623          	sw	a5,-20(s0)
   20640:	fec42703          	lw	a4,-20(s0)
   20644:	00003797          	auipc	a5,0x3
   20648:	cc478793          	addi	a5,a5,-828 # 23308 <payload_bin+0x2d50>
   2064c:	0007b783          	ld	a5,0(a5)
   20650:	fcf762e3          	bltu	a4,a5,20614 <payload_bin+0x5c>
   20654:	00000793          	li	a5,0
   20658:	0880006f          	j	206e0 <payload_bin+0x128>
   2065c:	00000013          	nop
   20660:	00003797          	auipc	a5,0x3
   20664:	c9078793          	addi	a5,a5,-880 # 232f0 <payload_bin+0x2d38>
   20668:	fef43023          	sd	a5,-32(s0)
   2066c:	fec42783          	lw	a5,-20(s0)
   20670:	0007879b          	sext.w	a5,a5
   20674:	00079863          	bnez	a5,20684 <payload_bin+0xcc>
   20678:	fe043783          	ld	a5,-32(s0)
   2067c:	fcf43c23          	sd	a5,-40(s0)
   20680:	0480006f          	j	206c8 <payload_bin+0x110>
   20684:	fe043783          	ld	a5,-32(s0)
   20688:	00178793          	addi	a5,a5,1
   2068c:	fef43023          	sd	a5,-32(s0)
   20690:	fe043783          	ld	a5,-32(s0)
   20694:	0007c783          	lbu	a5,0(a5)
   20698:	00079863          	bnez	a5,206a8 <payload_bin+0xf0>
   2069c:	fec42783          	lw	a5,-20(s0)
   206a0:	fff7879b          	addiw	a5,a5,-1
   206a4:	fef42623          	sw	a5,-20(s0)
   206a8:	fec42783          	lw	a5,-20(s0)
   206ac:	0007879b          	sext.w	a5,a5
   206b0:	fc079ae3          	bnez	a5,20684 <payload_bin+0xcc>
   206b4:	fe043783          	ld	a5,-32(s0)
   206b8:	00178793          	addi	a5,a5,1
   206bc:	fef43023          	sd	a5,-32(s0)
   206c0:	fe043783          	ld	a5,-32(s0)
   206c4:	fcf43c23          	sd	a5,-40(s0)
   206c8:	fd843603          	ld	a2,-40(s0)
   206cc:	fc843583          	ld	a1,-56(s0)
   206d0:	00003517          	auipc	a0,0x3
   206d4:	da850513          	addi	a0,a0,-600 # 23478 <payload_bin+0x2ec0>
   206d8:	664010ef          	jal	ra,21d3c <payload_bin+0x1784>
   206dc:	00000793          	li	a5,0
   206e0:	00078513          	mv	a0,a5
   206e4:	03813083          	ld	ra,56(sp)
   206e8:	03013403          	ld	s0,48(sp)
   206ec:	04010113          	addi	sp,sp,64
   206f0:	00008067          	ret
   206f4:	fc010113          	addi	sp,sp,-64
   206f8:	02813c23          	sd	s0,56(sp)
   206fc:	04010413          	addi	s0,sp,64
   20700:	fca43c23          	sd	a0,-40(s0)
   20704:	fcb43823          	sd	a1,-48(s0)
   20708:	fcc43423          	sd	a2,-56(s0)
   2070c:	fe043423          	sd	zero,-24(s0)
   20710:	fd843703          	ld	a4,-40(s0)
   20714:	fc843783          	ld	a5,-56(s0)
   20718:	00f707b3          	add	a5,a4,a5
   2071c:	fef43023          	sd	a5,-32(s0)
   20720:	fe043603          	ld	a2,-32(s0)
   20724:	fd043683          	ld	a3,-48(s0)
   20728:	fe843703          	ld	a4,-24(s0)
   2072c:	fd843783          	ld	a5,-40(s0)
   20730:	0007b703          	ld	a4,0(a5)
   20734:	00e6b023          	sd	a4,0(a3)
   20738:	00868693          	addi	a3,a3,8
   2073c:	00878793          	addi	a5,a5,8
   20740:	fec7c8e3          	blt	a5,a2,20730 <payload_bin+0x178>
   20744:	fcd43823          	sd	a3,-48(s0)
   20748:	fee43423          	sd	a4,-24(s0)
   2074c:	fcf43c23          	sd	a5,-40(s0)
   20750:	00000013          	nop
   20754:	03813403          	ld	s0,56(sp)
   20758:	04010113          	addi	sp,sp,64
   2075c:	00008067          	ret
   20760:	fc010113          	addi	sp,sp,-64
   20764:	02813c23          	sd	s0,56(sp)
   20768:	04010413          	addi	s0,sp,64
   2076c:	fca43c23          	sd	a0,-40(s0)
   20770:	fcb43823          	sd	a1,-48(s0)
   20774:	fcc43423          	sd	a2,-56(s0)
   20778:	fe043423          	sd	zero,-24(s0)
   2077c:	fd843703          	ld	a4,-40(s0)
   20780:	fc843783          	ld	a5,-56(s0)
   20784:	00f707b3          	add	a5,a4,a5
   20788:	fef43023          	sd	a5,-32(s0)
   2078c:	fe043603          	ld	a2,-32(s0)
   20790:	fd043683          	ld	a3,-48(s0)
   20794:	fe843703          	ld	a4,-24(s0)
   20798:	fd843783          	ld	a5,-40(s0)
   2079c:	0007b703          	ld	a4,0(a5)
   207a0:	00e6b023          	sd	a4,0(a3)
   207a4:	00868693          	addi	a3,a3,8
   207a8:	00878793          	addi	a5,a5,8
   207ac:	fec7c8e3          	blt	a5,a2,2079c <payload_bin+0x1e4>
   207b0:	fcd43823          	sd	a3,-48(s0)
   207b4:	fee43423          	sd	a4,-24(s0)
   207b8:	fcf43c23          	sd	a5,-40(s0)
   207bc:	00000013          	nop
   207c0:	03813403          	ld	s0,56(sp)
   207c4:	04010113          	addi	sp,sp,64
   207c8:	00008067          	ret
   207cc:	fd010113          	addi	sp,sp,-48
   207d0:	02813423          	sd	s0,40(sp)
   207d4:	03010413          	addi	s0,sp,48
   207d8:	fca43c23          	sd	a0,-40(s0)
   207dc:	fcb43823          	sd	a1,-48(s0)
   207e0:	fe043423          	sd	zero,-24(s0)
   207e4:	fd843683          	ld	a3,-40(s0)
   207e8:	fd043703          	ld	a4,-48(s0)
   207ec:	fe843783          	ld	a5,-24(s0)
   207f0:	00073783          	ld	a5,0(a4)
   207f4:	00d7e7b3          	or	a5,a5,a3
   207f8:	00f73023          	sd	a5,0(a4)
   207fc:	fce43823          	sd	a4,-48(s0)
   20800:	fef43423          	sd	a5,-24(s0)
   20804:	00000013          	nop
   20808:	02813403          	ld	s0,40(sp)
   2080c:	03010113          	addi	sp,sp,48
   20810:	00008067          	ret
   20814:	fd010113          	addi	sp,sp,-48
   20818:	02813423          	sd	s0,40(sp)
   2081c:	03010413          	addi	s0,sp,48
   20820:	fca43c23          	sd	a0,-40(s0)
   20824:	fcb43823          	sd	a1,-48(s0)
   20828:	fe043423          	sd	zero,-24(s0)
   2082c:	fd843683          	ld	a3,-40(s0)
   20830:	fd043703          	ld	a4,-48(s0)
   20834:	fe843783          	ld	a5,-24(s0)
   20838:	00073783          	ld	a5,0(a4)
   2083c:	00d7f7b3          	and	a5,a5,a3
   20840:	00f73023          	sd	a5,0(a4)
   20844:	fce43823          	sd	a4,-48(s0)
   20848:	fef43423          	sd	a5,-24(s0)
   2084c:	00000013          	nop
   20850:	02813403          	ld	s0,40(sp)
   20854:	03010113          	addi	sp,sp,48
   20858:	00008067          	ret
   2085c:	fd010113          	addi	sp,sp,-48
   20860:	02813423          	sd	s0,40(sp)
   20864:	03010413          	addi	s0,sp,48
   20868:	fca43c23          	sd	a0,-40(s0)
   2086c:	fcb43823          	sd	a1,-48(s0)
   20870:	fe043423          	sd	zero,-24(s0)
   20874:	fd843683          	ld	a3,-40(s0)
   20878:	fd043703          	ld	a4,-48(s0)
   2087c:	fe843783          	ld	a5,-24(s0)
   20880:	00073783          	ld	a5,0(a4)
   20884:	00d787b3          	add	a5,a5,a3
   20888:	00f73023          	sd	a5,0(a4)
   2088c:	fce43823          	sd	a4,-48(s0)
   20890:	fef43423          	sd	a5,-24(s0)
   20894:	00000013          	nop
   20898:	02813403          	ld	s0,40(sp)
   2089c:	03010113          	addi	sp,sp,48
   208a0:	00008067          	ret
   208a4:	fe010113          	addi	sp,sp,-32
   208a8:	00113c23          	sd	ra,24(sp)
   208ac:	00813823          	sd	s0,16(sp)
   208b0:	02010413          	addi	s0,sp,32
   208b4:	00f00793          	li	a5,15
   208b8:	fef43423          	sd	a5,-24(s0)
   208bc:	fe840793          	addi	a5,s0,-24
   208c0:	00078593          	mv	a1,a5
   208c4:	00200513          	li	a0,2
   208c8:	f4dff0ef          	jal	ra,20814 <payload_bin+0x25c>
   208cc:	fe843783          	ld	a5,-24(s0)
   208d0:	00078593          	mv	a1,a5
   208d4:	00003517          	auipc	a0,0x3
   208d8:	bb450513          	addi	a0,a0,-1100 # 23488 <payload_bin+0x2ed0>
   208dc:	460010ef          	jal	ra,21d3c <payload_bin+0x1784>
   208e0:	08000793          	li	a5,128
   208e4:	fef43423          	sd	a5,-24(s0)
   208e8:	fe840793          	addi	a5,s0,-24
   208ec:	00078593          	mv	a1,a5
   208f0:	00300513          	li	a0,3
   208f4:	ed9ff0ef          	jal	ra,207cc <payload_bin+0x214>
   208f8:	fe843783          	ld	a5,-24(s0)
   208fc:	00078593          	mv	a1,a5
   20900:	00003517          	auipc	a0,0x3
   20904:	ba050513          	addi	a0,a0,-1120 # 234a0 <payload_bin+0x2ee8>
   20908:	434010ef          	jal	ra,21d3c <payload_bin+0x1784>
   2090c:	00300793          	li	a5,3
   20910:	fef43423          	sd	a5,-24(s0)
   20914:	fe840793          	addi	a5,s0,-24
   20918:	00078593          	mv	a1,a5
   2091c:	00200513          	li	a0,2
   20920:	f3dff0ef          	jal	ra,2085c <payload_bin+0x2a4>
   20924:	fe843783          	ld	a5,-24(s0)
   20928:	00078593          	mv	a1,a5
   2092c:	00003517          	auipc	a0,0x3
   20930:	b8c50513          	addi	a0,a0,-1140 # 234b8 <payload_bin+0x2f00>
   20934:	408010ef          	jal	ra,21d3c <payload_bin+0x1784>
   20938:	00000013          	nop
   2093c:	01813083          	ld	ra,24(sp)
   20940:	01013403          	ld	s0,16(sp)
   20944:	02010113          	addi	sp,sp,32
   20948:	00008067          	ret
   2094c:	fe010113          	addi	sp,sp,-32
   20950:	00113c23          	sd	ra,24(sp)
   20954:	00813823          	sd	s0,16(sp)
   20958:	02010413          	addi	s0,sp,32
   2095c:	100027f3          	csrr	a5,sstatus
   20960:	00078093          	mv	ra,a5
   20964:	00008793          	mv	a5,ra
   20968:	fef43423          	sd	a5,-24(s0)
   2096c:	fe843583          	ld	a1,-24(s0)
   20970:	00003517          	auipc	a0,0x3
   20974:	b6050513          	addi	a0,a0,-1184 # 234d0 <payload_bin+0x2f18>
   20978:	3c4010ef          	jal	ra,21d3c <payload_bin+0x1784>
   2097c:	00000013          	nop
   20980:	01813083          	ld	ra,24(sp)
   20984:	01013403          	ld	s0,16(sp)
   20988:	02010113          	addi	sp,sp,32
   2098c:	00008067          	ret
   20990:	fe010113          	addi	sp,sp,-32
   20994:	00113c23          	sd	ra,24(sp)
   20998:	00813823          	sd	s0,16(sp)
   2099c:	02010413          	addi	s0,sp,32
   209a0:	00050793          	mv	a5,a0
   209a4:	fef42623          	sw	a5,-20(s0)
   209a8:	fec42783          	lw	a5,-20(s0)
   209ac:	fff78793          	addi	a5,a5,-1
   209b0:	00078663          	beqz	a5,209bc <payload_bin+0x404>
   209b4:	00000793          	li	a5,0
   209b8:	0240006f          	j	209dc <payload_bin+0x424>
   209bc:	fec42783          	lw	a5,-20(s0)
   209c0:	00078613          	mv	a2,a5
   209c4:	00003597          	auipc	a1,0x3
   209c8:	d0c58593          	addi	a1,a1,-756 # 236d0 <payload_bin+0x3118>
   209cc:	00003517          	auipc	a0,0x3
   209d0:	b1450513          	addi	a0,a0,-1260 # 234e0 <payload_bin+0x2f28>
   209d4:	368010ef          	jal	ra,21d3c <payload_bin+0x1784>
   209d8:	00100793          	li	a5,1
   209dc:	00078513          	mv	a0,a5
   209e0:	01813083          	ld	ra,24(sp)
   209e4:	01013403          	ld	s0,16(sp)
   209e8:	02010113          	addi	sp,sp,32
   209ec:	00008067          	ret
   209f0:	fe010113          	addi	sp,sp,-32
   209f4:	00113c23          	sd	ra,24(sp)
   209f8:	00813823          	sd	s0,16(sp)
   209fc:	02010413          	addi	s0,sp,32
   20a00:	02000613          	li	a2,32
   20a04:	000285b7          	lui	a1,0x28
   20a08:	00020537          	lui	a0,0x20
   20a0c:	ce9ff0ef          	jal	ra,206f4 <payload_bin+0x13c>
   20a10:	02000613          	li	a2,32
   20a14:	000285b7          	lui	a1,0x28
   20a18:	00020537          	lui	a0,0x20
   20a1c:	d45ff0ef          	jal	ra,20760 <payload_bin+0x1a8>
   20a20:	03000613          	li	a2,48
   20a24:	05500593          	li	a1,85
   20a28:	000287b7          	lui	a5,0x28
   20a2c:	00278513          	addi	a0,a5,2 # 28002 <bss_begin+0x1002>
   20a30:	5d8000ef          	jal	ra,21008 <payload_bin+0xa50>
   20a34:	e71ff0ef          	jal	ra,208a4 <payload_bin+0x2ec>
   20a38:	f15ff0ef          	jal	ra,2094c <payload_bin+0x394>
   20a3c:	00100793          	li	a5,1
   20a40:	fef42623          	sw	a5,-20(s0)
   20a44:	fec42783          	lw	a5,-20(s0)
   20a48:	00078513          	mv	a0,a5
   20a4c:	f45ff0ef          	jal	ra,20990 <payload_bin+0x3d8>
   20a50:	00050793          	mv	a5,a0
   20a54:	00078713          	mv	a4,a5
   20a58:	00100793          	li	a5,1
   20a5c:	00f71863          	bne	a4,a5,20a6c <payload_bin+0x4b4>
   20a60:	00003517          	auipc	a0,0x3
   20a64:	a9050513          	addi	a0,a0,-1392 # 234f0 <payload_bin+0x2f38>
   20a68:	2d4010ef          	jal	ra,21d3c <payload_bin+0x1784>
   20a6c:	fe042423          	sw	zero,-24(s0)
   20a70:	fe842783          	lw	a5,-24(s0)
   20a74:	00078513          	mv	a0,a5
   20a78:	f19ff0ef          	jal	ra,20990 <payload_bin+0x3d8>
   20a7c:	00050793          	mv	a5,a0
   20a80:	00079863          	bnez	a5,20a90 <payload_bin+0x4d8>
   20a84:	00003517          	auipc	a0,0x3
   20a88:	a8450513          	addi	a0,a0,-1404 # 23508 <payload_bin+0x2f50>
   20a8c:	2b0010ef          	jal	ra,21d3c <payload_bin+0x1784>
   20a90:	00000013          	nop
   20a94:	01813083          	ld	ra,24(sp)
   20a98:	01013403          	ld	s0,16(sp)
   20a9c:	02010113          	addi	sp,sp,32
   20aa0:	00008067          	ret
   20aa4:	fe010113          	addi	sp,sp,-32
   20aa8:	00113c23          	sd	ra,24(sp)
   20aac:	00813823          	sd	s0,16(sp)
   20ab0:	02010413          	addi	s0,sp,32
   20ab4:	6c4020ef          	jal	ra,23178 <payload_bin+0x2bc0>
   20ab8:	6f4020ef          	jal	ra,231ac <payload_bin+0x2bf4>
   20abc:	738020ef          	jal	ra,231f4 <payload_bin+0x2c3c>
   20ac0:	784020ef          	jal	ra,23244 <payload_bin+0x2c8c>
   20ac4:	7a4020ef          	jal	ra,23268 <payload_bin+0x2cb0>
   20ac8:	02800613          	li	a2,40
   20acc:	05500593          	li	a1,85
   20ad0:	00028537          	lui	a0,0x28
   20ad4:	534000ef          	jal	ra,21008 <payload_bin+0xa50>
   20ad8:	00900593          	li	a1,9
   20adc:	00a00513          	li	a0,10
   20ae0:	7ac020ef          	jal	ra,2328c <payload_bin+0x2cd4>
   20ae4:	fea43423          	sd	a0,-24(s0)
   20ae8:	fe843783          	ld	a5,-24(s0)
   20aec:	00079863          	bnez	a5,20afc <payload_bin+0x544>
   20af0:	00003517          	auipc	a0,0x3
   20af4:	a3050513          	addi	a0,a0,-1488 # 23520 <payload_bin+0x2f68>
   20af8:	01c020ef          	jal	ra,22b14 <payload_bin+0x255c>
   20afc:	00a00593          	li	a1,10
   20b00:	00900513          	li	a0,9
   20b04:	788020ef          	jal	ra,2328c <payload_bin+0x2cd4>
   20b08:	fea43023          	sd	a0,-32(s0)
   20b0c:	fe043703          	ld	a4,-32(s0)
   20b10:	fff00793          	li	a5,-1
   20b14:	00f71863          	bne	a4,a5,20b24 <payload_bin+0x56c>
   20b18:	00003517          	auipc	a0,0x3
   20b1c:	a0850513          	addi	a0,a0,-1528 # 23520 <payload_bin+0x2f68>
   20b20:	7f5010ef          	jal	ra,22b14 <payload_bin+0x255c>
   20b24:	00900593          	li	a1,9
   20b28:	00000513          	li	a0,0
   20b2c:	778020ef          	jal	ra,232a4 <payload_bin+0x2cec>
   20b30:	fea43423          	sd	a0,-24(s0)
   20b34:	00200593          	li	a1,2
   20b38:	00500513          	li	a0,5
   20b3c:	768020ef          	jal	ra,232a4 <payload_bin+0x2cec>
   20b40:	fea43023          	sd	a0,-32(s0)
   20b44:	778020ef          	jal	ra,232bc <payload_bin+0x2d04>
   20b48:	00003517          	auipc	a0,0x3
   20b4c:	9f850513          	addi	a0,a0,-1544 # 23540 <payload_bin+0x2f88>
   20b50:	7c5010ef          	jal	ra,22b14 <payload_bin+0x255c>
   20b54:	00500593          	li	a1,5
   20b58:	00500513          	li	a0,5
   20b5c:	7c4020ef          	jal	ra,23320 <payload_bin+0x2d68>
   20b60:	fea43423          	sd	a0,-24(s0)
   20b64:	fe843703          	ld	a4,-24(s0)
   20b68:	00a00793          	li	a5,10
   20b6c:	00f71863          	bne	a4,a5,20b7c <payload_bin+0x5c4>
   20b70:	00003517          	auipc	a0,0x3
   20b74:	9e850513          	addi	a0,a0,-1560 # 23558 <payload_bin+0x2fa0>
   20b78:	79d010ef          	jal	ra,22b14 <payload_bin+0x255c>
   20b7c:	00500593          	li	a1,5
   20b80:	00500513          	li	a0,5
   20b84:	7c4020ef          	jal	ra,23348 <payload_bin+0x2d90>
   20b88:	fea43023          	sd	a0,-32(s0)
   20b8c:	fe043783          	ld	a5,-32(s0)
   20b90:	00079863          	bnez	a5,20ba0 <payload_bin+0x5e8>
   20b94:	00003517          	auipc	a0,0x3
   20b98:	9e450513          	addi	a0,a0,-1564 # 23578 <payload_bin+0x2fc0>
   20b9c:	779010ef          	jal	ra,22b14 <payload_bin+0x255c>
   20ba0:	00000013          	nop
   20ba4:	01813083          	ld	ra,24(sp)
   20ba8:	01013403          	ld	s0,16(sp)
   20bac:	02010113          	addi	sp,sp,32
   20bb0:	00008067          	ret
   20bb4:	ff010113          	addi	sp,sp,-16
   20bb8:	00113423          	sd	ra,8(sp)
   20bbc:	00813023          	sd	s0,0(sp)
   20bc0:	01010413          	addi	s0,sp,16
   20bc4:	00003517          	auipc	a0,0x3
   20bc8:	9d450513          	addi	a0,a0,-1580 # 23598 <payload_bin+0x2fe0>
   20bcc:	170010ef          	jal	ra,21d3c <payload_bin+0x1784>
   20bd0:	00000597          	auipc	a1,0x0
   20bd4:	9e858593          	addi	a1,a1,-1560 # 205b8 <payload_bin>
   20bd8:	00000617          	auipc	a2,0x0
   20bdc:	a1c60613          	addi	a2,a2,-1508 # 205f4 <payload_bin+0x3c>
   20be0:	00000717          	auipc	a4,0x0
   20be4:	a1470713          	addi	a4,a4,-1516 # 205f4 <payload_bin+0x3c>
   20be8:	00000797          	auipc	a5,0x0
   20bec:	9d078793          	addi	a5,a5,-1584 # 205b8 <payload_bin>
   20bf0:	40f707b3          	sub	a5,a4,a5
   20bf4:	00078693          	mv	a3,a5
   20bf8:	00003517          	auipc	a0,0x3
   20bfc:	9b850513          	addi	a0,a0,-1608 # 235b0 <payload_bin+0x2ff8>
   20c00:	13c010ef          	jal	ra,21d3c <payload_bin+0x1784>
   20c04:	00000597          	auipc	a1,0x0
   20c08:	9f058593          	addi	a1,a1,-1552 # 205f4 <payload_bin+0x3c>
   20c0c:	00003617          	auipc	a2,0x3
   20c10:	86860613          	addi	a2,a2,-1944 # 23474 <payload_bin+0x2ebc>
   20c14:	00003717          	auipc	a4,0x3
   20c18:	86070713          	addi	a4,a4,-1952 # 23474 <payload_bin+0x2ebc>
   20c1c:	00000797          	auipc	a5,0x0
   20c20:	9d878793          	addi	a5,a5,-1576 # 205f4 <payload_bin+0x3c>
   20c24:	40f707b3          	sub	a5,a4,a5
   20c28:	00078693          	mv	a3,a5
   20c2c:	00003517          	auipc	a0,0x3
   20c30:	9b450513          	addi	a0,a0,-1612 # 235e0 <payload_bin+0x3028>
   20c34:	108010ef          	jal	ra,21d3c <payload_bin+0x1784>
   20c38:	00003597          	auipc	a1,0x3
   20c3c:	83c58593          	addi	a1,a1,-1988 # 23474 <payload_bin+0x2ebc>
   20c40:	00003617          	auipc	a2,0x3
   20c44:	bd360613          	addi	a2,a2,-1069 # 23813 <payload_bin+0x325b>
   20c48:	00003717          	auipc	a4,0x3
   20c4c:	bcb70713          	addi	a4,a4,-1077 # 23813 <payload_bin+0x325b>
   20c50:	00003797          	auipc	a5,0x3
   20c54:	82478793          	addi	a5,a5,-2012 # 23474 <payload_bin+0x2ebc>
   20c58:	40f707b3          	sub	a5,a4,a5
   20c5c:	00078693          	mv	a3,a5
   20c60:	00003517          	auipc	a0,0x3
   20c64:	9b050513          	addi	a0,a0,-1616 # 23610 <payload_bin+0x3058>
   20c68:	0d4010ef          	jal	ra,21d3c <payload_bin+0x1784>
   20c6c:	00003597          	auipc	a1,0x3
   20c70:	ba758593          	addi	a1,a1,-1113 # 23813 <payload_bin+0x325b>
   20c74:	00005617          	auipc	a2,0x5
   20c78:	94460613          	addi	a2,a2,-1724 # 255b8 <payload_bin+0x5000>
   20c7c:	00005717          	auipc	a4,0x5
   20c80:	93c70713          	addi	a4,a4,-1732 # 255b8 <payload_bin+0x5000>
   20c84:	00003797          	auipc	a5,0x3
   20c88:	b8f78793          	addi	a5,a5,-1137 # 23813 <payload_bin+0x325b>
   20c8c:	40f707b3          	sub	a5,a4,a5
   20c90:	00078693          	mv	a3,a5
   20c94:	00003517          	auipc	a0,0x3
   20c98:	9ac50513          	addi	a0,a0,-1620 # 23640 <payload_bin+0x3088>
   20c9c:	0a0010ef          	jal	ra,21d3c <payload_bin+0x1784>
   20ca0:	00005597          	auipc	a1,0x5
   20ca4:	92058593          	addi	a1,a1,-1760 # 255c0 <payload_bin+0x5008>
   20ca8:	00005617          	auipc	a2,0x5
   20cac:	b2860613          	addi	a2,a2,-1240 # 257d0 <payload_bin+0x5218>
   20cb0:	00005717          	auipc	a4,0x5
   20cb4:	b2070713          	addi	a4,a4,-1248 # 257d0 <payload_bin+0x5218>
   20cb8:	00005797          	auipc	a5,0x5
   20cbc:	90878793          	addi	a5,a5,-1784 # 255c0 <payload_bin+0x5008>
   20cc0:	40f707b3          	sub	a5,a4,a5
   20cc4:	00078693          	mv	a3,a5
   20cc8:	00003517          	auipc	a0,0x3
   20ccc:	9a850513          	addi	a0,a0,-1624 # 23670 <payload_bin+0x30b8>
   20cd0:	06c010ef          	jal	ra,21d3c <payload_bin+0x1784>
   20cd4:	00000013          	nop
   20cd8:	00813083          	ld	ra,8(sp)
   20cdc:	00013403          	ld	s0,0(sp)
   20ce0:	01010113          	addi	sp,sp,16
   20ce4:	00008067          	ret
   20ce8:	fd010113          	addi	sp,sp,-48
   20cec:	02113423          	sd	ra,40(sp)
   20cf0:	02813023          	sd	s0,32(sp)
   20cf4:	03010413          	addi	s0,sp,48
   20cf8:	00005797          	auipc	a5,0x5
   20cfc:	8c878793          	addi	a5,a5,-1848 # 255c0 <payload_bin+0x5008>
   20d00:	fef43423          	sd	a5,-24(s0)
   20d04:	00005797          	auipc	a5,0x5
   20d08:	acc78793          	addi	a5,a5,-1332 # 257d0 <payload_bin+0x5218>
   20d0c:	fef43023          	sd	a5,-32(s0)
   20d10:	fe043783          	ld	a5,-32(s0)
   20d14:	0007871b          	sext.w	a4,a5
   20d18:	fe843783          	ld	a5,-24(s0)
   20d1c:	0007879b          	sext.w	a5,a5
   20d20:	40f707bb          	subw	a5,a4,a5
   20d24:	fcf42e23          	sw	a5,-36(s0)
   20d28:	fe843783          	ld	a5,-24(s0)
   20d2c:	fdc46703          	lwu	a4,-36(s0)
   20d30:	00070613          	mv	a2,a4
   20d34:	00000593          	li	a1,0
   20d38:	00078513          	mv	a0,a5
   20d3c:	2cc000ef          	jal	ra,21008 <payload_bin+0xa50>
   20d40:	00000013          	nop
   20d44:	02813083          	ld	ra,40(sp)
   20d48:	02013403          	ld	s0,32(sp)
   20d4c:	03010113          	addi	sp,sp,48
   20d50:	00008067          	ret
   20d54:	ff010113          	addi	sp,sp,-16
   20d58:	00113423          	sd	ra,8(sp)
   20d5c:	00813023          	sd	s0,0(sp)
   20d60:	01010413          	addi	s0,sp,16
   20d64:	f85ff0ef          	jal	ra,20ce8 <payload_bin+0x730>
   20d68:	251010ef          	jal	ra,227b8 <payload_bin+0x2200>
   20d6c:	00003517          	auipc	a0,0x3
   20d70:	93450513          	addi	a0,a0,-1740 # 236a0 <payload_bin+0x30e8>
   20d74:	5a1010ef          	jal	ra,22b14 <payload_bin+0x255c>
   20d78:	729000ef          	jal	ra,21ca0 <payload_bin+0x16e8>
   20d7c:	00003517          	auipc	a0,0x3
   20d80:	93c50513          	addi	a0,a0,-1732 # 236b8 <payload_bin+0x3100>
   20d84:	7b9000ef          	jal	ra,21d3c <payload_bin+0x1784>
   20d88:	d1dff0ef          	jal	ra,20aa4 <payload_bin+0x4ec>
   20d8c:	c65ff0ef          	jal	ra,209f0 <payload_bin+0x438>
   20d90:	008017b7          	lui	a5,0x801
   20d94:	88078513          	addi	a0,a5,-1920 # 800880 <bss_begin+0x7d9880>
   20d98:	861ff0ef          	jal	ra,205f8 <payload_bin+0x40>
   20d9c:	008017b7          	lui	a5,0x801
   20da0:	86078513          	addi	a0,a5,-1952 # 800860 <bss_begin+0x7d9860>
   20da4:	855ff0ef          	jal	ra,205f8 <payload_bin+0x40>
   20da8:	008017b7          	lui	a5,0x801
   20dac:	80078513          	addi	a0,a5,-2048 # 800800 <bss_begin+0x7d9800>
   20db0:	849ff0ef          	jal	ra,205f8 <payload_bin+0x40>
   20db4:	e01ff0ef          	jal	ra,20bb4 <payload_bin+0x5fc>
   20db8:	0000006f          	j	20db8 <payload_bin+0x800>
   20dbc:	fc010113          	addi	sp,sp,-64
   20dc0:	02813c23          	sd	s0,56(sp)
   20dc4:	04010413          	addi	s0,sp,64
   20dc8:	fca43c23          	sd	a0,-40(s0)
   20dcc:	fcb43823          	sd	a1,-48(s0)
   20dd0:	00060793          	mv	a5,a2
   20dd4:	fcf42623          	sw	a5,-52(s0)
   20dd8:	fe042623          	sw	zero,-20(s0)
   20ddc:	fd043603          	ld	a2,-48(s0)
   20de0:	fd843683          	ld	a3,-40(s0)
   20de4:	fcc42703          	lw	a4,-52(s0)
   20de8:	fec42783          	lw	a5,-20(s0)
   20dec:	00c6b023          	sd	a2,0(a3)
   20df0:	00c6b423          	sd	a2,8(a3)
   20df4:	01078793          	addi	a5,a5,16
   20df8:	fee7cae3          	blt	a5,a4,20dec <payload_bin+0x834>
   20dfc:	fcd43c23          	sd	a3,-40(s0)
   20e00:	fce42623          	sw	a4,-52(s0)
   20e04:	fef42623          	sw	a5,-20(s0)
   20e08:	00000013          	nop
   20e0c:	03813403          	ld	s0,56(sp)
   20e10:	04010113          	addi	sp,sp,64
   20e14:	00008067          	ret
   20e18:	fc010113          	addi	sp,sp,-64
   20e1c:	02813c23          	sd	s0,56(sp)
   20e20:	04010413          	addi	s0,sp,64
   20e24:	fca43c23          	sd	a0,-40(s0)
   20e28:	00058793          	mv	a5,a1
   20e2c:	fcc43423          	sd	a2,-56(s0)
   20e30:	fcf42a23          	sw	a5,-44(s0)
   20e34:	fd843783          	ld	a5,-40(s0)
   20e38:	fef43423          	sd	a5,-24(s0)
   20e3c:	01c0006f          	j	20e58 <payload_bin+0x8a0>
   20e40:	fe843783          	ld	a5,-24(s0)
   20e44:	00178713          	addi	a4,a5,1
   20e48:	fee43423          	sd	a4,-24(s0)
   20e4c:	fd442703          	lw	a4,-44(s0)
   20e50:	0ff77713          	andi	a4,a4,255
   20e54:	00e78023          	sb	a4,0(a5)
   20e58:	fc843783          	ld	a5,-56(s0)
   20e5c:	fff78713          	addi	a4,a5,-1
   20e60:	fce43423          	sd	a4,-56(s0)
   20e64:	fc079ee3          	bnez	a5,20e40 <payload_bin+0x888>
   20e68:	fd843783          	ld	a5,-40(s0)
   20e6c:	00078513          	mv	a0,a5
   20e70:	03813403          	ld	s0,56(sp)
   20e74:	04010113          	addi	sp,sp,64
   20e78:	00008067          	ret
   20e7c:	f9010113          	addi	sp,sp,-112
   20e80:	06113423          	sd	ra,104(sp)
   20e84:	06813023          	sd	s0,96(sp)
   20e88:	07010413          	addi	s0,sp,112
   20e8c:	faa43423          	sd	a0,-88(s0)
   20e90:	00058793          	mv	a5,a1
   20e94:	f8c43c23          	sd	a2,-104(s0)
   20e98:	faf42223          	sw	a5,-92(s0)
   20e9c:	fa843783          	ld	a5,-88(s0)
   20ea0:	fef43423          	sd	a5,-24(s0)
   20ea4:	01000793          	li	a5,16
   20ea8:	fcf43423          	sd	a5,-56(s0)
   20eac:	f9843783          	ld	a5,-104(s0)
   20eb0:	fef43023          	sd	a5,-32(s0)
   20eb4:	fe843783          	ld	a5,-24(s0)
   20eb8:	fcf43023          	sd	a5,-64(s0)
   20ebc:	fc043823          	sd	zero,-48(s0)
   20ec0:	fc042e23          	sw	zero,-36(s0)
   20ec4:	0340006f          	j	20ef8 <payload_bin+0x940>
   20ec8:	fa442783          	lw	a5,-92(s0)
   20ecc:	0ff7f793          	andi	a5,a5,255
   20ed0:	fdc42703          	lw	a4,-36(s0)
   20ed4:	0037171b          	slliw	a4,a4,0x3
   20ed8:	0007071b          	sext.w	a4,a4
   20edc:	00e797b3          	sll	a5,a5,a4
   20ee0:	fd043703          	ld	a4,-48(s0)
   20ee4:	00f767b3          	or	a5,a4,a5
   20ee8:	fcf43823          	sd	a5,-48(s0)
   20eec:	fdc42783          	lw	a5,-36(s0)
   20ef0:	0017879b          	addiw	a5,a5,1
   20ef4:	fcf42e23          	sw	a5,-36(s0)
   20ef8:	fdc42783          	lw	a5,-36(s0)
   20efc:	0007871b          	sext.w	a4,a5
   20f00:	00700793          	li	a5,7
   20f04:	fce7d2e3          	bge	a5,a4,20ec8 <payload_bin+0x910>
   20f08:	fc843783          	ld	a5,-56(s0)
   20f0c:	fff78713          	addi	a4,a5,-1
   20f10:	fc043783          	ld	a5,-64(s0)
   20f14:	00f777b3          	and	a5,a4,a5
   20f18:	04078e63          	beqz	a5,20f74 <payload_bin+0x9bc>
   20f1c:	fc843783          	ld	a5,-56(s0)
   20f20:	fff78793          	addi	a5,a5,-1
   20f24:	fc043703          	ld	a4,-64(s0)
   20f28:	00f777b3          	and	a5,a4,a5
   20f2c:	faf43c23          	sd	a5,-72(s0)
   20f30:	fc843703          	ld	a4,-56(s0)
   20f34:	fb843783          	ld	a5,-72(s0)
   20f38:	40f707b3          	sub	a5,a4,a5
   20f3c:	faf43c23          	sd	a5,-72(s0)
   20f40:	fa442783          	lw	a5,-92(s0)
   20f44:	fb843603          	ld	a2,-72(s0)
   20f48:	00078593          	mv	a1,a5
   20f4c:	fe843503          	ld	a0,-24(s0)
   20f50:	ec9ff0ef          	jal	ra,20e18 <payload_bin+0x860>
   20f54:	fe843703          	ld	a4,-24(s0)
   20f58:	fb843783          	ld	a5,-72(s0)
   20f5c:	00f707b3          	add	a5,a4,a5
   20f60:	fef43423          	sd	a5,-24(s0)
   20f64:	f9843703          	ld	a4,-104(s0)
   20f68:	fb843783          	ld	a5,-72(s0)
   20f6c:	40f707b3          	sub	a5,a4,a5
   20f70:	fef43023          	sd	a5,-32(s0)
   20f74:	fe043703          	ld	a4,-32(s0)
   20f78:	fc843783          	ld	a5,-56(s0)
   20f7c:	06e7fa63          	bgeu	a5,a4,20ff0 <payload_bin+0xa38>
   20f80:	fe043703          	ld	a4,-32(s0)
   20f84:	fc843783          	ld	a5,-56(s0)
   20f88:	02f757b3          	divu	a5,a4,a5
   20f8c:	faf42a23          	sw	a5,-76(s0)
   20f90:	fe043703          	ld	a4,-32(s0)
   20f94:	fc843783          	ld	a5,-56(s0)
   20f98:	02f777b3          	remu	a5,a4,a5
   20f9c:	fef43023          	sd	a5,-32(s0)
   20fa0:	fb442783          	lw	a5,-76(s0)
   20fa4:	0047979b          	slliw	a5,a5,0x4
   20fa8:	0007879b          	sext.w	a5,a5
   20fac:	00078613          	mv	a2,a5
   20fb0:	fd043583          	ld	a1,-48(s0)
   20fb4:	fe843503          	ld	a0,-24(s0)
   20fb8:	e05ff0ef          	jal	ra,20dbc <payload_bin+0x804>
   20fbc:	fe043783          	ld	a5,-32(s0)
   20fc0:	02078863          	beqz	a5,20ff0 <payload_bin+0xa38>
   20fc4:	fb442783          	lw	a5,-76(s0)
   20fc8:	0047979b          	slliw	a5,a5,0x4
   20fcc:	0007879b          	sext.w	a5,a5
   20fd0:	00078713          	mv	a4,a5
   20fd4:	fe843783          	ld	a5,-24(s0)
   20fd8:	00e787b3          	add	a5,a5,a4
   20fdc:	fa442703          	lw	a4,-92(s0)
   20fe0:	fe043603          	ld	a2,-32(s0)
   20fe4:	00070593          	mv	a1,a4
   20fe8:	00078513          	mv	a0,a5
   20fec:	e2dff0ef          	jal	ra,20e18 <payload_bin+0x860>
   20ff0:	fa843783          	ld	a5,-88(s0)
   20ff4:	00078513          	mv	a0,a5
   20ff8:	06813083          	ld	ra,104(sp)
   20ffc:	06013403          	ld	s0,96(sp)
   21000:	07010113          	addi	sp,sp,112
   21004:	00008067          	ret
   21008:	fd010113          	addi	sp,sp,-48
   2100c:	02113423          	sd	ra,40(sp)
   21010:	02813023          	sd	s0,32(sp)
   21014:	03010413          	addi	s0,sp,48
   21018:	fea43423          	sd	a0,-24(s0)
   2101c:	00058793          	mv	a5,a1
   21020:	fcc43c23          	sd	a2,-40(s0)
   21024:	fef42223          	sw	a5,-28(s0)
   21028:	fe442783          	lw	a5,-28(s0)
   2102c:	fd843603          	ld	a2,-40(s0)
   21030:	00078593          	mv	a1,a5
   21034:	fe843503          	ld	a0,-24(s0)
   21038:	e45ff0ef          	jal	ra,20e7c <payload_bin+0x8c4>
   2103c:	00050793          	mv	a5,a0
   21040:	00078513          	mv	a0,a5
   21044:	02813083          	ld	ra,40(sp)
   21048:	02013403          	ld	s0,32(sp)
   2104c:	03010113          	addi	sp,sp,48
   21050:	00008067          	ret
   21054:	fd010113          	addi	sp,sp,-48
   21058:	02813423          	sd	s0,40(sp)
   2105c:	03010413          	addi	s0,sp,48
   21060:	fca43c23          	sd	a0,-40(s0)
   21064:	fcb43823          	sd	a1,-48(s0)
   21068:	fe042623          	sw	zero,-20(s0)
   2106c:	0440006f          	j	210b0 <payload_bin+0xaf8>
   21070:	fec42703          	lw	a4,-20(s0)
   21074:	00070793          	mv	a5,a4
   21078:	0027979b          	slliw	a5,a5,0x2
   2107c:	00e787bb          	addw	a5,a5,a4
   21080:	0017979b          	slliw	a5,a5,0x1
   21084:	fef42623          	sw	a5,-20(s0)
   21088:	fd843783          	ld	a5,-40(s0)
   2108c:	00178713          	addi	a4,a5,1
   21090:	fce43c23          	sd	a4,-40(s0)
   21094:	0007c783          	lbu	a5,0(a5)
   21098:	0007879b          	sext.w	a5,a5
   2109c:	fd07879b          	addiw	a5,a5,-48
   210a0:	0007879b          	sext.w	a5,a5
   210a4:	fec42703          	lw	a4,-20(s0)
   210a8:	00f707bb          	addw	a5,a4,a5
   210ac:	fef42623          	sw	a5,-20(s0)
   210b0:	fd843783          	ld	a5,-40(s0)
   210b4:	0007c783          	lbu	a5,0(a5)
   210b8:	00078713          	mv	a4,a5
   210bc:	02f00793          	li	a5,47
   210c0:	00e7fc63          	bgeu	a5,a4,210d8 <payload_bin+0xb20>
   210c4:	fd843783          	ld	a5,-40(s0)
   210c8:	0007c783          	lbu	a5,0(a5)
   210cc:	00078713          	mv	a4,a5
   210d0:	03900793          	li	a5,57
   210d4:	f8e7fee3          	bgeu	a5,a4,21070 <payload_bin+0xab8>
   210d8:	fd043783          	ld	a5,-48(s0)
   210dc:	fec42703          	lw	a4,-20(s0)
   210e0:	00e7a023          	sw	a4,0(a5)
   210e4:	fd843783          	ld	a5,-40(s0)
   210e8:	00078513          	mv	a0,a5
   210ec:	02813403          	ld	s0,40(sp)
   210f0:	03010113          	addi	sp,sp,48
   210f4:	00008067          	ret
   210f8:	f2010113          	addi	sp,sp,-224
   210fc:	0c813c23          	sd	s0,216(sp)
   21100:	0e010413          	addi	s0,sp,224
   21104:	f2a43c23          	sd	a0,-200(s0)
   21108:	f2b43823          	sd	a1,-208(s0)
   2110c:	00060593          	mv	a1,a2
   21110:	00068613          	mv	a2,a3
   21114:	00070693          	mv	a3,a4
   21118:	00078713          	mv	a4,a5
   2111c:	00058793          	mv	a5,a1
   21120:	f2f42623          	sw	a5,-212(s0)
   21124:	00060793          	mv	a5,a2
   21128:	f2f42423          	sw	a5,-216(s0)
   2112c:	00068793          	mv	a5,a3
   21130:	f2f42223          	sw	a5,-220(s0)
   21134:	00070793          	mv	a5,a4
   21138:	f2f42023          	sw	a5,-224(s0)
   2113c:	fe0407a3          	sb	zero,-17(s0)
   21140:	00002797          	auipc	a5,0x2
   21144:	5a078793          	addi	a5,a5,1440 # 236e0 <payload_bin+0x3128>
   21148:	fef43023          	sd	a5,-32(s0)
   2114c:	f2042783          	lw	a5,-224(s0)
   21150:	0407f793          	andi	a5,a5,64
   21154:	0007879b          	sext.w	a5,a5
   21158:	00078863          	beqz	a5,21168 <payload_bin+0xbb0>
   2115c:	00002797          	auipc	a5,0x2
   21160:	5ac78793          	addi	a5,a5,1452 # 23708 <payload_bin+0x3150>
   21164:	fef43023          	sd	a5,-32(s0)
   21168:	f2042783          	lw	a5,-224(s0)
   2116c:	0107f793          	andi	a5,a5,16
   21170:	0007879b          	sext.w	a5,a5
   21174:	00078863          	beqz	a5,21184 <payload_bin+0xbcc>
   21178:	f2042783          	lw	a5,-224(s0)
   2117c:	ffe7f793          	andi	a5,a5,-2
   21180:	f2f42023          	sw	a5,-224(s0)
   21184:	f2c42783          	lw	a5,-212(s0)
   21188:	0007871b          	sext.w	a4,a5
   2118c:	00100793          	li	a5,1
   21190:	00e7da63          	bge	a5,a4,211a4 <payload_bin+0xbec>
   21194:	f2c42783          	lw	a5,-212(s0)
   21198:	0007871b          	sext.w	a4,a5
   2119c:	02400793          	li	a5,36
   211a0:	00e7d663          	bge	a5,a4,211ac <payload_bin+0xbf4>
   211a4:	00000793          	li	a5,0
   211a8:	3400006f          	j	214e8 <payload_bin+0xf30>
   211ac:	f2042783          	lw	a5,-224(s0)
   211b0:	0017f793          	andi	a5,a5,1
   211b4:	0007879b          	sext.w	a5,a5
   211b8:	00078663          	beqz	a5,211c4 <payload_bin+0xc0c>
   211bc:	03000793          	li	a5,48
   211c0:	0080006f          	j	211c8 <payload_bin+0xc10>
   211c4:	02000793          	li	a5,32
   211c8:	fcf40da3          	sb	a5,-37(s0)
   211cc:	f2042783          	lw	a5,-224(s0)
   211d0:	0027f793          	andi	a5,a5,2
   211d4:	0007879b          	sext.w	a5,a5
   211d8:	06078c63          	beqz	a5,21250 <payload_bin+0xc98>
   211dc:	f3043783          	ld	a5,-208(s0)
   211e0:	fcf43823          	sd	a5,-48(s0)
   211e4:	fd043783          	ld	a5,-48(s0)
   211e8:	0007de63          	bgez	a5,21204 <payload_bin+0xc4c>
   211ec:	02d00793          	li	a5,45
   211f0:	fef407a3          	sb	a5,-17(s0)
   211f4:	fd043783          	ld	a5,-48(s0)
   211f8:	40f007b3          	neg	a5,a5
   211fc:	f2f43823          	sd	a5,-208(s0)
   21200:	0500006f          	j	21250 <payload_bin+0xc98>
   21204:	f2042783          	lw	a5,-224(s0)
   21208:	0047f793          	andi	a5,a5,4
   2120c:	0007879b          	sext.w	a5,a5
   21210:	00078e63          	beqz	a5,2122c <payload_bin+0xc74>
   21214:	02b00793          	li	a5,43
   21218:	fef407a3          	sb	a5,-17(s0)
   2121c:	f2842783          	lw	a5,-216(s0)
   21220:	fff7879b          	addiw	a5,a5,-1
   21224:	f2f42423          	sw	a5,-216(s0)
   21228:	0280006f          	j	21250 <payload_bin+0xc98>
   2122c:	f2042783          	lw	a5,-224(s0)
   21230:	0087f793          	andi	a5,a5,8
   21234:	0007879b          	sext.w	a5,a5
   21238:	00078c63          	beqz	a5,21250 <payload_bin+0xc98>
   2123c:	02000793          	li	a5,32
   21240:	fef407a3          	sb	a5,-17(s0)
   21244:	f2842783          	lw	a5,-216(s0)
   21248:	fff7879b          	addiw	a5,a5,-1
   2124c:	f2f42423          	sw	a5,-216(s0)
   21250:	f2042783          	lw	a5,-224(s0)
   21254:	0207f793          	andi	a5,a5,32
   21258:	0007879b          	sext.w	a5,a5
   2125c:	04078063          	beqz	a5,2129c <payload_bin+0xce4>
   21260:	f2c42783          	lw	a5,-212(s0)
   21264:	0007871b          	sext.w	a4,a5
   21268:	01000793          	li	a5,16
   2126c:	00f71a63          	bne	a4,a5,21280 <payload_bin+0xcc8>
   21270:	f2842783          	lw	a5,-216(s0)
   21274:	ffe7879b          	addiw	a5,a5,-2
   21278:	f2f42423          	sw	a5,-216(s0)
   2127c:	0200006f          	j	2129c <payload_bin+0xce4>
   21280:	f2c42783          	lw	a5,-212(s0)
   21284:	0007871b          	sext.w	a4,a5
   21288:	00800793          	li	a5,8
   2128c:	00f71863          	bne	a4,a5,2129c <payload_bin+0xce4>
   21290:	f2842783          	lw	a5,-216(s0)
   21294:	fff7879b          	addiw	a5,a5,-1
   21298:	f2f42423          	sw	a5,-216(s0)
   2129c:	fc042e23          	sw	zero,-36(s0)
   212a0:	f3043783          	ld	a5,-208(s0)
   212a4:	06079e63          	bnez	a5,21320 <payload_bin+0xd68>
   212a8:	fdc42783          	lw	a5,-36(s0)
   212ac:	0017871b          	addiw	a4,a5,1
   212b0:	fce42e23          	sw	a4,-36(s0)
   212b4:	ff040713          	addi	a4,s0,-16
   212b8:	00f707b3          	add	a5,a4,a5
   212bc:	03000713          	li	a4,48
   212c0:	f4e78c23          	sb	a4,-168(a5)
   212c4:	0640006f          	j	21328 <payload_bin+0xd70>
   212c8:	f2c42783          	lw	a5,-212(s0)
   212cc:	fcf42623          	sw	a5,-52(s0)
   212d0:	fcc46783          	lwu	a5,-52(s0)
   212d4:	f3043703          	ld	a4,-208(s0)
   212d8:	02f777b3          	remu	a5,a4,a5
   212dc:	fcf42423          	sw	a5,-56(s0)
   212e0:	fcc46783          	lwu	a5,-52(s0)
   212e4:	f3043703          	ld	a4,-208(s0)
   212e8:	02f757b3          	divu	a5,a4,a5
   212ec:	f2f43823          	sd	a5,-208(s0)
   212f0:	fc842783          	lw	a5,-56(s0)
   212f4:	02079793          	slli	a5,a5,0x20
   212f8:	0207d793          	srli	a5,a5,0x20
   212fc:	fe043703          	ld	a4,-32(s0)
   21300:	00f70733          	add	a4,a4,a5
   21304:	fdc42783          	lw	a5,-36(s0)
   21308:	0017869b          	addiw	a3,a5,1
   2130c:	fcd42e23          	sw	a3,-36(s0)
   21310:	00074703          	lbu	a4,0(a4)
   21314:	ff040693          	addi	a3,s0,-16
   21318:	00f687b3          	add	a5,a3,a5
   2131c:	f4e78c23          	sb	a4,-168(a5)
   21320:	f3043783          	ld	a5,-208(s0)
   21324:	fa0792e3          	bnez	a5,212c8 <payload_bin+0xd10>
   21328:	fdc42703          	lw	a4,-36(s0)
   2132c:	f2442783          	lw	a5,-220(s0)
   21330:	0007071b          	sext.w	a4,a4
   21334:	0007879b          	sext.w	a5,a5
   21338:	00e7d663          	bge	a5,a4,21344 <payload_bin+0xd8c>
   2133c:	fdc42783          	lw	a5,-36(s0)
   21340:	f2f42223          	sw	a5,-220(s0)
   21344:	f2842703          	lw	a4,-216(s0)
   21348:	f2442783          	lw	a5,-220(s0)
   2134c:	40f707bb          	subw	a5,a4,a5
   21350:	f2f42423          	sw	a5,-216(s0)
   21354:	f2042783          	lw	a5,-224(s0)
   21358:	0117f793          	andi	a5,a5,17
   2135c:	0007879b          	sext.w	a5,a5
   21360:	02079663          	bnez	a5,2138c <payload_bin+0xdd4>
   21364:	0180006f          	j	2137c <payload_bin+0xdc4>
   21368:	f3843783          	ld	a5,-200(s0)
   2136c:	00178713          	addi	a4,a5,1
   21370:	f2e43c23          	sd	a4,-200(s0)
   21374:	02000713          	li	a4,32
   21378:	00e78023          	sb	a4,0(a5)
   2137c:	f2842783          	lw	a5,-216(s0)
   21380:	fff7871b          	addiw	a4,a5,-1
   21384:	f2e42423          	sw	a4,-216(s0)
   21388:	fef040e3          	bgtz	a5,21368 <payload_bin+0xdb0>
   2138c:	fef44783          	lbu	a5,-17(s0)
   21390:	0ff7f793          	andi	a5,a5,255
   21394:	00078c63          	beqz	a5,213ac <payload_bin+0xdf4>
   21398:	f3843783          	ld	a5,-200(s0)
   2139c:	00178713          	addi	a4,a5,1
   213a0:	f2e43c23          	sd	a4,-200(s0)
   213a4:	fef44703          	lbu	a4,-17(s0)
   213a8:	00e78023          	sb	a4,0(a5)
   213ac:	f2042783          	lw	a5,-224(s0)
   213b0:	0207f793          	andi	a5,a5,32
   213b4:	0007879b          	sext.w	a5,a5
   213b8:	06078463          	beqz	a5,21420 <payload_bin+0xe68>
   213bc:	f2c42783          	lw	a5,-212(s0)
   213c0:	0007871b          	sext.w	a4,a5
   213c4:	00800793          	li	a5,8
   213c8:	00f71e63          	bne	a4,a5,213e4 <payload_bin+0xe2c>
   213cc:	f3843783          	ld	a5,-200(s0)
   213d0:	00178713          	addi	a4,a5,1
   213d4:	f2e43c23          	sd	a4,-200(s0)
   213d8:	03000713          	li	a4,48
   213dc:	00e78023          	sb	a4,0(a5)
   213e0:	0400006f          	j	21420 <payload_bin+0xe68>
   213e4:	f2c42783          	lw	a5,-212(s0)
   213e8:	0007871b          	sext.w	a4,a5
   213ec:	01000793          	li	a5,16
   213f0:	02f71863          	bne	a4,a5,21420 <payload_bin+0xe68>
   213f4:	f3843783          	ld	a5,-200(s0)
   213f8:	00178713          	addi	a4,a5,1
   213fc:	f2e43c23          	sd	a4,-200(s0)
   21400:	03000713          	li	a4,48
   21404:	00e78023          	sb	a4,0(a5)
   21408:	f3843783          	ld	a5,-200(s0)
   2140c:	00178713          	addi	a4,a5,1
   21410:	f2e43c23          	sd	a4,-200(s0)
   21414:	fe043703          	ld	a4,-32(s0)
   21418:	02174703          	lbu	a4,33(a4)
   2141c:	00e78023          	sb	a4,0(a5)
   21420:	f2042783          	lw	a5,-224(s0)
   21424:	0107f793          	andi	a5,a5,16
   21428:	0007879b          	sext.w	a5,a5
   2142c:	04079263          	bnez	a5,21470 <payload_bin+0xeb8>
   21430:	0180006f          	j	21448 <payload_bin+0xe90>
   21434:	f3843783          	ld	a5,-200(s0)
   21438:	00178713          	addi	a4,a5,1
   2143c:	f2e43c23          	sd	a4,-200(s0)
   21440:	fdb44703          	lbu	a4,-37(s0)
   21444:	00e78023          	sb	a4,0(a5)
   21448:	f2842783          	lw	a5,-216(s0)
   2144c:	fff7871b          	addiw	a4,a5,-1
   21450:	f2e42423          	sw	a4,-216(s0)
   21454:	fef040e3          	bgtz	a5,21434 <payload_bin+0xe7c>
   21458:	0180006f          	j	21470 <payload_bin+0xeb8>
   2145c:	f3843783          	ld	a5,-200(s0)
   21460:	00178713          	addi	a4,a5,1
   21464:	f2e43c23          	sd	a4,-200(s0)
   21468:	03000713          	li	a4,48
   2146c:	00e78023          	sb	a4,0(a5)
   21470:	f2442783          	lw	a5,-220(s0)
   21474:	fff7871b          	addiw	a4,a5,-1
   21478:	f2e42223          	sw	a4,-220(s0)
   2147c:	fdc42703          	lw	a4,-36(s0)
   21480:	0007071b          	sext.w	a4,a4
   21484:	fcf74ce3          	blt	a4,a5,2145c <payload_bin+0xea4>
   21488:	0240006f          	j	214ac <payload_bin+0xef4>
   2148c:	f3843783          	ld	a5,-200(s0)
   21490:	00178713          	addi	a4,a5,1
   21494:	f2e43c23          	sd	a4,-200(s0)
   21498:	fdc42703          	lw	a4,-36(s0)
   2149c:	ff040693          	addi	a3,s0,-16
   214a0:	00e68733          	add	a4,a3,a4
   214a4:	f5874703          	lbu	a4,-168(a4)
   214a8:	00e78023          	sb	a4,0(a5)
   214ac:	fdc42783          	lw	a5,-36(s0)
   214b0:	fff7871b          	addiw	a4,a5,-1
   214b4:	fce42e23          	sw	a4,-36(s0)
   214b8:	fcf04ae3          	bgtz	a5,2148c <payload_bin+0xed4>
   214bc:	0180006f          	j	214d4 <payload_bin+0xf1c>
   214c0:	f3843783          	ld	a5,-200(s0)
   214c4:	00178713          	addi	a4,a5,1
   214c8:	f2e43c23          	sd	a4,-200(s0)
   214cc:	02000713          	li	a4,32
   214d0:	00e78023          	sb	a4,0(a5)
   214d4:	f2842783          	lw	a5,-216(s0)
   214d8:	fff7871b          	addiw	a4,a5,-1
   214dc:	f2e42423          	sw	a4,-216(s0)
   214e0:	fef040e3          	bgtz	a5,214c0 <payload_bin+0xf08>
   214e4:	f3843783          	ld	a5,-200(s0)
   214e8:	00078513          	mv	a0,a5
   214ec:	0d813403          	ld	s0,216(sp)
   214f0:	0e010113          	addi	sp,sp,224
   214f4:	00008067          	ret
   214f8:	f9010113          	addi	sp,sp,-112
   214fc:	06113423          	sd	ra,104(sp)
   21500:	06813023          	sd	s0,96(sp)
   21504:	07010413          	addi	s0,sp,112
   21508:	faa43423          	sd	a0,-88(s0)
   2150c:	00058793          	mv	a5,a1
   21510:	f8c43c23          	sd	a2,-104(s0)
   21514:	f8d43823          	sd	a3,-112(s0)
   21518:	faf42223          	sw	a5,-92(s0)
   2151c:	fa843783          	ld	a5,-88(s0)
   21520:	fef43423          	sd	a5,-24(s0)
   21524:	7440006f          	j	21c68 <payload_bin+0x16b0>
   21528:	f9843783          	ld	a5,-104(s0)
   2152c:	0007c783          	lbu	a5,0(a5)
   21530:	00078713          	mv	a4,a5
   21534:	02500793          	li	a5,37
   21538:	02f70063          	beq	a4,a5,21558 <payload_bin+0xfa0>
   2153c:	fe843783          	ld	a5,-24(s0)
   21540:	00178713          	addi	a4,a5,1
   21544:	fee43423          	sd	a4,-24(s0)
   21548:	f9843703          	ld	a4,-104(s0)
   2154c:	00074703          	lbu	a4,0(a4)
   21550:	00e78023          	sb	a4,0(a5)
   21554:	7080006f          	j	21c5c <payload_bin+0x16a4>
   21558:	fe042223          	sw	zero,-28(s0)
   2155c:	f9843783          	ld	a5,-104(s0)
   21560:	00178793          	addi	a5,a5,1
   21564:	f8f43c23          	sd	a5,-104(s0)
   21568:	f9843783          	ld	a5,-104(s0)
   2156c:	0007c783          	lbu	a5,0(a5)
   21570:	0007879b          	sext.w	a5,a5
   21574:	fe07869b          	addiw	a3,a5,-32
   21578:	0006871b          	sext.w	a4,a3
   2157c:	01000793          	li	a5,16
   21580:	08e7e263          	bltu	a5,a4,21604 <payload_bin+0x104c>
   21584:	02069793          	slli	a5,a3,0x20
   21588:	0207d793          	srli	a5,a5,0x20
   2158c:	00279713          	slli	a4,a5,0x2
   21590:	00002797          	auipc	a5,0x2
   21594:	1a878793          	addi	a5,a5,424 # 23738 <payload_bin+0x3180>
   21598:	00f707b3          	add	a5,a4,a5
   2159c:	0007a783          	lw	a5,0(a5)
   215a0:	0007871b          	sext.w	a4,a5
   215a4:	00002797          	auipc	a5,0x2
   215a8:	19478793          	addi	a5,a5,404 # 23738 <payload_bin+0x3180>
   215ac:	00f707b3          	add	a5,a4,a5
   215b0:	00078067          	jr	a5
   215b4:	fe442783          	lw	a5,-28(s0)
   215b8:	0107e793          	ori	a5,a5,16
   215bc:	fef42223          	sw	a5,-28(s0)
   215c0:	f9dff06f          	j	2155c <payload_bin+0xfa4>
   215c4:	fe442783          	lw	a5,-28(s0)
   215c8:	0047e793          	ori	a5,a5,4
   215cc:	fef42223          	sw	a5,-28(s0)
   215d0:	f8dff06f          	j	2155c <payload_bin+0xfa4>
   215d4:	fe442783          	lw	a5,-28(s0)
   215d8:	0087e793          	ori	a5,a5,8
   215dc:	fef42223          	sw	a5,-28(s0)
   215e0:	f7dff06f          	j	2155c <payload_bin+0xfa4>
   215e4:	fe442783          	lw	a5,-28(s0)
   215e8:	0207e793          	ori	a5,a5,32
   215ec:	fef42223          	sw	a5,-28(s0)
   215f0:	f6dff06f          	j	2155c <payload_bin+0xfa4>
   215f4:	fe442783          	lw	a5,-28(s0)
   215f8:	0017e793          	ori	a5,a5,1
   215fc:	fef42223          	sw	a5,-28(s0)
   21600:	f5dff06f          	j	2155c <payload_bin+0xfa4>
   21604:	fff00793          	li	a5,-1
   21608:	faf42a23          	sw	a5,-76(s0)
   2160c:	f9843783          	ld	a5,-104(s0)
   21610:	0007c783          	lbu	a5,0(a5)
   21614:	00078713          	mv	a4,a5
   21618:	02f00793          	li	a5,47
   2161c:	02e7f863          	bgeu	a5,a4,2164c <payload_bin+0x1094>
   21620:	f9843783          	ld	a5,-104(s0)
   21624:	0007c783          	lbu	a5,0(a5)
   21628:	00078713          	mv	a4,a5
   2162c:	03900793          	li	a5,57
   21630:	00e7ee63          	bltu	a5,a4,2164c <payload_bin+0x1094>
   21634:	fb440793          	addi	a5,s0,-76
   21638:	00078593          	mv	a1,a5
   2163c:	f9843503          	ld	a0,-104(s0)
   21640:	a15ff0ef          	jal	ra,21054 <payload_bin+0xa9c>
   21644:	f8a43c23          	sd	a0,-104(s0)
   21648:	0500006f          	j	21698 <payload_bin+0x10e0>
   2164c:	f9843783          	ld	a5,-104(s0)
   21650:	0007c783          	lbu	a5,0(a5)
   21654:	00078713          	mv	a4,a5
   21658:	02a00793          	li	a5,42
   2165c:	02f71e63          	bne	a4,a5,21698 <payload_bin+0x10e0>
   21660:	f9043783          	ld	a5,-112(s0)
   21664:	00878713          	addi	a4,a5,8
   21668:	f8e43823          	sd	a4,-112(s0)
   2166c:	0007a783          	lw	a5,0(a5)
   21670:	faf42a23          	sw	a5,-76(s0)
   21674:	fb442783          	lw	a5,-76(s0)
   21678:	0207d063          	bgez	a5,21698 <payload_bin+0x10e0>
   2167c:	fb442783          	lw	a5,-76(s0)
   21680:	40f007bb          	negw	a5,a5
   21684:	0007879b          	sext.w	a5,a5
   21688:	faf42a23          	sw	a5,-76(s0)
   2168c:	fe442783          	lw	a5,-28(s0)
   21690:	0107e793          	ori	a5,a5,16
   21694:	fef42223          	sw	a5,-28(s0)
   21698:	fff00793          	li	a5,-1
   2169c:	faf42823          	sw	a5,-80(s0)
   216a0:	f9843783          	ld	a5,-104(s0)
   216a4:	0007c783          	lbu	a5,0(a5)
   216a8:	00078713          	mv	a4,a5
   216ac:	02e00793          	li	a5,46
   216b0:	08f71263          	bne	a4,a5,21734 <payload_bin+0x117c>
   216b4:	f9843783          	ld	a5,-104(s0)
   216b8:	00178793          	addi	a5,a5,1
   216bc:	f8f43c23          	sd	a5,-104(s0)
   216c0:	f9843783          	ld	a5,-104(s0)
   216c4:	0007c783          	lbu	a5,0(a5)
   216c8:	00078713          	mv	a4,a5
   216cc:	02f00793          	li	a5,47
   216d0:	02e7f863          	bgeu	a5,a4,21700 <payload_bin+0x1148>
   216d4:	f9843783          	ld	a5,-104(s0)
   216d8:	0007c783          	lbu	a5,0(a5)
   216dc:	00078713          	mv	a4,a5
   216e0:	03900793          	li	a5,57
   216e4:	00e7ee63          	bltu	a5,a4,21700 <payload_bin+0x1148>
   216e8:	fb040793          	addi	a5,s0,-80
   216ec:	00078593          	mv	a1,a5
   216f0:	f9843503          	ld	a0,-104(s0)
   216f4:	961ff0ef          	jal	ra,21054 <payload_bin+0xa9c>
   216f8:	f8a43c23          	sd	a0,-104(s0)
   216fc:	02c0006f          	j	21728 <payload_bin+0x1170>
   21700:	f9843783          	ld	a5,-104(s0)
   21704:	0007c783          	lbu	a5,0(a5)
   21708:	00078713          	mv	a4,a5
   2170c:	02a00793          	li	a5,42
   21710:	00f71c63          	bne	a4,a5,21728 <payload_bin+0x1170>
   21714:	f9043783          	ld	a5,-112(s0)
   21718:	00878713          	addi	a4,a5,8
   2171c:	f8e43823          	sd	a4,-112(s0)
   21720:	0007a783          	lw	a5,0(a5)
   21724:	faf42823          	sw	a5,-80(s0)
   21728:	fb042783          	lw	a5,-80(s0)
   2172c:	0007d463          	bgez	a5,21734 <payload_bin+0x117c>
   21730:	fa042823          	sw	zero,-80(s0)
   21734:	fff00793          	li	a5,-1
   21738:	fef42023          	sw	a5,-32(s0)
   2173c:	f9843783          	ld	a5,-104(s0)
   21740:	0007c783          	lbu	a5,0(a5)
   21744:	00078713          	mv	a4,a5
   21748:	06800793          	li	a5,104
   2174c:	02f70663          	beq	a4,a5,21778 <payload_bin+0x11c0>
   21750:	f9843783          	ld	a5,-104(s0)
   21754:	0007c783          	lbu	a5,0(a5)
   21758:	00078713          	mv	a4,a5
   2175c:	06c00793          	li	a5,108
   21760:	00f70c63          	beq	a4,a5,21778 <payload_bin+0x11c0>
   21764:	f9843783          	ld	a5,-104(s0)
   21768:	0007c783          	lbu	a5,0(a5)
   2176c:	00078713          	mv	a4,a5
   21770:	04c00793          	li	a5,76
   21774:	04f71a63          	bne	a4,a5,217c8 <payload_bin+0x1210>
   21778:	f9843783          	ld	a5,-104(s0)
   2177c:	0007c783          	lbu	a5,0(a5)
   21780:	fef42023          	sw	a5,-32(s0)
   21784:	f9843783          	ld	a5,-104(s0)
   21788:	00178793          	addi	a5,a5,1
   2178c:	f8f43c23          	sd	a5,-104(s0)
   21790:	fe042783          	lw	a5,-32(s0)
   21794:	0007871b          	sext.w	a4,a5
   21798:	06c00793          	li	a5,108
   2179c:	02f71663          	bne	a4,a5,217c8 <payload_bin+0x1210>
   217a0:	f9843783          	ld	a5,-104(s0)
   217a4:	0007c783          	lbu	a5,0(a5)
   217a8:	00078713          	mv	a4,a5
   217ac:	06c00793          	li	a5,108
   217b0:	00f71c63          	bne	a4,a5,217c8 <payload_bin+0x1210>
   217b4:	04c00793          	li	a5,76
   217b8:	fef42023          	sw	a5,-32(s0)
   217bc:	f9843783          	ld	a5,-104(s0)
   217c0:	00178793          	addi	a5,a5,1
   217c4:	f8f43c23          	sd	a5,-104(s0)
   217c8:	f9843783          	ld	a5,-104(s0)
   217cc:	0007c783          	lbu	a5,0(a5)
   217d0:	0007879b          	sext.w	a5,a5
   217d4:	fa87869b          	addiw	a3,a5,-88
   217d8:	0006871b          	sext.w	a4,a3
   217dc:	02000793          	li	a5,32
   217e0:	2ae7ec63          	bltu	a5,a4,21a98 <payload_bin+0x14e0>
   217e4:	02069793          	slli	a5,a3,0x20
   217e8:	0207d793          	srli	a5,a5,0x20
   217ec:	00279713          	slli	a4,a5,0x2
   217f0:	00002797          	auipc	a5,0x2
   217f4:	f8c78793          	addi	a5,a5,-116 # 2377c <payload_bin+0x31c4>
   217f8:	00f707b3          	add	a5,a4,a5
   217fc:	0007a783          	lw	a5,0(a5)
   21800:	0007871b          	sext.w	a4,a5
   21804:	00002797          	auipc	a5,0x2
   21808:	f7878793          	addi	a5,a5,-136 # 2377c <payload_bin+0x31c4>
   2180c:	00f707b3          	add	a5,a4,a5
   21810:	00078067          	jr	a5
   21814:	fe442783          	lw	a5,-28(s0)
   21818:	0107f793          	andi	a5,a5,16
   2181c:	0007879b          	sext.w	a5,a5
   21820:	02079a63          	bnez	a5,21854 <payload_bin+0x129c>
   21824:	0180006f          	j	2183c <payload_bin+0x1284>
   21828:	fe843783          	ld	a5,-24(s0)
   2182c:	00178713          	addi	a4,a5,1
   21830:	fee43423          	sd	a4,-24(s0)
   21834:	02000713          	li	a4,32
   21838:	00e78023          	sb	a4,0(a5)
   2183c:	fb442783          	lw	a5,-76(s0)
   21840:	fff7879b          	addiw	a5,a5,-1
   21844:	0007879b          	sext.w	a5,a5
   21848:	faf42a23          	sw	a5,-76(s0)
   2184c:	fb442783          	lw	a5,-76(s0)
   21850:	fcf04ce3          	bgtz	a5,21828 <payload_bin+0x1270>
   21854:	f9043783          	ld	a5,-112(s0)
   21858:	00878713          	addi	a4,a5,8
   2185c:	f8e43823          	sd	a4,-112(s0)
   21860:	0007a683          	lw	a3,0(a5)
   21864:	fe843783          	ld	a5,-24(s0)
   21868:	00178713          	addi	a4,a5,1
   2186c:	fee43423          	sd	a4,-24(s0)
   21870:	0ff6f713          	andi	a4,a3,255
   21874:	00e78023          	sb	a4,0(a5)
   21878:	0180006f          	j	21890 <payload_bin+0x12d8>
   2187c:	fe843783          	ld	a5,-24(s0)
   21880:	00178713          	addi	a4,a5,1
   21884:	fee43423          	sd	a4,-24(s0)
   21888:	02000713          	li	a4,32
   2188c:	00e78023          	sb	a4,0(a5)
   21890:	fb442783          	lw	a5,-76(s0)
   21894:	fff7879b          	addiw	a5,a5,-1
   21898:	0007879b          	sext.w	a5,a5
   2189c:	faf42a23          	sw	a5,-76(s0)
   218a0:	fb442783          	lw	a5,-76(s0)
   218a4:	fcf04ce3          	bgtz	a5,2187c <payload_bin+0x12c4>
   218a8:	3b40006f          	j	21c5c <payload_bin+0x16a4>
   218ac:	f9043783          	ld	a5,-112(s0)
   218b0:	00878713          	addi	a4,a5,8
   218b4:	f8e43823          	sd	a4,-112(s0)
   218b8:	0007b783          	ld	a5,0(a5)
   218bc:	fcf43c23          	sd	a5,-40(s0)
   218c0:	fd843783          	ld	a5,-40(s0)
   218c4:	00079863          	bnez	a5,218d4 <payload_bin+0x131c>
   218c8:	00002797          	auipc	a5,0x2
   218cc:	e6878793          	addi	a5,a5,-408 # 23730 <payload_bin+0x3178>
   218d0:	fcf43c23          	sd	a5,-40(s0)
   218d4:	fd843503          	ld	a0,-40(s0)
   218d8:	5e4000ef          	jal	ra,21ebc <payload_bin+0x1904>
   218dc:	00050793          	mv	a5,a0
   218e0:	fcf42823          	sw	a5,-48(s0)
   218e4:	fb042783          	lw	a5,-80(s0)
   218e8:	0007d863          	bgez	a5,218f8 <payload_bin+0x1340>
   218ec:	fd042783          	lw	a5,-48(s0)
   218f0:	faf42823          	sw	a5,-80(s0)
   218f4:	01c0006f          	j	21910 <payload_bin+0x1358>
   218f8:	fb042703          	lw	a4,-80(s0)
   218fc:	fd042783          	lw	a5,-48(s0)
   21900:	0007879b          	sext.w	a5,a5
   21904:	00f75663          	bge	a4,a5,21910 <payload_bin+0x1358>
   21908:	fb042783          	lw	a5,-80(s0)
   2190c:	fcf42823          	sw	a5,-48(s0)
   21910:	fe442783          	lw	a5,-28(s0)
   21914:	0107f793          	andi	a5,a5,16
   21918:	0007879b          	sext.w	a5,a5
   2191c:	02079c63          	bnez	a5,21954 <payload_bin+0x139c>
   21920:	0180006f          	j	21938 <payload_bin+0x1380>
   21924:	fe843783          	ld	a5,-24(s0)
   21928:	00178713          	addi	a4,a5,1
   2192c:	fee43423          	sd	a4,-24(s0)
   21930:	02000713          	li	a4,32
   21934:	00e78023          	sb	a4,0(a5)
   21938:	fb442783          	lw	a5,-76(s0)
   2193c:	fff7871b          	addiw	a4,a5,-1
   21940:	0007071b          	sext.w	a4,a4
   21944:	fae42a23          	sw	a4,-76(s0)
   21948:	fd042703          	lw	a4,-48(s0)
   2194c:	0007071b          	sext.w	a4,a4
   21950:	fcf74ae3          	blt	a4,a5,21924 <payload_bin+0x136c>
   21954:	fc042a23          	sw	zero,-44(s0)
   21958:	0300006f          	j	21988 <payload_bin+0x13d0>
   2195c:	fd843703          	ld	a4,-40(s0)
   21960:	00170793          	addi	a5,a4,1
   21964:	fcf43c23          	sd	a5,-40(s0)
   21968:	fe843783          	ld	a5,-24(s0)
   2196c:	00178693          	addi	a3,a5,1
   21970:	fed43423          	sd	a3,-24(s0)
   21974:	00074703          	lbu	a4,0(a4)
   21978:	00e78023          	sb	a4,0(a5)
   2197c:	fd442783          	lw	a5,-44(s0)
   21980:	0017879b          	addiw	a5,a5,1
   21984:	fcf42a23          	sw	a5,-44(s0)
   21988:	fd442703          	lw	a4,-44(s0)
   2198c:	fd042783          	lw	a5,-48(s0)
   21990:	0007071b          	sext.w	a4,a4
   21994:	0007879b          	sext.w	a5,a5
   21998:	fcf742e3          	blt	a4,a5,2195c <payload_bin+0x13a4>
   2199c:	0180006f          	j	219b4 <payload_bin+0x13fc>
   219a0:	fe843783          	ld	a5,-24(s0)
   219a4:	00178713          	addi	a4,a5,1
   219a8:	fee43423          	sd	a4,-24(s0)
   219ac:	02000713          	li	a4,32
   219b0:	00e78023          	sb	a4,0(a5)
   219b4:	fb442783          	lw	a5,-76(s0)
   219b8:	fff7871b          	addiw	a4,a5,-1
   219bc:	0007071b          	sext.w	a4,a4
   219c0:	fae42a23          	sw	a4,-76(s0)
   219c4:	fd042703          	lw	a4,-48(s0)
   219c8:	0007071b          	sext.w	a4,a4
   219cc:	fcf74ae3          	blt	a4,a5,219a0 <payload_bin+0x13e8>
   219d0:	28c0006f          	j	21c5c <payload_bin+0x16a4>
   219d4:	f9043783          	ld	a5,-112(s0)
   219d8:	00878713          	addi	a4,a5,8
   219dc:	f8e43823          	sd	a4,-112(s0)
   219e0:	0007b783          	ld	a5,0(a5)
   219e4:	faf43c23          	sd	a5,-72(s0)
   219e8:	fe843703          	ld	a4,-24(s0)
   219ec:	fa843783          	ld	a5,-88(s0)
   219f0:	40f707b3          	sub	a5,a4,a5
   219f4:	0ff7f713          	andi	a4,a5,255
   219f8:	fb843783          	ld	a5,-72(s0)
   219fc:	00e78023          	sb	a4,0(a5)
   21a00:	25c0006f          	j	21c5c <payload_bin+0x16a4>
   21a04:	fb442783          	lw	a5,-76(s0)
   21a08:	00078713          	mv	a4,a5
   21a0c:	fff00793          	li	a5,-1
   21a10:	00f71c63          	bne	a4,a5,21a28 <payload_bin+0x1470>
   21a14:	01000793          	li	a5,16
   21a18:	faf42a23          	sw	a5,-76(s0)
   21a1c:	fe442783          	lw	a5,-28(s0)
   21a20:	0017e793          	ori	a5,a5,1
   21a24:	fef42223          	sw	a5,-28(s0)
   21a28:	f9043783          	ld	a5,-112(s0)
   21a2c:	00878713          	addi	a4,a5,8
   21a30:	f8e43823          	sd	a4,-112(s0)
   21a34:	0007b783          	ld	a5,0(a5)
   21a38:	00078593          	mv	a1,a5
   21a3c:	fb442683          	lw	a3,-76(s0)
   21a40:	fb042703          	lw	a4,-80(s0)
   21a44:	fe442783          	lw	a5,-28(s0)
   21a48:	01000613          	li	a2,16
   21a4c:	fe843503          	ld	a0,-24(s0)
   21a50:	ea8ff0ef          	jal	ra,210f8 <payload_bin+0xb40>
   21a54:	fea43423          	sd	a0,-24(s0)
   21a58:	2040006f          	j	21c5c <payload_bin+0x16a4>
   21a5c:	00800793          	li	a5,8
   21a60:	fcf42223          	sw	a5,-60(s0)
   21a64:	0940006f          	j	21af8 <payload_bin+0x1540>
   21a68:	fe442783          	lw	a5,-28(s0)
   21a6c:	0407e793          	ori	a5,a5,64
   21a70:	fef42223          	sw	a5,-28(s0)
   21a74:	01000793          	li	a5,16
   21a78:	fcf42223          	sw	a5,-60(s0)
   21a7c:	07c0006f          	j	21af8 <payload_bin+0x1540>
   21a80:	fe442783          	lw	a5,-28(s0)
   21a84:	0027e793          	ori	a5,a5,2
   21a88:	fef42223          	sw	a5,-28(s0)
   21a8c:	00a00793          	li	a5,10
   21a90:	fcf42223          	sw	a5,-60(s0)
   21a94:	0640006f          	j	21af8 <payload_bin+0x1540>
   21a98:	f9843783          	ld	a5,-104(s0)
   21a9c:	0007c783          	lbu	a5,0(a5)
   21aa0:	00078713          	mv	a4,a5
   21aa4:	02500793          	li	a5,37
   21aa8:	00f70c63          	beq	a4,a5,21ac0 <payload_bin+0x1508>
   21aac:	fe843783          	ld	a5,-24(s0)
   21ab0:	00178713          	addi	a4,a5,1
   21ab4:	fee43423          	sd	a4,-24(s0)
   21ab8:	02500713          	li	a4,37
   21abc:	00e78023          	sb	a4,0(a5)
   21ac0:	f9843783          	ld	a5,-104(s0)
   21ac4:	0007c783          	lbu	a5,0(a5)
   21ac8:	02078063          	beqz	a5,21ae8 <payload_bin+0x1530>
   21acc:	fe843783          	ld	a5,-24(s0)
   21ad0:	00178713          	addi	a4,a5,1
   21ad4:	fee43423          	sd	a4,-24(s0)
   21ad8:	f9843703          	ld	a4,-104(s0)
   21adc:	00074703          	lbu	a4,0(a4)
   21ae0:	00e78023          	sb	a4,0(a5)
   21ae4:	0100006f          	j	21af4 <payload_bin+0x153c>
   21ae8:	f9843783          	ld	a5,-104(s0)
   21aec:	fff78793          	addi	a5,a5,-1
   21af0:	f8f43c23          	sd	a5,-104(s0)
   21af4:	00000013          	nop
   21af8:	fe042783          	lw	a5,-32(s0)
   21afc:	0007871b          	sext.w	a4,a5
   21b00:	04c00793          	li	a5,76
   21b04:	04f71263          	bne	a4,a5,21b48 <payload_bin+0x1590>
   21b08:	fe442783          	lw	a5,-28(s0)
   21b0c:	0027f793          	andi	a5,a5,2
   21b10:	0007879b          	sext.w	a5,a5
   21b14:	00078e63          	beqz	a5,21b30 <payload_bin+0x1578>
   21b18:	f9043783          	ld	a5,-112(s0)
   21b1c:	00878713          	addi	a4,a5,8
   21b20:	f8e43823          	sd	a4,-112(s0)
   21b24:	0007b783          	ld	a5,0(a5)
   21b28:	fcf43423          	sd	a5,-56(s0)
   21b2c:	1100006f          	j	21c3c <payload_bin+0x1684>
   21b30:	f9043783          	ld	a5,-112(s0)
   21b34:	00878713          	addi	a4,a5,8
   21b38:	f8e43823          	sd	a4,-112(s0)
   21b3c:	0007b783          	ld	a5,0(a5)
   21b40:	fcf43423          	sd	a5,-56(s0)
   21b44:	0f80006f          	j	21c3c <payload_bin+0x1684>
   21b48:	fe042783          	lw	a5,-32(s0)
   21b4c:	0007871b          	sext.w	a4,a5
   21b50:	06800793          	li	a5,104
   21b54:	04f71a63          	bne	a4,a5,21ba8 <payload_bin+0x15f0>
   21b58:	fe442783          	lw	a5,-28(s0)
   21b5c:	0027f793          	andi	a5,a5,2
   21b60:	0007879b          	sext.w	a5,a5
   21b64:	02078263          	beqz	a5,21b88 <payload_bin+0x15d0>
   21b68:	f9043783          	ld	a5,-112(s0)
   21b6c:	00878713          	addi	a4,a5,8
   21b70:	f8e43823          	sd	a4,-112(s0)
   21b74:	0007a783          	lw	a5,0(a5)
   21b78:	0107979b          	slliw	a5,a5,0x10
   21b7c:	4107d79b          	sraiw	a5,a5,0x10
   21b80:	fcf43423          	sd	a5,-56(s0)
   21b84:	0b80006f          	j	21c3c <payload_bin+0x1684>
   21b88:	f9043783          	ld	a5,-112(s0)
   21b8c:	00878713          	addi	a4,a5,8
   21b90:	f8e43823          	sd	a4,-112(s0)
   21b94:	0007a783          	lw	a5,0(a5)
   21b98:	03079793          	slli	a5,a5,0x30
   21b9c:	0307d793          	srli	a5,a5,0x30
   21ba0:	fcf43423          	sd	a5,-56(s0)
   21ba4:	0980006f          	j	21c3c <payload_bin+0x1684>
   21ba8:	fe042783          	lw	a5,-32(s0)
   21bac:	0007871b          	sext.w	a4,a5
   21bb0:	06c00793          	li	a5,108
   21bb4:	04f71263          	bne	a4,a5,21bf8 <payload_bin+0x1640>
   21bb8:	fe442783          	lw	a5,-28(s0)
   21bbc:	0027f793          	andi	a5,a5,2
   21bc0:	0007879b          	sext.w	a5,a5
   21bc4:	00078e63          	beqz	a5,21be0 <payload_bin+0x1628>
   21bc8:	f9043783          	ld	a5,-112(s0)
   21bcc:	00878713          	addi	a4,a5,8
   21bd0:	f8e43823          	sd	a4,-112(s0)
   21bd4:	0007b783          	ld	a5,0(a5)
   21bd8:	fcf43423          	sd	a5,-56(s0)
   21bdc:	0600006f          	j	21c3c <payload_bin+0x1684>
   21be0:	f9043783          	ld	a5,-112(s0)
   21be4:	00878713          	addi	a4,a5,8
   21be8:	f8e43823          	sd	a4,-112(s0)
   21bec:	0007b783          	ld	a5,0(a5)
   21bf0:	fcf43423          	sd	a5,-56(s0)
   21bf4:	0480006f          	j	21c3c <payload_bin+0x1684>
   21bf8:	fe442783          	lw	a5,-28(s0)
   21bfc:	0027f793          	andi	a5,a5,2
   21c00:	0007879b          	sext.w	a5,a5
   21c04:	00078e63          	beqz	a5,21c20 <payload_bin+0x1668>
   21c08:	f9043783          	ld	a5,-112(s0)
   21c0c:	00878713          	addi	a4,a5,8
   21c10:	f8e43823          	sd	a4,-112(s0)
   21c14:	0007a783          	lw	a5,0(a5)
   21c18:	fcf43423          	sd	a5,-56(s0)
   21c1c:	0200006f          	j	21c3c <payload_bin+0x1684>
   21c20:	f9043783          	ld	a5,-112(s0)
   21c24:	00878713          	addi	a4,a5,8
   21c28:	f8e43823          	sd	a4,-112(s0)
   21c2c:	0007a783          	lw	a5,0(a5)
   21c30:	02079793          	slli	a5,a5,0x20
   21c34:	0207d793          	srli	a5,a5,0x20
   21c38:	fcf43423          	sd	a5,-56(s0)
   21c3c:	fb442683          	lw	a3,-76(s0)
   21c40:	fb042703          	lw	a4,-80(s0)
   21c44:	fe442783          	lw	a5,-28(s0)
   21c48:	fc442603          	lw	a2,-60(s0)
   21c4c:	fc843583          	ld	a1,-56(s0)
   21c50:	fe843503          	ld	a0,-24(s0)
   21c54:	ca4ff0ef          	jal	ra,210f8 <payload_bin+0xb40>
   21c58:	fea43423          	sd	a0,-24(s0)
   21c5c:	f9843783          	ld	a5,-104(s0)
   21c60:	00178793          	addi	a5,a5,1
   21c64:	f8f43c23          	sd	a5,-104(s0)
   21c68:	f9843783          	ld	a5,-104(s0)
   21c6c:	0007c783          	lbu	a5,0(a5)
   21c70:	8a079ce3          	bnez	a5,21528 <payload_bin+0xf70>
   21c74:	fe843783          	ld	a5,-24(s0)
   21c78:	00078023          	sb	zero,0(a5)
   21c7c:	fe843703          	ld	a4,-24(s0)
   21c80:	fa843783          	ld	a5,-88(s0)
   21c84:	40f707b3          	sub	a5,a4,a5
   21c88:	0007879b          	sext.w	a5,a5
   21c8c:	00078513          	mv	a0,a5
   21c90:	06813083          	ld	ra,104(sp)
   21c94:	06013403          	ld	s0,96(sp)
   21c98:	07010113          	addi	sp,sp,112
   21c9c:	00008067          	ret
   21ca0:	fe010113          	addi	sp,sp,-32
   21ca4:	00113c23          	sd	ra,24(sp)
   21ca8:	00813823          	sd	s0,16(sp)
   21cac:	02010413          	addi	s0,sp,32
   21cb0:	00004797          	auipc	a5,0x4
   21cb4:	b1078793          	addi	a5,a5,-1264 # 257c0 <payload_bin+0x5208>
   21cb8:	00100713          	li	a4,1
   21cbc:	00e7a023          	sw	a4,0(a5)
   21cc0:	fe043423          	sd	zero,-24(s0)
   21cc4:	0300006f          	j	21cf4 <payload_bin+0x173c>
   21cc8:	00004717          	auipc	a4,0x4
   21ccc:	9f870713          	addi	a4,a4,-1544 # 256c0 <payload_bin+0x5108>
   21cd0:	fe843783          	ld	a5,-24(s0)
   21cd4:	00f707b3          	add	a5,a4,a5
   21cd8:	0007c783          	lbu	a5,0(a5)
   21cdc:	0007879b          	sext.w	a5,a5
   21ce0:	00078513          	mv	a0,a5
   21ce4:	591000ef          	jal	ra,22a74 <payload_bin+0x24bc>
   21ce8:	fe843783          	ld	a5,-24(s0)
   21cec:	00178793          	addi	a5,a5,1
   21cf0:	fef43423          	sd	a5,-24(s0)
   21cf4:	00004797          	auipc	a5,0x4
   21cf8:	ad478793          	addi	a5,a5,-1324 # 257c8 <payload_bin+0x5210>
   21cfc:	0007b783          	ld	a5,0(a5)
   21d00:	fe843703          	ld	a4,-24(s0)
   21d04:	fcf762e3          	bltu	a4,a5,21cc8 <payload_bin+0x1710>
   21d08:	00004797          	auipc	a5,0x4
   21d0c:	8b078793          	addi	a5,a5,-1872 # 255b8 <payload_bin+0x5000>
   21d10:	00004717          	auipc	a4,0x4
   21d14:	9b070713          	addi	a4,a4,-1616 # 256c0 <payload_bin+0x5108>
   21d18:	00e7b023          	sd	a4,0(a5)
   21d1c:	00004797          	auipc	a5,0x4
   21d20:	aac78793          	addi	a5,a5,-1364 # 257c8 <payload_bin+0x5210>
   21d24:	0007b023          	sd	zero,0(a5)
   21d28:	00000013          	nop
   21d2c:	01813083          	ld	ra,24(sp)
   21d30:	01013403          	ld	s0,16(sp)
   21d34:	02010113          	addi	sp,sp,32
   21d38:	00008067          	ret
   21d3c:	f9010113          	addi	sp,sp,-112
   21d40:	02113423          	sd	ra,40(sp)
   21d44:	02813023          	sd	s0,32(sp)
   21d48:	03010413          	addi	s0,sp,48
   21d4c:	fca43c23          	sd	a0,-40(s0)
   21d50:	00b43423          	sd	a1,8(s0)
   21d54:	00c43823          	sd	a2,16(s0)
   21d58:	00d43c23          	sd	a3,24(s0)
   21d5c:	02e43023          	sd	a4,32(s0)
   21d60:	02f43423          	sd	a5,40(s0)
   21d64:	03043823          	sd	a6,48(s0)
   21d68:	03143c23          	sd	a7,56(s0)
   21d6c:	04040793          	addi	a5,s0,64
   21d70:	fcf43823          	sd	a5,-48(s0)
   21d74:	fd043783          	ld	a5,-48(s0)
   21d78:	fc878793          	addi	a5,a5,-56
   21d7c:	fef43023          	sd	a5,-32(s0)
   21d80:	fe043783          	ld	a5,-32(s0)
   21d84:	00078693          	mv	a3,a5
   21d88:	fd843603          	ld	a2,-40(s0)
   21d8c:	10000593          	li	a1,256
   21d90:	00004517          	auipc	a0,0x4
   21d94:	83050513          	addi	a0,a0,-2000 # 255c0 <payload_bin+0x5008>
   21d98:	f60ff0ef          	jal	ra,214f8 <payload_bin+0xf40>
   21d9c:	00050793          	mv	a5,a0
   21da0:	fef42423          	sw	a5,-24(s0)
   21da4:	00004797          	auipc	a5,0x4
   21da8:	a1c78793          	addi	a5,a5,-1508 # 257c0 <payload_bin+0x5208>
   21dac:	0007a783          	lw	a5,0(a5)
   21db0:	06079663          	bnez	a5,21e1c <payload_bin+0x1864>
   21db4:	00004797          	auipc	a5,0x4
   21db8:	80478793          	addi	a5,a5,-2044 # 255b8 <payload_bin+0x5000>
   21dbc:	0007b783          	ld	a5,0(a5)
   21dc0:	fe842703          	lw	a4,-24(s0)
   21dc4:	00070613          	mv	a2,a4
   21dc8:	00003597          	auipc	a1,0x3
   21dcc:	7f858593          	addi	a1,a1,2040 # 255c0 <payload_bin+0x5008>
   21dd0:	00078513          	mv	a0,a5
   21dd4:	138000ef          	jal	ra,21f0c <payload_bin+0x1954>
   21dd8:	fe842703          	lw	a4,-24(s0)
   21ddc:	00004797          	auipc	a5,0x4
   21de0:	8e478793          	addi	a5,a5,-1820 # 256c0 <payload_bin+0x5108>
   21de4:	00f70733          	add	a4,a4,a5
   21de8:	00003797          	auipc	a5,0x3
   21dec:	7d078793          	addi	a5,a5,2000 # 255b8 <payload_bin+0x5000>
   21df0:	00e7b023          	sd	a4,0(a5)
   21df4:	fe842703          	lw	a4,-24(s0)
   21df8:	00004797          	auipc	a5,0x4
   21dfc:	9d078793          	addi	a5,a5,-1584 # 257c8 <payload_bin+0x5210>
   21e00:	0007b783          	ld	a5,0(a5)
   21e04:	00f70733          	add	a4,a4,a5
   21e08:	00004797          	auipc	a5,0x4
   21e0c:	9c078793          	addi	a5,a5,-1600 # 257c8 <payload_bin+0x5210>
   21e10:	00e7b023          	sd	a4,0(a5)
   21e14:	00000793          	li	a5,0
   21e18:	0900006f          	j	21ea8 <payload_bin+0x18f0>
   21e1c:	fe042623          	sw	zero,-20(s0)
   21e20:	0680006f          	j	21e88 <payload_bin+0x18d0>
   21e24:	00003717          	auipc	a4,0x3
   21e28:	79c70713          	addi	a4,a4,1948 # 255c0 <payload_bin+0x5008>
   21e2c:	fec42783          	lw	a5,-20(s0)
   21e30:	00f707b3          	add	a5,a4,a5
   21e34:	0007c783          	lbu	a5,0(a5)
   21e38:	00078713          	mv	a4,a5
   21e3c:	00a00793          	li	a5,10
   21e40:	00f71663          	bne	a4,a5,21e4c <payload_bin+0x1894>
   21e44:	00d00513          	li	a0,13
   21e48:	42d000ef          	jal	ra,22a74 <payload_bin+0x24bc>
   21e4c:	00003717          	auipc	a4,0x3
   21e50:	77470713          	addi	a4,a4,1908 # 255c0 <payload_bin+0x5008>
   21e54:	fec42783          	lw	a5,-20(s0)
   21e58:	00f707b3          	add	a5,a4,a5
   21e5c:	0007c783          	lbu	a5,0(a5)
   21e60:	0007879b          	sext.w	a5,a5
   21e64:	00078513          	mv	a0,a5
   21e68:	40d000ef          	jal	ra,22a74 <payload_bin+0x24bc>
   21e6c:	fec42783          	lw	a5,-20(s0)
   21e70:	00078713          	mv	a4,a5
   21e74:	10000793          	li	a5,256
   21e78:	02e7e463          	bltu	a5,a4,21ea0 <payload_bin+0x18e8>
   21e7c:	fec42783          	lw	a5,-20(s0)
   21e80:	0017879b          	addiw	a5,a5,1
   21e84:	fef42623          	sw	a5,-20(s0)
   21e88:	fec42703          	lw	a4,-20(s0)
   21e8c:	fe842783          	lw	a5,-24(s0)
   21e90:	0007071b          	sext.w	a4,a4
   21e94:	0007879b          	sext.w	a5,a5
   21e98:	f8f746e3          	blt	a4,a5,21e24 <payload_bin+0x186c>
   21e9c:	0080006f          	j	21ea4 <payload_bin+0x18ec>
   21ea0:	00000013          	nop
   21ea4:	fe842783          	lw	a5,-24(s0)
   21ea8:	00078513          	mv	a0,a5
   21eac:	02813083          	ld	ra,40(sp)
   21eb0:	02013403          	ld	s0,32(sp)
   21eb4:	07010113          	addi	sp,sp,112
   21eb8:	00008067          	ret
   21ebc:	fd010113          	addi	sp,sp,-48
   21ec0:	02813423          	sd	s0,40(sp)
   21ec4:	03010413          	addi	s0,sp,48
   21ec8:	fca43c23          	sd	a0,-40(s0)
   21ecc:	fd843783          	ld	a5,-40(s0)
   21ed0:	fef43423          	sd	a5,-24(s0)
   21ed4:	0100006f          	j	21ee4 <payload_bin+0x192c>
   21ed8:	fe843783          	ld	a5,-24(s0)
   21edc:	00178793          	addi	a5,a5,1
   21ee0:	fef43423          	sd	a5,-24(s0)
   21ee4:	fe843783          	ld	a5,-24(s0)
   21ee8:	0007c783          	lbu	a5,0(a5)
   21eec:	fe0796e3          	bnez	a5,21ed8 <payload_bin+0x1920>
   21ef0:	fe843703          	ld	a4,-24(s0)
   21ef4:	fd843783          	ld	a5,-40(s0)
   21ef8:	40f707b3          	sub	a5,a4,a5
   21efc:	00078513          	mv	a0,a5
   21f00:	02813403          	ld	s0,40(sp)
   21f04:	03010113          	addi	sp,sp,48
   21f08:	00008067          	ret
   21f0c:	fc010113          	addi	sp,sp,-64
   21f10:	02813c23          	sd	s0,56(sp)
   21f14:	04010413          	addi	s0,sp,64
   21f18:	fca43c23          	sd	a0,-40(s0)
   21f1c:	fcb43823          	sd	a1,-48(s0)
   21f20:	fcc43423          	sd	a2,-56(s0)
   21f24:	fd843783          	ld	a5,-40(s0)
   21f28:	fef43423          	sd	a5,-24(s0)
   21f2c:	fd043783          	ld	a5,-48(s0)
   21f30:	fef43023          	sd	a5,-32(s0)
   21f34:	0240006f          	j	21f58 <payload_bin+0x19a0>
   21f38:	fe043703          	ld	a4,-32(s0)
   21f3c:	00170793          	addi	a5,a4,1
   21f40:	fef43023          	sd	a5,-32(s0)
   21f44:	fe843783          	ld	a5,-24(s0)
   21f48:	00178693          	addi	a3,a5,1
   21f4c:	fed43423          	sd	a3,-24(s0)
   21f50:	00074703          	lbu	a4,0(a4)
   21f54:	00e78023          	sb	a4,0(a5)
   21f58:	fc843783          	ld	a5,-56(s0)
   21f5c:	fff78713          	addi	a4,a5,-1
   21f60:	fce43423          	sd	a4,-56(s0)
   21f64:	fc079ae3          	bnez	a5,21f38 <payload_bin+0x1980>
   21f68:	fd843783          	ld	a5,-40(s0)
   21f6c:	00078513          	mv	a0,a5
   21f70:	03813403          	ld	s0,56(sp)
   21f74:	04010113          	addi	sp,sp,64
   21f78:	00008067          	ret
   21f7c:	fe010113          	addi	sp,sp,-32
   21f80:	00813c23          	sd	s0,24(sp)
   21f84:	02010413          	addi	s0,sp,32
   21f88:	fea43423          	sd	a0,-24(s0)
   21f8c:	fe843783          	ld	a5,-24(s0)
   21f90:	0007a783          	lw	a5,0(a5)
   21f94:	0007879b          	sext.w	a5,a5
   21f98:	00078513          	mv	a0,a5
   21f9c:	01813403          	ld	s0,24(sp)
   21fa0:	02010113          	addi	sp,sp,32
   21fa4:	00008067          	ret
   21fa8:	fe010113          	addi	sp,sp,-32
   21fac:	00813c23          	sd	s0,24(sp)
   21fb0:	02010413          	addi	s0,sp,32
   21fb4:	fea43423          	sd	a0,-24(s0)
   21fb8:	00058793          	mv	a5,a1
   21fbc:	fef42223          	sw	a5,-28(s0)
   21fc0:	fe843783          	ld	a5,-24(s0)
   21fc4:	fe442703          	lw	a4,-28(s0)
   21fc8:	00e7a023          	sw	a4,0(a5)
   21fcc:	00000013          	nop
   21fd0:	01813403          	ld	s0,24(sp)
   21fd4:	02010113          	addi	sp,sp,32
   21fd8:	00008067          	ret
   21fdc:	fe010113          	addi	sp,sp,-32
   21fe0:	00813c23          	sd	s0,24(sp)
   21fe4:	02010413          	addi	s0,sp,32
   21fe8:	fea43423          	sd	a0,-24(s0)
   21fec:	fe843783          	ld	a5,-24(s0)
   21ff0:	00a79793          	slli	a5,a5,0xa
   21ff4:	fef43423          	sd	a5,-24(s0)
   21ff8:	00000013          	nop
   21ffc:	fe843783          	ld	a5,-24(s0)
   22000:	fff78713          	addi	a4,a5,-1
   22004:	fee43423          	sd	a4,-24(s0)
   22008:	fe079ae3          	bnez	a5,21ffc <payload_bin+0x1a44>
   2200c:	00000013          	nop
   22010:	00000013          	nop
   22014:	01813403          	ld	s0,24(sp)
   22018:	02010113          	addi	sp,sp,32
   2201c:	00008067          	ret
   22020:	fe010113          	addi	sp,sp,-32
   22024:	00113c23          	sd	ra,24(sp)
   22028:	00813823          	sd	s0,16(sp)
   2202c:	02010413          	addi	s0,sp,32
   22030:	30100593          	li	a1,769
   22034:	020027b7          	lui	a5,0x2002
   22038:	d0078513          	addi	a0,a5,-768 # 2001d00 <bss_begin+0x1fdad00>
   2203c:	f6dff0ef          	jal	ra,21fa8 <payload_bin+0x19f0>
   22040:	00100513          	li	a0,1
   22044:	f99ff0ef          	jal	ra,21fdc <payload_bin+0x1a24>
   22048:	02001537          	lui	a0,0x2001
   2204c:	f31ff0ef          	jal	ra,21f7c <payload_bin+0x19c4>
   22050:	00050793          	mv	a5,a0
   22054:	fef42623          	sw	a5,-20(s0)
   22058:	fec42703          	lw	a4,-20(s0)
   2205c:	f80007b7          	lui	a5,0xf8000
   22060:	fff78793          	addi	a5,a5,-1 # fffffffff7ffffff <bss_begin+0xfffffffff7fd8fff>
   22064:	00f777b3          	and	a5,a4,a5
   22068:	fef42623          	sw	a5,-20(s0)
   2206c:	fec42783          	lw	a5,-20(s0)
   22070:	00078593          	mv	a1,a5
   22074:	02001537          	lui	a0,0x2001
   22078:	f31ff0ef          	jal	ra,21fa8 <payload_bin+0x19f0>
   2207c:	02001537          	lui	a0,0x2001
   22080:	efdff0ef          	jal	ra,21f7c <payload_bin+0x19c4>
   22084:	00050793          	mv	a5,a0
   22088:	fef42623          	sw	a5,-20(s0)
   2208c:	fec42703          	lw	a4,-20(s0)
   22090:	400007b7          	lui	a5,0x40000
   22094:	00f767b3          	or	a5,a4,a5
   22098:	fef42623          	sw	a5,-20(s0)
   2209c:	fec42783          	lw	a5,-20(s0)
   220a0:	00078593          	mv	a1,a5
   220a4:	02001537          	lui	a0,0x2001
   220a8:	f01ff0ef          	jal	ra,21fa8 <payload_bin+0x19f0>
   220ac:	00500513          	li	a0,5
   220b0:	f2dff0ef          	jal	ra,21fdc <payload_bin+0x1a24>
   220b4:	02001537          	lui	a0,0x2001
   220b8:	ec5ff0ef          	jal	ra,21f7c <payload_bin+0x19c4>
   220bc:	00050793          	mv	a5,a0
   220c0:	fef42623          	sw	a5,-20(s0)
   220c4:	fec42703          	lw	a4,-20(s0)
   220c8:	fffc07b7          	lui	a5,0xfffc0
   220cc:	0fc78793          	addi	a5,a5,252 # fffffffffffc00fc <bss_begin+0xfffffffffff990fc>
   220d0:	00f777b3          	and	a5,a4,a5
   220d4:	fef42623          	sw	a5,-20(s0)
   220d8:	fec42703          	lw	a4,-20(s0)
   220dc:	000037b7          	lui	a5,0x3
   220e0:	90078793          	addi	a5,a5,-1792 # 2900 <__bin_size-0x4700>
   220e4:	00f767b3          	or	a5,a4,a5
   220e8:	fef42623          	sw	a5,-20(s0)
   220ec:	fec42783          	lw	a5,-20(s0)
   220f0:	00078593          	mv	a1,a5
   220f4:	02001537          	lui	a0,0x2001
   220f8:	eb1ff0ef          	jal	ra,21fa8 <payload_bin+0x19f0>
   220fc:	02001537          	lui	a0,0x2001
   22100:	e7dff0ef          	jal	ra,21f7c <payload_bin+0x19c4>
   22104:	00050793          	mv	a5,a0
   22108:	fef42623          	sw	a5,-20(s0)
   2210c:	fec42703          	lw	a4,-20(s0)
   22110:	200007b7          	lui	a5,0x20000
   22114:	00f767b3          	or	a5,a4,a5
   22118:	fef42623          	sw	a5,-20(s0)
   2211c:	fec42783          	lw	a5,-20(s0)
   22120:	00078593          	mv	a1,a5
   22124:	02001537          	lui	a0,0x2001
   22128:	e81ff0ef          	jal	ra,21fa8 <payload_bin+0x19f0>
   2212c:	02001537          	lui	a0,0x2001
   22130:	e4dff0ef          	jal	ra,21f7c <payload_bin+0x19c4>
   22134:	00050793          	mv	a5,a0
   22138:	fef42623          	sw	a5,-20(s0)
   2213c:	fec42703          	lw	a4,-20(s0)
   22140:	800007b7          	lui	a5,0x80000
   22144:	00f767b3          	or	a5,a4,a5
   22148:	fef42623          	sw	a5,-20(s0)
   2214c:	fec42783          	lw	a5,-20(s0)
   22150:	00078593          	mv	a1,a5
   22154:	02001537          	lui	a0,0x2001
   22158:	e51ff0ef          	jal	ra,21fa8 <payload_bin+0x19f0>
   2215c:	00000013          	nop
   22160:	02001537          	lui	a0,0x2001
   22164:	e19ff0ef          	jal	ra,21f7c <payload_bin+0x19c4>
   22168:	00050793          	mv	a5,a0
   2216c:	0007879b          	sext.w	a5,a5
   22170:	00078713          	mv	a4,a5
   22174:	100007b7          	lui	a5,0x10000
   22178:	00f777b3          	and	a5,a4,a5
   2217c:	0007879b          	sext.w	a5,a5
   22180:	fe0780e3          	beqz	a5,22160 <payload_bin+0x1ba8>
   22184:	01400513          	li	a0,20
   22188:	e55ff0ef          	jal	ra,21fdc <payload_bin+0x1a24>
   2218c:	02001537          	lui	a0,0x2001
   22190:	dedff0ef          	jal	ra,21f7c <payload_bin+0x19c4>
   22194:	00050793          	mv	a5,a0
   22198:	fef42623          	sw	a5,-20(s0)
   2219c:	fec42703          	lw	a4,-20(s0)
   221a0:	080007b7          	lui	a5,0x8000
   221a4:	00f767b3          	or	a5,a4,a5
   221a8:	fef42623          	sw	a5,-20(s0)
   221ac:	fec42783          	lw	a5,-20(s0)
   221b0:	00078593          	mv	a1,a5
   221b4:	02001537          	lui	a0,0x2001
   221b8:	df1ff0ef          	jal	ra,21fa8 <payload_bin+0x19f0>
   221bc:	02001537          	lui	a0,0x2001
   221c0:	dbdff0ef          	jal	ra,21f7c <payload_bin+0x19c4>
   221c4:	00050793          	mv	a5,a0
   221c8:	fef42623          	sw	a5,-20(s0)
   221cc:	fec42703          	lw	a4,-20(s0)
   221d0:	e00007b7          	lui	a5,0xe0000
   221d4:	fff78793          	addi	a5,a5,-1 # ffffffffdfffffff <bss_begin+0xffffffffdffd8fff>
   221d8:	00f777b3          	and	a5,a4,a5
   221dc:	fef42623          	sw	a5,-20(s0)
   221e0:	fec42783          	lw	a5,-20(s0)
   221e4:	00078593          	mv	a1,a5
   221e8:	02001537          	lui	a0,0x2001
   221ec:	dbdff0ef          	jal	ra,21fa8 <payload_bin+0x19f0>
   221f0:	00100513          	li	a0,1
   221f4:	de9ff0ef          	jal	ra,21fdc <payload_bin+0x1a24>
   221f8:	020027b7          	lui	a5,0x2002
   221fc:	d0078513          	addi	a0,a5,-768 # 2001d00 <bss_begin+0x1fdad00>
   22200:	d7dff0ef          	jal	ra,21f7c <payload_bin+0x19c4>
   22204:	00050793          	mv	a5,a0
   22208:	fef42623          	sw	a5,-20(s0)
   2220c:	fec42703          	lw	a4,-20(s0)
   22210:	f90007b7          	lui	a5,0xf9000
   22214:	cf078793          	addi	a5,a5,-784 # fffffffff8fffcf0 <bss_begin+0xfffffffff8fd8cf0>
   22218:	00f777b3          	and	a5,a4,a5
   2221c:	fef42623          	sw	a5,-20(s0)
   22220:	fec42703          	lw	a4,-20(s0)
   22224:	050007b7          	lui	a5,0x5000
   22228:	10078793          	addi	a5,a5,256 # 5000100 <bss_begin+0x4fd9100>
   2222c:	00f767b3          	or	a5,a4,a5
   22230:	fef42623          	sw	a5,-20(s0)
   22234:	fec42783          	lw	a5,-20(s0)
   22238:	00078593          	mv	a1,a5
   2223c:	020027b7          	lui	a5,0x2002
   22240:	d0078513          	addi	a0,a5,-768 # 2001d00 <bss_begin+0x1fdad00>
   22244:	d65ff0ef          	jal	ra,21fa8 <payload_bin+0x19f0>
   22248:	00100513          	li	a0,1
   2224c:	d91ff0ef          	jal	ra,21fdc <payload_bin+0x1a24>
   22250:	00000013          	nop
   22254:	01813083          	ld	ra,24(sp)
   22258:	01013403          	ld	s0,16(sp)
   2225c:	02010113          	addi	sp,sp,32
   22260:	00008067          	ret
   22264:	fe010113          	addi	sp,sp,-32
   22268:	00113c23          	sd	ra,24(sp)
   2226c:	00813823          	sd	s0,16(sp)
   22270:	02010413          	addi	s0,sp,32
   22274:	020017b7          	lui	a5,0x2001
   22278:	02078513          	addi	a0,a5,32 # 2001020 <bss_begin+0x1fda020>
   2227c:	d01ff0ef          	jal	ra,21f7c <payload_bin+0x19c4>
   22280:	00050793          	mv	a5,a0
   22284:	0007879b          	sext.w	a5,a5
   22288:	0007879b          	sext.w	a5,a5
   2228c:	1207cc63          	bltz	a5,223c4 <payload_bin+0x1e0c>
   22290:	020017b7          	lui	a5,0x2001
   22294:	51078513          	addi	a0,a5,1296 # 2001510 <bss_begin+0x1fda510>
   22298:	ce5ff0ef          	jal	ra,21f7c <payload_bin+0x19c4>
   2229c:	00050793          	mv	a5,a0
   222a0:	fef42623          	sw	a5,-20(s0)
   222a4:	fec42703          	lw	a4,-20(s0)
   222a8:	fd0007b7          	lui	a5,0xfd000
   222ac:	fff78793          	addi	a5,a5,-1 # fffffffffcffffff <bss_begin+0xfffffffffcfd8fff>
   222b0:	00f777b3          	and	a5,a4,a5
   222b4:	fef42623          	sw	a5,-20(s0)
   222b8:	fec46703          	lwu	a4,-20(s0)
   222bc:	020017b7          	lui	a5,0x2001
   222c0:	51078593          	addi	a1,a5,1296 # 2001510 <bss_begin+0x1fda510>
   222c4:	00070513          	mv	a0,a4
   222c8:	ce1ff0ef          	jal	ra,21fa8 <payload_bin+0x19f0>
   222cc:	000067b7          	lui	a5,0x6
   222d0:	30078593          	addi	a1,a5,768 # 6300 <__bin_size-0xd00>
   222d4:	020017b7          	lui	a5,0x2001
   222d8:	02078513          	addi	a0,a5,32 # 2001020 <bss_begin+0x1fda020>
   222dc:	ccdff0ef          	jal	ra,21fa8 <payload_bin+0x19f0>
   222e0:	020017b7          	lui	a5,0x2001
   222e4:	02078513          	addi	a0,a5,32 # 2001020 <bss_begin+0x1fda020>
   222e8:	c95ff0ef          	jal	ra,21f7c <payload_bin+0x19c4>
   222ec:	00050793          	mv	a5,a0
   222f0:	fef42623          	sw	a5,-20(s0)
   222f4:	fec42703          	lw	a4,-20(s0)
   222f8:	200007b7          	lui	a5,0x20000
   222fc:	00f767b3          	or	a5,a4,a5
   22300:	fef42623          	sw	a5,-20(s0)
   22304:	fec42783          	lw	a5,-20(s0)
   22308:	00078593          	mv	a1,a5
   2230c:	020017b7          	lui	a5,0x2001
   22310:	02078513          	addi	a0,a5,32 # 2001020 <bss_begin+0x1fda020>
   22314:	c95ff0ef          	jal	ra,21fa8 <payload_bin+0x19f0>
   22318:	020017b7          	lui	a5,0x2001
   2231c:	02078513          	addi	a0,a5,32 # 2001020 <bss_begin+0x1fda020>
   22320:	c5dff0ef          	jal	ra,21f7c <payload_bin+0x19c4>
   22324:	00050793          	mv	a5,a0
   22328:	fef42623          	sw	a5,-20(s0)
   2232c:	fec42703          	lw	a4,-20(s0)
   22330:	800007b7          	lui	a5,0x80000
   22334:	00f767b3          	or	a5,a4,a5
   22338:	fef42623          	sw	a5,-20(s0)
   2233c:	fec42783          	lw	a5,-20(s0)
   22340:	00078593          	mv	a1,a5
   22344:	020017b7          	lui	a5,0x2001
   22348:	02078513          	addi	a0,a5,32 # 2001020 <bss_begin+0x1fda020>
   2234c:	c5dff0ef          	jal	ra,21fa8 <payload_bin+0x19f0>
   22350:	00000013          	nop
   22354:	020017b7          	lui	a5,0x2001
   22358:	02078513          	addi	a0,a5,32 # 2001020 <bss_begin+0x1fda020>
   2235c:	c21ff0ef          	jal	ra,21f7c <payload_bin+0x19c4>
   22360:	00050793          	mv	a5,a0
   22364:	0007879b          	sext.w	a5,a5
   22368:	00078713          	mv	a4,a5
   2236c:	100007b7          	lui	a5,0x10000
   22370:	00f777b3          	and	a5,a4,a5
   22374:	0007879b          	sext.w	a5,a5
   22378:	fc078ee3          	beqz	a5,22354 <payload_bin+0x1d9c>
   2237c:	01400513          	li	a0,20
   22380:	c5dff0ef          	jal	ra,21fdc <payload_bin+0x1a24>
   22384:	020017b7          	lui	a5,0x2001
   22388:	02078513          	addi	a0,a5,32 # 2001020 <bss_begin+0x1fda020>
   2238c:	bf1ff0ef          	jal	ra,21f7c <payload_bin+0x19c4>
   22390:	00050793          	mv	a5,a0
   22394:	fef42623          	sw	a5,-20(s0)
   22398:	fec42703          	lw	a4,-20(s0)
   2239c:	e00007b7          	lui	a5,0xe0000
   223a0:	fff78793          	addi	a5,a5,-1 # ffffffffdfffffff <bss_begin+0xffffffffdffd8fff>
   223a4:	00f777b3          	and	a5,a4,a5
   223a8:	fef42623          	sw	a5,-20(s0)
   223ac:	fec42783          	lw	a5,-20(s0)
   223b0:	00078593          	mv	a1,a5
   223b4:	020017b7          	lui	a5,0x2001
   223b8:	02078513          	addi	a0,a5,32 # 2001020 <bss_begin+0x1fda020>
   223bc:	bedff0ef          	jal	ra,21fa8 <payload_bin+0x19f0>
   223c0:	0080006f          	j	223c8 <payload_bin+0x1e10>
   223c4:	00000013          	nop
   223c8:	01813083          	ld	ra,24(sp)
   223cc:	01013403          	ld	s0,16(sp)
   223d0:	02010113          	addi	sp,sp,32
   223d4:	00008067          	ret
   223d8:	ff010113          	addi	sp,sp,-16
   223dc:	00113423          	sd	ra,8(sp)
   223e0:	00813023          	sd	s0,0(sp)
   223e4:	01010413          	addi	s0,sp,16
   223e8:	00200593          	li	a1,2
   223ec:	020017b7          	lui	a5,0x2001
   223f0:	51078513          	addi	a0,a5,1296 # 2001510 <bss_begin+0x1fda510>
   223f4:	bb5ff0ef          	jal	ra,21fa8 <payload_bin+0x19f0>
   223f8:	020017b7          	lui	a5,0x2001
   223fc:	51078513          	addi	a0,a5,1296 # 2001510 <bss_begin+0x1fda510>
   22400:	b7dff0ef          	jal	ra,21f7c <payload_bin+0x19c4>
   22404:	00050793          	mv	a5,a0
   22408:	0007879b          	sext.w	a5,a5
   2240c:	00078713          	mv	a4,a5
   22410:	030007b7          	lui	a5,0x3000
   22414:	00f767b3          	or	a5,a4,a5
   22418:	0007879b          	sext.w	a5,a5
   2241c:	00078593          	mv	a1,a5
   22420:	020017b7          	lui	a5,0x2001
   22424:	51078513          	addi	a0,a5,1296 # 2001510 <bss_begin+0x1fda510>
   22428:	b81ff0ef          	jal	ra,21fa8 <payload_bin+0x19f0>
   2242c:	00100513          	li	a0,1
   22430:	badff0ef          	jal	ra,21fdc <payload_bin+0x1a24>
   22434:	00000013          	nop
   22438:	00813083          	ld	ra,8(sp)
   2243c:	00013403          	ld	s0,0(sp)
   22440:	01010113          	addi	sp,sp,16
   22444:	00008067          	ret
   22448:	ff010113          	addi	sp,sp,-16
   2244c:	00113423          	sd	ra,8(sp)
   22450:	00813023          	sd	s0,0(sp)
   22454:	01010413          	addi	s0,sp,16
   22458:	10200593          	li	a1,258
   2245c:	020017b7          	lui	a5,0x2001
   22460:	52078513          	addi	a0,a5,1312 # 2001520 <bss_begin+0x1fda520>
   22464:	b45ff0ef          	jal	ra,21fa8 <payload_bin+0x19f0>
   22468:	020017b7          	lui	a5,0x2001
   2246c:	52078513          	addi	a0,a5,1312 # 2001520 <bss_begin+0x1fda520>
   22470:	b0dff0ef          	jal	ra,21f7c <payload_bin+0x19c4>
   22474:	00050793          	mv	a5,a0
   22478:	0007879b          	sext.w	a5,a5
   2247c:	00078713          	mv	a4,a5
   22480:	030007b7          	lui	a5,0x3000
   22484:	00f767b3          	or	a5,a4,a5
   22488:	0007879b          	sext.w	a5,a5
   2248c:	00078593          	mv	a1,a5
   22490:	020017b7          	lui	a5,0x2001
   22494:	52078513          	addi	a0,a5,1312 # 2001520 <bss_begin+0x1fda520>
   22498:	b11ff0ef          	jal	ra,21fa8 <payload_bin+0x19f0>
   2249c:	00100513          	li	a0,1
   224a0:	b3dff0ef          	jal	ra,21fdc <payload_bin+0x1a24>
   224a4:	00000013          	nop
   224a8:	00813083          	ld	ra,8(sp)
   224ac:	00013403          	ld	s0,0(sp)
   224b0:	01010113          	addi	sp,sp,16
   224b4:	00008067          	ret
   224b8:	ff010113          	addi	sp,sp,-16
   224bc:	00113423          	sd	ra,8(sp)
   224c0:	00813023          	sd	s0,0(sp)
   224c4:	01010413          	addi	s0,sp,16
   224c8:	020017b7          	lui	a5,0x2001
   224cc:	70c78513          	addi	a0,a5,1804 # 200170c <bss_begin+0x1fda70c>
   224d0:	aadff0ef          	jal	ra,21f7c <payload_bin+0x19c4>
   224d4:	00050793          	mv	a5,a0
   224d8:	0007879b          	sext.w	a5,a5
   224dc:	00078713          	mv	a4,a5
   224e0:	000107b7          	lui	a5,0x10
   224e4:	00f767b3          	or	a5,a4,a5
   224e8:	0007879b          	sext.w	a5,a5
   224ec:	00078593          	mv	a1,a5
   224f0:	020017b7          	lui	a5,0x2001
   224f4:	70c78513          	addi	a0,a5,1804 # 200170c <bss_begin+0x1fda70c>
   224f8:	ab1ff0ef          	jal	ra,21fa8 <payload_bin+0x19f0>
   224fc:	01400513          	li	a0,20
   22500:	addff0ef          	jal	ra,21fdc <payload_bin+0x1a24>
   22504:	020017b7          	lui	a5,0x2001
   22508:	70c78513          	addi	a0,a5,1804 # 200170c <bss_begin+0x1fda70c>
   2250c:	a71ff0ef          	jal	ra,21f7c <payload_bin+0x19c4>
   22510:	00050793          	mv	a5,a0
   22514:	0007879b          	sext.w	a5,a5
   22518:	0017e793          	ori	a5,a5,1
   2251c:	0007879b          	sext.w	a5,a5
   22520:	00078593          	mv	a1,a5
   22524:	020017b7          	lui	a5,0x2001
   22528:	70c78513          	addi	a0,a5,1804 # 200170c <bss_begin+0x1fda70c>
   2252c:	a7dff0ef          	jal	ra,21fa8 <payload_bin+0x19f0>
   22530:	00000013          	nop
   22534:	00813083          	ld	ra,8(sp)
   22538:	00013403          	ld	s0,0(sp)
   2253c:	01010113          	addi	sp,sp,16
   22540:	00008067          	ret
   22544:	fe010113          	addi	sp,sp,-32
   22548:	00113c23          	sd	ra,24(sp)
   2254c:	00813823          	sd	s0,16(sp)
   22550:	02010413          	addi	s0,sp,32
   22554:	020017b7          	lui	a5,0x2001
   22558:	54078513          	addi	a0,a5,1344 # 2001540 <bss_begin+0x1fda540>
   2255c:	a21ff0ef          	jal	ra,21f7c <payload_bin+0x19c4>
   22560:	00050793          	mv	a5,a0
   22564:	fef42623          	sw	a5,-20(s0)
   22568:	fec42703          	lw	a4,-20(s0)
   2256c:	400007b7          	lui	a5,0x40000
   22570:	00f767b3          	or	a5,a4,a5
   22574:	fef42623          	sw	a5,-20(s0)
   22578:	fec42783          	lw	a5,-20(s0)
   2257c:	00078593          	mv	a1,a5
   22580:	020017b7          	lui	a5,0x2001
   22584:	54078513          	addi	a0,a5,1344 # 2001540 <bss_begin+0x1fda540>
   22588:	a21ff0ef          	jal	ra,21fa8 <payload_bin+0x19f0>
   2258c:	00100513          	li	a0,1
   22590:	a4dff0ef          	jal	ra,21fdc <payload_bin+0x1a24>
   22594:	00000013          	nop
   22598:	01813083          	ld	ra,24(sp)
   2259c:	01013403          	ld	s0,16(sp)
   225a0:	02010113          	addi	sp,sp,32
   225a4:	00008067          	ret
   225a8:	fd010113          	addi	sp,sp,-48
   225ac:	02113423          	sd	ra,40(sp)
   225b0:	02813023          	sd	s0,32(sp)
   225b4:	03010413          	addi	s0,sp,48
   225b8:	fca43c23          	sd	a0,-40(s0)
   225bc:	fd843503          	ld	a0,-40(s0)
   225c0:	9bdff0ef          	jal	ra,21f7c <payload_bin+0x19c4>
   225c4:	00050793          	mv	a5,a0
   225c8:	0007879b          	sext.w	a5,a5
   225cc:	0007879b          	sext.w	a5,a5
   225d0:	0c07c263          	bltz	a5,22694 <payload_bin+0x20dc>
   225d4:	fd843503          	ld	a0,-40(s0)
   225d8:	9a5ff0ef          	jal	ra,21f7c <payload_bin+0x19c4>
   225dc:	00050793          	mv	a5,a0
   225e0:	fef42623          	sw	a5,-20(s0)
   225e4:	fec42703          	lw	a4,-20(s0)
   225e8:	c00007b7          	lui	a5,0xc0000
   225ec:	00f767b3          	or	a5,a4,a5
   225f0:	0007879b          	sext.w	a5,a5
   225f4:	00078593          	mv	a1,a5
   225f8:	fd843503          	ld	a0,-40(s0)
   225fc:	9adff0ef          	jal	ra,21fa8 <payload_bin+0x19f0>
   22600:	fd843503          	ld	a0,-40(s0)
   22604:	979ff0ef          	jal	ra,21f7c <payload_bin+0x19c4>
   22608:	00050793          	mv	a5,a0
   2260c:	fef42623          	sw	a5,-20(s0)
   22610:	fec42703          	lw	a4,-20(s0)
   22614:	200007b7          	lui	a5,0x20000
   22618:	00f767b3          	or	a5,a4,a5
   2261c:	fef42623          	sw	a5,-20(s0)
   22620:	fec42783          	lw	a5,-20(s0)
   22624:	00078593          	mv	a1,a5
   22628:	fd843503          	ld	a0,-40(s0)
   2262c:	97dff0ef          	jal	ra,21fa8 <payload_bin+0x19f0>
   22630:	00000013          	nop
   22634:	fd843503          	ld	a0,-40(s0)
   22638:	945ff0ef          	jal	ra,21f7c <payload_bin+0x19c4>
   2263c:	00050793          	mv	a5,a0
   22640:	0007879b          	sext.w	a5,a5
   22644:	00078713          	mv	a4,a5
   22648:	100007b7          	lui	a5,0x10000
   2264c:	00f777b3          	and	a5,a4,a5
   22650:	0007879b          	sext.w	a5,a5
   22654:	fe0780e3          	beqz	a5,22634 <payload_bin+0x207c>
   22658:	01400513          	li	a0,20
   2265c:	981ff0ef          	jal	ra,21fdc <payload_bin+0x1a24>
   22660:	fd843503          	ld	a0,-40(s0)
   22664:	919ff0ef          	jal	ra,21f7c <payload_bin+0x19c4>
   22668:	00050793          	mv	a5,a0
   2266c:	fef42623          	sw	a5,-20(s0)
   22670:	fec42703          	lw	a4,-20(s0)
   22674:	e00007b7          	lui	a5,0xe0000
   22678:	fff78793          	addi	a5,a5,-1 # ffffffffdfffffff <bss_begin+0xffffffffdffd8fff>
   2267c:	00f777b3          	and	a5,a4,a5
   22680:	fef42623          	sw	a5,-20(s0)
   22684:	fec42783          	lw	a5,-20(s0)
   22688:	00078593          	mv	a1,a5
   2268c:	fd843503          	ld	a0,-40(s0)
   22690:	919ff0ef          	jal	ra,21fa8 <payload_bin+0x19f0>
   22694:	00000013          	nop
   22698:	02813083          	ld	ra,40(sp)
   2269c:	02013403          	ld	s0,32(sp)
   226a0:	03010113          	addi	sp,sp,48
   226a4:	00008067          	ret
   226a8:	ff010113          	addi	sp,sp,-16
   226ac:	00113423          	sd	ra,8(sp)
   226b0:	00813023          	sd	s0,0(sp)
   226b4:	01010413          	addi	s0,sp,16
   226b8:	969ff0ef          	jal	ra,22020 <payload_bin+0x1a68>
   226bc:	ba9ff0ef          	jal	ra,22264 <payload_bin+0x1cac>
   226c0:	d19ff0ef          	jal	ra,223d8 <payload_bin+0x1e20>
   226c4:	d85ff0ef          	jal	ra,22448 <payload_bin+0x1e90>
   226c8:	df1ff0ef          	jal	ra,224b8 <payload_bin+0x1f00>
   226cc:	e79ff0ef          	jal	ra,22544 <payload_bin+0x1f8c>
   226d0:	020017b7          	lui	a5,0x2001
   226d4:	02078513          	addi	a0,a5,32 # 2001020 <bss_begin+0x1fda020>
   226d8:	ed1ff0ef          	jal	ra,225a8 <payload_bin+0x1ff0>
   226dc:	020017b7          	lui	a5,0x2001
   226e0:	04078513          	addi	a0,a5,64 # 2001040 <bss_begin+0x1fda040>
   226e4:	ec5ff0ef          	jal	ra,225a8 <payload_bin+0x1ff0>
   226e8:	020017b7          	lui	a5,0x2001
   226ec:	04878513          	addi	a0,a5,72 # 2001048 <bss_begin+0x1fda048>
   226f0:	eb9ff0ef          	jal	ra,225a8 <payload_bin+0x1ff0>
   226f4:	020017b7          	lui	a5,0x2001
   226f8:	05878513          	addi	a0,a5,88 # 2001058 <bss_begin+0x1fda058>
   226fc:	eadff0ef          	jal	ra,225a8 <payload_bin+0x1ff0>
   22700:	020017b7          	lui	a5,0x2001
   22704:	07878513          	addi	a0,a5,120 # 2001078 <bss_begin+0x1fda078>
   22708:	ea1ff0ef          	jal	ra,225a8 <payload_bin+0x1ff0>
   2270c:	020017b7          	lui	a5,0x2001
   22710:	08078513          	addi	a0,a5,128 # 2001080 <bss_begin+0x1fda080>
   22714:	e95ff0ef          	jal	ra,225a8 <payload_bin+0x1ff0>
   22718:	00000013          	nop
   2271c:	00813083          	ld	ra,8(sp)
   22720:	00013403          	ld	s0,0(sp)
   22724:	01010113          	addi	sp,sp,16
   22728:	00008067          	ret
   2272c:	fe010113          	addi	sp,sp,-32
   22730:	00813c23          	sd	s0,24(sp)
   22734:	02010413          	addi	s0,sp,32
   22738:	fea43423          	sd	a0,-24(s0)
   2273c:	fe843783          	ld	a5,-24(s0)
   22740:	0007c783          	lbu	a5,0(a5)
   22744:	0ff7f793          	andi	a5,a5,255
   22748:	00078513          	mv	a0,a5
   2274c:	01813403          	ld	s0,24(sp)
   22750:	02010113          	addi	sp,sp,32
   22754:	00008067          	ret
   22758:	fe010113          	addi	sp,sp,-32
   2275c:	00813c23          	sd	s0,24(sp)
   22760:	02010413          	addi	s0,sp,32
   22764:	fea43423          	sd	a0,-24(s0)
   22768:	fe843783          	ld	a5,-24(s0)
   2276c:	0007a783          	lw	a5,0(a5)
   22770:	0007879b          	sext.w	a5,a5
   22774:	00078513          	mv	a0,a5
   22778:	01813403          	ld	s0,24(sp)
   2277c:	02010113          	addi	sp,sp,32
   22780:	00008067          	ret
   22784:	fe010113          	addi	sp,sp,-32
   22788:	00813c23          	sd	s0,24(sp)
   2278c:	02010413          	addi	s0,sp,32
   22790:	fea43423          	sd	a0,-24(s0)
   22794:	00058793          	mv	a5,a1
   22798:	fef42223          	sw	a5,-28(s0)
   2279c:	fe843783          	ld	a5,-24(s0)
   227a0:	fe442703          	lw	a4,-28(s0)
   227a4:	00e7a023          	sw	a4,0(a5)
   227a8:	00000013          	nop
   227ac:	01813403          	ld	s0,24(sp)
   227b0:	02010113          	addi	sp,sp,32
   227b4:	00008067          	ret
   227b8:	fe010113          	addi	sp,sp,-32
   227bc:	00113c23          	sd	ra,24(sp)
   227c0:	00813823          	sd	s0,16(sp)
   227c4:	02010413          	addi	s0,sp,32
   227c8:	020007b7          	lui	a5,0x2000
   227cc:	0f078793          	addi	a5,a5,240 # 20000f0 <bss_begin+0x1fd90f0>
   227d0:	fef43423          	sd	a5,-24(s0)
   227d4:	fe843503          	ld	a0,-24(s0)
   227d8:	f81ff0ef          	jal	ra,22758 <payload_bin+0x21a0>
   227dc:	00050793          	mv	a5,a0
   227e0:	fef42223          	sw	a5,-28(s0)
   227e4:	fe442703          	lw	a4,-28(s0)
   227e8:	fffff7b7          	lui	a5,0xfffff
   227ec:	0ff78793          	addi	a5,a5,255 # fffffffffffff0ff <bss_begin+0xfffffffffffd80ff>
   227f0:	00f777b3          	and	a5,a4,a5
   227f4:	fef42223          	sw	a5,-28(s0)
   227f8:	fe442783          	lw	a5,-28(s0)
   227fc:	3007e793          	ori	a5,a5,768
   22800:	fef42223          	sw	a5,-28(s0)
   22804:	fe442783          	lw	a5,-28(s0)
   22808:	00078593          	mv	a1,a5
   2280c:	fe843503          	ld	a0,-24(s0)
   22810:	f75ff0ef          	jal	ra,22784 <payload_bin+0x21cc>
   22814:	fe843503          	ld	a0,-24(s0)
   22818:	f41ff0ef          	jal	ra,22758 <payload_bin+0x21a0>
   2281c:	00050793          	mv	a5,a0
   22820:	fef42223          	sw	a5,-28(s0)
   22824:	fe442703          	lw	a4,-28(s0)
   22828:	fff107b7          	lui	a5,0xfff10
   2282c:	fff78793          	addi	a5,a5,-1 # fffffffffff0ffff <bss_begin+0xffffffffffee8fff>
   22830:	00f777b3          	and	a5,a4,a5
   22834:	fef42223          	sw	a5,-28(s0)
   22838:	fe442703          	lw	a4,-28(s0)
   2283c:	000307b7          	lui	a5,0x30
   22840:	00f767b3          	or	a5,a4,a5
   22844:	fef42223          	sw	a5,-28(s0)
   22848:	fe442783          	lw	a5,-28(s0)
   2284c:	00078593          	mv	a1,a5
   22850:	fe843503          	ld	a0,-24(s0)
   22854:	f31ff0ef          	jal	ra,22784 <payload_bin+0x21cc>
   22858:	020027b7          	lui	a5,0x2002
   2285c:	90c78793          	addi	a5,a5,-1780 # 200190c <bss_begin+0x1fda90c>
   22860:	fef43423          	sd	a5,-24(s0)
   22864:	fe843503          	ld	a0,-24(s0)
   22868:	ef1ff0ef          	jal	ra,22758 <payload_bin+0x21a0>
   2286c:	00050793          	mv	a5,a0
   22870:	fef42223          	sw	a5,-28(s0)
   22874:	fe442783          	lw	a5,-28(s0)
   22878:	0017e793          	ori	a5,a5,1
   2287c:	fef42223          	sw	a5,-28(s0)
   22880:	fe442783          	lw	a5,-28(s0)
   22884:	00078593          	mv	a1,a5
   22888:	fe843503          	ld	a0,-24(s0)
   2288c:	ef9ff0ef          	jal	ra,22784 <payload_bin+0x21cc>
   22890:	020027b7          	lui	a5,0x2002
   22894:	90c78793          	addi	a5,a5,-1780 # 200190c <bss_begin+0x1fda90c>
   22898:	fef43423          	sd	a5,-24(s0)
   2289c:	fe843503          	ld	a0,-24(s0)
   228a0:	eb9ff0ef          	jal	ra,22758 <payload_bin+0x21a0>
   228a4:	00050793          	mv	a5,a0
   228a8:	fef42223          	sw	a5,-28(s0)
   228ac:	fe442703          	lw	a4,-28(s0)
   228b0:	000107b7          	lui	a5,0x10
   228b4:	00f767b3          	or	a5,a4,a5
   228b8:	fef42223          	sw	a5,-28(s0)
   228bc:	fe442783          	lw	a5,-28(s0)
   228c0:	00078593          	mv	a1,a5
   228c4:	fe843503          	ld	a0,-24(s0)
   228c8:	ebdff0ef          	jal	ra,22784 <payload_bin+0x21cc>
   228cc:	025007b7          	lui	a5,0x2500
   228d0:	fef43423          	sd	a5,-24(s0)
   228d4:	fe843783          	ld	a5,-24(s0)
   228d8:	00478793          	addi	a5,a5,4 # 2500004 <bss_begin+0x24d9004>
   228dc:	00000593          	li	a1,0
   228e0:	00078513          	mv	a0,a5
   228e4:	ea1ff0ef          	jal	ra,22784 <payload_bin+0x21cc>
   228e8:	fe843783          	ld	a5,-24(s0)
   228ec:	00878793          	addi	a5,a5,8
   228f0:	0f100593          	li	a1,241
   228f4:	00078513          	mv	a0,a5
   228f8:	e8dff0ef          	jal	ra,22784 <payload_bin+0x21cc>
   228fc:	fe843783          	ld	a5,-24(s0)
   22900:	01078793          	addi	a5,a5,16
   22904:	00000593          	li	a1,0
   22908:	00078513          	mv	a0,a5
   2290c:	e79ff0ef          	jal	ra,22784 <payload_bin+0x21cc>
   22910:	fe843783          	ld	a5,-24(s0)
   22914:	00c78793          	addi	a5,a5,12
   22918:	00078513          	mv	a0,a5
   2291c:	e3dff0ef          	jal	ra,22758 <payload_bin+0x21a0>
   22920:	00050793          	mv	a5,a0
   22924:	fef42223          	sw	a5,-28(s0)
   22928:	fe442783          	lw	a5,-28(s0)
   2292c:	0807e793          	ori	a5,a5,128
   22930:	fef42223          	sw	a5,-28(s0)
   22934:	fe843783          	ld	a5,-24(s0)
   22938:	00c78793          	addi	a5,a5,12
   2293c:	fe442703          	lw	a4,-28(s0)
   22940:	00070593          	mv	a1,a4
   22944:	00078513          	mv	a0,a5
   22948:	e3dff0ef          	jal	ra,22784 <payload_bin+0x21cc>
   2294c:	00d00593          	li	a1,13
   22950:	fe843503          	ld	a0,-24(s0)
   22954:	e31ff0ef          	jal	ra,22784 <payload_bin+0x21cc>
   22958:	fe843783          	ld	a5,-24(s0)
   2295c:	00478793          	addi	a5,a5,4
   22960:	00000593          	li	a1,0
   22964:	00078513          	mv	a0,a5
   22968:	e1dff0ef          	jal	ra,22784 <payload_bin+0x21cc>
   2296c:	fe843783          	ld	a5,-24(s0)
   22970:	00c78793          	addi	a5,a5,12
   22974:	00078513          	mv	a0,a5
   22978:	de1ff0ef          	jal	ra,22758 <payload_bin+0x21a0>
   2297c:	00050793          	mv	a5,a0
   22980:	fef42223          	sw	a5,-28(s0)
   22984:	fe442783          	lw	a5,-28(s0)
   22988:	f7f7f793          	andi	a5,a5,-129
   2298c:	fef42223          	sw	a5,-28(s0)
   22990:	fe843783          	ld	a5,-24(s0)
   22994:	00c78793          	addi	a5,a5,12
   22998:	fe442703          	lw	a4,-28(s0)
   2299c:	00070593          	mv	a1,a4
   229a0:	00078513          	mv	a0,a5
   229a4:	de1ff0ef          	jal	ra,22784 <payload_bin+0x21cc>
   229a8:	fe843783          	ld	a5,-24(s0)
   229ac:	00c78793          	addi	a5,a5,12
   229b0:	00078513          	mv	a0,a5
   229b4:	da5ff0ef          	jal	ra,22758 <payload_bin+0x21a0>
   229b8:	00050793          	mv	a5,a0
   229bc:	fef42223          	sw	a5,-28(s0)
   229c0:	fe442783          	lw	a5,-28(s0)
   229c4:	fe07f793          	andi	a5,a5,-32
   229c8:	fef42223          	sw	a5,-28(s0)
   229cc:	fe442783          	lw	a5,-28(s0)
   229d0:	0037e793          	ori	a5,a5,3
   229d4:	fef42223          	sw	a5,-28(s0)
   229d8:	fe843783          	ld	a5,-24(s0)
   229dc:	00c78793          	addi	a5,a5,12
   229e0:	fe442703          	lw	a4,-28(s0)
   229e4:	00070593          	mv	a1,a4
   229e8:	00078513          	mv	a0,a5
   229ec:	d99ff0ef          	jal	ra,22784 <payload_bin+0x21cc>
   229f0:	00000013          	nop
   229f4:	01813083          	ld	ra,24(sp)
   229f8:	01013403          	ld	s0,16(sp)
   229fc:	02010113          	addi	sp,sp,32
   22a00:	00008067          	ret
   22a04:	fd010113          	addi	sp,sp,-48
   22a08:	02113423          	sd	ra,40(sp)
   22a0c:	02813023          	sd	s0,32(sp)
   22a10:	03010413          	addi	s0,sp,48
   22a14:	00050793          	mv	a5,a0
   22a18:	fcf40fa3          	sb	a5,-33(s0)
   22a1c:	025007b7          	lui	a5,0x2500
   22a20:	fef43423          	sd	a5,-24(s0)
   22a24:	00000013          	nop
   22a28:	fe843783          	ld	a5,-24(s0)
   22a2c:	07c78793          	addi	a5,a5,124 # 250007c <bss_begin+0x24d907c>
   22a30:	00078513          	mv	a0,a5
   22a34:	d25ff0ef          	jal	ra,22758 <payload_bin+0x21a0>
   22a38:	00050793          	mv	a5,a0
   22a3c:	0007879b          	sext.w	a5,a5
   22a40:	0027f793          	andi	a5,a5,2
   22a44:	0007879b          	sext.w	a5,a5
   22a48:	fe0780e3          	beqz	a5,22a28 <payload_bin+0x2470>
   22a4c:	fdf44783          	lbu	a5,-33(s0)
   22a50:	0007879b          	sext.w	a5,a5
   22a54:	00078593          	mv	a1,a5
   22a58:	fe843503          	ld	a0,-24(s0)
   22a5c:	d29ff0ef          	jal	ra,22784 <payload_bin+0x21cc>
   22a60:	00000013          	nop
   22a64:	02813083          	ld	ra,40(sp)
   22a68:	02013403          	ld	s0,32(sp)
   22a6c:	03010113          	addi	sp,sp,48
   22a70:	00008067          	ret
   22a74:	fe010113          	addi	sp,sp,-32
   22a78:	00113c23          	sd	ra,24(sp)
   22a7c:	00813823          	sd	s0,16(sp)
   22a80:	02010413          	addi	s0,sp,32
   22a84:	00050793          	mv	a5,a0
   22a88:	fef42623          	sw	a5,-20(s0)
   22a8c:	fec42783          	lw	a5,-20(s0)
   22a90:	0ff7f793          	andi	a5,a5,255
   22a94:	00078513          	mv	a0,a5
   22a98:	f6dff0ef          	jal	ra,22a04 <payload_bin+0x244c>
   22a9c:	fec42783          	lw	a5,-20(s0)
   22aa0:	00078513          	mv	a0,a5
   22aa4:	01813083          	ld	ra,24(sp)
   22aa8:	01013403          	ld	s0,16(sp)
   22aac:	02010113          	addi	sp,sp,32
   22ab0:	00008067          	ret
   22ab4:	fe010113          	addi	sp,sp,-32
   22ab8:	00113c23          	sd	ra,24(sp)
   22abc:	00813823          	sd	s0,16(sp)
   22ac0:	02010413          	addi	s0,sp,32
   22ac4:	025007b7          	lui	a5,0x2500
   22ac8:	fef43423          	sd	a5,-24(s0)
   22acc:	00000013          	nop
   22ad0:	fe843783          	ld	a5,-24(s0)
   22ad4:	07c78793          	addi	a5,a5,124 # 250007c <bss_begin+0x24d907c>
   22ad8:	00078513          	mv	a0,a5
   22adc:	c7dff0ef          	jal	ra,22758 <payload_bin+0x21a0>
   22ae0:	00050793          	mv	a5,a0
   22ae4:	0007879b          	sext.w	a5,a5
   22ae8:	0087f793          	andi	a5,a5,8
   22aec:	0007879b          	sext.w	a5,a5
   22af0:	fe0780e3          	beqz	a5,22ad0 <payload_bin+0x2518>
   22af4:	fe843503          	ld	a0,-24(s0)
   22af8:	c35ff0ef          	jal	ra,2272c <payload_bin+0x2174>
   22afc:	00050793          	mv	a5,a0
   22b00:	00078513          	mv	a0,a5
   22b04:	01813083          	ld	ra,24(sp)
   22b08:	01013403          	ld	s0,16(sp)
   22b0c:	02010113          	addi	sp,sp,32
   22b10:	00008067          	ret
   22b14:	fd010113          	addi	sp,sp,-48
   22b18:	02113423          	sd	ra,40(sp)
   22b1c:	02813023          	sd	s0,32(sp)
   22b20:	03010413          	addi	s0,sp,48
   22b24:	fca43c23          	sd	a0,-40(s0)
   22b28:	fe042623          	sw	zero,-20(s0)
   22b2c:	04c0006f          	j	22b78 <payload_bin+0x25c0>
   22b30:	fec42783          	lw	a5,-20(s0)
   22b34:	fd843703          	ld	a4,-40(s0)
   22b38:	00f707b3          	add	a5,a4,a5
   22b3c:	0007c783          	lbu	a5,0(a5)
   22b40:	00078713          	mv	a4,a5
   22b44:	00a00793          	li	a5,10
   22b48:	00f71663          	bne	a4,a5,22b54 <payload_bin+0x259c>
   22b4c:	00d00513          	li	a0,13
   22b50:	eb5ff0ef          	jal	ra,22a04 <payload_bin+0x244c>
   22b54:	fec42783          	lw	a5,-20(s0)
   22b58:	fd843703          	ld	a4,-40(s0)
   22b5c:	00f707b3          	add	a5,a4,a5
   22b60:	0007c783          	lbu	a5,0(a5)
   22b64:	00078513          	mv	a0,a5
   22b68:	e9dff0ef          	jal	ra,22a04 <payload_bin+0x244c>
   22b6c:	fec42783          	lw	a5,-20(s0)
   22b70:	0017879b          	addiw	a5,a5,1
   22b74:	fef42623          	sw	a5,-20(s0)
   22b78:	fec42783          	lw	a5,-20(s0)
   22b7c:	fd843703          	ld	a4,-40(s0)
   22b80:	00f707b3          	add	a5,a4,a5
   22b84:	0007c783          	lbu	a5,0(a5)
   22b88:	fa0794e3          	bnez	a5,22b30 <payload_bin+0x2578>
   22b8c:	00000013          	nop
   22b90:	00000013          	nop
   22b94:	02813083          	ld	ra,40(sp)
   22b98:	02013403          	ld	s0,32(sp)
   22b9c:	03010113          	addi	sp,sp,48
   22ba0:	00008067          	ret
   22ba4:	fc010113          	addi	sp,sp,-64
   22ba8:	02813c23          	sd	s0,56(sp)
   22bac:	04010413          	addi	s0,sp,64
   22bb0:	fca43423          	sd	a0,-56(s0)
   22bb4:	fcb43023          	sd	a1,-64(s0)
   22bb8:	fe042223          	sw	zero,-28(s0)
   22bbc:	fc843783          	ld	a5,-56(s0)
   22bc0:	fef43423          	sd	a5,-24(s0)
   22bc4:	0900006f          	j	22c54 <payload_bin+0x269c>
   22bc8:	fe843783          	ld	a5,-24(s0)
   22bcc:	0007c783          	lbu	a5,0(a5)
   22bd0:	00078713          	mv	a4,a5
   22bd4:	02f00793          	li	a5,47
   22bd8:	02e7f063          	bgeu	a5,a4,22bf8 <payload_bin+0x2640>
   22bdc:	fe843783          	ld	a5,-24(s0)
   22be0:	0007c783          	lbu	a5,0(a5)
   22be4:	00078713          	mv	a4,a5
   22be8:	03900793          	li	a5,57
   22bec:	00e7e663          	bltu	a5,a4,22bf8 <payload_bin+0x2640>
   22bf0:	00100793          	li	a5,1
   22bf4:	0080006f          	j	22bfc <payload_bin+0x2644>
   22bf8:	00000793          	li	a5,0
   22bfc:	fef42023          	sw	a5,-32(s0)
   22c00:	fe042783          	lw	a5,-32(s0)
   22c04:	0007879b          	sext.w	a5,a5
   22c08:	04078e63          	beqz	a5,22c64 <payload_bin+0x26ac>
   22c0c:	fe843783          	ld	a5,-24(s0)
   22c10:	0007c783          	lbu	a5,0(a5)
   22c14:	0007879b          	sext.w	a5,a5
   22c18:	fd07879b          	addiw	a5,a5,-48
   22c1c:	fcf42e23          	sw	a5,-36(s0)
   22c20:	fe442703          	lw	a4,-28(s0)
   22c24:	00070793          	mv	a5,a4
   22c28:	0027979b          	slliw	a5,a5,0x2
   22c2c:	00e787bb          	addw	a5,a5,a4
   22c30:	0017979b          	slliw	a5,a5,0x1
   22c34:	fef42223          	sw	a5,-28(s0)
   22c38:	fe442703          	lw	a4,-28(s0)
   22c3c:	fdc42783          	lw	a5,-36(s0)
   22c40:	00f707bb          	addw	a5,a4,a5
   22c44:	fef42223          	sw	a5,-28(s0)
   22c48:	fe843783          	ld	a5,-24(s0)
   22c4c:	00178793          	addi	a5,a5,1
   22c50:	fef43423          	sd	a5,-24(s0)
   22c54:	fc843783          	ld	a5,-56(s0)
   22c58:	0007c783          	lbu	a5,0(a5)
   22c5c:	f60796e3          	bnez	a5,22bc8 <payload_bin+0x2610>
   22c60:	0080006f          	j	22c68 <payload_bin+0x26b0>
   22c64:	00000013          	nop
   22c68:	fc043783          	ld	a5,-64(s0)
   22c6c:	fe442703          	lw	a4,-28(s0)
   22c70:	00e7a023          	sw	a4,0(a5)
   22c74:	fe843703          	ld	a4,-24(s0)
   22c78:	fc843783          	ld	a5,-56(s0)
   22c7c:	40f707b3          	sub	a5,a4,a5
   22c80:	0007879b          	sext.w	a5,a5
   22c84:	00078513          	mv	a0,a5
   22c88:	03813403          	ld	s0,56(sp)
   22c8c:	04010113          	addi	sp,sp,64
   22c90:	00008067          	ret
   22c94:	fb010113          	addi	sp,sp,-80
   22c98:	04113423          	sd	ra,72(sp)
   22c9c:	04813023          	sd	s0,64(sp)
   22ca0:	05010413          	addi	s0,sp,80
   22ca4:	00050793          	mv	a5,a0
   22ca8:	00068713          	mv	a4,a3
   22cac:	faf42e23          	sw	a5,-68(s0)
   22cb0:	00058793          	mv	a5,a1
   22cb4:	faf42c23          	sw	a5,-72(s0)
   22cb8:	00060793          	mv	a5,a2
   22cbc:	faf42a23          	sw	a5,-76(s0)
   22cc0:	00070793          	mv	a5,a4
   22cc4:	faf42823          	sw	a5,-80(s0)
   22cc8:	fe042223          	sw	zero,-28(s0)
   22ccc:	0280006f          	j	22cf4 <payload_bin+0x273c>
   22cd0:	fb042783          	lw	a5,-80(s0)
   22cd4:	0ff7f713          	andi	a4,a5,255
   22cd8:	fe442783          	lw	a5,-28(s0)
   22cdc:	ff040693          	addi	a3,s0,-16
   22ce0:	00f687b3          	add	a5,a3,a5
   22ce4:	fce78823          	sb	a4,-48(a5)
   22ce8:	fe442783          	lw	a5,-28(s0)
   22cec:	0017879b          	addiw	a5,a5,1
   22cf0:	fef42223          	sw	a5,-28(s0)
   22cf4:	fe442783          	lw	a5,-28(s0)
   22cf8:	00078713          	mv	a4,a5
   22cfc:	01f00793          	li	a5,31
   22d00:	fce7f8e3          	bgeu	a5,a4,22cd0 <payload_bin+0x2718>
   22d04:	00a00793          	li	a5,10
   22d08:	fef42623          	sw	a5,-20(s0)
   22d0c:	fb842783          	lw	a5,-72(s0)
   22d10:	0007879b          	sext.w	a5,a5
   22d14:	00078663          	beqz	a5,22d20 <payload_bin+0x2768>
   22d18:	01000793          	li	a5,16
   22d1c:	fef42623          	sw	a5,-20(s0)
   22d20:	fe042423          	sw	zero,-24(s0)
   22d24:	fbc42703          	lw	a4,-68(s0)
   22d28:	fec42783          	lw	a5,-20(s0)
   22d2c:	02f777bb          	remuw	a5,a4,a5
   22d30:	0007879b          	sext.w	a5,a5
   22d34:	fef42023          	sw	a5,-32(s0)
   22d38:	fe042783          	lw	a5,-32(s0)
   22d3c:	0007871b          	sext.w	a4,a5
   22d40:	00900793          	li	a5,9
   22d44:	02e7d463          	bge	a5,a4,22d6c <payload_bin+0x27b4>
   22d48:	fe042783          	lw	a5,-32(s0)
   22d4c:	0ff7f793          	andi	a5,a5,255
   22d50:	0577879b          	addiw	a5,a5,87
   22d54:	0ff7f713          	andi	a4,a5,255
   22d58:	fe842783          	lw	a5,-24(s0)
   22d5c:	ff040693          	addi	a3,s0,-16
   22d60:	00f687b3          	add	a5,a3,a5
   22d64:	fce78823          	sb	a4,-48(a5)
   22d68:	0240006f          	j	22d8c <payload_bin+0x27d4>
   22d6c:	fe042783          	lw	a5,-32(s0)
   22d70:	0ff7f793          	andi	a5,a5,255
   22d74:	0307879b          	addiw	a5,a5,48
   22d78:	0ff7f713          	andi	a4,a5,255
   22d7c:	fe842783          	lw	a5,-24(s0)
   22d80:	ff040693          	addi	a3,s0,-16
   22d84:	00f687b3          	add	a5,a3,a5
   22d88:	fce78823          	sb	a4,-48(a5)
   22d8c:	fbc42703          	lw	a4,-68(s0)
   22d90:	fec42783          	lw	a5,-20(s0)
   22d94:	02f757bb          	divuw	a5,a4,a5
   22d98:	faf42e23          	sw	a5,-68(s0)
   22d9c:	fe842783          	lw	a5,-24(s0)
   22da0:	0017879b          	addiw	a5,a5,1
   22da4:	fef42423          	sw	a5,-24(s0)
   22da8:	fbc42783          	lw	a5,-68(s0)
   22dac:	0007879b          	sext.w	a5,a5
   22db0:	f6079ae3          	bnez	a5,22d24 <payload_bin+0x276c>
   22db4:	fb442783          	lw	a5,-76(s0)
   22db8:	0007879b          	sext.w	a5,a5
   22dbc:	02f05c63          	blez	a5,22df4 <payload_bin+0x283c>
   22dc0:	fb442783          	lw	a5,-76(s0)
   22dc4:	00078713          	mv	a4,a5
   22dc8:	01f00793          	li	a5,31
   22dcc:	00e7f663          	bgeu	a5,a4,22dd8 <payload_bin+0x2820>
   22dd0:	01f00793          	li	a5,31
   22dd4:	faf42a23          	sw	a5,-76(s0)
   22dd8:	fe842703          	lw	a4,-24(s0)
   22ddc:	fb442783          	lw	a5,-76(s0)
   22de0:	0007071b          	sext.w	a4,a4
   22de4:	0007879b          	sext.w	a5,a5
   22de8:	00f75663          	bge	a4,a5,22df4 <payload_bin+0x283c>
   22dec:	fb442783          	lw	a5,-76(s0)
   22df0:	fef42423          	sw	a5,-24(s0)
   22df4:	fe842783          	lw	a5,-24(s0)
   22df8:	ff040713          	addi	a4,s0,-16
   22dfc:	00f707b3          	add	a5,a4,a5
   22e00:	fc078823          	sb	zero,-48(a5)
   22e04:	fe842783          	lw	a5,-24(s0)
   22e08:	fff7879b          	addiw	a5,a5,-1
   22e0c:	fef42223          	sw	a5,-28(s0)
   22e10:	0280006f          	j	22e38 <payload_bin+0x2880>
   22e14:	fe442783          	lw	a5,-28(s0)
   22e18:	ff040713          	addi	a4,s0,-16
   22e1c:	00f707b3          	add	a5,a4,a5
   22e20:	fd07c783          	lbu	a5,-48(a5)
   22e24:	00078513          	mv	a0,a5
   22e28:	bddff0ef          	jal	ra,22a04 <payload_bin+0x244c>
   22e2c:	fe442783          	lw	a5,-28(s0)
   22e30:	fff7879b          	addiw	a5,a5,-1
   22e34:	fef42223          	sw	a5,-28(s0)
   22e38:	fe442783          	lw	a5,-28(s0)
   22e3c:	0007879b          	sext.w	a5,a5
   22e40:	fc07dae3          	bgez	a5,22e14 <payload_bin+0x285c>
   22e44:	00000013          	nop
   22e48:	00000013          	nop
   22e4c:	04813083          	ld	ra,72(sp)
   22e50:	04013403          	ld	s0,64(sp)
   22e54:	05010113          	addi	sp,sp,80
   22e58:	00008067          	ret
   22e5c:	fb010113          	addi	sp,sp,-80
   22e60:	04113423          	sd	ra,72(sp)
   22e64:	04813023          	sd	s0,64(sp)
   22e68:	05010413          	addi	s0,sp,80
   22e6c:	faa43c23          	sd	a0,-72(s0)
   22e70:	fab43823          	sd	a1,-80(s0)
   22e74:	02000793          	li	a5,32
   22e78:	fcf42a23          	sw	a5,-44(s0)
   22e7c:	fb843783          	ld	a5,-72(s0)
   22e80:	fef43423          	sd	a5,-24(s0)
   22e84:	1880006f          	j	2300c <payload_bin+0x2a54>
   22e88:	fc042e23          	sw	zero,-36(s0)
   22e8c:	fc042223          	sw	zero,-60(s0)
   22e90:	fe843783          	ld	a5,-24(s0)
   22e94:	0007c783          	lbu	a5,0(a5)
   22e98:	fcf42823          	sw	a5,-48(s0)
   22e9c:	fe843783          	ld	a5,-24(s0)
   22ea0:	fef43023          	sd	a5,-32(s0)
   22ea4:	fe843783          	ld	a5,-24(s0)
   22ea8:	0007c783          	lbu	a5,0(a5)
   22eac:	00078713          	mv	a4,a5
   22eb0:	02500793          	li	a5,37
   22eb4:	06f71863          	bne	a4,a5,22f24 <payload_bin+0x296c>
   22eb8:	fe843783          	ld	a5,-24(s0)
   22ebc:	fef43023          	sd	a5,-32(s0)
   22ec0:	fe843783          	ld	a5,-24(s0)
   22ec4:	00178793          	addi	a5,a5,1
   22ec8:	fef43423          	sd	a5,-24(s0)
   22ecc:	fe843783          	ld	a5,-24(s0)
   22ed0:	0007c783          	lbu	a5,0(a5)
   22ed4:	00078713          	mv	a4,a5
   22ed8:	02f00793          	li	a5,47
   22edc:	02e7fe63          	bgeu	a5,a4,22f18 <payload_bin+0x2960>
   22ee0:	fe843783          	ld	a5,-24(s0)
   22ee4:	0007c783          	lbu	a5,0(a5)
   22ee8:	00078713          	mv	a4,a5
   22eec:	03900793          	li	a5,57
   22ef0:	02e7e463          	bltu	a5,a4,22f18 <payload_bin+0x2960>
   22ef4:	fc440793          	addi	a5,s0,-60
   22ef8:	00078593          	mv	a1,a5
   22efc:	fe843503          	ld	a0,-24(s0)
   22f00:	ca5ff0ef          	jal	ra,22ba4 <payload_bin+0x25ec>
   22f04:	00050793          	mv	a5,a0
   22f08:	00078713          	mv	a4,a5
   22f0c:	fe843783          	ld	a5,-24(s0)
   22f10:	00e787b3          	add	a5,a5,a4
   22f14:	fef43423          	sd	a5,-24(s0)
   22f18:	fe843783          	ld	a5,-24(s0)
   22f1c:	0007c783          	lbu	a5,0(a5)
   22f20:	fcf42e23          	sw	a5,-36(s0)
   22f24:	fdc42783          	lw	a5,-36(s0)
   22f28:	0007871b          	sext.w	a4,a5
   22f2c:	06400793          	li	a5,100
   22f30:	00f70a63          	beq	a4,a5,22f44 <payload_bin+0x298c>
   22f34:	fdc42783          	lw	a5,-36(s0)
   22f38:	0007871b          	sext.w	a4,a5
   22f3c:	07800793          	li	a5,120
   22f40:	04f71863          	bne	a4,a5,22f90 <payload_bin+0x29d8>
   22f44:	fb043783          	ld	a5,-80(s0)
   22f48:	00878713          	addi	a4,a5,8
   22f4c:	fae43823          	sd	a4,-80(s0)
   22f50:	0007a783          	lw	a5,0(a5)
   22f54:	fcf42423          	sw	a5,-56(s0)
   22f58:	fc842503          	lw	a0,-56(s0)
   22f5c:	fdc42783          	lw	a5,-36(s0)
   22f60:	0007871b          	sext.w	a4,a5
   22f64:	07800793          	li	a5,120
   22f68:	40f707b3          	sub	a5,a4,a5
   22f6c:	0017b793          	seqz	a5,a5
   22f70:	0ff7f793          	andi	a5,a5,255
   22f74:	0007879b          	sext.w	a5,a5
   22f78:	fc442703          	lw	a4,-60(s0)
   22f7c:	fd442683          	lw	a3,-44(s0)
   22f80:	00070613          	mv	a2,a4
   22f84:	00078593          	mv	a1,a5
   22f88:	d0dff0ef          	jal	ra,22c94 <payload_bin+0x26dc>
   22f8c:	0740006f          	j	23000 <payload_bin+0x2a48>
   22f90:	fc042c23          	sw	zero,-40(s0)
   22f94:	0280006f          	j	22fbc <payload_bin+0x2a04>
   22f98:	fd842783          	lw	a5,-40(s0)
   22f9c:	fe043703          	ld	a4,-32(s0)
   22fa0:	00f707b3          	add	a5,a4,a5
   22fa4:	0007c783          	lbu	a5,0(a5)
   22fa8:	00078513          	mv	a0,a5
   22fac:	a59ff0ef          	jal	ra,22a04 <payload_bin+0x244c>
   22fb0:	fd842783          	lw	a5,-40(s0)
   22fb4:	0017879b          	addiw	a5,a5,1
   22fb8:	fcf42c23          	sw	a5,-40(s0)
   22fbc:	fd842703          	lw	a4,-40(s0)
   22fc0:	fe843683          	ld	a3,-24(s0)
   22fc4:	fe043783          	ld	a5,-32(s0)
   22fc8:	40f687b3          	sub	a5,a3,a5
   22fcc:	fcf746e3          	blt	a4,a5,22f98 <payload_bin+0x29e0>
   22fd0:	fdc42783          	lw	a5,-36(s0)
   22fd4:	0007879b          	sext.w	a5,a5
   22fd8:	00078863          	beqz	a5,22fe8 <payload_bin+0x2a30>
   22fdc:	fdc42783          	lw	a5,-36(s0)
   22fe0:	0ff7f793          	andi	a5,a5,255
   22fe4:	00c0006f          	j	22ff0 <payload_bin+0x2a38>
   22fe8:	fd042783          	lw	a5,-48(s0)
   22fec:	0ff7f793          	andi	a5,a5,255
   22ff0:	fcf407a3          	sb	a5,-49(s0)
   22ff4:	fcf44783          	lbu	a5,-49(s0)
   22ff8:	00078513          	mv	a0,a5
   22ffc:	a09ff0ef          	jal	ra,22a04 <payload_bin+0x244c>
   23000:	fe843783          	ld	a5,-24(s0)
   23004:	00178793          	addi	a5,a5,1
   23008:	fef43423          	sd	a5,-24(s0)
   2300c:	fe843783          	ld	a5,-24(s0)
   23010:	0007c783          	lbu	a5,0(a5)
   23014:	e6079ae3          	bnez	a5,22e88 <payload_bin+0x28d0>
   23018:	00000793          	li	a5,0
   2301c:	00078513          	mv	a0,a5
   23020:	04813083          	ld	ra,72(sp)
   23024:	04013403          	ld	s0,64(sp)
   23028:	05010113          	addi	sp,sp,80
   2302c:	00008067          	ret
   23030:	f9010113          	addi	sp,sp,-112
   23034:	02113423          	sd	ra,40(sp)
   23038:	02813023          	sd	s0,32(sp)
   2303c:	03010413          	addi	s0,sp,48
   23040:	fca43c23          	sd	a0,-40(s0)
   23044:	00b43423          	sd	a1,8(s0)
   23048:	00c43823          	sd	a2,16(s0)
   2304c:	00d43c23          	sd	a3,24(s0)
   23050:	02e43023          	sd	a4,32(s0)
   23054:	02f43423          	sd	a5,40(s0)
   23058:	03043823          	sd	a6,48(s0)
   2305c:	03143c23          	sd	a7,56(s0)
   23060:	04040793          	addi	a5,s0,64
   23064:	fcf43823          	sd	a5,-48(s0)
   23068:	fd043783          	ld	a5,-48(s0)
   2306c:	fc878793          	addi	a5,a5,-56
   23070:	fef43423          	sd	a5,-24(s0)
   23074:	fe843783          	ld	a5,-24(s0)
   23078:	00078593          	mv	a1,a5
   2307c:	fd843503          	ld	a0,-40(s0)
   23080:	dddff0ef          	jal	ra,22e5c <payload_bin+0x28a4>
   23084:	00000793          	li	a5,0
   23088:	00078513          	mv	a0,a5
   2308c:	02813083          	ld	ra,40(sp)
   23090:	02013403          	ld	s0,32(sp)
   23094:	07010113          	addi	sp,sp,112
   23098:	00008067          	ret
   2309c:	fd010113          	addi	sp,sp,-48
   230a0:	02113423          	sd	ra,40(sp)
   230a4:	02813023          	sd	s0,32(sp)
   230a8:	03010413          	addi	s0,sp,48
   230ac:	00050793          	mv	a5,a0
   230b0:	fcf42e23          	sw	a5,-36(s0)
   230b4:	03000513          	li	a0,48
   230b8:	94dff0ef          	jal	ra,22a04 <payload_bin+0x244c>
   230bc:	07800513          	li	a0,120
   230c0:	945ff0ef          	jal	ra,22a04 <payload_bin+0x244c>
   230c4:	00700793          	li	a5,7
   230c8:	fef42623          	sw	a5,-20(s0)
   230cc:	07c0006f          	j	23148 <payload_bin+0x2b90>
   230d0:	fec42783          	lw	a5,-20(s0)
   230d4:	0027979b          	slliw	a5,a5,0x2
   230d8:	0007879b          	sext.w	a5,a5
   230dc:	00078713          	mv	a4,a5
   230e0:	fdc42783          	lw	a5,-36(s0)
   230e4:	00e7d7bb          	srlw	a5,a5,a4
   230e8:	0007879b          	sext.w	a5,a5
   230ec:	0007879b          	sext.w	a5,a5
   230f0:	00f7f793          	andi	a5,a5,15
   230f4:	fef42423          	sw	a5,-24(s0)
   230f8:	fe842783          	lw	a5,-24(s0)
   230fc:	0007871b          	sext.w	a4,a5
   23100:	00900793          	li	a5,9
   23104:	02e7c063          	blt	a5,a4,23124 <payload_bin+0x2b6c>
   23108:	fe842783          	lw	a5,-24(s0)
   2310c:	0ff7f793          	andi	a5,a5,255
   23110:	0307879b          	addiw	a5,a5,48
   23114:	0ff7f793          	andi	a5,a5,255
   23118:	00078513          	mv	a0,a5
   2311c:	8e9ff0ef          	jal	ra,22a04 <payload_bin+0x244c>
   23120:	01c0006f          	j	2313c <payload_bin+0x2b84>
   23124:	fe842783          	lw	a5,-24(s0)
   23128:	0ff7f793          	andi	a5,a5,255
   2312c:	0377879b          	addiw	a5,a5,55
   23130:	0ff7f793          	andi	a5,a5,255
   23134:	00078513          	mv	a0,a5
   23138:	8cdff0ef          	jal	ra,22a04 <payload_bin+0x244c>
   2313c:	fec42783          	lw	a5,-20(s0)
   23140:	fff7879b          	addiw	a5,a5,-1
   23144:	fef42623          	sw	a5,-20(s0)
   23148:	fec42783          	lw	a5,-20(s0)
   2314c:	0007879b          	sext.w	a5,a5
   23150:	f807d0e3          	bgez	a5,230d0 <payload_bin+0x2b18>
   23154:	00000013          	nop
   23158:	00000013          	nop
   2315c:	02813083          	ld	ra,40(sp)
   23160:	02013403          	ld	s0,32(sp)
   23164:	03010113          	addi	sp,sp,48
   23168:	00008067          	ret
   2316c:	0000                	unimp
   2316e:	0000                	unimp
   23170:	abcd                	j	23762 <payload_bin+0x31aa>
   23172:	abcd                	j	23764 <payload_bin+0x31ac>
   23174:	5678                	lw	a4,108(a2)
   23176:	1234                	addi	a3,sp,296
   23178:	000212b7          	lui	t0,0x21
   2317c:	00028303          	lb	t1,0(t0) # 21000 <payload_bin+0xa48>
   23180:	00428303          	lb	t1,4(t0)
   23184:	ffc28303          	lb	t1,-4(t0)
   23188:	0002b303          	ld	t1,0(t0)
   2318c:	00428303          	lb	t1,4(t0)
   23190:	00000297          	auipc	t0,0x0
   23194:	fe028293          	addi	t0,t0,-32 # 23170 <payload_bin+0x2bb8>
   23198:	00000317          	auipc	t1,0x0
   2319c:	fd830313          	addi	t1,t1,-40 # 23170 <payload_bin+0x2bb8>
   231a0:	802002b7          	lui	t0,0x80200
   231a4:	40200337          	lui	t1,0x40200
   231a8:	00008067          	ret
   231ac:	c00002b7          	lui	t0,0xc0000
   231b0:	0452829b          	addiw	t0,t0,69
   231b4:	02129293          	slli	t0,t0,0x21
   231b8:	4012d593          	srai	a1,t0,0x1
   231bc:	0012d313          	srli	t1,t0,0x1
   231c0:	0250029b          	addiw	t0,zero,37
   231c4:	01f29293          	slli	t0,t0,0x1f
   231c8:	08a28293          	addi	t0,t0,138 # ffffffffc000008a <bss_begin+0xffffffffbffd908a>
   231cc:	4012d61b          	sraiw	a2,t0,0x1
   231d0:	0012d31b          	srliw	t1,t0,0x1
   231d4:	0012969b          	slliw	a3,t0,0x1
   231d8:	0490029b          	addiw	t0,zero,73
   231dc:	01e29293          	slli	t0,t0,0x1e
   231e0:	08a28293          	addi	t0,t0,138
   231e4:	4012d61b          	sraiw	a2,t0,0x1
   231e8:	0012d31b          	srliw	t1,t0,0x1
   231ec:	0012971b          	slliw	a4,t0,0x1
   231f0:	00008067          	ret
   231f4:	80028593          	addi	a1,t0,-2048
   231f8:	000012b7          	lui	t0,0x1
   231fc:	a012829b          	addiw	t0,t0,-1535
   23200:	01529293          	slli	t0,t0,0x15
   23204:	40000337          	lui	t1,0x40000
   23208:	70028593          	addi	a1,t0,1792 # 1700 <__bin_size-0x5900>
   2320c:	80028593          	addi	a1,t0,-2048
   23210:	0802861b          	addiw	a2,t0,128
   23214:	006286b3          	add	a3,t0,t1
   23218:	0062873b          	addw	a4,t0,t1
   2321c:	000012b7          	lui	t0,0x1
   23220:	c012829b          	addiw	t0,t0,-1023
   23224:	01529293          	slli	t0,t0,0x15
   23228:	00200337          	lui	t1,0x200
   2322c:	40628533          	sub	a0,t0,t1
   23230:	406285bb          	subw	a1,t0,t1
   23234:	00008067          	ret
   23238:	00b50533          	add	a0,a0,a1
   2323c:	00000013          	nop
   23240:	00008067          	ret
   23244:	ff810113          	addi	sp,sp,-8
   23248:	00113023          	sd	ra,0(sp)
   2324c:	00100513          	li	a0,1
   23250:	00200593          	li	a1,2
   23254:	fe5ff0ef          	jal	ra,23238 <payload_bin+0x2c80>
   23258:	00000013          	nop
   2325c:	00013083          	ld	ra,0(sp)
   23260:	00810113          	addi	sp,sp,8
   23264:	00008067          	ret
   23268:	000202b7          	lui	t0,0x20
   2326c:	00021337          	lui	t1,0x21
   23270:	02028393          	addi	t2,t0,32 # 20020 <_start+0x20>
   23274:	0002be03          	ld	t3,0(t0)
   23278:	01c33023          	sd	t3,0(t1) # 21000 <payload_bin+0xa48>
   2327c:	00828293          	addi	t0,t0,8
   23280:	00830313          	addi	t1,t1,8
   23284:	fe72c8e3          	blt	t0,t2,23274 <payload_bin+0x2cbc>
   23288:	00008067          	ret
   2328c:	00b56663          	bltu	a0,a1,23298 <payload_bin+0x2ce0>
   23290:	00000793          	li	a5,0
   23294:	0080006f          	j	2329c <payload_bin+0x2ce4>
   23298:	fff00793          	li	a5,-1
   2329c:	00078513          	mv	a0,a5
   232a0:	00008067          	ret
   232a4:	00050663          	beqz	a0,232b0 <payload_bin+0x2cf8>
   232a8:	fff58793          	addi	a5,a1,-1
   232ac:	0080006f          	j	232b4 <payload_bin+0x2cfc>
   232b0:	00258793          	addi	a5,a1,2
   232b4:	00078513          	mv	a0,a5
   232b8:	00008067          	ret
   232bc:	ff010113          	addi	sp,sp,-16
   232c0:	00113423          	sd	ra,8(sp)
   232c4:	fe1ff0ef          	jal	ra,232a4 <payload_bin+0x2cec>
   232c8:	00813083          	ld	ra,8(sp)
   232cc:	01010113          	addi	sp,sp,16
   232d0:	00008067          	ret
   232d4:	00000013          	nop
   232d8:	0800                	addi	s0,sp,16
   232da:	0080                	addi	s0,sp,64
   232dc:	0000                	unimp
   232de:	0000                	unimp
   232e0:	0860                	addi	s0,sp,28
   232e2:	0080                	addi	s0,sp,64
   232e4:	0000                	unimp
   232e6:	0000                	unimp
   232e8:	0880                	addi	s0,sp,80
   232ea:	0080                	addi	s0,sp,64
   232ec:	0000                	unimp
   232ee:	0000                	unimp
   232f0:	7566                	ld	a0,120(sp)
   232f2:	636e                	ld	t1,216(sp)
   232f4:	615f 6600 6e75      	0x6e756600615f
   232fa:	00625f63          	bge	tp,t1,23318 <payload_bin+0x2d60>
   232fe:	7566                	ld	a0,120(sp)
   23300:	636e                	ld	t1,216(sp)
   23302:	635f 0100 0000      	0x100635f
   23308:	00000003          	lb	zero,0(zero) # 0 <__bin_size-0x7000>
   2330c:	0000                	unimp
   2330e:	0000                	unimp
   23310:	00b50533          	add	a0,a0,a1
   23314:	00008067          	ret
   23318:	40b50533          	sub	a0,a0,a1
   2331c:	00008067          	ret
   23320:	ff010113          	addi	sp,sp,-16
   23324:	00113423          	sd	ra,8(sp)
   23328:	00050293          	mv	t0,a0
   2332c:	00058313          	mv	t1,a1
   23330:	00028513          	mv	a0,t0
   23334:	00030593          	mv	a1,t1
   23338:	fd9ff0ef          	jal	ra,23310 <payload_bin+0x2d58>
   2333c:	00813083          	ld	ra,8(sp)
   23340:	01010113          	addi	sp,sp,16
   23344:	00008067          	ret
   23348:	ff010113          	addi	sp,sp,-16
   2334c:	00113423          	sd	ra,8(sp)
   23350:	00050293          	mv	t0,a0
   23354:	00058313          	mv	t1,a1
   23358:	00028513          	mv	a0,t0
   2335c:	00030593          	mv	a1,t1
   23360:	fb9ff0ef          	jal	ra,23318 <payload_bin+0x2d60>
   23364:	00813083          	ld	ra,8(sp)
   23368:	01010113          	addi	sp,sp,16
   2336c:	00008067          	ret
	...
   23378:	020002b7          	lui	t0,0x2000
   2337c:	0f02829b          	addiw	t0,t0,240
   23380:	0002a303          	lw	t1,0(t0) # 2000000 <bss_begin+0x1fd9000>
   23384:	fff0f3b7          	lui	t2,0xfff0f
   23388:	0ff3839b          	addiw	t2,t2,255
   2338c:	00737333          	and	t1,t1,t2
   23390:	000303b7          	lui	t2,0x30
   23394:	3003839b          	addiw	t2,t2,768
   23398:	00736333          	or	t1,t1,t2
   2339c:	0062a023          	sw	t1,0(t0)
   233a0:	020022b7          	lui	t0,0x2002
   233a4:	90c2829b          	addiw	t0,t0,-1780
   233a8:	0002a303          	lw	t1,0(t0) # 2002000 <bss_begin+0x1fdb000>
   233ac:	00136313          	ori	t1,t1,1
   233b0:	0062a023          	sw	t1,0(t0)
   233b4:	020022b7          	lui	t0,0x2002
   233b8:	90c2829b          	addiw	t0,t0,-1780
   233bc:	0002a303          	lw	t1,0(t0) # 2002000 <bss_begin+0x1fdb000>
   233c0:	000103b7          	lui	t2,0x10
   233c4:	00736333          	or	t1,t1,t2
   233c8:	0062a023          	sw	t1,0(t0)
   233cc:	025002b7          	lui	t0,0x2500
   233d0:	0002a223          	sw	zero,4(t0) # 2500004 <bss_begin+0x24d9004>
   233d4:	0f700313          	li	t1,247
   233d8:	0062a423          	sw	t1,8(t0)
   233dc:	0002a823          	sw	zero,16(t0)
   233e0:	00c2a303          	lw	t1,12(t0)
   233e4:	08036313          	ori	t1,t1,128
   233e8:	0062a623          	sw	t1,12(t0)
   233ec:	00d00393          	li	t2,13
   233f0:	0072a023          	sw	t2,0(t0)
   233f4:	00000393          	li	t2,0
   233f8:	0072a223          	sw	t2,4(t0)
   233fc:	08034313          	xori	t1,t1,128
   23400:	0062a623          	sw	t1,12(t0)
   23404:	00c2a303          	lw	t1,12(t0)
   23408:	ff000393          	li	t2,-16
   2340c:	00737333          	and	t1,t1,t2
   23410:	00300393          	li	t2,3
   23414:	00736333          	or	t1,t1,t2
   23418:	0062a623          	sw	t1,12(t0)
   2341c:	00008067          	ret
   23420:	025002b7          	lui	t0,0x2500
   23424:	07c2a303          	lw	t1,124(t0) # 250007c <bss_begin+0x24d907c>
   23428:	00237313          	andi	t1,t1,2
   2342c:	fe030ce3          	beqz	t1,23424 <payload_bin+0x2e6c>
   23430:	00a28023          	sb	a0,0(t0)
   23434:	00008067          	ret
   23438:	00008c13          	mv	s8,ra
   2343c:	00050793          	mv	a5,a0
   23440:	0007c503          	lbu	a0,0(a5)
   23444:	00050863          	beqz	a0,23454 <payload_bin+0x2e9c>
   23448:	fd9ff0ef          	jal	ra,23420 <payload_bin+0x2e68>
   2344c:	00178793          	addi	a5,a5,1
   23450:	ff1ff06f          	j	23440 <payload_bin+0x2e88>
   23454:	000c0093          	mv	ra,s8
   23458:	00008067          	ret
   2345c:	00000293          	li	t0,0
   23460:	00b53023          	sd	a1,0(a0) # 2001000 <bss_begin+0x1fda000>
   23464:	00b53423          	sd	a1,8(a0)
   23468:	01028293          	addi	t0,t0,16
   2346c:	fec2cae3          	blt	t0,a2,23460 <payload_bin+0x2ea8>
   23470:	00008067          	ret
   23474:	0000                	unimp
   23476:	0000                	unimp
   23478:	303c                	fld	fa5,96(s0)
   2347a:	2578                	fld	fa4,200(a0)
   2347c:	786c                	ld	a1,240(s0)
   2347e:	203e                	fld	ft0,456(sp)
   23480:	7325                	lui	t1,0xfffe9
   23482:	000a                	c.slli	zero,0x2
   23484:	0000                	unimp
   23486:	0000                	unimp
   23488:	6574                	ld	a3,200(a0)
   2348a:	61207473          	csrrci	s0,0x612,0
   2348e:	646e                	ld	s0,216(sp)
   23490:	203a                	fld	ft0,392(sp)
   23492:	3d70                	fld	fa2,248(a0)
   23494:	7830                	ld	a2,112(s0)
   23496:	7825                	lui	a6,0xfffe9
   23498:	000a                	c.slli	zero,0x2
   2349a:	0000                	unimp
   2349c:	0000                	unimp
   2349e:	0000                	unimp
   234a0:	6574                	ld	a3,200(a0)
   234a2:	6f207473          	csrrci	s0,0x6f2,0
   234a6:	7272                	ld	tp,312(sp)
   234a8:	203a                	fld	ft0,392(sp)
   234aa:	3d70                	fld	fa2,248(a0)
   234ac:	7830                	ld	a2,112(s0)
   234ae:	7825                	lui	a6,0xfffe9
   234b0:	000a                	c.slli	zero,0x2
   234b2:	0000                	unimp
   234b4:	0000                	unimp
   234b6:	0000                	unimp
   234b8:	6574                	ld	a3,200(a0)
   234ba:	61207473          	csrrci	s0,0x612,0
   234be:	6464                	ld	s1,200(s0)
   234c0:	203a                	fld	ft0,392(sp)
   234c2:	3d70                	fld	fa2,248(a0)
   234c4:	7830                	ld	a2,112(s0)
   234c6:	7825                	lui	a6,0xfffe9
   234c8:	000a                	c.slli	zero,0x2
   234ca:	0000                	unimp
   234cc:	0000                	unimp
   234ce:	0000                	unimp
   234d0:	61747373          	csrrci	t1,0x617,8
   234d4:	7574                	ld	a3,232(a0)
   234d6:	303d2073          	csrs	mideleg,s10
   234da:	2578                	fld	fa4,200(a0)
   234dc:	0a78                	addi	a4,sp,284
   234de:	0000                	unimp
   234e0:	7325                	lui	t1,0xfffe9
   234e2:	203a                	fld	ft0,392(sp)
   234e4:	2061                	0x2061
   234e6:	203d                	0x203d
   234e8:	6425                	lui	s0,0x9
   234ea:	000a                	c.slli	zero,0x2
   234ec:	0000                	unimp
   234ee:	0000                	unimp
   234f0:	7361                	lui	t1,0xffff8
   234f2:	5f6d                	li	t5,-5
   234f4:	6f746f67          	0x6f746f67
   234f8:	203a                	fld	ft0,392(sp)
   234fa:	6572                	ld	a0,280(sp)
   234fc:	7574                	ld	a3,232(a0)
   234fe:	6e72                	ld	t3,280(sp)
   23500:	3120                	fld	fs0,96(a0)
   23502:	000a                	c.slli	zero,0x2
   23504:	0000                	unimp
   23506:	0000                	unimp
   23508:	7361                	lui	t1,0xffff8
   2350a:	5f6d                	li	t5,-5
   2350c:	6f746f67          	0x6f746f67
   23510:	203a                	fld	ft0,392(sp)
   23512:	2062                	fld	ft0,24(sp)
   23514:	7369                	lui	t1,0xffffa
   23516:	6e20                	ld	s0,88(a2)
   23518:	3120746f          	jal	s0,2a82a <bss_begin+0x382a>
   2351c:	000a                	c.slli	zero,0x2
   2351e:	0000                	unimp
   23520:	616c                	ld	a1,192(a0)
   23522:	3362                	fld	ft6,56(sp)
   23524:	352d                	addiw	a0,a0,-21
   23526:	203a                	fld	ft0,392(sp)
   23528:	706d6f63          	bltu	s10,t1,23c46 <payload_bin+0x368e>
   2352c:	7261                	lui	tp,0xffff8
   2352e:	5f65                	li	t5,-7
   23530:	6e61                	lui	t3,0x18
   23532:	5f64                	lw	s1,124(a4)
   23534:	6572                	ld	a0,280(sp)
   23536:	7574                	ld	a3,232(a0)
   23538:	6e72                	ld	t3,280(sp)
   2353a:	6f20                	ld	s0,88(a4)
   2353c:	00000a6b          	0xa6b
   23540:	616c                	ld	a1,192(a0)
   23542:	3362                	fld	ft6,56(sp)
   23544:	372d                	addiw	a4,a4,-21
   23546:	203a                	fld	ft0,392(sp)
   23548:	7262                	ld	tp,56(sp)
   2354a:	6e61                	lui	t3,0x18
   2354c:	74206863          	bltu	zero,sp,23c9c <payload_bin+0x36e4>
   23550:	7365                	lui	t1,0xffff9
   23552:	2074                	fld	fa3,192(s0)
   23554:	000a6b6f          	jal	s6,c9554 <bss_begin+0xa2554>
   23558:	616c                	ld	a1,192(a0)
   2355a:	3562                	fld	fa0,56(sp)
   2355c:	352d                	addiw	a0,a0,-21
   2355e:	203a                	fld	ft0,392(sp)
   23560:	616d                	addi	sp,sp,240
   23562:	5f6f7263          	bgeu	t5,s6,23b46 <payload_bin+0x358e>
   23566:	6574                	ld	a3,200(a0)
   23568:	315f7473          	csrrci	s0,0x315,30
   2356c:	6f20                	ld	s0,88(a4)
   2356e:	00000a6b          	0xa6b
   23572:	0000                	unimp
   23574:	0000                	unimp
   23576:	0000                	unimp
   23578:	616c                	ld	a1,192(a0)
   2357a:	3562                	fld	fa0,56(sp)
   2357c:	352d                	addiw	a0,a0,-21
   2357e:	203a                	fld	ft0,392(sp)
   23580:	616d                	addi	sp,sp,240
   23582:	5f6f7263          	bgeu	t5,s6,23b66 <payload_bin+0x35ae>
   23586:	6574                	ld	a3,200(a0)
   23588:	325f7473          	csrrci	s0,mhpmevent5,30
   2358c:	6f20                	ld	s0,88(a4)
   2358e:	00000a6b          	0xa6b
   23592:	0000                	unimp
   23594:	0000                	unimp
   23596:	0000                	unimp
   23598:	6542                	ld	a0,16(sp)
   2359a:	4f6e                	lw	t5,216(sp)
   2359c:	6d692053          	0x6d692053
   235a0:	6761                	lui	a4,0x18
   235a2:	2065                	0x2065
   235a4:	616c                	ld	a1,192(a0)
   235a6:	6f79                	lui	t5,0x1e
   235a8:	7475                	lui	s0,0xffffd
   235aa:	0a3a                	slli	s4,s4,0xe
   235ac:	0000                	unimp
   235ae:	0000                	unimp
   235b0:	2020                	fld	fs0,64(s0)
   235b2:	742e                	ld	s0,232(sp)
   235b4:	7865                	lui	a6,0xffff9
   235b6:	2e74                	fld	fa3,216(a2)
   235b8:	6f62                	ld	t5,24(sp)
   235ba:	203a746f          	jal	s0,cafbc <bss_begin+0xa3fbc>
   235be:	7830                	ld	a2,112(s0)
   235c0:	3025                	0x3025
   235c2:	6c38                	ld	a4,88(s0)
   235c4:	2078                	fld	fa4,192(s0)
   235c6:	202d                	0x202d
   235c8:	7830                	ld	a2,112(s0)
   235ca:	3025                	0x3025
   235cc:	6c38                	ld	a4,88(s0)
   235ce:	2078                	fld	fa4,192(s0)
   235d0:	2528                	fld	fa0,72(a0)
   235d2:	6c36                	ld	s8,328(sp)
   235d4:	2064                	fld	fs1,192(s0)
   235d6:	2942                	fld	fs2,16(sp)
   235d8:	000a                	c.slli	zero,0x2
   235da:	0000                	unimp
   235dc:	0000                	unimp
   235de:	0000                	unimp
   235e0:	2020                	fld	fs0,64(s0)
   235e2:	2020                	fld	fs0,64(s0)
   235e4:	2020                	fld	fs0,64(s0)
   235e6:	2e20                	fld	fs0,88(a2)
   235e8:	6574                	ld	a3,200(a0)
   235ea:	7478                	ld	a4,232(s0)
   235ec:	203a                	fld	ft0,392(sp)
   235ee:	7830                	ld	a2,112(s0)
   235f0:	3025                	0x3025
   235f2:	6c38                	ld	a4,88(s0)
   235f4:	2078                	fld	fa4,192(s0)
   235f6:	202d                	0x202d
   235f8:	7830                	ld	a2,112(s0)
   235fa:	3025                	0x3025
   235fc:	6c38                	ld	a4,88(s0)
   235fe:	2078                	fld	fa4,192(s0)
   23600:	2528                	fld	fa0,72(a0)
   23602:	6c36                	ld	s8,328(sp)
   23604:	2064                	fld	fs1,192(s0)
   23606:	2942                	fld	fs2,16(sp)
   23608:	000a                	c.slli	zero,0x2
   2360a:	0000                	unimp
   2360c:	0000                	unimp
   2360e:	0000                	unimp
   23610:	2020                	fld	fs0,64(s0)
   23612:	2020                	fld	fs0,64(s0)
   23614:	2e20                	fld	fs0,88(a2)
   23616:	6f72                	ld	t5,280(sp)
   23618:	6164                	ld	s1,192(a0)
   2361a:	6174                	ld	a3,192(a0)
   2361c:	203a                	fld	ft0,392(sp)
   2361e:	7830                	ld	a2,112(s0)
   23620:	3025                	0x3025
   23622:	6c38                	ld	a4,88(s0)
   23624:	2078                	fld	fa4,192(s0)
   23626:	202d                	0x202d
   23628:	7830                	ld	a2,112(s0)
   2362a:	3025                	0x3025
   2362c:	6c38                	ld	a4,88(s0)
   2362e:	2078                	fld	fa4,192(s0)
   23630:	2528                	fld	fa0,72(a0)
   23632:	6c36                	ld	s8,328(sp)
   23634:	2064                	fld	fs1,192(s0)
   23636:	2942                	fld	fs2,16(sp)
   23638:	000a                	c.slli	zero,0x2
   2363a:	0000                	unimp
   2363c:	0000                	unimp
   2363e:	0000                	unimp
   23640:	2020                	fld	fs0,64(s0)
   23642:	2020                	fld	fs0,64(s0)
   23644:	2020                	fld	fs0,64(s0)
   23646:	2e20                	fld	fs0,88(a2)
   23648:	6164                	ld	s1,192(a0)
   2364a:	6174                	ld	a3,192(a0)
   2364c:	203a                	fld	ft0,392(sp)
   2364e:	7830                	ld	a2,112(s0)
   23650:	3025                	0x3025
   23652:	6c38                	ld	a4,88(s0)
   23654:	2078                	fld	fa4,192(s0)
   23656:	202d                	0x202d
   23658:	7830                	ld	a2,112(s0)
   2365a:	3025                	0x3025
   2365c:	6c38                	ld	a4,88(s0)
   2365e:	2078                	fld	fa4,192(s0)
   23660:	2528                	fld	fa0,72(a0)
   23662:	6c36                	ld	s8,328(sp)
   23664:	2064                	fld	fs1,192(s0)
   23666:	2942                	fld	fs2,16(sp)
   23668:	000a                	c.slli	zero,0x2
   2366a:	0000                	unimp
   2366c:	0000                	unimp
   2366e:	0000                	unimp
   23670:	2020                	fld	fs0,64(s0)
   23672:	2020                	fld	fs0,64(s0)
   23674:	2020                	fld	fs0,64(s0)
   23676:	2020                	fld	fs0,64(s0)
   23678:	622e                	ld	tp,200(sp)
   2367a:	203a7373          	csrrci	t1,0x203,20
   2367e:	7830                	ld	a2,112(s0)
   23680:	3025                	0x3025
   23682:	6c38                	ld	a4,88(s0)
   23684:	2078                	fld	fa4,192(s0)
   23686:	202d                	0x202d
   23688:	7830                	ld	a2,112(s0)
   2368a:	3025                	0x3025
   2368c:	6c38                	ld	a4,88(s0)
   2368e:	2078                	fld	fa4,192(s0)
   23690:	2528                	fld	fa0,72(a0)
   23692:	6c36                	ld	s8,328(sp)
   23694:	2064                	fld	fs1,192(s0)
   23696:	2942                	fld	fs2,16(sp)
   23698:	000a                	c.slli	zero,0x2
   2369a:	0000                	unimp
   2369c:	0000                	unimp
   2369e:	0000                	unimp
   236a0:	636c6557          	0x636c6557
   236a4:	20656d6f          	jal	s10,798aa <bss_begin+0x528aa>
   236a8:	4952                	lw	s2,20(sp)
   236aa:	562d4353          	0x562d4353
   236ae:	0d21                	addi	s10,s10,8
   236b0:	000a                	c.slli	zero,0x2
   236b2:	0000                	unimp
   236b4:	0000                	unimp
   236b6:	0000                	unimp
   236b8:	7270                	ld	a2,224(a2)
   236ba:	6e69                	lui	t3,0x1a
   236bc:	6b74                	ld	a3,208(a4)
   236be:	6920                	ld	s0,80(a0)
   236c0:	696e                	ld	s2,216(sp)
   236c2:	2074                	fld	fa3,192(s0)
   236c4:	6f64                	ld	s1,216(a4)
   236c6:	656e                	ld	a0,216(sp)
   236c8:	000a                	c.slli	zero,0x2
   236ca:	0000                	unimp
   236cc:	0000                	unimp
   236ce:	0000                	unimp
   236d0:	6574                	ld	a3,200(a0)
   236d2:	615f7473          	csrrci	s0,0x615,30
   236d6:	675f6d73          	csrrsi	s10,0x675,30
   236da:	006f746f          	jal	s0,11a6e0 <bss_begin+0xf36e0>
   236de:	0000                	unimp
   236e0:	3130                	fld	fa2,96(a0)
   236e2:	3332                	fld	ft6,296(sp)
   236e4:	3534                	fld	fa3,104(a0)
   236e6:	3736                	fld	fa4,360(sp)
   236e8:	3938                	fld	fa4,112(a0)
   236ea:	4241                	li	tp,16
   236ec:	46454443          	fmadd.q	fs0,fa0,ft4,fs0,rmm
   236f0:	4a494847          	fmsub.d	fa6,fs2,ft4,fs1,rmm
   236f4:	4e4d4c4b          	fnmsub.q	fs8,fs10,ft4,fs1,rmm
   236f8:	5251504f          	fnmadd.d	ft0,ft2,ft5,fa0,unknown
   236fc:	56555453          	0x56555453
   23700:	5a595857          	0x5a595857
   23704:	0000                	unimp
   23706:	0000                	unimp
   23708:	3130                	fld	fa2,96(a0)
   2370a:	3332                	fld	ft6,296(sp)
   2370c:	3534                	fld	fa3,104(a0)
   2370e:	3736                	fld	fa4,360(sp)
   23710:	3938                	fld	fa4,112(a0)
   23712:	6261                	lui	tp,0x18
   23714:	66656463          	bltu	a0,t1,23d7c <payload_bin+0x37c4>
   23718:	6a696867          	0x6a696867
   2371c:	6e6d6c6b          	0x6e6d6c6b
   23720:	7271706f          	j	3b646 <bss_begin+0x14646>
   23724:	76757473          	csrrci	s0,0x767,10
   23728:	7a797877          	0x7a797877
   2372c:	0000                	unimp
   2372e:	0000                	unimp
   23730:	4e3c                	lw	a5,88(a2)
   23732:	4c55                	li	s8,21
   23734:	3e4c                	fld	fa1,184(a2)
   23736:	0000                	unimp
   23738:	de9c                	sw	a5,56(a3)
   2373a:	deccffff          	0xdeccffff
   2373e:	deccffff          	0xdeccffff
   23742:	deacffff          	0xdeacffff
   23746:	deccffff          	0xdeccffff
   2374a:	deccffff          	0xdeccffff
   2374e:	deccffff          	0xdeccffff
   23752:	deccffff          	0xdeccffff
   23756:	deccffff          	0xdeccffff
   2375a:	deccffff          	0xdeccffff
   2375e:	deccffff          	0xdeccffff
   23762:	de8cffff          	0xde8cffff
   23766:	deccffff          	0xdeccffff
   2376a:	de7cffff          	0xde7cffff
   2376e:	deccffff          	0xdeccffff
   23772:	deccffff          	0xdeccffff
   23776:	debcffff          	0xdebcffff
   2377a:	e2f8ffff          	0xe2f8ffff
   2377e:	e31cffff          	0xe31cffff
   23782:	e31cffff          	0xe31cffff
   23786:	e31cffff          	0xe31cffff
   2378a:	e31cffff          	0xe31cffff
   2378e:	e31cffff          	0xe31cffff
   23792:	e31cffff          	0xe31cffff
   23796:	e31cffff          	0xe31cffff
   2379a:	e31cffff          	0xe31cffff
   2379e:	e31cffff          	0xe31cffff
   237a2:	e31cffff          	0xe31cffff
   237a6:	e098ffff          	0xe098ffff
   237aa:	e304ffff          	0xe304ffff
   237ae:	e31cffff          	0xe31cffff
   237b2:	e31cffff          	0xe31cffff
   237b6:	e31cffff          	0xe31cffff
   237ba:	e31cffff          	0xe31cffff
   237be:	e304ffff          	0xe304ffff
   237c2:	e31cffff          	0xe31cffff
   237c6:	e31cffff          	0xe31cffff
   237ca:	e31cffff          	0xe31cffff
   237ce:	e31cffff          	0xe31cffff
   237d2:	e258ffff          	0xe258ffff
   237d6:	e2e0ffff          	0xe2e0ffff
   237da:	e288ffff          	0xe288ffff
   237de:	e31cffff          	0xe31cffff
   237e2:	e31cffff          	0xe31cffff
   237e6:	e130ffff          	0xe130ffff
   237ea:	e31cffff          	0xe31cffff
   237ee:	e310ffff          	0xe310ffff
   237f2:	e31cffff          	0xe31cffff
   237f6:	e31cffff          	0xe31cffff
   237fa:	e2ecffff          	0xe2ecffff
   237fe:	0a0dffff          	0xa0dffff
   23802:	6f42                	ld	t5,16(sp)
   23804:	6e69746f          	jal	s0,baeea <bss_begin+0x93eea>
   23808:	74612067          	0x74612067
   2380c:	6120                	ld	s0,64(a0)
   2380e:	0a0d6d73          	csrrsi	s10,0xa0,26
	...
   255b6:	0000                	unimp
   255b8:	7108                	ld	a0,32(a0)
   255ba:	0002                	c.slli64	zero
   255bc:	0000                	unimp
	...

Disassembly of section .rodata:

00000000000255c0 <.rodata>:
   255c0:	aae4                	fsd	fs1,208(a3)
   255c2:	ab98ffff          	0xab98ffff
   255c6:	ab98ffff          	0xab98ffff
   255ca:	ab98ffff          	0xab98ffff
   255ce:	ab98ffff          	0xab98ffff
   255d2:	ab98ffff          	0xab98ffff
   255d6:	ab98ffff          	0xab98ffff
   255da:	ab98ffff          	0xab98ffff
   255de:	ab98ffff          	0xab98ffff
   255e2:	ab98ffff          	0xab98ffff
   255e6:	ab98ffff          	0xab98ffff
   255ea:	ab98ffff          	0xab98ffff
   255ee:	ab98ffff          	0xab98ffff
   255f2:	ab98ffff          	0xab98ffff
   255f6:	ab98ffff          	0xab98ffff
   255fa:	ab98ffff          	0xab98ffff
   255fe:	aaf8ffff          	0xaaf8ffff
   25602:	ab0cffff          	0xab0cffff
   25606:	ab20ffff          	0xab20ffff
   2560a:	ab34ffff          	0xab34ffff
   2560e:	ab48ffff          	0xab48ffff
   25612:	ab5cffff          	0xab5cffff
   25616:	ab70ffff          	0xab70ffff
   2561a:	ab84ffff          	0xab84ffff
   2561e:	abb0ffff          	0xabb0ffff
   25622:	ac64ffff          	0xac64ffff
   25626:	ac64ffff          	0xac64ffff
   2562a:	ac64ffff          	0xac64ffff
   2562e:	ac64ffff          	0xac64ffff
   25632:	ac64ffff          	0xac64ffff
   25636:	ac64ffff          	0xac64ffff
   2563a:	ac64ffff          	0xac64ffff
   2563e:	ac64ffff          	0xac64ffff
   25642:	ac64ffff          	0xac64ffff
   25646:	ac64ffff          	0xac64ffff
   2564a:	ac64ffff          	0xac64ffff
   2564e:	ac64ffff          	0xac64ffff
   25652:	ac64ffff          	0xac64ffff
   25656:	ac64ffff          	0xac64ffff
   2565a:	ac64ffff          	0xac64ffff
   2565e:	abc4ffff          	0xabc4ffff
   25662:	abd8ffff          	0xabd8ffff
   25666:	abecffff          	0xabecffff
   2566a:	ac00ffff          	0xac00ffff
   2566e:	ac14ffff          	0xac14ffff
   25672:	ac28ffff          	0xac28ffff
   25676:	ac3cffff          	0xac3cffff
   2567a:	ac50ffff          	0xac50ffff
   2567e:	          	0xffff

Disassembly of section .data:

0000000000026000 <stacks_start>:
	...

