
benos.elf:     file format elf64-littleriscv


Disassembly of section .text.boot:

0000000000022000 <_start>:
   22000:	00005297          	auipc	t0,0x5
   22004:	00028293          	mv	t0,t0
   22008:	00000317          	auipc	t1,0x0
   2200c:	06030313          	addi	t1,t1,96 # 22068 <_etext_boot>
   22010:	00003397          	auipc	t2,0x3
   22014:	ac838393          	addi	t2,t2,-1336 # 24ad8 <_etext>
   22018:	0002b783          	ld	a5,0(t0) # 27000 <TEXT_ROM>
   2201c:	00f33023          	sd	a5,0(t1)
   22020:	00830313          	addi	t1,t1,8
   22024:	00828293          	addi	t0,t0,8
   22028:	fe7368e3          	bltu	t1,t2,22018 <_start+0x18>
   2202c:	10401073          	csrw	sie,zero
   22030:	1a9020ef          	jal	ra,249d8 <__init_uart>
   22034:	00000097          	auipc	ra,0x0
   22038:	01c080e7          	jalr	28(ra) # 22050 <print_asm>
   2203c:	00003117          	auipc	sp,0x3
   22040:	fc410113          	addi	sp,sp,-60 # 25000 <stacks_start>
   22044:	000012b7          	lui	t0,0x1
   22048:	00510133          	add	sp,sp,t0
   2204c:	3c80006f          	j	22414 <kernel_main>

0000000000022050 <print_asm>:
   22050:	00008493          	mv	s1,ra
   22054:	00003517          	auipc	a0,0x3
   22058:	d6450513          	addi	a0,a0,-668 # 24db8 <boot_string>
   2205c:	23d020ef          	jal	ra,24a98 <put_string_uart>
   22060:	00048093          	mv	ra,s1
   22064:	00008067          	ret

Disassembly of section .text:

0000000000022068 <print_func_name>:
   22068:	fc010113          	addi	sp,sp,-64
   2206c:	02113c23          	sd	ra,56(sp)
   22070:	02813823          	sd	s0,48(sp)
   22074:	04010413          	addi	s0,sp,64
   22078:	fca43423          	sd	a0,-56(s0)
   2207c:	fe042623          	sw	zero,-20(s0)
   22080:	0300006f          	j	220b0 <print_func_name+0x48>
   22084:	00003717          	auipc	a4,0x3
   22088:	8b470713          	addi	a4,a4,-1868 # 24938 <func_addr>
   2208c:	fec42783          	lw	a5,-20(s0)
   22090:	00379793          	slli	a5,a5,0x3
   22094:	00f707b3          	add	a5,a4,a5
   22098:	0007b783          	ld	a5,0(a5)
   2209c:	fc843703          	ld	a4,-56(s0)
   220a0:	02f70663          	beq	a4,a5,220cc <print_func_name+0x64>
   220a4:	fec42783          	lw	a5,-20(s0)
   220a8:	0017879b          	addiw	a5,a5,1
   220ac:	fef42623          	sw	a5,-20(s0)
   220b0:	fec42703          	lw	a4,-20(s0)
   220b4:	00003797          	auipc	a5,0x3
   220b8:	8b478793          	addi	a5,a5,-1868 # 24968 <func_num_syms>
   220bc:	0007b783          	ld	a5,0(a5)
   220c0:	fcf762e3          	bltu	a4,a5,22084 <print_func_name+0x1c>
   220c4:	00000793          	li	a5,0
   220c8:	0880006f          	j	22150 <print_func_name+0xe8>
   220cc:	00000013          	nop
   220d0:	00003797          	auipc	a5,0x3
   220d4:	88078793          	addi	a5,a5,-1920 # 24950 <func_string>
   220d8:	fef43023          	sd	a5,-32(s0)
   220dc:	fec42783          	lw	a5,-20(s0)
   220e0:	0007879b          	sext.w	a5,a5
   220e4:	00079863          	bnez	a5,220f4 <print_func_name+0x8c>
   220e8:	fe043783          	ld	a5,-32(s0)
   220ec:	fcf43c23          	sd	a5,-40(s0)
   220f0:	0480006f          	j	22138 <print_func_name+0xd0>
   220f4:	fe043783          	ld	a5,-32(s0)
   220f8:	00178793          	addi	a5,a5,1
   220fc:	fef43023          	sd	a5,-32(s0)
   22100:	fe043783          	ld	a5,-32(s0)
   22104:	0007c783          	lbu	a5,0(a5)
   22108:	00079863          	bnez	a5,22118 <print_func_name+0xb0>
   2210c:	fec42783          	lw	a5,-20(s0)
   22110:	fff7879b          	addiw	a5,a5,-1
   22114:	fef42623          	sw	a5,-20(s0)
   22118:	fec42783          	lw	a5,-20(s0)
   2211c:	0007879b          	sext.w	a5,a5
   22120:	fc079ae3          	bnez	a5,220f4 <print_func_name+0x8c>
   22124:	fe043783          	ld	a5,-32(s0)
   22128:	00178793          	addi	a5,a5,1
   2212c:	fef43023          	sd	a5,-32(s0)
   22130:	fe043783          	ld	a5,-32(s0)
   22134:	fcf43c23          	sd	a5,-40(s0)
   22138:	fd843603          	ld	a2,-40(s0)
   2213c:	fc843583          	ld	a1,-56(s0)
   22140:	00003517          	auipc	a0,0x3
   22144:	99850513          	addi	a0,a0,-1640 # 24ad8 <_etext>
   22148:	254010ef          	jal	ra,2339c <printk>
   2214c:	00000793          	li	a5,0
   22150:	00078513          	mv	a0,a5
   22154:	03813083          	ld	ra,56(sp)
   22158:	03013403          	ld	s0,48(sp)
   2215c:	04010113          	addi	sp,sp,64
   22160:	00008067          	ret

0000000000022164 <asm_test>:
   22164:	fe010113          	addi	sp,sp,-32
   22168:	00113c23          	sd	ra,24(sp)
   2216c:	00813823          	sd	s0,16(sp)
   22170:	02010413          	addi	s0,sp,32
   22174:	664020ef          	jal	ra,247d8 <load_store_test>
   22178:	694020ef          	jal	ra,2480c <shift_test>
   2217c:	6d8020ef          	jal	ra,24854 <add_sub_test>
   22180:	724020ef          	jal	ra,248a4 <branch_test>
   22184:	744020ef          	jal	ra,248c8 <my_memcpy_test>
   22188:	02800613          	li	a2,40
   2218c:	05500593          	li	a1,85
   22190:	00021537          	lui	a0,0x21
   22194:	4d4000ef          	jal	ra,22668 <memset>
   22198:	00900593          	li	a1,9
   2219c:	00a00513          	li	a0,10
   221a0:	74c020ef          	jal	ra,248ec <compare_and_return>
   221a4:	fea43423          	sd	a0,-24(s0)
   221a8:	fe843783          	ld	a5,-24(s0)
   221ac:	00079863          	bnez	a5,221bc <asm_test+0x58>
   221b0:	00003517          	auipc	a0,0x3
   221b4:	93850513          	addi	a0,a0,-1736 # 24ae8 <_etext+0x10>
   221b8:	7bd010ef          	jal	ra,24174 <uart_send_string>
   221bc:	00a00593          	li	a1,10
   221c0:	00900513          	li	a0,9
   221c4:	728020ef          	jal	ra,248ec <compare_and_return>
   221c8:	fea43023          	sd	a0,-32(s0)
   221cc:	fe043703          	ld	a4,-32(s0)
   221d0:	fff00793          	li	a5,-1
   221d4:	00f71863          	bne	a4,a5,221e4 <asm_test+0x80>
   221d8:	00003517          	auipc	a0,0x3
   221dc:	91050513          	addi	a0,a0,-1776 # 24ae8 <_etext+0x10>
   221e0:	795010ef          	jal	ra,24174 <uart_send_string>
   221e4:	00900593          	li	a1,9
   221e8:	00000513          	li	a0,0
   221ec:	718020ef          	jal	ra,24904 <sel_test>
   221f0:	fea43423          	sd	a0,-24(s0)
   221f4:	00200593          	li	a1,2
   221f8:	00500513          	li	a0,5
   221fc:	708020ef          	jal	ra,24904 <sel_test>
   22200:	fea43023          	sd	a0,-32(s0)
   22204:	718020ef          	jal	ra,2491c <bl_test>
   22208:	00003517          	auipc	a0,0x3
   2220c:	90050513          	addi	a0,a0,-1792 # 24b08 <_etext+0x30>
   22210:	765010ef          	jal	ra,24174 <uart_send_string>
   22214:	00500593          	li	a1,5
   22218:	00500513          	li	a0,5
   2221c:	764020ef          	jal	ra,24980 <macro_test_1>
   22220:	fea43423          	sd	a0,-24(s0)
   22224:	fe843703          	ld	a4,-24(s0)
   22228:	00a00793          	li	a5,10
   2222c:	00f71863          	bne	a4,a5,2223c <asm_test+0xd8>
   22230:	00003517          	auipc	a0,0x3
   22234:	8f050513          	addi	a0,a0,-1808 # 24b20 <_etext+0x48>
   22238:	73d010ef          	jal	ra,24174 <uart_send_string>
   2223c:	00500593          	li	a1,5
   22240:	00500513          	li	a0,5
   22244:	764020ef          	jal	ra,249a8 <macro_test_2>
   22248:	fea43023          	sd	a0,-32(s0)
   2224c:	fe043783          	ld	a5,-32(s0)
   22250:	00079863          	bnez	a5,22260 <asm_test+0xfc>
   22254:	00003517          	auipc	a0,0x3
   22258:	8ec50513          	addi	a0,a0,-1812 # 24b40 <_etext+0x68>
   2225c:	719010ef          	jal	ra,24174 <uart_send_string>
   22260:	00000013          	nop
   22264:	01813083          	ld	ra,24(sp)
   22268:	01013403          	ld	s0,16(sp)
   2226c:	02010113          	addi	sp,sp,32
   22270:	00008067          	ret

0000000000022274 <print_mem>:
   22274:	ff010113          	addi	sp,sp,-16
   22278:	00113423          	sd	ra,8(sp)
   2227c:	00813023          	sd	s0,0(sp)
   22280:	01010413          	addi	s0,sp,16
   22284:	00003517          	auipc	a0,0x3
   22288:	8dc50513          	addi	a0,a0,-1828 # 24b60 <_etext+0x88>
   2228c:	110010ef          	jal	ra,2339c <printk>
   22290:	00000597          	auipc	a1,0x0
   22294:	d7058593          	addi	a1,a1,-656 # 22000 <_start>
   22298:	00000617          	auipc	a2,0x0
   2229c:	dd060613          	addi	a2,a2,-560 # 22068 <print_func_name>
   222a0:	00000717          	auipc	a4,0x0
   222a4:	dc870713          	addi	a4,a4,-568 # 22068 <print_func_name>
   222a8:	00000797          	auipc	a5,0x0
   222ac:	d5878793          	addi	a5,a5,-680 # 22000 <_start>
   222b0:	40f707b3          	sub	a5,a4,a5
   222b4:	00078693          	mv	a3,a5
   222b8:	00003517          	auipc	a0,0x3
   222bc:	8c050513          	addi	a0,a0,-1856 # 24b78 <_etext+0xa0>
   222c0:	0dc010ef          	jal	ra,2339c <printk>
   222c4:	00000597          	auipc	a1,0x0
   222c8:	da458593          	addi	a1,a1,-604 # 22068 <print_func_name>
   222cc:	00003617          	auipc	a2,0x3
   222d0:	80c60613          	addi	a2,a2,-2036 # 24ad8 <_etext>
   222d4:	00003717          	auipc	a4,0x3
   222d8:	80470713          	addi	a4,a4,-2044 # 24ad8 <_etext>
   222dc:	00000797          	auipc	a5,0x0
   222e0:	d8c78793          	addi	a5,a5,-628 # 22068 <print_func_name>
   222e4:	40f707b3          	sub	a5,a4,a5
   222e8:	00078693          	mv	a3,a5
   222ec:	00003517          	auipc	a0,0x3
   222f0:	8bc50513          	addi	a0,a0,-1860 # 24ba8 <_etext+0xd0>
   222f4:	0a8010ef          	jal	ra,2339c <printk>
   222f8:	00002597          	auipc	a1,0x2
   222fc:	7e058593          	addi	a1,a1,2016 # 24ad8 <_etext>
   22300:	00003617          	auipc	a2,0x3
   22304:	ac860613          	addi	a2,a2,-1336 # 24dc8 <_data>
   22308:	00003717          	auipc	a4,0x3
   2230c:	ac070713          	addi	a4,a4,-1344 # 24dc8 <_data>
   22310:	00002797          	auipc	a5,0x2
   22314:	7c878793          	addi	a5,a5,1992 # 24ad8 <_etext>
   22318:	40f707b3          	sub	a5,a4,a5
   2231c:	00078693          	mv	a3,a5
   22320:	00003517          	auipc	a0,0x3
   22324:	8b850513          	addi	a0,a0,-1864 # 24bd8 <_etext+0x100>
   22328:	074010ef          	jal	ra,2339c <printk>
   2232c:	00003597          	auipc	a1,0x3
   22330:	a9c58593          	addi	a1,a1,-1380 # 24dc8 <_data>
   22334:	00004617          	auipc	a2,0x4
   22338:	ccc60613          	addi	a2,a2,-820 # 26000 <g_record>
   2233c:	00004717          	auipc	a4,0x4
   22340:	cc470713          	addi	a4,a4,-828 # 26000 <g_record>
   22344:	00003797          	auipc	a5,0x3
   22348:	a8478793          	addi	a5,a5,-1404 # 24dc8 <_data>
   2234c:	40f707b3          	sub	a5,a4,a5
   22350:	00078693          	mv	a3,a5
   22354:	00003517          	auipc	a0,0x3
   22358:	8b450513          	addi	a0,a0,-1868 # 24c08 <_etext+0x130>
   2235c:	040010ef          	jal	ra,2339c <printk>
   22360:	00004597          	auipc	a1,0x4
   22364:	ca858593          	addi	a1,a1,-856 # 26008 <print_buf>
   22368:	00004617          	auipc	a2,0x4
   2236c:	eb060613          	addi	a2,a2,-336 # 26218 <_ebss>
   22370:	00004717          	auipc	a4,0x4
   22374:	ea870713          	addi	a4,a4,-344 # 26218 <_ebss>
   22378:	00004797          	auipc	a5,0x4
   2237c:	c9078793          	addi	a5,a5,-880 # 26008 <print_buf>
   22380:	40f707b3          	sub	a5,a4,a5
   22384:	00078693          	mv	a3,a5
   22388:	00003517          	auipc	a0,0x3
   2238c:	8b050513          	addi	a0,a0,-1872 # 24c38 <_etext+0x160>
   22390:	00c010ef          	jal	ra,2339c <printk>
   22394:	00000013          	nop
   22398:	00813083          	ld	ra,8(sp)
   2239c:	00013403          	ld	s0,0(sp)
   223a0:	01010113          	addi	sp,sp,16
   223a4:	00008067          	ret

00000000000223a8 <clean_bss>:
   223a8:	fd010113          	addi	sp,sp,-48
   223ac:	02113423          	sd	ra,40(sp)
   223b0:	02813023          	sd	s0,32(sp)
   223b4:	03010413          	addi	s0,sp,48
   223b8:	00004797          	auipc	a5,0x4
   223bc:	c5078793          	addi	a5,a5,-944 # 26008 <print_buf>
   223c0:	fef43423          	sd	a5,-24(s0)
   223c4:	00004797          	auipc	a5,0x4
   223c8:	e5478793          	addi	a5,a5,-428 # 26218 <_ebss>
   223cc:	fef43023          	sd	a5,-32(s0)
   223d0:	fe043783          	ld	a5,-32(s0)
   223d4:	0007871b          	sext.w	a4,a5
   223d8:	fe843783          	ld	a5,-24(s0)
   223dc:	0007879b          	sext.w	a5,a5
   223e0:	40f707bb          	subw	a5,a4,a5
   223e4:	fcf42e23          	sw	a5,-36(s0)
   223e8:	fe843783          	ld	a5,-24(s0)
   223ec:	fdc46703          	lwu	a4,-36(s0)
   223f0:	00070613          	mv	a2,a4
   223f4:	00000593          	li	a1,0
   223f8:	00078513          	mv	a0,a5
   223fc:	26c000ef          	jal	ra,22668 <memset>
   22400:	00000013          	nop
   22404:	02813083          	ld	ra,40(sp)
   22408:	02013403          	ld	s0,32(sp)
   2240c:	03010113          	addi	sp,sp,48
   22410:	00008067          	ret

0000000000022414 <kernel_main>:
   22414:	ff010113          	addi	sp,sp,-16
   22418:	00113423          	sd	ra,8(sp)
   2241c:	00813023          	sd	s0,0(sp)
   22420:	01010413          	addi	s0,sp,16
   22424:	f85ff0ef          	jal	ra,223a8 <clean_bss>
   22428:	1f1010ef          	jal	ra,23e18 <uart_init>
   2242c:	00003517          	auipc	a0,0x3
   22430:	83c50513          	addi	a0,a0,-1988 # 24c68 <_etext+0x190>
   22434:	541010ef          	jal	ra,24174 <uart_send_string>
   22438:	6c9000ef          	jal	ra,23300 <init_printk_done>
   2243c:	00003517          	auipc	a0,0x3
   22440:	84450513          	addi	a0,a0,-1980 # 24c80 <_etext+0x1a8>
   22444:	759000ef          	jal	ra,2339c <printk>
   22448:	d1dff0ef          	jal	ra,22164 <asm_test>
   2244c:	008017b7          	lui	a5,0x801
   22450:	88078513          	addi	a0,a5,-1920 # 800880 <TEXT_ROM+0x7d9880>
   22454:	c15ff0ef          	jal	ra,22068 <print_func_name>
   22458:	008017b7          	lui	a5,0x801
   2245c:	86078513          	addi	a0,a5,-1952 # 800860 <TEXT_ROM+0x7d9860>
   22460:	c09ff0ef          	jal	ra,22068 <print_func_name>
   22464:	008017b7          	lui	a5,0x801
   22468:	80078513          	addi	a0,a5,-2048 # 800800 <TEXT_ROM+0x7d9800>
   2246c:	bfdff0ef          	jal	ra,22068 <print_func_name>
   22470:	e05ff0ef          	jal	ra,22274 <print_mem>
   22474:	0000006f          	j	22474 <kernel_main+0x60>

0000000000022478 <__memset_1bytes>:
   22478:	fc010113          	addi	sp,sp,-64
   2247c:	02813c23          	sd	s0,56(sp)
   22480:	04010413          	addi	s0,sp,64
   22484:	fca43c23          	sd	a0,-40(s0)
   22488:	00058793          	mv	a5,a1
   2248c:	fcc43423          	sd	a2,-56(s0)
   22490:	fcf42a23          	sw	a5,-44(s0)
   22494:	fd843783          	ld	a5,-40(s0)
   22498:	fef43423          	sd	a5,-24(s0)
   2249c:	01c0006f          	j	224b8 <__memset_1bytes+0x40>
   224a0:	fe843783          	ld	a5,-24(s0)
   224a4:	00178713          	addi	a4,a5,1
   224a8:	fee43423          	sd	a4,-24(s0)
   224ac:	fd442703          	lw	a4,-44(s0)
   224b0:	0ff77713          	andi	a4,a4,255
   224b4:	00e78023          	sb	a4,0(a5)
   224b8:	fc843783          	ld	a5,-56(s0)
   224bc:	fff78713          	addi	a4,a5,-1
   224c0:	fce43423          	sd	a4,-56(s0)
   224c4:	fc079ee3          	bnez	a5,224a0 <__memset_1bytes+0x28>
   224c8:	fd843783          	ld	a5,-40(s0)
   224cc:	00078513          	mv	a0,a5
   224d0:	03813403          	ld	s0,56(sp)
   224d4:	04010113          	addi	sp,sp,64
   224d8:	00008067          	ret

00000000000224dc <__memset>:
   224dc:	f9010113          	addi	sp,sp,-112
   224e0:	06113423          	sd	ra,104(sp)
   224e4:	06813023          	sd	s0,96(sp)
   224e8:	07010413          	addi	s0,sp,112
   224ec:	faa43423          	sd	a0,-88(s0)
   224f0:	00058793          	mv	a5,a1
   224f4:	f8c43c23          	sd	a2,-104(s0)
   224f8:	faf42223          	sw	a5,-92(s0)
   224fc:	fa843783          	ld	a5,-88(s0)
   22500:	fef43423          	sd	a5,-24(s0)
   22504:	01000793          	li	a5,16
   22508:	fcf43423          	sd	a5,-56(s0)
   2250c:	f9843783          	ld	a5,-104(s0)
   22510:	fef43023          	sd	a5,-32(s0)
   22514:	fe843783          	ld	a5,-24(s0)
   22518:	fcf43023          	sd	a5,-64(s0)
   2251c:	fc043823          	sd	zero,-48(s0)
   22520:	fc042e23          	sw	zero,-36(s0)
   22524:	0340006f          	j	22558 <__memset+0x7c>
   22528:	fa442783          	lw	a5,-92(s0)
   2252c:	0ff7f793          	andi	a5,a5,255
   22530:	fdc42703          	lw	a4,-36(s0)
   22534:	0037171b          	slliw	a4,a4,0x3
   22538:	0007071b          	sext.w	a4,a4
   2253c:	00e797b3          	sll	a5,a5,a4
   22540:	fd043703          	ld	a4,-48(s0)
   22544:	00f767b3          	or	a5,a4,a5
   22548:	fcf43823          	sd	a5,-48(s0)
   2254c:	fdc42783          	lw	a5,-36(s0)
   22550:	0017879b          	addiw	a5,a5,1
   22554:	fcf42e23          	sw	a5,-36(s0)
   22558:	fdc42783          	lw	a5,-36(s0)
   2255c:	0007871b          	sext.w	a4,a5
   22560:	00700793          	li	a5,7
   22564:	fce7d2e3          	bge	a5,a4,22528 <__memset+0x4c>
   22568:	fc843783          	ld	a5,-56(s0)
   2256c:	fff78713          	addi	a4,a5,-1
   22570:	fc043783          	ld	a5,-64(s0)
   22574:	00f777b3          	and	a5,a4,a5
   22578:	04078e63          	beqz	a5,225d4 <__memset+0xf8>
   2257c:	fc843783          	ld	a5,-56(s0)
   22580:	fff78793          	addi	a5,a5,-1
   22584:	fc043703          	ld	a4,-64(s0)
   22588:	00f777b3          	and	a5,a4,a5
   2258c:	faf43c23          	sd	a5,-72(s0)
   22590:	fc843703          	ld	a4,-56(s0)
   22594:	fb843783          	ld	a5,-72(s0)
   22598:	40f707b3          	sub	a5,a4,a5
   2259c:	faf43c23          	sd	a5,-72(s0)
   225a0:	fa442783          	lw	a5,-92(s0)
   225a4:	fb843603          	ld	a2,-72(s0)
   225a8:	00078593          	mv	a1,a5
   225ac:	fe843503          	ld	a0,-24(s0)
   225b0:	ec9ff0ef          	jal	ra,22478 <__memset_1bytes>
   225b4:	fe843703          	ld	a4,-24(s0)
   225b8:	fb843783          	ld	a5,-72(s0)
   225bc:	00f707b3          	add	a5,a4,a5
   225c0:	fef43423          	sd	a5,-24(s0)
   225c4:	f9843703          	ld	a4,-104(s0)
   225c8:	fb843783          	ld	a5,-72(s0)
   225cc:	40f707b3          	sub	a5,a4,a5
   225d0:	fef43023          	sd	a5,-32(s0)
   225d4:	fe043703          	ld	a4,-32(s0)
   225d8:	fc843783          	ld	a5,-56(s0)
   225dc:	06e7fa63          	bgeu	a5,a4,22650 <__memset+0x174>
   225e0:	fe043703          	ld	a4,-32(s0)
   225e4:	fc843783          	ld	a5,-56(s0)
   225e8:	02f757b3          	divu	a5,a4,a5
   225ec:	faf42a23          	sw	a5,-76(s0)
   225f0:	fe043703          	ld	a4,-32(s0)
   225f4:	fc843783          	ld	a5,-56(s0)
   225f8:	02f777b3          	remu	a5,a4,a5
   225fc:	fef43023          	sd	a5,-32(s0)
   22600:	fb442783          	lw	a5,-76(s0)
   22604:	0047979b          	slliw	a5,a5,0x4
   22608:	0007879b          	sext.w	a5,a5
   2260c:	00078613          	mv	a2,a5
   22610:	fd043583          	ld	a1,-48(s0)
   22614:	fe843503          	ld	a0,-24(s0)
   22618:	4a4020ef          	jal	ra,24abc <__memset_16bytes_asm>
   2261c:	fe043783          	ld	a5,-32(s0)
   22620:	02078863          	beqz	a5,22650 <__memset+0x174>
   22624:	fb442783          	lw	a5,-76(s0)
   22628:	0047979b          	slliw	a5,a5,0x4
   2262c:	0007879b          	sext.w	a5,a5
   22630:	00078713          	mv	a4,a5
   22634:	fe843783          	ld	a5,-24(s0)
   22638:	00e787b3          	add	a5,a5,a4
   2263c:	fa442703          	lw	a4,-92(s0)
   22640:	fe043603          	ld	a2,-32(s0)
   22644:	00070593          	mv	a1,a4
   22648:	00078513          	mv	a0,a5
   2264c:	e2dff0ef          	jal	ra,22478 <__memset_1bytes>
   22650:	fa843783          	ld	a5,-88(s0)
   22654:	00078513          	mv	a0,a5
   22658:	06813083          	ld	ra,104(sp)
   2265c:	06013403          	ld	s0,96(sp)
   22660:	07010113          	addi	sp,sp,112
   22664:	00008067          	ret

0000000000022668 <memset>:
   22668:	fd010113          	addi	sp,sp,-48
   2266c:	02113423          	sd	ra,40(sp)
   22670:	02813023          	sd	s0,32(sp)
   22674:	03010413          	addi	s0,sp,48
   22678:	fea43423          	sd	a0,-24(s0)
   2267c:	00058793          	mv	a5,a1
   22680:	fcc43c23          	sd	a2,-40(s0)
   22684:	fef42223          	sw	a5,-28(s0)
   22688:	fe442783          	lw	a5,-28(s0)
   2268c:	fd843603          	ld	a2,-40(s0)
   22690:	00078593          	mv	a1,a5
   22694:	fe843503          	ld	a0,-24(s0)
   22698:	e45ff0ef          	jal	ra,224dc <__memset>
   2269c:	00050793          	mv	a5,a0
   226a0:	00078513          	mv	a0,a5
   226a4:	02813083          	ld	ra,40(sp)
   226a8:	02013403          	ld	s0,32(sp)
   226ac:	03010113          	addi	sp,sp,48
   226b0:	00008067          	ret

00000000000226b4 <scan_number>:
   226b4:	fd010113          	addi	sp,sp,-48
   226b8:	02813423          	sd	s0,40(sp)
   226bc:	03010413          	addi	s0,sp,48
   226c0:	fca43c23          	sd	a0,-40(s0)
   226c4:	fcb43823          	sd	a1,-48(s0)
   226c8:	fe042623          	sw	zero,-20(s0)
   226cc:	0440006f          	j	22710 <scan_number+0x5c>
   226d0:	fec42703          	lw	a4,-20(s0)
   226d4:	00070793          	mv	a5,a4
   226d8:	0027979b          	slliw	a5,a5,0x2
   226dc:	00e787bb          	addw	a5,a5,a4
   226e0:	0017979b          	slliw	a5,a5,0x1
   226e4:	fef42623          	sw	a5,-20(s0)
   226e8:	fd843783          	ld	a5,-40(s0)
   226ec:	00178713          	addi	a4,a5,1
   226f0:	fce43c23          	sd	a4,-40(s0)
   226f4:	0007c783          	lbu	a5,0(a5)
   226f8:	0007879b          	sext.w	a5,a5
   226fc:	fd07879b          	addiw	a5,a5,-48
   22700:	0007879b          	sext.w	a5,a5
   22704:	fec42703          	lw	a4,-20(s0)
   22708:	00f707bb          	addw	a5,a4,a5
   2270c:	fef42623          	sw	a5,-20(s0)
   22710:	fd843783          	ld	a5,-40(s0)
   22714:	0007c783          	lbu	a5,0(a5)
   22718:	00078713          	mv	a4,a5
   2271c:	02f00793          	li	a5,47
   22720:	00e7fc63          	bgeu	a5,a4,22738 <scan_number+0x84>
   22724:	fd843783          	ld	a5,-40(s0)
   22728:	0007c783          	lbu	a5,0(a5)
   2272c:	00078713          	mv	a4,a5
   22730:	03900793          	li	a5,57
   22734:	f8e7fee3          	bgeu	a5,a4,226d0 <scan_number+0x1c>
   22738:	fd043783          	ld	a5,-48(s0)
   2273c:	fec42703          	lw	a4,-20(s0)
   22740:	00e7a023          	sw	a4,0(a5)
   22744:	fd843783          	ld	a5,-40(s0)
   22748:	00078513          	mv	a0,a5
   2274c:	02813403          	ld	s0,40(sp)
   22750:	03010113          	addi	sp,sp,48
   22754:	00008067          	ret

0000000000022758 <number>:
   22758:	f2010113          	addi	sp,sp,-224
   2275c:	0c813c23          	sd	s0,216(sp)
   22760:	0e010413          	addi	s0,sp,224
   22764:	f2a43c23          	sd	a0,-200(s0)
   22768:	f2b43823          	sd	a1,-208(s0)
   2276c:	00060593          	mv	a1,a2
   22770:	00068613          	mv	a2,a3
   22774:	00070693          	mv	a3,a4
   22778:	00078713          	mv	a4,a5
   2277c:	00058793          	mv	a5,a1
   22780:	f2f42623          	sw	a5,-212(s0)
   22784:	00060793          	mv	a5,a2
   22788:	f2f42423          	sw	a5,-216(s0)
   2278c:	00068793          	mv	a5,a3
   22790:	f2f42223          	sw	a5,-220(s0)
   22794:	00070793          	mv	a5,a4
   22798:	f2f42023          	sw	a5,-224(s0)
   2279c:	fe0407a3          	sb	zero,-17(s0)
   227a0:	00002797          	auipc	a5,0x2
   227a4:	4f878793          	addi	a5,a5,1272 # 24c98 <_etext+0x1c0>
   227a8:	fef43023          	sd	a5,-32(s0)
   227ac:	f2042783          	lw	a5,-224(s0)
   227b0:	0407f793          	andi	a5,a5,64
   227b4:	0007879b          	sext.w	a5,a5
   227b8:	00078863          	beqz	a5,227c8 <number+0x70>
   227bc:	00002797          	auipc	a5,0x2
   227c0:	50478793          	addi	a5,a5,1284 # 24cc0 <_etext+0x1e8>
   227c4:	fef43023          	sd	a5,-32(s0)
   227c8:	f2042783          	lw	a5,-224(s0)
   227cc:	0107f793          	andi	a5,a5,16
   227d0:	0007879b          	sext.w	a5,a5
   227d4:	00078863          	beqz	a5,227e4 <number+0x8c>
   227d8:	f2042783          	lw	a5,-224(s0)
   227dc:	ffe7f793          	andi	a5,a5,-2
   227e0:	f2f42023          	sw	a5,-224(s0)
   227e4:	f2c42783          	lw	a5,-212(s0)
   227e8:	0007871b          	sext.w	a4,a5
   227ec:	00100793          	li	a5,1
   227f0:	00e7da63          	bge	a5,a4,22804 <number+0xac>
   227f4:	f2c42783          	lw	a5,-212(s0)
   227f8:	0007871b          	sext.w	a4,a5
   227fc:	02400793          	li	a5,36
   22800:	00e7d663          	bge	a5,a4,2280c <number+0xb4>
   22804:	00000793          	li	a5,0
   22808:	3400006f          	j	22b48 <number+0x3f0>
   2280c:	f2042783          	lw	a5,-224(s0)
   22810:	0017f793          	andi	a5,a5,1
   22814:	0007879b          	sext.w	a5,a5
   22818:	00078663          	beqz	a5,22824 <number+0xcc>
   2281c:	03000793          	li	a5,48
   22820:	0080006f          	j	22828 <number+0xd0>
   22824:	02000793          	li	a5,32
   22828:	fcf40da3          	sb	a5,-37(s0)
   2282c:	f2042783          	lw	a5,-224(s0)
   22830:	0027f793          	andi	a5,a5,2
   22834:	0007879b          	sext.w	a5,a5
   22838:	06078c63          	beqz	a5,228b0 <number+0x158>
   2283c:	f3043783          	ld	a5,-208(s0)
   22840:	fcf43823          	sd	a5,-48(s0)
   22844:	fd043783          	ld	a5,-48(s0)
   22848:	0007de63          	bgez	a5,22864 <number+0x10c>
   2284c:	02d00793          	li	a5,45
   22850:	fef407a3          	sb	a5,-17(s0)
   22854:	fd043783          	ld	a5,-48(s0)
   22858:	40f007b3          	neg	a5,a5
   2285c:	f2f43823          	sd	a5,-208(s0)
   22860:	0500006f          	j	228b0 <number+0x158>
   22864:	f2042783          	lw	a5,-224(s0)
   22868:	0047f793          	andi	a5,a5,4
   2286c:	0007879b          	sext.w	a5,a5
   22870:	00078e63          	beqz	a5,2288c <number+0x134>
   22874:	02b00793          	li	a5,43
   22878:	fef407a3          	sb	a5,-17(s0)
   2287c:	f2842783          	lw	a5,-216(s0)
   22880:	fff7879b          	addiw	a5,a5,-1
   22884:	f2f42423          	sw	a5,-216(s0)
   22888:	0280006f          	j	228b0 <number+0x158>
   2288c:	f2042783          	lw	a5,-224(s0)
   22890:	0087f793          	andi	a5,a5,8
   22894:	0007879b          	sext.w	a5,a5
   22898:	00078c63          	beqz	a5,228b0 <number+0x158>
   2289c:	02000793          	li	a5,32
   228a0:	fef407a3          	sb	a5,-17(s0)
   228a4:	f2842783          	lw	a5,-216(s0)
   228a8:	fff7879b          	addiw	a5,a5,-1
   228ac:	f2f42423          	sw	a5,-216(s0)
   228b0:	f2042783          	lw	a5,-224(s0)
   228b4:	0207f793          	andi	a5,a5,32
   228b8:	0007879b          	sext.w	a5,a5
   228bc:	04078063          	beqz	a5,228fc <number+0x1a4>
   228c0:	f2c42783          	lw	a5,-212(s0)
   228c4:	0007871b          	sext.w	a4,a5
   228c8:	01000793          	li	a5,16
   228cc:	00f71a63          	bne	a4,a5,228e0 <number+0x188>
   228d0:	f2842783          	lw	a5,-216(s0)
   228d4:	ffe7879b          	addiw	a5,a5,-2
   228d8:	f2f42423          	sw	a5,-216(s0)
   228dc:	0200006f          	j	228fc <number+0x1a4>
   228e0:	f2c42783          	lw	a5,-212(s0)
   228e4:	0007871b          	sext.w	a4,a5
   228e8:	00800793          	li	a5,8
   228ec:	00f71863          	bne	a4,a5,228fc <number+0x1a4>
   228f0:	f2842783          	lw	a5,-216(s0)
   228f4:	fff7879b          	addiw	a5,a5,-1
   228f8:	f2f42423          	sw	a5,-216(s0)
   228fc:	fc042e23          	sw	zero,-36(s0)
   22900:	f3043783          	ld	a5,-208(s0)
   22904:	06079e63          	bnez	a5,22980 <number+0x228>
   22908:	fdc42783          	lw	a5,-36(s0)
   2290c:	0017871b          	addiw	a4,a5,1
   22910:	fce42e23          	sw	a4,-36(s0)
   22914:	ff040713          	addi	a4,s0,-16
   22918:	00f707b3          	add	a5,a4,a5
   2291c:	03000713          	li	a4,48
   22920:	f4e78c23          	sb	a4,-168(a5)
   22924:	0640006f          	j	22988 <number+0x230>
   22928:	f2c42783          	lw	a5,-212(s0)
   2292c:	fcf42623          	sw	a5,-52(s0)
   22930:	fcc46783          	lwu	a5,-52(s0)
   22934:	f3043703          	ld	a4,-208(s0)
   22938:	02f777b3          	remu	a5,a4,a5
   2293c:	fcf42423          	sw	a5,-56(s0)
   22940:	fcc46783          	lwu	a5,-52(s0)
   22944:	f3043703          	ld	a4,-208(s0)
   22948:	02f757b3          	divu	a5,a4,a5
   2294c:	f2f43823          	sd	a5,-208(s0)
   22950:	fc842783          	lw	a5,-56(s0)
   22954:	02079793          	slli	a5,a5,0x20
   22958:	0207d793          	srli	a5,a5,0x20
   2295c:	fe043703          	ld	a4,-32(s0)
   22960:	00f70733          	add	a4,a4,a5
   22964:	fdc42783          	lw	a5,-36(s0)
   22968:	0017869b          	addiw	a3,a5,1
   2296c:	fcd42e23          	sw	a3,-36(s0)
   22970:	00074703          	lbu	a4,0(a4)
   22974:	ff040693          	addi	a3,s0,-16
   22978:	00f687b3          	add	a5,a3,a5
   2297c:	f4e78c23          	sb	a4,-168(a5)
   22980:	f3043783          	ld	a5,-208(s0)
   22984:	fa0792e3          	bnez	a5,22928 <number+0x1d0>
   22988:	fdc42703          	lw	a4,-36(s0)
   2298c:	f2442783          	lw	a5,-220(s0)
   22990:	0007071b          	sext.w	a4,a4
   22994:	0007879b          	sext.w	a5,a5
   22998:	00e7d663          	bge	a5,a4,229a4 <number+0x24c>
   2299c:	fdc42783          	lw	a5,-36(s0)
   229a0:	f2f42223          	sw	a5,-220(s0)
   229a4:	f2842703          	lw	a4,-216(s0)
   229a8:	f2442783          	lw	a5,-220(s0)
   229ac:	40f707bb          	subw	a5,a4,a5
   229b0:	f2f42423          	sw	a5,-216(s0)
   229b4:	f2042783          	lw	a5,-224(s0)
   229b8:	0117f793          	andi	a5,a5,17
   229bc:	0007879b          	sext.w	a5,a5
   229c0:	02079663          	bnez	a5,229ec <number+0x294>
   229c4:	0180006f          	j	229dc <number+0x284>
   229c8:	f3843783          	ld	a5,-200(s0)
   229cc:	00178713          	addi	a4,a5,1
   229d0:	f2e43c23          	sd	a4,-200(s0)
   229d4:	02000713          	li	a4,32
   229d8:	00e78023          	sb	a4,0(a5)
   229dc:	f2842783          	lw	a5,-216(s0)
   229e0:	fff7871b          	addiw	a4,a5,-1
   229e4:	f2e42423          	sw	a4,-216(s0)
   229e8:	fef040e3          	bgtz	a5,229c8 <number+0x270>
   229ec:	fef44783          	lbu	a5,-17(s0)
   229f0:	0ff7f793          	andi	a5,a5,255
   229f4:	00078c63          	beqz	a5,22a0c <number+0x2b4>
   229f8:	f3843783          	ld	a5,-200(s0)
   229fc:	00178713          	addi	a4,a5,1
   22a00:	f2e43c23          	sd	a4,-200(s0)
   22a04:	fef44703          	lbu	a4,-17(s0)
   22a08:	00e78023          	sb	a4,0(a5)
   22a0c:	f2042783          	lw	a5,-224(s0)
   22a10:	0207f793          	andi	a5,a5,32
   22a14:	0007879b          	sext.w	a5,a5
   22a18:	06078463          	beqz	a5,22a80 <number+0x328>
   22a1c:	f2c42783          	lw	a5,-212(s0)
   22a20:	0007871b          	sext.w	a4,a5
   22a24:	00800793          	li	a5,8
   22a28:	00f71e63          	bne	a4,a5,22a44 <number+0x2ec>
   22a2c:	f3843783          	ld	a5,-200(s0)
   22a30:	00178713          	addi	a4,a5,1
   22a34:	f2e43c23          	sd	a4,-200(s0)
   22a38:	03000713          	li	a4,48
   22a3c:	00e78023          	sb	a4,0(a5)
   22a40:	0400006f          	j	22a80 <number+0x328>
   22a44:	f2c42783          	lw	a5,-212(s0)
   22a48:	0007871b          	sext.w	a4,a5
   22a4c:	01000793          	li	a5,16
   22a50:	02f71863          	bne	a4,a5,22a80 <number+0x328>
   22a54:	f3843783          	ld	a5,-200(s0)
   22a58:	00178713          	addi	a4,a5,1
   22a5c:	f2e43c23          	sd	a4,-200(s0)
   22a60:	03000713          	li	a4,48
   22a64:	00e78023          	sb	a4,0(a5)
   22a68:	f3843783          	ld	a5,-200(s0)
   22a6c:	00178713          	addi	a4,a5,1
   22a70:	f2e43c23          	sd	a4,-200(s0)
   22a74:	fe043703          	ld	a4,-32(s0)
   22a78:	02174703          	lbu	a4,33(a4)
   22a7c:	00e78023          	sb	a4,0(a5)
   22a80:	f2042783          	lw	a5,-224(s0)
   22a84:	0107f793          	andi	a5,a5,16
   22a88:	0007879b          	sext.w	a5,a5
   22a8c:	04079263          	bnez	a5,22ad0 <number+0x378>
   22a90:	0180006f          	j	22aa8 <number+0x350>
   22a94:	f3843783          	ld	a5,-200(s0)
   22a98:	00178713          	addi	a4,a5,1
   22a9c:	f2e43c23          	sd	a4,-200(s0)
   22aa0:	fdb44703          	lbu	a4,-37(s0)
   22aa4:	00e78023          	sb	a4,0(a5)
   22aa8:	f2842783          	lw	a5,-216(s0)
   22aac:	fff7871b          	addiw	a4,a5,-1
   22ab0:	f2e42423          	sw	a4,-216(s0)
   22ab4:	fef040e3          	bgtz	a5,22a94 <number+0x33c>
   22ab8:	0180006f          	j	22ad0 <number+0x378>
   22abc:	f3843783          	ld	a5,-200(s0)
   22ac0:	00178713          	addi	a4,a5,1
   22ac4:	f2e43c23          	sd	a4,-200(s0)
   22ac8:	03000713          	li	a4,48
   22acc:	00e78023          	sb	a4,0(a5)
   22ad0:	f2442783          	lw	a5,-220(s0)
   22ad4:	fff7871b          	addiw	a4,a5,-1
   22ad8:	f2e42223          	sw	a4,-220(s0)
   22adc:	fdc42703          	lw	a4,-36(s0)
   22ae0:	0007071b          	sext.w	a4,a4
   22ae4:	fcf74ce3          	blt	a4,a5,22abc <number+0x364>
   22ae8:	0240006f          	j	22b0c <number+0x3b4>
   22aec:	f3843783          	ld	a5,-200(s0)
   22af0:	00178713          	addi	a4,a5,1
   22af4:	f2e43c23          	sd	a4,-200(s0)
   22af8:	fdc42703          	lw	a4,-36(s0)
   22afc:	ff040693          	addi	a3,s0,-16
   22b00:	00e68733          	add	a4,a3,a4
   22b04:	f5874703          	lbu	a4,-168(a4)
   22b08:	00e78023          	sb	a4,0(a5)
   22b0c:	fdc42783          	lw	a5,-36(s0)
   22b10:	fff7871b          	addiw	a4,a5,-1
   22b14:	fce42e23          	sw	a4,-36(s0)
   22b18:	fcf04ae3          	bgtz	a5,22aec <number+0x394>
   22b1c:	0180006f          	j	22b34 <number+0x3dc>
   22b20:	f3843783          	ld	a5,-200(s0)
   22b24:	00178713          	addi	a4,a5,1
   22b28:	f2e43c23          	sd	a4,-200(s0)
   22b2c:	02000713          	li	a4,32
   22b30:	00e78023          	sb	a4,0(a5)
   22b34:	f2842783          	lw	a5,-216(s0)
   22b38:	fff7871b          	addiw	a4,a5,-1
   22b3c:	f2e42423          	sw	a4,-216(s0)
   22b40:	fef040e3          	bgtz	a5,22b20 <number+0x3c8>
   22b44:	f3843783          	ld	a5,-200(s0)
   22b48:	00078513          	mv	a0,a5
   22b4c:	0d813403          	ld	s0,216(sp)
   22b50:	0e010113          	addi	sp,sp,224
   22b54:	00008067          	ret

0000000000022b58 <myprintf>:
   22b58:	f9010113          	addi	sp,sp,-112
   22b5c:	06113423          	sd	ra,104(sp)
   22b60:	06813023          	sd	s0,96(sp)
   22b64:	07010413          	addi	s0,sp,112
   22b68:	faa43423          	sd	a0,-88(s0)
   22b6c:	00058793          	mv	a5,a1
   22b70:	f8c43c23          	sd	a2,-104(s0)
   22b74:	f8d43823          	sd	a3,-112(s0)
   22b78:	faf42223          	sw	a5,-92(s0)
   22b7c:	fa843783          	ld	a5,-88(s0)
   22b80:	fef43423          	sd	a5,-24(s0)
   22b84:	7440006f          	j	232c8 <myprintf+0x770>
   22b88:	f9843783          	ld	a5,-104(s0)
   22b8c:	0007c783          	lbu	a5,0(a5)
   22b90:	00078713          	mv	a4,a5
   22b94:	02500793          	li	a5,37
   22b98:	02f70063          	beq	a4,a5,22bb8 <myprintf+0x60>
   22b9c:	fe843783          	ld	a5,-24(s0)
   22ba0:	00178713          	addi	a4,a5,1
   22ba4:	fee43423          	sd	a4,-24(s0)
   22ba8:	f9843703          	ld	a4,-104(s0)
   22bac:	00074703          	lbu	a4,0(a4)
   22bb0:	00e78023          	sb	a4,0(a5)
   22bb4:	7080006f          	j	232bc <myprintf+0x764>
   22bb8:	fe042223          	sw	zero,-28(s0)
   22bbc:	f9843783          	ld	a5,-104(s0)
   22bc0:	00178793          	addi	a5,a5,1
   22bc4:	f8f43c23          	sd	a5,-104(s0)
   22bc8:	f9843783          	ld	a5,-104(s0)
   22bcc:	0007c783          	lbu	a5,0(a5)
   22bd0:	0007879b          	sext.w	a5,a5
   22bd4:	fe07869b          	addiw	a3,a5,-32
   22bd8:	0006871b          	sext.w	a4,a3
   22bdc:	01000793          	li	a5,16
   22be0:	08e7e263          	bltu	a5,a4,22c64 <myprintf+0x10c>
   22be4:	02069793          	slli	a5,a3,0x20
   22be8:	0207d793          	srli	a5,a5,0x20
   22bec:	00279713          	slli	a4,a5,0x2
   22bf0:	00002797          	auipc	a5,0x2
   22bf4:	10078793          	addi	a5,a5,256 # 24cf0 <_etext+0x218>
   22bf8:	00f707b3          	add	a5,a4,a5
   22bfc:	0007a783          	lw	a5,0(a5)
   22c00:	0007871b          	sext.w	a4,a5
   22c04:	00002797          	auipc	a5,0x2
   22c08:	0ec78793          	addi	a5,a5,236 # 24cf0 <_etext+0x218>
   22c0c:	00f707b3          	add	a5,a4,a5
   22c10:	00078067          	jr	a5
   22c14:	fe442783          	lw	a5,-28(s0)
   22c18:	0107e793          	ori	a5,a5,16
   22c1c:	fef42223          	sw	a5,-28(s0)
   22c20:	f9dff06f          	j	22bbc <myprintf+0x64>
   22c24:	fe442783          	lw	a5,-28(s0)
   22c28:	0047e793          	ori	a5,a5,4
   22c2c:	fef42223          	sw	a5,-28(s0)
   22c30:	f8dff06f          	j	22bbc <myprintf+0x64>
   22c34:	fe442783          	lw	a5,-28(s0)
   22c38:	0087e793          	ori	a5,a5,8
   22c3c:	fef42223          	sw	a5,-28(s0)
   22c40:	f7dff06f          	j	22bbc <myprintf+0x64>
   22c44:	fe442783          	lw	a5,-28(s0)
   22c48:	0207e793          	ori	a5,a5,32
   22c4c:	fef42223          	sw	a5,-28(s0)
   22c50:	f6dff06f          	j	22bbc <myprintf+0x64>
   22c54:	fe442783          	lw	a5,-28(s0)
   22c58:	0017e793          	ori	a5,a5,1
   22c5c:	fef42223          	sw	a5,-28(s0)
   22c60:	f5dff06f          	j	22bbc <myprintf+0x64>
   22c64:	fff00793          	li	a5,-1
   22c68:	faf42a23          	sw	a5,-76(s0)
   22c6c:	f9843783          	ld	a5,-104(s0)
   22c70:	0007c783          	lbu	a5,0(a5)
   22c74:	00078713          	mv	a4,a5
   22c78:	02f00793          	li	a5,47
   22c7c:	02e7f863          	bgeu	a5,a4,22cac <myprintf+0x154>
   22c80:	f9843783          	ld	a5,-104(s0)
   22c84:	0007c783          	lbu	a5,0(a5)
   22c88:	00078713          	mv	a4,a5
   22c8c:	03900793          	li	a5,57
   22c90:	00e7ee63          	bltu	a5,a4,22cac <myprintf+0x154>
   22c94:	fb440793          	addi	a5,s0,-76
   22c98:	00078593          	mv	a1,a5
   22c9c:	f9843503          	ld	a0,-104(s0)
   22ca0:	a15ff0ef          	jal	ra,226b4 <scan_number>
   22ca4:	f8a43c23          	sd	a0,-104(s0)
   22ca8:	0500006f          	j	22cf8 <myprintf+0x1a0>
   22cac:	f9843783          	ld	a5,-104(s0)
   22cb0:	0007c783          	lbu	a5,0(a5)
   22cb4:	00078713          	mv	a4,a5
   22cb8:	02a00793          	li	a5,42
   22cbc:	02f71e63          	bne	a4,a5,22cf8 <myprintf+0x1a0>
   22cc0:	f9043783          	ld	a5,-112(s0)
   22cc4:	00878713          	addi	a4,a5,8
   22cc8:	f8e43823          	sd	a4,-112(s0)
   22ccc:	0007a783          	lw	a5,0(a5)
   22cd0:	faf42a23          	sw	a5,-76(s0)
   22cd4:	fb442783          	lw	a5,-76(s0)
   22cd8:	0207d063          	bgez	a5,22cf8 <myprintf+0x1a0>
   22cdc:	fb442783          	lw	a5,-76(s0)
   22ce0:	40f007bb          	negw	a5,a5
   22ce4:	0007879b          	sext.w	a5,a5
   22ce8:	faf42a23          	sw	a5,-76(s0)
   22cec:	fe442783          	lw	a5,-28(s0)
   22cf0:	0107e793          	ori	a5,a5,16
   22cf4:	fef42223          	sw	a5,-28(s0)
   22cf8:	fff00793          	li	a5,-1
   22cfc:	faf42823          	sw	a5,-80(s0)
   22d00:	f9843783          	ld	a5,-104(s0)
   22d04:	0007c783          	lbu	a5,0(a5)
   22d08:	00078713          	mv	a4,a5
   22d0c:	02e00793          	li	a5,46
   22d10:	08f71263          	bne	a4,a5,22d94 <myprintf+0x23c>
   22d14:	f9843783          	ld	a5,-104(s0)
   22d18:	00178793          	addi	a5,a5,1
   22d1c:	f8f43c23          	sd	a5,-104(s0)
   22d20:	f9843783          	ld	a5,-104(s0)
   22d24:	0007c783          	lbu	a5,0(a5)
   22d28:	00078713          	mv	a4,a5
   22d2c:	02f00793          	li	a5,47
   22d30:	02e7f863          	bgeu	a5,a4,22d60 <myprintf+0x208>
   22d34:	f9843783          	ld	a5,-104(s0)
   22d38:	0007c783          	lbu	a5,0(a5)
   22d3c:	00078713          	mv	a4,a5
   22d40:	03900793          	li	a5,57
   22d44:	00e7ee63          	bltu	a5,a4,22d60 <myprintf+0x208>
   22d48:	fb040793          	addi	a5,s0,-80
   22d4c:	00078593          	mv	a1,a5
   22d50:	f9843503          	ld	a0,-104(s0)
   22d54:	961ff0ef          	jal	ra,226b4 <scan_number>
   22d58:	f8a43c23          	sd	a0,-104(s0)
   22d5c:	02c0006f          	j	22d88 <myprintf+0x230>
   22d60:	f9843783          	ld	a5,-104(s0)
   22d64:	0007c783          	lbu	a5,0(a5)
   22d68:	00078713          	mv	a4,a5
   22d6c:	02a00793          	li	a5,42
   22d70:	00f71c63          	bne	a4,a5,22d88 <myprintf+0x230>
   22d74:	f9043783          	ld	a5,-112(s0)
   22d78:	00878713          	addi	a4,a5,8
   22d7c:	f8e43823          	sd	a4,-112(s0)
   22d80:	0007a783          	lw	a5,0(a5)
   22d84:	faf42823          	sw	a5,-80(s0)
   22d88:	fb042783          	lw	a5,-80(s0)
   22d8c:	0007d463          	bgez	a5,22d94 <myprintf+0x23c>
   22d90:	fa042823          	sw	zero,-80(s0)
   22d94:	fff00793          	li	a5,-1
   22d98:	fef42023          	sw	a5,-32(s0)
   22d9c:	f9843783          	ld	a5,-104(s0)
   22da0:	0007c783          	lbu	a5,0(a5)
   22da4:	00078713          	mv	a4,a5
   22da8:	06800793          	li	a5,104
   22dac:	02f70663          	beq	a4,a5,22dd8 <myprintf+0x280>
   22db0:	f9843783          	ld	a5,-104(s0)
   22db4:	0007c783          	lbu	a5,0(a5)
   22db8:	00078713          	mv	a4,a5
   22dbc:	06c00793          	li	a5,108
   22dc0:	00f70c63          	beq	a4,a5,22dd8 <myprintf+0x280>
   22dc4:	f9843783          	ld	a5,-104(s0)
   22dc8:	0007c783          	lbu	a5,0(a5)
   22dcc:	00078713          	mv	a4,a5
   22dd0:	04c00793          	li	a5,76
   22dd4:	04f71a63          	bne	a4,a5,22e28 <myprintf+0x2d0>
   22dd8:	f9843783          	ld	a5,-104(s0)
   22ddc:	0007c783          	lbu	a5,0(a5)
   22de0:	fef42023          	sw	a5,-32(s0)
   22de4:	f9843783          	ld	a5,-104(s0)
   22de8:	00178793          	addi	a5,a5,1
   22dec:	f8f43c23          	sd	a5,-104(s0)
   22df0:	fe042783          	lw	a5,-32(s0)
   22df4:	0007871b          	sext.w	a4,a5
   22df8:	06c00793          	li	a5,108
   22dfc:	02f71663          	bne	a4,a5,22e28 <myprintf+0x2d0>
   22e00:	f9843783          	ld	a5,-104(s0)
   22e04:	0007c783          	lbu	a5,0(a5)
   22e08:	00078713          	mv	a4,a5
   22e0c:	06c00793          	li	a5,108
   22e10:	00f71c63          	bne	a4,a5,22e28 <myprintf+0x2d0>
   22e14:	04c00793          	li	a5,76
   22e18:	fef42023          	sw	a5,-32(s0)
   22e1c:	f9843783          	ld	a5,-104(s0)
   22e20:	00178793          	addi	a5,a5,1
   22e24:	f8f43c23          	sd	a5,-104(s0)
   22e28:	f9843783          	ld	a5,-104(s0)
   22e2c:	0007c783          	lbu	a5,0(a5)
   22e30:	0007879b          	sext.w	a5,a5
   22e34:	fa87869b          	addiw	a3,a5,-88
   22e38:	0006871b          	sext.w	a4,a3
   22e3c:	02000793          	li	a5,32
   22e40:	2ae7ec63          	bltu	a5,a4,230f8 <myprintf+0x5a0>
   22e44:	02069793          	slli	a5,a3,0x20
   22e48:	0207d793          	srli	a5,a5,0x20
   22e4c:	00279713          	slli	a4,a5,0x2
   22e50:	00002797          	auipc	a5,0x2
   22e54:	ee478793          	addi	a5,a5,-284 # 24d34 <_etext+0x25c>
   22e58:	00f707b3          	add	a5,a4,a5
   22e5c:	0007a783          	lw	a5,0(a5)
   22e60:	0007871b          	sext.w	a4,a5
   22e64:	00002797          	auipc	a5,0x2
   22e68:	ed078793          	addi	a5,a5,-304 # 24d34 <_etext+0x25c>
   22e6c:	00f707b3          	add	a5,a4,a5
   22e70:	00078067          	jr	a5
   22e74:	fe442783          	lw	a5,-28(s0)
   22e78:	0107f793          	andi	a5,a5,16
   22e7c:	0007879b          	sext.w	a5,a5
   22e80:	02079a63          	bnez	a5,22eb4 <myprintf+0x35c>
   22e84:	0180006f          	j	22e9c <myprintf+0x344>
   22e88:	fe843783          	ld	a5,-24(s0)
   22e8c:	00178713          	addi	a4,a5,1
   22e90:	fee43423          	sd	a4,-24(s0)
   22e94:	02000713          	li	a4,32
   22e98:	00e78023          	sb	a4,0(a5)
   22e9c:	fb442783          	lw	a5,-76(s0)
   22ea0:	fff7879b          	addiw	a5,a5,-1
   22ea4:	0007879b          	sext.w	a5,a5
   22ea8:	faf42a23          	sw	a5,-76(s0)
   22eac:	fb442783          	lw	a5,-76(s0)
   22eb0:	fcf04ce3          	bgtz	a5,22e88 <myprintf+0x330>
   22eb4:	f9043783          	ld	a5,-112(s0)
   22eb8:	00878713          	addi	a4,a5,8
   22ebc:	f8e43823          	sd	a4,-112(s0)
   22ec0:	0007a683          	lw	a3,0(a5)
   22ec4:	fe843783          	ld	a5,-24(s0)
   22ec8:	00178713          	addi	a4,a5,1
   22ecc:	fee43423          	sd	a4,-24(s0)
   22ed0:	0ff6f713          	andi	a4,a3,255
   22ed4:	00e78023          	sb	a4,0(a5)
   22ed8:	0180006f          	j	22ef0 <myprintf+0x398>
   22edc:	fe843783          	ld	a5,-24(s0)
   22ee0:	00178713          	addi	a4,a5,1
   22ee4:	fee43423          	sd	a4,-24(s0)
   22ee8:	02000713          	li	a4,32
   22eec:	00e78023          	sb	a4,0(a5)
   22ef0:	fb442783          	lw	a5,-76(s0)
   22ef4:	fff7879b          	addiw	a5,a5,-1
   22ef8:	0007879b          	sext.w	a5,a5
   22efc:	faf42a23          	sw	a5,-76(s0)
   22f00:	fb442783          	lw	a5,-76(s0)
   22f04:	fcf04ce3          	bgtz	a5,22edc <myprintf+0x384>
   22f08:	3b40006f          	j	232bc <myprintf+0x764>
   22f0c:	f9043783          	ld	a5,-112(s0)
   22f10:	00878713          	addi	a4,a5,8
   22f14:	f8e43823          	sd	a4,-112(s0)
   22f18:	0007b783          	ld	a5,0(a5)
   22f1c:	fcf43c23          	sd	a5,-40(s0)
   22f20:	fd843783          	ld	a5,-40(s0)
   22f24:	00079863          	bnez	a5,22f34 <myprintf+0x3dc>
   22f28:	00002797          	auipc	a5,0x2
   22f2c:	dc078793          	addi	a5,a5,-576 # 24ce8 <_etext+0x210>
   22f30:	fcf43c23          	sd	a5,-40(s0)
   22f34:	fd843503          	ld	a0,-40(s0)
   22f38:	5e4000ef          	jal	ra,2351c <strlen>
   22f3c:	00050793          	mv	a5,a0
   22f40:	fcf42823          	sw	a5,-48(s0)
   22f44:	fb042783          	lw	a5,-80(s0)
   22f48:	0007d863          	bgez	a5,22f58 <myprintf+0x400>
   22f4c:	fd042783          	lw	a5,-48(s0)
   22f50:	faf42823          	sw	a5,-80(s0)
   22f54:	01c0006f          	j	22f70 <myprintf+0x418>
   22f58:	fb042703          	lw	a4,-80(s0)
   22f5c:	fd042783          	lw	a5,-48(s0)
   22f60:	0007879b          	sext.w	a5,a5
   22f64:	00f75663          	bge	a4,a5,22f70 <myprintf+0x418>
   22f68:	fb042783          	lw	a5,-80(s0)
   22f6c:	fcf42823          	sw	a5,-48(s0)
   22f70:	fe442783          	lw	a5,-28(s0)
   22f74:	0107f793          	andi	a5,a5,16
   22f78:	0007879b          	sext.w	a5,a5
   22f7c:	02079c63          	bnez	a5,22fb4 <myprintf+0x45c>
   22f80:	0180006f          	j	22f98 <myprintf+0x440>
   22f84:	fe843783          	ld	a5,-24(s0)
   22f88:	00178713          	addi	a4,a5,1
   22f8c:	fee43423          	sd	a4,-24(s0)
   22f90:	02000713          	li	a4,32
   22f94:	00e78023          	sb	a4,0(a5)
   22f98:	fb442783          	lw	a5,-76(s0)
   22f9c:	fff7871b          	addiw	a4,a5,-1
   22fa0:	0007071b          	sext.w	a4,a4
   22fa4:	fae42a23          	sw	a4,-76(s0)
   22fa8:	fd042703          	lw	a4,-48(s0)
   22fac:	0007071b          	sext.w	a4,a4
   22fb0:	fcf74ae3          	blt	a4,a5,22f84 <myprintf+0x42c>
   22fb4:	fc042a23          	sw	zero,-44(s0)
   22fb8:	0300006f          	j	22fe8 <myprintf+0x490>
   22fbc:	fd843703          	ld	a4,-40(s0)
   22fc0:	00170793          	addi	a5,a4,1
   22fc4:	fcf43c23          	sd	a5,-40(s0)
   22fc8:	fe843783          	ld	a5,-24(s0)
   22fcc:	00178693          	addi	a3,a5,1
   22fd0:	fed43423          	sd	a3,-24(s0)
   22fd4:	00074703          	lbu	a4,0(a4)
   22fd8:	00e78023          	sb	a4,0(a5)
   22fdc:	fd442783          	lw	a5,-44(s0)
   22fe0:	0017879b          	addiw	a5,a5,1
   22fe4:	fcf42a23          	sw	a5,-44(s0)
   22fe8:	fd442703          	lw	a4,-44(s0)
   22fec:	fd042783          	lw	a5,-48(s0)
   22ff0:	0007071b          	sext.w	a4,a4
   22ff4:	0007879b          	sext.w	a5,a5
   22ff8:	fcf742e3          	blt	a4,a5,22fbc <myprintf+0x464>
   22ffc:	0180006f          	j	23014 <myprintf+0x4bc>
   23000:	fe843783          	ld	a5,-24(s0)
   23004:	00178713          	addi	a4,a5,1
   23008:	fee43423          	sd	a4,-24(s0)
   2300c:	02000713          	li	a4,32
   23010:	00e78023          	sb	a4,0(a5)
   23014:	fb442783          	lw	a5,-76(s0)
   23018:	fff7871b          	addiw	a4,a5,-1
   2301c:	0007071b          	sext.w	a4,a4
   23020:	fae42a23          	sw	a4,-76(s0)
   23024:	fd042703          	lw	a4,-48(s0)
   23028:	0007071b          	sext.w	a4,a4
   2302c:	fcf74ae3          	blt	a4,a5,23000 <myprintf+0x4a8>
   23030:	28c0006f          	j	232bc <myprintf+0x764>
   23034:	f9043783          	ld	a5,-112(s0)
   23038:	00878713          	addi	a4,a5,8
   2303c:	f8e43823          	sd	a4,-112(s0)
   23040:	0007b783          	ld	a5,0(a5)
   23044:	faf43c23          	sd	a5,-72(s0)
   23048:	fe843703          	ld	a4,-24(s0)
   2304c:	fa843783          	ld	a5,-88(s0)
   23050:	40f707b3          	sub	a5,a4,a5
   23054:	0ff7f713          	andi	a4,a5,255
   23058:	fb843783          	ld	a5,-72(s0)
   2305c:	00e78023          	sb	a4,0(a5)
   23060:	25c0006f          	j	232bc <myprintf+0x764>
   23064:	fb442783          	lw	a5,-76(s0)
   23068:	00078713          	mv	a4,a5
   2306c:	fff00793          	li	a5,-1
   23070:	00f71c63          	bne	a4,a5,23088 <myprintf+0x530>
   23074:	01000793          	li	a5,16
   23078:	faf42a23          	sw	a5,-76(s0)
   2307c:	fe442783          	lw	a5,-28(s0)
   23080:	0017e793          	ori	a5,a5,1
   23084:	fef42223          	sw	a5,-28(s0)
   23088:	f9043783          	ld	a5,-112(s0)
   2308c:	00878713          	addi	a4,a5,8
   23090:	f8e43823          	sd	a4,-112(s0)
   23094:	0007b783          	ld	a5,0(a5)
   23098:	00078593          	mv	a1,a5
   2309c:	fb442683          	lw	a3,-76(s0)
   230a0:	fb042703          	lw	a4,-80(s0)
   230a4:	fe442783          	lw	a5,-28(s0)
   230a8:	01000613          	li	a2,16
   230ac:	fe843503          	ld	a0,-24(s0)
   230b0:	ea8ff0ef          	jal	ra,22758 <number>
   230b4:	fea43423          	sd	a0,-24(s0)
   230b8:	2040006f          	j	232bc <myprintf+0x764>
   230bc:	00800793          	li	a5,8
   230c0:	fcf42223          	sw	a5,-60(s0)
   230c4:	0940006f          	j	23158 <myprintf+0x600>
   230c8:	fe442783          	lw	a5,-28(s0)
   230cc:	0407e793          	ori	a5,a5,64
   230d0:	fef42223          	sw	a5,-28(s0)
   230d4:	01000793          	li	a5,16
   230d8:	fcf42223          	sw	a5,-60(s0)
   230dc:	07c0006f          	j	23158 <myprintf+0x600>
   230e0:	fe442783          	lw	a5,-28(s0)
   230e4:	0027e793          	ori	a5,a5,2
   230e8:	fef42223          	sw	a5,-28(s0)
   230ec:	00a00793          	li	a5,10
   230f0:	fcf42223          	sw	a5,-60(s0)
   230f4:	0640006f          	j	23158 <myprintf+0x600>
   230f8:	f9843783          	ld	a5,-104(s0)
   230fc:	0007c783          	lbu	a5,0(a5)
   23100:	00078713          	mv	a4,a5
   23104:	02500793          	li	a5,37
   23108:	00f70c63          	beq	a4,a5,23120 <myprintf+0x5c8>
   2310c:	fe843783          	ld	a5,-24(s0)
   23110:	00178713          	addi	a4,a5,1
   23114:	fee43423          	sd	a4,-24(s0)
   23118:	02500713          	li	a4,37
   2311c:	00e78023          	sb	a4,0(a5)
   23120:	f9843783          	ld	a5,-104(s0)
   23124:	0007c783          	lbu	a5,0(a5)
   23128:	02078063          	beqz	a5,23148 <myprintf+0x5f0>
   2312c:	fe843783          	ld	a5,-24(s0)
   23130:	00178713          	addi	a4,a5,1
   23134:	fee43423          	sd	a4,-24(s0)
   23138:	f9843703          	ld	a4,-104(s0)
   2313c:	00074703          	lbu	a4,0(a4)
   23140:	00e78023          	sb	a4,0(a5)
   23144:	0100006f          	j	23154 <myprintf+0x5fc>
   23148:	f9843783          	ld	a5,-104(s0)
   2314c:	fff78793          	addi	a5,a5,-1
   23150:	f8f43c23          	sd	a5,-104(s0)
   23154:	00000013          	nop
   23158:	fe042783          	lw	a5,-32(s0)
   2315c:	0007871b          	sext.w	a4,a5
   23160:	04c00793          	li	a5,76
   23164:	04f71263          	bne	a4,a5,231a8 <myprintf+0x650>
   23168:	fe442783          	lw	a5,-28(s0)
   2316c:	0027f793          	andi	a5,a5,2
   23170:	0007879b          	sext.w	a5,a5
   23174:	00078e63          	beqz	a5,23190 <myprintf+0x638>
   23178:	f9043783          	ld	a5,-112(s0)
   2317c:	00878713          	addi	a4,a5,8
   23180:	f8e43823          	sd	a4,-112(s0)
   23184:	0007b783          	ld	a5,0(a5)
   23188:	fcf43423          	sd	a5,-56(s0)
   2318c:	1100006f          	j	2329c <myprintf+0x744>
   23190:	f9043783          	ld	a5,-112(s0)
   23194:	00878713          	addi	a4,a5,8
   23198:	f8e43823          	sd	a4,-112(s0)
   2319c:	0007b783          	ld	a5,0(a5)
   231a0:	fcf43423          	sd	a5,-56(s0)
   231a4:	0f80006f          	j	2329c <myprintf+0x744>
   231a8:	fe042783          	lw	a5,-32(s0)
   231ac:	0007871b          	sext.w	a4,a5
   231b0:	06800793          	li	a5,104
   231b4:	04f71a63          	bne	a4,a5,23208 <myprintf+0x6b0>
   231b8:	fe442783          	lw	a5,-28(s0)
   231bc:	0027f793          	andi	a5,a5,2
   231c0:	0007879b          	sext.w	a5,a5
   231c4:	02078263          	beqz	a5,231e8 <myprintf+0x690>
   231c8:	f9043783          	ld	a5,-112(s0)
   231cc:	00878713          	addi	a4,a5,8
   231d0:	f8e43823          	sd	a4,-112(s0)
   231d4:	0007a783          	lw	a5,0(a5)
   231d8:	0107979b          	slliw	a5,a5,0x10
   231dc:	4107d79b          	sraiw	a5,a5,0x10
   231e0:	fcf43423          	sd	a5,-56(s0)
   231e4:	0b80006f          	j	2329c <myprintf+0x744>
   231e8:	f9043783          	ld	a5,-112(s0)
   231ec:	00878713          	addi	a4,a5,8
   231f0:	f8e43823          	sd	a4,-112(s0)
   231f4:	0007a783          	lw	a5,0(a5)
   231f8:	03079793          	slli	a5,a5,0x30
   231fc:	0307d793          	srli	a5,a5,0x30
   23200:	fcf43423          	sd	a5,-56(s0)
   23204:	0980006f          	j	2329c <myprintf+0x744>
   23208:	fe042783          	lw	a5,-32(s0)
   2320c:	0007871b          	sext.w	a4,a5
   23210:	06c00793          	li	a5,108
   23214:	04f71263          	bne	a4,a5,23258 <myprintf+0x700>
   23218:	fe442783          	lw	a5,-28(s0)
   2321c:	0027f793          	andi	a5,a5,2
   23220:	0007879b          	sext.w	a5,a5
   23224:	00078e63          	beqz	a5,23240 <myprintf+0x6e8>
   23228:	f9043783          	ld	a5,-112(s0)
   2322c:	00878713          	addi	a4,a5,8
   23230:	f8e43823          	sd	a4,-112(s0)
   23234:	0007b783          	ld	a5,0(a5)
   23238:	fcf43423          	sd	a5,-56(s0)
   2323c:	0600006f          	j	2329c <myprintf+0x744>
   23240:	f9043783          	ld	a5,-112(s0)
   23244:	00878713          	addi	a4,a5,8
   23248:	f8e43823          	sd	a4,-112(s0)
   2324c:	0007b783          	ld	a5,0(a5)
   23250:	fcf43423          	sd	a5,-56(s0)
   23254:	0480006f          	j	2329c <myprintf+0x744>
   23258:	fe442783          	lw	a5,-28(s0)
   2325c:	0027f793          	andi	a5,a5,2
   23260:	0007879b          	sext.w	a5,a5
   23264:	00078e63          	beqz	a5,23280 <myprintf+0x728>
   23268:	f9043783          	ld	a5,-112(s0)
   2326c:	00878713          	addi	a4,a5,8
   23270:	f8e43823          	sd	a4,-112(s0)
   23274:	0007a783          	lw	a5,0(a5)
   23278:	fcf43423          	sd	a5,-56(s0)
   2327c:	0200006f          	j	2329c <myprintf+0x744>
   23280:	f9043783          	ld	a5,-112(s0)
   23284:	00878713          	addi	a4,a5,8
   23288:	f8e43823          	sd	a4,-112(s0)
   2328c:	0007a783          	lw	a5,0(a5)
   23290:	02079793          	slli	a5,a5,0x20
   23294:	0207d793          	srli	a5,a5,0x20
   23298:	fcf43423          	sd	a5,-56(s0)
   2329c:	fb442683          	lw	a3,-76(s0)
   232a0:	fb042703          	lw	a4,-80(s0)
   232a4:	fe442783          	lw	a5,-28(s0)
   232a8:	fc442603          	lw	a2,-60(s0)
   232ac:	fc843583          	ld	a1,-56(s0)
   232b0:	fe843503          	ld	a0,-24(s0)
   232b4:	ca4ff0ef          	jal	ra,22758 <number>
   232b8:	fea43423          	sd	a0,-24(s0)
   232bc:	f9843783          	ld	a5,-104(s0)
   232c0:	00178793          	addi	a5,a5,1
   232c4:	f8f43c23          	sd	a5,-104(s0)
   232c8:	f9843783          	ld	a5,-104(s0)
   232cc:	0007c783          	lbu	a5,0(a5)
   232d0:	8a079ce3          	bnez	a5,22b88 <myprintf+0x30>
   232d4:	fe843783          	ld	a5,-24(s0)
   232d8:	00078023          	sb	zero,0(a5)
   232dc:	fe843703          	ld	a4,-24(s0)
   232e0:	fa843783          	ld	a5,-88(s0)
   232e4:	40f707b3          	sub	a5,a4,a5
   232e8:	0007879b          	sext.w	a5,a5
   232ec:	00078513          	mv	a0,a5
   232f0:	06813083          	ld	ra,104(sp)
   232f4:	06013403          	ld	s0,96(sp)
   232f8:	07010113          	addi	sp,sp,112
   232fc:	00008067          	ret

0000000000023300 <init_printk_done>:
   23300:	fe010113          	addi	sp,sp,-32
   23304:	00113c23          	sd	ra,24(sp)
   23308:	00813823          	sd	s0,16(sp)
   2330c:	02010413          	addi	s0,sp,32
   23310:	00003797          	auipc	a5,0x3
   23314:	ef878793          	addi	a5,a5,-264 # 26208 <g_printk_status>
   23318:	00100713          	li	a4,1
   2331c:	00e7a023          	sw	a4,0(a5)
   23320:	fe043423          	sd	zero,-24(s0)
   23324:	0300006f          	j	23354 <init_printk_done+0x54>
   23328:	00003717          	auipc	a4,0x3
   2332c:	de070713          	addi	a4,a4,-544 # 26108 <log_buf>
   23330:	fe843783          	ld	a5,-24(s0)
   23334:	00f707b3          	add	a5,a4,a5
   23338:	0007c783          	lbu	a5,0(a5)
   2333c:	0007879b          	sext.w	a5,a5
   23340:	00078513          	mv	a0,a5
   23344:	591000ef          	jal	ra,240d4 <putchar>
   23348:	fe843783          	ld	a5,-24(s0)
   2334c:	00178793          	addi	a5,a5,1
   23350:	fef43423          	sd	a5,-24(s0)
   23354:	00003797          	auipc	a5,0x3
   23358:	ebc78793          	addi	a5,a5,-324 # 26210 <g_record_len>
   2335c:	0007b783          	ld	a5,0(a5)
   23360:	fe843703          	ld	a4,-24(s0)
   23364:	fcf762e3          	bltu	a4,a5,23328 <init_printk_done+0x28>
   23368:	00003797          	auipc	a5,0x3
   2336c:	c9878793          	addi	a5,a5,-872 # 26000 <g_record>
   23370:	00003717          	auipc	a4,0x3
   23374:	d9870713          	addi	a4,a4,-616 # 26108 <log_buf>
   23378:	00e7b023          	sd	a4,0(a5)
   2337c:	00003797          	auipc	a5,0x3
   23380:	e9478793          	addi	a5,a5,-364 # 26210 <g_record_len>
   23384:	0007b023          	sd	zero,0(a5)
   23388:	00000013          	nop
   2338c:	01813083          	ld	ra,24(sp)
   23390:	01013403          	ld	s0,16(sp)
   23394:	02010113          	addi	sp,sp,32
   23398:	00008067          	ret

000000000002339c <printk>:
   2339c:	f9010113          	addi	sp,sp,-112
   233a0:	02113423          	sd	ra,40(sp)
   233a4:	02813023          	sd	s0,32(sp)
   233a8:	03010413          	addi	s0,sp,48
   233ac:	fca43c23          	sd	a0,-40(s0)
   233b0:	00b43423          	sd	a1,8(s0)
   233b4:	00c43823          	sd	a2,16(s0)
   233b8:	00d43c23          	sd	a3,24(s0)
   233bc:	02e43023          	sd	a4,32(s0)
   233c0:	02f43423          	sd	a5,40(s0)
   233c4:	03043823          	sd	a6,48(s0)
   233c8:	03143c23          	sd	a7,56(s0)
   233cc:	04040793          	addi	a5,s0,64
   233d0:	fcf43823          	sd	a5,-48(s0)
   233d4:	fd043783          	ld	a5,-48(s0)
   233d8:	fc878793          	addi	a5,a5,-56
   233dc:	fef43023          	sd	a5,-32(s0)
   233e0:	fe043783          	ld	a5,-32(s0)
   233e4:	00078693          	mv	a3,a5
   233e8:	fd843603          	ld	a2,-40(s0)
   233ec:	10000593          	li	a1,256
   233f0:	00003517          	auipc	a0,0x3
   233f4:	c1850513          	addi	a0,a0,-1000 # 26008 <print_buf>
   233f8:	f60ff0ef          	jal	ra,22b58 <myprintf>
   233fc:	00050793          	mv	a5,a0
   23400:	fef42423          	sw	a5,-24(s0)
   23404:	00003797          	auipc	a5,0x3
   23408:	e0478793          	addi	a5,a5,-508 # 26208 <g_printk_status>
   2340c:	0007a783          	lw	a5,0(a5)
   23410:	06079663          	bnez	a5,2347c <printk+0xe0>
   23414:	00003797          	auipc	a5,0x3
   23418:	bec78793          	addi	a5,a5,-1044 # 26000 <g_record>
   2341c:	0007b783          	ld	a5,0(a5)
   23420:	fe842703          	lw	a4,-24(s0)
   23424:	00070613          	mv	a2,a4
   23428:	00003597          	auipc	a1,0x3
   2342c:	be058593          	addi	a1,a1,-1056 # 26008 <print_buf>
   23430:	00078513          	mv	a0,a5
   23434:	138000ef          	jal	ra,2356c <memcpy>
   23438:	fe842703          	lw	a4,-24(s0)
   2343c:	00003797          	auipc	a5,0x3
   23440:	ccc78793          	addi	a5,a5,-820 # 26108 <log_buf>
   23444:	00f70733          	add	a4,a4,a5
   23448:	00003797          	auipc	a5,0x3
   2344c:	bb878793          	addi	a5,a5,-1096 # 26000 <g_record>
   23450:	00e7b023          	sd	a4,0(a5)
   23454:	fe842703          	lw	a4,-24(s0)
   23458:	00003797          	auipc	a5,0x3
   2345c:	db878793          	addi	a5,a5,-584 # 26210 <g_record_len>
   23460:	0007b783          	ld	a5,0(a5)
   23464:	00f70733          	add	a4,a4,a5
   23468:	00003797          	auipc	a5,0x3
   2346c:	da878793          	addi	a5,a5,-600 # 26210 <g_record_len>
   23470:	00e7b023          	sd	a4,0(a5)
   23474:	00000793          	li	a5,0
   23478:	0900006f          	j	23508 <printk+0x16c>
   2347c:	fe042623          	sw	zero,-20(s0)
   23480:	0680006f          	j	234e8 <printk+0x14c>
   23484:	00003717          	auipc	a4,0x3
   23488:	b8470713          	addi	a4,a4,-1148 # 26008 <print_buf>
   2348c:	fec42783          	lw	a5,-20(s0)
   23490:	00f707b3          	add	a5,a4,a5
   23494:	0007c783          	lbu	a5,0(a5)
   23498:	00078713          	mv	a4,a5
   2349c:	00a00793          	li	a5,10
   234a0:	00f71663          	bne	a4,a5,234ac <printk+0x110>
   234a4:	00d00513          	li	a0,13
   234a8:	42d000ef          	jal	ra,240d4 <putchar>
   234ac:	00003717          	auipc	a4,0x3
   234b0:	b5c70713          	addi	a4,a4,-1188 # 26008 <print_buf>
   234b4:	fec42783          	lw	a5,-20(s0)
   234b8:	00f707b3          	add	a5,a4,a5
   234bc:	0007c783          	lbu	a5,0(a5)
   234c0:	0007879b          	sext.w	a5,a5
   234c4:	00078513          	mv	a0,a5
   234c8:	40d000ef          	jal	ra,240d4 <putchar>
   234cc:	fec42783          	lw	a5,-20(s0)
   234d0:	00078713          	mv	a4,a5
   234d4:	10000793          	li	a5,256
   234d8:	02e7e463          	bltu	a5,a4,23500 <printk+0x164>
   234dc:	fec42783          	lw	a5,-20(s0)
   234e0:	0017879b          	addiw	a5,a5,1
   234e4:	fef42623          	sw	a5,-20(s0)
   234e8:	fec42703          	lw	a4,-20(s0)
   234ec:	fe842783          	lw	a5,-24(s0)
   234f0:	0007071b          	sext.w	a4,a4
   234f4:	0007879b          	sext.w	a5,a5
   234f8:	f8f746e3          	blt	a4,a5,23484 <printk+0xe8>
   234fc:	0080006f          	j	23504 <printk+0x168>
   23500:	00000013          	nop
   23504:	fe842783          	lw	a5,-24(s0)
   23508:	00078513          	mv	a0,a5
   2350c:	02813083          	ld	ra,40(sp)
   23510:	02013403          	ld	s0,32(sp)
   23514:	07010113          	addi	sp,sp,112
   23518:	00008067          	ret

000000000002351c <strlen>:
   2351c:	fd010113          	addi	sp,sp,-48
   23520:	02813423          	sd	s0,40(sp)
   23524:	03010413          	addi	s0,sp,48
   23528:	fca43c23          	sd	a0,-40(s0)
   2352c:	fd843783          	ld	a5,-40(s0)
   23530:	fef43423          	sd	a5,-24(s0)
   23534:	0100006f          	j	23544 <strlen+0x28>
   23538:	fe843783          	ld	a5,-24(s0)
   2353c:	00178793          	addi	a5,a5,1
   23540:	fef43423          	sd	a5,-24(s0)
   23544:	fe843783          	ld	a5,-24(s0)
   23548:	0007c783          	lbu	a5,0(a5)
   2354c:	fe0796e3          	bnez	a5,23538 <strlen+0x1c>
   23550:	fe843703          	ld	a4,-24(s0)
   23554:	fd843783          	ld	a5,-40(s0)
   23558:	40f707b3          	sub	a5,a4,a5
   2355c:	00078513          	mv	a0,a5
   23560:	02813403          	ld	s0,40(sp)
   23564:	03010113          	addi	sp,sp,48
   23568:	00008067          	ret

000000000002356c <memcpy>:
   2356c:	fc010113          	addi	sp,sp,-64
   23570:	02813c23          	sd	s0,56(sp)
   23574:	04010413          	addi	s0,sp,64
   23578:	fca43c23          	sd	a0,-40(s0)
   2357c:	fcb43823          	sd	a1,-48(s0)
   23580:	fcc43423          	sd	a2,-56(s0)
   23584:	fd843783          	ld	a5,-40(s0)
   23588:	fef43423          	sd	a5,-24(s0)
   2358c:	fd043783          	ld	a5,-48(s0)
   23590:	fef43023          	sd	a5,-32(s0)
   23594:	0240006f          	j	235b8 <memcpy+0x4c>
   23598:	fe043703          	ld	a4,-32(s0)
   2359c:	00170793          	addi	a5,a4,1
   235a0:	fef43023          	sd	a5,-32(s0)
   235a4:	fe843783          	ld	a5,-24(s0)
   235a8:	00178693          	addi	a3,a5,1
   235ac:	fed43423          	sd	a3,-24(s0)
   235b0:	00074703          	lbu	a4,0(a4)
   235b4:	00e78023          	sb	a4,0(a5)
   235b8:	fc843783          	ld	a5,-56(s0)
   235bc:	fff78713          	addi	a4,a5,-1
   235c0:	fce43423          	sd	a4,-56(s0)
   235c4:	fc079ae3          	bnez	a5,23598 <memcpy+0x2c>
   235c8:	fd843783          	ld	a5,-40(s0)
   235cc:	00078513          	mv	a0,a5
   235d0:	03813403          	ld	s0,56(sp)
   235d4:	04010113          	addi	sp,sp,64
   235d8:	00008067          	ret

00000000000235dc <read32>:
   235dc:	fe010113          	addi	sp,sp,-32
   235e0:	00813c23          	sd	s0,24(sp)
   235e4:	02010413          	addi	s0,sp,32
   235e8:	fea43423          	sd	a0,-24(s0)
   235ec:	fe843783          	ld	a5,-24(s0)
   235f0:	0007a783          	lw	a5,0(a5)
   235f4:	0007879b          	sext.w	a5,a5
   235f8:	00078513          	mv	a0,a5
   235fc:	01813403          	ld	s0,24(sp)
   23600:	02010113          	addi	sp,sp,32
   23604:	00008067          	ret

0000000000023608 <write32>:
   23608:	fe010113          	addi	sp,sp,-32
   2360c:	00813c23          	sd	s0,24(sp)
   23610:	02010413          	addi	s0,sp,32
   23614:	fea43423          	sd	a0,-24(s0)
   23618:	00058793          	mv	a5,a1
   2361c:	fef42223          	sw	a5,-28(s0)
   23620:	fe843783          	ld	a5,-24(s0)
   23624:	fe442703          	lw	a4,-28(s0)
   23628:	00e7a023          	sw	a4,0(a5)
   2362c:	00000013          	nop
   23630:	01813403          	ld	s0,24(sp)
   23634:	02010113          	addi	sp,sp,32
   23638:	00008067          	ret

000000000002363c <sdelay>:
   2363c:	fe010113          	addi	sp,sp,-32
   23640:	00813c23          	sd	s0,24(sp)
   23644:	02010413          	addi	s0,sp,32
   23648:	fea43423          	sd	a0,-24(s0)
   2364c:	fe843783          	ld	a5,-24(s0)
   23650:	00a79793          	slli	a5,a5,0xa
   23654:	fef43423          	sd	a5,-24(s0)
   23658:	00000013          	nop
   2365c:	fe843783          	ld	a5,-24(s0)
   23660:	fff78713          	addi	a4,a5,-1
   23664:	fee43423          	sd	a4,-24(s0)
   23668:	fe079ae3          	bnez	a5,2365c <sdelay+0x20>
   2366c:	00000013          	nop
   23670:	00000013          	nop
   23674:	01813403          	ld	s0,24(sp)
   23678:	02010113          	addi	sp,sp,32
   2367c:	00008067          	ret

0000000000023680 <set_pll_cpux_axi>:
   23680:	fe010113          	addi	sp,sp,-32
   23684:	00113c23          	sd	ra,24(sp)
   23688:	00813823          	sd	s0,16(sp)
   2368c:	02010413          	addi	s0,sp,32
   23690:	30100593          	li	a1,769
   23694:	020027b7          	lui	a5,0x2002
   23698:	d0078513          	addi	a0,a5,-768 # 2001d00 <TEXT_ROM+0x1fdad00>
   2369c:	f6dff0ef          	jal	ra,23608 <write32>
   236a0:	00100513          	li	a0,1
   236a4:	f99ff0ef          	jal	ra,2363c <sdelay>
   236a8:	02001537          	lui	a0,0x2001
   236ac:	f31ff0ef          	jal	ra,235dc <read32>
   236b0:	00050793          	mv	a5,a0
   236b4:	fef42623          	sw	a5,-20(s0)
   236b8:	fec42703          	lw	a4,-20(s0)
   236bc:	f80007b7          	lui	a5,0xf8000
   236c0:	fff78793          	addi	a5,a5,-1 # fffffffff7ffffff <TEXT_ROM+0xfffffffff7fd8fff>
   236c4:	00f777b3          	and	a5,a4,a5
   236c8:	fef42623          	sw	a5,-20(s0)
   236cc:	fec42783          	lw	a5,-20(s0)
   236d0:	00078593          	mv	a1,a5
   236d4:	02001537          	lui	a0,0x2001
   236d8:	f31ff0ef          	jal	ra,23608 <write32>
   236dc:	02001537          	lui	a0,0x2001
   236e0:	efdff0ef          	jal	ra,235dc <read32>
   236e4:	00050793          	mv	a5,a0
   236e8:	fef42623          	sw	a5,-20(s0)
   236ec:	fec42703          	lw	a4,-20(s0)
   236f0:	400007b7          	lui	a5,0x40000
   236f4:	00f767b3          	or	a5,a4,a5
   236f8:	fef42623          	sw	a5,-20(s0)
   236fc:	fec42783          	lw	a5,-20(s0)
   23700:	00078593          	mv	a1,a5
   23704:	02001537          	lui	a0,0x2001
   23708:	f01ff0ef          	jal	ra,23608 <write32>
   2370c:	00500513          	li	a0,5
   23710:	f2dff0ef          	jal	ra,2363c <sdelay>
   23714:	02001537          	lui	a0,0x2001
   23718:	ec5ff0ef          	jal	ra,235dc <read32>
   2371c:	00050793          	mv	a5,a0
   23720:	fef42623          	sw	a5,-20(s0)
   23724:	fec42703          	lw	a4,-20(s0)
   23728:	fffc07b7          	lui	a5,0xfffc0
   2372c:	0fc78793          	addi	a5,a5,252 # fffffffffffc00fc <TEXT_ROM+0xfffffffffff990fc>
   23730:	00f777b3          	and	a5,a4,a5
   23734:	fef42623          	sw	a5,-20(s0)
   23738:	fec42703          	lw	a4,-20(s0)
   2373c:	000037b7          	lui	a5,0x3
   23740:	90078793          	addi	a5,a5,-1792 # 2900 <_start-0x1f700>
   23744:	00f767b3          	or	a5,a4,a5
   23748:	fef42623          	sw	a5,-20(s0)
   2374c:	fec42783          	lw	a5,-20(s0)
   23750:	00078593          	mv	a1,a5
   23754:	02001537          	lui	a0,0x2001
   23758:	eb1ff0ef          	jal	ra,23608 <write32>
   2375c:	02001537          	lui	a0,0x2001
   23760:	e7dff0ef          	jal	ra,235dc <read32>
   23764:	00050793          	mv	a5,a0
   23768:	fef42623          	sw	a5,-20(s0)
   2376c:	fec42703          	lw	a4,-20(s0)
   23770:	200007b7          	lui	a5,0x20000
   23774:	00f767b3          	or	a5,a4,a5
   23778:	fef42623          	sw	a5,-20(s0)
   2377c:	fec42783          	lw	a5,-20(s0)
   23780:	00078593          	mv	a1,a5
   23784:	02001537          	lui	a0,0x2001
   23788:	e81ff0ef          	jal	ra,23608 <write32>
   2378c:	02001537          	lui	a0,0x2001
   23790:	e4dff0ef          	jal	ra,235dc <read32>
   23794:	00050793          	mv	a5,a0
   23798:	fef42623          	sw	a5,-20(s0)
   2379c:	fec42703          	lw	a4,-20(s0)
   237a0:	800007b7          	lui	a5,0x80000
   237a4:	00f767b3          	or	a5,a4,a5
   237a8:	fef42623          	sw	a5,-20(s0)
   237ac:	fec42783          	lw	a5,-20(s0)
   237b0:	00078593          	mv	a1,a5
   237b4:	02001537          	lui	a0,0x2001
   237b8:	e51ff0ef          	jal	ra,23608 <write32>
   237bc:	00000013          	nop
   237c0:	02001537          	lui	a0,0x2001
   237c4:	e19ff0ef          	jal	ra,235dc <read32>
   237c8:	00050793          	mv	a5,a0
   237cc:	0007879b          	sext.w	a5,a5
   237d0:	00078713          	mv	a4,a5
   237d4:	100007b7          	lui	a5,0x10000
   237d8:	00f777b3          	and	a5,a4,a5
   237dc:	0007879b          	sext.w	a5,a5
   237e0:	fe0780e3          	beqz	a5,237c0 <set_pll_cpux_axi+0x140>
   237e4:	01400513          	li	a0,20
   237e8:	e55ff0ef          	jal	ra,2363c <sdelay>
   237ec:	02001537          	lui	a0,0x2001
   237f0:	dedff0ef          	jal	ra,235dc <read32>
   237f4:	00050793          	mv	a5,a0
   237f8:	fef42623          	sw	a5,-20(s0)
   237fc:	fec42703          	lw	a4,-20(s0)
   23800:	080007b7          	lui	a5,0x8000
   23804:	00f767b3          	or	a5,a4,a5
   23808:	fef42623          	sw	a5,-20(s0)
   2380c:	fec42783          	lw	a5,-20(s0)
   23810:	00078593          	mv	a1,a5
   23814:	02001537          	lui	a0,0x2001
   23818:	df1ff0ef          	jal	ra,23608 <write32>
   2381c:	02001537          	lui	a0,0x2001
   23820:	dbdff0ef          	jal	ra,235dc <read32>
   23824:	00050793          	mv	a5,a0
   23828:	fef42623          	sw	a5,-20(s0)
   2382c:	fec42703          	lw	a4,-20(s0)
   23830:	e00007b7          	lui	a5,0xe0000
   23834:	fff78793          	addi	a5,a5,-1 # ffffffffdfffffff <TEXT_ROM+0xffffffffdffd8fff>
   23838:	00f777b3          	and	a5,a4,a5
   2383c:	fef42623          	sw	a5,-20(s0)
   23840:	fec42783          	lw	a5,-20(s0)
   23844:	00078593          	mv	a1,a5
   23848:	02001537          	lui	a0,0x2001
   2384c:	dbdff0ef          	jal	ra,23608 <write32>
   23850:	00100513          	li	a0,1
   23854:	de9ff0ef          	jal	ra,2363c <sdelay>
   23858:	020027b7          	lui	a5,0x2002
   2385c:	d0078513          	addi	a0,a5,-768 # 2001d00 <TEXT_ROM+0x1fdad00>
   23860:	d7dff0ef          	jal	ra,235dc <read32>
   23864:	00050793          	mv	a5,a0
   23868:	fef42623          	sw	a5,-20(s0)
   2386c:	fec42703          	lw	a4,-20(s0)
   23870:	f90007b7          	lui	a5,0xf9000
   23874:	cf078793          	addi	a5,a5,-784 # fffffffff8fffcf0 <TEXT_ROM+0xfffffffff8fd8cf0>
   23878:	00f777b3          	and	a5,a4,a5
   2387c:	fef42623          	sw	a5,-20(s0)
   23880:	fec42703          	lw	a4,-20(s0)
   23884:	050007b7          	lui	a5,0x5000
   23888:	10078793          	addi	a5,a5,256 # 5000100 <TEXT_ROM+0x4fd9100>
   2388c:	00f767b3          	or	a5,a4,a5
   23890:	fef42623          	sw	a5,-20(s0)
   23894:	fec42783          	lw	a5,-20(s0)
   23898:	00078593          	mv	a1,a5
   2389c:	020027b7          	lui	a5,0x2002
   238a0:	d0078513          	addi	a0,a5,-768 # 2001d00 <TEXT_ROM+0x1fdad00>
   238a4:	d65ff0ef          	jal	ra,23608 <write32>
   238a8:	00100513          	li	a0,1
   238ac:	d91ff0ef          	jal	ra,2363c <sdelay>
   238b0:	00000013          	nop
   238b4:	01813083          	ld	ra,24(sp)
   238b8:	01013403          	ld	s0,16(sp)
   238bc:	02010113          	addi	sp,sp,32
   238c0:	00008067          	ret

00000000000238c4 <set_pll_periph0>:
   238c4:	fe010113          	addi	sp,sp,-32
   238c8:	00113c23          	sd	ra,24(sp)
   238cc:	00813823          	sd	s0,16(sp)
   238d0:	02010413          	addi	s0,sp,32
   238d4:	020017b7          	lui	a5,0x2001
   238d8:	02078513          	addi	a0,a5,32 # 2001020 <TEXT_ROM+0x1fda020>
   238dc:	d01ff0ef          	jal	ra,235dc <read32>
   238e0:	00050793          	mv	a5,a0
   238e4:	0007879b          	sext.w	a5,a5
   238e8:	0007879b          	sext.w	a5,a5
   238ec:	1207cc63          	bltz	a5,23a24 <set_pll_periph0+0x160>
   238f0:	020017b7          	lui	a5,0x2001
   238f4:	51078513          	addi	a0,a5,1296 # 2001510 <TEXT_ROM+0x1fda510>
   238f8:	ce5ff0ef          	jal	ra,235dc <read32>
   238fc:	00050793          	mv	a5,a0
   23900:	fef42623          	sw	a5,-20(s0)
   23904:	fec42703          	lw	a4,-20(s0)
   23908:	fd0007b7          	lui	a5,0xfd000
   2390c:	fff78793          	addi	a5,a5,-1 # fffffffffcffffff <TEXT_ROM+0xfffffffffcfd8fff>
   23910:	00f777b3          	and	a5,a4,a5
   23914:	fef42623          	sw	a5,-20(s0)
   23918:	fec46703          	lwu	a4,-20(s0)
   2391c:	020017b7          	lui	a5,0x2001
   23920:	51078593          	addi	a1,a5,1296 # 2001510 <TEXT_ROM+0x1fda510>
   23924:	00070513          	mv	a0,a4
   23928:	ce1ff0ef          	jal	ra,23608 <write32>
   2392c:	000067b7          	lui	a5,0x6
   23930:	30078593          	addi	a1,a5,768 # 6300 <_start-0x1bd00>
   23934:	020017b7          	lui	a5,0x2001
   23938:	02078513          	addi	a0,a5,32 # 2001020 <TEXT_ROM+0x1fda020>
   2393c:	ccdff0ef          	jal	ra,23608 <write32>
   23940:	020017b7          	lui	a5,0x2001
   23944:	02078513          	addi	a0,a5,32 # 2001020 <TEXT_ROM+0x1fda020>
   23948:	c95ff0ef          	jal	ra,235dc <read32>
   2394c:	00050793          	mv	a5,a0
   23950:	fef42623          	sw	a5,-20(s0)
   23954:	fec42703          	lw	a4,-20(s0)
   23958:	200007b7          	lui	a5,0x20000
   2395c:	00f767b3          	or	a5,a4,a5
   23960:	fef42623          	sw	a5,-20(s0)
   23964:	fec42783          	lw	a5,-20(s0)
   23968:	00078593          	mv	a1,a5
   2396c:	020017b7          	lui	a5,0x2001
   23970:	02078513          	addi	a0,a5,32 # 2001020 <TEXT_ROM+0x1fda020>
   23974:	c95ff0ef          	jal	ra,23608 <write32>
   23978:	020017b7          	lui	a5,0x2001
   2397c:	02078513          	addi	a0,a5,32 # 2001020 <TEXT_ROM+0x1fda020>
   23980:	c5dff0ef          	jal	ra,235dc <read32>
   23984:	00050793          	mv	a5,a0
   23988:	fef42623          	sw	a5,-20(s0)
   2398c:	fec42703          	lw	a4,-20(s0)
   23990:	800007b7          	lui	a5,0x80000
   23994:	00f767b3          	or	a5,a4,a5
   23998:	fef42623          	sw	a5,-20(s0)
   2399c:	fec42783          	lw	a5,-20(s0)
   239a0:	00078593          	mv	a1,a5
   239a4:	020017b7          	lui	a5,0x2001
   239a8:	02078513          	addi	a0,a5,32 # 2001020 <TEXT_ROM+0x1fda020>
   239ac:	c5dff0ef          	jal	ra,23608 <write32>
   239b0:	00000013          	nop
   239b4:	020017b7          	lui	a5,0x2001
   239b8:	02078513          	addi	a0,a5,32 # 2001020 <TEXT_ROM+0x1fda020>
   239bc:	c21ff0ef          	jal	ra,235dc <read32>
   239c0:	00050793          	mv	a5,a0
   239c4:	0007879b          	sext.w	a5,a5
   239c8:	00078713          	mv	a4,a5
   239cc:	100007b7          	lui	a5,0x10000
   239d0:	00f777b3          	and	a5,a4,a5
   239d4:	0007879b          	sext.w	a5,a5
   239d8:	fc078ee3          	beqz	a5,239b4 <set_pll_periph0+0xf0>
   239dc:	01400513          	li	a0,20
   239e0:	c5dff0ef          	jal	ra,2363c <sdelay>
   239e4:	020017b7          	lui	a5,0x2001
   239e8:	02078513          	addi	a0,a5,32 # 2001020 <TEXT_ROM+0x1fda020>
   239ec:	bf1ff0ef          	jal	ra,235dc <read32>
   239f0:	00050793          	mv	a5,a0
   239f4:	fef42623          	sw	a5,-20(s0)
   239f8:	fec42703          	lw	a4,-20(s0)
   239fc:	e00007b7          	lui	a5,0xe0000
   23a00:	fff78793          	addi	a5,a5,-1 # ffffffffdfffffff <TEXT_ROM+0xffffffffdffd8fff>
   23a04:	00f777b3          	and	a5,a4,a5
   23a08:	fef42623          	sw	a5,-20(s0)
   23a0c:	fec42783          	lw	a5,-20(s0)
   23a10:	00078593          	mv	a1,a5
   23a14:	020017b7          	lui	a5,0x2001
   23a18:	02078513          	addi	a0,a5,32 # 2001020 <TEXT_ROM+0x1fda020>
   23a1c:	bedff0ef          	jal	ra,23608 <write32>
   23a20:	0080006f          	j	23a28 <set_pll_periph0+0x164>
   23a24:	00000013          	nop
   23a28:	01813083          	ld	ra,24(sp)
   23a2c:	01013403          	ld	s0,16(sp)
   23a30:	02010113          	addi	sp,sp,32
   23a34:	00008067          	ret

0000000000023a38 <set_ahb>:
   23a38:	ff010113          	addi	sp,sp,-16
   23a3c:	00113423          	sd	ra,8(sp)
   23a40:	00813023          	sd	s0,0(sp)
   23a44:	01010413          	addi	s0,sp,16
   23a48:	00200593          	li	a1,2
   23a4c:	020017b7          	lui	a5,0x2001
   23a50:	51078513          	addi	a0,a5,1296 # 2001510 <TEXT_ROM+0x1fda510>
   23a54:	bb5ff0ef          	jal	ra,23608 <write32>
   23a58:	020017b7          	lui	a5,0x2001
   23a5c:	51078513          	addi	a0,a5,1296 # 2001510 <TEXT_ROM+0x1fda510>
   23a60:	b7dff0ef          	jal	ra,235dc <read32>
   23a64:	00050793          	mv	a5,a0
   23a68:	0007879b          	sext.w	a5,a5
   23a6c:	00078713          	mv	a4,a5
   23a70:	030007b7          	lui	a5,0x3000
   23a74:	00f767b3          	or	a5,a4,a5
   23a78:	0007879b          	sext.w	a5,a5
   23a7c:	00078593          	mv	a1,a5
   23a80:	020017b7          	lui	a5,0x2001
   23a84:	51078513          	addi	a0,a5,1296 # 2001510 <TEXT_ROM+0x1fda510>
   23a88:	b81ff0ef          	jal	ra,23608 <write32>
   23a8c:	00100513          	li	a0,1
   23a90:	badff0ef          	jal	ra,2363c <sdelay>
   23a94:	00000013          	nop
   23a98:	00813083          	ld	ra,8(sp)
   23a9c:	00013403          	ld	s0,0(sp)
   23aa0:	01010113          	addi	sp,sp,16
   23aa4:	00008067          	ret

0000000000023aa8 <set_apb>:
   23aa8:	ff010113          	addi	sp,sp,-16
   23aac:	00113423          	sd	ra,8(sp)
   23ab0:	00813023          	sd	s0,0(sp)
   23ab4:	01010413          	addi	s0,sp,16
   23ab8:	10200593          	li	a1,258
   23abc:	020017b7          	lui	a5,0x2001
   23ac0:	52078513          	addi	a0,a5,1312 # 2001520 <TEXT_ROM+0x1fda520>
   23ac4:	b45ff0ef          	jal	ra,23608 <write32>
   23ac8:	020017b7          	lui	a5,0x2001
   23acc:	52078513          	addi	a0,a5,1312 # 2001520 <TEXT_ROM+0x1fda520>
   23ad0:	b0dff0ef          	jal	ra,235dc <read32>
   23ad4:	00050793          	mv	a5,a0
   23ad8:	0007879b          	sext.w	a5,a5
   23adc:	00078713          	mv	a4,a5
   23ae0:	030007b7          	lui	a5,0x3000
   23ae4:	00f767b3          	or	a5,a4,a5
   23ae8:	0007879b          	sext.w	a5,a5
   23aec:	00078593          	mv	a1,a5
   23af0:	020017b7          	lui	a5,0x2001
   23af4:	52078513          	addi	a0,a5,1312 # 2001520 <TEXT_ROM+0x1fda520>
   23af8:	b11ff0ef          	jal	ra,23608 <write32>
   23afc:	00100513          	li	a0,1
   23b00:	b3dff0ef          	jal	ra,2363c <sdelay>
   23b04:	00000013          	nop
   23b08:	00813083          	ld	ra,8(sp)
   23b0c:	00013403          	ld	s0,0(sp)
   23b10:	01010113          	addi	sp,sp,16
   23b14:	00008067          	ret

0000000000023b18 <set_dma>:
   23b18:	ff010113          	addi	sp,sp,-16
   23b1c:	00113423          	sd	ra,8(sp)
   23b20:	00813023          	sd	s0,0(sp)
   23b24:	01010413          	addi	s0,sp,16
   23b28:	020017b7          	lui	a5,0x2001
   23b2c:	70c78513          	addi	a0,a5,1804 # 200170c <TEXT_ROM+0x1fda70c>
   23b30:	aadff0ef          	jal	ra,235dc <read32>
   23b34:	00050793          	mv	a5,a0
   23b38:	0007879b          	sext.w	a5,a5
   23b3c:	00078713          	mv	a4,a5
   23b40:	000107b7          	lui	a5,0x10
   23b44:	00f767b3          	or	a5,a4,a5
   23b48:	0007879b          	sext.w	a5,a5
   23b4c:	00078593          	mv	a1,a5
   23b50:	020017b7          	lui	a5,0x2001
   23b54:	70c78513          	addi	a0,a5,1804 # 200170c <TEXT_ROM+0x1fda70c>
   23b58:	ab1ff0ef          	jal	ra,23608 <write32>
   23b5c:	01400513          	li	a0,20
   23b60:	addff0ef          	jal	ra,2363c <sdelay>
   23b64:	020017b7          	lui	a5,0x2001
   23b68:	70c78513          	addi	a0,a5,1804 # 200170c <TEXT_ROM+0x1fda70c>
   23b6c:	a71ff0ef          	jal	ra,235dc <read32>
   23b70:	00050793          	mv	a5,a0
   23b74:	0007879b          	sext.w	a5,a5
   23b78:	0017e793          	ori	a5,a5,1
   23b7c:	0007879b          	sext.w	a5,a5
   23b80:	00078593          	mv	a1,a5
   23b84:	020017b7          	lui	a5,0x2001
   23b88:	70c78513          	addi	a0,a5,1804 # 200170c <TEXT_ROM+0x1fda70c>
   23b8c:	a7dff0ef          	jal	ra,23608 <write32>
   23b90:	00000013          	nop
   23b94:	00813083          	ld	ra,8(sp)
   23b98:	00013403          	ld	s0,0(sp)
   23b9c:	01010113          	addi	sp,sp,16
   23ba0:	00008067          	ret

0000000000023ba4 <set_mbus>:
   23ba4:	fe010113          	addi	sp,sp,-32
   23ba8:	00113c23          	sd	ra,24(sp)
   23bac:	00813823          	sd	s0,16(sp)
   23bb0:	02010413          	addi	s0,sp,32
   23bb4:	020017b7          	lui	a5,0x2001
   23bb8:	54078513          	addi	a0,a5,1344 # 2001540 <TEXT_ROM+0x1fda540>
   23bbc:	a21ff0ef          	jal	ra,235dc <read32>
   23bc0:	00050793          	mv	a5,a0
   23bc4:	fef42623          	sw	a5,-20(s0)
   23bc8:	fec42703          	lw	a4,-20(s0)
   23bcc:	400007b7          	lui	a5,0x40000
   23bd0:	00f767b3          	or	a5,a4,a5
   23bd4:	fef42623          	sw	a5,-20(s0)
   23bd8:	fec42783          	lw	a5,-20(s0)
   23bdc:	00078593          	mv	a1,a5
   23be0:	020017b7          	lui	a5,0x2001
   23be4:	54078513          	addi	a0,a5,1344 # 2001540 <TEXT_ROM+0x1fda540>
   23be8:	a21ff0ef          	jal	ra,23608 <write32>
   23bec:	00100513          	li	a0,1
   23bf0:	a4dff0ef          	jal	ra,2363c <sdelay>
   23bf4:	00000013          	nop
   23bf8:	01813083          	ld	ra,24(sp)
   23bfc:	01013403          	ld	s0,16(sp)
   23c00:	02010113          	addi	sp,sp,32
   23c04:	00008067          	ret

0000000000023c08 <set_module>:
   23c08:	fd010113          	addi	sp,sp,-48
   23c0c:	02113423          	sd	ra,40(sp)
   23c10:	02813023          	sd	s0,32(sp)
   23c14:	03010413          	addi	s0,sp,48
   23c18:	fca43c23          	sd	a0,-40(s0)
   23c1c:	fd843503          	ld	a0,-40(s0)
   23c20:	9bdff0ef          	jal	ra,235dc <read32>
   23c24:	00050793          	mv	a5,a0
   23c28:	0007879b          	sext.w	a5,a5
   23c2c:	0007879b          	sext.w	a5,a5
   23c30:	0c07c263          	bltz	a5,23cf4 <set_module+0xec>
   23c34:	fd843503          	ld	a0,-40(s0)
   23c38:	9a5ff0ef          	jal	ra,235dc <read32>
   23c3c:	00050793          	mv	a5,a0
   23c40:	fef42623          	sw	a5,-20(s0)
   23c44:	fec42703          	lw	a4,-20(s0)
   23c48:	c00007b7          	lui	a5,0xc0000
   23c4c:	00f767b3          	or	a5,a4,a5
   23c50:	0007879b          	sext.w	a5,a5
   23c54:	00078593          	mv	a1,a5
   23c58:	fd843503          	ld	a0,-40(s0)
   23c5c:	9adff0ef          	jal	ra,23608 <write32>
   23c60:	fd843503          	ld	a0,-40(s0)
   23c64:	979ff0ef          	jal	ra,235dc <read32>
   23c68:	00050793          	mv	a5,a0
   23c6c:	fef42623          	sw	a5,-20(s0)
   23c70:	fec42703          	lw	a4,-20(s0)
   23c74:	200007b7          	lui	a5,0x20000
   23c78:	00f767b3          	or	a5,a4,a5
   23c7c:	fef42623          	sw	a5,-20(s0)
   23c80:	fec42783          	lw	a5,-20(s0)
   23c84:	00078593          	mv	a1,a5
   23c88:	fd843503          	ld	a0,-40(s0)
   23c8c:	97dff0ef          	jal	ra,23608 <write32>
   23c90:	00000013          	nop
   23c94:	fd843503          	ld	a0,-40(s0)
   23c98:	945ff0ef          	jal	ra,235dc <read32>
   23c9c:	00050793          	mv	a5,a0
   23ca0:	0007879b          	sext.w	a5,a5
   23ca4:	00078713          	mv	a4,a5
   23ca8:	100007b7          	lui	a5,0x10000
   23cac:	00f777b3          	and	a5,a4,a5
   23cb0:	0007879b          	sext.w	a5,a5
   23cb4:	fe0780e3          	beqz	a5,23c94 <set_module+0x8c>
   23cb8:	01400513          	li	a0,20
   23cbc:	981ff0ef          	jal	ra,2363c <sdelay>
   23cc0:	fd843503          	ld	a0,-40(s0)
   23cc4:	919ff0ef          	jal	ra,235dc <read32>
   23cc8:	00050793          	mv	a5,a0
   23ccc:	fef42623          	sw	a5,-20(s0)
   23cd0:	fec42703          	lw	a4,-20(s0)
   23cd4:	e00007b7          	lui	a5,0xe0000
   23cd8:	fff78793          	addi	a5,a5,-1 # ffffffffdfffffff <TEXT_ROM+0xffffffffdffd8fff>
   23cdc:	00f777b3          	and	a5,a4,a5
   23ce0:	fef42623          	sw	a5,-20(s0)
   23ce4:	fec42783          	lw	a5,-20(s0)
   23ce8:	00078593          	mv	a1,a5
   23cec:	fd843503          	ld	a0,-40(s0)
   23cf0:	919ff0ef          	jal	ra,23608 <write32>
   23cf4:	00000013          	nop
   23cf8:	02813083          	ld	ra,40(sp)
   23cfc:	02013403          	ld	s0,32(sp)
   23d00:	03010113          	addi	sp,sp,48
   23d04:	00008067          	ret

0000000000023d08 <sys_clock_init>:
   23d08:	ff010113          	addi	sp,sp,-16
   23d0c:	00113423          	sd	ra,8(sp)
   23d10:	00813023          	sd	s0,0(sp)
   23d14:	01010413          	addi	s0,sp,16
   23d18:	969ff0ef          	jal	ra,23680 <set_pll_cpux_axi>
   23d1c:	ba9ff0ef          	jal	ra,238c4 <set_pll_periph0>
   23d20:	d19ff0ef          	jal	ra,23a38 <set_ahb>
   23d24:	d85ff0ef          	jal	ra,23aa8 <set_apb>
   23d28:	df1ff0ef          	jal	ra,23b18 <set_dma>
   23d2c:	e79ff0ef          	jal	ra,23ba4 <set_mbus>
   23d30:	020017b7          	lui	a5,0x2001
   23d34:	02078513          	addi	a0,a5,32 # 2001020 <TEXT_ROM+0x1fda020>
   23d38:	ed1ff0ef          	jal	ra,23c08 <set_module>
   23d3c:	020017b7          	lui	a5,0x2001
   23d40:	04078513          	addi	a0,a5,64 # 2001040 <TEXT_ROM+0x1fda040>
   23d44:	ec5ff0ef          	jal	ra,23c08 <set_module>
   23d48:	020017b7          	lui	a5,0x2001
   23d4c:	04878513          	addi	a0,a5,72 # 2001048 <TEXT_ROM+0x1fda048>
   23d50:	eb9ff0ef          	jal	ra,23c08 <set_module>
   23d54:	020017b7          	lui	a5,0x2001
   23d58:	05878513          	addi	a0,a5,88 # 2001058 <TEXT_ROM+0x1fda058>
   23d5c:	eadff0ef          	jal	ra,23c08 <set_module>
   23d60:	020017b7          	lui	a5,0x2001
   23d64:	07878513          	addi	a0,a5,120 # 2001078 <TEXT_ROM+0x1fda078>
   23d68:	ea1ff0ef          	jal	ra,23c08 <set_module>
   23d6c:	020017b7          	lui	a5,0x2001
   23d70:	08078513          	addi	a0,a5,128 # 2001080 <TEXT_ROM+0x1fda080>
   23d74:	e95ff0ef          	jal	ra,23c08 <set_module>
   23d78:	00000013          	nop
   23d7c:	00813083          	ld	ra,8(sp)
   23d80:	00013403          	ld	s0,0(sp)
   23d84:	01010113          	addi	sp,sp,16
   23d88:	00008067          	ret

0000000000023d8c <read8>:
   23d8c:	fe010113          	addi	sp,sp,-32
   23d90:	00813c23          	sd	s0,24(sp)
   23d94:	02010413          	addi	s0,sp,32
   23d98:	fea43423          	sd	a0,-24(s0)
   23d9c:	fe843783          	ld	a5,-24(s0)
   23da0:	0007c783          	lbu	a5,0(a5)
   23da4:	0ff7f793          	andi	a5,a5,255
   23da8:	00078513          	mv	a0,a5
   23dac:	01813403          	ld	s0,24(sp)
   23db0:	02010113          	addi	sp,sp,32
   23db4:	00008067          	ret

0000000000023db8 <read32>:
   23db8:	fe010113          	addi	sp,sp,-32
   23dbc:	00813c23          	sd	s0,24(sp)
   23dc0:	02010413          	addi	s0,sp,32
   23dc4:	fea43423          	sd	a0,-24(s0)
   23dc8:	fe843783          	ld	a5,-24(s0)
   23dcc:	0007a783          	lw	a5,0(a5)
   23dd0:	0007879b          	sext.w	a5,a5
   23dd4:	00078513          	mv	a0,a5
   23dd8:	01813403          	ld	s0,24(sp)
   23ddc:	02010113          	addi	sp,sp,32
   23de0:	00008067          	ret

0000000000023de4 <write32>:
   23de4:	fe010113          	addi	sp,sp,-32
   23de8:	00813c23          	sd	s0,24(sp)
   23dec:	02010413          	addi	s0,sp,32
   23df0:	fea43423          	sd	a0,-24(s0)
   23df4:	00058793          	mv	a5,a1
   23df8:	fef42223          	sw	a5,-28(s0)
   23dfc:	fe843783          	ld	a5,-24(s0)
   23e00:	fe442703          	lw	a4,-28(s0)
   23e04:	00e7a023          	sw	a4,0(a5)
   23e08:	00000013          	nop
   23e0c:	01813403          	ld	s0,24(sp)
   23e10:	02010113          	addi	sp,sp,32
   23e14:	00008067          	ret

0000000000023e18 <uart_init>:
   23e18:	fe010113          	addi	sp,sp,-32
   23e1c:	00113c23          	sd	ra,24(sp)
   23e20:	00813823          	sd	s0,16(sp)
   23e24:	02010413          	addi	s0,sp,32
   23e28:	020007b7          	lui	a5,0x2000
   23e2c:	0f078793          	addi	a5,a5,240 # 20000f0 <TEXT_ROM+0x1fd90f0>
   23e30:	fef43423          	sd	a5,-24(s0)
   23e34:	fe843503          	ld	a0,-24(s0)
   23e38:	f81ff0ef          	jal	ra,23db8 <read32>
   23e3c:	00050793          	mv	a5,a0
   23e40:	fef42223          	sw	a5,-28(s0)
   23e44:	fe442703          	lw	a4,-28(s0)
   23e48:	fffff7b7          	lui	a5,0xfffff
   23e4c:	0ff78793          	addi	a5,a5,255 # fffffffffffff0ff <TEXT_ROM+0xfffffffffffd80ff>
   23e50:	00f777b3          	and	a5,a4,a5
   23e54:	fef42223          	sw	a5,-28(s0)
   23e58:	fe442783          	lw	a5,-28(s0)
   23e5c:	3007e793          	ori	a5,a5,768
   23e60:	fef42223          	sw	a5,-28(s0)
   23e64:	fe442783          	lw	a5,-28(s0)
   23e68:	00078593          	mv	a1,a5
   23e6c:	fe843503          	ld	a0,-24(s0)
   23e70:	f75ff0ef          	jal	ra,23de4 <write32>
   23e74:	fe843503          	ld	a0,-24(s0)
   23e78:	f41ff0ef          	jal	ra,23db8 <read32>
   23e7c:	00050793          	mv	a5,a0
   23e80:	fef42223          	sw	a5,-28(s0)
   23e84:	fe442703          	lw	a4,-28(s0)
   23e88:	fff107b7          	lui	a5,0xfff10
   23e8c:	fff78793          	addi	a5,a5,-1 # fffffffffff0ffff <TEXT_ROM+0xffffffffffee8fff>
   23e90:	00f777b3          	and	a5,a4,a5
   23e94:	fef42223          	sw	a5,-28(s0)
   23e98:	fe442703          	lw	a4,-28(s0)
   23e9c:	000307b7          	lui	a5,0x30
   23ea0:	00f767b3          	or	a5,a4,a5
   23ea4:	fef42223          	sw	a5,-28(s0)
   23ea8:	fe442783          	lw	a5,-28(s0)
   23eac:	00078593          	mv	a1,a5
   23eb0:	fe843503          	ld	a0,-24(s0)
   23eb4:	f31ff0ef          	jal	ra,23de4 <write32>
   23eb8:	020027b7          	lui	a5,0x2002
   23ebc:	90c78793          	addi	a5,a5,-1780 # 200190c <TEXT_ROM+0x1fda90c>
   23ec0:	fef43423          	sd	a5,-24(s0)
   23ec4:	fe843503          	ld	a0,-24(s0)
   23ec8:	ef1ff0ef          	jal	ra,23db8 <read32>
   23ecc:	00050793          	mv	a5,a0
   23ed0:	fef42223          	sw	a5,-28(s0)
   23ed4:	fe442783          	lw	a5,-28(s0)
   23ed8:	0017e793          	ori	a5,a5,1
   23edc:	fef42223          	sw	a5,-28(s0)
   23ee0:	fe442783          	lw	a5,-28(s0)
   23ee4:	00078593          	mv	a1,a5
   23ee8:	fe843503          	ld	a0,-24(s0)
   23eec:	ef9ff0ef          	jal	ra,23de4 <write32>
   23ef0:	020027b7          	lui	a5,0x2002
   23ef4:	90c78793          	addi	a5,a5,-1780 # 200190c <TEXT_ROM+0x1fda90c>
   23ef8:	fef43423          	sd	a5,-24(s0)
   23efc:	fe843503          	ld	a0,-24(s0)
   23f00:	eb9ff0ef          	jal	ra,23db8 <read32>
   23f04:	00050793          	mv	a5,a0
   23f08:	fef42223          	sw	a5,-28(s0)
   23f0c:	fe442703          	lw	a4,-28(s0)
   23f10:	000107b7          	lui	a5,0x10
   23f14:	00f767b3          	or	a5,a4,a5
   23f18:	fef42223          	sw	a5,-28(s0)
   23f1c:	fe442783          	lw	a5,-28(s0)
   23f20:	00078593          	mv	a1,a5
   23f24:	fe843503          	ld	a0,-24(s0)
   23f28:	ebdff0ef          	jal	ra,23de4 <write32>
   23f2c:	025007b7          	lui	a5,0x2500
   23f30:	fef43423          	sd	a5,-24(s0)
   23f34:	fe843783          	ld	a5,-24(s0)
   23f38:	00478793          	addi	a5,a5,4 # 2500004 <TEXT_ROM+0x24d9004>
   23f3c:	00000593          	li	a1,0
   23f40:	00078513          	mv	a0,a5
   23f44:	ea1ff0ef          	jal	ra,23de4 <write32>
   23f48:	fe843783          	ld	a5,-24(s0)
   23f4c:	00878793          	addi	a5,a5,8
   23f50:	0f700593          	li	a1,247
   23f54:	00078513          	mv	a0,a5
   23f58:	e8dff0ef          	jal	ra,23de4 <write32>
   23f5c:	fe843783          	ld	a5,-24(s0)
   23f60:	01078793          	addi	a5,a5,16
   23f64:	00000593          	li	a1,0
   23f68:	00078513          	mv	a0,a5
   23f6c:	e79ff0ef          	jal	ra,23de4 <write32>
   23f70:	fe843783          	ld	a5,-24(s0)
   23f74:	00c78793          	addi	a5,a5,12
   23f78:	00078513          	mv	a0,a5
   23f7c:	e3dff0ef          	jal	ra,23db8 <read32>
   23f80:	00050793          	mv	a5,a0
   23f84:	fef42223          	sw	a5,-28(s0)
   23f88:	fe442783          	lw	a5,-28(s0)
   23f8c:	0807e793          	ori	a5,a5,128
   23f90:	fef42223          	sw	a5,-28(s0)
   23f94:	fe843783          	ld	a5,-24(s0)
   23f98:	00c78793          	addi	a5,a5,12
   23f9c:	fe442703          	lw	a4,-28(s0)
   23fa0:	00070593          	mv	a1,a4
   23fa4:	00078513          	mv	a0,a5
   23fa8:	e3dff0ef          	jal	ra,23de4 <write32>
   23fac:	00d00593          	li	a1,13
   23fb0:	fe843503          	ld	a0,-24(s0)
   23fb4:	e31ff0ef          	jal	ra,23de4 <write32>
   23fb8:	fe843783          	ld	a5,-24(s0)
   23fbc:	00478793          	addi	a5,a5,4
   23fc0:	00000593          	li	a1,0
   23fc4:	00078513          	mv	a0,a5
   23fc8:	e1dff0ef          	jal	ra,23de4 <write32>
   23fcc:	fe843783          	ld	a5,-24(s0)
   23fd0:	00c78793          	addi	a5,a5,12
   23fd4:	00078513          	mv	a0,a5
   23fd8:	de1ff0ef          	jal	ra,23db8 <read32>
   23fdc:	00050793          	mv	a5,a0
   23fe0:	fef42223          	sw	a5,-28(s0)
   23fe4:	fe442783          	lw	a5,-28(s0)
   23fe8:	f7f7f793          	andi	a5,a5,-129
   23fec:	fef42223          	sw	a5,-28(s0)
   23ff0:	fe843783          	ld	a5,-24(s0)
   23ff4:	00c78793          	addi	a5,a5,12
   23ff8:	fe442703          	lw	a4,-28(s0)
   23ffc:	00070593          	mv	a1,a4
   24000:	00078513          	mv	a0,a5
   24004:	de1ff0ef          	jal	ra,23de4 <write32>
   24008:	fe843783          	ld	a5,-24(s0)
   2400c:	00c78793          	addi	a5,a5,12
   24010:	00078513          	mv	a0,a5
   24014:	da5ff0ef          	jal	ra,23db8 <read32>
   24018:	00050793          	mv	a5,a0
   2401c:	fef42223          	sw	a5,-28(s0)
   24020:	fe442783          	lw	a5,-28(s0)
   24024:	fe07f793          	andi	a5,a5,-32
   24028:	fef42223          	sw	a5,-28(s0)
   2402c:	fe442783          	lw	a5,-28(s0)
   24030:	0037e793          	ori	a5,a5,3
   24034:	fef42223          	sw	a5,-28(s0)
   24038:	fe843783          	ld	a5,-24(s0)
   2403c:	00c78793          	addi	a5,a5,12
   24040:	fe442703          	lw	a4,-28(s0)
   24044:	00070593          	mv	a1,a4
   24048:	00078513          	mv	a0,a5
   2404c:	d99ff0ef          	jal	ra,23de4 <write32>
   24050:	00000013          	nop
   24054:	01813083          	ld	ra,24(sp)
   24058:	01013403          	ld	s0,16(sp)
   2405c:	02010113          	addi	sp,sp,32
   24060:	00008067          	ret

0000000000024064 <uart_send>:
   24064:	fd010113          	addi	sp,sp,-48
   24068:	02113423          	sd	ra,40(sp)
   2406c:	02813023          	sd	s0,32(sp)
   24070:	03010413          	addi	s0,sp,48
   24074:	00050793          	mv	a5,a0
   24078:	fcf40fa3          	sb	a5,-33(s0)
   2407c:	025007b7          	lui	a5,0x2500
   24080:	fef43423          	sd	a5,-24(s0)
   24084:	00000013          	nop
   24088:	fe843783          	ld	a5,-24(s0)
   2408c:	07c78793          	addi	a5,a5,124 # 250007c <TEXT_ROM+0x24d907c>
   24090:	00078513          	mv	a0,a5
   24094:	d25ff0ef          	jal	ra,23db8 <read32>
   24098:	00050793          	mv	a5,a0
   2409c:	0007879b          	sext.w	a5,a5
   240a0:	0027f793          	andi	a5,a5,2
   240a4:	0007879b          	sext.w	a5,a5
   240a8:	fe0780e3          	beqz	a5,24088 <uart_send+0x24>
   240ac:	fdf44783          	lbu	a5,-33(s0)
   240b0:	0007879b          	sext.w	a5,a5
   240b4:	00078593          	mv	a1,a5
   240b8:	fe843503          	ld	a0,-24(s0)
   240bc:	d29ff0ef          	jal	ra,23de4 <write32>
   240c0:	00000013          	nop
   240c4:	02813083          	ld	ra,40(sp)
   240c8:	02013403          	ld	s0,32(sp)
   240cc:	03010113          	addi	sp,sp,48
   240d0:	00008067          	ret

00000000000240d4 <putchar>:
   240d4:	fe010113          	addi	sp,sp,-32
   240d8:	00113c23          	sd	ra,24(sp)
   240dc:	00813823          	sd	s0,16(sp)
   240e0:	02010413          	addi	s0,sp,32
   240e4:	00050793          	mv	a5,a0
   240e8:	fef42623          	sw	a5,-20(s0)
   240ec:	fec42783          	lw	a5,-20(s0)
   240f0:	0ff7f793          	andi	a5,a5,255
   240f4:	00078513          	mv	a0,a5
   240f8:	f6dff0ef          	jal	ra,24064 <uart_send>
   240fc:	fec42783          	lw	a5,-20(s0)
   24100:	00078513          	mv	a0,a5
   24104:	01813083          	ld	ra,24(sp)
   24108:	01013403          	ld	s0,16(sp)
   2410c:	02010113          	addi	sp,sp,32
   24110:	00008067          	ret

0000000000024114 <uart_recv>:
   24114:	fe010113          	addi	sp,sp,-32
   24118:	00113c23          	sd	ra,24(sp)
   2411c:	00813823          	sd	s0,16(sp)
   24120:	02010413          	addi	s0,sp,32
   24124:	025007b7          	lui	a5,0x2500
   24128:	fef43423          	sd	a5,-24(s0)
   2412c:	00000013          	nop
   24130:	fe843783          	ld	a5,-24(s0)
   24134:	07c78793          	addi	a5,a5,124 # 250007c <TEXT_ROM+0x24d907c>
   24138:	00078513          	mv	a0,a5
   2413c:	c7dff0ef          	jal	ra,23db8 <read32>
   24140:	00050793          	mv	a5,a0
   24144:	0007879b          	sext.w	a5,a5
   24148:	0087f793          	andi	a5,a5,8
   2414c:	0007879b          	sext.w	a5,a5
   24150:	fe0780e3          	beqz	a5,24130 <uart_recv+0x1c>
   24154:	fe843503          	ld	a0,-24(s0)
   24158:	c35ff0ef          	jal	ra,23d8c <read8>
   2415c:	00050793          	mv	a5,a0
   24160:	00078513          	mv	a0,a5
   24164:	01813083          	ld	ra,24(sp)
   24168:	01013403          	ld	s0,16(sp)
   2416c:	02010113          	addi	sp,sp,32
   24170:	00008067          	ret

0000000000024174 <uart_send_string>:
   24174:	fd010113          	addi	sp,sp,-48
   24178:	02113423          	sd	ra,40(sp)
   2417c:	02813023          	sd	s0,32(sp)
   24180:	03010413          	addi	s0,sp,48
   24184:	fca43c23          	sd	a0,-40(s0)
   24188:	fe042623          	sw	zero,-20(s0)
   2418c:	04c0006f          	j	241d8 <uart_send_string+0x64>
   24190:	fec42783          	lw	a5,-20(s0)
   24194:	fd843703          	ld	a4,-40(s0)
   24198:	00f707b3          	add	a5,a4,a5
   2419c:	0007c783          	lbu	a5,0(a5)
   241a0:	00078713          	mv	a4,a5
   241a4:	00a00793          	li	a5,10
   241a8:	00f71663          	bne	a4,a5,241b4 <uart_send_string+0x40>
   241ac:	00d00513          	li	a0,13
   241b0:	eb5ff0ef          	jal	ra,24064 <uart_send>
   241b4:	fec42783          	lw	a5,-20(s0)
   241b8:	fd843703          	ld	a4,-40(s0)
   241bc:	00f707b3          	add	a5,a4,a5
   241c0:	0007c783          	lbu	a5,0(a5)
   241c4:	00078513          	mv	a0,a5
   241c8:	e9dff0ef          	jal	ra,24064 <uart_send>
   241cc:	fec42783          	lw	a5,-20(s0)
   241d0:	0017879b          	addiw	a5,a5,1
   241d4:	fef42623          	sw	a5,-20(s0)
   241d8:	fec42783          	lw	a5,-20(s0)
   241dc:	fd843703          	ld	a4,-40(s0)
   241e0:	00f707b3          	add	a5,a4,a5
   241e4:	0007c783          	lbu	a5,0(a5)
   241e8:	fa0794e3          	bnez	a5,24190 <uart_send_string+0x1c>
   241ec:	00000013          	nop
   241f0:	00000013          	nop
   241f4:	02813083          	ld	ra,40(sp)
   241f8:	02013403          	ld	s0,32(sp)
   241fc:	03010113          	addi	sp,sp,48
   24200:	00008067          	ret

0000000000024204 <vpf_str_to_num>:
   24204:	fc010113          	addi	sp,sp,-64
   24208:	02813c23          	sd	s0,56(sp)
   2420c:	04010413          	addi	s0,sp,64
   24210:	fca43423          	sd	a0,-56(s0)
   24214:	fcb43023          	sd	a1,-64(s0)
   24218:	fe042223          	sw	zero,-28(s0)
   2421c:	fc843783          	ld	a5,-56(s0)
   24220:	fef43423          	sd	a5,-24(s0)
   24224:	0900006f          	j	242b4 <vpf_str_to_num+0xb0>
   24228:	fe843783          	ld	a5,-24(s0)
   2422c:	0007c783          	lbu	a5,0(a5)
   24230:	00078713          	mv	a4,a5
   24234:	02f00793          	li	a5,47
   24238:	02e7f063          	bgeu	a5,a4,24258 <vpf_str_to_num+0x54>
   2423c:	fe843783          	ld	a5,-24(s0)
   24240:	0007c783          	lbu	a5,0(a5)
   24244:	00078713          	mv	a4,a5
   24248:	03900793          	li	a5,57
   2424c:	00e7e663          	bltu	a5,a4,24258 <vpf_str_to_num+0x54>
   24250:	00100793          	li	a5,1
   24254:	0080006f          	j	2425c <vpf_str_to_num+0x58>
   24258:	00000793          	li	a5,0
   2425c:	fef42023          	sw	a5,-32(s0)
   24260:	fe042783          	lw	a5,-32(s0)
   24264:	0007879b          	sext.w	a5,a5
   24268:	04078e63          	beqz	a5,242c4 <vpf_str_to_num+0xc0>
   2426c:	fe843783          	ld	a5,-24(s0)
   24270:	0007c783          	lbu	a5,0(a5)
   24274:	0007879b          	sext.w	a5,a5
   24278:	fd07879b          	addiw	a5,a5,-48
   2427c:	fcf42e23          	sw	a5,-36(s0)
   24280:	fe442703          	lw	a4,-28(s0)
   24284:	00070793          	mv	a5,a4
   24288:	0027979b          	slliw	a5,a5,0x2
   2428c:	00e787bb          	addw	a5,a5,a4
   24290:	0017979b          	slliw	a5,a5,0x1
   24294:	fef42223          	sw	a5,-28(s0)
   24298:	fe442703          	lw	a4,-28(s0)
   2429c:	fdc42783          	lw	a5,-36(s0)
   242a0:	00f707bb          	addw	a5,a4,a5
   242a4:	fef42223          	sw	a5,-28(s0)
   242a8:	fe843783          	ld	a5,-24(s0)
   242ac:	00178793          	addi	a5,a5,1
   242b0:	fef43423          	sd	a5,-24(s0)
   242b4:	fc843783          	ld	a5,-56(s0)
   242b8:	0007c783          	lbu	a5,0(a5)
   242bc:	f60796e3          	bnez	a5,24228 <vpf_str_to_num+0x24>
   242c0:	0080006f          	j	242c8 <vpf_str_to_num+0xc4>
   242c4:	00000013          	nop
   242c8:	fc043783          	ld	a5,-64(s0)
   242cc:	fe442703          	lw	a4,-28(s0)
   242d0:	00e7a023          	sw	a4,0(a5)
   242d4:	fe843703          	ld	a4,-24(s0)
   242d8:	fc843783          	ld	a5,-56(s0)
   242dc:	40f707b3          	sub	a5,a4,a5
   242e0:	0007879b          	sext.w	a5,a5
   242e4:	00078513          	mv	a0,a5
   242e8:	03813403          	ld	s0,56(sp)
   242ec:	04010113          	addi	sp,sp,64
   242f0:	00008067          	ret

00000000000242f4 <vpf_num_to_str>:
   242f4:	fb010113          	addi	sp,sp,-80
   242f8:	04113423          	sd	ra,72(sp)
   242fc:	04813023          	sd	s0,64(sp)
   24300:	05010413          	addi	s0,sp,80
   24304:	00050793          	mv	a5,a0
   24308:	00068713          	mv	a4,a3
   2430c:	faf42e23          	sw	a5,-68(s0)
   24310:	00058793          	mv	a5,a1
   24314:	faf42c23          	sw	a5,-72(s0)
   24318:	00060793          	mv	a5,a2
   2431c:	faf42a23          	sw	a5,-76(s0)
   24320:	00070793          	mv	a5,a4
   24324:	faf42823          	sw	a5,-80(s0)
   24328:	fe042223          	sw	zero,-28(s0)
   2432c:	0280006f          	j	24354 <vpf_num_to_str+0x60>
   24330:	fb042783          	lw	a5,-80(s0)
   24334:	0ff7f713          	andi	a4,a5,255
   24338:	fe442783          	lw	a5,-28(s0)
   2433c:	ff040693          	addi	a3,s0,-16
   24340:	00f687b3          	add	a5,a3,a5
   24344:	fce78823          	sb	a4,-48(a5)
   24348:	fe442783          	lw	a5,-28(s0)
   2434c:	0017879b          	addiw	a5,a5,1
   24350:	fef42223          	sw	a5,-28(s0)
   24354:	fe442783          	lw	a5,-28(s0)
   24358:	00078713          	mv	a4,a5
   2435c:	01f00793          	li	a5,31
   24360:	fce7f8e3          	bgeu	a5,a4,24330 <vpf_num_to_str+0x3c>
   24364:	00a00793          	li	a5,10
   24368:	fef42623          	sw	a5,-20(s0)
   2436c:	fb842783          	lw	a5,-72(s0)
   24370:	0007879b          	sext.w	a5,a5
   24374:	00078663          	beqz	a5,24380 <vpf_num_to_str+0x8c>
   24378:	01000793          	li	a5,16
   2437c:	fef42623          	sw	a5,-20(s0)
   24380:	fe042423          	sw	zero,-24(s0)
   24384:	fbc42703          	lw	a4,-68(s0)
   24388:	fec42783          	lw	a5,-20(s0)
   2438c:	02f777bb          	remuw	a5,a4,a5
   24390:	0007879b          	sext.w	a5,a5
   24394:	fef42023          	sw	a5,-32(s0)
   24398:	fe042783          	lw	a5,-32(s0)
   2439c:	0007871b          	sext.w	a4,a5
   243a0:	00900793          	li	a5,9
   243a4:	02e7d463          	bge	a5,a4,243cc <vpf_num_to_str+0xd8>
   243a8:	fe042783          	lw	a5,-32(s0)
   243ac:	0ff7f793          	andi	a5,a5,255
   243b0:	0577879b          	addiw	a5,a5,87
   243b4:	0ff7f713          	andi	a4,a5,255
   243b8:	fe842783          	lw	a5,-24(s0)
   243bc:	ff040693          	addi	a3,s0,-16
   243c0:	00f687b3          	add	a5,a3,a5
   243c4:	fce78823          	sb	a4,-48(a5)
   243c8:	0240006f          	j	243ec <vpf_num_to_str+0xf8>
   243cc:	fe042783          	lw	a5,-32(s0)
   243d0:	0ff7f793          	andi	a5,a5,255
   243d4:	0307879b          	addiw	a5,a5,48
   243d8:	0ff7f713          	andi	a4,a5,255
   243dc:	fe842783          	lw	a5,-24(s0)
   243e0:	ff040693          	addi	a3,s0,-16
   243e4:	00f687b3          	add	a5,a3,a5
   243e8:	fce78823          	sb	a4,-48(a5)
   243ec:	fbc42703          	lw	a4,-68(s0)
   243f0:	fec42783          	lw	a5,-20(s0)
   243f4:	02f757bb          	divuw	a5,a4,a5
   243f8:	faf42e23          	sw	a5,-68(s0)
   243fc:	fe842783          	lw	a5,-24(s0)
   24400:	0017879b          	addiw	a5,a5,1
   24404:	fef42423          	sw	a5,-24(s0)
   24408:	fbc42783          	lw	a5,-68(s0)
   2440c:	0007879b          	sext.w	a5,a5
   24410:	f6079ae3          	bnez	a5,24384 <vpf_num_to_str+0x90>
   24414:	fb442783          	lw	a5,-76(s0)
   24418:	0007879b          	sext.w	a5,a5
   2441c:	02f05c63          	blez	a5,24454 <vpf_num_to_str+0x160>
   24420:	fb442783          	lw	a5,-76(s0)
   24424:	00078713          	mv	a4,a5
   24428:	01f00793          	li	a5,31
   2442c:	00e7f663          	bgeu	a5,a4,24438 <vpf_num_to_str+0x144>
   24430:	01f00793          	li	a5,31
   24434:	faf42a23          	sw	a5,-76(s0)
   24438:	fe842703          	lw	a4,-24(s0)
   2443c:	fb442783          	lw	a5,-76(s0)
   24440:	0007071b          	sext.w	a4,a4
   24444:	0007879b          	sext.w	a5,a5
   24448:	00f75663          	bge	a4,a5,24454 <vpf_num_to_str+0x160>
   2444c:	fb442783          	lw	a5,-76(s0)
   24450:	fef42423          	sw	a5,-24(s0)
   24454:	fe842783          	lw	a5,-24(s0)
   24458:	ff040713          	addi	a4,s0,-16
   2445c:	00f707b3          	add	a5,a4,a5
   24460:	fc078823          	sb	zero,-48(a5)
   24464:	fe842783          	lw	a5,-24(s0)
   24468:	fff7879b          	addiw	a5,a5,-1
   2446c:	fef42223          	sw	a5,-28(s0)
   24470:	0280006f          	j	24498 <vpf_num_to_str+0x1a4>
   24474:	fe442783          	lw	a5,-28(s0)
   24478:	ff040713          	addi	a4,s0,-16
   2447c:	00f707b3          	add	a5,a4,a5
   24480:	fd07c783          	lbu	a5,-48(a5)
   24484:	00078513          	mv	a0,a5
   24488:	bddff0ef          	jal	ra,24064 <uart_send>
   2448c:	fe442783          	lw	a5,-28(s0)
   24490:	fff7879b          	addiw	a5,a5,-1
   24494:	fef42223          	sw	a5,-28(s0)
   24498:	fe442783          	lw	a5,-28(s0)
   2449c:	0007879b          	sext.w	a5,a5
   244a0:	fc07dae3          	bgez	a5,24474 <vpf_num_to_str+0x180>
   244a4:	00000013          	nop
   244a8:	00000013          	nop
   244ac:	04813083          	ld	ra,72(sp)
   244b0:	04013403          	ld	s0,64(sp)
   244b4:	05010113          	addi	sp,sp,80
   244b8:	00008067          	ret

00000000000244bc <vpf>:
   244bc:	fb010113          	addi	sp,sp,-80
   244c0:	04113423          	sd	ra,72(sp)
   244c4:	04813023          	sd	s0,64(sp)
   244c8:	05010413          	addi	s0,sp,80
   244cc:	faa43c23          	sd	a0,-72(s0)
   244d0:	fab43823          	sd	a1,-80(s0)
   244d4:	02000793          	li	a5,32
   244d8:	fcf42a23          	sw	a5,-44(s0)
   244dc:	fb843783          	ld	a5,-72(s0)
   244e0:	fef43423          	sd	a5,-24(s0)
   244e4:	1880006f          	j	2466c <vpf+0x1b0>
   244e8:	fc042e23          	sw	zero,-36(s0)
   244ec:	fc042223          	sw	zero,-60(s0)
   244f0:	fe843783          	ld	a5,-24(s0)
   244f4:	0007c783          	lbu	a5,0(a5)
   244f8:	fcf42823          	sw	a5,-48(s0)
   244fc:	fe843783          	ld	a5,-24(s0)
   24500:	fef43023          	sd	a5,-32(s0)
   24504:	fe843783          	ld	a5,-24(s0)
   24508:	0007c783          	lbu	a5,0(a5)
   2450c:	00078713          	mv	a4,a5
   24510:	02500793          	li	a5,37
   24514:	06f71863          	bne	a4,a5,24584 <vpf+0xc8>
   24518:	fe843783          	ld	a5,-24(s0)
   2451c:	fef43023          	sd	a5,-32(s0)
   24520:	fe843783          	ld	a5,-24(s0)
   24524:	00178793          	addi	a5,a5,1
   24528:	fef43423          	sd	a5,-24(s0)
   2452c:	fe843783          	ld	a5,-24(s0)
   24530:	0007c783          	lbu	a5,0(a5)
   24534:	00078713          	mv	a4,a5
   24538:	02f00793          	li	a5,47
   2453c:	02e7fe63          	bgeu	a5,a4,24578 <vpf+0xbc>
   24540:	fe843783          	ld	a5,-24(s0)
   24544:	0007c783          	lbu	a5,0(a5)
   24548:	00078713          	mv	a4,a5
   2454c:	03900793          	li	a5,57
   24550:	02e7e463          	bltu	a5,a4,24578 <vpf+0xbc>
   24554:	fc440793          	addi	a5,s0,-60
   24558:	00078593          	mv	a1,a5
   2455c:	fe843503          	ld	a0,-24(s0)
   24560:	ca5ff0ef          	jal	ra,24204 <vpf_str_to_num>
   24564:	00050793          	mv	a5,a0
   24568:	00078713          	mv	a4,a5
   2456c:	fe843783          	ld	a5,-24(s0)
   24570:	00e787b3          	add	a5,a5,a4
   24574:	fef43423          	sd	a5,-24(s0)
   24578:	fe843783          	ld	a5,-24(s0)
   2457c:	0007c783          	lbu	a5,0(a5)
   24580:	fcf42e23          	sw	a5,-36(s0)
   24584:	fdc42783          	lw	a5,-36(s0)
   24588:	0007871b          	sext.w	a4,a5
   2458c:	06400793          	li	a5,100
   24590:	00f70a63          	beq	a4,a5,245a4 <vpf+0xe8>
   24594:	fdc42783          	lw	a5,-36(s0)
   24598:	0007871b          	sext.w	a4,a5
   2459c:	07800793          	li	a5,120
   245a0:	04f71863          	bne	a4,a5,245f0 <vpf+0x134>
   245a4:	fb043783          	ld	a5,-80(s0)
   245a8:	00878713          	addi	a4,a5,8
   245ac:	fae43823          	sd	a4,-80(s0)
   245b0:	0007a783          	lw	a5,0(a5)
   245b4:	fcf42423          	sw	a5,-56(s0)
   245b8:	fc842503          	lw	a0,-56(s0)
   245bc:	fdc42783          	lw	a5,-36(s0)
   245c0:	0007871b          	sext.w	a4,a5
   245c4:	07800793          	li	a5,120
   245c8:	40f707b3          	sub	a5,a4,a5
   245cc:	0017b793          	seqz	a5,a5
   245d0:	0ff7f793          	andi	a5,a5,255
   245d4:	0007879b          	sext.w	a5,a5
   245d8:	fc442703          	lw	a4,-60(s0)
   245dc:	fd442683          	lw	a3,-44(s0)
   245e0:	00070613          	mv	a2,a4
   245e4:	00078593          	mv	a1,a5
   245e8:	d0dff0ef          	jal	ra,242f4 <vpf_num_to_str>
   245ec:	0740006f          	j	24660 <vpf+0x1a4>
   245f0:	fc042c23          	sw	zero,-40(s0)
   245f4:	0280006f          	j	2461c <vpf+0x160>
   245f8:	fd842783          	lw	a5,-40(s0)
   245fc:	fe043703          	ld	a4,-32(s0)
   24600:	00f707b3          	add	a5,a4,a5
   24604:	0007c783          	lbu	a5,0(a5)
   24608:	00078513          	mv	a0,a5
   2460c:	a59ff0ef          	jal	ra,24064 <uart_send>
   24610:	fd842783          	lw	a5,-40(s0)
   24614:	0017879b          	addiw	a5,a5,1
   24618:	fcf42c23          	sw	a5,-40(s0)
   2461c:	fd842703          	lw	a4,-40(s0)
   24620:	fe843683          	ld	a3,-24(s0)
   24624:	fe043783          	ld	a5,-32(s0)
   24628:	40f687b3          	sub	a5,a3,a5
   2462c:	fcf746e3          	blt	a4,a5,245f8 <vpf+0x13c>
   24630:	fdc42783          	lw	a5,-36(s0)
   24634:	0007879b          	sext.w	a5,a5
   24638:	00078863          	beqz	a5,24648 <vpf+0x18c>
   2463c:	fdc42783          	lw	a5,-36(s0)
   24640:	0ff7f793          	andi	a5,a5,255
   24644:	00c0006f          	j	24650 <vpf+0x194>
   24648:	fd042783          	lw	a5,-48(s0)
   2464c:	0ff7f793          	andi	a5,a5,255
   24650:	fcf407a3          	sb	a5,-49(s0)
   24654:	fcf44783          	lbu	a5,-49(s0)
   24658:	00078513          	mv	a0,a5
   2465c:	a09ff0ef          	jal	ra,24064 <uart_send>
   24660:	fe843783          	ld	a5,-24(s0)
   24664:	00178793          	addi	a5,a5,1
   24668:	fef43423          	sd	a5,-24(s0)
   2466c:	fe843783          	ld	a5,-24(s0)
   24670:	0007c783          	lbu	a5,0(a5)
   24674:	e6079ae3          	bnez	a5,244e8 <vpf+0x2c>
   24678:	00000793          	li	a5,0
   2467c:	00078513          	mv	a0,a5
   24680:	04813083          	ld	ra,72(sp)
   24684:	04013403          	ld	s0,64(sp)
   24688:	05010113          	addi	sp,sp,80
   2468c:	00008067          	ret

0000000000024690 <sys_uart_printf>:
   24690:	f9010113          	addi	sp,sp,-112
   24694:	02113423          	sd	ra,40(sp)
   24698:	02813023          	sd	s0,32(sp)
   2469c:	03010413          	addi	s0,sp,48
   246a0:	fca43c23          	sd	a0,-40(s0)
   246a4:	00b43423          	sd	a1,8(s0)
   246a8:	00c43823          	sd	a2,16(s0)
   246ac:	00d43c23          	sd	a3,24(s0)
   246b0:	02e43023          	sd	a4,32(s0)
   246b4:	02f43423          	sd	a5,40(s0)
   246b8:	03043823          	sd	a6,48(s0)
   246bc:	03143c23          	sd	a7,56(s0)
   246c0:	04040793          	addi	a5,s0,64
   246c4:	fcf43823          	sd	a5,-48(s0)
   246c8:	fd043783          	ld	a5,-48(s0)
   246cc:	fc878793          	addi	a5,a5,-56
   246d0:	fef43423          	sd	a5,-24(s0)
   246d4:	fe843783          	ld	a5,-24(s0)
   246d8:	00078593          	mv	a1,a5
   246dc:	fd843503          	ld	a0,-40(s0)
   246e0:	dddff0ef          	jal	ra,244bc <vpf>
   246e4:	00000793          	li	a5,0
   246e8:	00078513          	mv	a0,a5
   246ec:	02813083          	ld	ra,40(sp)
   246f0:	02013403          	ld	s0,32(sp)
   246f4:	07010113          	addi	sp,sp,112
   246f8:	00008067          	ret

00000000000246fc <print_hex>:
   246fc:	fd010113          	addi	sp,sp,-48
   24700:	02113423          	sd	ra,40(sp)
   24704:	02813023          	sd	s0,32(sp)
   24708:	03010413          	addi	s0,sp,48
   2470c:	00050793          	mv	a5,a0
   24710:	fcf42e23          	sw	a5,-36(s0)
   24714:	03000513          	li	a0,48
   24718:	94dff0ef          	jal	ra,24064 <uart_send>
   2471c:	07800513          	li	a0,120
   24720:	945ff0ef          	jal	ra,24064 <uart_send>
   24724:	00700793          	li	a5,7
   24728:	fef42623          	sw	a5,-20(s0)
   2472c:	07c0006f          	j	247a8 <print_hex+0xac>
   24730:	fec42783          	lw	a5,-20(s0)
   24734:	0027979b          	slliw	a5,a5,0x2
   24738:	0007879b          	sext.w	a5,a5
   2473c:	00078713          	mv	a4,a5
   24740:	fdc42783          	lw	a5,-36(s0)
   24744:	00e7d7bb          	srlw	a5,a5,a4
   24748:	0007879b          	sext.w	a5,a5
   2474c:	0007879b          	sext.w	a5,a5
   24750:	00f7f793          	andi	a5,a5,15
   24754:	fef42423          	sw	a5,-24(s0)
   24758:	fe842783          	lw	a5,-24(s0)
   2475c:	0007871b          	sext.w	a4,a5
   24760:	00900793          	li	a5,9
   24764:	02e7c063          	blt	a5,a4,24784 <print_hex+0x88>
   24768:	fe842783          	lw	a5,-24(s0)
   2476c:	0ff7f793          	andi	a5,a5,255
   24770:	0307879b          	addiw	a5,a5,48
   24774:	0ff7f793          	andi	a5,a5,255
   24778:	00078513          	mv	a0,a5
   2477c:	8e9ff0ef          	jal	ra,24064 <uart_send>
   24780:	01c0006f          	j	2479c <print_hex+0xa0>
   24784:	fe842783          	lw	a5,-24(s0)
   24788:	0ff7f793          	andi	a5,a5,255
   2478c:	0377879b          	addiw	a5,a5,55
   24790:	0ff7f793          	andi	a5,a5,255
   24794:	00078513          	mv	a0,a5
   24798:	8cdff0ef          	jal	ra,24064 <uart_send>
   2479c:	fec42783          	lw	a5,-20(s0)
   247a0:	fff7879b          	addiw	a5,a5,-1
   247a4:	fef42623          	sw	a5,-20(s0)
   247a8:	fec42783          	lw	a5,-20(s0)
   247ac:	0007879b          	sext.w	a5,a5
   247b0:	f807d0e3          	bgez	a5,24730 <print_hex+0x34>
   247b4:	00000013          	nop
   247b8:	00000013          	nop
   247bc:	02813083          	ld	ra,40(sp)
   247c0:	02013403          	ld	s0,32(sp)
   247c4:	03010113          	addi	sp,sp,48
   247c8:	00008067          	ret
   247cc:	0000                	unimp
	...

00000000000247d0 <my_test_data>:
   247d0:	abcd                	j	24dc2 <boot_string+0xa>
   247d2:	abcd                	j	24dc4 <boot_string+0xc>
   247d4:	5678                	lw	a4,108(a2)
   247d6:	1234                	addi	a3,sp,296

00000000000247d8 <load_store_test>:
   247d8:	000212b7          	lui	t0,0x21
   247dc:	00028303          	lb	t1,0(t0) # 21000 <_start-0x1000>
   247e0:	00428303          	lb	t1,4(t0)
   247e4:	ffc28303          	lb	t1,-4(t0)
   247e8:	0002b303          	ld	t1,0(t0)
   247ec:	00428303          	lb	t1,4(t0)
   247f0:	00000297          	auipc	t0,0x0
   247f4:	fe028293          	addi	t0,t0,-32 # 247d0 <my_test_data>
   247f8:	00000317          	auipc	t1,0x0
   247fc:	fd830313          	addi	t1,t1,-40 # 247d0 <my_test_data>
   24800:	802002b7          	lui	t0,0x80200
   24804:	40200337          	lui	t1,0x40200
   24808:	00008067          	ret

000000000002480c <shift_test>:
   2480c:	c00002b7          	lui	t0,0xc0000
   24810:	0452829b          	addiw	t0,t0,69
   24814:	02129293          	slli	t0,t0,0x21
   24818:	4012d593          	srai	a1,t0,0x1
   2481c:	0012d313          	srli	t1,t0,0x1
   24820:	0250029b          	addiw	t0,zero,37
   24824:	01f29293          	slli	t0,t0,0x1f
   24828:	08a28293          	addi	t0,t0,138 # ffffffffc000008a <TEXT_ROM+0xffffffffbffd908a>
   2482c:	4012d61b          	sraiw	a2,t0,0x1
   24830:	0012d31b          	srliw	t1,t0,0x1
   24834:	0012969b          	slliw	a3,t0,0x1
   24838:	0490029b          	addiw	t0,zero,73
   2483c:	01e29293          	slli	t0,t0,0x1e
   24840:	08a28293          	addi	t0,t0,138
   24844:	4012d61b          	sraiw	a2,t0,0x1
   24848:	0012d31b          	srliw	t1,t0,0x1
   2484c:	0012971b          	slliw	a4,t0,0x1
   24850:	00008067          	ret

0000000000024854 <add_sub_test>:
   24854:	80028593          	addi	a1,t0,-2048
   24858:	000012b7          	lui	t0,0x1
   2485c:	a012829b          	addiw	t0,t0,-1535
   24860:	01529293          	slli	t0,t0,0x15
   24864:	40000337          	lui	t1,0x40000
   24868:	70028593          	addi	a1,t0,1792 # 1700 <_start-0x20900>
   2486c:	80028593          	addi	a1,t0,-2048
   24870:	0802861b          	addiw	a2,t0,128
   24874:	006286b3          	add	a3,t0,t1
   24878:	0062873b          	addw	a4,t0,t1
   2487c:	000012b7          	lui	t0,0x1
   24880:	c012829b          	addiw	t0,t0,-1023
   24884:	01529293          	slli	t0,t0,0x15
   24888:	00200337          	lui	t1,0x200
   2488c:	40628533          	sub	a0,t0,t1
   24890:	406285bb          	subw	a1,t0,t1
   24894:	00008067          	ret

0000000000024898 <add_test>:
   24898:	00b50533          	add	a0,a0,a1
   2489c:	00000013          	nop
   248a0:	00008067          	ret

00000000000248a4 <branch_test>:
   248a4:	ff810113          	addi	sp,sp,-8
   248a8:	00113023          	sd	ra,0(sp)
   248ac:	00100513          	li	a0,1
   248b0:	00200593          	li	a1,2
   248b4:	fe5ff0ef          	jal	ra,24898 <add_test>
   248b8:	00000013          	nop
   248bc:	00013083          	ld	ra,0(sp)
   248c0:	00810113          	addi	sp,sp,8
   248c4:	00008067          	ret

00000000000248c8 <my_memcpy_test>:
   248c8:	000202b7          	lui	t0,0x20
   248cc:	00021337          	lui	t1,0x21
   248d0:	02028393          	addi	t2,t0,32 # 20020 <_start-0x1fe0>

00000000000248d4 <.loop>:
   248d4:	0002be03          	ld	t3,0(t0)
   248d8:	01c33023          	sd	t3,0(t1) # 21000 <_start-0x1000>
   248dc:	00828293          	addi	t0,t0,8
   248e0:	00830313          	addi	t1,t1,8
   248e4:	fe72c8e3          	blt	t0,t2,248d4 <.loop>
   248e8:	00008067          	ret

00000000000248ec <compare_and_return>:
   248ec:	00b56663          	bltu	a0,a1,248f8 <compare_and_return+0xc>
   248f0:	00000793          	li	a5,0
   248f4:	0080006f          	j	248fc <compare_and_return+0x10>
   248f8:	fff00793          	li	a5,-1
   248fc:	00078513          	mv	a0,a5
   24900:	00008067          	ret

0000000000024904 <sel_test>:
   24904:	00050663          	beqz	a0,24910 <sel_test+0xc>
   24908:	fff58793          	addi	a5,a1,-1
   2490c:	0080006f          	j	24914 <sel_test+0x10>
   24910:	00258793          	addi	a5,a1,2
   24914:	00078513          	mv	a0,a5
   24918:	00008067          	ret

000000000002491c <bl_test>:
   2491c:	ff010113          	addi	sp,sp,-16
   24920:	00113423          	sd	ra,8(sp)
   24924:	fe1ff0ef          	jal	ra,24904 <sel_test>
   24928:	00813083          	ld	ra,8(sp)
   2492c:	01010113          	addi	sp,sp,16
   24930:	00008067          	ret
   24934:	00000013          	nop

0000000000024938 <func_addr>:
   24938:	0800                	addi	s0,sp,16
   2493a:	0080                	addi	s0,sp,64
   2493c:	0000                	unimp
   2493e:	0000                	unimp
   24940:	0860                	addi	s0,sp,28
   24942:	0080                	addi	s0,sp,64
   24944:	0000                	unimp
   24946:	0000                	unimp
   24948:	0880                	addi	s0,sp,80
   2494a:	0080                	addi	s0,sp,64
   2494c:	0000                	unimp
	...

0000000000024950 <func_string>:
   24950:	7566                	ld	a0,120(sp)
   24952:	636e                	ld	t1,216(sp)
   24954:	615f 6600 6e75      	0x6e756600615f
   2495a:	00625f63          	bge	tp,t1,24978 <op_2>
   2495e:	7566                	ld	a0,120(sp)
   24960:	636e                	ld	t1,216(sp)
   24962:	635f 0100 0000      	0x100635f

0000000000024968 <func_num_syms>:
   24968:	00000003          	lb	zero,0(zero) # 0 <_start-0x22000>
   2496c:	0000                	unimp
	...

0000000000024970 <op_1>:
   24970:	00b50533          	add	a0,a0,a1
   24974:	00008067          	ret

0000000000024978 <op_2>:
   24978:	40b50533          	sub	a0,a0,a1
   2497c:	00008067          	ret

0000000000024980 <macro_test_1>:
   24980:	ff010113          	addi	sp,sp,-16
   24984:	00113423          	sd	ra,8(sp)
   24988:	00050293          	mv	t0,a0
   2498c:	00058313          	mv	t1,a1
   24990:	00028513          	mv	a0,t0
   24994:	00030593          	mv	a1,t1
   24998:	fd9ff0ef          	jal	ra,24970 <op_1>
   2499c:	00813083          	ld	ra,8(sp)
   249a0:	01010113          	addi	sp,sp,16
   249a4:	00008067          	ret

00000000000249a8 <macro_test_2>:
   249a8:	ff010113          	addi	sp,sp,-16
   249ac:	00113423          	sd	ra,8(sp)
   249b0:	00050293          	mv	t0,a0
   249b4:	00058313          	mv	t1,a1
   249b8:	00028513          	mv	a0,t0
   249bc:	00030593          	mv	a1,t1
   249c0:	fb9ff0ef          	jal	ra,24978 <op_2>
   249c4:	00813083          	ld	ra,8(sp)
   249c8:	01010113          	addi	sp,sp,16
   249cc:	00008067          	ret
	...

00000000000249d8 <__init_uart>:
   249d8:	020002b7          	lui	t0,0x2000
   249dc:	0f02829b          	addiw	t0,t0,240
   249e0:	0002a303          	lw	t1,0(t0) # 2000000 <TEXT_ROM+0x1fd9000>
   249e4:	fff0f3b7          	lui	t2,0xfff0f
   249e8:	0ff3839b          	addiw	t2,t2,255
   249ec:	00737333          	and	t1,t1,t2
   249f0:	000303b7          	lui	t2,0x30
   249f4:	3003839b          	addiw	t2,t2,768
   249f8:	00736333          	or	t1,t1,t2
   249fc:	0062a023          	sw	t1,0(t0)
   24a00:	020022b7          	lui	t0,0x2002
   24a04:	90c2829b          	addiw	t0,t0,-1780
   24a08:	0002a303          	lw	t1,0(t0) # 2002000 <TEXT_ROM+0x1fdb000>
   24a0c:	00136313          	ori	t1,t1,1
   24a10:	0062a023          	sw	t1,0(t0)
   24a14:	020022b7          	lui	t0,0x2002
   24a18:	90c2829b          	addiw	t0,t0,-1780
   24a1c:	0002a303          	lw	t1,0(t0) # 2002000 <TEXT_ROM+0x1fdb000>
   24a20:	000103b7          	lui	t2,0x10
   24a24:	00736333          	or	t1,t1,t2
   24a28:	0062a023          	sw	t1,0(t0)
   24a2c:	025002b7          	lui	t0,0x2500
   24a30:	0002a223          	sw	zero,4(t0) # 2500004 <TEXT_ROM+0x24d9004>
   24a34:	0f700313          	li	t1,247
   24a38:	0062a423          	sw	t1,8(t0)
   24a3c:	0002a823          	sw	zero,16(t0)
   24a40:	00c2a303          	lw	t1,12(t0)
   24a44:	08036313          	ori	t1,t1,128
   24a48:	0062a623          	sw	t1,12(t0)
   24a4c:	00d00393          	li	t2,13
   24a50:	0072a023          	sw	t2,0(t0)
   24a54:	00000393          	li	t2,0
   24a58:	0072a223          	sw	t2,4(t0)
   24a5c:	08034313          	xori	t1,t1,128
   24a60:	0062a623          	sw	t1,12(t0)
   24a64:	00c2a303          	lw	t1,12(t0)
   24a68:	ff000393          	li	t2,-16
   24a6c:	00737333          	and	t1,t1,t2
   24a70:	00300393          	li	t2,3
   24a74:	00736333          	or	t1,t1,t2
   24a78:	0062a623          	sw	t1,12(t0)
   24a7c:	00008067          	ret

0000000000024a80 <put_uart>:
   24a80:	025002b7          	lui	t0,0x2500

0000000000024a84 <.loop>:
   24a84:	07c2a303          	lw	t1,124(t0) # 250007c <TEXT_ROM+0x24d907c>
   24a88:	00237313          	andi	t1,t1,2
   24a8c:	fe030ce3          	beqz	t1,24a84 <.loop>
   24a90:	00a28023          	sb	a0,0(t0)
   24a94:	00008067          	ret

0000000000024a98 <put_string_uart>:
   24a98:	00008c13          	mv	s8,ra
   24a9c:	00050793          	mv	a5,a0

0000000000024aa0 <.loop1>:
   24aa0:	0007c503          	lbu	a0,0(a5)
   24aa4:	00050863          	beqz	a0,24ab4 <.loop1+0x14>
   24aa8:	fd9ff0ef          	jal	ra,24a80 <put_uart>
   24aac:	00178793          	addi	a5,a5,1
   24ab0:	ff1ff06f          	j	24aa0 <.loop1>
   24ab4:	000c0093          	mv	ra,s8
   24ab8:	00008067          	ret

0000000000024abc <__memset_16bytes_asm>:
   24abc:	00000293          	li	t0,0

0000000000024ac0 <.loop>:
   24ac0:	00b53023          	sd	a1,0(a0) # 2001000 <TEXT_ROM+0x1fda000>
   24ac4:	00b53423          	sd	a1,8(a0)
   24ac8:	01028293          	addi	t0,t0,16
   24acc:	fec2cae3          	blt	t0,a2,24ac0 <.loop>
   24ad0:	00008067          	ret

Disassembly of section .rodata:

0000000000024ad8 <_etext>:
   24ad8:	303c                	fld	fa5,96(s0)
   24ada:	2578                	fld	fa4,200(a0)
   24adc:	786c                	ld	a1,240(s0)
   24ade:	203e                	fld	ft0,456(sp)
   24ae0:	7325                	lui	t1,0xfffe9
   24ae2:	000a                	c.slli	zero,0x2
   24ae4:	0000                	unimp
   24ae6:	0000                	unimp
   24ae8:	616c                	ld	a1,192(a0)
   24aea:	3362                	fld	ft6,56(sp)
   24aec:	352d                	addiw	a0,a0,-21
   24aee:	203a                	fld	ft0,392(sp)
   24af0:	706d6f63          	bltu	s10,t1,2520e <stacks_start+0x20e>
   24af4:	7261                	lui	tp,0xffff8
   24af6:	5f65                	li	t5,-7
   24af8:	6e61                	lui	t3,0x18
   24afa:	5f64                	lw	s1,124(a4)
   24afc:	6572                	ld	a0,280(sp)
   24afe:	7574                	ld	a3,232(a0)
   24b00:	6e72                	ld	t3,280(sp)
   24b02:	6f20                	ld	s0,88(a4)
   24b04:	00000a6b          	0xa6b
   24b08:	616c                	ld	a1,192(a0)
   24b0a:	3362                	fld	ft6,56(sp)
   24b0c:	372d                	addiw	a4,a4,-21
   24b0e:	203a                	fld	ft0,392(sp)
   24b10:	7262                	ld	tp,56(sp)
   24b12:	6e61                	lui	t3,0x18
   24b14:	74206863          	bltu	zero,sp,25264 <stacks_start+0x264>
   24b18:	7365                	lui	t1,0xffff9
   24b1a:	2074                	fld	fa3,192(s0)
   24b1c:	000a6b6f          	jal	s6,cab1c <TEXT_ROM+0xa3b1c>
   24b20:	616c                	ld	a1,192(a0)
   24b22:	3562                	fld	fa0,56(sp)
   24b24:	352d                	addiw	a0,a0,-21
   24b26:	203a                	fld	ft0,392(sp)
   24b28:	616d                	addi	sp,sp,240
   24b2a:	5f6f7263          	bgeu	t5,s6,2510e <stacks_start+0x10e>
   24b2e:	6574                	ld	a3,200(a0)
   24b30:	315f7473          	csrrci	s0,0x315,30
   24b34:	6f20                	ld	s0,88(a4)
   24b36:	00000a6b          	0xa6b
   24b3a:	0000                	unimp
   24b3c:	0000                	unimp
   24b3e:	0000                	unimp
   24b40:	616c                	ld	a1,192(a0)
   24b42:	3562                	fld	fa0,56(sp)
   24b44:	352d                	addiw	a0,a0,-21
   24b46:	203a                	fld	ft0,392(sp)
   24b48:	616d                	addi	sp,sp,240
   24b4a:	5f6f7263          	bgeu	t5,s6,2512e <stacks_start+0x12e>
   24b4e:	6574                	ld	a3,200(a0)
   24b50:	325f7473          	csrrci	s0,mhpmevent5,30
   24b54:	6f20                	ld	s0,88(a4)
   24b56:	00000a6b          	0xa6b
   24b5a:	0000                	unimp
   24b5c:	0000                	unimp
   24b5e:	0000                	unimp
   24b60:	6542                	ld	a0,16(sp)
   24b62:	4f6e                	lw	t5,216(sp)
   24b64:	6d692053          	0x6d692053
   24b68:	6761                	lui	a4,0x18
   24b6a:	2065                	0x2065
   24b6c:	616c                	ld	a1,192(a0)
   24b6e:	6f79                	lui	t5,0x1e
   24b70:	7475                	lui	s0,0xffffd
   24b72:	0a3a                	slli	s4,s4,0xe
   24b74:	0000                	unimp
   24b76:	0000                	unimp
   24b78:	2020                	fld	fs0,64(s0)
   24b7a:	742e                	ld	s0,232(sp)
   24b7c:	7865                	lui	a6,0xffff9
   24b7e:	2e74                	fld	fa3,216(a2)
   24b80:	6f62                	ld	t5,24(sp)
   24b82:	203a746f          	jal	s0,cc584 <TEXT_ROM+0xa5584>
   24b86:	7830                	ld	a2,112(s0)
   24b88:	3025                	0x3025
   24b8a:	6c38                	ld	a4,88(s0)
   24b8c:	2078                	fld	fa4,192(s0)
   24b8e:	202d                	0x202d
   24b90:	7830                	ld	a2,112(s0)
   24b92:	3025                	0x3025
   24b94:	6c38                	ld	a4,88(s0)
   24b96:	2078                	fld	fa4,192(s0)
   24b98:	2528                	fld	fa0,72(a0)
   24b9a:	6c36                	ld	s8,328(sp)
   24b9c:	2064                	fld	fs1,192(s0)
   24b9e:	2942                	fld	fs2,16(sp)
   24ba0:	000a                	c.slli	zero,0x2
   24ba2:	0000                	unimp
   24ba4:	0000                	unimp
   24ba6:	0000                	unimp
   24ba8:	2020                	fld	fs0,64(s0)
   24baa:	2020                	fld	fs0,64(s0)
   24bac:	2020                	fld	fs0,64(s0)
   24bae:	2e20                	fld	fs0,88(a2)
   24bb0:	6574                	ld	a3,200(a0)
   24bb2:	7478                	ld	a4,232(s0)
   24bb4:	203a                	fld	ft0,392(sp)
   24bb6:	7830                	ld	a2,112(s0)
   24bb8:	3025                	0x3025
   24bba:	6c38                	ld	a4,88(s0)
   24bbc:	2078                	fld	fa4,192(s0)
   24bbe:	202d                	0x202d
   24bc0:	7830                	ld	a2,112(s0)
   24bc2:	3025                	0x3025
   24bc4:	6c38                	ld	a4,88(s0)
   24bc6:	2078                	fld	fa4,192(s0)
   24bc8:	2528                	fld	fa0,72(a0)
   24bca:	6c36                	ld	s8,328(sp)
   24bcc:	2064                	fld	fs1,192(s0)
   24bce:	2942                	fld	fs2,16(sp)
   24bd0:	000a                	c.slli	zero,0x2
   24bd2:	0000                	unimp
   24bd4:	0000                	unimp
   24bd6:	0000                	unimp
   24bd8:	2020                	fld	fs0,64(s0)
   24bda:	2020                	fld	fs0,64(s0)
   24bdc:	2e20                	fld	fs0,88(a2)
   24bde:	6f72                	ld	t5,280(sp)
   24be0:	6164                	ld	s1,192(a0)
   24be2:	6174                	ld	a3,192(a0)
   24be4:	203a                	fld	ft0,392(sp)
   24be6:	7830                	ld	a2,112(s0)
   24be8:	3025                	0x3025
   24bea:	6c38                	ld	a4,88(s0)
   24bec:	2078                	fld	fa4,192(s0)
   24bee:	202d                	0x202d
   24bf0:	7830                	ld	a2,112(s0)
   24bf2:	3025                	0x3025
   24bf4:	6c38                	ld	a4,88(s0)
   24bf6:	2078                	fld	fa4,192(s0)
   24bf8:	2528                	fld	fa0,72(a0)
   24bfa:	6c36                	ld	s8,328(sp)
   24bfc:	2064                	fld	fs1,192(s0)
   24bfe:	2942                	fld	fs2,16(sp)
   24c00:	000a                	c.slli	zero,0x2
   24c02:	0000                	unimp
   24c04:	0000                	unimp
   24c06:	0000                	unimp
   24c08:	2020                	fld	fs0,64(s0)
   24c0a:	2020                	fld	fs0,64(s0)
   24c0c:	2020                	fld	fs0,64(s0)
   24c0e:	2e20                	fld	fs0,88(a2)
   24c10:	6164                	ld	s1,192(a0)
   24c12:	6174                	ld	a3,192(a0)
   24c14:	203a                	fld	ft0,392(sp)
   24c16:	7830                	ld	a2,112(s0)
   24c18:	3025                	0x3025
   24c1a:	6c38                	ld	a4,88(s0)
   24c1c:	2078                	fld	fa4,192(s0)
   24c1e:	202d                	0x202d
   24c20:	7830                	ld	a2,112(s0)
   24c22:	3025                	0x3025
   24c24:	6c38                	ld	a4,88(s0)
   24c26:	2078                	fld	fa4,192(s0)
   24c28:	2528                	fld	fa0,72(a0)
   24c2a:	6c36                	ld	s8,328(sp)
   24c2c:	2064                	fld	fs1,192(s0)
   24c2e:	2942                	fld	fs2,16(sp)
   24c30:	000a                	c.slli	zero,0x2
   24c32:	0000                	unimp
   24c34:	0000                	unimp
   24c36:	0000                	unimp
   24c38:	2020                	fld	fs0,64(s0)
   24c3a:	2020                	fld	fs0,64(s0)
   24c3c:	2020                	fld	fs0,64(s0)
   24c3e:	2020                	fld	fs0,64(s0)
   24c40:	622e                	ld	tp,200(sp)
   24c42:	203a7373          	csrrci	t1,0x203,20
   24c46:	7830                	ld	a2,112(s0)
   24c48:	3025                	0x3025
   24c4a:	6c38                	ld	a4,88(s0)
   24c4c:	2078                	fld	fa4,192(s0)
   24c4e:	202d                	0x202d
   24c50:	7830                	ld	a2,112(s0)
   24c52:	3025                	0x3025
   24c54:	6c38                	ld	a4,88(s0)
   24c56:	2078                	fld	fa4,192(s0)
   24c58:	2528                	fld	fa0,72(a0)
   24c5a:	6c36                	ld	s8,328(sp)
   24c5c:	2064                	fld	fs1,192(s0)
   24c5e:	2942                	fld	fs2,16(sp)
   24c60:	000a                	c.slli	zero,0x2
   24c62:	0000                	unimp
   24c64:	0000                	unimp
   24c66:	0000                	unimp
   24c68:	636c6557          	0x636c6557
   24c6c:	20656d6f          	jal	s10,7ae72 <TEXT_ROM+0x53e72>
   24c70:	4952                	lw	s2,20(sp)
   24c72:	562d4353          	0x562d4353
   24c76:	0d21                	addi	s10,s10,8
   24c78:	000a                	c.slli	zero,0x2
   24c7a:	0000                	unimp
   24c7c:	0000                	unimp
   24c7e:	0000                	unimp
   24c80:	7270                	ld	a2,224(a2)
   24c82:	6e69                	lui	t3,0x1a
   24c84:	6b74                	ld	a3,208(a4)
   24c86:	6920                	ld	s0,80(a0)
   24c88:	696e                	ld	s2,216(sp)
   24c8a:	2074                	fld	fa3,192(s0)
   24c8c:	6f64                	ld	s1,216(a4)
   24c8e:	656e                	ld	a0,216(sp)
   24c90:	000a                	c.slli	zero,0x2
   24c92:	0000                	unimp
   24c94:	0000                	unimp
   24c96:	0000                	unimp
   24c98:	3130                	fld	fa2,96(a0)
   24c9a:	3332                	fld	ft6,296(sp)
   24c9c:	3534                	fld	fa3,104(a0)
   24c9e:	3736                	fld	fa4,360(sp)
   24ca0:	3938                	fld	fa4,112(a0)
   24ca2:	4241                	li	tp,16
   24ca4:	46454443          	fmadd.q	fs0,fa0,ft4,fs0,rmm
   24ca8:	4a494847          	fmsub.d	fa6,fs2,ft4,fs1,rmm
   24cac:	4e4d4c4b          	fnmsub.q	fs8,fs10,ft4,fs1,rmm
   24cb0:	5251504f          	fnmadd.d	ft0,ft2,ft5,fa0,unknown
   24cb4:	56555453          	0x56555453
   24cb8:	5a595857          	0x5a595857
   24cbc:	0000                	unimp
   24cbe:	0000                	unimp
   24cc0:	3130                	fld	fa2,96(a0)
   24cc2:	3332                	fld	ft6,296(sp)
   24cc4:	3534                	fld	fa3,104(a0)
   24cc6:	3736                	fld	fa4,360(sp)
   24cc8:	3938                	fld	fa4,112(a0)
   24cca:	6261                	lui	tp,0x18
   24ccc:	66656463          	bltu	a0,t1,25334 <stacks_start+0x334>
   24cd0:	6a696867          	0x6a696867
   24cd4:	6e6d6c6b          	0x6e6d6c6b
   24cd8:	7271706f          	j	3cbfe <TEXT_ROM+0x15bfe>
   24cdc:	76757473          	csrrci	s0,0x767,10
   24ce0:	7a797877          	0x7a797877
   24ce4:	0000                	unimp
   24ce6:	0000                	unimp
   24ce8:	4e3c                	lw	a5,88(a2)
   24cea:	4c55                	li	s8,21
   24cec:	3e4c                	fld	fa1,184(a2)
   24cee:	0000                	unimp
   24cf0:	df44                	sw	s1,60(a4)
   24cf2:	df74ffff          	0xdf74ffff
   24cf6:	df74ffff          	0xdf74ffff
   24cfa:	df54ffff          	0xdf54ffff
   24cfe:	df74ffff          	0xdf74ffff
   24d02:	df74ffff          	0xdf74ffff
   24d06:	df74ffff          	0xdf74ffff
   24d0a:	df74ffff          	0xdf74ffff
   24d0e:	df74ffff          	0xdf74ffff
   24d12:	df74ffff          	0xdf74ffff
   24d16:	df74ffff          	0xdf74ffff
   24d1a:	df34ffff          	0xdf34ffff
   24d1e:	df74ffff          	0xdf74ffff
   24d22:	df24ffff          	0xdf24ffff
   24d26:	df74ffff          	0xdf74ffff
   24d2a:	df74ffff          	0xdf74ffff
   24d2e:	df64ffff          	0xdf64ffff
   24d32:	e3a0ffff          	0xe3a0ffff
   24d36:	e3c4ffff          	0xe3c4ffff
   24d3a:	e3c4ffff          	0xe3c4ffff
   24d3e:	e3c4ffff          	0xe3c4ffff
   24d42:	e3c4ffff          	0xe3c4ffff
   24d46:	e3c4ffff          	0xe3c4ffff
   24d4a:	e3c4ffff          	0xe3c4ffff
   24d4e:	e3c4ffff          	0xe3c4ffff
   24d52:	e3c4ffff          	0xe3c4ffff
   24d56:	e3c4ffff          	0xe3c4ffff
   24d5a:	e3c4ffff          	0xe3c4ffff
   24d5e:	e140ffff          	0xe140ffff
   24d62:	e3acffff          	0xe3acffff
   24d66:	e3c4ffff          	0xe3c4ffff
   24d6a:	e3c4ffff          	0xe3c4ffff
   24d6e:	e3c4ffff          	0xe3c4ffff
   24d72:	e3c4ffff          	0xe3c4ffff
   24d76:	e3acffff          	0xe3acffff
   24d7a:	e3c4ffff          	0xe3c4ffff
   24d7e:	e3c4ffff          	0xe3c4ffff
   24d82:	e3c4ffff          	0xe3c4ffff
   24d86:	e3c4ffff          	0xe3c4ffff
   24d8a:	e300ffff          	0xe300ffff
   24d8e:	e388ffff          	0xe388ffff
   24d92:	e330ffff          	0xe330ffff
   24d96:	e3c4ffff          	0xe3c4ffff
   24d9a:	e3c4ffff          	0xe3c4ffff
   24d9e:	e1d8ffff          	0xe1d8ffff
   24da2:	e3c4ffff          	0xe3c4ffff
   24da6:	e3b8ffff          	0xe3b8ffff
   24daa:	e3c4ffff          	0xe3c4ffff
   24dae:	e3c4ffff          	0xe3c4ffff
   24db2:	e394ffff          	0xe394ffff
   24db6:	          	0x6f42ffff

0000000000024db8 <boot_string>:
   24db8:	6f42                	ld	t5,16(sp)
   24dba:	6e69746f          	jal	s0,bc4a0 <TEXT_ROM+0x954a0>
   24dbe:	74612067          	0x74612067
   24dc2:	6120                	ld	s0,64(a0)
   24dc4:	000a6d73          	csrrsi	s10,ustatus,20

Disassembly of section .data:

0000000000025000 <stacks_start>:
	...

Disassembly of section .sdata:

0000000000026000 <g_record>:
   26000:	6108                	ld	a0,0(a0)
   26002:	0002                	c.slli64	zero
   26004:	0000                	unimp
	...

Disassembly of section .bss:

0000000000026008 <print_buf>:
	...

0000000000026108 <log_buf>:
	...

0000000000026208 <g_printk_status>:
	...

0000000000026210 <g_record_len>:
	...

