
mysbi.elf:     file format elf64-littleriscv


Disassembly of section .text.boot:

0000000000020000 <_start>:
   20000:	0300006f          	j	20030 <reset>
   20004:	4765                	li	a4,25
   20006:	422e4e4f          	fnmadd.d	ft8,ft8,ft2,fs0,rmm
   2000a:	3054                	fld	fa3,160(s0)
   2000c:	5678                	lw	a4,108(a2)
   2000e:	1234                	addi	a3,sp,296
   20010:	a000                	fsd	fs0,0(s0)
   20012:	0000                	unimp
   20014:	0030                	addi	a2,sp,8
   20016:	0000                	unimp
   20018:	30303033          	0x30303033
   2001c:	0000                	unimp
   2001e:	0002                	c.slli64	zero
   20020:	0000                	unimp
   20022:	0002                	c.slli64	zero
	...
   2002c:	2e34                	fld	fa3,88(a2)
   2002e:	0030                	addi	a2,sp,8

0000000000020030 <reset>:
   20030:	00009117          	auipc	sp,0x9
   20034:	fd010113          	addi	sp,sp,-48 # 29000 <stacks_start>
   20038:	000012b7          	lui	t0,0x1
   2003c:	00510133          	add	sp,sp,t0
   20040:	4a00006f          	j	204e0 <sbi_main>

Disassembly of section .text:

0000000000020044 <read_csr_num>:
   20044:	fd010113          	addi	sp,sp,-48
   20048:	02813423          	sd	s0,40(sp)
   2004c:	02913023          	sd	s1,32(sp)
   20050:	03010413          	addi	s0,sp,48
   20054:	00050793          	mv	a5,a0
   20058:	fcf42e23          	sw	a5,-36(s0)
   2005c:	fe043423          	sd	zero,-24(s0)
   20060:	fdc42783          	lw	a5,-36(s0)
   20064:	c607869b          	addiw	a3,a5,-928
   20068:	0006871b          	sext.w	a4,a3
   2006c:	01700793          	li	a5,23
   20070:	0ee7e463          	bltu	a5,a4,20158 <read_csr_num+0x114>
   20074:	02069793          	slli	a5,a3,0x20
   20078:	0207d793          	srli	a5,a5,0x20
   2007c:	00279713          	slli	a4,a5,0x2
   20080:	00008797          	auipc	a5,0x8
   20084:	fa478793          	addi	a5,a5,-92 # 28024 <payload_bin+0x7a6c>
   20088:	00f707b3          	add	a5,a4,a5
   2008c:	0007a783          	lw	a5,0(a5)
   20090:	0007871b          	sext.w	a4,a5
   20094:	00008797          	auipc	a5,0x8
   20098:	f9078793          	addi	a5,a5,-112 # 28024 <payload_bin+0x7a6c>
   2009c:	00f707b3          	add	a5,a4,a5
   200a0:	00078067          	jr	a5
   200a4:	3a0027f3          	csrr	a5,pmpcfg0
   200a8:	00078493          	mv	s1,a5
   200ac:	00048793          	mv	a5,s1
   200b0:	fef43423          	sd	a5,-24(s0)
   200b4:	0a80006f          	j	2015c <read_csr_num+0x118>
   200b8:	3b0027f3          	csrr	a5,pmpaddr0
   200bc:	00078493          	mv	s1,a5
   200c0:	00048793          	mv	a5,s1
   200c4:	fef43423          	sd	a5,-24(s0)
   200c8:	0940006f          	j	2015c <read_csr_num+0x118>
   200cc:	3b1027f3          	csrr	a5,pmpaddr1
   200d0:	00078493          	mv	s1,a5
   200d4:	00048793          	mv	a5,s1
   200d8:	fef43423          	sd	a5,-24(s0)
   200dc:	0800006f          	j	2015c <read_csr_num+0x118>
   200e0:	3b2027f3          	csrr	a5,pmpaddr2
   200e4:	00078493          	mv	s1,a5
   200e8:	00048793          	mv	a5,s1
   200ec:	fef43423          	sd	a5,-24(s0)
   200f0:	06c0006f          	j	2015c <read_csr_num+0x118>
   200f4:	3b3027f3          	csrr	a5,pmpaddr3
   200f8:	00078493          	mv	s1,a5
   200fc:	00048793          	mv	a5,s1
   20100:	fef43423          	sd	a5,-24(s0)
   20104:	0580006f          	j	2015c <read_csr_num+0x118>
   20108:	3b4027f3          	csrr	a5,pmpaddr4
   2010c:	00078493          	mv	s1,a5
   20110:	00048793          	mv	a5,s1
   20114:	fef43423          	sd	a5,-24(s0)
   20118:	0440006f          	j	2015c <read_csr_num+0x118>
   2011c:	3b5027f3          	csrr	a5,pmpaddr5
   20120:	00078493          	mv	s1,a5
   20124:	00048793          	mv	a5,s1
   20128:	fef43423          	sd	a5,-24(s0)
   2012c:	0300006f          	j	2015c <read_csr_num+0x118>
   20130:	3b6027f3          	csrr	a5,pmpaddr6
   20134:	00078493          	mv	s1,a5
   20138:	00048793          	mv	a5,s1
   2013c:	fef43423          	sd	a5,-24(s0)
   20140:	01c0006f          	j	2015c <read_csr_num+0x118>
   20144:	3b7027f3          	csrr	a5,pmpaddr7
   20148:	00078493          	mv	s1,a5
   2014c:	00048793          	mv	a5,s1
   20150:	fef43423          	sd	a5,-24(s0)
   20154:	0080006f          	j	2015c <read_csr_num+0x118>
   20158:	00000013          	nop
   2015c:	fe843783          	ld	a5,-24(s0)
   20160:	00078513          	mv	a0,a5
   20164:	02813403          	ld	s0,40(sp)
   20168:	02013483          	ld	s1,32(sp)
   2016c:	03010113          	addi	sp,sp,48
   20170:	00008067          	ret

0000000000020174 <write_csr_num>:
   20174:	f9010113          	addi	sp,sp,-112
   20178:	06813423          	sd	s0,104(sp)
   2017c:	07010413          	addi	s0,sp,112
   20180:	00050793          	mv	a5,a0
   20184:	f8b43823          	sd	a1,-112(s0)
   20188:	f8f42e23          	sw	a5,-100(s0)
   2018c:	f9c42783          	lw	a5,-100(s0)
   20190:	c607869b          	addiw	a3,a5,-928
   20194:	0006871b          	sext.w	a4,a3
   20198:	01700793          	li	a5,23
   2019c:	0ee7e463          	bltu	a5,a4,20284 <write_csr_num+0x110>
   201a0:	02069793          	slli	a5,a3,0x20
   201a4:	0207d793          	srli	a5,a5,0x20
   201a8:	00279713          	slli	a4,a5,0x2
   201ac:	00008797          	auipc	a5,0x8
   201b0:	ed878793          	addi	a5,a5,-296 # 28084 <payload_bin+0x7acc>
   201b4:	00f707b3          	add	a5,a4,a5
   201b8:	0007a783          	lw	a5,0(a5)
   201bc:	0007871b          	sext.w	a4,a5
   201c0:	00008797          	auipc	a5,0x8
   201c4:	ec478793          	addi	a5,a5,-316 # 28084 <payload_bin+0x7acc>
   201c8:	00f707b3          	add	a5,a4,a5
   201cc:	00078067          	jr	a5
   201d0:	f9043783          	ld	a5,-112(s0)
   201d4:	faf43423          	sd	a5,-88(s0)
   201d8:	fa843783          	ld	a5,-88(s0)
   201dc:	3a079073          	csrw	pmpcfg0,a5
   201e0:	0a80006f          	j	20288 <write_csr_num+0x114>
   201e4:	f9043783          	ld	a5,-112(s0)
   201e8:	faf43823          	sd	a5,-80(s0)
   201ec:	fb043783          	ld	a5,-80(s0)
   201f0:	3b079073          	csrw	pmpaddr0,a5
   201f4:	0940006f          	j	20288 <write_csr_num+0x114>
   201f8:	f9043783          	ld	a5,-112(s0)
   201fc:	faf43c23          	sd	a5,-72(s0)
   20200:	fb843783          	ld	a5,-72(s0)
   20204:	3b179073          	csrw	pmpaddr1,a5
   20208:	0800006f          	j	20288 <write_csr_num+0x114>
   2020c:	f9043783          	ld	a5,-112(s0)
   20210:	fcf43023          	sd	a5,-64(s0)
   20214:	fc043783          	ld	a5,-64(s0)
   20218:	3b279073          	csrw	pmpaddr2,a5
   2021c:	06c0006f          	j	20288 <write_csr_num+0x114>
   20220:	f9043783          	ld	a5,-112(s0)
   20224:	fcf43423          	sd	a5,-56(s0)
   20228:	fc843783          	ld	a5,-56(s0)
   2022c:	3b379073          	csrw	pmpaddr3,a5
   20230:	0580006f          	j	20288 <write_csr_num+0x114>
   20234:	f9043783          	ld	a5,-112(s0)
   20238:	fcf43823          	sd	a5,-48(s0)
   2023c:	fd043783          	ld	a5,-48(s0)
   20240:	3b479073          	csrw	pmpaddr4,a5
   20244:	0440006f          	j	20288 <write_csr_num+0x114>
   20248:	f9043783          	ld	a5,-112(s0)
   2024c:	fcf43c23          	sd	a5,-40(s0)
   20250:	fd843783          	ld	a5,-40(s0)
   20254:	3b579073          	csrw	pmpaddr5,a5
   20258:	0300006f          	j	20288 <write_csr_num+0x114>
   2025c:	f9043783          	ld	a5,-112(s0)
   20260:	fef43023          	sd	a5,-32(s0)
   20264:	fe043783          	ld	a5,-32(s0)
   20268:	3b679073          	csrw	pmpaddr6,a5
   2026c:	01c0006f          	j	20288 <write_csr_num+0x114>
   20270:	f9043783          	ld	a5,-112(s0)
   20274:	fef43423          	sd	a5,-24(s0)
   20278:	fe843783          	ld	a5,-24(s0)
   2027c:	3b779073          	csrw	pmpaddr7,a5
   20280:	0080006f          	j	20288 <write_csr_num+0x114>
   20284:	00000013          	nop
   20288:	00000013          	nop
   2028c:	06813403          	ld	s0,104(sp)
   20290:	07010113          	addi	sp,sp,112
   20294:	00008067          	ret

0000000000020298 <log2roundup>:
   20298:	fd010113          	addi	sp,sp,-48
   2029c:	02813423          	sd	s0,40(sp)
   202a0:	03010413          	addi	s0,sp,48
   202a4:	fca43c23          	sd	a0,-40(s0)
   202a8:	fe043423          	sd	zero,-24(s0)
   202ac:	02c0006f          	j	202d8 <log2roundup+0x40>
   202b0:	fe843783          	ld	a5,-24(s0)
   202b4:	0007879b          	sext.w	a5,a5
   202b8:	00078713          	mv	a4,a5
   202bc:	00100793          	li	a5,1
   202c0:	00e797b3          	sll	a5,a5,a4
   202c4:	fd843703          	ld	a4,-40(s0)
   202c8:	02e7f063          	bgeu	a5,a4,202e8 <log2roundup+0x50>
   202cc:	fe843783          	ld	a5,-24(s0)
   202d0:	00178793          	addi	a5,a5,1
   202d4:	fef43423          	sd	a5,-24(s0)
   202d8:	fe843703          	ld	a4,-24(s0)
   202dc:	03f00793          	li	a5,63
   202e0:	fce7f8e3          	bgeu	a5,a4,202b0 <log2roundup+0x18>
   202e4:	0080006f          	j	202ec <log2roundup+0x54>
   202e8:	00000013          	nop
   202ec:	fe843783          	ld	a5,-24(s0)
   202f0:	00078513          	mv	a0,a5
   202f4:	02813403          	ld	s0,40(sp)
   202f8:	03010113          	addi	sp,sp,48
   202fc:	00008067          	ret

0000000000020300 <sbi_set_pmp>:
   20300:	fa010113          	addi	sp,sp,-96
   20304:	04113c23          	sd	ra,88(sp)
   20308:	04813823          	sd	s0,80(sp)
   2030c:	06010413          	addi	s0,sp,96
   20310:	00050793          	mv	a5,a0
   20314:	fab43823          	sd	a1,-80(s0)
   20318:	fac43423          	sd	a2,-88(s0)
   2031c:	fad43023          	sd	a3,-96(s0)
   20320:	faf42e23          	sw	a5,-68(s0)
   20324:	fbc42783          	lw	a5,-68(s0)
   20328:	0007871b          	sext.w	a4,a5
   2032c:	00800793          	li	a5,8
   20330:	00e7d663          	bge	a5,a4,2033c <sbi_set_pmp+0x3c>
   20334:	fff00793          	li	a5,-1
   20338:	1940006f          	j	204cc <sbi_set_pmp+0x1cc>
   2033c:	fa843503          	ld	a0,-88(s0)
   20340:	f59ff0ef          	jal	ra,20298 <log2roundup>
   20344:	00050793          	mv	a5,a0
   20348:	fef42223          	sw	a5,-28(s0)
   2034c:	fe442783          	lw	a5,-28(s0)
   20350:	0007871b          	sext.w	a4,a5
   20354:	00100793          	li	a5,1
   20358:	00e7c663          	blt	a5,a4,20364 <sbi_set_pmp+0x64>
   2035c:	fff00793          	li	a5,-1
   20360:	16c0006f          	j	204cc <sbi_set_pmp+0x1cc>
   20364:	fb043783          	ld	a5,-80(s0)
   20368:	0027d793          	srli	a5,a5,0x2
   2036c:	fef43423          	sd	a5,-24(s0)
   20370:	fbc42783          	lw	a5,-68(s0)
   20374:	4027d79b          	sraiw	a5,a5,0x2
   20378:	0007879b          	sext.w	a5,a5
   2037c:	3a07879b          	addiw	a5,a5,928
   20380:	0007879b          	sext.w	a5,a5
   20384:	ffe7f793          	andi	a5,a5,-2
   20388:	fef42023          	sw	a5,-32(s0)
   2038c:	fbc42783          	lw	a5,-68(s0)
   20390:	0037979b          	slliw	a5,a5,0x3
   20394:	0007879b          	sext.w	a5,a5
   20398:	0387f793          	andi	a5,a5,56
   2039c:	fcf42e23          	sw	a5,-36(s0)
   203a0:	fbc42783          	lw	a5,-68(s0)
   203a4:	3b07879b          	addiw	a5,a5,944
   203a8:	fcf42c23          	sw	a5,-40(s0)
   203ac:	fa043783          	ld	a5,-96(s0)
   203b0:	fe77f793          	andi	a5,a5,-25
   203b4:	faf43023          	sd	a5,-96(s0)
   203b8:	fe442783          	lw	a5,-28(s0)
   203bc:	0007871b          	sext.w	a4,a5
   203c0:	00200793          	li	a5,2
   203c4:	00f71663          	bne	a4,a5,203d0 <sbi_set_pmp+0xd0>
   203c8:	01000793          	li	a5,16
   203cc:	0080006f          	j	203d4 <sbi_set_pmp+0xd4>
   203d0:	01800793          	li	a5,24
   203d4:	fa043703          	ld	a4,-96(s0)
   203d8:	00f767b3          	or	a5,a4,a5
   203dc:	faf43023          	sd	a5,-96(s0)
   203e0:	fdc42783          	lw	a5,-36(s0)
   203e4:	0ff00713          	li	a4,255
   203e8:	00f717b3          	sll	a5,a4,a5
   203ec:	fff7c793          	not	a5,a5
   203f0:	fcf43823          	sd	a5,-48(s0)
   203f4:	fe042783          	lw	a5,-32(s0)
   203f8:	00078513          	mv	a0,a5
   203fc:	c49ff0ef          	jal	ra,20044 <read_csr_num>
   20400:	00050713          	mv	a4,a0
   20404:	fd043783          	ld	a5,-48(s0)
   20408:	00e7f7b3          	and	a5,a5,a4
   2040c:	fcf43423          	sd	a5,-56(s0)
   20410:	fdc42783          	lw	a5,-36(s0)
   20414:	fa043703          	ld	a4,-96(s0)
   20418:	00f71733          	sll	a4,a4,a5
   2041c:	fd043783          	ld	a5,-48(s0)
   20420:	fff7c793          	not	a5,a5
   20424:	00f777b3          	and	a5,a4,a5
   20428:	fc843703          	ld	a4,-56(s0)
   2042c:	00f767b3          	or	a5,a4,a5
   20430:	fcf43423          	sd	a5,-56(s0)
   20434:	fe442783          	lw	a5,-28(s0)
   20438:	0007871b          	sext.w	a4,a5
   2043c:	00200793          	li	a5,2
   20440:	06e7d463          	bge	a5,a4,204a8 <sbi_set_pmp+0x1a8>
   20444:	fe442783          	lw	a5,-28(s0)
   20448:	0007871b          	sext.w	a4,a5
   2044c:	04000793          	li	a5,64
   20450:	00f71863          	bne	a4,a5,20460 <sbi_set_pmp+0x160>
   20454:	fff00793          	li	a5,-1
   20458:	fef43423          	sd	a5,-24(s0)
   2045c:	04c0006f          	j	204a8 <sbi_set_pmp+0x1a8>
   20460:	fe442783          	lw	a5,-28(s0)
   20464:	ffe7879b          	addiw	a5,a5,-2
   20468:	0007879b          	sext.w	a5,a5
   2046c:	00078713          	mv	a4,a5
   20470:	00100793          	li	a5,1
   20474:	00e797b3          	sll	a5,a5,a4
   20478:	fff78793          	addi	a5,a5,-1
   2047c:	fcf43023          	sd	a5,-64(s0)
   20480:	fc043783          	ld	a5,-64(s0)
   20484:	fff7c793          	not	a5,a5
   20488:	fe843703          	ld	a4,-24(s0)
   2048c:	00f777b3          	and	a5,a4,a5
   20490:	fef43423          	sd	a5,-24(s0)
   20494:	fc043783          	ld	a5,-64(s0)
   20498:	0017d793          	srli	a5,a5,0x1
   2049c:	fe843703          	ld	a4,-24(s0)
   204a0:	00f767b3          	or	a5,a4,a5
   204a4:	fef43423          	sd	a5,-24(s0)
   204a8:	fd842783          	lw	a5,-40(s0)
   204ac:	fe843583          	ld	a1,-24(s0)
   204b0:	00078513          	mv	a0,a5
   204b4:	cc1ff0ef          	jal	ra,20174 <write_csr_num>
   204b8:	fe042783          	lw	a5,-32(s0)
   204bc:	fc843583          	ld	a1,-56(s0)
   204c0:	00078513          	mv	a0,a5
   204c4:	cb1ff0ef          	jal	ra,20174 <write_csr_num>
   204c8:	00000793          	li	a5,0
   204cc:	00078513          	mv	a0,a5
   204d0:	05813083          	ld	ra,88(sp)
   204d4:	05013403          	ld	s0,80(sp)
   204d8:	06010113          	addi	sp,sp,96
   204dc:	00008067          	ret

00000000000204e0 <sbi_main>:
   204e0:	fa010113          	addi	sp,sp,-96
   204e4:	04113c23          	sd	ra,88(sp)
   204e8:	04813823          	sd	s0,80(sp)
   204ec:	04913423          	sd	s1,72(sp)
   204f0:	06010413          	addi	s0,sp,96
   204f4:	00700693          	li	a3,7
   204f8:	fff00613          	li	a2,-1
   204fc:	00000593          	li	a1,0
   20500:	00000513          	li	a0,0
   20504:	dfdff0ef          	jal	ra,20300 <sbi_set_pmp>
   20508:	300027f3          	csrr	a5,mstatus
   2050c:	00078493          	mv	s1,a5
   20510:	00048793          	mv	a5,s1
   20514:	fcf43c23          	sd	a5,-40(s0)
   20518:	fd843703          	ld	a4,-40(s0)
   2051c:	ffffe7b7          	lui	a5,0xffffe
   20520:	7ff78793          	addi	a5,a5,2047 # ffffffffffffe7ff <bss_begin+0xfffffffffffd47ff>
   20524:	00f77733          	and	a4,a4,a5
   20528:	000017b7          	lui	a5,0x1
   2052c:	80078793          	addi	a5,a5,-2048 # 800 <__bin_size-0x9800>
   20530:	00f767b3          	or	a5,a4,a5
   20534:	fcf43c23          	sd	a5,-40(s0)
   20538:	fd843783          	ld	a5,-40(s0)
   2053c:	f7f7f793          	andi	a5,a5,-129
   20540:	fcf43c23          	sd	a5,-40(s0)
   20544:	fd843783          	ld	a5,-40(s0)
   20548:	fcf43823          	sd	a5,-48(s0)
   2054c:	fd043783          	ld	a5,-48(s0)
   20550:	30079073          	csrw	mstatus,a5
   20554:	000227b7          	lui	a5,0x22
   20558:	fcf43423          	sd	a5,-56(s0)
   2055c:	fc843783          	ld	a5,-56(s0)
   20560:	34179073          	csrw	mepc,a5
   20564:	000207b7          	lui	a5,0x20
   20568:	fcf43023          	sd	a5,-64(s0)
   2056c:	fc043783          	ld	a5,-64(s0)
   20570:	30579073          	csrw	mtvec,a5
   20574:	000227b7          	lui	a5,0x22
   20578:	faf43c23          	sd	a5,-72(s0)
   2057c:	fb843783          	ld	a5,-72(s0)
   20580:	10579073          	csrw	stvec,a5
   20584:	fa043823          	sd	zero,-80(s0)
   20588:	fb043783          	ld	a5,-80(s0)
   2058c:	10479073          	csrw	sie,a5
   20590:	fa043423          	sd	zero,-88(s0)
   20594:	fa843783          	ld	a5,-88(s0)
   20598:	18079073          	csrw	satp,a5
   2059c:	30200073          	mret
   205a0:	00000013          	nop
   205a4:	05813083          	ld	ra,88(sp)
   205a8:	05013403          	ld	s0,80(sp)
   205ac:	04813483          	ld	s1,72(sp)
   205b0:	06010113          	addi	sp,sp,96
   205b4:	00008067          	ret

Disassembly of section .payload:

00000000000205b8 <payload_bin>:
   205b8:	00005297          	auipc	t0,0x5
   205bc:	00028293          	mv	t0,t0
   205c0:	00000317          	auipc	t1,0x0
   205c4:	06030313          	addi	t1,t1,96 # 20620 <payload_bin+0x68>
   205c8:	00003397          	auipc	t2,0x3
   205cc:	ac838393          	addi	t2,t2,-1336 # 23090 <payload_bin+0x2ad8>
   205d0:	0002b783          	ld	a5,0(t0) # 255b8 <payload_bin+0x5000>
   205d4:	00f33023          	sd	a5,0(t1)
   205d8:	00830313          	addi	t1,t1,8
   205dc:	00828293          	addi	t0,t0,8
   205e0:	fe7368e3          	bltu	t1,t2,205d0 <payload_bin+0x18>
   205e4:	10401073          	csrw	sie,zero
   205e8:	1a9020ef          	jal	ra,22f90 <payload_bin+0x29d8>
   205ec:	00000097          	auipc	ra,0x0
   205f0:	01c080e7          	jalr	28(ra) # 20608 <payload_bin+0x50>
   205f4:	00003117          	auipc	sp,0x3
   205f8:	fc410113          	addi	sp,sp,-60 # 235b8 <payload_bin+0x3000>
   205fc:	000012b7          	lui	t0,0x1
   20600:	00510133          	add	sp,sp,t0
   20604:	3c80006f          	j	209cc <payload_bin+0x414>
   20608:	00008493          	mv	s1,ra
   2060c:	00003517          	auipc	a0,0x3
   20610:	d6450513          	addi	a0,a0,-668 # 23370 <payload_bin+0x2db8>
   20614:	23d020ef          	jal	ra,23050 <payload_bin+0x2a98>
   20618:	00048093          	mv	ra,s1
   2061c:	00008067          	ret
	...
   23090:	303c                	fld	fa5,96(s0)
   23092:	2578                	fld	fa4,200(a0)
   23094:	786c                	ld	a1,240(s0)
   23096:	203e                	fld	ft0,456(sp)
   23098:	7325                	lui	t1,0xfffe9
   2309a:	000a                	c.slli	zero,0x2
   2309c:	0000                	unimp
   2309e:	0000                	unimp
   230a0:	616c                	ld	a1,192(a0)
   230a2:	3362                	fld	ft6,56(sp)
   230a4:	352d                	addiw	a0,a0,-21
   230a6:	203a                	fld	ft0,392(sp)
   230a8:	706d6f63          	bltu	s10,t1,237c6 <payload_bin+0x320e>
   230ac:	7261                	lui	tp,0xffff8
   230ae:	5f65                	li	t5,-7
   230b0:	6e61                	lui	t3,0x18
   230b2:	5f64                	lw	s1,124(a4)
   230b4:	6572                	ld	a0,280(sp)
   230b6:	7574                	ld	a3,232(a0)
   230b8:	6e72                	ld	t3,280(sp)
   230ba:	6f20                	ld	s0,88(a4)
   230bc:	00000a6b          	0xa6b
   230c0:	616c                	ld	a1,192(a0)
   230c2:	3362                	fld	ft6,56(sp)
   230c4:	372d                	addiw	a4,a4,-21
   230c6:	203a                	fld	ft0,392(sp)
   230c8:	7262                	ld	tp,56(sp)
   230ca:	6e61                	lui	t3,0x18
   230cc:	74206863          	bltu	zero,sp,2381c <payload_bin+0x3264>
   230d0:	7365                	lui	t1,0xffff9
   230d2:	2074                	fld	fa3,192(s0)
   230d4:	000a6b6f          	jal	s6,c90d4 <bss_begin+0x9f0d4>
   230d8:	616c                	ld	a1,192(a0)
   230da:	3562                	fld	fa0,56(sp)
   230dc:	352d                	addiw	a0,a0,-21
   230de:	203a                	fld	ft0,392(sp)
   230e0:	616d                	addi	sp,sp,240
   230e2:	5f6f7263          	bgeu	t5,s6,236c6 <payload_bin+0x310e>
   230e6:	6574                	ld	a3,200(a0)
   230e8:	315f7473          	csrrci	s0,0x315,30
   230ec:	6f20                	ld	s0,88(a4)
   230ee:	00000a6b          	0xa6b
   230f2:	0000                	unimp
   230f4:	0000                	unimp
   230f6:	0000                	unimp
   230f8:	616c                	ld	a1,192(a0)
   230fa:	3562                	fld	fa0,56(sp)
   230fc:	352d                	addiw	a0,a0,-21
   230fe:	203a                	fld	ft0,392(sp)
   23100:	616d                	addi	sp,sp,240
   23102:	5f6f7263          	bgeu	t5,s6,236e6 <payload_bin+0x312e>
   23106:	6574                	ld	a3,200(a0)
   23108:	325f7473          	csrrci	s0,mhpmevent5,30
   2310c:	6f20                	ld	s0,88(a4)
   2310e:	00000a6b          	0xa6b
   23112:	0000                	unimp
   23114:	0000                	unimp
   23116:	0000                	unimp
   23118:	6542                	ld	a0,16(sp)
   2311a:	4f6e                	lw	t5,216(sp)
   2311c:	6d692053          	0x6d692053
   23120:	6761                	lui	a4,0x18
   23122:	2065                	0x2065
   23124:	616c                	ld	a1,192(a0)
   23126:	6f79                	lui	t5,0x1e
   23128:	7475                	lui	s0,0xffffd
   2312a:	0a3a                	slli	s4,s4,0xe
   2312c:	0000                	unimp
   2312e:	0000                	unimp
   23130:	2020                	fld	fs0,64(s0)
   23132:	742e                	ld	s0,232(sp)
   23134:	7865                	lui	a6,0xffff9
   23136:	2e74                	fld	fa3,216(a2)
   23138:	6f62                	ld	t5,24(sp)
   2313a:	203a746f          	jal	s0,cab3c <bss_begin+0xa0b3c>
   2313e:	7830                	ld	a2,112(s0)
   23140:	3025                	0x3025
   23142:	6c38                	ld	a4,88(s0)
   23144:	2078                	fld	fa4,192(s0)
   23146:	202d                	0x202d
   23148:	7830                	ld	a2,112(s0)
   2314a:	3025                	0x3025
   2314c:	6c38                	ld	a4,88(s0)
   2314e:	2078                	fld	fa4,192(s0)
   23150:	2528                	fld	fa0,72(a0)
   23152:	6c36                	ld	s8,328(sp)
   23154:	2064                	fld	fs1,192(s0)
   23156:	2942                	fld	fs2,16(sp)
   23158:	000a                	c.slli	zero,0x2
   2315a:	0000                	unimp
   2315c:	0000                	unimp
   2315e:	0000                	unimp
   23160:	2020                	fld	fs0,64(s0)
   23162:	2020                	fld	fs0,64(s0)
   23164:	2020                	fld	fs0,64(s0)
   23166:	2e20                	fld	fs0,88(a2)
   23168:	6574                	ld	a3,200(a0)
   2316a:	7478                	ld	a4,232(s0)
   2316c:	203a                	fld	ft0,392(sp)
   2316e:	7830                	ld	a2,112(s0)
   23170:	3025                	0x3025
   23172:	6c38                	ld	a4,88(s0)
   23174:	2078                	fld	fa4,192(s0)
   23176:	202d                	0x202d
   23178:	7830                	ld	a2,112(s0)
   2317a:	3025                	0x3025
   2317c:	6c38                	ld	a4,88(s0)
   2317e:	2078                	fld	fa4,192(s0)
   23180:	2528                	fld	fa0,72(a0)
   23182:	6c36                	ld	s8,328(sp)
   23184:	2064                	fld	fs1,192(s0)
   23186:	2942                	fld	fs2,16(sp)
   23188:	000a                	c.slli	zero,0x2
   2318a:	0000                	unimp
   2318c:	0000                	unimp
   2318e:	0000                	unimp
   23190:	2020                	fld	fs0,64(s0)
   23192:	2020                	fld	fs0,64(s0)
   23194:	2e20                	fld	fs0,88(a2)
   23196:	6f72                	ld	t5,280(sp)
   23198:	6164                	ld	s1,192(a0)
   2319a:	6174                	ld	a3,192(a0)
   2319c:	203a                	fld	ft0,392(sp)
   2319e:	7830                	ld	a2,112(s0)
   231a0:	3025                	0x3025
   231a2:	6c38                	ld	a4,88(s0)
   231a4:	2078                	fld	fa4,192(s0)
   231a6:	202d                	0x202d
   231a8:	7830                	ld	a2,112(s0)
   231aa:	3025                	0x3025
   231ac:	6c38                	ld	a4,88(s0)
   231ae:	2078                	fld	fa4,192(s0)
   231b0:	2528                	fld	fa0,72(a0)
   231b2:	6c36                	ld	s8,328(sp)
   231b4:	2064                	fld	fs1,192(s0)
   231b6:	2942                	fld	fs2,16(sp)
   231b8:	000a                	c.slli	zero,0x2
   231ba:	0000                	unimp
   231bc:	0000                	unimp
   231be:	0000                	unimp
   231c0:	2020                	fld	fs0,64(s0)
   231c2:	2020                	fld	fs0,64(s0)
   231c4:	2020                	fld	fs0,64(s0)
   231c6:	2e20                	fld	fs0,88(a2)
   231c8:	6164                	ld	s1,192(a0)
   231ca:	6174                	ld	a3,192(a0)
   231cc:	203a                	fld	ft0,392(sp)
   231ce:	7830                	ld	a2,112(s0)
   231d0:	3025                	0x3025
   231d2:	6c38                	ld	a4,88(s0)
   231d4:	2078                	fld	fa4,192(s0)
   231d6:	202d                	0x202d
   231d8:	7830                	ld	a2,112(s0)
   231da:	3025                	0x3025
   231dc:	6c38                	ld	a4,88(s0)
   231de:	2078                	fld	fa4,192(s0)
   231e0:	2528                	fld	fa0,72(a0)
   231e2:	6c36                	ld	s8,328(sp)
   231e4:	2064                	fld	fs1,192(s0)
   231e6:	2942                	fld	fs2,16(sp)
   231e8:	000a                	c.slli	zero,0x2
   231ea:	0000                	unimp
   231ec:	0000                	unimp
   231ee:	0000                	unimp
   231f0:	2020                	fld	fs0,64(s0)
   231f2:	2020                	fld	fs0,64(s0)
   231f4:	2020                	fld	fs0,64(s0)
   231f6:	2020                	fld	fs0,64(s0)
   231f8:	622e                	ld	tp,200(sp)
   231fa:	203a7373          	csrrci	t1,0x203,20
   231fe:	7830                	ld	a2,112(s0)
   23200:	3025                	0x3025
   23202:	6c38                	ld	a4,88(s0)
   23204:	2078                	fld	fa4,192(s0)
   23206:	202d                	0x202d
   23208:	7830                	ld	a2,112(s0)
   2320a:	3025                	0x3025
   2320c:	6c38                	ld	a4,88(s0)
   2320e:	2078                	fld	fa4,192(s0)
   23210:	2528                	fld	fa0,72(a0)
   23212:	6c36                	ld	s8,328(sp)
   23214:	2064                	fld	fs1,192(s0)
   23216:	2942                	fld	fs2,16(sp)
   23218:	000a                	c.slli	zero,0x2
   2321a:	0000                	unimp
   2321c:	0000                	unimp
   2321e:	0000                	unimp
   23220:	636c6557          	0x636c6557
   23224:	20656d6f          	jal	s10,7942a <bss_begin+0x4f42a>
   23228:	4952                	lw	s2,20(sp)
   2322a:	562d4353          	0x562d4353
   2322e:	0d21                	addi	s10,s10,8
   23230:	000a                	c.slli	zero,0x2
   23232:	0000                	unimp
   23234:	0000                	unimp
   23236:	0000                	unimp
   23238:	7270                	ld	a2,224(a2)
   2323a:	6e69                	lui	t3,0x1a
   2323c:	6b74                	ld	a3,208(a4)
   2323e:	6920                	ld	s0,80(a0)
   23240:	696e                	ld	s2,216(sp)
   23242:	2074                	fld	fa3,192(s0)
   23244:	6f64                	ld	s1,216(a4)
   23246:	656e                	ld	a0,216(sp)
   23248:	000a                	c.slli	zero,0x2
   2324a:	0000                	unimp
   2324c:	0000                	unimp
   2324e:	0000                	unimp
   23250:	3130                	fld	fa2,96(a0)
   23252:	3332                	fld	ft6,296(sp)
   23254:	3534                	fld	fa3,104(a0)
   23256:	3736                	fld	fa4,360(sp)
   23258:	3938                	fld	fa4,112(a0)
   2325a:	4241                	li	tp,16
   2325c:	46454443          	fmadd.q	fs0,fa0,ft4,fs0,rmm
   23260:	4a494847          	fmsub.d	fa6,fs2,ft4,fs1,rmm
   23264:	4e4d4c4b          	fnmsub.q	fs8,fs10,ft4,fs1,rmm
   23268:	5251504f          	fnmadd.d	ft0,ft2,ft5,fa0,unknown
   2326c:	56555453          	0x56555453
   23270:	5a595857          	0x5a595857
   23274:	0000                	unimp
   23276:	0000                	unimp
   23278:	3130                	fld	fa2,96(a0)
   2327a:	3332                	fld	ft6,296(sp)
   2327c:	3534                	fld	fa3,104(a0)
   2327e:	3736                	fld	fa4,360(sp)
   23280:	3938                	fld	fa4,112(a0)
   23282:	6261                	lui	tp,0x18
   23284:	66656463          	bltu	a0,t1,238ec <payload_bin+0x3334>
   23288:	6a696867          	0x6a696867
   2328c:	6e6d6c6b          	0x6e6d6c6b
   23290:	7271706f          	j	3b1b6 <bss_begin+0x111b6>
   23294:	76757473          	csrrci	s0,0x767,10
   23298:	7a797877          	0x7a797877
   2329c:	0000                	unimp
   2329e:	0000                	unimp
   232a0:	4e3c                	lw	a5,88(a2)
   232a2:	4c55                	li	s8,21
   232a4:	3e4c                	fld	fa1,184(a2)
   232a6:	0000                	unimp
   232a8:	df44                	sw	s1,60(a4)
   232aa:	df74ffff          	0xdf74ffff
   232ae:	df74ffff          	0xdf74ffff
   232b2:	df54ffff          	0xdf54ffff
   232b6:	df74ffff          	0xdf74ffff
   232ba:	df74ffff          	0xdf74ffff
   232be:	df74ffff          	0xdf74ffff
   232c2:	df74ffff          	0xdf74ffff
   232c6:	df74ffff          	0xdf74ffff
   232ca:	df74ffff          	0xdf74ffff
   232ce:	df74ffff          	0xdf74ffff
   232d2:	df34ffff          	0xdf34ffff
   232d6:	df74ffff          	0xdf74ffff
   232da:	df24ffff          	0xdf24ffff
   232de:	df74ffff          	0xdf74ffff
   232e2:	df74ffff          	0xdf74ffff
   232e6:	df64ffff          	0xdf64ffff
   232ea:	e3a0ffff          	0xe3a0ffff
   232ee:	e3c4ffff          	0xe3c4ffff
   232f2:	e3c4ffff          	0xe3c4ffff
   232f6:	e3c4ffff          	0xe3c4ffff
   232fa:	e3c4ffff          	0xe3c4ffff
   232fe:	e3c4ffff          	0xe3c4ffff
   23302:	e3c4ffff          	0xe3c4ffff
   23306:	e3c4ffff          	0xe3c4ffff
   2330a:	e3c4ffff          	0xe3c4ffff
   2330e:	e3c4ffff          	0xe3c4ffff
   23312:	e3c4ffff          	0xe3c4ffff
   23316:	e140ffff          	0xe140ffff
   2331a:	e3acffff          	0xe3acffff
   2331e:	e3c4ffff          	0xe3c4ffff
   23322:	e3c4ffff          	0xe3c4ffff
   23326:	e3c4ffff          	0xe3c4ffff
   2332a:	e3c4ffff          	0xe3c4ffff
   2332e:	e3acffff          	0xe3acffff
   23332:	e3c4ffff          	0xe3c4ffff
   23336:	e3c4ffff          	0xe3c4ffff
   2333a:	e3c4ffff          	0xe3c4ffff
   2333e:	e3c4ffff          	0xe3c4ffff
   23342:	e300ffff          	0xe300ffff
   23346:	e388ffff          	0xe388ffff
   2334a:	e330ffff          	0xe330ffff
   2334e:	e3c4ffff          	0xe3c4ffff
   23352:	e3c4ffff          	0xe3c4ffff
   23356:	e1d8ffff          	0xe1d8ffff
   2335a:	e3c4ffff          	0xe3c4ffff
   2335e:	e3b8ffff          	0xe3b8ffff
   23362:	e3c4ffff          	0xe3c4ffff
   23366:	e3c4ffff          	0xe3c4ffff
   2336a:	e394ffff          	0xe394ffff
   2336e:	6f42ffff          	0x6f42ffff
   23372:	6e69746f          	jal	s0,baa58 <bss_begin+0x90a58>
   23376:	74612067          	0x74612067
   2337a:	6120                	ld	s0,64(a0)
   2337c:	000a6d73          	csrrsi	s10,ustatus,20
	...
   245b8:	6108                	ld	a0,0(a0)
   245ba:	0002                	c.slli64	zero
	...
   255b8:	fc010113          	addi	sp,sp,-64
   255bc:	02113c23          	sd	ra,56(sp)
   255c0:	02813823          	sd	s0,48(sp)
   255c4:	04010413          	addi	s0,sp,64
   255c8:	fca43423          	sd	a0,-56(s0) # ffffffffffffcfc8 <bss_begin+0xfffffffffffd2fc8>
   255cc:	fe042623          	sw	zero,-20(s0)
   255d0:	0300006f          	j	25600 <payload_bin+0x5048>
   255d4:	00003717          	auipc	a4,0x3
   255d8:	8b470713          	addi	a4,a4,-1868 # 27e88 <payload_bin+0x78d0>
   255dc:	fec42783          	lw	a5,-20(s0)
   255e0:	00379793          	slli	a5,a5,0x3
   255e4:	00f707b3          	add	a5,a4,a5
   255e8:	0007b783          	ld	a5,0(a5) # 22000 <payload_bin+0x1a48>
   255ec:	fc843703          	ld	a4,-56(s0)
   255f0:	02f70663          	beq	a4,a5,2561c <payload_bin+0x5064>
   255f4:	fec42783          	lw	a5,-20(s0)
   255f8:	0017879b          	addiw	a5,a5,1
   255fc:	fef42623          	sw	a5,-20(s0)
   25600:	fec42703          	lw	a4,-20(s0)
   25604:	00003797          	auipc	a5,0x3
   25608:	8b478793          	addi	a5,a5,-1868 # 27eb8 <payload_bin+0x7900>
   2560c:	0007b783          	ld	a5,0(a5)
   25610:	fcf762e3          	bltu	a4,a5,255d4 <payload_bin+0x501c>
   25614:	00000793          	li	a5,0
   25618:	0880006f          	j	256a0 <payload_bin+0x50e8>
   2561c:	00000013          	nop
   25620:	00003797          	auipc	a5,0x3
   25624:	88078793          	addi	a5,a5,-1920 # 27ea0 <payload_bin+0x78e8>
   25628:	fef43023          	sd	a5,-32(s0)
   2562c:	fec42783          	lw	a5,-20(s0)
   25630:	0007879b          	sext.w	a5,a5
   25634:	00079863          	bnez	a5,25644 <payload_bin+0x508c>
   25638:	fe043783          	ld	a5,-32(s0)
   2563c:	fcf43c23          	sd	a5,-40(s0)
   25640:	0480006f          	j	25688 <payload_bin+0x50d0>
   25644:	fe043783          	ld	a5,-32(s0)
   25648:	00178793          	addi	a5,a5,1
   2564c:	fef43023          	sd	a5,-32(s0)
   25650:	fe043783          	ld	a5,-32(s0)
   25654:	0007c783          	lbu	a5,0(a5)
   25658:	00079863          	bnez	a5,25668 <payload_bin+0x50b0>
   2565c:	fec42783          	lw	a5,-20(s0)
   25660:	fff7879b          	addiw	a5,a5,-1
   25664:	fef42623          	sw	a5,-20(s0)
   25668:	fec42783          	lw	a5,-20(s0)
   2566c:	0007879b          	sext.w	a5,a5
   25670:	fc079ae3          	bnez	a5,25644 <payload_bin+0x508c>
   25674:	fe043783          	ld	a5,-32(s0)
   25678:	00178793          	addi	a5,a5,1
   2567c:	fef43023          	sd	a5,-32(s0)
   25680:	fe043783          	ld	a5,-32(s0)
   25684:	fcf43c23          	sd	a5,-40(s0)
   25688:	fd843603          	ld	a2,-40(s0)
   2568c:	fc843583          	ld	a1,-56(s0)
   25690:	00003517          	auipc	a0,0x3
   25694:	99850513          	addi	a0,a0,-1640 # 28028 <payload_bin+0x7a70>
   25698:	254010ef          	jal	ra,268ec <payload_bin+0x6334>
   2569c:	00000793          	li	a5,0
   256a0:	00078513          	mv	a0,a5
   256a4:	03813083          	ld	ra,56(sp)
   256a8:	03013403          	ld	s0,48(sp)
   256ac:	04010113          	addi	sp,sp,64
   256b0:	00008067          	ret
   256b4:	fe010113          	addi	sp,sp,-32
   256b8:	00113c23          	sd	ra,24(sp)
   256bc:	00813823          	sd	s0,16(sp)
   256c0:	02010413          	addi	s0,sp,32
   256c4:	664020ef          	jal	ra,27d28 <payload_bin+0x7770>
   256c8:	694020ef          	jal	ra,27d5c <payload_bin+0x77a4>
   256cc:	6d8020ef          	jal	ra,27da4 <payload_bin+0x77ec>
   256d0:	724020ef          	jal	ra,27df4 <payload_bin+0x783c>
   256d4:	744020ef          	jal	ra,27e18 <payload_bin+0x7860>
   256d8:	02800613          	li	a2,40
   256dc:	05500593          	li	a1,85
   256e0:	00021537          	lui	a0,0x21
   256e4:	4d4000ef          	jal	ra,25bb8 <payload_bin+0x5600>
   256e8:	00900593          	li	a1,9
   256ec:	00a00513          	li	a0,10
   256f0:	74c020ef          	jal	ra,27e3c <payload_bin+0x7884>
   256f4:	fea43423          	sd	a0,-24(s0)
   256f8:	fe843783          	ld	a5,-24(s0)
   256fc:	00079863          	bnez	a5,2570c <payload_bin+0x5154>
   25700:	00003517          	auipc	a0,0x3
   25704:	93850513          	addi	a0,a0,-1736 # 28038 <payload_bin+0x7a80>
   25708:	7bd010ef          	jal	ra,276c4 <payload_bin+0x710c>
   2570c:	00a00593          	li	a1,10
   25710:	00900513          	li	a0,9
   25714:	728020ef          	jal	ra,27e3c <payload_bin+0x7884>
   25718:	fea43023          	sd	a0,-32(s0)
   2571c:	fe043703          	ld	a4,-32(s0)
   25720:	fff00793          	li	a5,-1
   25724:	00f71863          	bne	a4,a5,25734 <payload_bin+0x517c>
   25728:	00003517          	auipc	a0,0x3
   2572c:	91050513          	addi	a0,a0,-1776 # 28038 <payload_bin+0x7a80>
   25730:	795010ef          	jal	ra,276c4 <payload_bin+0x710c>
   25734:	00900593          	li	a1,9
   25738:	00000513          	li	a0,0
   2573c:	718020ef          	jal	ra,27e54 <payload_bin+0x789c>
   25740:	fea43423          	sd	a0,-24(s0)
   25744:	00200593          	li	a1,2
   25748:	00500513          	li	a0,5
   2574c:	708020ef          	jal	ra,27e54 <payload_bin+0x789c>
   25750:	fea43023          	sd	a0,-32(s0)
   25754:	718020ef          	jal	ra,27e6c <payload_bin+0x78b4>
   25758:	00003517          	auipc	a0,0x3
   2575c:	90050513          	addi	a0,a0,-1792 # 28058 <payload_bin+0x7aa0>
   25760:	765010ef          	jal	ra,276c4 <payload_bin+0x710c>
   25764:	00500593          	li	a1,5
   25768:	00500513          	li	a0,5
   2576c:	764020ef          	jal	ra,27ed0 <payload_bin+0x7918>
   25770:	fea43423          	sd	a0,-24(s0)
   25774:	fe843703          	ld	a4,-24(s0)
   25778:	00a00793          	li	a5,10
   2577c:	00f71863          	bne	a4,a5,2578c <payload_bin+0x51d4>
   25780:	00003517          	auipc	a0,0x3
   25784:	8f050513          	addi	a0,a0,-1808 # 28070 <payload_bin+0x7ab8>
   25788:	73d010ef          	jal	ra,276c4 <payload_bin+0x710c>
   2578c:	00500593          	li	a1,5
   25790:	00500513          	li	a0,5
   25794:	764020ef          	jal	ra,27ef8 <payload_bin+0x7940>
   25798:	fea43023          	sd	a0,-32(s0)
   2579c:	fe043783          	ld	a5,-32(s0)
   257a0:	00079863          	bnez	a5,257b0 <payload_bin+0x51f8>
   257a4:	00003517          	auipc	a0,0x3
   257a8:	8ec50513          	addi	a0,a0,-1812 # 28090 <payload_bin+0x7ad8>
   257ac:	719010ef          	jal	ra,276c4 <payload_bin+0x710c>
   257b0:	00000013          	nop
   257b4:	01813083          	ld	ra,24(sp)
   257b8:	01013403          	ld	s0,16(sp)
   257bc:	02010113          	addi	sp,sp,32
   257c0:	00008067          	ret
   257c4:	ff010113          	addi	sp,sp,-16
   257c8:	00113423          	sd	ra,8(sp)
   257cc:	00813023          	sd	s0,0(sp)
   257d0:	01010413          	addi	s0,sp,16
   257d4:	00003517          	auipc	a0,0x3
   257d8:	8dc50513          	addi	a0,a0,-1828 # 280b0 <payload_bin+0x7af8>
   257dc:	110010ef          	jal	ra,268ec <payload_bin+0x6334>
   257e0:	00000597          	auipc	a1,0x0
   257e4:	d7058593          	addi	a1,a1,-656 # 25550 <payload_bin+0x4f98>
   257e8:	00000617          	auipc	a2,0x0
   257ec:	dd060613          	addi	a2,a2,-560 # 255b8 <payload_bin+0x5000>
   257f0:	00000717          	auipc	a4,0x0
   257f4:	dc870713          	addi	a4,a4,-568 # 255b8 <payload_bin+0x5000>
   257f8:	00000797          	auipc	a5,0x0
   257fc:	d5878793          	addi	a5,a5,-680 # 25550 <payload_bin+0x4f98>
   25800:	40f707b3          	sub	a5,a4,a5
   25804:	00078693          	mv	a3,a5
   25808:	00003517          	auipc	a0,0x3
   2580c:	8c050513          	addi	a0,a0,-1856 # 280c8 <payload_bin+0x7b10>
   25810:	0dc010ef          	jal	ra,268ec <payload_bin+0x6334>
   25814:	00000597          	auipc	a1,0x0
   25818:	da458593          	addi	a1,a1,-604 # 255b8 <payload_bin+0x5000>
   2581c:	00003617          	auipc	a2,0x3
   25820:	80c60613          	addi	a2,a2,-2036 # 28028 <payload_bin+0x7a70>
   25824:	00003717          	auipc	a4,0x3
   25828:	80470713          	addi	a4,a4,-2044 # 28028 <payload_bin+0x7a70>
   2582c:	00000797          	auipc	a5,0x0
   25830:	d8c78793          	addi	a5,a5,-628 # 255b8 <payload_bin+0x5000>
   25834:	40f707b3          	sub	a5,a4,a5
   25838:	00078693          	mv	a3,a5
   2583c:	00003517          	auipc	a0,0x3
   25840:	8bc50513          	addi	a0,a0,-1860 # 280f8 <payload_bin+0x7b40>
   25844:	0a8010ef          	jal	ra,268ec <payload_bin+0x6334>
   25848:	00002597          	auipc	a1,0x2
   2584c:	7e058593          	addi	a1,a1,2016 # 28028 <payload_bin+0x7a70>
   25850:	00003617          	auipc	a2,0x3
   25854:	ac860613          	addi	a2,a2,-1336 # 28318 <payload_bin+0x7d60>
   25858:	00003717          	auipc	a4,0x3
   2585c:	ac070713          	addi	a4,a4,-1344 # 28318 <payload_bin+0x7d60>
   25860:	00002797          	auipc	a5,0x2
   25864:	7c878793          	addi	a5,a5,1992 # 28028 <payload_bin+0x7a70>
   25868:	40f707b3          	sub	a5,a4,a5
   2586c:	00078693          	mv	a3,a5
   25870:	00003517          	auipc	a0,0x3
   25874:	8b850513          	addi	a0,a0,-1864 # 28128 <payload_bin+0x7b70>
   25878:	074010ef          	jal	ra,268ec <payload_bin+0x6334>
   2587c:	00003597          	auipc	a1,0x3
   25880:	a9c58593          	addi	a1,a1,-1380 # 28318 <payload_bin+0x7d60>
   25884:	00004617          	auipc	a2,0x4
   25888:	ccc60613          	addi	a2,a2,-820 # 29550 <stacks_start+0x550>
   2588c:	00004717          	auipc	a4,0x4
   25890:	cc470713          	addi	a4,a4,-828 # 29550 <stacks_start+0x550>
   25894:	00003797          	auipc	a5,0x3
   25898:	a8478793          	addi	a5,a5,-1404 # 28318 <payload_bin+0x7d60>
   2589c:	40f707b3          	sub	a5,a4,a5
   258a0:	00078693          	mv	a3,a5
   258a4:	00003517          	auipc	a0,0x3
   258a8:	8b450513          	addi	a0,a0,-1868 # 28158 <payload_bin+0x7ba0>
   258ac:	040010ef          	jal	ra,268ec <payload_bin+0x6334>
   258b0:	00004597          	auipc	a1,0x4
   258b4:	ca858593          	addi	a1,a1,-856 # 29558 <stacks_start+0x558>
   258b8:	00004617          	auipc	a2,0x4
   258bc:	eb060613          	addi	a2,a2,-336 # 29768 <stacks_start+0x768>
   258c0:	00004717          	auipc	a4,0x4
   258c4:	ea870713          	addi	a4,a4,-344 # 29768 <stacks_start+0x768>
   258c8:	00004797          	auipc	a5,0x4
   258cc:	c9078793          	addi	a5,a5,-880 # 29558 <stacks_start+0x558>
   258d0:	40f707b3          	sub	a5,a4,a5
   258d4:	00078693          	mv	a3,a5
   258d8:	00003517          	auipc	a0,0x3
   258dc:	8b050513          	addi	a0,a0,-1872 # 28188 <payload_bin+0x7bd0>
   258e0:	00c010ef          	jal	ra,268ec <payload_bin+0x6334>
   258e4:	00000013          	nop
   258e8:	00813083          	ld	ra,8(sp)
   258ec:	00013403          	ld	s0,0(sp)
   258f0:	01010113          	addi	sp,sp,16
   258f4:	00008067          	ret
   258f8:	fd010113          	addi	sp,sp,-48
   258fc:	02113423          	sd	ra,40(sp)
   25900:	02813023          	sd	s0,32(sp)
   25904:	03010413          	addi	s0,sp,48
   25908:	00004797          	auipc	a5,0x4
   2590c:	c5078793          	addi	a5,a5,-944 # 29558 <stacks_start+0x558>
   25910:	fef43423          	sd	a5,-24(s0)
   25914:	00004797          	auipc	a5,0x4
   25918:	e5478793          	addi	a5,a5,-428 # 29768 <stacks_start+0x768>
   2591c:	fef43023          	sd	a5,-32(s0)
   25920:	fe043783          	ld	a5,-32(s0)
   25924:	0007871b          	sext.w	a4,a5
   25928:	fe843783          	ld	a5,-24(s0)
   2592c:	0007879b          	sext.w	a5,a5
   25930:	40f707bb          	subw	a5,a4,a5
   25934:	fcf42e23          	sw	a5,-36(s0)
   25938:	fe843783          	ld	a5,-24(s0)
   2593c:	fdc46703          	lwu	a4,-36(s0)
   25940:	00070613          	mv	a2,a4
   25944:	00000593          	li	a1,0
   25948:	00078513          	mv	a0,a5
   2594c:	26c000ef          	jal	ra,25bb8 <payload_bin+0x5600>
   25950:	00000013          	nop
   25954:	02813083          	ld	ra,40(sp)
   25958:	02013403          	ld	s0,32(sp)
   2595c:	03010113          	addi	sp,sp,48
   25960:	00008067          	ret
   25964:	ff010113          	addi	sp,sp,-16
   25968:	00113423          	sd	ra,8(sp)
   2596c:	00813023          	sd	s0,0(sp)
   25970:	01010413          	addi	s0,sp,16
   25974:	f85ff0ef          	jal	ra,258f8 <payload_bin+0x5340>
   25978:	1f1010ef          	jal	ra,27368 <payload_bin+0x6db0>
   2597c:	00003517          	auipc	a0,0x3
   25980:	83c50513          	addi	a0,a0,-1988 # 281b8 <payload_bin+0x7c00>
   25984:	541010ef          	jal	ra,276c4 <payload_bin+0x710c>
   25988:	6c9000ef          	jal	ra,26850 <payload_bin+0x6298>
   2598c:	00003517          	auipc	a0,0x3
   25990:	84450513          	addi	a0,a0,-1980 # 281d0 <payload_bin+0x7c18>
   25994:	759000ef          	jal	ra,268ec <payload_bin+0x6334>
   25998:	d1dff0ef          	jal	ra,256b4 <payload_bin+0x50fc>
   2599c:	008017b7          	lui	a5,0x801
   259a0:	88078513          	addi	a0,a5,-1920 # 800880 <bss_begin+0x7d6880>
   259a4:	c15ff0ef          	jal	ra,255b8 <payload_bin+0x5000>
   259a8:	008017b7          	lui	a5,0x801
   259ac:	86078513          	addi	a0,a5,-1952 # 800860 <bss_begin+0x7d6860>
   259b0:	c09ff0ef          	jal	ra,255b8 <payload_bin+0x5000>
   259b4:	008017b7          	lui	a5,0x801
   259b8:	80078513          	addi	a0,a5,-2048 # 800800 <bss_begin+0x7d6800>
   259bc:	bfdff0ef          	jal	ra,255b8 <payload_bin+0x5000>
   259c0:	e05ff0ef          	jal	ra,257c4 <payload_bin+0x520c>
   259c4:	0000006f          	j	259c4 <payload_bin+0x540c>
   259c8:	fc010113          	addi	sp,sp,-64
   259cc:	02813c23          	sd	s0,56(sp)
   259d0:	04010413          	addi	s0,sp,64
   259d4:	fca43c23          	sd	a0,-40(s0)
   259d8:	00058793          	mv	a5,a1
   259dc:	fcc43423          	sd	a2,-56(s0)
   259e0:	fcf42a23          	sw	a5,-44(s0)
   259e4:	fd843783          	ld	a5,-40(s0)
   259e8:	fef43423          	sd	a5,-24(s0)
   259ec:	01c0006f          	j	25a08 <payload_bin+0x5450>
   259f0:	fe843783          	ld	a5,-24(s0)
   259f4:	00178713          	addi	a4,a5,1
   259f8:	fee43423          	sd	a4,-24(s0)
   259fc:	fd442703          	lw	a4,-44(s0)
   25a00:	0ff77713          	andi	a4,a4,255
   25a04:	00e78023          	sb	a4,0(a5)
   25a08:	fc843783          	ld	a5,-56(s0)
   25a0c:	fff78713          	addi	a4,a5,-1
   25a10:	fce43423          	sd	a4,-56(s0)
   25a14:	fc079ee3          	bnez	a5,259f0 <payload_bin+0x5438>
   25a18:	fd843783          	ld	a5,-40(s0)
   25a1c:	00078513          	mv	a0,a5
   25a20:	03813403          	ld	s0,56(sp)
   25a24:	04010113          	addi	sp,sp,64
   25a28:	00008067          	ret
   25a2c:	f9010113          	addi	sp,sp,-112
   25a30:	06113423          	sd	ra,104(sp)
   25a34:	06813023          	sd	s0,96(sp)
   25a38:	07010413          	addi	s0,sp,112
   25a3c:	faa43423          	sd	a0,-88(s0)
   25a40:	00058793          	mv	a5,a1
   25a44:	f8c43c23          	sd	a2,-104(s0)
   25a48:	faf42223          	sw	a5,-92(s0)
   25a4c:	fa843783          	ld	a5,-88(s0)
   25a50:	fef43423          	sd	a5,-24(s0)
   25a54:	01000793          	li	a5,16
   25a58:	fcf43423          	sd	a5,-56(s0)
   25a5c:	f9843783          	ld	a5,-104(s0)
   25a60:	fef43023          	sd	a5,-32(s0)
   25a64:	fe843783          	ld	a5,-24(s0)
   25a68:	fcf43023          	sd	a5,-64(s0)
   25a6c:	fc043823          	sd	zero,-48(s0)
   25a70:	fc042e23          	sw	zero,-36(s0)
   25a74:	0340006f          	j	25aa8 <payload_bin+0x54f0>
   25a78:	fa442783          	lw	a5,-92(s0)
   25a7c:	0ff7f793          	andi	a5,a5,255
   25a80:	fdc42703          	lw	a4,-36(s0)
   25a84:	0037171b          	slliw	a4,a4,0x3
   25a88:	0007071b          	sext.w	a4,a4
   25a8c:	00e797b3          	sll	a5,a5,a4
   25a90:	fd043703          	ld	a4,-48(s0)
   25a94:	00f767b3          	or	a5,a4,a5
   25a98:	fcf43823          	sd	a5,-48(s0)
   25a9c:	fdc42783          	lw	a5,-36(s0)
   25aa0:	0017879b          	addiw	a5,a5,1
   25aa4:	fcf42e23          	sw	a5,-36(s0)
   25aa8:	fdc42783          	lw	a5,-36(s0)
   25aac:	0007871b          	sext.w	a4,a5
   25ab0:	00700793          	li	a5,7
   25ab4:	fce7d2e3          	bge	a5,a4,25a78 <payload_bin+0x54c0>
   25ab8:	fc843783          	ld	a5,-56(s0)
   25abc:	fff78713          	addi	a4,a5,-1
   25ac0:	fc043783          	ld	a5,-64(s0)
   25ac4:	00f777b3          	and	a5,a4,a5
   25ac8:	04078e63          	beqz	a5,25b24 <payload_bin+0x556c>
   25acc:	fc843783          	ld	a5,-56(s0)
   25ad0:	fff78793          	addi	a5,a5,-1
   25ad4:	fc043703          	ld	a4,-64(s0)
   25ad8:	00f777b3          	and	a5,a4,a5
   25adc:	faf43c23          	sd	a5,-72(s0)
   25ae0:	fc843703          	ld	a4,-56(s0)
   25ae4:	fb843783          	ld	a5,-72(s0)
   25ae8:	40f707b3          	sub	a5,a4,a5
   25aec:	faf43c23          	sd	a5,-72(s0)
   25af0:	fa442783          	lw	a5,-92(s0)
   25af4:	fb843603          	ld	a2,-72(s0)
   25af8:	00078593          	mv	a1,a5
   25afc:	fe843503          	ld	a0,-24(s0)
   25b00:	ec9ff0ef          	jal	ra,259c8 <payload_bin+0x5410>
   25b04:	fe843703          	ld	a4,-24(s0)
   25b08:	fb843783          	ld	a5,-72(s0)
   25b0c:	00f707b3          	add	a5,a4,a5
   25b10:	fef43423          	sd	a5,-24(s0)
   25b14:	f9843703          	ld	a4,-104(s0)
   25b18:	fb843783          	ld	a5,-72(s0)
   25b1c:	40f707b3          	sub	a5,a4,a5
   25b20:	fef43023          	sd	a5,-32(s0)
   25b24:	fe043703          	ld	a4,-32(s0)
   25b28:	fc843783          	ld	a5,-56(s0)
   25b2c:	06e7fa63          	bgeu	a5,a4,25ba0 <payload_bin+0x55e8>
   25b30:	fe043703          	ld	a4,-32(s0)
   25b34:	fc843783          	ld	a5,-56(s0)
   25b38:	02f757b3          	divu	a5,a4,a5
   25b3c:	faf42a23          	sw	a5,-76(s0)
   25b40:	fe043703          	ld	a4,-32(s0)
   25b44:	fc843783          	ld	a5,-56(s0)
   25b48:	02f777b3          	remu	a5,a4,a5
   25b4c:	fef43023          	sd	a5,-32(s0)
   25b50:	fb442783          	lw	a5,-76(s0)
   25b54:	0047979b          	slliw	a5,a5,0x4
   25b58:	0007879b          	sext.w	a5,a5
   25b5c:	00078613          	mv	a2,a5
   25b60:	fd043583          	ld	a1,-48(s0)
   25b64:	fe843503          	ld	a0,-24(s0)
   25b68:	4a4020ef          	jal	ra,2800c <payload_bin+0x7a54>
   25b6c:	fe043783          	ld	a5,-32(s0)
   25b70:	02078863          	beqz	a5,25ba0 <payload_bin+0x55e8>
   25b74:	fb442783          	lw	a5,-76(s0)
   25b78:	0047979b          	slliw	a5,a5,0x4
   25b7c:	0007879b          	sext.w	a5,a5
   25b80:	00078713          	mv	a4,a5
   25b84:	fe843783          	ld	a5,-24(s0)
   25b88:	00e787b3          	add	a5,a5,a4
   25b8c:	fa442703          	lw	a4,-92(s0)
   25b90:	fe043603          	ld	a2,-32(s0)
   25b94:	00070593          	mv	a1,a4
   25b98:	00078513          	mv	a0,a5
   25b9c:	e2dff0ef          	jal	ra,259c8 <payload_bin+0x5410>
   25ba0:	fa843783          	ld	a5,-88(s0)
   25ba4:	00078513          	mv	a0,a5
   25ba8:	06813083          	ld	ra,104(sp)
   25bac:	06013403          	ld	s0,96(sp)
   25bb0:	07010113          	addi	sp,sp,112
   25bb4:	00008067          	ret
   25bb8:	fd010113          	addi	sp,sp,-48
   25bbc:	02113423          	sd	ra,40(sp)
   25bc0:	02813023          	sd	s0,32(sp)
   25bc4:	03010413          	addi	s0,sp,48
   25bc8:	fea43423          	sd	a0,-24(s0)
   25bcc:	00058793          	mv	a5,a1
   25bd0:	fcc43c23          	sd	a2,-40(s0)
   25bd4:	fef42223          	sw	a5,-28(s0)
   25bd8:	fe442783          	lw	a5,-28(s0)
   25bdc:	fd843603          	ld	a2,-40(s0)
   25be0:	00078593          	mv	a1,a5
   25be4:	fe843503          	ld	a0,-24(s0)
   25be8:	e45ff0ef          	jal	ra,25a2c <payload_bin+0x5474>
   25bec:	00050793          	mv	a5,a0
   25bf0:	00078513          	mv	a0,a5
   25bf4:	02813083          	ld	ra,40(sp)
   25bf8:	02013403          	ld	s0,32(sp)
   25bfc:	03010113          	addi	sp,sp,48
   25c00:	00008067          	ret
   25c04:	fd010113          	addi	sp,sp,-48
   25c08:	02813423          	sd	s0,40(sp)
   25c0c:	03010413          	addi	s0,sp,48
   25c10:	fca43c23          	sd	a0,-40(s0)
   25c14:	fcb43823          	sd	a1,-48(s0)
   25c18:	fe042623          	sw	zero,-20(s0)
   25c1c:	0440006f          	j	25c60 <payload_bin+0x56a8>
   25c20:	fec42703          	lw	a4,-20(s0)
   25c24:	00070793          	mv	a5,a4
   25c28:	0027979b          	slliw	a5,a5,0x2
   25c2c:	00e787bb          	addw	a5,a5,a4
   25c30:	0017979b          	slliw	a5,a5,0x1
   25c34:	fef42623          	sw	a5,-20(s0)
   25c38:	fd843783          	ld	a5,-40(s0)
   25c3c:	00178713          	addi	a4,a5,1
   25c40:	fce43c23          	sd	a4,-40(s0)
   25c44:	0007c783          	lbu	a5,0(a5)
   25c48:	0007879b          	sext.w	a5,a5
   25c4c:	fd07879b          	addiw	a5,a5,-48
   25c50:	0007879b          	sext.w	a5,a5
   25c54:	fec42703          	lw	a4,-20(s0)
   25c58:	00f707bb          	addw	a5,a4,a5
   25c5c:	fef42623          	sw	a5,-20(s0)
   25c60:	fd843783          	ld	a5,-40(s0)
   25c64:	0007c783          	lbu	a5,0(a5)
   25c68:	00078713          	mv	a4,a5
   25c6c:	02f00793          	li	a5,47
   25c70:	00e7fc63          	bgeu	a5,a4,25c88 <payload_bin+0x56d0>
   25c74:	fd843783          	ld	a5,-40(s0)
   25c78:	0007c783          	lbu	a5,0(a5)
   25c7c:	00078713          	mv	a4,a5
   25c80:	03900793          	li	a5,57
   25c84:	f8e7fee3          	bgeu	a5,a4,25c20 <payload_bin+0x5668>
   25c88:	fd043783          	ld	a5,-48(s0)
   25c8c:	fec42703          	lw	a4,-20(s0)
   25c90:	00e7a023          	sw	a4,0(a5)
   25c94:	fd843783          	ld	a5,-40(s0)
   25c98:	00078513          	mv	a0,a5
   25c9c:	02813403          	ld	s0,40(sp)
   25ca0:	03010113          	addi	sp,sp,48
   25ca4:	00008067          	ret
   25ca8:	f2010113          	addi	sp,sp,-224
   25cac:	0c813c23          	sd	s0,216(sp)
   25cb0:	0e010413          	addi	s0,sp,224
   25cb4:	f2a43c23          	sd	a0,-200(s0)
   25cb8:	f2b43823          	sd	a1,-208(s0)
   25cbc:	00060593          	mv	a1,a2
   25cc0:	00068613          	mv	a2,a3
   25cc4:	00070693          	mv	a3,a4
   25cc8:	00078713          	mv	a4,a5
   25ccc:	00058793          	mv	a5,a1
   25cd0:	f2f42623          	sw	a5,-212(s0)
   25cd4:	00060793          	mv	a5,a2
   25cd8:	f2f42423          	sw	a5,-216(s0)
   25cdc:	00068793          	mv	a5,a3
   25ce0:	f2f42223          	sw	a5,-220(s0)
   25ce4:	00070793          	mv	a5,a4
   25ce8:	f2f42023          	sw	a5,-224(s0)
   25cec:	fe0407a3          	sb	zero,-17(s0)
   25cf0:	00002797          	auipc	a5,0x2
   25cf4:	4f878793          	addi	a5,a5,1272 # 281e8 <payload_bin+0x7c30>
   25cf8:	fef43023          	sd	a5,-32(s0)
   25cfc:	f2042783          	lw	a5,-224(s0)
   25d00:	0407f793          	andi	a5,a5,64
   25d04:	0007879b          	sext.w	a5,a5
   25d08:	00078863          	beqz	a5,25d18 <payload_bin+0x5760>
   25d0c:	00002797          	auipc	a5,0x2
   25d10:	50478793          	addi	a5,a5,1284 # 28210 <payload_bin+0x7c58>
   25d14:	fef43023          	sd	a5,-32(s0)
   25d18:	f2042783          	lw	a5,-224(s0)
   25d1c:	0107f793          	andi	a5,a5,16
   25d20:	0007879b          	sext.w	a5,a5
   25d24:	00078863          	beqz	a5,25d34 <payload_bin+0x577c>
   25d28:	f2042783          	lw	a5,-224(s0)
   25d2c:	ffe7f793          	andi	a5,a5,-2
   25d30:	f2f42023          	sw	a5,-224(s0)
   25d34:	f2c42783          	lw	a5,-212(s0)
   25d38:	0007871b          	sext.w	a4,a5
   25d3c:	00100793          	li	a5,1
   25d40:	00e7da63          	bge	a5,a4,25d54 <payload_bin+0x579c>
   25d44:	f2c42783          	lw	a5,-212(s0)
   25d48:	0007871b          	sext.w	a4,a5
   25d4c:	02400793          	li	a5,36
   25d50:	00e7d663          	bge	a5,a4,25d5c <payload_bin+0x57a4>
   25d54:	00000793          	li	a5,0
   25d58:	3400006f          	j	26098 <payload_bin+0x5ae0>
   25d5c:	f2042783          	lw	a5,-224(s0)
   25d60:	0017f793          	andi	a5,a5,1
   25d64:	0007879b          	sext.w	a5,a5
   25d68:	00078663          	beqz	a5,25d74 <payload_bin+0x57bc>
   25d6c:	03000793          	li	a5,48
   25d70:	0080006f          	j	25d78 <payload_bin+0x57c0>
   25d74:	02000793          	li	a5,32
   25d78:	fcf40da3          	sb	a5,-37(s0)
   25d7c:	f2042783          	lw	a5,-224(s0)
   25d80:	0027f793          	andi	a5,a5,2
   25d84:	0007879b          	sext.w	a5,a5
   25d88:	06078c63          	beqz	a5,25e00 <payload_bin+0x5848>
   25d8c:	f3043783          	ld	a5,-208(s0)
   25d90:	fcf43823          	sd	a5,-48(s0)
   25d94:	fd043783          	ld	a5,-48(s0)
   25d98:	0007de63          	bgez	a5,25db4 <payload_bin+0x57fc>
   25d9c:	02d00793          	li	a5,45
   25da0:	fef407a3          	sb	a5,-17(s0)
   25da4:	fd043783          	ld	a5,-48(s0)
   25da8:	40f007b3          	neg	a5,a5
   25dac:	f2f43823          	sd	a5,-208(s0)
   25db0:	0500006f          	j	25e00 <payload_bin+0x5848>
   25db4:	f2042783          	lw	a5,-224(s0)
   25db8:	0047f793          	andi	a5,a5,4
   25dbc:	0007879b          	sext.w	a5,a5
   25dc0:	00078e63          	beqz	a5,25ddc <payload_bin+0x5824>
   25dc4:	02b00793          	li	a5,43
   25dc8:	fef407a3          	sb	a5,-17(s0)
   25dcc:	f2842783          	lw	a5,-216(s0)
   25dd0:	fff7879b          	addiw	a5,a5,-1
   25dd4:	f2f42423          	sw	a5,-216(s0)
   25dd8:	0280006f          	j	25e00 <payload_bin+0x5848>
   25ddc:	f2042783          	lw	a5,-224(s0)
   25de0:	0087f793          	andi	a5,a5,8
   25de4:	0007879b          	sext.w	a5,a5
   25de8:	00078c63          	beqz	a5,25e00 <payload_bin+0x5848>
   25dec:	02000793          	li	a5,32
   25df0:	fef407a3          	sb	a5,-17(s0)
   25df4:	f2842783          	lw	a5,-216(s0)
   25df8:	fff7879b          	addiw	a5,a5,-1
   25dfc:	f2f42423          	sw	a5,-216(s0)
   25e00:	f2042783          	lw	a5,-224(s0)
   25e04:	0207f793          	andi	a5,a5,32
   25e08:	0007879b          	sext.w	a5,a5
   25e0c:	04078063          	beqz	a5,25e4c <payload_bin+0x5894>
   25e10:	f2c42783          	lw	a5,-212(s0)
   25e14:	0007871b          	sext.w	a4,a5
   25e18:	01000793          	li	a5,16
   25e1c:	00f71a63          	bne	a4,a5,25e30 <payload_bin+0x5878>
   25e20:	f2842783          	lw	a5,-216(s0)
   25e24:	ffe7879b          	addiw	a5,a5,-2
   25e28:	f2f42423          	sw	a5,-216(s0)
   25e2c:	0200006f          	j	25e4c <payload_bin+0x5894>
   25e30:	f2c42783          	lw	a5,-212(s0)
   25e34:	0007871b          	sext.w	a4,a5
   25e38:	00800793          	li	a5,8
   25e3c:	00f71863          	bne	a4,a5,25e4c <payload_bin+0x5894>
   25e40:	f2842783          	lw	a5,-216(s0)
   25e44:	fff7879b          	addiw	a5,a5,-1
   25e48:	f2f42423          	sw	a5,-216(s0)
   25e4c:	fc042e23          	sw	zero,-36(s0)
   25e50:	f3043783          	ld	a5,-208(s0)
   25e54:	06079e63          	bnez	a5,25ed0 <payload_bin+0x5918>
   25e58:	fdc42783          	lw	a5,-36(s0)
   25e5c:	0017871b          	addiw	a4,a5,1
   25e60:	fce42e23          	sw	a4,-36(s0)
   25e64:	ff040713          	addi	a4,s0,-16
   25e68:	00f707b3          	add	a5,a4,a5
   25e6c:	03000713          	li	a4,48
   25e70:	f4e78c23          	sb	a4,-168(a5)
   25e74:	0640006f          	j	25ed8 <payload_bin+0x5920>
   25e78:	f2c42783          	lw	a5,-212(s0)
   25e7c:	fcf42623          	sw	a5,-52(s0)
   25e80:	fcc46783          	lwu	a5,-52(s0)
   25e84:	f3043703          	ld	a4,-208(s0)
   25e88:	02f777b3          	remu	a5,a4,a5
   25e8c:	fcf42423          	sw	a5,-56(s0)
   25e90:	fcc46783          	lwu	a5,-52(s0)
   25e94:	f3043703          	ld	a4,-208(s0)
   25e98:	02f757b3          	divu	a5,a4,a5
   25e9c:	f2f43823          	sd	a5,-208(s0)
   25ea0:	fc842783          	lw	a5,-56(s0)
   25ea4:	02079793          	slli	a5,a5,0x20
   25ea8:	0207d793          	srli	a5,a5,0x20
   25eac:	fe043703          	ld	a4,-32(s0)
   25eb0:	00f70733          	add	a4,a4,a5
   25eb4:	fdc42783          	lw	a5,-36(s0)
   25eb8:	0017869b          	addiw	a3,a5,1
   25ebc:	fcd42e23          	sw	a3,-36(s0)
   25ec0:	00074703          	lbu	a4,0(a4)
   25ec4:	ff040693          	addi	a3,s0,-16
   25ec8:	00f687b3          	add	a5,a3,a5
   25ecc:	f4e78c23          	sb	a4,-168(a5)
   25ed0:	f3043783          	ld	a5,-208(s0)
   25ed4:	fa0792e3          	bnez	a5,25e78 <payload_bin+0x58c0>
   25ed8:	fdc42703          	lw	a4,-36(s0)
   25edc:	f2442783          	lw	a5,-220(s0)
   25ee0:	0007071b          	sext.w	a4,a4
   25ee4:	0007879b          	sext.w	a5,a5
   25ee8:	00e7d663          	bge	a5,a4,25ef4 <payload_bin+0x593c>
   25eec:	fdc42783          	lw	a5,-36(s0)
   25ef0:	f2f42223          	sw	a5,-220(s0)
   25ef4:	f2842703          	lw	a4,-216(s0)
   25ef8:	f2442783          	lw	a5,-220(s0)
   25efc:	40f707bb          	subw	a5,a4,a5
   25f00:	f2f42423          	sw	a5,-216(s0)
   25f04:	f2042783          	lw	a5,-224(s0)
   25f08:	0117f793          	andi	a5,a5,17
   25f0c:	0007879b          	sext.w	a5,a5
   25f10:	02079663          	bnez	a5,25f3c <payload_bin+0x5984>
   25f14:	0180006f          	j	25f2c <payload_bin+0x5974>
   25f18:	f3843783          	ld	a5,-200(s0)
   25f1c:	00178713          	addi	a4,a5,1
   25f20:	f2e43c23          	sd	a4,-200(s0)
   25f24:	02000713          	li	a4,32
   25f28:	00e78023          	sb	a4,0(a5)
   25f2c:	f2842783          	lw	a5,-216(s0)
   25f30:	fff7871b          	addiw	a4,a5,-1
   25f34:	f2e42423          	sw	a4,-216(s0)
   25f38:	fef040e3          	bgtz	a5,25f18 <payload_bin+0x5960>
   25f3c:	fef44783          	lbu	a5,-17(s0)
   25f40:	0ff7f793          	andi	a5,a5,255
   25f44:	00078c63          	beqz	a5,25f5c <payload_bin+0x59a4>
   25f48:	f3843783          	ld	a5,-200(s0)
   25f4c:	00178713          	addi	a4,a5,1
   25f50:	f2e43c23          	sd	a4,-200(s0)
   25f54:	fef44703          	lbu	a4,-17(s0)
   25f58:	00e78023          	sb	a4,0(a5)
   25f5c:	f2042783          	lw	a5,-224(s0)
   25f60:	0207f793          	andi	a5,a5,32
   25f64:	0007879b          	sext.w	a5,a5
   25f68:	06078463          	beqz	a5,25fd0 <payload_bin+0x5a18>
   25f6c:	f2c42783          	lw	a5,-212(s0)
   25f70:	0007871b          	sext.w	a4,a5
   25f74:	00800793          	li	a5,8
   25f78:	00f71e63          	bne	a4,a5,25f94 <payload_bin+0x59dc>
   25f7c:	f3843783          	ld	a5,-200(s0)
   25f80:	00178713          	addi	a4,a5,1
   25f84:	f2e43c23          	sd	a4,-200(s0)
   25f88:	03000713          	li	a4,48
   25f8c:	00e78023          	sb	a4,0(a5)
   25f90:	0400006f          	j	25fd0 <payload_bin+0x5a18>
   25f94:	f2c42783          	lw	a5,-212(s0)
   25f98:	0007871b          	sext.w	a4,a5
   25f9c:	01000793          	li	a5,16
   25fa0:	02f71863          	bne	a4,a5,25fd0 <payload_bin+0x5a18>
   25fa4:	f3843783          	ld	a5,-200(s0)
   25fa8:	00178713          	addi	a4,a5,1
   25fac:	f2e43c23          	sd	a4,-200(s0)
   25fb0:	03000713          	li	a4,48
   25fb4:	00e78023          	sb	a4,0(a5)
   25fb8:	f3843783          	ld	a5,-200(s0)
   25fbc:	00178713          	addi	a4,a5,1
   25fc0:	f2e43c23          	sd	a4,-200(s0)
   25fc4:	fe043703          	ld	a4,-32(s0)
   25fc8:	02174703          	lbu	a4,33(a4)
   25fcc:	00e78023          	sb	a4,0(a5)
   25fd0:	f2042783          	lw	a5,-224(s0)
   25fd4:	0107f793          	andi	a5,a5,16
   25fd8:	0007879b          	sext.w	a5,a5
   25fdc:	04079263          	bnez	a5,26020 <payload_bin+0x5a68>
   25fe0:	0180006f          	j	25ff8 <payload_bin+0x5a40>
   25fe4:	f3843783          	ld	a5,-200(s0)
   25fe8:	00178713          	addi	a4,a5,1
   25fec:	f2e43c23          	sd	a4,-200(s0)
   25ff0:	fdb44703          	lbu	a4,-37(s0)
   25ff4:	00e78023          	sb	a4,0(a5)
   25ff8:	f2842783          	lw	a5,-216(s0)
   25ffc:	fff7871b          	addiw	a4,a5,-1
   26000:	f2e42423          	sw	a4,-216(s0)
   26004:	fef040e3          	bgtz	a5,25fe4 <payload_bin+0x5a2c>
   26008:	0180006f          	j	26020 <payload_bin+0x5a68>
   2600c:	f3843783          	ld	a5,-200(s0)
   26010:	00178713          	addi	a4,a5,1
   26014:	f2e43c23          	sd	a4,-200(s0)
   26018:	03000713          	li	a4,48
   2601c:	00e78023          	sb	a4,0(a5)
   26020:	f2442783          	lw	a5,-220(s0)
   26024:	fff7871b          	addiw	a4,a5,-1
   26028:	f2e42223          	sw	a4,-220(s0)
   2602c:	fdc42703          	lw	a4,-36(s0)
   26030:	0007071b          	sext.w	a4,a4
   26034:	fcf74ce3          	blt	a4,a5,2600c <payload_bin+0x5a54>
   26038:	0240006f          	j	2605c <payload_bin+0x5aa4>
   2603c:	f3843783          	ld	a5,-200(s0)
   26040:	00178713          	addi	a4,a5,1
   26044:	f2e43c23          	sd	a4,-200(s0)
   26048:	fdc42703          	lw	a4,-36(s0)
   2604c:	ff040693          	addi	a3,s0,-16
   26050:	00e68733          	add	a4,a3,a4
   26054:	f5874703          	lbu	a4,-168(a4)
   26058:	00e78023          	sb	a4,0(a5)
   2605c:	fdc42783          	lw	a5,-36(s0)
   26060:	fff7871b          	addiw	a4,a5,-1
   26064:	fce42e23          	sw	a4,-36(s0)
   26068:	fcf04ae3          	bgtz	a5,2603c <payload_bin+0x5a84>
   2606c:	0180006f          	j	26084 <payload_bin+0x5acc>
   26070:	f3843783          	ld	a5,-200(s0)
   26074:	00178713          	addi	a4,a5,1
   26078:	f2e43c23          	sd	a4,-200(s0)
   2607c:	02000713          	li	a4,32
   26080:	00e78023          	sb	a4,0(a5)
   26084:	f2842783          	lw	a5,-216(s0)
   26088:	fff7871b          	addiw	a4,a5,-1
   2608c:	f2e42423          	sw	a4,-216(s0)
   26090:	fef040e3          	bgtz	a5,26070 <payload_bin+0x5ab8>
   26094:	f3843783          	ld	a5,-200(s0)
   26098:	00078513          	mv	a0,a5
   2609c:	0d813403          	ld	s0,216(sp)
   260a0:	0e010113          	addi	sp,sp,224
   260a4:	00008067          	ret
   260a8:	f9010113          	addi	sp,sp,-112
   260ac:	06113423          	sd	ra,104(sp)
   260b0:	06813023          	sd	s0,96(sp)
   260b4:	07010413          	addi	s0,sp,112
   260b8:	faa43423          	sd	a0,-88(s0)
   260bc:	00058793          	mv	a5,a1
   260c0:	f8c43c23          	sd	a2,-104(s0)
   260c4:	f8d43823          	sd	a3,-112(s0)
   260c8:	faf42223          	sw	a5,-92(s0)
   260cc:	fa843783          	ld	a5,-88(s0)
   260d0:	fef43423          	sd	a5,-24(s0)
   260d4:	7440006f          	j	26818 <payload_bin+0x6260>
   260d8:	f9843783          	ld	a5,-104(s0)
   260dc:	0007c783          	lbu	a5,0(a5)
   260e0:	00078713          	mv	a4,a5
   260e4:	02500793          	li	a5,37
   260e8:	02f70063          	beq	a4,a5,26108 <payload_bin+0x5b50>
   260ec:	fe843783          	ld	a5,-24(s0)
   260f0:	00178713          	addi	a4,a5,1
   260f4:	fee43423          	sd	a4,-24(s0)
   260f8:	f9843703          	ld	a4,-104(s0)
   260fc:	00074703          	lbu	a4,0(a4)
   26100:	00e78023          	sb	a4,0(a5)
   26104:	7080006f          	j	2680c <payload_bin+0x6254>
   26108:	fe042223          	sw	zero,-28(s0)
   2610c:	f9843783          	ld	a5,-104(s0)
   26110:	00178793          	addi	a5,a5,1
   26114:	f8f43c23          	sd	a5,-104(s0)
   26118:	f9843783          	ld	a5,-104(s0)
   2611c:	0007c783          	lbu	a5,0(a5)
   26120:	0007879b          	sext.w	a5,a5
   26124:	fe07869b          	addiw	a3,a5,-32
   26128:	0006871b          	sext.w	a4,a3
   2612c:	01000793          	li	a5,16
   26130:	08e7e263          	bltu	a5,a4,261b4 <payload_bin+0x5bfc>
   26134:	02069793          	slli	a5,a3,0x20
   26138:	0207d793          	srli	a5,a5,0x20
   2613c:	00279713          	slli	a4,a5,0x2
   26140:	00002797          	auipc	a5,0x2
   26144:	10078793          	addi	a5,a5,256 # 28240 <payload_bin+0x7c88>
   26148:	00f707b3          	add	a5,a4,a5
   2614c:	0007a783          	lw	a5,0(a5)
   26150:	0007871b          	sext.w	a4,a5
   26154:	00002797          	auipc	a5,0x2
   26158:	0ec78793          	addi	a5,a5,236 # 28240 <payload_bin+0x7c88>
   2615c:	00f707b3          	add	a5,a4,a5
   26160:	00078067          	jr	a5
   26164:	fe442783          	lw	a5,-28(s0)
   26168:	0107e793          	ori	a5,a5,16
   2616c:	fef42223          	sw	a5,-28(s0)
   26170:	f9dff06f          	j	2610c <payload_bin+0x5b54>
   26174:	fe442783          	lw	a5,-28(s0)
   26178:	0047e793          	ori	a5,a5,4
   2617c:	fef42223          	sw	a5,-28(s0)
   26180:	f8dff06f          	j	2610c <payload_bin+0x5b54>
   26184:	fe442783          	lw	a5,-28(s0)
   26188:	0087e793          	ori	a5,a5,8
   2618c:	fef42223          	sw	a5,-28(s0)
   26190:	f7dff06f          	j	2610c <payload_bin+0x5b54>
   26194:	fe442783          	lw	a5,-28(s0)
   26198:	0207e793          	ori	a5,a5,32
   2619c:	fef42223          	sw	a5,-28(s0)
   261a0:	f6dff06f          	j	2610c <payload_bin+0x5b54>
   261a4:	fe442783          	lw	a5,-28(s0)
   261a8:	0017e793          	ori	a5,a5,1
   261ac:	fef42223          	sw	a5,-28(s0)
   261b0:	f5dff06f          	j	2610c <payload_bin+0x5b54>
   261b4:	fff00793          	li	a5,-1
   261b8:	faf42a23          	sw	a5,-76(s0)
   261bc:	f9843783          	ld	a5,-104(s0)
   261c0:	0007c783          	lbu	a5,0(a5)
   261c4:	00078713          	mv	a4,a5
   261c8:	02f00793          	li	a5,47
   261cc:	02e7f863          	bgeu	a5,a4,261fc <payload_bin+0x5c44>
   261d0:	f9843783          	ld	a5,-104(s0)
   261d4:	0007c783          	lbu	a5,0(a5)
   261d8:	00078713          	mv	a4,a5
   261dc:	03900793          	li	a5,57
   261e0:	00e7ee63          	bltu	a5,a4,261fc <payload_bin+0x5c44>
   261e4:	fb440793          	addi	a5,s0,-76
   261e8:	00078593          	mv	a1,a5
   261ec:	f9843503          	ld	a0,-104(s0)
   261f0:	a15ff0ef          	jal	ra,25c04 <payload_bin+0x564c>
   261f4:	f8a43c23          	sd	a0,-104(s0)
   261f8:	0500006f          	j	26248 <payload_bin+0x5c90>
   261fc:	f9843783          	ld	a5,-104(s0)
   26200:	0007c783          	lbu	a5,0(a5)
   26204:	00078713          	mv	a4,a5
   26208:	02a00793          	li	a5,42
   2620c:	02f71e63          	bne	a4,a5,26248 <payload_bin+0x5c90>
   26210:	f9043783          	ld	a5,-112(s0)
   26214:	00878713          	addi	a4,a5,8
   26218:	f8e43823          	sd	a4,-112(s0)
   2621c:	0007a783          	lw	a5,0(a5)
   26220:	faf42a23          	sw	a5,-76(s0)
   26224:	fb442783          	lw	a5,-76(s0)
   26228:	0207d063          	bgez	a5,26248 <payload_bin+0x5c90>
   2622c:	fb442783          	lw	a5,-76(s0)
   26230:	40f007bb          	negw	a5,a5
   26234:	0007879b          	sext.w	a5,a5
   26238:	faf42a23          	sw	a5,-76(s0)
   2623c:	fe442783          	lw	a5,-28(s0)
   26240:	0107e793          	ori	a5,a5,16
   26244:	fef42223          	sw	a5,-28(s0)
   26248:	fff00793          	li	a5,-1
   2624c:	faf42823          	sw	a5,-80(s0)
   26250:	f9843783          	ld	a5,-104(s0)
   26254:	0007c783          	lbu	a5,0(a5)
   26258:	00078713          	mv	a4,a5
   2625c:	02e00793          	li	a5,46
   26260:	08f71263          	bne	a4,a5,262e4 <payload_bin+0x5d2c>
   26264:	f9843783          	ld	a5,-104(s0)
   26268:	00178793          	addi	a5,a5,1
   2626c:	f8f43c23          	sd	a5,-104(s0)
   26270:	f9843783          	ld	a5,-104(s0)
   26274:	0007c783          	lbu	a5,0(a5)
   26278:	00078713          	mv	a4,a5
   2627c:	02f00793          	li	a5,47
   26280:	02e7f863          	bgeu	a5,a4,262b0 <payload_bin+0x5cf8>
   26284:	f9843783          	ld	a5,-104(s0)
   26288:	0007c783          	lbu	a5,0(a5)
   2628c:	00078713          	mv	a4,a5
   26290:	03900793          	li	a5,57
   26294:	00e7ee63          	bltu	a5,a4,262b0 <payload_bin+0x5cf8>
   26298:	fb040793          	addi	a5,s0,-80
   2629c:	00078593          	mv	a1,a5
   262a0:	f9843503          	ld	a0,-104(s0)
   262a4:	961ff0ef          	jal	ra,25c04 <payload_bin+0x564c>
   262a8:	f8a43c23          	sd	a0,-104(s0)
   262ac:	02c0006f          	j	262d8 <payload_bin+0x5d20>
   262b0:	f9843783          	ld	a5,-104(s0)
   262b4:	0007c783          	lbu	a5,0(a5)
   262b8:	00078713          	mv	a4,a5
   262bc:	02a00793          	li	a5,42
   262c0:	00f71c63          	bne	a4,a5,262d8 <payload_bin+0x5d20>
   262c4:	f9043783          	ld	a5,-112(s0)
   262c8:	00878713          	addi	a4,a5,8
   262cc:	f8e43823          	sd	a4,-112(s0)
   262d0:	0007a783          	lw	a5,0(a5)
   262d4:	faf42823          	sw	a5,-80(s0)
   262d8:	fb042783          	lw	a5,-80(s0)
   262dc:	0007d463          	bgez	a5,262e4 <payload_bin+0x5d2c>
   262e0:	fa042823          	sw	zero,-80(s0)
   262e4:	fff00793          	li	a5,-1
   262e8:	fef42023          	sw	a5,-32(s0)
   262ec:	f9843783          	ld	a5,-104(s0)
   262f0:	0007c783          	lbu	a5,0(a5)
   262f4:	00078713          	mv	a4,a5
   262f8:	06800793          	li	a5,104
   262fc:	02f70663          	beq	a4,a5,26328 <payload_bin+0x5d70>
   26300:	f9843783          	ld	a5,-104(s0)
   26304:	0007c783          	lbu	a5,0(a5)
   26308:	00078713          	mv	a4,a5
   2630c:	06c00793          	li	a5,108
   26310:	00f70c63          	beq	a4,a5,26328 <payload_bin+0x5d70>
   26314:	f9843783          	ld	a5,-104(s0)
   26318:	0007c783          	lbu	a5,0(a5)
   2631c:	00078713          	mv	a4,a5
   26320:	04c00793          	li	a5,76
   26324:	04f71a63          	bne	a4,a5,26378 <payload_bin+0x5dc0>
   26328:	f9843783          	ld	a5,-104(s0)
   2632c:	0007c783          	lbu	a5,0(a5)
   26330:	fef42023          	sw	a5,-32(s0)
   26334:	f9843783          	ld	a5,-104(s0)
   26338:	00178793          	addi	a5,a5,1
   2633c:	f8f43c23          	sd	a5,-104(s0)
   26340:	fe042783          	lw	a5,-32(s0)
   26344:	0007871b          	sext.w	a4,a5
   26348:	06c00793          	li	a5,108
   2634c:	02f71663          	bne	a4,a5,26378 <payload_bin+0x5dc0>
   26350:	f9843783          	ld	a5,-104(s0)
   26354:	0007c783          	lbu	a5,0(a5)
   26358:	00078713          	mv	a4,a5
   2635c:	06c00793          	li	a5,108
   26360:	00f71c63          	bne	a4,a5,26378 <payload_bin+0x5dc0>
   26364:	04c00793          	li	a5,76
   26368:	fef42023          	sw	a5,-32(s0)
   2636c:	f9843783          	ld	a5,-104(s0)
   26370:	00178793          	addi	a5,a5,1
   26374:	f8f43c23          	sd	a5,-104(s0)
   26378:	f9843783          	ld	a5,-104(s0)
   2637c:	0007c783          	lbu	a5,0(a5)
   26380:	0007879b          	sext.w	a5,a5
   26384:	fa87869b          	addiw	a3,a5,-88
   26388:	0006871b          	sext.w	a4,a3
   2638c:	02000793          	li	a5,32
   26390:	2ae7ec63          	bltu	a5,a4,26648 <payload_bin+0x6090>
   26394:	02069793          	slli	a5,a3,0x20
   26398:	0207d793          	srli	a5,a5,0x20
   2639c:	00279713          	slli	a4,a5,0x2
   263a0:	00002797          	auipc	a5,0x2
   263a4:	ee478793          	addi	a5,a5,-284 # 28284 <payload_bin+0x7ccc>
   263a8:	00f707b3          	add	a5,a4,a5
   263ac:	0007a783          	lw	a5,0(a5)
   263b0:	0007871b          	sext.w	a4,a5
   263b4:	00002797          	auipc	a5,0x2
   263b8:	ed078793          	addi	a5,a5,-304 # 28284 <payload_bin+0x7ccc>
   263bc:	00f707b3          	add	a5,a4,a5
   263c0:	00078067          	jr	a5
   263c4:	fe442783          	lw	a5,-28(s0)
   263c8:	0107f793          	andi	a5,a5,16
   263cc:	0007879b          	sext.w	a5,a5
   263d0:	02079a63          	bnez	a5,26404 <payload_bin+0x5e4c>
   263d4:	0180006f          	j	263ec <payload_bin+0x5e34>
   263d8:	fe843783          	ld	a5,-24(s0)
   263dc:	00178713          	addi	a4,a5,1
   263e0:	fee43423          	sd	a4,-24(s0)
   263e4:	02000713          	li	a4,32
   263e8:	00e78023          	sb	a4,0(a5)
   263ec:	fb442783          	lw	a5,-76(s0)
   263f0:	fff7879b          	addiw	a5,a5,-1
   263f4:	0007879b          	sext.w	a5,a5
   263f8:	faf42a23          	sw	a5,-76(s0)
   263fc:	fb442783          	lw	a5,-76(s0)
   26400:	fcf04ce3          	bgtz	a5,263d8 <payload_bin+0x5e20>
   26404:	f9043783          	ld	a5,-112(s0)
   26408:	00878713          	addi	a4,a5,8
   2640c:	f8e43823          	sd	a4,-112(s0)
   26410:	0007a683          	lw	a3,0(a5)
   26414:	fe843783          	ld	a5,-24(s0)
   26418:	00178713          	addi	a4,a5,1
   2641c:	fee43423          	sd	a4,-24(s0)
   26420:	0ff6f713          	andi	a4,a3,255
   26424:	00e78023          	sb	a4,0(a5)
   26428:	0180006f          	j	26440 <payload_bin+0x5e88>
   2642c:	fe843783          	ld	a5,-24(s0)
   26430:	00178713          	addi	a4,a5,1
   26434:	fee43423          	sd	a4,-24(s0)
   26438:	02000713          	li	a4,32
   2643c:	00e78023          	sb	a4,0(a5)
   26440:	fb442783          	lw	a5,-76(s0)
   26444:	fff7879b          	addiw	a5,a5,-1
   26448:	0007879b          	sext.w	a5,a5
   2644c:	faf42a23          	sw	a5,-76(s0)
   26450:	fb442783          	lw	a5,-76(s0)
   26454:	fcf04ce3          	bgtz	a5,2642c <payload_bin+0x5e74>
   26458:	3b40006f          	j	2680c <payload_bin+0x6254>
   2645c:	f9043783          	ld	a5,-112(s0)
   26460:	00878713          	addi	a4,a5,8
   26464:	f8e43823          	sd	a4,-112(s0)
   26468:	0007b783          	ld	a5,0(a5)
   2646c:	fcf43c23          	sd	a5,-40(s0)
   26470:	fd843783          	ld	a5,-40(s0)
   26474:	00079863          	bnez	a5,26484 <payload_bin+0x5ecc>
   26478:	00002797          	auipc	a5,0x2
   2647c:	dc078793          	addi	a5,a5,-576 # 28238 <payload_bin+0x7c80>
   26480:	fcf43c23          	sd	a5,-40(s0)
   26484:	fd843503          	ld	a0,-40(s0)
   26488:	5e4000ef          	jal	ra,26a6c <payload_bin+0x64b4>
   2648c:	00050793          	mv	a5,a0
   26490:	fcf42823          	sw	a5,-48(s0)
   26494:	fb042783          	lw	a5,-80(s0)
   26498:	0007d863          	bgez	a5,264a8 <payload_bin+0x5ef0>
   2649c:	fd042783          	lw	a5,-48(s0)
   264a0:	faf42823          	sw	a5,-80(s0)
   264a4:	01c0006f          	j	264c0 <payload_bin+0x5f08>
   264a8:	fb042703          	lw	a4,-80(s0)
   264ac:	fd042783          	lw	a5,-48(s0)
   264b0:	0007879b          	sext.w	a5,a5
   264b4:	00f75663          	bge	a4,a5,264c0 <payload_bin+0x5f08>
   264b8:	fb042783          	lw	a5,-80(s0)
   264bc:	fcf42823          	sw	a5,-48(s0)
   264c0:	fe442783          	lw	a5,-28(s0)
   264c4:	0107f793          	andi	a5,a5,16
   264c8:	0007879b          	sext.w	a5,a5
   264cc:	02079c63          	bnez	a5,26504 <payload_bin+0x5f4c>
   264d0:	0180006f          	j	264e8 <payload_bin+0x5f30>
   264d4:	fe843783          	ld	a5,-24(s0)
   264d8:	00178713          	addi	a4,a5,1
   264dc:	fee43423          	sd	a4,-24(s0)
   264e0:	02000713          	li	a4,32
   264e4:	00e78023          	sb	a4,0(a5)
   264e8:	fb442783          	lw	a5,-76(s0)
   264ec:	fff7871b          	addiw	a4,a5,-1
   264f0:	0007071b          	sext.w	a4,a4
   264f4:	fae42a23          	sw	a4,-76(s0)
   264f8:	fd042703          	lw	a4,-48(s0)
   264fc:	0007071b          	sext.w	a4,a4
   26500:	fcf74ae3          	blt	a4,a5,264d4 <payload_bin+0x5f1c>
   26504:	fc042a23          	sw	zero,-44(s0)
   26508:	0300006f          	j	26538 <payload_bin+0x5f80>
   2650c:	fd843703          	ld	a4,-40(s0)
   26510:	00170793          	addi	a5,a4,1
   26514:	fcf43c23          	sd	a5,-40(s0)
   26518:	fe843783          	ld	a5,-24(s0)
   2651c:	00178693          	addi	a3,a5,1
   26520:	fed43423          	sd	a3,-24(s0)
   26524:	00074703          	lbu	a4,0(a4)
   26528:	00e78023          	sb	a4,0(a5)
   2652c:	fd442783          	lw	a5,-44(s0)
   26530:	0017879b          	addiw	a5,a5,1
   26534:	fcf42a23          	sw	a5,-44(s0)
   26538:	fd442703          	lw	a4,-44(s0)
   2653c:	fd042783          	lw	a5,-48(s0)
   26540:	0007071b          	sext.w	a4,a4
   26544:	0007879b          	sext.w	a5,a5
   26548:	fcf742e3          	blt	a4,a5,2650c <payload_bin+0x5f54>
   2654c:	0180006f          	j	26564 <payload_bin+0x5fac>
   26550:	fe843783          	ld	a5,-24(s0)
   26554:	00178713          	addi	a4,a5,1
   26558:	fee43423          	sd	a4,-24(s0)
   2655c:	02000713          	li	a4,32
   26560:	00e78023          	sb	a4,0(a5)
   26564:	fb442783          	lw	a5,-76(s0)
   26568:	fff7871b          	addiw	a4,a5,-1
   2656c:	0007071b          	sext.w	a4,a4
   26570:	fae42a23          	sw	a4,-76(s0)
   26574:	fd042703          	lw	a4,-48(s0)
   26578:	0007071b          	sext.w	a4,a4
   2657c:	fcf74ae3          	blt	a4,a5,26550 <payload_bin+0x5f98>
   26580:	28c0006f          	j	2680c <payload_bin+0x6254>
   26584:	f9043783          	ld	a5,-112(s0)
   26588:	00878713          	addi	a4,a5,8
   2658c:	f8e43823          	sd	a4,-112(s0)
   26590:	0007b783          	ld	a5,0(a5)
   26594:	faf43c23          	sd	a5,-72(s0)
   26598:	fe843703          	ld	a4,-24(s0)
   2659c:	fa843783          	ld	a5,-88(s0)
   265a0:	40f707b3          	sub	a5,a4,a5
   265a4:	0ff7f713          	andi	a4,a5,255
   265a8:	fb843783          	ld	a5,-72(s0)
   265ac:	00e78023          	sb	a4,0(a5)
   265b0:	25c0006f          	j	2680c <payload_bin+0x6254>
   265b4:	fb442783          	lw	a5,-76(s0)
   265b8:	00078713          	mv	a4,a5
   265bc:	fff00793          	li	a5,-1
   265c0:	00f71c63          	bne	a4,a5,265d8 <payload_bin+0x6020>
   265c4:	01000793          	li	a5,16
   265c8:	faf42a23          	sw	a5,-76(s0)
   265cc:	fe442783          	lw	a5,-28(s0)
   265d0:	0017e793          	ori	a5,a5,1
   265d4:	fef42223          	sw	a5,-28(s0)
   265d8:	f9043783          	ld	a5,-112(s0)
   265dc:	00878713          	addi	a4,a5,8
   265e0:	f8e43823          	sd	a4,-112(s0)
   265e4:	0007b783          	ld	a5,0(a5)
   265e8:	00078593          	mv	a1,a5
   265ec:	fb442683          	lw	a3,-76(s0)
   265f0:	fb042703          	lw	a4,-80(s0)
   265f4:	fe442783          	lw	a5,-28(s0)
   265f8:	01000613          	li	a2,16
   265fc:	fe843503          	ld	a0,-24(s0)
   26600:	ea8ff0ef          	jal	ra,25ca8 <payload_bin+0x56f0>
   26604:	fea43423          	sd	a0,-24(s0)
   26608:	2040006f          	j	2680c <payload_bin+0x6254>
   2660c:	00800793          	li	a5,8
   26610:	fcf42223          	sw	a5,-60(s0)
   26614:	0940006f          	j	266a8 <payload_bin+0x60f0>
   26618:	fe442783          	lw	a5,-28(s0)
   2661c:	0407e793          	ori	a5,a5,64
   26620:	fef42223          	sw	a5,-28(s0)
   26624:	01000793          	li	a5,16
   26628:	fcf42223          	sw	a5,-60(s0)
   2662c:	07c0006f          	j	266a8 <payload_bin+0x60f0>
   26630:	fe442783          	lw	a5,-28(s0)
   26634:	0027e793          	ori	a5,a5,2
   26638:	fef42223          	sw	a5,-28(s0)
   2663c:	00a00793          	li	a5,10
   26640:	fcf42223          	sw	a5,-60(s0)
   26644:	0640006f          	j	266a8 <payload_bin+0x60f0>
   26648:	f9843783          	ld	a5,-104(s0)
   2664c:	0007c783          	lbu	a5,0(a5)
   26650:	00078713          	mv	a4,a5
   26654:	02500793          	li	a5,37
   26658:	00f70c63          	beq	a4,a5,26670 <payload_bin+0x60b8>
   2665c:	fe843783          	ld	a5,-24(s0)
   26660:	00178713          	addi	a4,a5,1
   26664:	fee43423          	sd	a4,-24(s0)
   26668:	02500713          	li	a4,37
   2666c:	00e78023          	sb	a4,0(a5)
   26670:	f9843783          	ld	a5,-104(s0)
   26674:	0007c783          	lbu	a5,0(a5)
   26678:	02078063          	beqz	a5,26698 <payload_bin+0x60e0>
   2667c:	fe843783          	ld	a5,-24(s0)
   26680:	00178713          	addi	a4,a5,1
   26684:	fee43423          	sd	a4,-24(s0)
   26688:	f9843703          	ld	a4,-104(s0)
   2668c:	00074703          	lbu	a4,0(a4)
   26690:	00e78023          	sb	a4,0(a5)
   26694:	0100006f          	j	266a4 <payload_bin+0x60ec>
   26698:	f9843783          	ld	a5,-104(s0)
   2669c:	fff78793          	addi	a5,a5,-1
   266a0:	f8f43c23          	sd	a5,-104(s0)
   266a4:	00000013          	nop
   266a8:	fe042783          	lw	a5,-32(s0)
   266ac:	0007871b          	sext.w	a4,a5
   266b0:	04c00793          	li	a5,76
   266b4:	04f71263          	bne	a4,a5,266f8 <payload_bin+0x6140>
   266b8:	fe442783          	lw	a5,-28(s0)
   266bc:	0027f793          	andi	a5,a5,2
   266c0:	0007879b          	sext.w	a5,a5
   266c4:	00078e63          	beqz	a5,266e0 <payload_bin+0x6128>
   266c8:	f9043783          	ld	a5,-112(s0)
   266cc:	00878713          	addi	a4,a5,8
   266d0:	f8e43823          	sd	a4,-112(s0)
   266d4:	0007b783          	ld	a5,0(a5)
   266d8:	fcf43423          	sd	a5,-56(s0)
   266dc:	1100006f          	j	267ec <payload_bin+0x6234>
   266e0:	f9043783          	ld	a5,-112(s0)
   266e4:	00878713          	addi	a4,a5,8
   266e8:	f8e43823          	sd	a4,-112(s0)
   266ec:	0007b783          	ld	a5,0(a5)
   266f0:	fcf43423          	sd	a5,-56(s0)
   266f4:	0f80006f          	j	267ec <payload_bin+0x6234>
   266f8:	fe042783          	lw	a5,-32(s0)
   266fc:	0007871b          	sext.w	a4,a5
   26700:	06800793          	li	a5,104
   26704:	04f71a63          	bne	a4,a5,26758 <payload_bin+0x61a0>
   26708:	fe442783          	lw	a5,-28(s0)
   2670c:	0027f793          	andi	a5,a5,2
   26710:	0007879b          	sext.w	a5,a5
   26714:	02078263          	beqz	a5,26738 <payload_bin+0x6180>
   26718:	f9043783          	ld	a5,-112(s0)
   2671c:	00878713          	addi	a4,a5,8
   26720:	f8e43823          	sd	a4,-112(s0)
   26724:	0007a783          	lw	a5,0(a5)
   26728:	0107979b          	slliw	a5,a5,0x10
   2672c:	4107d79b          	sraiw	a5,a5,0x10
   26730:	fcf43423          	sd	a5,-56(s0)
   26734:	0b80006f          	j	267ec <payload_bin+0x6234>
   26738:	f9043783          	ld	a5,-112(s0)
   2673c:	00878713          	addi	a4,a5,8
   26740:	f8e43823          	sd	a4,-112(s0)
   26744:	0007a783          	lw	a5,0(a5)
   26748:	03079793          	slli	a5,a5,0x30
   2674c:	0307d793          	srli	a5,a5,0x30
   26750:	fcf43423          	sd	a5,-56(s0)
   26754:	0980006f          	j	267ec <payload_bin+0x6234>
   26758:	fe042783          	lw	a5,-32(s0)
   2675c:	0007871b          	sext.w	a4,a5
   26760:	06c00793          	li	a5,108
   26764:	04f71263          	bne	a4,a5,267a8 <payload_bin+0x61f0>
   26768:	fe442783          	lw	a5,-28(s0)
   2676c:	0027f793          	andi	a5,a5,2
   26770:	0007879b          	sext.w	a5,a5
   26774:	00078e63          	beqz	a5,26790 <payload_bin+0x61d8>
   26778:	f9043783          	ld	a5,-112(s0)
   2677c:	00878713          	addi	a4,a5,8
   26780:	f8e43823          	sd	a4,-112(s0)
   26784:	0007b783          	ld	a5,0(a5)
   26788:	fcf43423          	sd	a5,-56(s0)
   2678c:	0600006f          	j	267ec <payload_bin+0x6234>
   26790:	f9043783          	ld	a5,-112(s0)
   26794:	00878713          	addi	a4,a5,8
   26798:	f8e43823          	sd	a4,-112(s0)
   2679c:	0007b783          	ld	a5,0(a5)
   267a0:	fcf43423          	sd	a5,-56(s0)
   267a4:	0480006f          	j	267ec <payload_bin+0x6234>
   267a8:	fe442783          	lw	a5,-28(s0)
   267ac:	0027f793          	andi	a5,a5,2
   267b0:	0007879b          	sext.w	a5,a5
   267b4:	00078e63          	beqz	a5,267d0 <payload_bin+0x6218>
   267b8:	f9043783          	ld	a5,-112(s0)
   267bc:	00878713          	addi	a4,a5,8
   267c0:	f8e43823          	sd	a4,-112(s0)
   267c4:	0007a783          	lw	a5,0(a5)
   267c8:	fcf43423          	sd	a5,-56(s0)
   267cc:	0200006f          	j	267ec <payload_bin+0x6234>
   267d0:	f9043783          	ld	a5,-112(s0)
   267d4:	00878713          	addi	a4,a5,8
   267d8:	f8e43823          	sd	a4,-112(s0)
   267dc:	0007a783          	lw	a5,0(a5)
   267e0:	02079793          	slli	a5,a5,0x20
   267e4:	0207d793          	srli	a5,a5,0x20
   267e8:	fcf43423          	sd	a5,-56(s0)
   267ec:	fb442683          	lw	a3,-76(s0)
   267f0:	fb042703          	lw	a4,-80(s0)
   267f4:	fe442783          	lw	a5,-28(s0)
   267f8:	fc442603          	lw	a2,-60(s0)
   267fc:	fc843583          	ld	a1,-56(s0)
   26800:	fe843503          	ld	a0,-24(s0)
   26804:	ca4ff0ef          	jal	ra,25ca8 <payload_bin+0x56f0>
   26808:	fea43423          	sd	a0,-24(s0)
   2680c:	f9843783          	ld	a5,-104(s0)
   26810:	00178793          	addi	a5,a5,1
   26814:	f8f43c23          	sd	a5,-104(s0)
   26818:	f9843783          	ld	a5,-104(s0)
   2681c:	0007c783          	lbu	a5,0(a5)
   26820:	8a079ce3          	bnez	a5,260d8 <payload_bin+0x5b20>
   26824:	fe843783          	ld	a5,-24(s0)
   26828:	00078023          	sb	zero,0(a5)
   2682c:	fe843703          	ld	a4,-24(s0)
   26830:	fa843783          	ld	a5,-88(s0)
   26834:	40f707b3          	sub	a5,a4,a5
   26838:	0007879b          	sext.w	a5,a5
   2683c:	00078513          	mv	a0,a5
   26840:	06813083          	ld	ra,104(sp)
   26844:	06013403          	ld	s0,96(sp)
   26848:	07010113          	addi	sp,sp,112
   2684c:	00008067          	ret
   26850:	fe010113          	addi	sp,sp,-32
   26854:	00113c23          	sd	ra,24(sp)
   26858:	00813823          	sd	s0,16(sp)
   2685c:	02010413          	addi	s0,sp,32
   26860:	00003797          	auipc	a5,0x3
   26864:	ef878793          	addi	a5,a5,-264 # 29758 <stacks_start+0x758>
   26868:	00100713          	li	a4,1
   2686c:	00e7a023          	sw	a4,0(a5)
   26870:	fe043423          	sd	zero,-24(s0)
   26874:	0300006f          	j	268a4 <payload_bin+0x62ec>
   26878:	00003717          	auipc	a4,0x3
   2687c:	de070713          	addi	a4,a4,-544 # 29658 <stacks_start+0x658>
   26880:	fe843783          	ld	a5,-24(s0)
   26884:	00f707b3          	add	a5,a4,a5
   26888:	0007c783          	lbu	a5,0(a5)
   2688c:	0007879b          	sext.w	a5,a5
   26890:	00078513          	mv	a0,a5
   26894:	591000ef          	jal	ra,27624 <payload_bin+0x706c>
   26898:	fe843783          	ld	a5,-24(s0)
   2689c:	00178793          	addi	a5,a5,1
   268a0:	fef43423          	sd	a5,-24(s0)
   268a4:	00003797          	auipc	a5,0x3
   268a8:	ebc78793          	addi	a5,a5,-324 # 29760 <stacks_start+0x760>
   268ac:	0007b783          	ld	a5,0(a5)
   268b0:	fe843703          	ld	a4,-24(s0)
   268b4:	fcf762e3          	bltu	a4,a5,26878 <payload_bin+0x62c0>
   268b8:	00003797          	auipc	a5,0x3
   268bc:	c9878793          	addi	a5,a5,-872 # 29550 <stacks_start+0x550>
   268c0:	00003717          	auipc	a4,0x3
   268c4:	d9870713          	addi	a4,a4,-616 # 29658 <stacks_start+0x658>
   268c8:	00e7b023          	sd	a4,0(a5)
   268cc:	00003797          	auipc	a5,0x3
   268d0:	e9478793          	addi	a5,a5,-364 # 29760 <stacks_start+0x760>
   268d4:	0007b023          	sd	zero,0(a5)
   268d8:	00000013          	nop
   268dc:	01813083          	ld	ra,24(sp)
   268e0:	01013403          	ld	s0,16(sp)
   268e4:	02010113          	addi	sp,sp,32
   268e8:	00008067          	ret
   268ec:	f9010113          	addi	sp,sp,-112
   268f0:	02113423          	sd	ra,40(sp)
   268f4:	02813023          	sd	s0,32(sp)
   268f8:	03010413          	addi	s0,sp,48
   268fc:	fca43c23          	sd	a0,-40(s0)
   26900:	00b43423          	sd	a1,8(s0)
   26904:	00c43823          	sd	a2,16(s0)
   26908:	00d43c23          	sd	a3,24(s0)
   2690c:	02e43023          	sd	a4,32(s0)
   26910:	02f43423          	sd	a5,40(s0)
   26914:	03043823          	sd	a6,48(s0)
   26918:	03143c23          	sd	a7,56(s0)
   2691c:	04040793          	addi	a5,s0,64
   26920:	fcf43823          	sd	a5,-48(s0)
   26924:	fd043783          	ld	a5,-48(s0)
   26928:	fc878793          	addi	a5,a5,-56
   2692c:	fef43023          	sd	a5,-32(s0)
   26930:	fe043783          	ld	a5,-32(s0)
   26934:	00078693          	mv	a3,a5
   26938:	fd843603          	ld	a2,-40(s0)
   2693c:	10000593          	li	a1,256
   26940:	00003517          	auipc	a0,0x3
   26944:	c1850513          	addi	a0,a0,-1000 # 29558 <stacks_start+0x558>
   26948:	f60ff0ef          	jal	ra,260a8 <payload_bin+0x5af0>
   2694c:	00050793          	mv	a5,a0
   26950:	fef42423          	sw	a5,-24(s0)
   26954:	00003797          	auipc	a5,0x3
   26958:	e0478793          	addi	a5,a5,-508 # 29758 <stacks_start+0x758>
   2695c:	0007a783          	lw	a5,0(a5)
   26960:	06079663          	bnez	a5,269cc <payload_bin+0x6414>
   26964:	00003797          	auipc	a5,0x3
   26968:	bec78793          	addi	a5,a5,-1044 # 29550 <stacks_start+0x550>
   2696c:	0007b783          	ld	a5,0(a5)
   26970:	fe842703          	lw	a4,-24(s0)
   26974:	00070613          	mv	a2,a4
   26978:	00003597          	auipc	a1,0x3
   2697c:	be058593          	addi	a1,a1,-1056 # 29558 <stacks_start+0x558>
   26980:	00078513          	mv	a0,a5
   26984:	138000ef          	jal	ra,26abc <payload_bin+0x6504>
   26988:	fe842703          	lw	a4,-24(s0)
   2698c:	00003797          	auipc	a5,0x3
   26990:	ccc78793          	addi	a5,a5,-820 # 29658 <stacks_start+0x658>
   26994:	00f70733          	add	a4,a4,a5
   26998:	00003797          	auipc	a5,0x3
   2699c:	bb878793          	addi	a5,a5,-1096 # 29550 <stacks_start+0x550>
   269a0:	00e7b023          	sd	a4,0(a5)
   269a4:	fe842703          	lw	a4,-24(s0)
   269a8:	00003797          	auipc	a5,0x3
   269ac:	db878793          	addi	a5,a5,-584 # 29760 <stacks_start+0x760>
   269b0:	0007b783          	ld	a5,0(a5)
   269b4:	00f70733          	add	a4,a4,a5
   269b8:	00003797          	auipc	a5,0x3
   269bc:	da878793          	addi	a5,a5,-600 # 29760 <stacks_start+0x760>
   269c0:	00e7b023          	sd	a4,0(a5)
   269c4:	00000793          	li	a5,0
   269c8:	0900006f          	j	26a58 <payload_bin+0x64a0>
   269cc:	fe042623          	sw	zero,-20(s0)
   269d0:	0680006f          	j	26a38 <payload_bin+0x6480>
   269d4:	00003717          	auipc	a4,0x3
   269d8:	b8470713          	addi	a4,a4,-1148 # 29558 <stacks_start+0x558>
   269dc:	fec42783          	lw	a5,-20(s0)
   269e0:	00f707b3          	add	a5,a4,a5
   269e4:	0007c783          	lbu	a5,0(a5)
   269e8:	00078713          	mv	a4,a5
   269ec:	00a00793          	li	a5,10
   269f0:	00f71663          	bne	a4,a5,269fc <payload_bin+0x6444>
   269f4:	00d00513          	li	a0,13
   269f8:	42d000ef          	jal	ra,27624 <payload_bin+0x706c>
   269fc:	00003717          	auipc	a4,0x3
   26a00:	b5c70713          	addi	a4,a4,-1188 # 29558 <stacks_start+0x558>
   26a04:	fec42783          	lw	a5,-20(s0)
   26a08:	00f707b3          	add	a5,a4,a5
   26a0c:	0007c783          	lbu	a5,0(a5)
   26a10:	0007879b          	sext.w	a5,a5
   26a14:	00078513          	mv	a0,a5
   26a18:	40d000ef          	jal	ra,27624 <payload_bin+0x706c>
   26a1c:	fec42783          	lw	a5,-20(s0)
   26a20:	00078713          	mv	a4,a5
   26a24:	10000793          	li	a5,256
   26a28:	02e7e463          	bltu	a5,a4,26a50 <payload_bin+0x6498>
   26a2c:	fec42783          	lw	a5,-20(s0)
   26a30:	0017879b          	addiw	a5,a5,1
   26a34:	fef42623          	sw	a5,-20(s0)
   26a38:	fec42703          	lw	a4,-20(s0)
   26a3c:	fe842783          	lw	a5,-24(s0)
   26a40:	0007071b          	sext.w	a4,a4
   26a44:	0007879b          	sext.w	a5,a5
   26a48:	f8f746e3          	blt	a4,a5,269d4 <payload_bin+0x641c>
   26a4c:	0080006f          	j	26a54 <payload_bin+0x649c>
   26a50:	00000013          	nop
   26a54:	fe842783          	lw	a5,-24(s0)
   26a58:	00078513          	mv	a0,a5
   26a5c:	02813083          	ld	ra,40(sp)
   26a60:	02013403          	ld	s0,32(sp)
   26a64:	07010113          	addi	sp,sp,112
   26a68:	00008067          	ret
   26a6c:	fd010113          	addi	sp,sp,-48
   26a70:	02813423          	sd	s0,40(sp)
   26a74:	03010413          	addi	s0,sp,48
   26a78:	fca43c23          	sd	a0,-40(s0)
   26a7c:	fd843783          	ld	a5,-40(s0)
   26a80:	fef43423          	sd	a5,-24(s0)
   26a84:	0100006f          	j	26a94 <payload_bin+0x64dc>
   26a88:	fe843783          	ld	a5,-24(s0)
   26a8c:	00178793          	addi	a5,a5,1
   26a90:	fef43423          	sd	a5,-24(s0)
   26a94:	fe843783          	ld	a5,-24(s0)
   26a98:	0007c783          	lbu	a5,0(a5)
   26a9c:	fe0796e3          	bnez	a5,26a88 <payload_bin+0x64d0>
   26aa0:	fe843703          	ld	a4,-24(s0)
   26aa4:	fd843783          	ld	a5,-40(s0)
   26aa8:	40f707b3          	sub	a5,a4,a5
   26aac:	00078513          	mv	a0,a5
   26ab0:	02813403          	ld	s0,40(sp)
   26ab4:	03010113          	addi	sp,sp,48
   26ab8:	00008067          	ret
   26abc:	fc010113          	addi	sp,sp,-64
   26ac0:	02813c23          	sd	s0,56(sp)
   26ac4:	04010413          	addi	s0,sp,64
   26ac8:	fca43c23          	sd	a0,-40(s0)
   26acc:	fcb43823          	sd	a1,-48(s0)
   26ad0:	fcc43423          	sd	a2,-56(s0)
   26ad4:	fd843783          	ld	a5,-40(s0)
   26ad8:	fef43423          	sd	a5,-24(s0)
   26adc:	fd043783          	ld	a5,-48(s0)
   26ae0:	fef43023          	sd	a5,-32(s0)
   26ae4:	0240006f          	j	26b08 <payload_bin+0x6550>
   26ae8:	fe043703          	ld	a4,-32(s0)
   26aec:	00170793          	addi	a5,a4,1
   26af0:	fef43023          	sd	a5,-32(s0)
   26af4:	fe843783          	ld	a5,-24(s0)
   26af8:	00178693          	addi	a3,a5,1
   26afc:	fed43423          	sd	a3,-24(s0)
   26b00:	00074703          	lbu	a4,0(a4)
   26b04:	00e78023          	sb	a4,0(a5)
   26b08:	fc843783          	ld	a5,-56(s0)
   26b0c:	fff78713          	addi	a4,a5,-1
   26b10:	fce43423          	sd	a4,-56(s0)
   26b14:	fc079ae3          	bnez	a5,26ae8 <payload_bin+0x6530>
   26b18:	fd843783          	ld	a5,-40(s0)
   26b1c:	00078513          	mv	a0,a5
   26b20:	03813403          	ld	s0,56(sp)
   26b24:	04010113          	addi	sp,sp,64
   26b28:	00008067          	ret
   26b2c:	fe010113          	addi	sp,sp,-32
   26b30:	00813c23          	sd	s0,24(sp)
   26b34:	02010413          	addi	s0,sp,32
   26b38:	fea43423          	sd	a0,-24(s0)
   26b3c:	fe843783          	ld	a5,-24(s0)
   26b40:	0007a783          	lw	a5,0(a5)
   26b44:	0007879b          	sext.w	a5,a5
   26b48:	00078513          	mv	a0,a5
   26b4c:	01813403          	ld	s0,24(sp)
   26b50:	02010113          	addi	sp,sp,32
   26b54:	00008067          	ret
   26b58:	fe010113          	addi	sp,sp,-32
   26b5c:	00813c23          	sd	s0,24(sp)
   26b60:	02010413          	addi	s0,sp,32
   26b64:	fea43423          	sd	a0,-24(s0)
   26b68:	00058793          	mv	a5,a1
   26b6c:	fef42223          	sw	a5,-28(s0)
   26b70:	fe843783          	ld	a5,-24(s0)
   26b74:	fe442703          	lw	a4,-28(s0)
   26b78:	00e7a023          	sw	a4,0(a5)
   26b7c:	00000013          	nop
   26b80:	01813403          	ld	s0,24(sp)
   26b84:	02010113          	addi	sp,sp,32
   26b88:	00008067          	ret
   26b8c:	fe010113          	addi	sp,sp,-32
   26b90:	00813c23          	sd	s0,24(sp)
   26b94:	02010413          	addi	s0,sp,32
   26b98:	fea43423          	sd	a0,-24(s0)
   26b9c:	fe843783          	ld	a5,-24(s0)
   26ba0:	00a79793          	slli	a5,a5,0xa
   26ba4:	fef43423          	sd	a5,-24(s0)
   26ba8:	00000013          	nop
   26bac:	fe843783          	ld	a5,-24(s0)
   26bb0:	fff78713          	addi	a4,a5,-1
   26bb4:	fee43423          	sd	a4,-24(s0)
   26bb8:	fe079ae3          	bnez	a5,26bac <payload_bin+0x65f4>
   26bbc:	00000013          	nop
   26bc0:	00000013          	nop
   26bc4:	01813403          	ld	s0,24(sp)
   26bc8:	02010113          	addi	sp,sp,32
   26bcc:	00008067          	ret
   26bd0:	fe010113          	addi	sp,sp,-32
   26bd4:	00113c23          	sd	ra,24(sp)
   26bd8:	00813823          	sd	s0,16(sp)
   26bdc:	02010413          	addi	s0,sp,32
   26be0:	30100593          	li	a1,769
   26be4:	020027b7          	lui	a5,0x2002
   26be8:	d0078513          	addi	a0,a5,-768 # 2001d00 <bss_begin+0x1fd7d00>
   26bec:	f6dff0ef          	jal	ra,26b58 <payload_bin+0x65a0>
   26bf0:	00100513          	li	a0,1
   26bf4:	f99ff0ef          	jal	ra,26b8c <payload_bin+0x65d4>
   26bf8:	02001537          	lui	a0,0x2001
   26bfc:	f31ff0ef          	jal	ra,26b2c <payload_bin+0x6574>
   26c00:	00050793          	mv	a5,a0
   26c04:	fef42623          	sw	a5,-20(s0)
   26c08:	fec42703          	lw	a4,-20(s0)
   26c0c:	f80007b7          	lui	a5,0xf8000
   26c10:	fff78793          	addi	a5,a5,-1 # fffffffff7ffffff <bss_begin+0xfffffffff7fd5fff>
   26c14:	00f777b3          	and	a5,a4,a5
   26c18:	fef42623          	sw	a5,-20(s0)
   26c1c:	fec42783          	lw	a5,-20(s0)
   26c20:	00078593          	mv	a1,a5
   26c24:	02001537          	lui	a0,0x2001
   26c28:	f31ff0ef          	jal	ra,26b58 <payload_bin+0x65a0>
   26c2c:	02001537          	lui	a0,0x2001
   26c30:	efdff0ef          	jal	ra,26b2c <payload_bin+0x6574>
   26c34:	00050793          	mv	a5,a0
   26c38:	fef42623          	sw	a5,-20(s0)
   26c3c:	fec42703          	lw	a4,-20(s0)
   26c40:	400007b7          	lui	a5,0x40000
   26c44:	00f767b3          	or	a5,a4,a5
   26c48:	fef42623          	sw	a5,-20(s0)
   26c4c:	fec42783          	lw	a5,-20(s0)
   26c50:	00078593          	mv	a1,a5
   26c54:	02001537          	lui	a0,0x2001
   26c58:	f01ff0ef          	jal	ra,26b58 <payload_bin+0x65a0>
   26c5c:	00500513          	li	a0,5
   26c60:	f2dff0ef          	jal	ra,26b8c <payload_bin+0x65d4>
   26c64:	02001537          	lui	a0,0x2001
   26c68:	ec5ff0ef          	jal	ra,26b2c <payload_bin+0x6574>
   26c6c:	00050793          	mv	a5,a0
   26c70:	fef42623          	sw	a5,-20(s0)
   26c74:	fec42703          	lw	a4,-20(s0)
   26c78:	fffc07b7          	lui	a5,0xfffc0
   26c7c:	0fc78793          	addi	a5,a5,252 # fffffffffffc00fc <bss_begin+0xfffffffffff960fc>
   26c80:	00f777b3          	and	a5,a4,a5
   26c84:	fef42623          	sw	a5,-20(s0)
   26c88:	fec42703          	lw	a4,-20(s0)
   26c8c:	000037b7          	lui	a5,0x3
   26c90:	90078793          	addi	a5,a5,-1792 # 2900 <__bin_size-0x7700>
   26c94:	00f767b3          	or	a5,a4,a5
   26c98:	fef42623          	sw	a5,-20(s0)
   26c9c:	fec42783          	lw	a5,-20(s0)
   26ca0:	00078593          	mv	a1,a5
   26ca4:	02001537          	lui	a0,0x2001
   26ca8:	eb1ff0ef          	jal	ra,26b58 <payload_bin+0x65a0>
   26cac:	02001537          	lui	a0,0x2001
   26cb0:	e7dff0ef          	jal	ra,26b2c <payload_bin+0x6574>
   26cb4:	00050793          	mv	a5,a0
   26cb8:	fef42623          	sw	a5,-20(s0)
   26cbc:	fec42703          	lw	a4,-20(s0)
   26cc0:	200007b7          	lui	a5,0x20000
   26cc4:	00f767b3          	or	a5,a4,a5
   26cc8:	fef42623          	sw	a5,-20(s0)
   26ccc:	fec42783          	lw	a5,-20(s0)
   26cd0:	00078593          	mv	a1,a5
   26cd4:	02001537          	lui	a0,0x2001
   26cd8:	e81ff0ef          	jal	ra,26b58 <payload_bin+0x65a0>
   26cdc:	02001537          	lui	a0,0x2001
   26ce0:	e4dff0ef          	jal	ra,26b2c <payload_bin+0x6574>
   26ce4:	00050793          	mv	a5,a0
   26ce8:	fef42623          	sw	a5,-20(s0)
   26cec:	fec42703          	lw	a4,-20(s0)
   26cf0:	800007b7          	lui	a5,0x80000
   26cf4:	00f767b3          	or	a5,a4,a5
   26cf8:	fef42623          	sw	a5,-20(s0)
   26cfc:	fec42783          	lw	a5,-20(s0)
   26d00:	00078593          	mv	a1,a5
   26d04:	02001537          	lui	a0,0x2001
   26d08:	e51ff0ef          	jal	ra,26b58 <payload_bin+0x65a0>
   26d0c:	00000013          	nop
   26d10:	02001537          	lui	a0,0x2001
   26d14:	e19ff0ef          	jal	ra,26b2c <payload_bin+0x6574>
   26d18:	00050793          	mv	a5,a0
   26d1c:	0007879b          	sext.w	a5,a5
   26d20:	00078713          	mv	a4,a5
   26d24:	100007b7          	lui	a5,0x10000
   26d28:	00f777b3          	and	a5,a4,a5
   26d2c:	0007879b          	sext.w	a5,a5
   26d30:	fe0780e3          	beqz	a5,26d10 <payload_bin+0x6758>
   26d34:	01400513          	li	a0,20
   26d38:	e55ff0ef          	jal	ra,26b8c <payload_bin+0x65d4>
   26d3c:	02001537          	lui	a0,0x2001
   26d40:	dedff0ef          	jal	ra,26b2c <payload_bin+0x6574>
   26d44:	00050793          	mv	a5,a0
   26d48:	fef42623          	sw	a5,-20(s0)
   26d4c:	fec42703          	lw	a4,-20(s0)
   26d50:	080007b7          	lui	a5,0x8000
   26d54:	00f767b3          	or	a5,a4,a5
   26d58:	fef42623          	sw	a5,-20(s0)
   26d5c:	fec42783          	lw	a5,-20(s0)
   26d60:	00078593          	mv	a1,a5
   26d64:	02001537          	lui	a0,0x2001
   26d68:	df1ff0ef          	jal	ra,26b58 <payload_bin+0x65a0>
   26d6c:	02001537          	lui	a0,0x2001
   26d70:	dbdff0ef          	jal	ra,26b2c <payload_bin+0x6574>
   26d74:	00050793          	mv	a5,a0
   26d78:	fef42623          	sw	a5,-20(s0)
   26d7c:	fec42703          	lw	a4,-20(s0)
   26d80:	e00007b7          	lui	a5,0xe0000
   26d84:	fff78793          	addi	a5,a5,-1 # ffffffffdfffffff <bss_begin+0xffffffffdffd5fff>
   26d88:	00f777b3          	and	a5,a4,a5
   26d8c:	fef42623          	sw	a5,-20(s0)
   26d90:	fec42783          	lw	a5,-20(s0)
   26d94:	00078593          	mv	a1,a5
   26d98:	02001537          	lui	a0,0x2001
   26d9c:	dbdff0ef          	jal	ra,26b58 <payload_bin+0x65a0>
   26da0:	00100513          	li	a0,1
   26da4:	de9ff0ef          	jal	ra,26b8c <payload_bin+0x65d4>
   26da8:	020027b7          	lui	a5,0x2002
   26dac:	d0078513          	addi	a0,a5,-768 # 2001d00 <bss_begin+0x1fd7d00>
   26db0:	d7dff0ef          	jal	ra,26b2c <payload_bin+0x6574>
   26db4:	00050793          	mv	a5,a0
   26db8:	fef42623          	sw	a5,-20(s0)
   26dbc:	fec42703          	lw	a4,-20(s0)
   26dc0:	f90007b7          	lui	a5,0xf9000
   26dc4:	cf078793          	addi	a5,a5,-784 # fffffffff8fffcf0 <bss_begin+0xfffffffff8fd5cf0>
   26dc8:	00f777b3          	and	a5,a4,a5
   26dcc:	fef42623          	sw	a5,-20(s0)
   26dd0:	fec42703          	lw	a4,-20(s0)
   26dd4:	050007b7          	lui	a5,0x5000
   26dd8:	10078793          	addi	a5,a5,256 # 5000100 <bss_begin+0x4fd6100>
   26ddc:	00f767b3          	or	a5,a4,a5
   26de0:	fef42623          	sw	a5,-20(s0)
   26de4:	fec42783          	lw	a5,-20(s0)
   26de8:	00078593          	mv	a1,a5
   26dec:	020027b7          	lui	a5,0x2002
   26df0:	d0078513          	addi	a0,a5,-768 # 2001d00 <bss_begin+0x1fd7d00>
   26df4:	d65ff0ef          	jal	ra,26b58 <payload_bin+0x65a0>
   26df8:	00100513          	li	a0,1
   26dfc:	d91ff0ef          	jal	ra,26b8c <payload_bin+0x65d4>
   26e00:	00000013          	nop
   26e04:	01813083          	ld	ra,24(sp)
   26e08:	01013403          	ld	s0,16(sp)
   26e0c:	02010113          	addi	sp,sp,32
   26e10:	00008067          	ret
   26e14:	fe010113          	addi	sp,sp,-32
   26e18:	00113c23          	sd	ra,24(sp)
   26e1c:	00813823          	sd	s0,16(sp)
   26e20:	02010413          	addi	s0,sp,32
   26e24:	020017b7          	lui	a5,0x2001
   26e28:	02078513          	addi	a0,a5,32 # 2001020 <bss_begin+0x1fd7020>
   26e2c:	d01ff0ef          	jal	ra,26b2c <payload_bin+0x6574>
   26e30:	00050793          	mv	a5,a0
   26e34:	0007879b          	sext.w	a5,a5
   26e38:	0007879b          	sext.w	a5,a5
   26e3c:	1207cc63          	bltz	a5,26f74 <payload_bin+0x69bc>
   26e40:	020017b7          	lui	a5,0x2001
   26e44:	51078513          	addi	a0,a5,1296 # 2001510 <bss_begin+0x1fd7510>
   26e48:	ce5ff0ef          	jal	ra,26b2c <payload_bin+0x6574>
   26e4c:	00050793          	mv	a5,a0
   26e50:	fef42623          	sw	a5,-20(s0)
   26e54:	fec42703          	lw	a4,-20(s0)
   26e58:	fd0007b7          	lui	a5,0xfd000
   26e5c:	fff78793          	addi	a5,a5,-1 # fffffffffcffffff <bss_begin+0xfffffffffcfd5fff>
   26e60:	00f777b3          	and	a5,a4,a5
   26e64:	fef42623          	sw	a5,-20(s0)
   26e68:	fec46703          	lwu	a4,-20(s0)
   26e6c:	020017b7          	lui	a5,0x2001
   26e70:	51078593          	addi	a1,a5,1296 # 2001510 <bss_begin+0x1fd7510>
   26e74:	00070513          	mv	a0,a4
   26e78:	ce1ff0ef          	jal	ra,26b58 <payload_bin+0x65a0>
   26e7c:	000067b7          	lui	a5,0x6
   26e80:	30078593          	addi	a1,a5,768 # 6300 <__bin_size-0x3d00>
   26e84:	020017b7          	lui	a5,0x2001
   26e88:	02078513          	addi	a0,a5,32 # 2001020 <bss_begin+0x1fd7020>
   26e8c:	ccdff0ef          	jal	ra,26b58 <payload_bin+0x65a0>
   26e90:	020017b7          	lui	a5,0x2001
   26e94:	02078513          	addi	a0,a5,32 # 2001020 <bss_begin+0x1fd7020>
   26e98:	c95ff0ef          	jal	ra,26b2c <payload_bin+0x6574>
   26e9c:	00050793          	mv	a5,a0
   26ea0:	fef42623          	sw	a5,-20(s0)
   26ea4:	fec42703          	lw	a4,-20(s0)
   26ea8:	200007b7          	lui	a5,0x20000
   26eac:	00f767b3          	or	a5,a4,a5
   26eb0:	fef42623          	sw	a5,-20(s0)
   26eb4:	fec42783          	lw	a5,-20(s0)
   26eb8:	00078593          	mv	a1,a5
   26ebc:	020017b7          	lui	a5,0x2001
   26ec0:	02078513          	addi	a0,a5,32 # 2001020 <bss_begin+0x1fd7020>
   26ec4:	c95ff0ef          	jal	ra,26b58 <payload_bin+0x65a0>
   26ec8:	020017b7          	lui	a5,0x2001
   26ecc:	02078513          	addi	a0,a5,32 # 2001020 <bss_begin+0x1fd7020>
   26ed0:	c5dff0ef          	jal	ra,26b2c <payload_bin+0x6574>
   26ed4:	00050793          	mv	a5,a0
   26ed8:	fef42623          	sw	a5,-20(s0)
   26edc:	fec42703          	lw	a4,-20(s0)
   26ee0:	800007b7          	lui	a5,0x80000
   26ee4:	00f767b3          	or	a5,a4,a5
   26ee8:	fef42623          	sw	a5,-20(s0)
   26eec:	fec42783          	lw	a5,-20(s0)
   26ef0:	00078593          	mv	a1,a5
   26ef4:	020017b7          	lui	a5,0x2001
   26ef8:	02078513          	addi	a0,a5,32 # 2001020 <bss_begin+0x1fd7020>
   26efc:	c5dff0ef          	jal	ra,26b58 <payload_bin+0x65a0>
   26f00:	00000013          	nop
   26f04:	020017b7          	lui	a5,0x2001
   26f08:	02078513          	addi	a0,a5,32 # 2001020 <bss_begin+0x1fd7020>
   26f0c:	c21ff0ef          	jal	ra,26b2c <payload_bin+0x6574>
   26f10:	00050793          	mv	a5,a0
   26f14:	0007879b          	sext.w	a5,a5
   26f18:	00078713          	mv	a4,a5
   26f1c:	100007b7          	lui	a5,0x10000
   26f20:	00f777b3          	and	a5,a4,a5
   26f24:	0007879b          	sext.w	a5,a5
   26f28:	fc078ee3          	beqz	a5,26f04 <payload_bin+0x694c>
   26f2c:	01400513          	li	a0,20
   26f30:	c5dff0ef          	jal	ra,26b8c <payload_bin+0x65d4>
   26f34:	020017b7          	lui	a5,0x2001
   26f38:	02078513          	addi	a0,a5,32 # 2001020 <bss_begin+0x1fd7020>
   26f3c:	bf1ff0ef          	jal	ra,26b2c <payload_bin+0x6574>
   26f40:	00050793          	mv	a5,a0
   26f44:	fef42623          	sw	a5,-20(s0)
   26f48:	fec42703          	lw	a4,-20(s0)
   26f4c:	e00007b7          	lui	a5,0xe0000
   26f50:	fff78793          	addi	a5,a5,-1 # ffffffffdfffffff <bss_begin+0xffffffffdffd5fff>
   26f54:	00f777b3          	and	a5,a4,a5
   26f58:	fef42623          	sw	a5,-20(s0)
   26f5c:	fec42783          	lw	a5,-20(s0)
   26f60:	00078593          	mv	a1,a5
   26f64:	020017b7          	lui	a5,0x2001
   26f68:	02078513          	addi	a0,a5,32 # 2001020 <bss_begin+0x1fd7020>
   26f6c:	bedff0ef          	jal	ra,26b58 <payload_bin+0x65a0>
   26f70:	0080006f          	j	26f78 <payload_bin+0x69c0>
   26f74:	00000013          	nop
   26f78:	01813083          	ld	ra,24(sp)
   26f7c:	01013403          	ld	s0,16(sp)
   26f80:	02010113          	addi	sp,sp,32
   26f84:	00008067          	ret
   26f88:	ff010113          	addi	sp,sp,-16
   26f8c:	00113423          	sd	ra,8(sp)
   26f90:	00813023          	sd	s0,0(sp)
   26f94:	01010413          	addi	s0,sp,16
   26f98:	00200593          	li	a1,2
   26f9c:	020017b7          	lui	a5,0x2001
   26fa0:	51078513          	addi	a0,a5,1296 # 2001510 <bss_begin+0x1fd7510>
   26fa4:	bb5ff0ef          	jal	ra,26b58 <payload_bin+0x65a0>
   26fa8:	020017b7          	lui	a5,0x2001
   26fac:	51078513          	addi	a0,a5,1296 # 2001510 <bss_begin+0x1fd7510>
   26fb0:	b7dff0ef          	jal	ra,26b2c <payload_bin+0x6574>
   26fb4:	00050793          	mv	a5,a0
   26fb8:	0007879b          	sext.w	a5,a5
   26fbc:	00078713          	mv	a4,a5
   26fc0:	030007b7          	lui	a5,0x3000
   26fc4:	00f767b3          	or	a5,a4,a5
   26fc8:	0007879b          	sext.w	a5,a5
   26fcc:	00078593          	mv	a1,a5
   26fd0:	020017b7          	lui	a5,0x2001
   26fd4:	51078513          	addi	a0,a5,1296 # 2001510 <bss_begin+0x1fd7510>
   26fd8:	b81ff0ef          	jal	ra,26b58 <payload_bin+0x65a0>
   26fdc:	00100513          	li	a0,1
   26fe0:	badff0ef          	jal	ra,26b8c <payload_bin+0x65d4>
   26fe4:	00000013          	nop
   26fe8:	00813083          	ld	ra,8(sp)
   26fec:	00013403          	ld	s0,0(sp)
   26ff0:	01010113          	addi	sp,sp,16
   26ff4:	00008067          	ret
   26ff8:	ff010113          	addi	sp,sp,-16
   26ffc:	00113423          	sd	ra,8(sp)
   27000:	00813023          	sd	s0,0(sp)
   27004:	01010413          	addi	s0,sp,16
   27008:	10200593          	li	a1,258
   2700c:	020017b7          	lui	a5,0x2001
   27010:	52078513          	addi	a0,a5,1312 # 2001520 <bss_begin+0x1fd7520>
   27014:	b45ff0ef          	jal	ra,26b58 <payload_bin+0x65a0>
   27018:	020017b7          	lui	a5,0x2001
   2701c:	52078513          	addi	a0,a5,1312 # 2001520 <bss_begin+0x1fd7520>
   27020:	b0dff0ef          	jal	ra,26b2c <payload_bin+0x6574>
   27024:	00050793          	mv	a5,a0
   27028:	0007879b          	sext.w	a5,a5
   2702c:	00078713          	mv	a4,a5
   27030:	030007b7          	lui	a5,0x3000
   27034:	00f767b3          	or	a5,a4,a5
   27038:	0007879b          	sext.w	a5,a5
   2703c:	00078593          	mv	a1,a5
   27040:	020017b7          	lui	a5,0x2001
   27044:	52078513          	addi	a0,a5,1312 # 2001520 <bss_begin+0x1fd7520>
   27048:	b11ff0ef          	jal	ra,26b58 <payload_bin+0x65a0>
   2704c:	00100513          	li	a0,1
   27050:	b3dff0ef          	jal	ra,26b8c <payload_bin+0x65d4>
   27054:	00000013          	nop
   27058:	00813083          	ld	ra,8(sp)
   2705c:	00013403          	ld	s0,0(sp)
   27060:	01010113          	addi	sp,sp,16
   27064:	00008067          	ret
   27068:	ff010113          	addi	sp,sp,-16
   2706c:	00113423          	sd	ra,8(sp)
   27070:	00813023          	sd	s0,0(sp)
   27074:	01010413          	addi	s0,sp,16
   27078:	020017b7          	lui	a5,0x2001
   2707c:	70c78513          	addi	a0,a5,1804 # 200170c <bss_begin+0x1fd770c>
   27080:	aadff0ef          	jal	ra,26b2c <payload_bin+0x6574>
   27084:	00050793          	mv	a5,a0
   27088:	0007879b          	sext.w	a5,a5
   2708c:	00078713          	mv	a4,a5
   27090:	000107b7          	lui	a5,0x10
   27094:	00f767b3          	or	a5,a4,a5
   27098:	0007879b          	sext.w	a5,a5
   2709c:	00078593          	mv	a1,a5
   270a0:	020017b7          	lui	a5,0x2001
   270a4:	70c78513          	addi	a0,a5,1804 # 200170c <bss_begin+0x1fd770c>
   270a8:	ab1ff0ef          	jal	ra,26b58 <payload_bin+0x65a0>
   270ac:	01400513          	li	a0,20
   270b0:	addff0ef          	jal	ra,26b8c <payload_bin+0x65d4>
   270b4:	020017b7          	lui	a5,0x2001
   270b8:	70c78513          	addi	a0,a5,1804 # 200170c <bss_begin+0x1fd770c>
   270bc:	a71ff0ef          	jal	ra,26b2c <payload_bin+0x6574>
   270c0:	00050793          	mv	a5,a0
   270c4:	0007879b          	sext.w	a5,a5
   270c8:	0017e793          	ori	a5,a5,1
   270cc:	0007879b          	sext.w	a5,a5
   270d0:	00078593          	mv	a1,a5
   270d4:	020017b7          	lui	a5,0x2001
   270d8:	70c78513          	addi	a0,a5,1804 # 200170c <bss_begin+0x1fd770c>
   270dc:	a7dff0ef          	jal	ra,26b58 <payload_bin+0x65a0>
   270e0:	00000013          	nop
   270e4:	00813083          	ld	ra,8(sp)
   270e8:	00013403          	ld	s0,0(sp)
   270ec:	01010113          	addi	sp,sp,16
   270f0:	00008067          	ret
   270f4:	fe010113          	addi	sp,sp,-32
   270f8:	00113c23          	sd	ra,24(sp)
   270fc:	00813823          	sd	s0,16(sp)
   27100:	02010413          	addi	s0,sp,32
   27104:	020017b7          	lui	a5,0x2001
   27108:	54078513          	addi	a0,a5,1344 # 2001540 <bss_begin+0x1fd7540>
   2710c:	a21ff0ef          	jal	ra,26b2c <payload_bin+0x6574>
   27110:	00050793          	mv	a5,a0
   27114:	fef42623          	sw	a5,-20(s0)
   27118:	fec42703          	lw	a4,-20(s0)
   2711c:	400007b7          	lui	a5,0x40000
   27120:	00f767b3          	or	a5,a4,a5
   27124:	fef42623          	sw	a5,-20(s0)
   27128:	fec42783          	lw	a5,-20(s0)
   2712c:	00078593          	mv	a1,a5
   27130:	020017b7          	lui	a5,0x2001
   27134:	54078513          	addi	a0,a5,1344 # 2001540 <bss_begin+0x1fd7540>
   27138:	a21ff0ef          	jal	ra,26b58 <payload_bin+0x65a0>
   2713c:	00100513          	li	a0,1
   27140:	a4dff0ef          	jal	ra,26b8c <payload_bin+0x65d4>
   27144:	00000013          	nop
   27148:	01813083          	ld	ra,24(sp)
   2714c:	01013403          	ld	s0,16(sp)
   27150:	02010113          	addi	sp,sp,32
   27154:	00008067          	ret
   27158:	fd010113          	addi	sp,sp,-48
   2715c:	02113423          	sd	ra,40(sp)
   27160:	02813023          	sd	s0,32(sp)
   27164:	03010413          	addi	s0,sp,48
   27168:	fca43c23          	sd	a0,-40(s0)
   2716c:	fd843503          	ld	a0,-40(s0)
   27170:	9bdff0ef          	jal	ra,26b2c <payload_bin+0x6574>
   27174:	00050793          	mv	a5,a0
   27178:	0007879b          	sext.w	a5,a5
   2717c:	0007879b          	sext.w	a5,a5
   27180:	0c07c263          	bltz	a5,27244 <payload_bin+0x6c8c>
   27184:	fd843503          	ld	a0,-40(s0)
   27188:	9a5ff0ef          	jal	ra,26b2c <payload_bin+0x6574>
   2718c:	00050793          	mv	a5,a0
   27190:	fef42623          	sw	a5,-20(s0)
   27194:	fec42703          	lw	a4,-20(s0)
   27198:	c00007b7          	lui	a5,0xc0000
   2719c:	00f767b3          	or	a5,a4,a5
   271a0:	0007879b          	sext.w	a5,a5
   271a4:	00078593          	mv	a1,a5
   271a8:	fd843503          	ld	a0,-40(s0)
   271ac:	9adff0ef          	jal	ra,26b58 <payload_bin+0x65a0>
   271b0:	fd843503          	ld	a0,-40(s0)
   271b4:	979ff0ef          	jal	ra,26b2c <payload_bin+0x6574>
   271b8:	00050793          	mv	a5,a0
   271bc:	fef42623          	sw	a5,-20(s0)
   271c0:	fec42703          	lw	a4,-20(s0)
   271c4:	200007b7          	lui	a5,0x20000
   271c8:	00f767b3          	or	a5,a4,a5
   271cc:	fef42623          	sw	a5,-20(s0)
   271d0:	fec42783          	lw	a5,-20(s0)
   271d4:	00078593          	mv	a1,a5
   271d8:	fd843503          	ld	a0,-40(s0)
   271dc:	97dff0ef          	jal	ra,26b58 <payload_bin+0x65a0>
   271e0:	00000013          	nop
   271e4:	fd843503          	ld	a0,-40(s0)
   271e8:	945ff0ef          	jal	ra,26b2c <payload_bin+0x6574>
   271ec:	00050793          	mv	a5,a0
   271f0:	0007879b          	sext.w	a5,a5
   271f4:	00078713          	mv	a4,a5
   271f8:	100007b7          	lui	a5,0x10000
   271fc:	00f777b3          	and	a5,a4,a5
   27200:	0007879b          	sext.w	a5,a5
   27204:	fe0780e3          	beqz	a5,271e4 <payload_bin+0x6c2c>
   27208:	01400513          	li	a0,20
   2720c:	981ff0ef          	jal	ra,26b8c <payload_bin+0x65d4>
   27210:	fd843503          	ld	a0,-40(s0)
   27214:	919ff0ef          	jal	ra,26b2c <payload_bin+0x6574>
   27218:	00050793          	mv	a5,a0
   2721c:	fef42623          	sw	a5,-20(s0)
   27220:	fec42703          	lw	a4,-20(s0)
   27224:	e00007b7          	lui	a5,0xe0000
   27228:	fff78793          	addi	a5,a5,-1 # ffffffffdfffffff <bss_begin+0xffffffffdffd5fff>
   2722c:	00f777b3          	and	a5,a4,a5
   27230:	fef42623          	sw	a5,-20(s0)
   27234:	fec42783          	lw	a5,-20(s0)
   27238:	00078593          	mv	a1,a5
   2723c:	fd843503          	ld	a0,-40(s0)
   27240:	919ff0ef          	jal	ra,26b58 <payload_bin+0x65a0>
   27244:	00000013          	nop
   27248:	02813083          	ld	ra,40(sp)
   2724c:	02013403          	ld	s0,32(sp)
   27250:	03010113          	addi	sp,sp,48
   27254:	00008067          	ret
   27258:	ff010113          	addi	sp,sp,-16
   2725c:	00113423          	sd	ra,8(sp)
   27260:	00813023          	sd	s0,0(sp)
   27264:	01010413          	addi	s0,sp,16
   27268:	969ff0ef          	jal	ra,26bd0 <payload_bin+0x6618>
   2726c:	ba9ff0ef          	jal	ra,26e14 <payload_bin+0x685c>
   27270:	d19ff0ef          	jal	ra,26f88 <payload_bin+0x69d0>
   27274:	d85ff0ef          	jal	ra,26ff8 <payload_bin+0x6a40>
   27278:	df1ff0ef          	jal	ra,27068 <payload_bin+0x6ab0>
   2727c:	e79ff0ef          	jal	ra,270f4 <payload_bin+0x6b3c>
   27280:	020017b7          	lui	a5,0x2001
   27284:	02078513          	addi	a0,a5,32 # 2001020 <bss_begin+0x1fd7020>
   27288:	ed1ff0ef          	jal	ra,27158 <payload_bin+0x6ba0>
   2728c:	020017b7          	lui	a5,0x2001
   27290:	04078513          	addi	a0,a5,64 # 2001040 <bss_begin+0x1fd7040>
   27294:	ec5ff0ef          	jal	ra,27158 <payload_bin+0x6ba0>
   27298:	020017b7          	lui	a5,0x2001
   2729c:	04878513          	addi	a0,a5,72 # 2001048 <bss_begin+0x1fd7048>
   272a0:	eb9ff0ef          	jal	ra,27158 <payload_bin+0x6ba0>
   272a4:	020017b7          	lui	a5,0x2001
   272a8:	05878513          	addi	a0,a5,88 # 2001058 <bss_begin+0x1fd7058>
   272ac:	eadff0ef          	jal	ra,27158 <payload_bin+0x6ba0>
   272b0:	020017b7          	lui	a5,0x2001
   272b4:	07878513          	addi	a0,a5,120 # 2001078 <bss_begin+0x1fd7078>
   272b8:	ea1ff0ef          	jal	ra,27158 <payload_bin+0x6ba0>
   272bc:	020017b7          	lui	a5,0x2001
   272c0:	08078513          	addi	a0,a5,128 # 2001080 <bss_begin+0x1fd7080>
   272c4:	e95ff0ef          	jal	ra,27158 <payload_bin+0x6ba0>
   272c8:	00000013          	nop
   272cc:	00813083          	ld	ra,8(sp)
   272d0:	00013403          	ld	s0,0(sp)
   272d4:	01010113          	addi	sp,sp,16
   272d8:	00008067          	ret
   272dc:	fe010113          	addi	sp,sp,-32
   272e0:	00813c23          	sd	s0,24(sp)
   272e4:	02010413          	addi	s0,sp,32
   272e8:	fea43423          	sd	a0,-24(s0)
   272ec:	fe843783          	ld	a5,-24(s0)
   272f0:	0007c783          	lbu	a5,0(a5)
   272f4:	0ff7f793          	andi	a5,a5,255
   272f8:	00078513          	mv	a0,a5
   272fc:	01813403          	ld	s0,24(sp)
   27300:	02010113          	addi	sp,sp,32
   27304:	00008067          	ret
   27308:	fe010113          	addi	sp,sp,-32
   2730c:	00813c23          	sd	s0,24(sp)
   27310:	02010413          	addi	s0,sp,32
   27314:	fea43423          	sd	a0,-24(s0)
   27318:	fe843783          	ld	a5,-24(s0)
   2731c:	0007a783          	lw	a5,0(a5)
   27320:	0007879b          	sext.w	a5,a5
   27324:	00078513          	mv	a0,a5
   27328:	01813403          	ld	s0,24(sp)
   2732c:	02010113          	addi	sp,sp,32
   27330:	00008067          	ret
   27334:	fe010113          	addi	sp,sp,-32
   27338:	00813c23          	sd	s0,24(sp)
   2733c:	02010413          	addi	s0,sp,32
   27340:	fea43423          	sd	a0,-24(s0)
   27344:	00058793          	mv	a5,a1
   27348:	fef42223          	sw	a5,-28(s0)
   2734c:	fe843783          	ld	a5,-24(s0)
   27350:	fe442703          	lw	a4,-28(s0)
   27354:	00e7a023          	sw	a4,0(a5)
   27358:	00000013          	nop
   2735c:	01813403          	ld	s0,24(sp)
   27360:	02010113          	addi	sp,sp,32
   27364:	00008067          	ret
   27368:	fe010113          	addi	sp,sp,-32
   2736c:	00113c23          	sd	ra,24(sp)
   27370:	00813823          	sd	s0,16(sp)
   27374:	02010413          	addi	s0,sp,32
   27378:	020007b7          	lui	a5,0x2000
   2737c:	0f078793          	addi	a5,a5,240 # 20000f0 <bss_begin+0x1fd60f0>
   27380:	fef43423          	sd	a5,-24(s0)
   27384:	fe843503          	ld	a0,-24(s0)
   27388:	f81ff0ef          	jal	ra,27308 <payload_bin+0x6d50>
   2738c:	00050793          	mv	a5,a0
   27390:	fef42223          	sw	a5,-28(s0)
   27394:	fe442703          	lw	a4,-28(s0)
   27398:	fffff7b7          	lui	a5,0xfffff
   2739c:	0ff78793          	addi	a5,a5,255 # fffffffffffff0ff <bss_begin+0xfffffffffffd50ff>
   273a0:	00f777b3          	and	a5,a4,a5
   273a4:	fef42223          	sw	a5,-28(s0)
   273a8:	fe442783          	lw	a5,-28(s0)
   273ac:	3007e793          	ori	a5,a5,768
   273b0:	fef42223          	sw	a5,-28(s0)
   273b4:	fe442783          	lw	a5,-28(s0)
   273b8:	00078593          	mv	a1,a5
   273bc:	fe843503          	ld	a0,-24(s0)
   273c0:	f75ff0ef          	jal	ra,27334 <payload_bin+0x6d7c>
   273c4:	fe843503          	ld	a0,-24(s0)
   273c8:	f41ff0ef          	jal	ra,27308 <payload_bin+0x6d50>
   273cc:	00050793          	mv	a5,a0
   273d0:	fef42223          	sw	a5,-28(s0)
   273d4:	fe442703          	lw	a4,-28(s0)
   273d8:	fff107b7          	lui	a5,0xfff10
   273dc:	fff78793          	addi	a5,a5,-1 # fffffffffff0ffff <bss_begin+0xffffffffffee5fff>
   273e0:	00f777b3          	and	a5,a4,a5
   273e4:	fef42223          	sw	a5,-28(s0)
   273e8:	fe442703          	lw	a4,-28(s0)
   273ec:	000307b7          	lui	a5,0x30
   273f0:	00f767b3          	or	a5,a4,a5
   273f4:	fef42223          	sw	a5,-28(s0)
   273f8:	fe442783          	lw	a5,-28(s0)
   273fc:	00078593          	mv	a1,a5
   27400:	fe843503          	ld	a0,-24(s0)
   27404:	f31ff0ef          	jal	ra,27334 <payload_bin+0x6d7c>
   27408:	020027b7          	lui	a5,0x2002
   2740c:	90c78793          	addi	a5,a5,-1780 # 200190c <bss_begin+0x1fd790c>
   27410:	fef43423          	sd	a5,-24(s0)
   27414:	fe843503          	ld	a0,-24(s0)
   27418:	ef1ff0ef          	jal	ra,27308 <payload_bin+0x6d50>
   2741c:	00050793          	mv	a5,a0
   27420:	fef42223          	sw	a5,-28(s0)
   27424:	fe442783          	lw	a5,-28(s0)
   27428:	0017e793          	ori	a5,a5,1
   2742c:	fef42223          	sw	a5,-28(s0)
   27430:	fe442783          	lw	a5,-28(s0)
   27434:	00078593          	mv	a1,a5
   27438:	fe843503          	ld	a0,-24(s0)
   2743c:	ef9ff0ef          	jal	ra,27334 <payload_bin+0x6d7c>
   27440:	020027b7          	lui	a5,0x2002
   27444:	90c78793          	addi	a5,a5,-1780 # 200190c <bss_begin+0x1fd790c>
   27448:	fef43423          	sd	a5,-24(s0)
   2744c:	fe843503          	ld	a0,-24(s0)
   27450:	eb9ff0ef          	jal	ra,27308 <payload_bin+0x6d50>
   27454:	00050793          	mv	a5,a0
   27458:	fef42223          	sw	a5,-28(s0)
   2745c:	fe442703          	lw	a4,-28(s0)
   27460:	000107b7          	lui	a5,0x10
   27464:	00f767b3          	or	a5,a4,a5
   27468:	fef42223          	sw	a5,-28(s0)
   2746c:	fe442783          	lw	a5,-28(s0)
   27470:	00078593          	mv	a1,a5
   27474:	fe843503          	ld	a0,-24(s0)
   27478:	ebdff0ef          	jal	ra,27334 <payload_bin+0x6d7c>
   2747c:	025007b7          	lui	a5,0x2500
   27480:	fef43423          	sd	a5,-24(s0)
   27484:	fe843783          	ld	a5,-24(s0)
   27488:	00478793          	addi	a5,a5,4 # 2500004 <bss_begin+0x24d6004>
   2748c:	00000593          	li	a1,0
   27490:	00078513          	mv	a0,a5
   27494:	ea1ff0ef          	jal	ra,27334 <payload_bin+0x6d7c>
   27498:	fe843783          	ld	a5,-24(s0)
   2749c:	00878793          	addi	a5,a5,8
   274a0:	0f700593          	li	a1,247
   274a4:	00078513          	mv	a0,a5
   274a8:	e8dff0ef          	jal	ra,27334 <payload_bin+0x6d7c>
   274ac:	fe843783          	ld	a5,-24(s0)
   274b0:	01078793          	addi	a5,a5,16
   274b4:	00000593          	li	a1,0
   274b8:	00078513          	mv	a0,a5
   274bc:	e79ff0ef          	jal	ra,27334 <payload_bin+0x6d7c>
   274c0:	fe843783          	ld	a5,-24(s0)
   274c4:	00c78793          	addi	a5,a5,12
   274c8:	00078513          	mv	a0,a5
   274cc:	e3dff0ef          	jal	ra,27308 <payload_bin+0x6d50>
   274d0:	00050793          	mv	a5,a0
   274d4:	fef42223          	sw	a5,-28(s0)
   274d8:	fe442783          	lw	a5,-28(s0)
   274dc:	0807e793          	ori	a5,a5,128
   274e0:	fef42223          	sw	a5,-28(s0)
   274e4:	fe843783          	ld	a5,-24(s0)
   274e8:	00c78793          	addi	a5,a5,12
   274ec:	fe442703          	lw	a4,-28(s0)
   274f0:	00070593          	mv	a1,a4
   274f4:	00078513          	mv	a0,a5
   274f8:	e3dff0ef          	jal	ra,27334 <payload_bin+0x6d7c>
   274fc:	00d00593          	li	a1,13
   27500:	fe843503          	ld	a0,-24(s0)
   27504:	e31ff0ef          	jal	ra,27334 <payload_bin+0x6d7c>
   27508:	fe843783          	ld	a5,-24(s0)
   2750c:	00478793          	addi	a5,a5,4
   27510:	00000593          	li	a1,0
   27514:	00078513          	mv	a0,a5
   27518:	e1dff0ef          	jal	ra,27334 <payload_bin+0x6d7c>
   2751c:	fe843783          	ld	a5,-24(s0)
   27520:	00c78793          	addi	a5,a5,12
   27524:	00078513          	mv	a0,a5
   27528:	de1ff0ef          	jal	ra,27308 <payload_bin+0x6d50>
   2752c:	00050793          	mv	a5,a0
   27530:	fef42223          	sw	a5,-28(s0)
   27534:	fe442783          	lw	a5,-28(s0)
   27538:	f7f7f793          	andi	a5,a5,-129
   2753c:	fef42223          	sw	a5,-28(s0)
   27540:	fe843783          	ld	a5,-24(s0)
   27544:	00c78793          	addi	a5,a5,12
   27548:	fe442703          	lw	a4,-28(s0)
   2754c:	00070593          	mv	a1,a4
   27550:	00078513          	mv	a0,a5
   27554:	de1ff0ef          	jal	ra,27334 <payload_bin+0x6d7c>
   27558:	fe843783          	ld	a5,-24(s0)
   2755c:	00c78793          	addi	a5,a5,12
   27560:	00078513          	mv	a0,a5
   27564:	da5ff0ef          	jal	ra,27308 <payload_bin+0x6d50>
   27568:	00050793          	mv	a5,a0
   2756c:	fef42223          	sw	a5,-28(s0)
   27570:	fe442783          	lw	a5,-28(s0)
   27574:	fe07f793          	andi	a5,a5,-32
   27578:	fef42223          	sw	a5,-28(s0)
   2757c:	fe442783          	lw	a5,-28(s0)
   27580:	0037e793          	ori	a5,a5,3
   27584:	fef42223          	sw	a5,-28(s0)
   27588:	fe843783          	ld	a5,-24(s0)
   2758c:	00c78793          	addi	a5,a5,12
   27590:	fe442703          	lw	a4,-28(s0)
   27594:	00070593          	mv	a1,a4
   27598:	00078513          	mv	a0,a5
   2759c:	d99ff0ef          	jal	ra,27334 <payload_bin+0x6d7c>
   275a0:	00000013          	nop
   275a4:	01813083          	ld	ra,24(sp)
   275a8:	01013403          	ld	s0,16(sp)
   275ac:	02010113          	addi	sp,sp,32
   275b0:	00008067          	ret
   275b4:	fd010113          	addi	sp,sp,-48
   275b8:	02113423          	sd	ra,40(sp)
   275bc:	02813023          	sd	s0,32(sp)
   275c0:	03010413          	addi	s0,sp,48
   275c4:	00050793          	mv	a5,a0
   275c8:	fcf40fa3          	sb	a5,-33(s0)
   275cc:	025007b7          	lui	a5,0x2500
   275d0:	fef43423          	sd	a5,-24(s0)
   275d4:	00000013          	nop
   275d8:	fe843783          	ld	a5,-24(s0)
   275dc:	07c78793          	addi	a5,a5,124 # 250007c <bss_begin+0x24d607c>
   275e0:	00078513          	mv	a0,a5
   275e4:	d25ff0ef          	jal	ra,27308 <payload_bin+0x6d50>
   275e8:	00050793          	mv	a5,a0
   275ec:	0007879b          	sext.w	a5,a5
   275f0:	0027f793          	andi	a5,a5,2
   275f4:	0007879b          	sext.w	a5,a5
   275f8:	fe0780e3          	beqz	a5,275d8 <payload_bin+0x7020>
   275fc:	fdf44783          	lbu	a5,-33(s0)
   27600:	0007879b          	sext.w	a5,a5
   27604:	00078593          	mv	a1,a5
   27608:	fe843503          	ld	a0,-24(s0)
   2760c:	d29ff0ef          	jal	ra,27334 <payload_bin+0x6d7c>
   27610:	00000013          	nop
   27614:	02813083          	ld	ra,40(sp)
   27618:	02013403          	ld	s0,32(sp)
   2761c:	03010113          	addi	sp,sp,48
   27620:	00008067          	ret
   27624:	fe010113          	addi	sp,sp,-32
   27628:	00113c23          	sd	ra,24(sp)
   2762c:	00813823          	sd	s0,16(sp)
   27630:	02010413          	addi	s0,sp,32
   27634:	00050793          	mv	a5,a0
   27638:	fef42623          	sw	a5,-20(s0)
   2763c:	fec42783          	lw	a5,-20(s0)
   27640:	0ff7f793          	andi	a5,a5,255
   27644:	00078513          	mv	a0,a5
   27648:	f6dff0ef          	jal	ra,275b4 <payload_bin+0x6ffc>
   2764c:	fec42783          	lw	a5,-20(s0)
   27650:	00078513          	mv	a0,a5
   27654:	01813083          	ld	ra,24(sp)
   27658:	01013403          	ld	s0,16(sp)
   2765c:	02010113          	addi	sp,sp,32
   27660:	00008067          	ret
   27664:	fe010113          	addi	sp,sp,-32
   27668:	00113c23          	sd	ra,24(sp)
   2766c:	00813823          	sd	s0,16(sp)
   27670:	02010413          	addi	s0,sp,32
   27674:	025007b7          	lui	a5,0x2500
   27678:	fef43423          	sd	a5,-24(s0)
   2767c:	00000013          	nop
   27680:	fe843783          	ld	a5,-24(s0)
   27684:	07c78793          	addi	a5,a5,124 # 250007c <bss_begin+0x24d607c>
   27688:	00078513          	mv	a0,a5
   2768c:	c7dff0ef          	jal	ra,27308 <payload_bin+0x6d50>
   27690:	00050793          	mv	a5,a0
   27694:	0007879b          	sext.w	a5,a5
   27698:	0087f793          	andi	a5,a5,8
   2769c:	0007879b          	sext.w	a5,a5
   276a0:	fe0780e3          	beqz	a5,27680 <payload_bin+0x70c8>
   276a4:	fe843503          	ld	a0,-24(s0)
   276a8:	c35ff0ef          	jal	ra,272dc <payload_bin+0x6d24>
   276ac:	00050793          	mv	a5,a0
   276b0:	00078513          	mv	a0,a5
   276b4:	01813083          	ld	ra,24(sp)
   276b8:	01013403          	ld	s0,16(sp)
   276bc:	02010113          	addi	sp,sp,32
   276c0:	00008067          	ret
   276c4:	fd010113          	addi	sp,sp,-48
   276c8:	02113423          	sd	ra,40(sp)
   276cc:	02813023          	sd	s0,32(sp)
   276d0:	03010413          	addi	s0,sp,48
   276d4:	fca43c23          	sd	a0,-40(s0)
   276d8:	fe042623          	sw	zero,-20(s0)
   276dc:	04c0006f          	j	27728 <payload_bin+0x7170>
   276e0:	fec42783          	lw	a5,-20(s0)
   276e4:	fd843703          	ld	a4,-40(s0)
   276e8:	00f707b3          	add	a5,a4,a5
   276ec:	0007c783          	lbu	a5,0(a5)
   276f0:	00078713          	mv	a4,a5
   276f4:	00a00793          	li	a5,10
   276f8:	00f71663          	bne	a4,a5,27704 <payload_bin+0x714c>
   276fc:	00d00513          	li	a0,13
   27700:	eb5ff0ef          	jal	ra,275b4 <payload_bin+0x6ffc>
   27704:	fec42783          	lw	a5,-20(s0)
   27708:	fd843703          	ld	a4,-40(s0)
   2770c:	00f707b3          	add	a5,a4,a5
   27710:	0007c783          	lbu	a5,0(a5)
   27714:	00078513          	mv	a0,a5
   27718:	e9dff0ef          	jal	ra,275b4 <payload_bin+0x6ffc>
   2771c:	fec42783          	lw	a5,-20(s0)
   27720:	0017879b          	addiw	a5,a5,1
   27724:	fef42623          	sw	a5,-20(s0)
   27728:	fec42783          	lw	a5,-20(s0)
   2772c:	fd843703          	ld	a4,-40(s0)
   27730:	00f707b3          	add	a5,a4,a5
   27734:	0007c783          	lbu	a5,0(a5)
   27738:	fa0794e3          	bnez	a5,276e0 <payload_bin+0x7128>
   2773c:	00000013          	nop
   27740:	00000013          	nop
   27744:	02813083          	ld	ra,40(sp)
   27748:	02013403          	ld	s0,32(sp)
   2774c:	03010113          	addi	sp,sp,48
   27750:	00008067          	ret
   27754:	fc010113          	addi	sp,sp,-64
   27758:	02813c23          	sd	s0,56(sp)
   2775c:	04010413          	addi	s0,sp,64
   27760:	fca43423          	sd	a0,-56(s0)
   27764:	fcb43023          	sd	a1,-64(s0)
   27768:	fe042223          	sw	zero,-28(s0)
   2776c:	fc843783          	ld	a5,-56(s0)
   27770:	fef43423          	sd	a5,-24(s0)
   27774:	0900006f          	j	27804 <payload_bin+0x724c>
   27778:	fe843783          	ld	a5,-24(s0)
   2777c:	0007c783          	lbu	a5,0(a5)
   27780:	00078713          	mv	a4,a5
   27784:	02f00793          	li	a5,47
   27788:	02e7f063          	bgeu	a5,a4,277a8 <payload_bin+0x71f0>
   2778c:	fe843783          	ld	a5,-24(s0)
   27790:	0007c783          	lbu	a5,0(a5)
   27794:	00078713          	mv	a4,a5
   27798:	03900793          	li	a5,57
   2779c:	00e7e663          	bltu	a5,a4,277a8 <payload_bin+0x71f0>
   277a0:	00100793          	li	a5,1
   277a4:	0080006f          	j	277ac <payload_bin+0x71f4>
   277a8:	00000793          	li	a5,0
   277ac:	fef42023          	sw	a5,-32(s0)
   277b0:	fe042783          	lw	a5,-32(s0)
   277b4:	0007879b          	sext.w	a5,a5
   277b8:	04078e63          	beqz	a5,27814 <payload_bin+0x725c>
   277bc:	fe843783          	ld	a5,-24(s0)
   277c0:	0007c783          	lbu	a5,0(a5)
   277c4:	0007879b          	sext.w	a5,a5
   277c8:	fd07879b          	addiw	a5,a5,-48
   277cc:	fcf42e23          	sw	a5,-36(s0)
   277d0:	fe442703          	lw	a4,-28(s0)
   277d4:	00070793          	mv	a5,a4
   277d8:	0027979b          	slliw	a5,a5,0x2
   277dc:	00e787bb          	addw	a5,a5,a4
   277e0:	0017979b          	slliw	a5,a5,0x1
   277e4:	fef42223          	sw	a5,-28(s0)
   277e8:	fe442703          	lw	a4,-28(s0)
   277ec:	fdc42783          	lw	a5,-36(s0)
   277f0:	00f707bb          	addw	a5,a4,a5
   277f4:	fef42223          	sw	a5,-28(s0)
   277f8:	fe843783          	ld	a5,-24(s0)
   277fc:	00178793          	addi	a5,a5,1
   27800:	fef43423          	sd	a5,-24(s0)
   27804:	fc843783          	ld	a5,-56(s0)
   27808:	0007c783          	lbu	a5,0(a5)
   2780c:	f60796e3          	bnez	a5,27778 <payload_bin+0x71c0>
   27810:	0080006f          	j	27818 <payload_bin+0x7260>
   27814:	00000013          	nop
   27818:	fc043783          	ld	a5,-64(s0)
   2781c:	fe442703          	lw	a4,-28(s0)
   27820:	00e7a023          	sw	a4,0(a5)
   27824:	fe843703          	ld	a4,-24(s0)
   27828:	fc843783          	ld	a5,-56(s0)
   2782c:	40f707b3          	sub	a5,a4,a5
   27830:	0007879b          	sext.w	a5,a5
   27834:	00078513          	mv	a0,a5
   27838:	03813403          	ld	s0,56(sp)
   2783c:	04010113          	addi	sp,sp,64
   27840:	00008067          	ret
   27844:	fb010113          	addi	sp,sp,-80
   27848:	04113423          	sd	ra,72(sp)
   2784c:	04813023          	sd	s0,64(sp)
   27850:	05010413          	addi	s0,sp,80
   27854:	00050793          	mv	a5,a0
   27858:	00068713          	mv	a4,a3
   2785c:	faf42e23          	sw	a5,-68(s0)
   27860:	00058793          	mv	a5,a1
   27864:	faf42c23          	sw	a5,-72(s0)
   27868:	00060793          	mv	a5,a2
   2786c:	faf42a23          	sw	a5,-76(s0)
   27870:	00070793          	mv	a5,a4
   27874:	faf42823          	sw	a5,-80(s0)
   27878:	fe042223          	sw	zero,-28(s0)
   2787c:	0280006f          	j	278a4 <payload_bin+0x72ec>
   27880:	fb042783          	lw	a5,-80(s0)
   27884:	0ff7f713          	andi	a4,a5,255
   27888:	fe442783          	lw	a5,-28(s0)
   2788c:	ff040693          	addi	a3,s0,-16
   27890:	00f687b3          	add	a5,a3,a5
   27894:	fce78823          	sb	a4,-48(a5)
   27898:	fe442783          	lw	a5,-28(s0)
   2789c:	0017879b          	addiw	a5,a5,1
   278a0:	fef42223          	sw	a5,-28(s0)
   278a4:	fe442783          	lw	a5,-28(s0)
   278a8:	00078713          	mv	a4,a5
   278ac:	01f00793          	li	a5,31
   278b0:	fce7f8e3          	bgeu	a5,a4,27880 <payload_bin+0x72c8>
   278b4:	00a00793          	li	a5,10
   278b8:	fef42623          	sw	a5,-20(s0)
   278bc:	fb842783          	lw	a5,-72(s0)
   278c0:	0007879b          	sext.w	a5,a5
   278c4:	00078663          	beqz	a5,278d0 <payload_bin+0x7318>
   278c8:	01000793          	li	a5,16
   278cc:	fef42623          	sw	a5,-20(s0)
   278d0:	fe042423          	sw	zero,-24(s0)
   278d4:	fbc42703          	lw	a4,-68(s0)
   278d8:	fec42783          	lw	a5,-20(s0)
   278dc:	02f777bb          	remuw	a5,a4,a5
   278e0:	0007879b          	sext.w	a5,a5
   278e4:	fef42023          	sw	a5,-32(s0)
   278e8:	fe042783          	lw	a5,-32(s0)
   278ec:	0007871b          	sext.w	a4,a5
   278f0:	00900793          	li	a5,9
   278f4:	02e7d463          	bge	a5,a4,2791c <payload_bin+0x7364>
   278f8:	fe042783          	lw	a5,-32(s0)
   278fc:	0ff7f793          	andi	a5,a5,255
   27900:	0577879b          	addiw	a5,a5,87
   27904:	0ff7f713          	andi	a4,a5,255
   27908:	fe842783          	lw	a5,-24(s0)
   2790c:	ff040693          	addi	a3,s0,-16
   27910:	00f687b3          	add	a5,a3,a5
   27914:	fce78823          	sb	a4,-48(a5)
   27918:	0240006f          	j	2793c <payload_bin+0x7384>
   2791c:	fe042783          	lw	a5,-32(s0)
   27920:	0ff7f793          	andi	a5,a5,255
   27924:	0307879b          	addiw	a5,a5,48
   27928:	0ff7f713          	andi	a4,a5,255
   2792c:	fe842783          	lw	a5,-24(s0)
   27930:	ff040693          	addi	a3,s0,-16
   27934:	00f687b3          	add	a5,a3,a5
   27938:	fce78823          	sb	a4,-48(a5)
   2793c:	fbc42703          	lw	a4,-68(s0)
   27940:	fec42783          	lw	a5,-20(s0)
   27944:	02f757bb          	divuw	a5,a4,a5
   27948:	faf42e23          	sw	a5,-68(s0)
   2794c:	fe842783          	lw	a5,-24(s0)
   27950:	0017879b          	addiw	a5,a5,1
   27954:	fef42423          	sw	a5,-24(s0)
   27958:	fbc42783          	lw	a5,-68(s0)
   2795c:	0007879b          	sext.w	a5,a5
   27960:	f6079ae3          	bnez	a5,278d4 <payload_bin+0x731c>
   27964:	fb442783          	lw	a5,-76(s0)
   27968:	0007879b          	sext.w	a5,a5
   2796c:	02f05c63          	blez	a5,279a4 <payload_bin+0x73ec>
   27970:	fb442783          	lw	a5,-76(s0)
   27974:	00078713          	mv	a4,a5
   27978:	01f00793          	li	a5,31
   2797c:	00e7f663          	bgeu	a5,a4,27988 <payload_bin+0x73d0>
   27980:	01f00793          	li	a5,31
   27984:	faf42a23          	sw	a5,-76(s0)
   27988:	fe842703          	lw	a4,-24(s0)
   2798c:	fb442783          	lw	a5,-76(s0)
   27990:	0007071b          	sext.w	a4,a4
   27994:	0007879b          	sext.w	a5,a5
   27998:	00f75663          	bge	a4,a5,279a4 <payload_bin+0x73ec>
   2799c:	fb442783          	lw	a5,-76(s0)
   279a0:	fef42423          	sw	a5,-24(s0)
   279a4:	fe842783          	lw	a5,-24(s0)
   279a8:	ff040713          	addi	a4,s0,-16
   279ac:	00f707b3          	add	a5,a4,a5
   279b0:	fc078823          	sb	zero,-48(a5)
   279b4:	fe842783          	lw	a5,-24(s0)
   279b8:	fff7879b          	addiw	a5,a5,-1
   279bc:	fef42223          	sw	a5,-28(s0)
   279c0:	0280006f          	j	279e8 <payload_bin+0x7430>
   279c4:	fe442783          	lw	a5,-28(s0)
   279c8:	ff040713          	addi	a4,s0,-16
   279cc:	00f707b3          	add	a5,a4,a5
   279d0:	fd07c783          	lbu	a5,-48(a5)
   279d4:	00078513          	mv	a0,a5
   279d8:	bddff0ef          	jal	ra,275b4 <payload_bin+0x6ffc>
   279dc:	fe442783          	lw	a5,-28(s0)
   279e0:	fff7879b          	addiw	a5,a5,-1
   279e4:	fef42223          	sw	a5,-28(s0)
   279e8:	fe442783          	lw	a5,-28(s0)
   279ec:	0007879b          	sext.w	a5,a5
   279f0:	fc07dae3          	bgez	a5,279c4 <payload_bin+0x740c>
   279f4:	00000013          	nop
   279f8:	00000013          	nop
   279fc:	04813083          	ld	ra,72(sp)
   27a00:	04013403          	ld	s0,64(sp)
   27a04:	05010113          	addi	sp,sp,80
   27a08:	00008067          	ret
   27a0c:	fb010113          	addi	sp,sp,-80
   27a10:	04113423          	sd	ra,72(sp)
   27a14:	04813023          	sd	s0,64(sp)
   27a18:	05010413          	addi	s0,sp,80
   27a1c:	faa43c23          	sd	a0,-72(s0)
   27a20:	fab43823          	sd	a1,-80(s0)
   27a24:	02000793          	li	a5,32
   27a28:	fcf42a23          	sw	a5,-44(s0)
   27a2c:	fb843783          	ld	a5,-72(s0)
   27a30:	fef43423          	sd	a5,-24(s0)
   27a34:	1880006f          	j	27bbc <payload_bin+0x7604>
   27a38:	fc042e23          	sw	zero,-36(s0)
   27a3c:	fc042223          	sw	zero,-60(s0)
   27a40:	fe843783          	ld	a5,-24(s0)
   27a44:	0007c783          	lbu	a5,0(a5)
   27a48:	fcf42823          	sw	a5,-48(s0)
   27a4c:	fe843783          	ld	a5,-24(s0)
   27a50:	fef43023          	sd	a5,-32(s0)
   27a54:	fe843783          	ld	a5,-24(s0)
   27a58:	0007c783          	lbu	a5,0(a5)
   27a5c:	00078713          	mv	a4,a5
   27a60:	02500793          	li	a5,37
   27a64:	06f71863          	bne	a4,a5,27ad4 <payload_bin+0x751c>
   27a68:	fe843783          	ld	a5,-24(s0)
   27a6c:	fef43023          	sd	a5,-32(s0)
   27a70:	fe843783          	ld	a5,-24(s0)
   27a74:	00178793          	addi	a5,a5,1
   27a78:	fef43423          	sd	a5,-24(s0)
   27a7c:	fe843783          	ld	a5,-24(s0)
   27a80:	0007c783          	lbu	a5,0(a5)
   27a84:	00078713          	mv	a4,a5
   27a88:	02f00793          	li	a5,47
   27a8c:	02e7fe63          	bgeu	a5,a4,27ac8 <payload_bin+0x7510>
   27a90:	fe843783          	ld	a5,-24(s0)
   27a94:	0007c783          	lbu	a5,0(a5)
   27a98:	00078713          	mv	a4,a5
   27a9c:	03900793          	li	a5,57
   27aa0:	02e7e463          	bltu	a5,a4,27ac8 <payload_bin+0x7510>
   27aa4:	fc440793          	addi	a5,s0,-60
   27aa8:	00078593          	mv	a1,a5
   27aac:	fe843503          	ld	a0,-24(s0)
   27ab0:	ca5ff0ef          	jal	ra,27754 <payload_bin+0x719c>
   27ab4:	00050793          	mv	a5,a0
   27ab8:	00078713          	mv	a4,a5
   27abc:	fe843783          	ld	a5,-24(s0)
   27ac0:	00e787b3          	add	a5,a5,a4
   27ac4:	fef43423          	sd	a5,-24(s0)
   27ac8:	fe843783          	ld	a5,-24(s0)
   27acc:	0007c783          	lbu	a5,0(a5)
   27ad0:	fcf42e23          	sw	a5,-36(s0)
   27ad4:	fdc42783          	lw	a5,-36(s0)
   27ad8:	0007871b          	sext.w	a4,a5
   27adc:	06400793          	li	a5,100
   27ae0:	00f70a63          	beq	a4,a5,27af4 <payload_bin+0x753c>
   27ae4:	fdc42783          	lw	a5,-36(s0)
   27ae8:	0007871b          	sext.w	a4,a5
   27aec:	07800793          	li	a5,120
   27af0:	04f71863          	bne	a4,a5,27b40 <payload_bin+0x7588>
   27af4:	fb043783          	ld	a5,-80(s0)
   27af8:	00878713          	addi	a4,a5,8
   27afc:	fae43823          	sd	a4,-80(s0)
   27b00:	0007a783          	lw	a5,0(a5)
   27b04:	fcf42423          	sw	a5,-56(s0)
   27b08:	fc842503          	lw	a0,-56(s0)
   27b0c:	fdc42783          	lw	a5,-36(s0)
   27b10:	0007871b          	sext.w	a4,a5
   27b14:	07800793          	li	a5,120
   27b18:	40f707b3          	sub	a5,a4,a5
   27b1c:	0017b793          	seqz	a5,a5
   27b20:	0ff7f793          	andi	a5,a5,255
   27b24:	0007879b          	sext.w	a5,a5
   27b28:	fc442703          	lw	a4,-60(s0)
   27b2c:	fd442683          	lw	a3,-44(s0)
   27b30:	00070613          	mv	a2,a4
   27b34:	00078593          	mv	a1,a5
   27b38:	d0dff0ef          	jal	ra,27844 <payload_bin+0x728c>
   27b3c:	0740006f          	j	27bb0 <payload_bin+0x75f8>
   27b40:	fc042c23          	sw	zero,-40(s0)
   27b44:	0280006f          	j	27b6c <payload_bin+0x75b4>
   27b48:	fd842783          	lw	a5,-40(s0)
   27b4c:	fe043703          	ld	a4,-32(s0)
   27b50:	00f707b3          	add	a5,a4,a5
   27b54:	0007c783          	lbu	a5,0(a5)
   27b58:	00078513          	mv	a0,a5
   27b5c:	a59ff0ef          	jal	ra,275b4 <payload_bin+0x6ffc>
   27b60:	fd842783          	lw	a5,-40(s0)
   27b64:	0017879b          	addiw	a5,a5,1
   27b68:	fcf42c23          	sw	a5,-40(s0)
   27b6c:	fd842703          	lw	a4,-40(s0)
   27b70:	fe843683          	ld	a3,-24(s0)
   27b74:	fe043783          	ld	a5,-32(s0)
   27b78:	40f687b3          	sub	a5,a3,a5
   27b7c:	fcf746e3          	blt	a4,a5,27b48 <payload_bin+0x7590>
   27b80:	fdc42783          	lw	a5,-36(s0)
   27b84:	0007879b          	sext.w	a5,a5
   27b88:	00078863          	beqz	a5,27b98 <payload_bin+0x75e0>
   27b8c:	fdc42783          	lw	a5,-36(s0)
   27b90:	0ff7f793          	andi	a5,a5,255
   27b94:	00c0006f          	j	27ba0 <payload_bin+0x75e8>
   27b98:	fd042783          	lw	a5,-48(s0)
   27b9c:	0ff7f793          	andi	a5,a5,255
   27ba0:	fcf407a3          	sb	a5,-49(s0)
   27ba4:	fcf44783          	lbu	a5,-49(s0)
   27ba8:	00078513          	mv	a0,a5
   27bac:	a09ff0ef          	jal	ra,275b4 <payload_bin+0x6ffc>
   27bb0:	fe843783          	ld	a5,-24(s0)
   27bb4:	00178793          	addi	a5,a5,1
   27bb8:	fef43423          	sd	a5,-24(s0)
   27bbc:	fe843783          	ld	a5,-24(s0)
   27bc0:	0007c783          	lbu	a5,0(a5)
   27bc4:	e6079ae3          	bnez	a5,27a38 <payload_bin+0x7480>
   27bc8:	00000793          	li	a5,0
   27bcc:	00078513          	mv	a0,a5
   27bd0:	04813083          	ld	ra,72(sp)
   27bd4:	04013403          	ld	s0,64(sp)
   27bd8:	05010113          	addi	sp,sp,80
   27bdc:	00008067          	ret
   27be0:	f9010113          	addi	sp,sp,-112
   27be4:	02113423          	sd	ra,40(sp)
   27be8:	02813023          	sd	s0,32(sp)
   27bec:	03010413          	addi	s0,sp,48
   27bf0:	fca43c23          	sd	a0,-40(s0)
   27bf4:	00b43423          	sd	a1,8(s0)
   27bf8:	00c43823          	sd	a2,16(s0)
   27bfc:	00d43c23          	sd	a3,24(s0)
   27c00:	02e43023          	sd	a4,32(s0)
   27c04:	02f43423          	sd	a5,40(s0)
   27c08:	03043823          	sd	a6,48(s0)
   27c0c:	03143c23          	sd	a7,56(s0)
   27c10:	04040793          	addi	a5,s0,64
   27c14:	fcf43823          	sd	a5,-48(s0)
   27c18:	fd043783          	ld	a5,-48(s0)
   27c1c:	fc878793          	addi	a5,a5,-56
   27c20:	fef43423          	sd	a5,-24(s0)
   27c24:	fe843783          	ld	a5,-24(s0)
   27c28:	00078593          	mv	a1,a5
   27c2c:	fd843503          	ld	a0,-40(s0)
   27c30:	dddff0ef          	jal	ra,27a0c <payload_bin+0x7454>
   27c34:	00000793          	li	a5,0
   27c38:	00078513          	mv	a0,a5
   27c3c:	02813083          	ld	ra,40(sp)
   27c40:	02013403          	ld	s0,32(sp)
   27c44:	07010113          	addi	sp,sp,112
   27c48:	00008067          	ret
   27c4c:	fd010113          	addi	sp,sp,-48
   27c50:	02113423          	sd	ra,40(sp)
   27c54:	02813023          	sd	s0,32(sp)
   27c58:	03010413          	addi	s0,sp,48
   27c5c:	00050793          	mv	a5,a0
   27c60:	fcf42e23          	sw	a5,-36(s0)
   27c64:	03000513          	li	a0,48
   27c68:	94dff0ef          	jal	ra,275b4 <payload_bin+0x6ffc>
   27c6c:	07800513          	li	a0,120
   27c70:	945ff0ef          	jal	ra,275b4 <payload_bin+0x6ffc>
   27c74:	00700793          	li	a5,7
   27c78:	fef42623          	sw	a5,-20(s0)
   27c7c:	07c0006f          	j	27cf8 <payload_bin+0x7740>
   27c80:	fec42783          	lw	a5,-20(s0)
   27c84:	0027979b          	slliw	a5,a5,0x2
   27c88:	0007879b          	sext.w	a5,a5
   27c8c:	00078713          	mv	a4,a5
   27c90:	fdc42783          	lw	a5,-36(s0)
   27c94:	00e7d7bb          	srlw	a5,a5,a4
   27c98:	0007879b          	sext.w	a5,a5
   27c9c:	0007879b          	sext.w	a5,a5
   27ca0:	00f7f793          	andi	a5,a5,15
   27ca4:	fef42423          	sw	a5,-24(s0)
   27ca8:	fe842783          	lw	a5,-24(s0)
   27cac:	0007871b          	sext.w	a4,a5
   27cb0:	00900793          	li	a5,9
   27cb4:	02e7c063          	blt	a5,a4,27cd4 <payload_bin+0x771c>
   27cb8:	fe842783          	lw	a5,-24(s0)
   27cbc:	0ff7f793          	andi	a5,a5,255
   27cc0:	0307879b          	addiw	a5,a5,48
   27cc4:	0ff7f793          	andi	a5,a5,255
   27cc8:	00078513          	mv	a0,a5
   27ccc:	8e9ff0ef          	jal	ra,275b4 <payload_bin+0x6ffc>
   27cd0:	01c0006f          	j	27cec <payload_bin+0x7734>
   27cd4:	fe842783          	lw	a5,-24(s0)
   27cd8:	0ff7f793          	andi	a5,a5,255
   27cdc:	0377879b          	addiw	a5,a5,55
   27ce0:	0ff7f793          	andi	a5,a5,255
   27ce4:	00078513          	mv	a0,a5
   27ce8:	8cdff0ef          	jal	ra,275b4 <payload_bin+0x6ffc>
   27cec:	fec42783          	lw	a5,-20(s0)
   27cf0:	fff7879b          	addiw	a5,a5,-1
   27cf4:	fef42623          	sw	a5,-20(s0)
   27cf8:	fec42783          	lw	a5,-20(s0)
   27cfc:	0007879b          	sext.w	a5,a5
   27d00:	f807d0e3          	bgez	a5,27c80 <payload_bin+0x76c8>
   27d04:	00000013          	nop
   27d08:	00000013          	nop
   27d0c:	02813083          	ld	ra,40(sp)
   27d10:	02013403          	ld	s0,32(sp)
   27d14:	03010113          	addi	sp,sp,48
   27d18:	00008067          	ret
   27d1c:	0000                	unimp
   27d1e:	0000                	unimp
   27d20:	abcd                	j	28312 <payload_bin+0x7d5a>
   27d22:	abcd                	j	28314 <payload_bin+0x7d5c>
   27d24:	5678                	lw	a4,108(a2)
   27d26:	1234                	addi	a3,sp,296
   27d28:	000212b7          	lui	t0,0x21
   27d2c:	00028303          	lb	t1,0(t0) # 21000 <payload_bin+0xa48>
   27d30:	00428303          	lb	t1,4(t0)
   27d34:	ffc28303          	lb	t1,-4(t0)
   27d38:	0002b303          	ld	t1,0(t0)
   27d3c:	00428303          	lb	t1,4(t0)
   27d40:	00000297          	auipc	t0,0x0
   27d44:	fe028293          	addi	t0,t0,-32 # 27d20 <payload_bin+0x7768>
   27d48:	00000317          	auipc	t1,0x0
   27d4c:	fd830313          	addi	t1,t1,-40 # 27d20 <payload_bin+0x7768>
   27d50:	802002b7          	lui	t0,0x80200
   27d54:	40200337          	lui	t1,0x40200
   27d58:	00008067          	ret
   27d5c:	c00002b7          	lui	t0,0xc0000
   27d60:	0452829b          	addiw	t0,t0,69
   27d64:	02129293          	slli	t0,t0,0x21
   27d68:	4012d593          	srai	a1,t0,0x1
   27d6c:	0012d313          	srli	t1,t0,0x1
   27d70:	0250029b          	addiw	t0,zero,37
   27d74:	01f29293          	slli	t0,t0,0x1f
   27d78:	08a28293          	addi	t0,t0,138 # ffffffffc000008a <bss_begin+0xffffffffbffd608a>
   27d7c:	4012d61b          	sraiw	a2,t0,0x1
   27d80:	0012d31b          	srliw	t1,t0,0x1
   27d84:	0012969b          	slliw	a3,t0,0x1
   27d88:	0490029b          	addiw	t0,zero,73
   27d8c:	01e29293          	slli	t0,t0,0x1e
   27d90:	08a28293          	addi	t0,t0,138
   27d94:	4012d61b          	sraiw	a2,t0,0x1
   27d98:	0012d31b          	srliw	t1,t0,0x1
   27d9c:	0012971b          	slliw	a4,t0,0x1
   27da0:	00008067          	ret
   27da4:	80028593          	addi	a1,t0,-2048
   27da8:	000012b7          	lui	t0,0x1
   27dac:	a012829b          	addiw	t0,t0,-1535
   27db0:	01529293          	slli	t0,t0,0x15
   27db4:	40000337          	lui	t1,0x40000
   27db8:	70028593          	addi	a1,t0,1792 # 1700 <__bin_size-0x8900>
   27dbc:	80028593          	addi	a1,t0,-2048
   27dc0:	0802861b          	addiw	a2,t0,128
   27dc4:	006286b3          	add	a3,t0,t1
   27dc8:	0062873b          	addw	a4,t0,t1
   27dcc:	000012b7          	lui	t0,0x1
   27dd0:	c012829b          	addiw	t0,t0,-1023
   27dd4:	01529293          	slli	t0,t0,0x15
   27dd8:	00200337          	lui	t1,0x200
   27ddc:	40628533          	sub	a0,t0,t1
   27de0:	406285bb          	subw	a1,t0,t1
   27de4:	00008067          	ret
   27de8:	00b50533          	add	a0,a0,a1
   27dec:	00000013          	nop
   27df0:	00008067          	ret
   27df4:	ff810113          	addi	sp,sp,-8
   27df8:	00113023          	sd	ra,0(sp)
   27dfc:	00100513          	li	a0,1
   27e00:	00200593          	li	a1,2
   27e04:	fe5ff0ef          	jal	ra,27de8 <payload_bin+0x7830>
   27e08:	00000013          	nop
   27e0c:	00013083          	ld	ra,0(sp)
   27e10:	00810113          	addi	sp,sp,8
   27e14:	00008067          	ret
   27e18:	000202b7          	lui	t0,0x20
   27e1c:	00021337          	lui	t1,0x21
   27e20:	02028393          	addi	t2,t0,32 # 20020 <_start+0x20>
   27e24:	0002be03          	ld	t3,0(t0)
   27e28:	01c33023          	sd	t3,0(t1) # 21000 <payload_bin+0xa48>
   27e2c:	00828293          	addi	t0,t0,8
   27e30:	00830313          	addi	t1,t1,8
   27e34:	fe72c8e3          	blt	t0,t2,27e24 <payload_bin+0x786c>
   27e38:	00008067          	ret
   27e3c:	00b56663          	bltu	a0,a1,27e48 <payload_bin+0x7890>
   27e40:	00000793          	li	a5,0
   27e44:	0080006f          	j	27e4c <payload_bin+0x7894>
   27e48:	fff00793          	li	a5,-1
   27e4c:	00078513          	mv	a0,a5
   27e50:	00008067          	ret
   27e54:	00050663          	beqz	a0,27e60 <payload_bin+0x78a8>
   27e58:	fff58793          	addi	a5,a1,-1
   27e5c:	0080006f          	j	27e64 <payload_bin+0x78ac>
   27e60:	00258793          	addi	a5,a1,2
   27e64:	00078513          	mv	a0,a5
   27e68:	00008067          	ret
   27e6c:	ff010113          	addi	sp,sp,-16
   27e70:	00113423          	sd	ra,8(sp)
   27e74:	fe1ff0ef          	jal	ra,27e54 <payload_bin+0x789c>
   27e78:	00813083          	ld	ra,8(sp)
   27e7c:	01010113          	addi	sp,sp,16
   27e80:	00008067          	ret
   27e84:	00000013          	nop
   27e88:	0800                	addi	s0,sp,16
   27e8a:	0080                	addi	s0,sp,64
   27e8c:	0000                	unimp
   27e8e:	0000                	unimp
   27e90:	0860                	addi	s0,sp,28
   27e92:	0080                	addi	s0,sp,64
   27e94:	0000                	unimp
   27e96:	0000                	unimp
   27e98:	0880                	addi	s0,sp,80
   27e9a:	0080                	addi	s0,sp,64
   27e9c:	0000                	unimp
   27e9e:	0000                	unimp
   27ea0:	7566                	ld	a0,120(sp)
   27ea2:	636e                	ld	t1,216(sp)
   27ea4:	615f 6600 6e75      	0x6e756600615f
   27eaa:	00625f63          	bge	tp,t1,27ec8 <payload_bin+0x7910>
   27eae:	7566                	ld	a0,120(sp)
   27eb0:	636e                	ld	t1,216(sp)
   27eb2:	635f 0100 0000      	0x100635f
   27eb8:	00000003          	lb	zero,0(zero) # 0 <__bin_size-0xa000>
   27ebc:	0000                	unimp
   27ebe:	0000                	unimp
   27ec0:	00b50533          	add	a0,a0,a1
   27ec4:	00008067          	ret
   27ec8:	40b50533          	sub	a0,a0,a1
   27ecc:	00008067          	ret
   27ed0:	ff010113          	addi	sp,sp,-16
   27ed4:	00113423          	sd	ra,8(sp)
   27ed8:	00050293          	mv	t0,a0
   27edc:	00058313          	mv	t1,a1
   27ee0:	00028513          	mv	a0,t0
   27ee4:	00030593          	mv	a1,t1
   27ee8:	fd9ff0ef          	jal	ra,27ec0 <payload_bin+0x7908>
   27eec:	00813083          	ld	ra,8(sp)
   27ef0:	01010113          	addi	sp,sp,16
   27ef4:	00008067          	ret
   27ef8:	ff010113          	addi	sp,sp,-16
   27efc:	00113423          	sd	ra,8(sp)
   27f00:	00050293          	mv	t0,a0
   27f04:	00058313          	mv	t1,a1
   27f08:	00028513          	mv	a0,t0
   27f0c:	00030593          	mv	a1,t1
   27f10:	fb9ff0ef          	jal	ra,27ec8 <payload_bin+0x7910>
   27f14:	00813083          	ld	ra,8(sp)
   27f18:	01010113          	addi	sp,sp,16
   27f1c:	00008067          	ret
	...
   27f28:	020002b7          	lui	t0,0x2000
   27f2c:	0f02829b          	addiw	t0,t0,240
   27f30:	0002a303          	lw	t1,0(t0) # 2000000 <bss_begin+0x1fd6000>
   27f34:	fff0f3b7          	lui	t2,0xfff0f
   27f38:	0ff3839b          	addiw	t2,t2,255
   27f3c:	00737333          	and	t1,t1,t2
   27f40:	000303b7          	lui	t2,0x30
   27f44:	3003839b          	addiw	t2,t2,768
   27f48:	00736333          	or	t1,t1,t2
   27f4c:	0062a023          	sw	t1,0(t0)
   27f50:	020022b7          	lui	t0,0x2002
   27f54:	90c2829b          	addiw	t0,t0,-1780
   27f58:	0002a303          	lw	t1,0(t0) # 2002000 <bss_begin+0x1fd8000>
   27f5c:	00136313          	ori	t1,t1,1
   27f60:	0062a023          	sw	t1,0(t0)
   27f64:	020022b7          	lui	t0,0x2002
   27f68:	90c2829b          	addiw	t0,t0,-1780
   27f6c:	0002a303          	lw	t1,0(t0) # 2002000 <bss_begin+0x1fd8000>
   27f70:	000103b7          	lui	t2,0x10
   27f74:	00736333          	or	t1,t1,t2
   27f78:	0062a023          	sw	t1,0(t0)
   27f7c:	025002b7          	lui	t0,0x2500
   27f80:	0002a223          	sw	zero,4(t0) # 2500004 <bss_begin+0x24d6004>
   27f84:	0f700313          	li	t1,247
   27f88:	0062a423          	sw	t1,8(t0)
   27f8c:	0002a823          	sw	zero,16(t0)
   27f90:	00c2a303          	lw	t1,12(t0)
   27f94:	08036313          	ori	t1,t1,128
   27f98:	0062a623          	sw	t1,12(t0)
   27f9c:	00d00393          	li	t2,13
   27fa0:	0072a023          	sw	t2,0(t0)
   27fa4:	00000393          	li	t2,0
   27fa8:	0072a223          	sw	t2,4(t0)
   27fac:	08034313          	xori	t1,t1,128
   27fb0:	0062a623          	sw	t1,12(t0)
   27fb4:	00c2a303          	lw	t1,12(t0)
   27fb8:	ff000393          	li	t2,-16
   27fbc:	00737333          	and	t1,t1,t2
   27fc0:	00300393          	li	t2,3
   27fc4:	00736333          	or	t1,t1,t2
   27fc8:	0062a623          	sw	t1,12(t0)
   27fcc:	00008067          	ret
   27fd0:	025002b7          	lui	t0,0x2500
   27fd4:	07c2a303          	lw	t1,124(t0) # 250007c <bss_begin+0x24d607c>
   27fd8:	00237313          	andi	t1,t1,2
   27fdc:	fe030ce3          	beqz	t1,27fd4 <payload_bin+0x7a1c>
   27fe0:	00a28023          	sb	a0,0(t0)
   27fe4:	00008067          	ret
   27fe8:	00008c13          	mv	s8,ra
   27fec:	00050793          	mv	a5,a0
   27ff0:	0007c503          	lbu	a0,0(a5)
   27ff4:	00050863          	beqz	a0,28004 <payload_bin+0x7a4c>
   27ff8:	fd9ff0ef          	jal	ra,27fd0 <payload_bin+0x7a18>
   27ffc:	00178793          	addi	a5,a5,1
   28000:	ff1ff06f          	j	27ff0 <payload_bin+0x7a38>
   28004:	000c0093          	mv	ra,s8
   28008:	00008067          	ret
   2800c:	00000293          	li	t0,0
   28010:	00b53023          	sd	a1,0(a0) # 2001000 <bss_begin+0x1fd7000>
   28014:	00b53423          	sd	a1,8(a0)
   28018:	01028293          	addi	t0,t0,16
   2801c:	fec2cae3          	blt	t0,a2,28010 <payload_bin+0x7a58>
   28020:	00008067          	ret

Disassembly of section .rodata:

0000000000028024 <.rodata>:
   28024:	8080                	0x8080
   28026:	8134ffff          	0x8134ffff
   2802a:	8134ffff          	0x8134ffff
   2802e:	8134ffff          	0x8134ffff
   28032:	8134ffff          	0x8134ffff
   28036:	8134ffff          	0x8134ffff
   2803a:	8134ffff          	0x8134ffff
   2803e:	8134ffff          	0x8134ffff
   28042:	8134ffff          	0x8134ffff
   28046:	8134ffff          	0x8134ffff
   2804a:	8134ffff          	0x8134ffff
   2804e:	8134ffff          	0x8134ffff
   28052:	8134ffff          	0x8134ffff
   28056:	8134ffff          	0x8134ffff
   2805a:	8134ffff          	0x8134ffff
   2805e:	8134ffff          	0x8134ffff
   28062:	8094ffff          	0x8094ffff
   28066:	80a8ffff          	0x80a8ffff
   2806a:	80bcffff          	0x80bcffff
   2806e:	80d0ffff          	0x80d0ffff
   28072:	80e4ffff          	0x80e4ffff
   28076:	80f8ffff          	0x80f8ffff
   2807a:	810cffff          	0x810cffff
   2807e:	8120ffff          	0x8120ffff
   28082:	814cffff          	0x814cffff
   28086:	8200ffff          	0x8200ffff
   2808a:	8200ffff          	0x8200ffff
   2808e:	8200ffff          	0x8200ffff
   28092:	8200ffff          	0x8200ffff
   28096:	8200ffff          	0x8200ffff
   2809a:	8200ffff          	0x8200ffff
   2809e:	8200ffff          	0x8200ffff
   280a2:	8200ffff          	0x8200ffff
   280a6:	8200ffff          	0x8200ffff
   280aa:	8200ffff          	0x8200ffff
   280ae:	8200ffff          	0x8200ffff
   280b2:	8200ffff          	0x8200ffff
   280b6:	8200ffff          	0x8200ffff
   280ba:	8200ffff          	0x8200ffff
   280be:	8200ffff          	0x8200ffff
   280c2:	8160ffff          	0x8160ffff
   280c6:	8174ffff          	0x8174ffff
   280ca:	8188ffff          	0x8188ffff
   280ce:	819cffff          	0x819cffff
   280d2:	81b0ffff          	0x81b0ffff
   280d6:	81c4ffff          	0x81c4ffff
   280da:	81d8ffff          	0x81d8ffff
   280de:	81ecffff          	0x81ecffff
   280e2:	          	0xffff

Disassembly of section .data:

0000000000029000 <stacks_start>:
	...

