
benos.elf:     file format elf64-littleriscv


Disassembly of section .text.boot:

0000000000023000 <_start>:
   23000:	10401073          	csrw	sie,zero
   23004:	454020ef          	jal	ra,25458 <__init_uart>
   23008:	00000097          	auipc	ra,0x0
   2300c:	01c080e7          	jalr	28(ra) # 23024 <print_asm>
   23010:	00003117          	auipc	sp,0x3
   23014:	ff010113          	addi	sp,sp,-16 # 26000 <stacks_start>
   23018:	000012b7          	lui	t0,0x1
   2301c:	00510133          	add	sp,sp,t0
   23020:	0250006f          	j	23844 <kernel_main>

0000000000023024 <print_asm>:
   23024:	00008493          	mv	s1,ra
   23028:	00003517          	auipc	a0,0x3
   2302c:	8b850513          	addi	a0,a0,-1864 # 258e0 <boot_string>
   23030:	4e8020ef          	jal	ra,25518 <put_string_uart>
   23034:	00048093          	mv	ra,s1
   23038:	00008067          	ret

Disassembly of section .text:

0000000000023040 <sbi_putchar>:
   23040:	fe010113          	addi	sp,sp,-32
   23044:	00813c23          	sd	s0,24(sp)
   23048:	02010413          	addi	s0,sp,32
   2304c:	00050793          	mv	a5,a0
   23050:	fef407a3          	sb	a5,-17(s0)
   23054:	fef44783          	lbu	a5,-17(s0)
   23058:	00078513          	mv	a0,a5
   2305c:	00000593          	li	a1,0
   23060:	00000613          	li	a2,0
   23064:	00100893          	li	a7,1
   23068:	00000073          	ecall
   2306c:	00000013          	nop
   23070:	01813403          	ld	s0,24(sp)
   23074:	02010113          	addi	sp,sp,32
   23078:	00008067          	ret

000000000002307c <sbi_put_string>:
   2307c:	fd010113          	addi	sp,sp,-48
   23080:	02113423          	sd	ra,40(sp)
   23084:	02813023          	sd	s0,32(sp)
   23088:	03010413          	addi	s0,sp,48
   2308c:	fca43c23          	sd	a0,-40(s0)
   23090:	fe042623          	sw	zero,-20(s0)
   23094:	0280006f          	j	230bc <sbi_put_string+0x40>
   23098:	fec42783          	lw	a5,-20(s0)
   2309c:	fd843703          	ld	a4,-40(s0)
   230a0:	00f707b3          	add	a5,a4,a5
   230a4:	0007c783          	lbu	a5,0(a5)
   230a8:	00078513          	mv	a0,a5
   230ac:	f95ff0ef          	jal	ra,23040 <sbi_putchar>
   230b0:	fec42783          	lw	a5,-20(s0)
   230b4:	0017879b          	addiw	a5,a5,1
   230b8:	fef42623          	sw	a5,-20(s0)
   230bc:	fec42783          	lw	a5,-20(s0)
   230c0:	fd843703          	ld	a4,-40(s0)
   230c4:	00f707b3          	add	a5,a4,a5
   230c8:	0007c783          	lbu	a5,0(a5)
   230cc:	fc0796e3          	bnez	a5,23098 <sbi_put_string+0x1c>
   230d0:	00000013          	nop
   230d4:	00000013          	nop
   230d8:	02813083          	ld	ra,40(sp)
   230dc:	02013403          	ld	s0,32(sp)
   230e0:	03010113          	addi	sp,sp,48
   230e4:	00008067          	ret

00000000000230e8 <print_func_name>:
   230e8:	fc010113          	addi	sp,sp,-64
   230ec:	02113c23          	sd	ra,56(sp)
   230f0:	02813823          	sd	s0,48(sp)
   230f4:	04010413          	addi	s0,sp,64
   230f8:	fca43423          	sd	a0,-56(s0)
   230fc:	fe042623          	sw	zero,-20(s0)
   23100:	0300006f          	j	23130 <print_func_name+0x48>
   23104:	00002717          	auipc	a4,0x2
   23108:	2b470713          	addi	a4,a4,692 # 253b8 <func_addr>
   2310c:	fec42783          	lw	a5,-20(s0)
   23110:	00379793          	slli	a5,a5,0x3
   23114:	00f707b3          	add	a5,a4,a5
   23118:	0007b783          	ld	a5,0(a5)
   2311c:	fc843703          	ld	a4,-56(s0)
   23120:	02f70663          	beq	a4,a5,2314c <print_func_name+0x64>
   23124:	fec42783          	lw	a5,-20(s0)
   23128:	0017879b          	addiw	a5,a5,1
   2312c:	fef42623          	sw	a5,-20(s0)
   23130:	fec42703          	lw	a4,-20(s0)
   23134:	00002797          	auipc	a5,0x2
   23138:	2b478793          	addi	a5,a5,692 # 253e8 <func_num_syms>
   2313c:	0007b783          	ld	a5,0(a5)
   23140:	fcf762e3          	bltu	a4,a5,23104 <print_func_name+0x1c>
   23144:	00000793          	li	a5,0
   23148:	0880006f          	j	231d0 <print_func_name+0xe8>
   2314c:	00000013          	nop
   23150:	00002797          	auipc	a5,0x2
   23154:	28078793          	addi	a5,a5,640 # 253d0 <func_string>
   23158:	fef43023          	sd	a5,-32(s0)
   2315c:	fec42783          	lw	a5,-20(s0)
   23160:	0007879b          	sext.w	a5,a5
   23164:	00079863          	bnez	a5,23174 <print_func_name+0x8c>
   23168:	fe043783          	ld	a5,-32(s0)
   2316c:	fcf43c23          	sd	a5,-40(s0)
   23170:	0480006f          	j	231b8 <print_func_name+0xd0>
   23174:	fe043783          	ld	a5,-32(s0)
   23178:	00178793          	addi	a5,a5,1
   2317c:	fef43023          	sd	a5,-32(s0)
   23180:	fe043783          	ld	a5,-32(s0)
   23184:	0007c783          	lbu	a5,0(a5)
   23188:	00079863          	bnez	a5,23198 <print_func_name+0xb0>
   2318c:	fec42783          	lw	a5,-20(s0)
   23190:	fff7879b          	addiw	a5,a5,-1
   23194:	fef42623          	sw	a5,-20(s0)
   23198:	fec42783          	lw	a5,-20(s0)
   2319c:	0007879b          	sext.w	a5,a5
   231a0:	fc079ae3          	bnez	a5,23174 <print_func_name+0x8c>
   231a4:	fe043783          	ld	a5,-32(s0)
   231a8:	00178793          	addi	a5,a5,1
   231ac:	fef43023          	sd	a5,-32(s0)
   231b0:	fe043783          	ld	a5,-32(s0)
   231b4:	fcf43c23          	sd	a5,-40(s0)
   231b8:	fd843603          	ld	a2,-40(s0)
   231bc:	fc843583          	ld	a1,-56(s0)
   231c0:	00002517          	auipc	a0,0x2
   231c4:	39850513          	addi	a0,a0,920 # 25558 <_etext+0x4>
   231c8:	698010ef          	jal	ra,24860 <printk>
   231cc:	00000793          	li	a5,0
   231d0:	00078513          	mv	a0,a5
   231d4:	03813083          	ld	ra,56(sp)
   231d8:	03013403          	ld	s0,48(sp)
   231dc:	04010113          	addi	sp,sp,64
   231e0:	00008067          	ret

00000000000231e4 <my_memcpy_asm_test1>:
   231e4:	fc010113          	addi	sp,sp,-64
   231e8:	02813c23          	sd	s0,56(sp)
   231ec:	04010413          	addi	s0,sp,64
   231f0:	fca43c23          	sd	a0,-40(s0)
   231f4:	fcb43823          	sd	a1,-48(s0)
   231f8:	fcc43423          	sd	a2,-56(s0)
   231fc:	fe043423          	sd	zero,-24(s0)
   23200:	fd843703          	ld	a4,-40(s0)
   23204:	fc843783          	ld	a5,-56(s0)
   23208:	00f707b3          	add	a5,a4,a5
   2320c:	fef43023          	sd	a5,-32(s0)
   23210:	fe043603          	ld	a2,-32(s0)
   23214:	fd043683          	ld	a3,-48(s0)
   23218:	fe843703          	ld	a4,-24(s0)
   2321c:	fd843783          	ld	a5,-40(s0)
   23220:	0007b703          	ld	a4,0(a5)
   23224:	00e6b023          	sd	a4,0(a3)
   23228:	00868693          	addi	a3,a3,8
   2322c:	00878793          	addi	a5,a5,8
   23230:	fec7c8e3          	blt	a5,a2,23220 <my_memcpy_asm_test1+0x3c>
   23234:	fcd43823          	sd	a3,-48(s0)
   23238:	fee43423          	sd	a4,-24(s0)
   2323c:	fcf43c23          	sd	a5,-40(s0)
   23240:	00000013          	nop
   23244:	03813403          	ld	s0,56(sp)
   23248:	04010113          	addi	sp,sp,64
   2324c:	00008067          	ret

0000000000023250 <my_memcpy_asm_test2>:
   23250:	fc010113          	addi	sp,sp,-64
   23254:	02813c23          	sd	s0,56(sp)
   23258:	04010413          	addi	s0,sp,64
   2325c:	fca43c23          	sd	a0,-40(s0)
   23260:	fcb43823          	sd	a1,-48(s0)
   23264:	fcc43423          	sd	a2,-56(s0)
   23268:	fe043423          	sd	zero,-24(s0)
   2326c:	fd843703          	ld	a4,-40(s0)
   23270:	fc843783          	ld	a5,-56(s0)
   23274:	00f707b3          	add	a5,a4,a5
   23278:	fef43023          	sd	a5,-32(s0)
   2327c:	fe043603          	ld	a2,-32(s0)
   23280:	fd043683          	ld	a3,-48(s0)
   23284:	fe843703          	ld	a4,-24(s0)
   23288:	fd843783          	ld	a5,-40(s0)
   2328c:	0007b703          	ld	a4,0(a5)
   23290:	00e6b023          	sd	a4,0(a3)
   23294:	00868693          	addi	a3,a3,8
   23298:	00878793          	addi	a5,a5,8
   2329c:	fec7c8e3          	blt	a5,a2,2328c <my_memcpy_asm_test2+0x3c>
   232a0:	fcd43823          	sd	a3,-48(s0)
   232a4:	fee43423          	sd	a4,-24(s0)
   232a8:	fcf43c23          	sd	a5,-40(s0)
   232ac:	00000013          	nop
   232b0:	03813403          	ld	s0,56(sp)
   232b4:	04010113          	addi	sp,sp,64
   232b8:	00008067          	ret

00000000000232bc <my_asm_orr>:
   232bc:	fd010113          	addi	sp,sp,-48
   232c0:	02813423          	sd	s0,40(sp)
   232c4:	03010413          	addi	s0,sp,48
   232c8:	fca43c23          	sd	a0,-40(s0)
   232cc:	fcb43823          	sd	a1,-48(s0)
   232d0:	fe043423          	sd	zero,-24(s0)
   232d4:	fd843683          	ld	a3,-40(s0)
   232d8:	fd043703          	ld	a4,-48(s0)
   232dc:	fe843783          	ld	a5,-24(s0)
   232e0:	00073783          	ld	a5,0(a4)
   232e4:	00d7e7b3          	or	a5,a5,a3
   232e8:	00f73023          	sd	a5,0(a4)
   232ec:	fce43823          	sd	a4,-48(s0)
   232f0:	fef43423          	sd	a5,-24(s0)
   232f4:	00000013          	nop
   232f8:	02813403          	ld	s0,40(sp)
   232fc:	03010113          	addi	sp,sp,48
   23300:	00008067          	ret

0000000000023304 <my_asm_and>:
   23304:	fd010113          	addi	sp,sp,-48
   23308:	02813423          	sd	s0,40(sp)
   2330c:	03010413          	addi	s0,sp,48
   23310:	fca43c23          	sd	a0,-40(s0)
   23314:	fcb43823          	sd	a1,-48(s0)
   23318:	fe043423          	sd	zero,-24(s0)
   2331c:	fd843683          	ld	a3,-40(s0)
   23320:	fd043703          	ld	a4,-48(s0)
   23324:	fe843783          	ld	a5,-24(s0)
   23328:	00073783          	ld	a5,0(a4)
   2332c:	00d7f7b3          	and	a5,a5,a3
   23330:	00f73023          	sd	a5,0(a4)
   23334:	fce43823          	sd	a4,-48(s0)
   23338:	fef43423          	sd	a5,-24(s0)
   2333c:	00000013          	nop
   23340:	02813403          	ld	s0,40(sp)
   23344:	03010113          	addi	sp,sp,48
   23348:	00008067          	ret

000000000002334c <my_asm_add>:
   2334c:	fd010113          	addi	sp,sp,-48
   23350:	02813423          	sd	s0,40(sp)
   23354:	03010413          	addi	s0,sp,48
   23358:	fca43c23          	sd	a0,-40(s0)
   2335c:	fcb43823          	sd	a1,-48(s0)
   23360:	fe043423          	sd	zero,-24(s0)
   23364:	fd843683          	ld	a3,-40(s0)
   23368:	fd043703          	ld	a4,-48(s0)
   2336c:	fe843783          	ld	a5,-24(s0)
   23370:	00073783          	ld	a5,0(a4)
   23374:	00d787b3          	add	a5,a5,a3
   23378:	00f73023          	sd	a5,0(a4)
   2337c:	fce43823          	sd	a4,-48(s0)
   23380:	fef43423          	sd	a5,-24(s0)
   23384:	00000013          	nop
   23388:	02813403          	ld	s0,40(sp)
   2338c:	03010113          	addi	sp,sp,48
   23390:	00008067          	ret

0000000000023394 <my_ops_test>:
   23394:	fe010113          	addi	sp,sp,-32
   23398:	00113c23          	sd	ra,24(sp)
   2339c:	00813823          	sd	s0,16(sp)
   233a0:	02010413          	addi	s0,sp,32
   233a4:	00f00793          	li	a5,15
   233a8:	fef43423          	sd	a5,-24(s0)
   233ac:	fe840793          	addi	a5,s0,-24
   233b0:	00078593          	mv	a1,a5
   233b4:	00200513          	li	a0,2
   233b8:	f4dff0ef          	jal	ra,23304 <my_asm_and>
   233bc:	fe843783          	ld	a5,-24(s0)
   233c0:	00078593          	mv	a1,a5
   233c4:	00002517          	auipc	a0,0x2
   233c8:	1a450513          	addi	a0,a0,420 # 25568 <_etext+0x14>
   233cc:	494010ef          	jal	ra,24860 <printk>
   233d0:	08000793          	li	a5,128
   233d4:	fef43423          	sd	a5,-24(s0)
   233d8:	fe840793          	addi	a5,s0,-24
   233dc:	00078593          	mv	a1,a5
   233e0:	00300513          	li	a0,3
   233e4:	ed9ff0ef          	jal	ra,232bc <my_asm_orr>
   233e8:	fe843783          	ld	a5,-24(s0)
   233ec:	00078593          	mv	a1,a5
   233f0:	00002517          	auipc	a0,0x2
   233f4:	19050513          	addi	a0,a0,400 # 25580 <_etext+0x2c>
   233f8:	468010ef          	jal	ra,24860 <printk>
   233fc:	00300793          	li	a5,3
   23400:	fef43423          	sd	a5,-24(s0)
   23404:	fe840793          	addi	a5,s0,-24
   23408:	00078593          	mv	a1,a5
   2340c:	00200513          	li	a0,2
   23410:	f3dff0ef          	jal	ra,2334c <my_asm_add>
   23414:	fe843783          	ld	a5,-24(s0)
   23418:	00078593          	mv	a1,a5
   2341c:	00002517          	auipc	a0,0x2
   23420:	17c50513          	addi	a0,a0,380 # 25598 <_etext+0x44>
   23424:	43c010ef          	jal	ra,24860 <printk>
   23428:	00000013          	nop
   2342c:	01813083          	ld	ra,24(sp)
   23430:	01013403          	ld	s0,16(sp)
   23434:	02010113          	addi	sp,sp,32
   23438:	00008067          	ret

000000000002343c <test_sysregs>:
   2343c:	fe010113          	addi	sp,sp,-32
   23440:	00113c23          	sd	ra,24(sp)
   23444:	00813823          	sd	s0,16(sp)
   23448:	02010413          	addi	s0,sp,32
   2344c:	100027f3          	csrr	a5,sstatus
   23450:	00078093          	mv	ra,a5
   23454:	00008793          	mv	a5,ra
   23458:	fef43423          	sd	a5,-24(s0)
   2345c:	fe843583          	ld	a1,-24(s0)
   23460:	00002517          	auipc	a0,0x2
   23464:	15050513          	addi	a0,a0,336 # 255b0 <_etext+0x5c>
   23468:	3f8010ef          	jal	ra,24860 <printk>
   2346c:	00000013          	nop
   23470:	01813083          	ld	ra,24(sp)
   23474:	01013403          	ld	s0,16(sp)
   23478:	02010113          	addi	sp,sp,32
   2347c:	00008067          	ret

0000000000023480 <test_asm_goto>:
   23480:	fe010113          	addi	sp,sp,-32
   23484:	00113c23          	sd	ra,24(sp)
   23488:	00813823          	sd	s0,16(sp)
   2348c:	02010413          	addi	s0,sp,32
   23490:	00050793          	mv	a5,a0
   23494:	fef42623          	sw	a5,-20(s0)
   23498:	fec42783          	lw	a5,-20(s0)
   2349c:	fff78793          	addi	a5,a5,-1
   234a0:	00078663          	beqz	a5,234ac <test_asm_goto+0x2c>
   234a4:	00000793          	li	a5,0
   234a8:	0240006f          	j	234cc <test_asm_goto+0x4c>
   234ac:	fec42783          	lw	a5,-20(s0)
   234b0:	00078613          	mv	a2,a5
   234b4:	00002597          	auipc	a1,0x2
   234b8:	2fc58593          	addi	a1,a1,764 # 257b0 <__func__.0>
   234bc:	00002517          	auipc	a0,0x2
   234c0:	10450513          	addi	a0,a0,260 # 255c0 <_etext+0x6c>
   234c4:	39c010ef          	jal	ra,24860 <printk>
   234c8:	00100793          	li	a5,1
   234cc:	00078513          	mv	a0,a5
   234d0:	01813083          	ld	ra,24(sp)
   234d4:	01013403          	ld	s0,16(sp)
   234d8:	02010113          	addi	sp,sp,32
   234dc:	00008067          	ret

00000000000234e0 <inline_asm_test>:
   234e0:	fe010113          	addi	sp,sp,-32
   234e4:	00113c23          	sd	ra,24(sp)
   234e8:	00813823          	sd	s0,16(sp)
   234ec:	02010413          	addi	s0,sp,32
   234f0:	02000613          	li	a2,32
   234f4:	0002a5b7          	lui	a1,0x2a
   234f8:	00020537          	lui	a0,0x20
   234fc:	ce9ff0ef          	jal	ra,231e4 <my_memcpy_asm_test1>
   23500:	02000613          	li	a2,32
   23504:	0002a5b7          	lui	a1,0x2a
   23508:	00020537          	lui	a0,0x20
   2350c:	d45ff0ef          	jal	ra,23250 <my_memcpy_asm_test2>
   23510:	03000613          	li	a2,48
   23514:	05500593          	li	a1,85
   23518:	0002a7b7          	lui	a5,0x2a
   2351c:	00278513          	addi	a0,a5,2 # 2a002 <_ebss+0x2dea>
   23520:	5d4000ef          	jal	ra,23af4 <memset>
   23524:	e71ff0ef          	jal	ra,23394 <my_ops_test>
   23528:	f15ff0ef          	jal	ra,2343c <test_sysregs>
   2352c:	00100793          	li	a5,1
   23530:	fef42623          	sw	a5,-20(s0)
   23534:	fec42783          	lw	a5,-20(s0)
   23538:	00078513          	mv	a0,a5
   2353c:	f45ff0ef          	jal	ra,23480 <test_asm_goto>
   23540:	00050793          	mv	a5,a0
   23544:	00078713          	mv	a4,a5
   23548:	00100793          	li	a5,1
   2354c:	00f71863          	bne	a4,a5,2355c <inline_asm_test+0x7c>
   23550:	00002517          	auipc	a0,0x2
   23554:	08050513          	addi	a0,a0,128 # 255d0 <_etext+0x7c>
   23558:	308010ef          	jal	ra,24860 <printk>
   2355c:	fe042423          	sw	zero,-24(s0)
   23560:	fe842783          	lw	a5,-24(s0)
   23564:	00078513          	mv	a0,a5
   23568:	f19ff0ef          	jal	ra,23480 <test_asm_goto>
   2356c:	00050793          	mv	a5,a0
   23570:	00079863          	bnez	a5,23580 <inline_asm_test+0xa0>
   23574:	00002517          	auipc	a0,0x2
   23578:	07450513          	addi	a0,a0,116 # 255e8 <_etext+0x94>
   2357c:	2e4010ef          	jal	ra,24860 <printk>
   23580:	00000013          	nop
   23584:	01813083          	ld	ra,24(sp)
   23588:	01013403          	ld	s0,16(sp)
   2358c:	02010113          	addi	sp,sp,32
   23590:	00008067          	ret

0000000000023594 <asm_test>:
   23594:	fe010113          	addi	sp,sp,-32
   23598:	00113c23          	sd	ra,24(sp)
   2359c:	00813823          	sd	s0,16(sp)
   235a0:	02010413          	addi	s0,sp,32
   235a4:	4b5010ef          	jal	ra,25258 <load_store_test>
   235a8:	4e5010ef          	jal	ra,2528c <shift_test>
   235ac:	529010ef          	jal	ra,252d4 <add_sub_test>
   235b0:	575010ef          	jal	ra,25324 <branch_test>
   235b4:	595010ef          	jal	ra,25348 <my_memcpy_test>
   235b8:	02800613          	li	a2,40
   235bc:	05500593          	li	a1,85
   235c0:	0002a537          	lui	a0,0x2a
   235c4:	530000ef          	jal	ra,23af4 <memset>
   235c8:	00900593          	li	a1,9
   235cc:	00a00513          	li	a0,10
   235d0:	59d010ef          	jal	ra,2536c <compare_and_return>
   235d4:	fea43423          	sd	a0,-24(s0)
   235d8:	fe843783          	ld	a5,-24(s0)
   235dc:	00079863          	bnez	a5,235ec <asm_test+0x58>
   235e0:	00002517          	auipc	a0,0x2
   235e4:	02050513          	addi	a0,a0,32 # 25600 <_etext+0xac>
   235e8:	278010ef          	jal	ra,24860 <printk>
   235ec:	00a00593          	li	a1,10
   235f0:	00900513          	li	a0,9
   235f4:	579010ef          	jal	ra,2536c <compare_and_return>
   235f8:	fea43023          	sd	a0,-32(s0)
   235fc:	fe043703          	ld	a4,-32(s0)
   23600:	fff00793          	li	a5,-1
   23604:	00f71863          	bne	a4,a5,23614 <asm_test+0x80>
   23608:	00002517          	auipc	a0,0x2
   2360c:	ff850513          	addi	a0,a0,-8 # 25600 <_etext+0xac>
   23610:	250010ef          	jal	ra,24860 <printk>
   23614:	00900593          	li	a1,9
   23618:	00000513          	li	a0,0
   2361c:	569010ef          	jal	ra,25384 <sel_test>
   23620:	fea43423          	sd	a0,-24(s0)
   23624:	00200593          	li	a1,2
   23628:	00500513          	li	a0,5
   2362c:	559010ef          	jal	ra,25384 <sel_test>
   23630:	fea43023          	sd	a0,-32(s0)
   23634:	569010ef          	jal	ra,2539c <bl_test>
   23638:	00002517          	auipc	a0,0x2
   2363c:	fe850513          	addi	a0,a0,-24 # 25620 <_etext+0xcc>
   23640:	220010ef          	jal	ra,24860 <printk>
   23644:	00500593          	li	a1,5
   23648:	00500513          	li	a0,5
   2364c:	5b5010ef          	jal	ra,25400 <macro_test_1>
   23650:	fea43423          	sd	a0,-24(s0)
   23654:	fe843703          	ld	a4,-24(s0)
   23658:	00a00793          	li	a5,10
   2365c:	00f71863          	bne	a4,a5,2366c <asm_test+0xd8>
   23660:	00002517          	auipc	a0,0x2
   23664:	fd850513          	addi	a0,a0,-40 # 25638 <_etext+0xe4>
   23668:	1f8010ef          	jal	ra,24860 <printk>
   2366c:	00500593          	li	a1,5
   23670:	00500513          	li	a0,5
   23674:	5b5010ef          	jal	ra,25428 <macro_test_2>
   23678:	fea43023          	sd	a0,-32(s0)
   2367c:	fe043783          	ld	a5,-32(s0)
   23680:	00079863          	bnez	a5,23690 <asm_test+0xfc>
   23684:	00002517          	auipc	a0,0x2
   23688:	fd450513          	addi	a0,a0,-44 # 25658 <_etext+0x104>
   2368c:	1d4010ef          	jal	ra,24860 <printk>
   23690:	00000013          	nop
   23694:	01813083          	ld	ra,24(sp)
   23698:	01013403          	ld	s0,16(sp)
   2369c:	02010113          	addi	sp,sp,32
   236a0:	00008067          	ret

00000000000236a4 <print_mem>:
   236a4:	ff010113          	addi	sp,sp,-16
   236a8:	00113423          	sd	ra,8(sp)
   236ac:	00813023          	sd	s0,0(sp)
   236b0:	01010413          	addi	s0,sp,16
   236b4:	00002517          	auipc	a0,0x2
   236b8:	fc450513          	addi	a0,a0,-60 # 25678 <_etext+0x124>
   236bc:	1a4010ef          	jal	ra,24860 <printk>
   236c0:	00000597          	auipc	a1,0x0
   236c4:	94058593          	addi	a1,a1,-1728 # 23000 <_start>
   236c8:	00000617          	auipc	a2,0x0
   236cc:	97460613          	addi	a2,a2,-1676 # 2303c <_etext_boot>
   236d0:	00000717          	auipc	a4,0x0
   236d4:	96c70713          	addi	a4,a4,-1684 # 2303c <_etext_boot>
   236d8:	00000797          	auipc	a5,0x0
   236dc:	92878793          	addi	a5,a5,-1752 # 23000 <_start>
   236e0:	40f707b3          	sub	a5,a4,a5
   236e4:	00078693          	mv	a3,a5
   236e8:	00002517          	auipc	a0,0x2
   236ec:	fa850513          	addi	a0,a0,-88 # 25690 <_etext+0x13c>
   236f0:	170010ef          	jal	ra,24860 <printk>
   236f4:	00000597          	auipc	a1,0x0
   236f8:	94858593          	addi	a1,a1,-1720 # 2303c <_etext_boot>
   236fc:	00002617          	auipc	a2,0x2
   23700:	e5860613          	addi	a2,a2,-424 # 25554 <_etext>
   23704:	00002717          	auipc	a4,0x2
   23708:	e5070713          	addi	a4,a4,-432 # 25554 <_etext>
   2370c:	00000797          	auipc	a5,0x0
   23710:	93078793          	addi	a5,a5,-1744 # 2303c <_etext_boot>
   23714:	40f707b3          	sub	a5,a4,a5
   23718:	00078693          	mv	a3,a5
   2371c:	00002517          	auipc	a0,0x2
   23720:	fa450513          	addi	a0,a0,-92 # 256c0 <_etext+0x16c>
   23724:	13c010ef          	jal	ra,24860 <printk>
   23728:	00002597          	auipc	a1,0x2
   2372c:	e2c58593          	addi	a1,a1,-468 # 25554 <_etext>
   23730:	00002617          	auipc	a2,0x2
   23734:	1c360613          	addi	a2,a2,451 # 258f3 <_data>
   23738:	00002717          	auipc	a4,0x2
   2373c:	1bb70713          	addi	a4,a4,443 # 258f3 <_data>
   23740:	00002797          	auipc	a5,0x2
   23744:	e1478793          	addi	a5,a5,-492 # 25554 <_etext>
   23748:	40f707b3          	sub	a5,a4,a5
   2374c:	00078693          	mv	a3,a5
   23750:	00002517          	auipc	a0,0x2
   23754:	fa050513          	addi	a0,a0,-96 # 256f0 <_etext+0x19c>
   23758:	108010ef          	jal	ra,24860 <printk>
   2375c:	00002597          	auipc	a1,0x2
   23760:	19758593          	addi	a1,a1,407 # 258f3 <_data>
   23764:	00004617          	auipc	a2,0x4
   23768:	89c60613          	addi	a2,a2,-1892 # 27000 <g_record>
   2376c:	00004717          	auipc	a4,0x4
   23770:	89470713          	addi	a4,a4,-1900 # 27000 <g_record>
   23774:	00002797          	auipc	a5,0x2
   23778:	17f78793          	addi	a5,a5,383 # 258f3 <_data>
   2377c:	40f707b3          	sub	a5,a4,a5
   23780:	00078693          	mv	a3,a5
   23784:	00002517          	auipc	a0,0x2
   23788:	f9c50513          	addi	a0,a0,-100 # 25720 <_etext+0x1cc>
   2378c:	0d4010ef          	jal	ra,24860 <printk>
   23790:	00004597          	auipc	a1,0x4
   23794:	87858593          	addi	a1,a1,-1928 # 27008 <print_buf>
   23798:	00004617          	auipc	a2,0x4
   2379c:	a8060613          	addi	a2,a2,-1408 # 27218 <_ebss>
   237a0:	00004717          	auipc	a4,0x4
   237a4:	a7870713          	addi	a4,a4,-1416 # 27218 <_ebss>
   237a8:	00004797          	auipc	a5,0x4
   237ac:	86078793          	addi	a5,a5,-1952 # 27008 <print_buf>
   237b0:	40f707b3          	sub	a5,a4,a5
   237b4:	00078693          	mv	a3,a5
   237b8:	00002517          	auipc	a0,0x2
   237bc:	f9850513          	addi	a0,a0,-104 # 25750 <_etext+0x1fc>
   237c0:	0a0010ef          	jal	ra,24860 <printk>
   237c4:	00000013          	nop
   237c8:	00813083          	ld	ra,8(sp)
   237cc:	00013403          	ld	s0,0(sp)
   237d0:	01010113          	addi	sp,sp,16
   237d4:	00008067          	ret

00000000000237d8 <clean_bss>:
   237d8:	fd010113          	addi	sp,sp,-48
   237dc:	02113423          	sd	ra,40(sp)
   237e0:	02813023          	sd	s0,32(sp)
   237e4:	03010413          	addi	s0,sp,48
   237e8:	00004797          	auipc	a5,0x4
   237ec:	82078793          	addi	a5,a5,-2016 # 27008 <print_buf>
   237f0:	fef43423          	sd	a5,-24(s0)
   237f4:	00004797          	auipc	a5,0x4
   237f8:	a2478793          	addi	a5,a5,-1500 # 27218 <_ebss>
   237fc:	fef43023          	sd	a5,-32(s0)
   23800:	fe043783          	ld	a5,-32(s0)
   23804:	0007871b          	sext.w	a4,a5
   23808:	fe843783          	ld	a5,-24(s0)
   2380c:	0007879b          	sext.w	a5,a5
   23810:	40f707bb          	subw	a5,a4,a5
   23814:	fcf42e23          	sw	a5,-36(s0)
   23818:	fe843783          	ld	a5,-24(s0)
   2381c:	fdc46703          	lwu	a4,-36(s0)
   23820:	00070613          	mv	a2,a4
   23824:	00000593          	li	a1,0
   23828:	00078513          	mv	a0,a5
   2382c:	2c8000ef          	jal	ra,23af4 <memset>
   23830:	00000013          	nop
   23834:	02813083          	ld	ra,40(sp)
   23838:	02013403          	ld	s0,32(sp)
   2383c:	03010113          	addi	sp,sp,48
   23840:	00008067          	ret

0000000000023844 <kernel_main>:
   23844:	ff010113          	addi	sp,sp,-16
   23848:	00113423          	sd	ra,8(sp)
   2384c:	00813023          	sd	s0,0(sp)
   23850:	01010413          	addi	s0,sp,16
   23854:	f85ff0ef          	jal	ra,237d8 <clean_bss>
   23858:	00002517          	auipc	a0,0x2
   2385c:	f2850513          	addi	a0,a0,-216 # 25780 <_etext+0x22c>
   23860:	81dff0ef          	jal	ra,2307c <sbi_put_string>
   23864:	765000ef          	jal	ra,247c8 <init_printk_done>
   23868:	00002517          	auipc	a0,0x2
   2386c:	f3050513          	addi	a0,a0,-208 # 25798 <_etext+0x244>
   23870:	7f1000ef          	jal	ra,24860 <printk>
   23874:	d21ff0ef          	jal	ra,23594 <asm_test>
   23878:	c69ff0ef          	jal	ra,234e0 <inline_asm_test>
   2387c:	008017b7          	lui	a5,0x801
   23880:	88078513          	addi	a0,a5,-1920 # 800880 <_ebss+0x7d9668>
   23884:	865ff0ef          	jal	ra,230e8 <print_func_name>
   23888:	008017b7          	lui	a5,0x801
   2388c:	86078513          	addi	a0,a5,-1952 # 800860 <_ebss+0x7d9648>
   23890:	859ff0ef          	jal	ra,230e8 <print_func_name>
   23894:	008017b7          	lui	a5,0x801
   23898:	80078513          	addi	a0,a5,-2048 # 800800 <_ebss+0x7d95e8>
   2389c:	84dff0ef          	jal	ra,230e8 <print_func_name>
   238a0:	e05ff0ef          	jal	ra,236a4 <print_mem>
   238a4:	0000006f          	j	238a4 <kernel_main+0x60>

00000000000238a8 <__memset_16bytes_inline_asm>:
   238a8:	fc010113          	addi	sp,sp,-64
   238ac:	02813c23          	sd	s0,56(sp)
   238b0:	04010413          	addi	s0,sp,64
   238b4:	fca43c23          	sd	a0,-40(s0)
   238b8:	fcb43823          	sd	a1,-48(s0)
   238bc:	00060793          	mv	a5,a2
   238c0:	fcf42623          	sw	a5,-52(s0)
   238c4:	fe042623          	sw	zero,-20(s0)
   238c8:	fd043603          	ld	a2,-48(s0)
   238cc:	fd843683          	ld	a3,-40(s0)
   238d0:	fcc42703          	lw	a4,-52(s0)
   238d4:	fec42783          	lw	a5,-20(s0)
   238d8:	00c6b023          	sd	a2,0(a3)
   238dc:	00c6b423          	sd	a2,8(a3)
   238e0:	01078793          	addi	a5,a5,16
   238e4:	fee7cae3          	blt	a5,a4,238d8 <__memset_16bytes_inline_asm+0x30>
   238e8:	fcd43c23          	sd	a3,-40(s0)
   238ec:	fce42623          	sw	a4,-52(s0)
   238f0:	fef42623          	sw	a5,-20(s0)
   238f4:	00000013          	nop
   238f8:	03813403          	ld	s0,56(sp)
   238fc:	04010113          	addi	sp,sp,64
   23900:	00008067          	ret

0000000000023904 <__memset_1bytes>:
   23904:	fc010113          	addi	sp,sp,-64
   23908:	02813c23          	sd	s0,56(sp)
   2390c:	04010413          	addi	s0,sp,64
   23910:	fca43c23          	sd	a0,-40(s0)
   23914:	00058793          	mv	a5,a1
   23918:	fcc43423          	sd	a2,-56(s0)
   2391c:	fcf42a23          	sw	a5,-44(s0)
   23920:	fd843783          	ld	a5,-40(s0)
   23924:	fef43423          	sd	a5,-24(s0)
   23928:	01c0006f          	j	23944 <__memset_1bytes+0x40>
   2392c:	fe843783          	ld	a5,-24(s0)
   23930:	00178713          	addi	a4,a5,1
   23934:	fee43423          	sd	a4,-24(s0)
   23938:	fd442703          	lw	a4,-44(s0)
   2393c:	0ff77713          	andi	a4,a4,255
   23940:	00e78023          	sb	a4,0(a5)
   23944:	fc843783          	ld	a5,-56(s0)
   23948:	fff78713          	addi	a4,a5,-1
   2394c:	fce43423          	sd	a4,-56(s0)
   23950:	fc079ee3          	bnez	a5,2392c <__memset_1bytes+0x28>
   23954:	fd843783          	ld	a5,-40(s0)
   23958:	00078513          	mv	a0,a5
   2395c:	03813403          	ld	s0,56(sp)
   23960:	04010113          	addi	sp,sp,64
   23964:	00008067          	ret

0000000000023968 <__memset>:
   23968:	f9010113          	addi	sp,sp,-112
   2396c:	06113423          	sd	ra,104(sp)
   23970:	06813023          	sd	s0,96(sp)
   23974:	07010413          	addi	s0,sp,112
   23978:	faa43423          	sd	a0,-88(s0)
   2397c:	00058793          	mv	a5,a1
   23980:	f8c43c23          	sd	a2,-104(s0)
   23984:	faf42223          	sw	a5,-92(s0)
   23988:	fa843783          	ld	a5,-88(s0)
   2398c:	fef43423          	sd	a5,-24(s0)
   23990:	01000793          	li	a5,16
   23994:	fcf43423          	sd	a5,-56(s0)
   23998:	f9843783          	ld	a5,-104(s0)
   2399c:	fef43023          	sd	a5,-32(s0)
   239a0:	fe843783          	ld	a5,-24(s0)
   239a4:	fcf43023          	sd	a5,-64(s0)
   239a8:	fc043823          	sd	zero,-48(s0)
   239ac:	fc042e23          	sw	zero,-36(s0)
   239b0:	0340006f          	j	239e4 <__memset+0x7c>
   239b4:	fa442783          	lw	a5,-92(s0)
   239b8:	0ff7f793          	andi	a5,a5,255
   239bc:	fdc42703          	lw	a4,-36(s0)
   239c0:	0037171b          	slliw	a4,a4,0x3
   239c4:	0007071b          	sext.w	a4,a4
   239c8:	00e797b3          	sll	a5,a5,a4
   239cc:	fd043703          	ld	a4,-48(s0)
   239d0:	00f767b3          	or	a5,a4,a5
   239d4:	fcf43823          	sd	a5,-48(s0)
   239d8:	fdc42783          	lw	a5,-36(s0)
   239dc:	0017879b          	addiw	a5,a5,1
   239e0:	fcf42e23          	sw	a5,-36(s0)
   239e4:	fdc42783          	lw	a5,-36(s0)
   239e8:	0007871b          	sext.w	a4,a5
   239ec:	00700793          	li	a5,7
   239f0:	fce7d2e3          	bge	a5,a4,239b4 <__memset+0x4c>
   239f4:	fc843783          	ld	a5,-56(s0)
   239f8:	fff78713          	addi	a4,a5,-1
   239fc:	fc043783          	ld	a5,-64(s0)
   23a00:	00f777b3          	and	a5,a4,a5
   23a04:	04078e63          	beqz	a5,23a60 <__memset+0xf8>
   23a08:	fc843783          	ld	a5,-56(s0)
   23a0c:	fff78793          	addi	a5,a5,-1
   23a10:	fc043703          	ld	a4,-64(s0)
   23a14:	00f777b3          	and	a5,a4,a5
   23a18:	faf43c23          	sd	a5,-72(s0)
   23a1c:	fc843703          	ld	a4,-56(s0)
   23a20:	fb843783          	ld	a5,-72(s0)
   23a24:	40f707b3          	sub	a5,a4,a5
   23a28:	faf43c23          	sd	a5,-72(s0)
   23a2c:	fa442783          	lw	a5,-92(s0)
   23a30:	fb843603          	ld	a2,-72(s0)
   23a34:	00078593          	mv	a1,a5
   23a38:	fe843503          	ld	a0,-24(s0)
   23a3c:	ec9ff0ef          	jal	ra,23904 <__memset_1bytes>
   23a40:	fe843703          	ld	a4,-24(s0)
   23a44:	fb843783          	ld	a5,-72(s0)
   23a48:	00f707b3          	add	a5,a4,a5
   23a4c:	fef43423          	sd	a5,-24(s0)
   23a50:	f9843703          	ld	a4,-104(s0)
   23a54:	fb843783          	ld	a5,-72(s0)
   23a58:	40f707b3          	sub	a5,a4,a5
   23a5c:	fef43023          	sd	a5,-32(s0)
   23a60:	fe043703          	ld	a4,-32(s0)
   23a64:	fc843783          	ld	a5,-56(s0)
   23a68:	06e7fa63          	bgeu	a5,a4,23adc <__memset+0x174>
   23a6c:	fe043703          	ld	a4,-32(s0)
   23a70:	fc843783          	ld	a5,-56(s0)
   23a74:	02f757b3          	divu	a5,a4,a5
   23a78:	faf42a23          	sw	a5,-76(s0)
   23a7c:	fe043703          	ld	a4,-32(s0)
   23a80:	fc843783          	ld	a5,-56(s0)
   23a84:	02f777b3          	remu	a5,a4,a5
   23a88:	fef43023          	sd	a5,-32(s0)
   23a8c:	fb442783          	lw	a5,-76(s0)
   23a90:	0047979b          	slliw	a5,a5,0x4
   23a94:	0007879b          	sext.w	a5,a5
   23a98:	00078613          	mv	a2,a5
   23a9c:	fd043583          	ld	a1,-48(s0)
   23aa0:	fe843503          	ld	a0,-24(s0)
   23aa4:	e05ff0ef          	jal	ra,238a8 <__memset_16bytes_inline_asm>
   23aa8:	fe043783          	ld	a5,-32(s0)
   23aac:	02078863          	beqz	a5,23adc <__memset+0x174>
   23ab0:	fb442783          	lw	a5,-76(s0)
   23ab4:	0047979b          	slliw	a5,a5,0x4
   23ab8:	0007879b          	sext.w	a5,a5
   23abc:	00078713          	mv	a4,a5
   23ac0:	fe843783          	ld	a5,-24(s0)
   23ac4:	00e787b3          	add	a5,a5,a4
   23ac8:	fa442703          	lw	a4,-92(s0)
   23acc:	fe043603          	ld	a2,-32(s0)
   23ad0:	00070593          	mv	a1,a4
   23ad4:	00078513          	mv	a0,a5
   23ad8:	e2dff0ef          	jal	ra,23904 <__memset_1bytes>
   23adc:	fa843783          	ld	a5,-88(s0)
   23ae0:	00078513          	mv	a0,a5
   23ae4:	06813083          	ld	ra,104(sp)
   23ae8:	06013403          	ld	s0,96(sp)
   23aec:	07010113          	addi	sp,sp,112
   23af0:	00008067          	ret

0000000000023af4 <memset>:
   23af4:	fd010113          	addi	sp,sp,-48
   23af8:	02113423          	sd	ra,40(sp)
   23afc:	02813023          	sd	s0,32(sp)
   23b00:	03010413          	addi	s0,sp,48
   23b04:	fea43423          	sd	a0,-24(s0)
   23b08:	00058793          	mv	a5,a1
   23b0c:	fcc43c23          	sd	a2,-40(s0)
   23b10:	fef42223          	sw	a5,-28(s0)
   23b14:	fe442783          	lw	a5,-28(s0)
   23b18:	fd843603          	ld	a2,-40(s0)
   23b1c:	00078593          	mv	a1,a5
   23b20:	fe843503          	ld	a0,-24(s0)
   23b24:	e45ff0ef          	jal	ra,23968 <__memset>
   23b28:	00050793          	mv	a5,a0
   23b2c:	00078513          	mv	a0,a5
   23b30:	02813083          	ld	ra,40(sp)
   23b34:	02013403          	ld	s0,32(sp)
   23b38:	03010113          	addi	sp,sp,48
   23b3c:	00008067          	ret

0000000000023b40 <sbi_putchar>:
   23b40:	fe010113          	addi	sp,sp,-32
   23b44:	00813c23          	sd	s0,24(sp)
   23b48:	02010413          	addi	s0,sp,32
   23b4c:	00050793          	mv	a5,a0
   23b50:	fef407a3          	sb	a5,-17(s0)
   23b54:	fef44783          	lbu	a5,-17(s0)
   23b58:	00078513          	mv	a0,a5
   23b5c:	00000593          	li	a1,0
   23b60:	00000613          	li	a2,0
   23b64:	00100893          	li	a7,1
   23b68:	00000073          	ecall
   23b6c:	00000013          	nop
   23b70:	01813403          	ld	s0,24(sp)
   23b74:	02010113          	addi	sp,sp,32
   23b78:	00008067          	ret

0000000000023b7c <scan_number>:
   23b7c:	fd010113          	addi	sp,sp,-48
   23b80:	02813423          	sd	s0,40(sp)
   23b84:	03010413          	addi	s0,sp,48
   23b88:	fca43c23          	sd	a0,-40(s0)
   23b8c:	fcb43823          	sd	a1,-48(s0)
   23b90:	fe042623          	sw	zero,-20(s0)
   23b94:	0440006f          	j	23bd8 <scan_number+0x5c>
   23b98:	fec42703          	lw	a4,-20(s0)
   23b9c:	00070793          	mv	a5,a4
   23ba0:	0027979b          	slliw	a5,a5,0x2
   23ba4:	00e787bb          	addw	a5,a5,a4
   23ba8:	0017979b          	slliw	a5,a5,0x1
   23bac:	fef42623          	sw	a5,-20(s0)
   23bb0:	fd843783          	ld	a5,-40(s0)
   23bb4:	00178713          	addi	a4,a5,1
   23bb8:	fce43c23          	sd	a4,-40(s0)
   23bbc:	0007c783          	lbu	a5,0(a5)
   23bc0:	0007879b          	sext.w	a5,a5
   23bc4:	fd07879b          	addiw	a5,a5,-48
   23bc8:	0007879b          	sext.w	a5,a5
   23bcc:	fec42703          	lw	a4,-20(s0)
   23bd0:	00f707bb          	addw	a5,a4,a5
   23bd4:	fef42623          	sw	a5,-20(s0)
   23bd8:	fd843783          	ld	a5,-40(s0)
   23bdc:	0007c783          	lbu	a5,0(a5)
   23be0:	00078713          	mv	a4,a5
   23be4:	02f00793          	li	a5,47
   23be8:	00e7fc63          	bgeu	a5,a4,23c00 <scan_number+0x84>
   23bec:	fd843783          	ld	a5,-40(s0)
   23bf0:	0007c783          	lbu	a5,0(a5)
   23bf4:	00078713          	mv	a4,a5
   23bf8:	03900793          	li	a5,57
   23bfc:	f8e7fee3          	bgeu	a5,a4,23b98 <scan_number+0x1c>
   23c00:	fd043783          	ld	a5,-48(s0)
   23c04:	fec42703          	lw	a4,-20(s0)
   23c08:	00e7a023          	sw	a4,0(a5)
   23c0c:	fd843783          	ld	a5,-40(s0)
   23c10:	00078513          	mv	a0,a5
   23c14:	02813403          	ld	s0,40(sp)
   23c18:	03010113          	addi	sp,sp,48
   23c1c:	00008067          	ret

0000000000023c20 <number>:
   23c20:	f2010113          	addi	sp,sp,-224
   23c24:	0c813c23          	sd	s0,216(sp)
   23c28:	0e010413          	addi	s0,sp,224
   23c2c:	f2a43c23          	sd	a0,-200(s0)
   23c30:	f2b43823          	sd	a1,-208(s0)
   23c34:	00060593          	mv	a1,a2
   23c38:	00068613          	mv	a2,a3
   23c3c:	00070693          	mv	a3,a4
   23c40:	00078713          	mv	a4,a5
   23c44:	00058793          	mv	a5,a1
   23c48:	f2f42623          	sw	a5,-212(s0)
   23c4c:	00060793          	mv	a5,a2
   23c50:	f2f42423          	sw	a5,-216(s0)
   23c54:	00068793          	mv	a5,a3
   23c58:	f2f42223          	sw	a5,-220(s0)
   23c5c:	00070793          	mv	a5,a4
   23c60:	f2f42023          	sw	a5,-224(s0)
   23c64:	fe0407a3          	sb	zero,-17(s0)
   23c68:	00002797          	auipc	a5,0x2
   23c6c:	b5878793          	addi	a5,a5,-1192 # 257c0 <__func__.0+0x10>
   23c70:	fef43023          	sd	a5,-32(s0)
   23c74:	f2042783          	lw	a5,-224(s0)
   23c78:	0407f793          	andi	a5,a5,64
   23c7c:	0007879b          	sext.w	a5,a5
   23c80:	00078863          	beqz	a5,23c90 <number+0x70>
   23c84:	00002797          	auipc	a5,0x2
   23c88:	b6478793          	addi	a5,a5,-1180 # 257e8 <__func__.0+0x38>
   23c8c:	fef43023          	sd	a5,-32(s0)
   23c90:	f2042783          	lw	a5,-224(s0)
   23c94:	0107f793          	andi	a5,a5,16
   23c98:	0007879b          	sext.w	a5,a5
   23c9c:	00078863          	beqz	a5,23cac <number+0x8c>
   23ca0:	f2042783          	lw	a5,-224(s0)
   23ca4:	ffe7f793          	andi	a5,a5,-2
   23ca8:	f2f42023          	sw	a5,-224(s0)
   23cac:	f2c42783          	lw	a5,-212(s0)
   23cb0:	0007871b          	sext.w	a4,a5
   23cb4:	00100793          	li	a5,1
   23cb8:	00e7da63          	bge	a5,a4,23ccc <number+0xac>
   23cbc:	f2c42783          	lw	a5,-212(s0)
   23cc0:	0007871b          	sext.w	a4,a5
   23cc4:	02400793          	li	a5,36
   23cc8:	00e7d663          	bge	a5,a4,23cd4 <number+0xb4>
   23ccc:	00000793          	li	a5,0
   23cd0:	3400006f          	j	24010 <number+0x3f0>
   23cd4:	f2042783          	lw	a5,-224(s0)
   23cd8:	0017f793          	andi	a5,a5,1
   23cdc:	0007879b          	sext.w	a5,a5
   23ce0:	00078663          	beqz	a5,23cec <number+0xcc>
   23ce4:	03000793          	li	a5,48
   23ce8:	0080006f          	j	23cf0 <number+0xd0>
   23cec:	02000793          	li	a5,32
   23cf0:	fcf40da3          	sb	a5,-37(s0)
   23cf4:	f2042783          	lw	a5,-224(s0)
   23cf8:	0027f793          	andi	a5,a5,2
   23cfc:	0007879b          	sext.w	a5,a5
   23d00:	06078c63          	beqz	a5,23d78 <number+0x158>
   23d04:	f3043783          	ld	a5,-208(s0)
   23d08:	fcf43823          	sd	a5,-48(s0)
   23d0c:	fd043783          	ld	a5,-48(s0)
   23d10:	0007de63          	bgez	a5,23d2c <number+0x10c>
   23d14:	02d00793          	li	a5,45
   23d18:	fef407a3          	sb	a5,-17(s0)
   23d1c:	fd043783          	ld	a5,-48(s0)
   23d20:	40f007b3          	neg	a5,a5
   23d24:	f2f43823          	sd	a5,-208(s0)
   23d28:	0500006f          	j	23d78 <number+0x158>
   23d2c:	f2042783          	lw	a5,-224(s0)
   23d30:	0047f793          	andi	a5,a5,4
   23d34:	0007879b          	sext.w	a5,a5
   23d38:	00078e63          	beqz	a5,23d54 <number+0x134>
   23d3c:	02b00793          	li	a5,43
   23d40:	fef407a3          	sb	a5,-17(s0)
   23d44:	f2842783          	lw	a5,-216(s0)
   23d48:	fff7879b          	addiw	a5,a5,-1
   23d4c:	f2f42423          	sw	a5,-216(s0)
   23d50:	0280006f          	j	23d78 <number+0x158>
   23d54:	f2042783          	lw	a5,-224(s0)
   23d58:	0087f793          	andi	a5,a5,8
   23d5c:	0007879b          	sext.w	a5,a5
   23d60:	00078c63          	beqz	a5,23d78 <number+0x158>
   23d64:	02000793          	li	a5,32
   23d68:	fef407a3          	sb	a5,-17(s0)
   23d6c:	f2842783          	lw	a5,-216(s0)
   23d70:	fff7879b          	addiw	a5,a5,-1
   23d74:	f2f42423          	sw	a5,-216(s0)
   23d78:	f2042783          	lw	a5,-224(s0)
   23d7c:	0207f793          	andi	a5,a5,32
   23d80:	0007879b          	sext.w	a5,a5
   23d84:	04078063          	beqz	a5,23dc4 <number+0x1a4>
   23d88:	f2c42783          	lw	a5,-212(s0)
   23d8c:	0007871b          	sext.w	a4,a5
   23d90:	01000793          	li	a5,16
   23d94:	00f71a63          	bne	a4,a5,23da8 <number+0x188>
   23d98:	f2842783          	lw	a5,-216(s0)
   23d9c:	ffe7879b          	addiw	a5,a5,-2
   23da0:	f2f42423          	sw	a5,-216(s0)
   23da4:	0200006f          	j	23dc4 <number+0x1a4>
   23da8:	f2c42783          	lw	a5,-212(s0)
   23dac:	0007871b          	sext.w	a4,a5
   23db0:	00800793          	li	a5,8
   23db4:	00f71863          	bne	a4,a5,23dc4 <number+0x1a4>
   23db8:	f2842783          	lw	a5,-216(s0)
   23dbc:	fff7879b          	addiw	a5,a5,-1
   23dc0:	f2f42423          	sw	a5,-216(s0)
   23dc4:	fc042e23          	sw	zero,-36(s0)
   23dc8:	f3043783          	ld	a5,-208(s0)
   23dcc:	06079e63          	bnez	a5,23e48 <number+0x228>
   23dd0:	fdc42783          	lw	a5,-36(s0)
   23dd4:	0017871b          	addiw	a4,a5,1
   23dd8:	fce42e23          	sw	a4,-36(s0)
   23ddc:	ff040713          	addi	a4,s0,-16
   23de0:	00f707b3          	add	a5,a4,a5
   23de4:	03000713          	li	a4,48
   23de8:	f4e78c23          	sb	a4,-168(a5)
   23dec:	0640006f          	j	23e50 <number+0x230>
   23df0:	f2c42783          	lw	a5,-212(s0)
   23df4:	fcf42623          	sw	a5,-52(s0)
   23df8:	fcc46783          	lwu	a5,-52(s0)
   23dfc:	f3043703          	ld	a4,-208(s0)
   23e00:	02f777b3          	remu	a5,a4,a5
   23e04:	fcf42423          	sw	a5,-56(s0)
   23e08:	fcc46783          	lwu	a5,-52(s0)
   23e0c:	f3043703          	ld	a4,-208(s0)
   23e10:	02f757b3          	divu	a5,a4,a5
   23e14:	f2f43823          	sd	a5,-208(s0)
   23e18:	fc842783          	lw	a5,-56(s0)
   23e1c:	02079793          	slli	a5,a5,0x20
   23e20:	0207d793          	srli	a5,a5,0x20
   23e24:	fe043703          	ld	a4,-32(s0)
   23e28:	00f70733          	add	a4,a4,a5
   23e2c:	fdc42783          	lw	a5,-36(s0)
   23e30:	0017869b          	addiw	a3,a5,1
   23e34:	fcd42e23          	sw	a3,-36(s0)
   23e38:	00074703          	lbu	a4,0(a4)
   23e3c:	ff040693          	addi	a3,s0,-16
   23e40:	00f687b3          	add	a5,a3,a5
   23e44:	f4e78c23          	sb	a4,-168(a5)
   23e48:	f3043783          	ld	a5,-208(s0)
   23e4c:	fa0792e3          	bnez	a5,23df0 <number+0x1d0>
   23e50:	fdc42703          	lw	a4,-36(s0)
   23e54:	f2442783          	lw	a5,-220(s0)
   23e58:	0007071b          	sext.w	a4,a4
   23e5c:	0007879b          	sext.w	a5,a5
   23e60:	00e7d663          	bge	a5,a4,23e6c <number+0x24c>
   23e64:	fdc42783          	lw	a5,-36(s0)
   23e68:	f2f42223          	sw	a5,-220(s0)
   23e6c:	f2842703          	lw	a4,-216(s0)
   23e70:	f2442783          	lw	a5,-220(s0)
   23e74:	40f707bb          	subw	a5,a4,a5
   23e78:	f2f42423          	sw	a5,-216(s0)
   23e7c:	f2042783          	lw	a5,-224(s0)
   23e80:	0117f793          	andi	a5,a5,17
   23e84:	0007879b          	sext.w	a5,a5
   23e88:	02079663          	bnez	a5,23eb4 <number+0x294>
   23e8c:	0180006f          	j	23ea4 <number+0x284>
   23e90:	f3843783          	ld	a5,-200(s0)
   23e94:	00178713          	addi	a4,a5,1
   23e98:	f2e43c23          	sd	a4,-200(s0)
   23e9c:	02000713          	li	a4,32
   23ea0:	00e78023          	sb	a4,0(a5)
   23ea4:	f2842783          	lw	a5,-216(s0)
   23ea8:	fff7871b          	addiw	a4,a5,-1
   23eac:	f2e42423          	sw	a4,-216(s0)
   23eb0:	fef040e3          	bgtz	a5,23e90 <number+0x270>
   23eb4:	fef44783          	lbu	a5,-17(s0)
   23eb8:	0ff7f793          	andi	a5,a5,255
   23ebc:	00078c63          	beqz	a5,23ed4 <number+0x2b4>
   23ec0:	f3843783          	ld	a5,-200(s0)
   23ec4:	00178713          	addi	a4,a5,1
   23ec8:	f2e43c23          	sd	a4,-200(s0)
   23ecc:	fef44703          	lbu	a4,-17(s0)
   23ed0:	00e78023          	sb	a4,0(a5)
   23ed4:	f2042783          	lw	a5,-224(s0)
   23ed8:	0207f793          	andi	a5,a5,32
   23edc:	0007879b          	sext.w	a5,a5
   23ee0:	06078463          	beqz	a5,23f48 <number+0x328>
   23ee4:	f2c42783          	lw	a5,-212(s0)
   23ee8:	0007871b          	sext.w	a4,a5
   23eec:	00800793          	li	a5,8
   23ef0:	00f71e63          	bne	a4,a5,23f0c <number+0x2ec>
   23ef4:	f3843783          	ld	a5,-200(s0)
   23ef8:	00178713          	addi	a4,a5,1
   23efc:	f2e43c23          	sd	a4,-200(s0)
   23f00:	03000713          	li	a4,48
   23f04:	00e78023          	sb	a4,0(a5)
   23f08:	0400006f          	j	23f48 <number+0x328>
   23f0c:	f2c42783          	lw	a5,-212(s0)
   23f10:	0007871b          	sext.w	a4,a5
   23f14:	01000793          	li	a5,16
   23f18:	02f71863          	bne	a4,a5,23f48 <number+0x328>
   23f1c:	f3843783          	ld	a5,-200(s0)
   23f20:	00178713          	addi	a4,a5,1
   23f24:	f2e43c23          	sd	a4,-200(s0)
   23f28:	03000713          	li	a4,48
   23f2c:	00e78023          	sb	a4,0(a5)
   23f30:	f3843783          	ld	a5,-200(s0)
   23f34:	00178713          	addi	a4,a5,1
   23f38:	f2e43c23          	sd	a4,-200(s0)
   23f3c:	fe043703          	ld	a4,-32(s0)
   23f40:	02174703          	lbu	a4,33(a4)
   23f44:	00e78023          	sb	a4,0(a5)
   23f48:	f2042783          	lw	a5,-224(s0)
   23f4c:	0107f793          	andi	a5,a5,16
   23f50:	0007879b          	sext.w	a5,a5
   23f54:	04079263          	bnez	a5,23f98 <number+0x378>
   23f58:	0180006f          	j	23f70 <number+0x350>
   23f5c:	f3843783          	ld	a5,-200(s0)
   23f60:	00178713          	addi	a4,a5,1
   23f64:	f2e43c23          	sd	a4,-200(s0)
   23f68:	fdb44703          	lbu	a4,-37(s0)
   23f6c:	00e78023          	sb	a4,0(a5)
   23f70:	f2842783          	lw	a5,-216(s0)
   23f74:	fff7871b          	addiw	a4,a5,-1
   23f78:	f2e42423          	sw	a4,-216(s0)
   23f7c:	fef040e3          	bgtz	a5,23f5c <number+0x33c>
   23f80:	0180006f          	j	23f98 <number+0x378>
   23f84:	f3843783          	ld	a5,-200(s0)
   23f88:	00178713          	addi	a4,a5,1
   23f8c:	f2e43c23          	sd	a4,-200(s0)
   23f90:	03000713          	li	a4,48
   23f94:	00e78023          	sb	a4,0(a5)
   23f98:	f2442783          	lw	a5,-220(s0)
   23f9c:	fff7871b          	addiw	a4,a5,-1
   23fa0:	f2e42223          	sw	a4,-220(s0)
   23fa4:	fdc42703          	lw	a4,-36(s0)
   23fa8:	0007071b          	sext.w	a4,a4
   23fac:	fcf74ce3          	blt	a4,a5,23f84 <number+0x364>
   23fb0:	0240006f          	j	23fd4 <number+0x3b4>
   23fb4:	f3843783          	ld	a5,-200(s0)
   23fb8:	00178713          	addi	a4,a5,1
   23fbc:	f2e43c23          	sd	a4,-200(s0)
   23fc0:	fdc42703          	lw	a4,-36(s0)
   23fc4:	ff040693          	addi	a3,s0,-16
   23fc8:	00e68733          	add	a4,a3,a4
   23fcc:	f5874703          	lbu	a4,-168(a4)
   23fd0:	00e78023          	sb	a4,0(a5)
   23fd4:	fdc42783          	lw	a5,-36(s0)
   23fd8:	fff7871b          	addiw	a4,a5,-1
   23fdc:	fce42e23          	sw	a4,-36(s0)
   23fe0:	fcf04ae3          	bgtz	a5,23fb4 <number+0x394>
   23fe4:	0180006f          	j	23ffc <number+0x3dc>
   23fe8:	f3843783          	ld	a5,-200(s0)
   23fec:	00178713          	addi	a4,a5,1
   23ff0:	f2e43c23          	sd	a4,-200(s0)
   23ff4:	02000713          	li	a4,32
   23ff8:	00e78023          	sb	a4,0(a5)
   23ffc:	f2842783          	lw	a5,-216(s0)
   24000:	fff7871b          	addiw	a4,a5,-1
   24004:	f2e42423          	sw	a4,-216(s0)
   24008:	fef040e3          	bgtz	a5,23fe8 <number+0x3c8>
   2400c:	f3843783          	ld	a5,-200(s0)
   24010:	00078513          	mv	a0,a5
   24014:	0d813403          	ld	s0,216(sp)
   24018:	0e010113          	addi	sp,sp,224
   2401c:	00008067          	ret

0000000000024020 <myprintf>:
   24020:	f9010113          	addi	sp,sp,-112
   24024:	06113423          	sd	ra,104(sp)
   24028:	06813023          	sd	s0,96(sp)
   2402c:	07010413          	addi	s0,sp,112
   24030:	faa43423          	sd	a0,-88(s0)
   24034:	00058793          	mv	a5,a1
   24038:	f8c43c23          	sd	a2,-104(s0)
   2403c:	f8d43823          	sd	a3,-112(s0)
   24040:	faf42223          	sw	a5,-92(s0)
   24044:	fa843783          	ld	a5,-88(s0)
   24048:	fef43423          	sd	a5,-24(s0)
   2404c:	7440006f          	j	24790 <myprintf+0x770>
   24050:	f9843783          	ld	a5,-104(s0)
   24054:	0007c783          	lbu	a5,0(a5)
   24058:	00078713          	mv	a4,a5
   2405c:	02500793          	li	a5,37
   24060:	02f70063          	beq	a4,a5,24080 <myprintf+0x60>
   24064:	fe843783          	ld	a5,-24(s0)
   24068:	00178713          	addi	a4,a5,1
   2406c:	fee43423          	sd	a4,-24(s0)
   24070:	f9843703          	ld	a4,-104(s0)
   24074:	00074703          	lbu	a4,0(a4)
   24078:	00e78023          	sb	a4,0(a5)
   2407c:	7080006f          	j	24784 <myprintf+0x764>
   24080:	fe042223          	sw	zero,-28(s0)
   24084:	f9843783          	ld	a5,-104(s0)
   24088:	00178793          	addi	a5,a5,1
   2408c:	f8f43c23          	sd	a5,-104(s0)
   24090:	f9843783          	ld	a5,-104(s0)
   24094:	0007c783          	lbu	a5,0(a5)
   24098:	0007879b          	sext.w	a5,a5
   2409c:	fe07869b          	addiw	a3,a5,-32
   240a0:	0006871b          	sext.w	a4,a3
   240a4:	01000793          	li	a5,16
   240a8:	08e7e263          	bltu	a5,a4,2412c <myprintf+0x10c>
   240ac:	02069793          	slli	a5,a3,0x20
   240b0:	0207d793          	srli	a5,a5,0x20
   240b4:	00279713          	slli	a4,a5,0x2
   240b8:	00001797          	auipc	a5,0x1
   240bc:	76078793          	addi	a5,a5,1888 # 25818 <__func__.0+0x68>
   240c0:	00f707b3          	add	a5,a4,a5
   240c4:	0007a783          	lw	a5,0(a5)
   240c8:	0007871b          	sext.w	a4,a5
   240cc:	00001797          	auipc	a5,0x1
   240d0:	74c78793          	addi	a5,a5,1868 # 25818 <__func__.0+0x68>
   240d4:	00f707b3          	add	a5,a4,a5
   240d8:	00078067          	jr	a5
   240dc:	fe442783          	lw	a5,-28(s0)
   240e0:	0107e793          	ori	a5,a5,16
   240e4:	fef42223          	sw	a5,-28(s0)
   240e8:	f9dff06f          	j	24084 <myprintf+0x64>
   240ec:	fe442783          	lw	a5,-28(s0)
   240f0:	0047e793          	ori	a5,a5,4
   240f4:	fef42223          	sw	a5,-28(s0)
   240f8:	f8dff06f          	j	24084 <myprintf+0x64>
   240fc:	fe442783          	lw	a5,-28(s0)
   24100:	0087e793          	ori	a5,a5,8
   24104:	fef42223          	sw	a5,-28(s0)
   24108:	f7dff06f          	j	24084 <myprintf+0x64>
   2410c:	fe442783          	lw	a5,-28(s0)
   24110:	0207e793          	ori	a5,a5,32
   24114:	fef42223          	sw	a5,-28(s0)
   24118:	f6dff06f          	j	24084 <myprintf+0x64>
   2411c:	fe442783          	lw	a5,-28(s0)
   24120:	0017e793          	ori	a5,a5,1
   24124:	fef42223          	sw	a5,-28(s0)
   24128:	f5dff06f          	j	24084 <myprintf+0x64>
   2412c:	fff00793          	li	a5,-1
   24130:	faf42a23          	sw	a5,-76(s0)
   24134:	f9843783          	ld	a5,-104(s0)
   24138:	0007c783          	lbu	a5,0(a5)
   2413c:	00078713          	mv	a4,a5
   24140:	02f00793          	li	a5,47
   24144:	02e7f863          	bgeu	a5,a4,24174 <myprintf+0x154>
   24148:	f9843783          	ld	a5,-104(s0)
   2414c:	0007c783          	lbu	a5,0(a5)
   24150:	00078713          	mv	a4,a5
   24154:	03900793          	li	a5,57
   24158:	00e7ee63          	bltu	a5,a4,24174 <myprintf+0x154>
   2415c:	fb440793          	addi	a5,s0,-76
   24160:	00078593          	mv	a1,a5
   24164:	f9843503          	ld	a0,-104(s0)
   24168:	a15ff0ef          	jal	ra,23b7c <scan_number>
   2416c:	f8a43c23          	sd	a0,-104(s0)
   24170:	0500006f          	j	241c0 <myprintf+0x1a0>
   24174:	f9843783          	ld	a5,-104(s0)
   24178:	0007c783          	lbu	a5,0(a5)
   2417c:	00078713          	mv	a4,a5
   24180:	02a00793          	li	a5,42
   24184:	02f71e63          	bne	a4,a5,241c0 <myprintf+0x1a0>
   24188:	f9043783          	ld	a5,-112(s0)
   2418c:	00878713          	addi	a4,a5,8
   24190:	f8e43823          	sd	a4,-112(s0)
   24194:	0007a783          	lw	a5,0(a5)
   24198:	faf42a23          	sw	a5,-76(s0)
   2419c:	fb442783          	lw	a5,-76(s0)
   241a0:	0207d063          	bgez	a5,241c0 <myprintf+0x1a0>
   241a4:	fb442783          	lw	a5,-76(s0)
   241a8:	40f007bb          	negw	a5,a5
   241ac:	0007879b          	sext.w	a5,a5
   241b0:	faf42a23          	sw	a5,-76(s0)
   241b4:	fe442783          	lw	a5,-28(s0)
   241b8:	0107e793          	ori	a5,a5,16
   241bc:	fef42223          	sw	a5,-28(s0)
   241c0:	fff00793          	li	a5,-1
   241c4:	faf42823          	sw	a5,-80(s0)
   241c8:	f9843783          	ld	a5,-104(s0)
   241cc:	0007c783          	lbu	a5,0(a5)
   241d0:	00078713          	mv	a4,a5
   241d4:	02e00793          	li	a5,46
   241d8:	08f71263          	bne	a4,a5,2425c <myprintf+0x23c>
   241dc:	f9843783          	ld	a5,-104(s0)
   241e0:	00178793          	addi	a5,a5,1
   241e4:	f8f43c23          	sd	a5,-104(s0)
   241e8:	f9843783          	ld	a5,-104(s0)
   241ec:	0007c783          	lbu	a5,0(a5)
   241f0:	00078713          	mv	a4,a5
   241f4:	02f00793          	li	a5,47
   241f8:	02e7f863          	bgeu	a5,a4,24228 <myprintf+0x208>
   241fc:	f9843783          	ld	a5,-104(s0)
   24200:	0007c783          	lbu	a5,0(a5)
   24204:	00078713          	mv	a4,a5
   24208:	03900793          	li	a5,57
   2420c:	00e7ee63          	bltu	a5,a4,24228 <myprintf+0x208>
   24210:	fb040793          	addi	a5,s0,-80
   24214:	00078593          	mv	a1,a5
   24218:	f9843503          	ld	a0,-104(s0)
   2421c:	961ff0ef          	jal	ra,23b7c <scan_number>
   24220:	f8a43c23          	sd	a0,-104(s0)
   24224:	02c0006f          	j	24250 <myprintf+0x230>
   24228:	f9843783          	ld	a5,-104(s0)
   2422c:	0007c783          	lbu	a5,0(a5)
   24230:	00078713          	mv	a4,a5
   24234:	02a00793          	li	a5,42
   24238:	00f71c63          	bne	a4,a5,24250 <myprintf+0x230>
   2423c:	f9043783          	ld	a5,-112(s0)
   24240:	00878713          	addi	a4,a5,8
   24244:	f8e43823          	sd	a4,-112(s0)
   24248:	0007a783          	lw	a5,0(a5)
   2424c:	faf42823          	sw	a5,-80(s0)
   24250:	fb042783          	lw	a5,-80(s0)
   24254:	0007d463          	bgez	a5,2425c <myprintf+0x23c>
   24258:	fa042823          	sw	zero,-80(s0)
   2425c:	fff00793          	li	a5,-1
   24260:	fef42023          	sw	a5,-32(s0)
   24264:	f9843783          	ld	a5,-104(s0)
   24268:	0007c783          	lbu	a5,0(a5)
   2426c:	00078713          	mv	a4,a5
   24270:	06800793          	li	a5,104
   24274:	02f70663          	beq	a4,a5,242a0 <myprintf+0x280>
   24278:	f9843783          	ld	a5,-104(s0)
   2427c:	0007c783          	lbu	a5,0(a5)
   24280:	00078713          	mv	a4,a5
   24284:	06c00793          	li	a5,108
   24288:	00f70c63          	beq	a4,a5,242a0 <myprintf+0x280>
   2428c:	f9843783          	ld	a5,-104(s0)
   24290:	0007c783          	lbu	a5,0(a5)
   24294:	00078713          	mv	a4,a5
   24298:	04c00793          	li	a5,76
   2429c:	04f71a63          	bne	a4,a5,242f0 <myprintf+0x2d0>
   242a0:	f9843783          	ld	a5,-104(s0)
   242a4:	0007c783          	lbu	a5,0(a5)
   242a8:	fef42023          	sw	a5,-32(s0)
   242ac:	f9843783          	ld	a5,-104(s0)
   242b0:	00178793          	addi	a5,a5,1
   242b4:	f8f43c23          	sd	a5,-104(s0)
   242b8:	fe042783          	lw	a5,-32(s0)
   242bc:	0007871b          	sext.w	a4,a5
   242c0:	06c00793          	li	a5,108
   242c4:	02f71663          	bne	a4,a5,242f0 <myprintf+0x2d0>
   242c8:	f9843783          	ld	a5,-104(s0)
   242cc:	0007c783          	lbu	a5,0(a5)
   242d0:	00078713          	mv	a4,a5
   242d4:	06c00793          	li	a5,108
   242d8:	00f71c63          	bne	a4,a5,242f0 <myprintf+0x2d0>
   242dc:	04c00793          	li	a5,76
   242e0:	fef42023          	sw	a5,-32(s0)
   242e4:	f9843783          	ld	a5,-104(s0)
   242e8:	00178793          	addi	a5,a5,1
   242ec:	f8f43c23          	sd	a5,-104(s0)
   242f0:	f9843783          	ld	a5,-104(s0)
   242f4:	0007c783          	lbu	a5,0(a5)
   242f8:	0007879b          	sext.w	a5,a5
   242fc:	fa87869b          	addiw	a3,a5,-88
   24300:	0006871b          	sext.w	a4,a3
   24304:	02000793          	li	a5,32
   24308:	2ae7ec63          	bltu	a5,a4,245c0 <myprintf+0x5a0>
   2430c:	02069793          	slli	a5,a3,0x20
   24310:	0207d793          	srli	a5,a5,0x20
   24314:	00279713          	slli	a4,a5,0x2
   24318:	00001797          	auipc	a5,0x1
   2431c:	54478793          	addi	a5,a5,1348 # 2585c <__func__.0+0xac>
   24320:	00f707b3          	add	a5,a4,a5
   24324:	0007a783          	lw	a5,0(a5)
   24328:	0007871b          	sext.w	a4,a5
   2432c:	00001797          	auipc	a5,0x1
   24330:	53078793          	addi	a5,a5,1328 # 2585c <__func__.0+0xac>
   24334:	00f707b3          	add	a5,a4,a5
   24338:	00078067          	jr	a5
   2433c:	fe442783          	lw	a5,-28(s0)
   24340:	0107f793          	andi	a5,a5,16
   24344:	0007879b          	sext.w	a5,a5
   24348:	02079a63          	bnez	a5,2437c <myprintf+0x35c>
   2434c:	0180006f          	j	24364 <myprintf+0x344>
   24350:	fe843783          	ld	a5,-24(s0)
   24354:	00178713          	addi	a4,a5,1
   24358:	fee43423          	sd	a4,-24(s0)
   2435c:	02000713          	li	a4,32
   24360:	00e78023          	sb	a4,0(a5)
   24364:	fb442783          	lw	a5,-76(s0)
   24368:	fff7879b          	addiw	a5,a5,-1
   2436c:	0007879b          	sext.w	a5,a5
   24370:	faf42a23          	sw	a5,-76(s0)
   24374:	fb442783          	lw	a5,-76(s0)
   24378:	fcf04ce3          	bgtz	a5,24350 <myprintf+0x330>
   2437c:	f9043783          	ld	a5,-112(s0)
   24380:	00878713          	addi	a4,a5,8
   24384:	f8e43823          	sd	a4,-112(s0)
   24388:	0007a683          	lw	a3,0(a5)
   2438c:	fe843783          	ld	a5,-24(s0)
   24390:	00178713          	addi	a4,a5,1
   24394:	fee43423          	sd	a4,-24(s0)
   24398:	0ff6f713          	andi	a4,a3,255
   2439c:	00e78023          	sb	a4,0(a5)
   243a0:	0180006f          	j	243b8 <myprintf+0x398>
   243a4:	fe843783          	ld	a5,-24(s0)
   243a8:	00178713          	addi	a4,a5,1
   243ac:	fee43423          	sd	a4,-24(s0)
   243b0:	02000713          	li	a4,32
   243b4:	00e78023          	sb	a4,0(a5)
   243b8:	fb442783          	lw	a5,-76(s0)
   243bc:	fff7879b          	addiw	a5,a5,-1
   243c0:	0007879b          	sext.w	a5,a5
   243c4:	faf42a23          	sw	a5,-76(s0)
   243c8:	fb442783          	lw	a5,-76(s0)
   243cc:	fcf04ce3          	bgtz	a5,243a4 <myprintf+0x384>
   243d0:	3b40006f          	j	24784 <myprintf+0x764>
   243d4:	f9043783          	ld	a5,-112(s0)
   243d8:	00878713          	addi	a4,a5,8
   243dc:	f8e43823          	sd	a4,-112(s0)
   243e0:	0007b783          	ld	a5,0(a5)
   243e4:	fcf43c23          	sd	a5,-40(s0)
   243e8:	fd843783          	ld	a5,-40(s0)
   243ec:	00079863          	bnez	a5,243fc <myprintf+0x3dc>
   243f0:	00001797          	auipc	a5,0x1
   243f4:	42078793          	addi	a5,a5,1056 # 25810 <__func__.0+0x60>
   243f8:	fcf43c23          	sd	a5,-40(s0)
   243fc:	fd843503          	ld	a0,-40(s0)
   24400:	5dc000ef          	jal	ra,249dc <strlen>
   24404:	00050793          	mv	a5,a0
   24408:	fcf42823          	sw	a5,-48(s0)
   2440c:	fb042783          	lw	a5,-80(s0)
   24410:	0007d863          	bgez	a5,24420 <myprintf+0x400>
   24414:	fd042783          	lw	a5,-48(s0)
   24418:	faf42823          	sw	a5,-80(s0)
   2441c:	01c0006f          	j	24438 <myprintf+0x418>
   24420:	fb042703          	lw	a4,-80(s0)
   24424:	fd042783          	lw	a5,-48(s0)
   24428:	0007879b          	sext.w	a5,a5
   2442c:	00f75663          	bge	a4,a5,24438 <myprintf+0x418>
   24430:	fb042783          	lw	a5,-80(s0)
   24434:	fcf42823          	sw	a5,-48(s0)
   24438:	fe442783          	lw	a5,-28(s0)
   2443c:	0107f793          	andi	a5,a5,16
   24440:	0007879b          	sext.w	a5,a5
   24444:	02079c63          	bnez	a5,2447c <myprintf+0x45c>
   24448:	0180006f          	j	24460 <myprintf+0x440>
   2444c:	fe843783          	ld	a5,-24(s0)
   24450:	00178713          	addi	a4,a5,1
   24454:	fee43423          	sd	a4,-24(s0)
   24458:	02000713          	li	a4,32
   2445c:	00e78023          	sb	a4,0(a5)
   24460:	fb442783          	lw	a5,-76(s0)
   24464:	fff7871b          	addiw	a4,a5,-1
   24468:	0007071b          	sext.w	a4,a4
   2446c:	fae42a23          	sw	a4,-76(s0)
   24470:	fd042703          	lw	a4,-48(s0)
   24474:	0007071b          	sext.w	a4,a4
   24478:	fcf74ae3          	blt	a4,a5,2444c <myprintf+0x42c>
   2447c:	fc042a23          	sw	zero,-44(s0)
   24480:	0300006f          	j	244b0 <myprintf+0x490>
   24484:	fd843703          	ld	a4,-40(s0)
   24488:	00170793          	addi	a5,a4,1
   2448c:	fcf43c23          	sd	a5,-40(s0)
   24490:	fe843783          	ld	a5,-24(s0)
   24494:	00178693          	addi	a3,a5,1
   24498:	fed43423          	sd	a3,-24(s0)
   2449c:	00074703          	lbu	a4,0(a4)
   244a0:	00e78023          	sb	a4,0(a5)
   244a4:	fd442783          	lw	a5,-44(s0)
   244a8:	0017879b          	addiw	a5,a5,1
   244ac:	fcf42a23          	sw	a5,-44(s0)
   244b0:	fd442703          	lw	a4,-44(s0)
   244b4:	fd042783          	lw	a5,-48(s0)
   244b8:	0007071b          	sext.w	a4,a4
   244bc:	0007879b          	sext.w	a5,a5
   244c0:	fcf742e3          	blt	a4,a5,24484 <myprintf+0x464>
   244c4:	0180006f          	j	244dc <myprintf+0x4bc>
   244c8:	fe843783          	ld	a5,-24(s0)
   244cc:	00178713          	addi	a4,a5,1
   244d0:	fee43423          	sd	a4,-24(s0)
   244d4:	02000713          	li	a4,32
   244d8:	00e78023          	sb	a4,0(a5)
   244dc:	fb442783          	lw	a5,-76(s0)
   244e0:	fff7871b          	addiw	a4,a5,-1
   244e4:	0007071b          	sext.w	a4,a4
   244e8:	fae42a23          	sw	a4,-76(s0)
   244ec:	fd042703          	lw	a4,-48(s0)
   244f0:	0007071b          	sext.w	a4,a4
   244f4:	fcf74ae3          	blt	a4,a5,244c8 <myprintf+0x4a8>
   244f8:	28c0006f          	j	24784 <myprintf+0x764>
   244fc:	f9043783          	ld	a5,-112(s0)
   24500:	00878713          	addi	a4,a5,8
   24504:	f8e43823          	sd	a4,-112(s0)
   24508:	0007b783          	ld	a5,0(a5)
   2450c:	faf43c23          	sd	a5,-72(s0)
   24510:	fe843703          	ld	a4,-24(s0)
   24514:	fa843783          	ld	a5,-88(s0)
   24518:	40f707b3          	sub	a5,a4,a5
   2451c:	0ff7f713          	andi	a4,a5,255
   24520:	fb843783          	ld	a5,-72(s0)
   24524:	00e78023          	sb	a4,0(a5)
   24528:	25c0006f          	j	24784 <myprintf+0x764>
   2452c:	fb442783          	lw	a5,-76(s0)
   24530:	00078713          	mv	a4,a5
   24534:	fff00793          	li	a5,-1
   24538:	00f71c63          	bne	a4,a5,24550 <myprintf+0x530>
   2453c:	01000793          	li	a5,16
   24540:	faf42a23          	sw	a5,-76(s0)
   24544:	fe442783          	lw	a5,-28(s0)
   24548:	0017e793          	ori	a5,a5,1
   2454c:	fef42223          	sw	a5,-28(s0)
   24550:	f9043783          	ld	a5,-112(s0)
   24554:	00878713          	addi	a4,a5,8
   24558:	f8e43823          	sd	a4,-112(s0)
   2455c:	0007b783          	ld	a5,0(a5)
   24560:	00078593          	mv	a1,a5
   24564:	fb442683          	lw	a3,-76(s0)
   24568:	fb042703          	lw	a4,-80(s0)
   2456c:	fe442783          	lw	a5,-28(s0)
   24570:	01000613          	li	a2,16
   24574:	fe843503          	ld	a0,-24(s0)
   24578:	ea8ff0ef          	jal	ra,23c20 <number>
   2457c:	fea43423          	sd	a0,-24(s0)
   24580:	2040006f          	j	24784 <myprintf+0x764>
   24584:	00800793          	li	a5,8
   24588:	fcf42223          	sw	a5,-60(s0)
   2458c:	0940006f          	j	24620 <myprintf+0x600>
   24590:	fe442783          	lw	a5,-28(s0)
   24594:	0407e793          	ori	a5,a5,64
   24598:	fef42223          	sw	a5,-28(s0)
   2459c:	01000793          	li	a5,16
   245a0:	fcf42223          	sw	a5,-60(s0)
   245a4:	07c0006f          	j	24620 <myprintf+0x600>
   245a8:	fe442783          	lw	a5,-28(s0)
   245ac:	0027e793          	ori	a5,a5,2
   245b0:	fef42223          	sw	a5,-28(s0)
   245b4:	00a00793          	li	a5,10
   245b8:	fcf42223          	sw	a5,-60(s0)
   245bc:	0640006f          	j	24620 <myprintf+0x600>
   245c0:	f9843783          	ld	a5,-104(s0)
   245c4:	0007c783          	lbu	a5,0(a5)
   245c8:	00078713          	mv	a4,a5
   245cc:	02500793          	li	a5,37
   245d0:	00f70c63          	beq	a4,a5,245e8 <myprintf+0x5c8>
   245d4:	fe843783          	ld	a5,-24(s0)
   245d8:	00178713          	addi	a4,a5,1
   245dc:	fee43423          	sd	a4,-24(s0)
   245e0:	02500713          	li	a4,37
   245e4:	00e78023          	sb	a4,0(a5)
   245e8:	f9843783          	ld	a5,-104(s0)
   245ec:	0007c783          	lbu	a5,0(a5)
   245f0:	02078063          	beqz	a5,24610 <myprintf+0x5f0>
   245f4:	fe843783          	ld	a5,-24(s0)
   245f8:	00178713          	addi	a4,a5,1
   245fc:	fee43423          	sd	a4,-24(s0)
   24600:	f9843703          	ld	a4,-104(s0)
   24604:	00074703          	lbu	a4,0(a4)
   24608:	00e78023          	sb	a4,0(a5)
   2460c:	0100006f          	j	2461c <myprintf+0x5fc>
   24610:	f9843783          	ld	a5,-104(s0)
   24614:	fff78793          	addi	a5,a5,-1
   24618:	f8f43c23          	sd	a5,-104(s0)
   2461c:	00000013          	nop
   24620:	fe042783          	lw	a5,-32(s0)
   24624:	0007871b          	sext.w	a4,a5
   24628:	04c00793          	li	a5,76
   2462c:	04f71263          	bne	a4,a5,24670 <myprintf+0x650>
   24630:	fe442783          	lw	a5,-28(s0)
   24634:	0027f793          	andi	a5,a5,2
   24638:	0007879b          	sext.w	a5,a5
   2463c:	00078e63          	beqz	a5,24658 <myprintf+0x638>
   24640:	f9043783          	ld	a5,-112(s0)
   24644:	00878713          	addi	a4,a5,8
   24648:	f8e43823          	sd	a4,-112(s0)
   2464c:	0007b783          	ld	a5,0(a5)
   24650:	fcf43423          	sd	a5,-56(s0)
   24654:	1100006f          	j	24764 <myprintf+0x744>
   24658:	f9043783          	ld	a5,-112(s0)
   2465c:	00878713          	addi	a4,a5,8
   24660:	f8e43823          	sd	a4,-112(s0)
   24664:	0007b783          	ld	a5,0(a5)
   24668:	fcf43423          	sd	a5,-56(s0)
   2466c:	0f80006f          	j	24764 <myprintf+0x744>
   24670:	fe042783          	lw	a5,-32(s0)
   24674:	0007871b          	sext.w	a4,a5
   24678:	06800793          	li	a5,104
   2467c:	04f71a63          	bne	a4,a5,246d0 <myprintf+0x6b0>
   24680:	fe442783          	lw	a5,-28(s0)
   24684:	0027f793          	andi	a5,a5,2
   24688:	0007879b          	sext.w	a5,a5
   2468c:	02078263          	beqz	a5,246b0 <myprintf+0x690>
   24690:	f9043783          	ld	a5,-112(s0)
   24694:	00878713          	addi	a4,a5,8
   24698:	f8e43823          	sd	a4,-112(s0)
   2469c:	0007a783          	lw	a5,0(a5)
   246a0:	0107979b          	slliw	a5,a5,0x10
   246a4:	4107d79b          	sraiw	a5,a5,0x10
   246a8:	fcf43423          	sd	a5,-56(s0)
   246ac:	0b80006f          	j	24764 <myprintf+0x744>
   246b0:	f9043783          	ld	a5,-112(s0)
   246b4:	00878713          	addi	a4,a5,8
   246b8:	f8e43823          	sd	a4,-112(s0)
   246bc:	0007a783          	lw	a5,0(a5)
   246c0:	03079793          	slli	a5,a5,0x30
   246c4:	0307d793          	srli	a5,a5,0x30
   246c8:	fcf43423          	sd	a5,-56(s0)
   246cc:	0980006f          	j	24764 <myprintf+0x744>
   246d0:	fe042783          	lw	a5,-32(s0)
   246d4:	0007871b          	sext.w	a4,a5
   246d8:	06c00793          	li	a5,108
   246dc:	04f71263          	bne	a4,a5,24720 <myprintf+0x700>
   246e0:	fe442783          	lw	a5,-28(s0)
   246e4:	0027f793          	andi	a5,a5,2
   246e8:	0007879b          	sext.w	a5,a5
   246ec:	00078e63          	beqz	a5,24708 <myprintf+0x6e8>
   246f0:	f9043783          	ld	a5,-112(s0)
   246f4:	00878713          	addi	a4,a5,8
   246f8:	f8e43823          	sd	a4,-112(s0)
   246fc:	0007b783          	ld	a5,0(a5)
   24700:	fcf43423          	sd	a5,-56(s0)
   24704:	0600006f          	j	24764 <myprintf+0x744>
   24708:	f9043783          	ld	a5,-112(s0)
   2470c:	00878713          	addi	a4,a5,8
   24710:	f8e43823          	sd	a4,-112(s0)
   24714:	0007b783          	ld	a5,0(a5)
   24718:	fcf43423          	sd	a5,-56(s0)
   2471c:	0480006f          	j	24764 <myprintf+0x744>
   24720:	fe442783          	lw	a5,-28(s0)
   24724:	0027f793          	andi	a5,a5,2
   24728:	0007879b          	sext.w	a5,a5
   2472c:	00078e63          	beqz	a5,24748 <myprintf+0x728>
   24730:	f9043783          	ld	a5,-112(s0)
   24734:	00878713          	addi	a4,a5,8
   24738:	f8e43823          	sd	a4,-112(s0)
   2473c:	0007a783          	lw	a5,0(a5)
   24740:	fcf43423          	sd	a5,-56(s0)
   24744:	0200006f          	j	24764 <myprintf+0x744>
   24748:	f9043783          	ld	a5,-112(s0)
   2474c:	00878713          	addi	a4,a5,8
   24750:	f8e43823          	sd	a4,-112(s0)
   24754:	0007a783          	lw	a5,0(a5)
   24758:	02079793          	slli	a5,a5,0x20
   2475c:	0207d793          	srli	a5,a5,0x20
   24760:	fcf43423          	sd	a5,-56(s0)
   24764:	fb442683          	lw	a3,-76(s0)
   24768:	fb042703          	lw	a4,-80(s0)
   2476c:	fe442783          	lw	a5,-28(s0)
   24770:	fc442603          	lw	a2,-60(s0)
   24774:	fc843583          	ld	a1,-56(s0)
   24778:	fe843503          	ld	a0,-24(s0)
   2477c:	ca4ff0ef          	jal	ra,23c20 <number>
   24780:	fea43423          	sd	a0,-24(s0)
   24784:	f9843783          	ld	a5,-104(s0)
   24788:	00178793          	addi	a5,a5,1
   2478c:	f8f43c23          	sd	a5,-104(s0)
   24790:	f9843783          	ld	a5,-104(s0)
   24794:	0007c783          	lbu	a5,0(a5)
   24798:	8a079ce3          	bnez	a5,24050 <myprintf+0x30>
   2479c:	fe843783          	ld	a5,-24(s0)
   247a0:	00078023          	sb	zero,0(a5)
   247a4:	fe843703          	ld	a4,-24(s0)
   247a8:	fa843783          	ld	a5,-88(s0)
   247ac:	40f707b3          	sub	a5,a4,a5
   247b0:	0007879b          	sext.w	a5,a5
   247b4:	00078513          	mv	a0,a5
   247b8:	06813083          	ld	ra,104(sp)
   247bc:	06013403          	ld	s0,96(sp)
   247c0:	07010113          	addi	sp,sp,112
   247c4:	00008067          	ret

00000000000247c8 <init_printk_done>:
   247c8:	fe010113          	addi	sp,sp,-32
   247cc:	00113c23          	sd	ra,24(sp)
   247d0:	00813823          	sd	s0,16(sp)
   247d4:	02010413          	addi	s0,sp,32
   247d8:	00003797          	auipc	a5,0x3
   247dc:	a3078793          	addi	a5,a5,-1488 # 27208 <g_printk_status>
   247e0:	00100713          	li	a4,1
   247e4:	00e7a023          	sw	a4,0(a5)
   247e8:	fe043423          	sd	zero,-24(s0)
   247ec:	02c0006f          	j	24818 <init_printk_done+0x50>
   247f0:	00003717          	auipc	a4,0x3
   247f4:	91870713          	addi	a4,a4,-1768 # 27108 <log_buf>
   247f8:	fe843783          	ld	a5,-24(s0)
   247fc:	00f707b3          	add	a5,a4,a5
   24800:	0007c783          	lbu	a5,0(a5)
   24804:	00078513          	mv	a0,a5
   24808:	b38ff0ef          	jal	ra,23b40 <sbi_putchar>
   2480c:	fe843783          	ld	a5,-24(s0)
   24810:	00178793          	addi	a5,a5,1
   24814:	fef43423          	sd	a5,-24(s0)
   24818:	00003797          	auipc	a5,0x3
   2481c:	9f878793          	addi	a5,a5,-1544 # 27210 <g_record_len>
   24820:	0007b783          	ld	a5,0(a5)
   24824:	fe843703          	ld	a4,-24(s0)
   24828:	fcf764e3          	bltu	a4,a5,247f0 <init_printk_done+0x28>
   2482c:	00002797          	auipc	a5,0x2
   24830:	7d478793          	addi	a5,a5,2004 # 27000 <g_record>
   24834:	00003717          	auipc	a4,0x3
   24838:	8d470713          	addi	a4,a4,-1836 # 27108 <log_buf>
   2483c:	00e7b023          	sd	a4,0(a5)
   24840:	00003797          	auipc	a5,0x3
   24844:	9d078793          	addi	a5,a5,-1584 # 27210 <g_record_len>
   24848:	0007b023          	sd	zero,0(a5)
   2484c:	00000013          	nop
   24850:	01813083          	ld	ra,24(sp)
   24854:	01013403          	ld	s0,16(sp)
   24858:	02010113          	addi	sp,sp,32
   2485c:	00008067          	ret

0000000000024860 <printk>:
   24860:	f9010113          	addi	sp,sp,-112
   24864:	02113423          	sd	ra,40(sp)
   24868:	02813023          	sd	s0,32(sp)
   2486c:	03010413          	addi	s0,sp,48
   24870:	fca43c23          	sd	a0,-40(s0)
   24874:	00b43423          	sd	a1,8(s0)
   24878:	00c43823          	sd	a2,16(s0)
   2487c:	00d43c23          	sd	a3,24(s0)
   24880:	02e43023          	sd	a4,32(s0)
   24884:	02f43423          	sd	a5,40(s0)
   24888:	03043823          	sd	a6,48(s0)
   2488c:	03143c23          	sd	a7,56(s0)
   24890:	04040793          	addi	a5,s0,64
   24894:	fcf43823          	sd	a5,-48(s0)
   24898:	fd043783          	ld	a5,-48(s0)
   2489c:	fc878793          	addi	a5,a5,-56
   248a0:	fef43023          	sd	a5,-32(s0)
   248a4:	fe043783          	ld	a5,-32(s0)
   248a8:	00078693          	mv	a3,a5
   248ac:	fd843603          	ld	a2,-40(s0)
   248b0:	10000593          	li	a1,256
   248b4:	00002517          	auipc	a0,0x2
   248b8:	75450513          	addi	a0,a0,1876 # 27008 <print_buf>
   248bc:	f64ff0ef          	jal	ra,24020 <myprintf>
   248c0:	00050793          	mv	a5,a0
   248c4:	fef42423          	sw	a5,-24(s0)
   248c8:	00003797          	auipc	a5,0x3
   248cc:	94078793          	addi	a5,a5,-1728 # 27208 <g_printk_status>
   248d0:	0007a783          	lw	a5,0(a5)
   248d4:	06079663          	bnez	a5,24940 <printk+0xe0>
   248d8:	00002797          	auipc	a5,0x2
   248dc:	72878793          	addi	a5,a5,1832 # 27000 <g_record>
   248e0:	0007b783          	ld	a5,0(a5)
   248e4:	fe842703          	lw	a4,-24(s0)
   248e8:	00070613          	mv	a2,a4
   248ec:	00002597          	auipc	a1,0x2
   248f0:	71c58593          	addi	a1,a1,1820 # 27008 <print_buf>
   248f4:	00078513          	mv	a0,a5
   248f8:	134000ef          	jal	ra,24a2c <memcpy>
   248fc:	fe842703          	lw	a4,-24(s0)
   24900:	00003797          	auipc	a5,0x3
   24904:	80878793          	addi	a5,a5,-2040 # 27108 <log_buf>
   24908:	00f70733          	add	a4,a4,a5
   2490c:	00002797          	auipc	a5,0x2
   24910:	6f478793          	addi	a5,a5,1780 # 27000 <g_record>
   24914:	00e7b023          	sd	a4,0(a5)
   24918:	fe842703          	lw	a4,-24(s0)
   2491c:	00003797          	auipc	a5,0x3
   24920:	8f478793          	addi	a5,a5,-1804 # 27210 <g_record_len>
   24924:	0007b783          	ld	a5,0(a5)
   24928:	00f70733          	add	a4,a4,a5
   2492c:	00003797          	auipc	a5,0x3
   24930:	8e478793          	addi	a5,a5,-1820 # 27210 <g_record_len>
   24934:	00e7b023          	sd	a4,0(a5)
   24938:	00000793          	li	a5,0
   2493c:	08c0006f          	j	249c8 <printk+0x168>
   24940:	fe042623          	sw	zero,-20(s0)
   24944:	0640006f          	j	249a8 <printk+0x148>
   24948:	00002717          	auipc	a4,0x2
   2494c:	6c070713          	addi	a4,a4,1728 # 27008 <print_buf>
   24950:	fec42783          	lw	a5,-20(s0)
   24954:	00f707b3          	add	a5,a4,a5
   24958:	0007c783          	lbu	a5,0(a5)
   2495c:	00078713          	mv	a4,a5
   24960:	00a00793          	li	a5,10
   24964:	00f71663          	bne	a4,a5,24970 <printk+0x110>
   24968:	00d00513          	li	a0,13
   2496c:	9d4ff0ef          	jal	ra,23b40 <sbi_putchar>
   24970:	00002717          	auipc	a4,0x2
   24974:	69870713          	addi	a4,a4,1688 # 27008 <print_buf>
   24978:	fec42783          	lw	a5,-20(s0)
   2497c:	00f707b3          	add	a5,a4,a5
   24980:	0007c783          	lbu	a5,0(a5)
   24984:	00078513          	mv	a0,a5
   24988:	9b8ff0ef          	jal	ra,23b40 <sbi_putchar>
   2498c:	fec42783          	lw	a5,-20(s0)
   24990:	00078713          	mv	a4,a5
   24994:	10000793          	li	a5,256
   24998:	02e7e463          	bltu	a5,a4,249c0 <printk+0x160>
   2499c:	fec42783          	lw	a5,-20(s0)
   249a0:	0017879b          	addiw	a5,a5,1
   249a4:	fef42623          	sw	a5,-20(s0)
   249a8:	fec42703          	lw	a4,-20(s0)
   249ac:	fe842783          	lw	a5,-24(s0)
   249b0:	0007071b          	sext.w	a4,a4
   249b4:	0007879b          	sext.w	a5,a5
   249b8:	f8f748e3          	blt	a4,a5,24948 <printk+0xe8>
   249bc:	0080006f          	j	249c4 <printk+0x164>
   249c0:	00000013          	nop
   249c4:	fe842783          	lw	a5,-24(s0)
   249c8:	00078513          	mv	a0,a5
   249cc:	02813083          	ld	ra,40(sp)
   249d0:	02013403          	ld	s0,32(sp)
   249d4:	07010113          	addi	sp,sp,112
   249d8:	00008067          	ret

00000000000249dc <strlen>:
   249dc:	fd010113          	addi	sp,sp,-48
   249e0:	02813423          	sd	s0,40(sp)
   249e4:	03010413          	addi	s0,sp,48
   249e8:	fca43c23          	sd	a0,-40(s0)
   249ec:	fd843783          	ld	a5,-40(s0)
   249f0:	fef43423          	sd	a5,-24(s0)
   249f4:	0100006f          	j	24a04 <strlen+0x28>
   249f8:	fe843783          	ld	a5,-24(s0)
   249fc:	00178793          	addi	a5,a5,1
   24a00:	fef43423          	sd	a5,-24(s0)
   24a04:	fe843783          	ld	a5,-24(s0)
   24a08:	0007c783          	lbu	a5,0(a5)
   24a0c:	fe0796e3          	bnez	a5,249f8 <strlen+0x1c>
   24a10:	fe843703          	ld	a4,-24(s0)
   24a14:	fd843783          	ld	a5,-40(s0)
   24a18:	40f707b3          	sub	a5,a4,a5
   24a1c:	00078513          	mv	a0,a5
   24a20:	02813403          	ld	s0,40(sp)
   24a24:	03010113          	addi	sp,sp,48
   24a28:	00008067          	ret

0000000000024a2c <memcpy>:
   24a2c:	fc010113          	addi	sp,sp,-64
   24a30:	02813c23          	sd	s0,56(sp)
   24a34:	04010413          	addi	s0,sp,64
   24a38:	fca43c23          	sd	a0,-40(s0)
   24a3c:	fcb43823          	sd	a1,-48(s0)
   24a40:	fcc43423          	sd	a2,-56(s0)
   24a44:	fd843783          	ld	a5,-40(s0)
   24a48:	fef43423          	sd	a5,-24(s0)
   24a4c:	fd043783          	ld	a5,-48(s0)
   24a50:	fef43023          	sd	a5,-32(s0)
   24a54:	0240006f          	j	24a78 <memcpy+0x4c>
   24a58:	fe043703          	ld	a4,-32(s0)
   24a5c:	00170793          	addi	a5,a4,1
   24a60:	fef43023          	sd	a5,-32(s0)
   24a64:	fe843783          	ld	a5,-24(s0)
   24a68:	00178693          	addi	a3,a5,1
   24a6c:	fed43423          	sd	a3,-24(s0)
   24a70:	00074703          	lbu	a4,0(a4)
   24a74:	00e78023          	sb	a4,0(a5)
   24a78:	fc843783          	ld	a5,-56(s0)
   24a7c:	fff78713          	addi	a4,a5,-1
   24a80:	fce43423          	sd	a4,-56(s0)
   24a84:	fc079ae3          	bnez	a5,24a58 <memcpy+0x2c>
   24a88:	fd843783          	ld	a5,-40(s0)
   24a8c:	00078513          	mv	a0,a5
   24a90:	03813403          	ld	s0,56(sp)
   24a94:	04010113          	addi	sp,sp,64
   24a98:	00008067          	ret

0000000000024a9c <read32>:
   24a9c:	fe010113          	addi	sp,sp,-32
   24aa0:	00813c23          	sd	s0,24(sp)
   24aa4:	02010413          	addi	s0,sp,32
   24aa8:	fea43423          	sd	a0,-24(s0)
   24aac:	fe843783          	ld	a5,-24(s0)
   24ab0:	0007a783          	lw	a5,0(a5)
   24ab4:	0007879b          	sext.w	a5,a5
   24ab8:	00078513          	mv	a0,a5
   24abc:	01813403          	ld	s0,24(sp)
   24ac0:	02010113          	addi	sp,sp,32
   24ac4:	00008067          	ret

0000000000024ac8 <write32>:
   24ac8:	fe010113          	addi	sp,sp,-32
   24acc:	00813c23          	sd	s0,24(sp)
   24ad0:	02010413          	addi	s0,sp,32
   24ad4:	fea43423          	sd	a0,-24(s0)
   24ad8:	00058793          	mv	a5,a1
   24adc:	fef42223          	sw	a5,-28(s0)
   24ae0:	fe843783          	ld	a5,-24(s0)
   24ae4:	fe442703          	lw	a4,-28(s0)
   24ae8:	00e7a023          	sw	a4,0(a5)
   24aec:	00000013          	nop
   24af0:	01813403          	ld	s0,24(sp)
   24af4:	02010113          	addi	sp,sp,32
   24af8:	00008067          	ret

0000000000024afc <sdelay>:
   24afc:	fe010113          	addi	sp,sp,-32
   24b00:	00813c23          	sd	s0,24(sp)
   24b04:	02010413          	addi	s0,sp,32
   24b08:	fea43423          	sd	a0,-24(s0)
   24b0c:	fe843783          	ld	a5,-24(s0)
   24b10:	00a79793          	slli	a5,a5,0xa
   24b14:	fef43423          	sd	a5,-24(s0)
   24b18:	00000013          	nop
   24b1c:	fe843783          	ld	a5,-24(s0)
   24b20:	fff78713          	addi	a4,a5,-1
   24b24:	fee43423          	sd	a4,-24(s0)
   24b28:	fe079ae3          	bnez	a5,24b1c <sdelay+0x20>
   24b2c:	00000013          	nop
   24b30:	00000013          	nop
   24b34:	01813403          	ld	s0,24(sp)
   24b38:	02010113          	addi	sp,sp,32
   24b3c:	00008067          	ret

0000000000024b40 <set_pll_cpux_axi>:
   24b40:	fe010113          	addi	sp,sp,-32
   24b44:	00113c23          	sd	ra,24(sp)
   24b48:	00813823          	sd	s0,16(sp)
   24b4c:	02010413          	addi	s0,sp,32
   24b50:	30100593          	li	a1,769
   24b54:	020027b7          	lui	a5,0x2002
   24b58:	d0078513          	addi	a0,a5,-768 # 2001d00 <_ebss+0x1fdaae8>
   24b5c:	f6dff0ef          	jal	ra,24ac8 <write32>
   24b60:	00100513          	li	a0,1
   24b64:	f99ff0ef          	jal	ra,24afc <sdelay>
   24b68:	02001537          	lui	a0,0x2001
   24b6c:	f31ff0ef          	jal	ra,24a9c <read32>
   24b70:	00050793          	mv	a5,a0
   24b74:	fef42623          	sw	a5,-20(s0)
   24b78:	fec42703          	lw	a4,-20(s0)
   24b7c:	f80007b7          	lui	a5,0xf8000
   24b80:	fff78793          	addi	a5,a5,-1 # fffffffff7ffffff <_ebss+0xfffffffff7fd8de7>
   24b84:	00f777b3          	and	a5,a4,a5
   24b88:	fef42623          	sw	a5,-20(s0)
   24b8c:	fec42783          	lw	a5,-20(s0)
   24b90:	00078593          	mv	a1,a5
   24b94:	02001537          	lui	a0,0x2001
   24b98:	f31ff0ef          	jal	ra,24ac8 <write32>
   24b9c:	02001537          	lui	a0,0x2001
   24ba0:	efdff0ef          	jal	ra,24a9c <read32>
   24ba4:	00050793          	mv	a5,a0
   24ba8:	fef42623          	sw	a5,-20(s0)
   24bac:	fec42703          	lw	a4,-20(s0)
   24bb0:	400007b7          	lui	a5,0x40000
   24bb4:	00f767b3          	or	a5,a4,a5
   24bb8:	fef42623          	sw	a5,-20(s0)
   24bbc:	fec42783          	lw	a5,-20(s0)
   24bc0:	00078593          	mv	a1,a5
   24bc4:	02001537          	lui	a0,0x2001
   24bc8:	f01ff0ef          	jal	ra,24ac8 <write32>
   24bcc:	00500513          	li	a0,5
   24bd0:	f2dff0ef          	jal	ra,24afc <sdelay>
   24bd4:	02001537          	lui	a0,0x2001
   24bd8:	ec5ff0ef          	jal	ra,24a9c <read32>
   24bdc:	00050793          	mv	a5,a0
   24be0:	fef42623          	sw	a5,-20(s0)
   24be4:	fec42703          	lw	a4,-20(s0)
   24be8:	fffc07b7          	lui	a5,0xfffc0
   24bec:	0fc78793          	addi	a5,a5,252 # fffffffffffc00fc <_ebss+0xfffffffffff98ee4>
   24bf0:	00f777b3          	and	a5,a4,a5
   24bf4:	fef42623          	sw	a5,-20(s0)
   24bf8:	fec42703          	lw	a4,-20(s0)
   24bfc:	000037b7          	lui	a5,0x3
   24c00:	90078793          	addi	a5,a5,-1792 # 2900 <_start-0x20700>
   24c04:	00f767b3          	or	a5,a4,a5
   24c08:	fef42623          	sw	a5,-20(s0)
   24c0c:	fec42783          	lw	a5,-20(s0)
   24c10:	00078593          	mv	a1,a5
   24c14:	02001537          	lui	a0,0x2001
   24c18:	eb1ff0ef          	jal	ra,24ac8 <write32>
   24c1c:	02001537          	lui	a0,0x2001
   24c20:	e7dff0ef          	jal	ra,24a9c <read32>
   24c24:	00050793          	mv	a5,a0
   24c28:	fef42623          	sw	a5,-20(s0)
   24c2c:	fec42703          	lw	a4,-20(s0)
   24c30:	200007b7          	lui	a5,0x20000
   24c34:	00f767b3          	or	a5,a4,a5
   24c38:	fef42623          	sw	a5,-20(s0)
   24c3c:	fec42783          	lw	a5,-20(s0)
   24c40:	00078593          	mv	a1,a5
   24c44:	02001537          	lui	a0,0x2001
   24c48:	e81ff0ef          	jal	ra,24ac8 <write32>
   24c4c:	02001537          	lui	a0,0x2001
   24c50:	e4dff0ef          	jal	ra,24a9c <read32>
   24c54:	00050793          	mv	a5,a0
   24c58:	fef42623          	sw	a5,-20(s0)
   24c5c:	fec42703          	lw	a4,-20(s0)
   24c60:	800007b7          	lui	a5,0x80000
   24c64:	00f767b3          	or	a5,a4,a5
   24c68:	fef42623          	sw	a5,-20(s0)
   24c6c:	fec42783          	lw	a5,-20(s0)
   24c70:	00078593          	mv	a1,a5
   24c74:	02001537          	lui	a0,0x2001
   24c78:	e51ff0ef          	jal	ra,24ac8 <write32>
   24c7c:	00000013          	nop
   24c80:	02001537          	lui	a0,0x2001
   24c84:	e19ff0ef          	jal	ra,24a9c <read32>
   24c88:	00050793          	mv	a5,a0
   24c8c:	0007879b          	sext.w	a5,a5
   24c90:	00078713          	mv	a4,a5
   24c94:	100007b7          	lui	a5,0x10000
   24c98:	00f777b3          	and	a5,a4,a5
   24c9c:	0007879b          	sext.w	a5,a5
   24ca0:	fe0780e3          	beqz	a5,24c80 <set_pll_cpux_axi+0x140>
   24ca4:	01400513          	li	a0,20
   24ca8:	e55ff0ef          	jal	ra,24afc <sdelay>
   24cac:	02001537          	lui	a0,0x2001
   24cb0:	dedff0ef          	jal	ra,24a9c <read32>
   24cb4:	00050793          	mv	a5,a0
   24cb8:	fef42623          	sw	a5,-20(s0)
   24cbc:	fec42703          	lw	a4,-20(s0)
   24cc0:	080007b7          	lui	a5,0x8000
   24cc4:	00f767b3          	or	a5,a4,a5
   24cc8:	fef42623          	sw	a5,-20(s0)
   24ccc:	fec42783          	lw	a5,-20(s0)
   24cd0:	00078593          	mv	a1,a5
   24cd4:	02001537          	lui	a0,0x2001
   24cd8:	df1ff0ef          	jal	ra,24ac8 <write32>
   24cdc:	02001537          	lui	a0,0x2001
   24ce0:	dbdff0ef          	jal	ra,24a9c <read32>
   24ce4:	00050793          	mv	a5,a0
   24ce8:	fef42623          	sw	a5,-20(s0)
   24cec:	fec42703          	lw	a4,-20(s0)
   24cf0:	e00007b7          	lui	a5,0xe0000
   24cf4:	fff78793          	addi	a5,a5,-1 # ffffffffdfffffff <_ebss+0xffffffffdffd8de7>
   24cf8:	00f777b3          	and	a5,a4,a5
   24cfc:	fef42623          	sw	a5,-20(s0)
   24d00:	fec42783          	lw	a5,-20(s0)
   24d04:	00078593          	mv	a1,a5
   24d08:	02001537          	lui	a0,0x2001
   24d0c:	dbdff0ef          	jal	ra,24ac8 <write32>
   24d10:	00100513          	li	a0,1
   24d14:	de9ff0ef          	jal	ra,24afc <sdelay>
   24d18:	020027b7          	lui	a5,0x2002
   24d1c:	d0078513          	addi	a0,a5,-768 # 2001d00 <_ebss+0x1fdaae8>
   24d20:	d7dff0ef          	jal	ra,24a9c <read32>
   24d24:	00050793          	mv	a5,a0
   24d28:	fef42623          	sw	a5,-20(s0)
   24d2c:	fec42703          	lw	a4,-20(s0)
   24d30:	f90007b7          	lui	a5,0xf9000
   24d34:	cf078793          	addi	a5,a5,-784 # fffffffff8fffcf0 <_ebss+0xfffffffff8fd8ad8>
   24d38:	00f777b3          	and	a5,a4,a5
   24d3c:	fef42623          	sw	a5,-20(s0)
   24d40:	fec42703          	lw	a4,-20(s0)
   24d44:	050007b7          	lui	a5,0x5000
   24d48:	10078793          	addi	a5,a5,256 # 5000100 <_ebss+0x4fd8ee8>
   24d4c:	00f767b3          	or	a5,a4,a5
   24d50:	fef42623          	sw	a5,-20(s0)
   24d54:	fec42783          	lw	a5,-20(s0)
   24d58:	00078593          	mv	a1,a5
   24d5c:	020027b7          	lui	a5,0x2002
   24d60:	d0078513          	addi	a0,a5,-768 # 2001d00 <_ebss+0x1fdaae8>
   24d64:	d65ff0ef          	jal	ra,24ac8 <write32>
   24d68:	00100513          	li	a0,1
   24d6c:	d91ff0ef          	jal	ra,24afc <sdelay>
   24d70:	00000013          	nop
   24d74:	01813083          	ld	ra,24(sp)
   24d78:	01013403          	ld	s0,16(sp)
   24d7c:	02010113          	addi	sp,sp,32
   24d80:	00008067          	ret

0000000000024d84 <set_pll_periph0>:
   24d84:	fe010113          	addi	sp,sp,-32
   24d88:	00113c23          	sd	ra,24(sp)
   24d8c:	00813823          	sd	s0,16(sp)
   24d90:	02010413          	addi	s0,sp,32
   24d94:	020017b7          	lui	a5,0x2001
   24d98:	02078513          	addi	a0,a5,32 # 2001020 <_ebss+0x1fd9e08>
   24d9c:	d01ff0ef          	jal	ra,24a9c <read32>
   24da0:	00050793          	mv	a5,a0
   24da4:	0007879b          	sext.w	a5,a5
   24da8:	0007879b          	sext.w	a5,a5
   24dac:	1207cc63          	bltz	a5,24ee4 <set_pll_periph0+0x160>
   24db0:	020017b7          	lui	a5,0x2001
   24db4:	51078513          	addi	a0,a5,1296 # 2001510 <_ebss+0x1fda2f8>
   24db8:	ce5ff0ef          	jal	ra,24a9c <read32>
   24dbc:	00050793          	mv	a5,a0
   24dc0:	fef42623          	sw	a5,-20(s0)
   24dc4:	fec42703          	lw	a4,-20(s0)
   24dc8:	fd0007b7          	lui	a5,0xfd000
   24dcc:	fff78793          	addi	a5,a5,-1 # fffffffffcffffff <_ebss+0xfffffffffcfd8de7>
   24dd0:	00f777b3          	and	a5,a4,a5
   24dd4:	fef42623          	sw	a5,-20(s0)
   24dd8:	fec46703          	lwu	a4,-20(s0)
   24ddc:	020017b7          	lui	a5,0x2001
   24de0:	51078593          	addi	a1,a5,1296 # 2001510 <_ebss+0x1fda2f8>
   24de4:	00070513          	mv	a0,a4
   24de8:	ce1ff0ef          	jal	ra,24ac8 <write32>
   24dec:	000067b7          	lui	a5,0x6
   24df0:	30078593          	addi	a1,a5,768 # 6300 <_start-0x1cd00>
   24df4:	020017b7          	lui	a5,0x2001
   24df8:	02078513          	addi	a0,a5,32 # 2001020 <_ebss+0x1fd9e08>
   24dfc:	ccdff0ef          	jal	ra,24ac8 <write32>
   24e00:	020017b7          	lui	a5,0x2001
   24e04:	02078513          	addi	a0,a5,32 # 2001020 <_ebss+0x1fd9e08>
   24e08:	c95ff0ef          	jal	ra,24a9c <read32>
   24e0c:	00050793          	mv	a5,a0
   24e10:	fef42623          	sw	a5,-20(s0)
   24e14:	fec42703          	lw	a4,-20(s0)
   24e18:	200007b7          	lui	a5,0x20000
   24e1c:	00f767b3          	or	a5,a4,a5
   24e20:	fef42623          	sw	a5,-20(s0)
   24e24:	fec42783          	lw	a5,-20(s0)
   24e28:	00078593          	mv	a1,a5
   24e2c:	020017b7          	lui	a5,0x2001
   24e30:	02078513          	addi	a0,a5,32 # 2001020 <_ebss+0x1fd9e08>
   24e34:	c95ff0ef          	jal	ra,24ac8 <write32>
   24e38:	020017b7          	lui	a5,0x2001
   24e3c:	02078513          	addi	a0,a5,32 # 2001020 <_ebss+0x1fd9e08>
   24e40:	c5dff0ef          	jal	ra,24a9c <read32>
   24e44:	00050793          	mv	a5,a0
   24e48:	fef42623          	sw	a5,-20(s0)
   24e4c:	fec42703          	lw	a4,-20(s0)
   24e50:	800007b7          	lui	a5,0x80000
   24e54:	00f767b3          	or	a5,a4,a5
   24e58:	fef42623          	sw	a5,-20(s0)
   24e5c:	fec42783          	lw	a5,-20(s0)
   24e60:	00078593          	mv	a1,a5
   24e64:	020017b7          	lui	a5,0x2001
   24e68:	02078513          	addi	a0,a5,32 # 2001020 <_ebss+0x1fd9e08>
   24e6c:	c5dff0ef          	jal	ra,24ac8 <write32>
   24e70:	00000013          	nop
   24e74:	020017b7          	lui	a5,0x2001
   24e78:	02078513          	addi	a0,a5,32 # 2001020 <_ebss+0x1fd9e08>
   24e7c:	c21ff0ef          	jal	ra,24a9c <read32>
   24e80:	00050793          	mv	a5,a0
   24e84:	0007879b          	sext.w	a5,a5
   24e88:	00078713          	mv	a4,a5
   24e8c:	100007b7          	lui	a5,0x10000
   24e90:	00f777b3          	and	a5,a4,a5
   24e94:	0007879b          	sext.w	a5,a5
   24e98:	fc078ee3          	beqz	a5,24e74 <set_pll_periph0+0xf0>
   24e9c:	01400513          	li	a0,20
   24ea0:	c5dff0ef          	jal	ra,24afc <sdelay>
   24ea4:	020017b7          	lui	a5,0x2001
   24ea8:	02078513          	addi	a0,a5,32 # 2001020 <_ebss+0x1fd9e08>
   24eac:	bf1ff0ef          	jal	ra,24a9c <read32>
   24eb0:	00050793          	mv	a5,a0
   24eb4:	fef42623          	sw	a5,-20(s0)
   24eb8:	fec42703          	lw	a4,-20(s0)
   24ebc:	e00007b7          	lui	a5,0xe0000
   24ec0:	fff78793          	addi	a5,a5,-1 # ffffffffdfffffff <_ebss+0xffffffffdffd8de7>
   24ec4:	00f777b3          	and	a5,a4,a5
   24ec8:	fef42623          	sw	a5,-20(s0)
   24ecc:	fec42783          	lw	a5,-20(s0)
   24ed0:	00078593          	mv	a1,a5
   24ed4:	020017b7          	lui	a5,0x2001
   24ed8:	02078513          	addi	a0,a5,32 # 2001020 <_ebss+0x1fd9e08>
   24edc:	bedff0ef          	jal	ra,24ac8 <write32>
   24ee0:	0080006f          	j	24ee8 <set_pll_periph0+0x164>
   24ee4:	00000013          	nop
   24ee8:	01813083          	ld	ra,24(sp)
   24eec:	01013403          	ld	s0,16(sp)
   24ef0:	02010113          	addi	sp,sp,32
   24ef4:	00008067          	ret

0000000000024ef8 <set_ahb>:
   24ef8:	ff010113          	addi	sp,sp,-16
   24efc:	00113423          	sd	ra,8(sp)
   24f00:	00813023          	sd	s0,0(sp)
   24f04:	01010413          	addi	s0,sp,16
   24f08:	00200593          	li	a1,2
   24f0c:	020017b7          	lui	a5,0x2001
   24f10:	51078513          	addi	a0,a5,1296 # 2001510 <_ebss+0x1fda2f8>
   24f14:	bb5ff0ef          	jal	ra,24ac8 <write32>
   24f18:	020017b7          	lui	a5,0x2001
   24f1c:	51078513          	addi	a0,a5,1296 # 2001510 <_ebss+0x1fda2f8>
   24f20:	b7dff0ef          	jal	ra,24a9c <read32>
   24f24:	00050793          	mv	a5,a0
   24f28:	0007879b          	sext.w	a5,a5
   24f2c:	00078713          	mv	a4,a5
   24f30:	030007b7          	lui	a5,0x3000
   24f34:	00f767b3          	or	a5,a4,a5
   24f38:	0007879b          	sext.w	a5,a5
   24f3c:	00078593          	mv	a1,a5
   24f40:	020017b7          	lui	a5,0x2001
   24f44:	51078513          	addi	a0,a5,1296 # 2001510 <_ebss+0x1fda2f8>
   24f48:	b81ff0ef          	jal	ra,24ac8 <write32>
   24f4c:	00100513          	li	a0,1
   24f50:	badff0ef          	jal	ra,24afc <sdelay>
   24f54:	00000013          	nop
   24f58:	00813083          	ld	ra,8(sp)
   24f5c:	00013403          	ld	s0,0(sp)
   24f60:	01010113          	addi	sp,sp,16
   24f64:	00008067          	ret

0000000000024f68 <set_apb>:
   24f68:	ff010113          	addi	sp,sp,-16
   24f6c:	00113423          	sd	ra,8(sp)
   24f70:	00813023          	sd	s0,0(sp)
   24f74:	01010413          	addi	s0,sp,16
   24f78:	10200593          	li	a1,258
   24f7c:	020017b7          	lui	a5,0x2001
   24f80:	52078513          	addi	a0,a5,1312 # 2001520 <_ebss+0x1fda308>
   24f84:	b45ff0ef          	jal	ra,24ac8 <write32>
   24f88:	020017b7          	lui	a5,0x2001
   24f8c:	52078513          	addi	a0,a5,1312 # 2001520 <_ebss+0x1fda308>
   24f90:	b0dff0ef          	jal	ra,24a9c <read32>
   24f94:	00050793          	mv	a5,a0
   24f98:	0007879b          	sext.w	a5,a5
   24f9c:	00078713          	mv	a4,a5
   24fa0:	030007b7          	lui	a5,0x3000
   24fa4:	00f767b3          	or	a5,a4,a5
   24fa8:	0007879b          	sext.w	a5,a5
   24fac:	00078593          	mv	a1,a5
   24fb0:	020017b7          	lui	a5,0x2001
   24fb4:	52078513          	addi	a0,a5,1312 # 2001520 <_ebss+0x1fda308>
   24fb8:	b11ff0ef          	jal	ra,24ac8 <write32>
   24fbc:	00100513          	li	a0,1
   24fc0:	b3dff0ef          	jal	ra,24afc <sdelay>
   24fc4:	00000013          	nop
   24fc8:	00813083          	ld	ra,8(sp)
   24fcc:	00013403          	ld	s0,0(sp)
   24fd0:	01010113          	addi	sp,sp,16
   24fd4:	00008067          	ret

0000000000024fd8 <set_dma>:
   24fd8:	ff010113          	addi	sp,sp,-16
   24fdc:	00113423          	sd	ra,8(sp)
   24fe0:	00813023          	sd	s0,0(sp)
   24fe4:	01010413          	addi	s0,sp,16
   24fe8:	020017b7          	lui	a5,0x2001
   24fec:	70c78513          	addi	a0,a5,1804 # 200170c <_ebss+0x1fda4f4>
   24ff0:	aadff0ef          	jal	ra,24a9c <read32>
   24ff4:	00050793          	mv	a5,a0
   24ff8:	0007879b          	sext.w	a5,a5
   24ffc:	00078713          	mv	a4,a5
   25000:	000107b7          	lui	a5,0x10
   25004:	00f767b3          	or	a5,a4,a5
   25008:	0007879b          	sext.w	a5,a5
   2500c:	00078593          	mv	a1,a5
   25010:	020017b7          	lui	a5,0x2001
   25014:	70c78513          	addi	a0,a5,1804 # 200170c <_ebss+0x1fda4f4>
   25018:	ab1ff0ef          	jal	ra,24ac8 <write32>
   2501c:	01400513          	li	a0,20
   25020:	addff0ef          	jal	ra,24afc <sdelay>
   25024:	020017b7          	lui	a5,0x2001
   25028:	70c78513          	addi	a0,a5,1804 # 200170c <_ebss+0x1fda4f4>
   2502c:	a71ff0ef          	jal	ra,24a9c <read32>
   25030:	00050793          	mv	a5,a0
   25034:	0007879b          	sext.w	a5,a5
   25038:	0017e793          	ori	a5,a5,1
   2503c:	0007879b          	sext.w	a5,a5
   25040:	00078593          	mv	a1,a5
   25044:	020017b7          	lui	a5,0x2001
   25048:	70c78513          	addi	a0,a5,1804 # 200170c <_ebss+0x1fda4f4>
   2504c:	a7dff0ef          	jal	ra,24ac8 <write32>
   25050:	00000013          	nop
   25054:	00813083          	ld	ra,8(sp)
   25058:	00013403          	ld	s0,0(sp)
   2505c:	01010113          	addi	sp,sp,16
   25060:	00008067          	ret

0000000000025064 <set_mbus>:
   25064:	fe010113          	addi	sp,sp,-32
   25068:	00113c23          	sd	ra,24(sp)
   2506c:	00813823          	sd	s0,16(sp)
   25070:	02010413          	addi	s0,sp,32
   25074:	020017b7          	lui	a5,0x2001
   25078:	54078513          	addi	a0,a5,1344 # 2001540 <_ebss+0x1fda328>
   2507c:	a21ff0ef          	jal	ra,24a9c <read32>
   25080:	00050793          	mv	a5,a0
   25084:	fef42623          	sw	a5,-20(s0)
   25088:	fec42703          	lw	a4,-20(s0)
   2508c:	400007b7          	lui	a5,0x40000
   25090:	00f767b3          	or	a5,a4,a5
   25094:	fef42623          	sw	a5,-20(s0)
   25098:	fec42783          	lw	a5,-20(s0)
   2509c:	00078593          	mv	a1,a5
   250a0:	020017b7          	lui	a5,0x2001
   250a4:	54078513          	addi	a0,a5,1344 # 2001540 <_ebss+0x1fda328>
   250a8:	a21ff0ef          	jal	ra,24ac8 <write32>
   250ac:	00100513          	li	a0,1
   250b0:	a4dff0ef          	jal	ra,24afc <sdelay>
   250b4:	00000013          	nop
   250b8:	01813083          	ld	ra,24(sp)
   250bc:	01013403          	ld	s0,16(sp)
   250c0:	02010113          	addi	sp,sp,32
   250c4:	00008067          	ret

00000000000250c8 <set_module>:
   250c8:	fd010113          	addi	sp,sp,-48
   250cc:	02113423          	sd	ra,40(sp)
   250d0:	02813023          	sd	s0,32(sp)
   250d4:	03010413          	addi	s0,sp,48
   250d8:	fca43c23          	sd	a0,-40(s0)
   250dc:	fd843503          	ld	a0,-40(s0)
   250e0:	9bdff0ef          	jal	ra,24a9c <read32>
   250e4:	00050793          	mv	a5,a0
   250e8:	0007879b          	sext.w	a5,a5
   250ec:	0007879b          	sext.w	a5,a5
   250f0:	0c07c263          	bltz	a5,251b4 <set_module+0xec>
   250f4:	fd843503          	ld	a0,-40(s0)
   250f8:	9a5ff0ef          	jal	ra,24a9c <read32>
   250fc:	00050793          	mv	a5,a0
   25100:	fef42623          	sw	a5,-20(s0)
   25104:	fec42703          	lw	a4,-20(s0)
   25108:	c00007b7          	lui	a5,0xc0000
   2510c:	00f767b3          	or	a5,a4,a5
   25110:	0007879b          	sext.w	a5,a5
   25114:	00078593          	mv	a1,a5
   25118:	fd843503          	ld	a0,-40(s0)
   2511c:	9adff0ef          	jal	ra,24ac8 <write32>
   25120:	fd843503          	ld	a0,-40(s0)
   25124:	979ff0ef          	jal	ra,24a9c <read32>
   25128:	00050793          	mv	a5,a0
   2512c:	fef42623          	sw	a5,-20(s0)
   25130:	fec42703          	lw	a4,-20(s0)
   25134:	200007b7          	lui	a5,0x20000
   25138:	00f767b3          	or	a5,a4,a5
   2513c:	fef42623          	sw	a5,-20(s0)
   25140:	fec42783          	lw	a5,-20(s0)
   25144:	00078593          	mv	a1,a5
   25148:	fd843503          	ld	a0,-40(s0)
   2514c:	97dff0ef          	jal	ra,24ac8 <write32>
   25150:	00000013          	nop
   25154:	fd843503          	ld	a0,-40(s0)
   25158:	945ff0ef          	jal	ra,24a9c <read32>
   2515c:	00050793          	mv	a5,a0
   25160:	0007879b          	sext.w	a5,a5
   25164:	00078713          	mv	a4,a5
   25168:	100007b7          	lui	a5,0x10000
   2516c:	00f777b3          	and	a5,a4,a5
   25170:	0007879b          	sext.w	a5,a5
   25174:	fe0780e3          	beqz	a5,25154 <set_module+0x8c>
   25178:	01400513          	li	a0,20
   2517c:	981ff0ef          	jal	ra,24afc <sdelay>
   25180:	fd843503          	ld	a0,-40(s0)
   25184:	919ff0ef          	jal	ra,24a9c <read32>
   25188:	00050793          	mv	a5,a0
   2518c:	fef42623          	sw	a5,-20(s0)
   25190:	fec42703          	lw	a4,-20(s0)
   25194:	e00007b7          	lui	a5,0xe0000
   25198:	fff78793          	addi	a5,a5,-1 # ffffffffdfffffff <_ebss+0xffffffffdffd8de7>
   2519c:	00f777b3          	and	a5,a4,a5
   251a0:	fef42623          	sw	a5,-20(s0)
   251a4:	fec42783          	lw	a5,-20(s0)
   251a8:	00078593          	mv	a1,a5
   251ac:	fd843503          	ld	a0,-40(s0)
   251b0:	919ff0ef          	jal	ra,24ac8 <write32>
   251b4:	00000013          	nop
   251b8:	02813083          	ld	ra,40(sp)
   251bc:	02013403          	ld	s0,32(sp)
   251c0:	03010113          	addi	sp,sp,48
   251c4:	00008067          	ret

00000000000251c8 <sys_clock_init>:
   251c8:	ff010113          	addi	sp,sp,-16
   251cc:	00113423          	sd	ra,8(sp)
   251d0:	00813023          	sd	s0,0(sp)
   251d4:	01010413          	addi	s0,sp,16
   251d8:	969ff0ef          	jal	ra,24b40 <set_pll_cpux_axi>
   251dc:	ba9ff0ef          	jal	ra,24d84 <set_pll_periph0>
   251e0:	d19ff0ef          	jal	ra,24ef8 <set_ahb>
   251e4:	d85ff0ef          	jal	ra,24f68 <set_apb>
   251e8:	df1ff0ef          	jal	ra,24fd8 <set_dma>
   251ec:	e79ff0ef          	jal	ra,25064 <set_mbus>
   251f0:	020017b7          	lui	a5,0x2001
   251f4:	02078513          	addi	a0,a5,32 # 2001020 <_ebss+0x1fd9e08>
   251f8:	ed1ff0ef          	jal	ra,250c8 <set_module>
   251fc:	020017b7          	lui	a5,0x2001
   25200:	04078513          	addi	a0,a5,64 # 2001040 <_ebss+0x1fd9e28>
   25204:	ec5ff0ef          	jal	ra,250c8 <set_module>
   25208:	020017b7          	lui	a5,0x2001
   2520c:	04878513          	addi	a0,a5,72 # 2001048 <_ebss+0x1fd9e30>
   25210:	eb9ff0ef          	jal	ra,250c8 <set_module>
   25214:	020017b7          	lui	a5,0x2001
   25218:	05878513          	addi	a0,a5,88 # 2001058 <_ebss+0x1fd9e40>
   2521c:	eadff0ef          	jal	ra,250c8 <set_module>
   25220:	020017b7          	lui	a5,0x2001
   25224:	07878513          	addi	a0,a5,120 # 2001078 <_ebss+0x1fd9e60>
   25228:	ea1ff0ef          	jal	ra,250c8 <set_module>
   2522c:	020017b7          	lui	a5,0x2001
   25230:	08078513          	addi	a0,a5,128 # 2001080 <_ebss+0x1fd9e68>
   25234:	e95ff0ef          	jal	ra,250c8 <set_module>
   25238:	00000013          	nop
   2523c:	00813083          	ld	ra,8(sp)
   25240:	00013403          	ld	s0,0(sp)
   25244:	01010113          	addi	sp,sp,16
   25248:	00008067          	ret
   2524c:	0000                	unimp
	...

0000000000025250 <my_test_data>:
   25250:	abcd                	j	25842 <__func__.0+0x92>
   25252:	abcd                	j	25844 <__func__.0+0x94>
   25254:	5678                	lw	a4,108(a2)
   25256:	1234                	addi	a3,sp,296

0000000000025258 <load_store_test>:
   25258:	000212b7          	lui	t0,0x21
   2525c:	00028303          	lb	t1,0(t0) # 21000 <_start-0x2000>
   25260:	00428303          	lb	t1,4(t0)
   25264:	ffc28303          	lb	t1,-4(t0)
   25268:	0002b303          	ld	t1,0(t0)
   2526c:	00428303          	lb	t1,4(t0)
   25270:	00000297          	auipc	t0,0x0
   25274:	fe028293          	addi	t0,t0,-32 # 25250 <my_test_data>
   25278:	00000317          	auipc	t1,0x0
   2527c:	fd830313          	addi	t1,t1,-40 # 25250 <my_test_data>
   25280:	802002b7          	lui	t0,0x80200
   25284:	40200337          	lui	t1,0x40200
   25288:	00008067          	ret

000000000002528c <shift_test>:
   2528c:	c00002b7          	lui	t0,0xc0000
   25290:	0452829b          	addiw	t0,t0,69
   25294:	02129293          	slli	t0,t0,0x21
   25298:	4012d593          	srai	a1,t0,0x1
   2529c:	0012d313          	srli	t1,t0,0x1
   252a0:	0250029b          	addiw	t0,zero,37
   252a4:	01f29293          	slli	t0,t0,0x1f
   252a8:	08a28293          	addi	t0,t0,138 # ffffffffc000008a <_ebss+0xffffffffbffd8e72>
   252ac:	4012d61b          	sraiw	a2,t0,0x1
   252b0:	0012d31b          	srliw	t1,t0,0x1
   252b4:	0012969b          	slliw	a3,t0,0x1
   252b8:	0490029b          	addiw	t0,zero,73
   252bc:	01e29293          	slli	t0,t0,0x1e
   252c0:	08a28293          	addi	t0,t0,138
   252c4:	4012d61b          	sraiw	a2,t0,0x1
   252c8:	0012d31b          	srliw	t1,t0,0x1
   252cc:	0012971b          	slliw	a4,t0,0x1
   252d0:	00008067          	ret

00000000000252d4 <add_sub_test>:
   252d4:	80028593          	addi	a1,t0,-2048
   252d8:	000012b7          	lui	t0,0x1
   252dc:	a012829b          	addiw	t0,t0,-1535
   252e0:	01529293          	slli	t0,t0,0x15
   252e4:	40000337          	lui	t1,0x40000
   252e8:	70028593          	addi	a1,t0,1792 # 1700 <_start-0x21900>
   252ec:	80028593          	addi	a1,t0,-2048
   252f0:	0802861b          	addiw	a2,t0,128
   252f4:	006286b3          	add	a3,t0,t1
   252f8:	0062873b          	addw	a4,t0,t1
   252fc:	000012b7          	lui	t0,0x1
   25300:	c012829b          	addiw	t0,t0,-1023
   25304:	01529293          	slli	t0,t0,0x15
   25308:	00200337          	lui	t1,0x200
   2530c:	40628533          	sub	a0,t0,t1
   25310:	406285bb          	subw	a1,t0,t1
   25314:	00008067          	ret

0000000000025318 <add_test>:
   25318:	00b50533          	add	a0,a0,a1
   2531c:	00000013          	nop
   25320:	00008067          	ret

0000000000025324 <branch_test>:
   25324:	ff810113          	addi	sp,sp,-8
   25328:	00113023          	sd	ra,0(sp)
   2532c:	00100513          	li	a0,1
   25330:	00200593          	li	a1,2
   25334:	fe5ff0ef          	jal	ra,25318 <add_test>
   25338:	00000013          	nop
   2533c:	00013083          	ld	ra,0(sp)
   25340:	00810113          	addi	sp,sp,8
   25344:	00008067          	ret

0000000000025348 <my_memcpy_test>:
   25348:	000202b7          	lui	t0,0x20
   2534c:	00021337          	lui	t1,0x21
   25350:	02028393          	addi	t2,t0,32 # 20020 <_start-0x2fe0>

0000000000025354 <.loop>:
   25354:	0002be03          	ld	t3,0(t0)
   25358:	01c33023          	sd	t3,0(t1) # 21000 <_start-0x2000>
   2535c:	00828293          	addi	t0,t0,8
   25360:	00830313          	addi	t1,t1,8
   25364:	fe72c8e3          	blt	t0,t2,25354 <.loop>
   25368:	00008067          	ret

000000000002536c <compare_and_return>:
   2536c:	00b56663          	bltu	a0,a1,25378 <compare_and_return+0xc>
   25370:	00000793          	li	a5,0
   25374:	0080006f          	j	2537c <compare_and_return+0x10>
   25378:	fff00793          	li	a5,-1
   2537c:	00078513          	mv	a0,a5
   25380:	00008067          	ret

0000000000025384 <sel_test>:
   25384:	00050663          	beqz	a0,25390 <sel_test+0xc>
   25388:	fff58793          	addi	a5,a1,-1
   2538c:	0080006f          	j	25394 <sel_test+0x10>
   25390:	00258793          	addi	a5,a1,2
   25394:	00078513          	mv	a0,a5
   25398:	00008067          	ret

000000000002539c <bl_test>:
   2539c:	ff010113          	addi	sp,sp,-16
   253a0:	00113423          	sd	ra,8(sp)
   253a4:	fe1ff0ef          	jal	ra,25384 <sel_test>
   253a8:	00813083          	ld	ra,8(sp)
   253ac:	01010113          	addi	sp,sp,16
   253b0:	00008067          	ret
   253b4:	00000013          	nop

00000000000253b8 <func_addr>:
   253b8:	0800                	addi	s0,sp,16
   253ba:	0080                	addi	s0,sp,64
   253bc:	0000                	unimp
   253be:	0000                	unimp
   253c0:	0860                	addi	s0,sp,28
   253c2:	0080                	addi	s0,sp,64
   253c4:	0000                	unimp
   253c6:	0000                	unimp
   253c8:	0880                	addi	s0,sp,80
   253ca:	0080                	addi	s0,sp,64
   253cc:	0000                	unimp
	...

00000000000253d0 <func_string>:
   253d0:	7566                	ld	a0,120(sp)
   253d2:	636e                	ld	t1,216(sp)
   253d4:	615f 6600 6e75      	0x6e756600615f
   253da:	00625f63          	bge	tp,t1,253f8 <op_2>
   253de:	7566                	ld	a0,120(sp)
   253e0:	636e                	ld	t1,216(sp)
   253e2:	635f 0100 0000      	0x100635f

00000000000253e8 <func_num_syms>:
   253e8:	00000003          	lb	zero,0(zero) # 0 <_start-0x23000>
   253ec:	0000                	unimp
	...

00000000000253f0 <op_1>:
   253f0:	00b50533          	add	a0,a0,a1
   253f4:	00008067          	ret

00000000000253f8 <op_2>:
   253f8:	40b50533          	sub	a0,a0,a1
   253fc:	00008067          	ret

0000000000025400 <macro_test_1>:
   25400:	ff010113          	addi	sp,sp,-16
   25404:	00113423          	sd	ra,8(sp)
   25408:	00050293          	mv	t0,a0
   2540c:	00058313          	mv	t1,a1
   25410:	00028513          	mv	a0,t0
   25414:	00030593          	mv	a1,t1
   25418:	fd9ff0ef          	jal	ra,253f0 <op_1>
   2541c:	00813083          	ld	ra,8(sp)
   25420:	01010113          	addi	sp,sp,16
   25424:	00008067          	ret

0000000000025428 <macro_test_2>:
   25428:	ff010113          	addi	sp,sp,-16
   2542c:	00113423          	sd	ra,8(sp)
   25430:	00050293          	mv	t0,a0
   25434:	00058313          	mv	t1,a1
   25438:	00028513          	mv	a0,t0
   2543c:	00030593          	mv	a1,t1
   25440:	fb9ff0ef          	jal	ra,253f8 <op_2>
   25444:	00813083          	ld	ra,8(sp)
   25448:	01010113          	addi	sp,sp,16
   2544c:	00008067          	ret
	...

0000000000025458 <__init_uart>:
   25458:	020002b7          	lui	t0,0x2000
   2545c:	0f02829b          	addiw	t0,t0,240
   25460:	0002a303          	lw	t1,0(t0) # 2000000 <_ebss+0x1fd8de8>
   25464:	fff0f3b7          	lui	t2,0xfff0f
   25468:	0ff3839b          	addiw	t2,t2,255
   2546c:	00737333          	and	t1,t1,t2
   25470:	000303b7          	lui	t2,0x30
   25474:	3003839b          	addiw	t2,t2,768
   25478:	00736333          	or	t1,t1,t2
   2547c:	0062a023          	sw	t1,0(t0)
   25480:	020022b7          	lui	t0,0x2002
   25484:	90c2829b          	addiw	t0,t0,-1780
   25488:	0002a303          	lw	t1,0(t0) # 2002000 <_ebss+0x1fdade8>
   2548c:	00136313          	ori	t1,t1,1
   25490:	0062a023          	sw	t1,0(t0)
   25494:	020022b7          	lui	t0,0x2002
   25498:	90c2829b          	addiw	t0,t0,-1780
   2549c:	0002a303          	lw	t1,0(t0) # 2002000 <_ebss+0x1fdade8>
   254a0:	000103b7          	lui	t2,0x10
   254a4:	00736333          	or	t1,t1,t2
   254a8:	0062a023          	sw	t1,0(t0)
   254ac:	025002b7          	lui	t0,0x2500
   254b0:	0002a223          	sw	zero,4(t0) # 2500004 <_ebss+0x24d8dec>
   254b4:	0f700313          	li	t1,247
   254b8:	0062a423          	sw	t1,8(t0)
   254bc:	0002a823          	sw	zero,16(t0)
   254c0:	00c2a303          	lw	t1,12(t0)
   254c4:	08036313          	ori	t1,t1,128
   254c8:	0062a623          	sw	t1,12(t0)
   254cc:	00d00393          	li	t2,13
   254d0:	0072a023          	sw	t2,0(t0)
   254d4:	00000393          	li	t2,0
   254d8:	0072a223          	sw	t2,4(t0)
   254dc:	08034313          	xori	t1,t1,128
   254e0:	0062a623          	sw	t1,12(t0)
   254e4:	00c2a303          	lw	t1,12(t0)
   254e8:	ff000393          	li	t2,-16
   254ec:	00737333          	and	t1,t1,t2
   254f0:	00300393          	li	t2,3
   254f4:	00736333          	or	t1,t1,t2
   254f8:	0062a623          	sw	t1,12(t0)
   254fc:	00008067          	ret

0000000000025500 <put_uart>:
   25500:	025002b7          	lui	t0,0x2500

0000000000025504 <.loop>:
   25504:	07c2a303          	lw	t1,124(t0) # 250007c <_ebss+0x24d8e64>
   25508:	00237313          	andi	t1,t1,2
   2550c:	fe030ce3          	beqz	t1,25504 <.loop>
   25510:	00a28023          	sb	a0,0(t0)
   25514:	00008067          	ret

0000000000025518 <put_string_uart>:
   25518:	00008c13          	mv	s8,ra
   2551c:	00050793          	mv	a5,a0

0000000000025520 <.loop1>:
   25520:	0007c503          	lbu	a0,0(a5)
   25524:	00050863          	beqz	a0,25534 <.loop1+0x14>
   25528:	fd9ff0ef          	jal	ra,25500 <put_uart>
   2552c:	00178793          	addi	a5,a5,1
   25530:	ff1ff06f          	j	25520 <.loop1>
   25534:	000c0093          	mv	ra,s8
   25538:	00008067          	ret

000000000002553c <__memset_16bytes_asm>:
   2553c:	00000293          	li	t0,0

0000000000025540 <.loop>:
   25540:	00b53023          	sd	a1,0(a0) # 2001000 <_ebss+0x1fd9de8>
   25544:	00b53423          	sd	a1,8(a0)
   25548:	01028293          	addi	t0,t0,16
   2554c:	fec2cae3          	blt	t0,a2,25540 <.loop>
   25550:	00008067          	ret

Disassembly of section .rodata:

0000000000025558 <__func__.0-0x258>:
   25558:	303c                	fld	fa5,96(s0)
   2555a:	2578                	fld	fa4,200(a0)
   2555c:	786c                	ld	a1,240(s0)
   2555e:	203e                	fld	ft0,456(sp)
   25560:	7325                	lui	t1,0xfffe9
   25562:	000a                	c.slli	zero,0x2
   25564:	0000                	unimp
   25566:	0000                	unimp
   25568:	6574                	ld	a3,200(a0)
   2556a:	61207473          	csrrci	s0,0x612,0
   2556e:	646e                	ld	s0,216(sp)
   25570:	203a                	fld	ft0,392(sp)
   25572:	3d70                	fld	fa2,248(a0)
   25574:	7830                	ld	a2,112(s0)
   25576:	7825                	lui	a6,0xfffe9
   25578:	000a                	c.slli	zero,0x2
   2557a:	0000                	unimp
   2557c:	0000                	unimp
   2557e:	0000                	unimp
   25580:	6574                	ld	a3,200(a0)
   25582:	6f207473          	csrrci	s0,0x6f2,0
   25586:	7272                	ld	tp,312(sp)
   25588:	203a                	fld	ft0,392(sp)
   2558a:	3d70                	fld	fa2,248(a0)
   2558c:	7830                	ld	a2,112(s0)
   2558e:	7825                	lui	a6,0xfffe9
   25590:	000a                	c.slli	zero,0x2
   25592:	0000                	unimp
   25594:	0000                	unimp
   25596:	0000                	unimp
   25598:	6574                	ld	a3,200(a0)
   2559a:	61207473          	csrrci	s0,0x612,0
   2559e:	6464                	ld	s1,200(s0)
   255a0:	203a                	fld	ft0,392(sp)
   255a2:	3d70                	fld	fa2,248(a0)
   255a4:	7830                	ld	a2,112(s0)
   255a6:	7825                	lui	a6,0xfffe9
   255a8:	000a                	c.slli	zero,0x2
   255aa:	0000                	unimp
   255ac:	0000                	unimp
   255ae:	0000                	unimp
   255b0:	61747373          	csrrci	t1,0x617,8
   255b4:	7574                	ld	a3,232(a0)
   255b6:	303d2073          	csrs	mideleg,s10
   255ba:	2578                	fld	fa4,200(a0)
   255bc:	0a78                	addi	a4,sp,284
   255be:	0000                	unimp
   255c0:	7325                	lui	t1,0xfffe9
   255c2:	203a                	fld	ft0,392(sp)
   255c4:	2061                	0x2061
   255c6:	203d                	0x203d
   255c8:	6425                	lui	s0,0x9
   255ca:	000a                	c.slli	zero,0x2
   255cc:	0000                	unimp
   255ce:	0000                	unimp
   255d0:	7361                	lui	t1,0xffff8
   255d2:	5f6d                	li	t5,-5
   255d4:	6f746f67          	0x6f746f67
   255d8:	203a                	fld	ft0,392(sp)
   255da:	6572                	ld	a0,280(sp)
   255dc:	7574                	ld	a3,232(a0)
   255de:	6e72                	ld	t3,280(sp)
   255e0:	3120                	fld	fs0,96(a0)
   255e2:	000a                	c.slli	zero,0x2
   255e4:	0000                	unimp
   255e6:	0000                	unimp
   255e8:	7361                	lui	t1,0xffff8
   255ea:	5f6d                	li	t5,-5
   255ec:	6f746f67          	0x6f746f67
   255f0:	203a                	fld	ft0,392(sp)
   255f2:	2062                	fld	ft0,24(sp)
   255f4:	7369                	lui	t1,0xffffa
   255f6:	6e20                	ld	s0,88(a2)
   255f8:	3120746f          	jal	s0,2c90a <_ebss+0x56f2>
   255fc:	000a                	c.slli	zero,0x2
   255fe:	0000                	unimp
   25600:	616c                	ld	a1,192(a0)
   25602:	3362                	fld	ft6,56(sp)
   25604:	352d                	addiw	a0,a0,-21
   25606:	203a                	fld	ft0,392(sp)
   25608:	706d6f63          	bltu	s10,t1,25d26 <_data+0x433>
   2560c:	7261                	lui	tp,0xffff8
   2560e:	5f65                	li	t5,-7
   25610:	6e61                	lui	t3,0x18
   25612:	5f64                	lw	s1,124(a4)
   25614:	6572                	ld	a0,280(sp)
   25616:	7574                	ld	a3,232(a0)
   25618:	6e72                	ld	t3,280(sp)
   2561a:	6f20                	ld	s0,88(a4)
   2561c:	00000a6b          	0xa6b
   25620:	616c                	ld	a1,192(a0)
   25622:	3362                	fld	ft6,56(sp)
   25624:	372d                	addiw	a4,a4,-21
   25626:	203a                	fld	ft0,392(sp)
   25628:	7262                	ld	tp,56(sp)
   2562a:	6e61                	lui	t3,0x18
   2562c:	74206863          	bltu	zero,sp,25d7c <_data+0x489>
   25630:	7365                	lui	t1,0xffff9
   25632:	2074                	fld	fa3,192(s0)
   25634:	000a6b6f          	jal	s6,cb634 <_ebss+0xa441c>
   25638:	616c                	ld	a1,192(a0)
   2563a:	3562                	fld	fa0,56(sp)
   2563c:	352d                	addiw	a0,a0,-21
   2563e:	203a                	fld	ft0,392(sp)
   25640:	616d                	addi	sp,sp,240
   25642:	5f6f7263          	bgeu	t5,s6,25c26 <_data+0x333>
   25646:	6574                	ld	a3,200(a0)
   25648:	315f7473          	csrrci	s0,0x315,30
   2564c:	6f20                	ld	s0,88(a4)
   2564e:	00000a6b          	0xa6b
   25652:	0000                	unimp
   25654:	0000                	unimp
   25656:	0000                	unimp
   25658:	616c                	ld	a1,192(a0)
   2565a:	3562                	fld	fa0,56(sp)
   2565c:	352d                	addiw	a0,a0,-21
   2565e:	203a                	fld	ft0,392(sp)
   25660:	616d                	addi	sp,sp,240
   25662:	5f6f7263          	bgeu	t5,s6,25c46 <_data+0x353>
   25666:	6574                	ld	a3,200(a0)
   25668:	325f7473          	csrrci	s0,mhpmevent5,30
   2566c:	6f20                	ld	s0,88(a4)
   2566e:	00000a6b          	0xa6b
   25672:	0000                	unimp
   25674:	0000                	unimp
   25676:	0000                	unimp
   25678:	6542                	ld	a0,16(sp)
   2567a:	4f6e                	lw	t5,216(sp)
   2567c:	6d692053          	0x6d692053
   25680:	6761                	lui	a4,0x18
   25682:	2065                	0x2065
   25684:	616c                	ld	a1,192(a0)
   25686:	6f79                	lui	t5,0x1e
   25688:	7475                	lui	s0,0xffffd
   2568a:	0a3a                	slli	s4,s4,0xe
   2568c:	0000                	unimp
   2568e:	0000                	unimp
   25690:	2020                	fld	fs0,64(s0)
   25692:	742e                	ld	s0,232(sp)
   25694:	7865                	lui	a6,0xffff9
   25696:	2e74                	fld	fa3,216(a2)
   25698:	6f62                	ld	t5,24(sp)
   2569a:	203a746f          	jal	s0,cd09c <_ebss+0xa5e84>
   2569e:	7830                	ld	a2,112(s0)
   256a0:	3025                	0x3025
   256a2:	6c38                	ld	a4,88(s0)
   256a4:	2078                	fld	fa4,192(s0)
   256a6:	202d                	0x202d
   256a8:	7830                	ld	a2,112(s0)
   256aa:	3025                	0x3025
   256ac:	6c38                	ld	a4,88(s0)
   256ae:	2078                	fld	fa4,192(s0)
   256b0:	2528                	fld	fa0,72(a0)
   256b2:	6c36                	ld	s8,328(sp)
   256b4:	2064                	fld	fs1,192(s0)
   256b6:	2942                	fld	fs2,16(sp)
   256b8:	000a                	c.slli	zero,0x2
   256ba:	0000                	unimp
   256bc:	0000                	unimp
   256be:	0000                	unimp
   256c0:	2020                	fld	fs0,64(s0)
   256c2:	2020                	fld	fs0,64(s0)
   256c4:	2020                	fld	fs0,64(s0)
   256c6:	2e20                	fld	fs0,88(a2)
   256c8:	6574                	ld	a3,200(a0)
   256ca:	7478                	ld	a4,232(s0)
   256cc:	203a                	fld	ft0,392(sp)
   256ce:	7830                	ld	a2,112(s0)
   256d0:	3025                	0x3025
   256d2:	6c38                	ld	a4,88(s0)
   256d4:	2078                	fld	fa4,192(s0)
   256d6:	202d                	0x202d
   256d8:	7830                	ld	a2,112(s0)
   256da:	3025                	0x3025
   256dc:	6c38                	ld	a4,88(s0)
   256de:	2078                	fld	fa4,192(s0)
   256e0:	2528                	fld	fa0,72(a0)
   256e2:	6c36                	ld	s8,328(sp)
   256e4:	2064                	fld	fs1,192(s0)
   256e6:	2942                	fld	fs2,16(sp)
   256e8:	000a                	c.slli	zero,0x2
   256ea:	0000                	unimp
   256ec:	0000                	unimp
   256ee:	0000                	unimp
   256f0:	2020                	fld	fs0,64(s0)
   256f2:	2020                	fld	fs0,64(s0)
   256f4:	2e20                	fld	fs0,88(a2)
   256f6:	6f72                	ld	t5,280(sp)
   256f8:	6164                	ld	s1,192(a0)
   256fa:	6174                	ld	a3,192(a0)
   256fc:	203a                	fld	ft0,392(sp)
   256fe:	7830                	ld	a2,112(s0)
   25700:	3025                	0x3025
   25702:	6c38                	ld	a4,88(s0)
   25704:	2078                	fld	fa4,192(s0)
   25706:	202d                	0x202d
   25708:	7830                	ld	a2,112(s0)
   2570a:	3025                	0x3025
   2570c:	6c38                	ld	a4,88(s0)
   2570e:	2078                	fld	fa4,192(s0)
   25710:	2528                	fld	fa0,72(a0)
   25712:	6c36                	ld	s8,328(sp)
   25714:	2064                	fld	fs1,192(s0)
   25716:	2942                	fld	fs2,16(sp)
   25718:	000a                	c.slli	zero,0x2
   2571a:	0000                	unimp
   2571c:	0000                	unimp
   2571e:	0000                	unimp
   25720:	2020                	fld	fs0,64(s0)
   25722:	2020                	fld	fs0,64(s0)
   25724:	2020                	fld	fs0,64(s0)
   25726:	2e20                	fld	fs0,88(a2)
   25728:	6164                	ld	s1,192(a0)
   2572a:	6174                	ld	a3,192(a0)
   2572c:	203a                	fld	ft0,392(sp)
   2572e:	7830                	ld	a2,112(s0)
   25730:	3025                	0x3025
   25732:	6c38                	ld	a4,88(s0)
   25734:	2078                	fld	fa4,192(s0)
   25736:	202d                	0x202d
   25738:	7830                	ld	a2,112(s0)
   2573a:	3025                	0x3025
   2573c:	6c38                	ld	a4,88(s0)
   2573e:	2078                	fld	fa4,192(s0)
   25740:	2528                	fld	fa0,72(a0)
   25742:	6c36                	ld	s8,328(sp)
   25744:	2064                	fld	fs1,192(s0)
   25746:	2942                	fld	fs2,16(sp)
   25748:	000a                	c.slli	zero,0x2
   2574a:	0000                	unimp
   2574c:	0000                	unimp
   2574e:	0000                	unimp
   25750:	2020                	fld	fs0,64(s0)
   25752:	2020                	fld	fs0,64(s0)
   25754:	2020                	fld	fs0,64(s0)
   25756:	2020                	fld	fs0,64(s0)
   25758:	622e                	ld	tp,200(sp)
   2575a:	203a7373          	csrrci	t1,0x203,20
   2575e:	7830                	ld	a2,112(s0)
   25760:	3025                	0x3025
   25762:	6c38                	ld	a4,88(s0)
   25764:	2078                	fld	fa4,192(s0)
   25766:	202d                	0x202d
   25768:	7830                	ld	a2,112(s0)
   2576a:	3025                	0x3025
   2576c:	6c38                	ld	a4,88(s0)
   2576e:	2078                	fld	fa4,192(s0)
   25770:	2528                	fld	fa0,72(a0)
   25772:	6c36                	ld	s8,328(sp)
   25774:	2064                	fld	fs1,192(s0)
   25776:	2942                	fld	fs2,16(sp)
   25778:	000a                	c.slli	zero,0x2
   2577a:	0000                	unimp
   2577c:	0000                	unimp
   2577e:	0000                	unimp
   25780:	636c6557          	0x636c6557
   25784:	20656d6f          	jal	s10,7b98a <_ebss+0x54772>
   25788:	4952                	lw	s2,20(sp)
   2578a:	562d4353          	0x562d4353
   2578e:	0d21                	addi	s10,s10,8
   25790:	000a                	c.slli	zero,0x2
   25792:	0000                	unimp
   25794:	0000                	unimp
   25796:	0000                	unimp
   25798:	7270                	ld	a2,224(a2)
   2579a:	6e69                	lui	t3,0x1a
   2579c:	6b74                	ld	a3,208(a4)
   2579e:	6920                	ld	s0,80(a0)
   257a0:	696e                	ld	s2,216(sp)
   257a2:	2074                	fld	fa3,192(s0)
   257a4:	6f64                	ld	s1,216(a4)
   257a6:	656e                	ld	a0,216(sp)
   257a8:	000a                	c.slli	zero,0x2
   257aa:	0000                	unimp
   257ac:	0000                	unimp
	...

00000000000257b0 <__func__.0>:
   257b0:	6574                	ld	a3,200(a0)
   257b2:	615f7473          	csrrci	s0,0x615,30
   257b6:	675f6d73          	csrrsi	s10,0x675,30
   257ba:	006f746f          	jal	s0,11c7c0 <_ebss+0xf55a8>
   257be:	0000                	unimp
   257c0:	3130                	fld	fa2,96(a0)
   257c2:	3332                	fld	ft6,296(sp)
   257c4:	3534                	fld	fa3,104(a0)
   257c6:	3736                	fld	fa4,360(sp)
   257c8:	3938                	fld	fa4,112(a0)
   257ca:	4241                	li	tp,16
   257cc:	46454443          	fmadd.q	fs0,fa0,ft4,fs0,rmm
   257d0:	4a494847          	fmsub.d	fa6,fs2,ft4,fs1,rmm
   257d4:	4e4d4c4b          	fnmsub.q	fs8,fs10,ft4,fs1,rmm
   257d8:	5251504f          	fnmadd.d	ft0,ft2,ft5,fa0,unknown
   257dc:	56555453          	0x56555453
   257e0:	5a595857          	0x5a595857
   257e4:	0000                	unimp
   257e6:	0000                	unimp
   257e8:	3130                	fld	fa2,96(a0)
   257ea:	3332                	fld	ft6,296(sp)
   257ec:	3534                	fld	fa3,104(a0)
   257ee:	3736                	fld	fa4,360(sp)
   257f0:	3938                	fld	fa4,112(a0)
   257f2:	6261                	lui	tp,0x18
   257f4:	66656463          	bltu	a0,t1,25e5c <_data+0x569>
   257f8:	6a696867          	0x6a696867
   257fc:	6e6d6c6b          	0x6e6d6c6b
   25800:	7271706f          	j	3d726 <_ebss+0x1650e>
   25804:	76757473          	csrrci	s0,0x767,10
   25808:	7a797877          	0x7a797877
   2580c:	0000                	unimp
   2580e:	0000                	unimp
   25810:	4e3c                	lw	a5,88(a2)
   25812:	4c55                	li	s8,21
   25814:	3e4c                	fld	fa1,184(a2)
   25816:	0000                	unimp
   25818:	e8e4                	sd	s1,208(s1)
   2581a:	e914ffff          	0xe914ffff
   2581e:	e914ffff          	0xe914ffff
   25822:	e8f4ffff          	0xe8f4ffff
   25826:	e914ffff          	0xe914ffff
   2582a:	e914ffff          	0xe914ffff
   2582e:	e914ffff          	0xe914ffff
   25832:	e914ffff          	0xe914ffff
   25836:	e914ffff          	0xe914ffff
   2583a:	e914ffff          	0xe914ffff
   2583e:	e914ffff          	0xe914ffff
   25842:	e8d4ffff          	0xe8d4ffff
   25846:	e914ffff          	0xe914ffff
   2584a:	e8c4ffff          	0xe8c4ffff
   2584e:	e914ffff          	0xe914ffff
   25852:	e914ffff          	0xe914ffff
   25856:	e904ffff          	0xe904ffff
   2585a:	ed40ffff          	0xed40ffff
   2585e:	ed64ffff          	0xed64ffff
   25862:	ed64ffff          	0xed64ffff
   25866:	ed64ffff          	0xed64ffff
   2586a:	ed64ffff          	0xed64ffff
   2586e:	ed64ffff          	0xed64ffff
   25872:	ed64ffff          	0xed64ffff
   25876:	ed64ffff          	0xed64ffff
   2587a:	ed64ffff          	0xed64ffff
   2587e:	ed64ffff          	0xed64ffff
   25882:	ed64ffff          	0xed64ffff
   25886:	eae0ffff          	0xeae0ffff
   2588a:	ed4cffff          	0xed4cffff
   2588e:	ed64ffff          	0xed64ffff
   25892:	ed64ffff          	0xed64ffff
   25896:	ed64ffff          	0xed64ffff
   2589a:	ed64ffff          	0xed64ffff
   2589e:	ed4cffff          	0xed4cffff
   258a2:	ed64ffff          	0xed64ffff
   258a6:	ed64ffff          	0xed64ffff
   258aa:	ed64ffff          	0xed64ffff
   258ae:	ed64ffff          	0xed64ffff
   258b2:	eca0ffff          	0xeca0ffff
   258b6:	ed28ffff          	0xed28ffff
   258ba:	ecd0ffff          	0xecd0ffff
   258be:	ed64ffff          	0xed64ffff
   258c2:	ed64ffff          	0xed64ffff
   258c6:	eb78ffff          	0xeb78ffff
   258ca:	ed64ffff          	0xed64ffff
   258ce:	ed58ffff          	0xed58ffff
   258d2:	ed64ffff          	0xed64ffff
   258d6:	ed64ffff          	0xed64ffff
   258da:	ed34ffff          	0xed34ffff
   258de:	          	0xa0dffff

00000000000258e0 <boot_string>:
   258e0:	0a0d                	addi	s4,s4,3
   258e2:	6f42                	ld	t5,16(sp)
   258e4:	6e69746f          	jal	s0,bcfca <_ebss+0x95db2>
   258e8:	74612067          	0x74612067
   258ec:	6120                	ld	s0,64(a0)
   258ee:	0a0d6d73          	csrrsi	s10,0xa0,26
	...

Disassembly of section .data:

0000000000026000 <stacks_start>:
	...

Disassembly of section .sdata:

0000000000027000 <g_record>:
   27000:	7108                	ld	a0,32(a0)
   27002:	0002                	c.slli64	zero
   27004:	0000                	unimp
	...

Disassembly of section .bss:

0000000000027008 <print_buf>:
	...

0000000000027108 <log_buf>:
	...

0000000000027208 <g_printk_status>:
	...

0000000000027210 <g_record_len>:
	...

