
benos.elf:     file format elf64-littleriscv


Disassembly of section .text.boot:

0000000000022000 <_start>:
   22000:	10401073          	csrw	sie,zero
   22004:	7b4020ef          	jal	ra,247b8 <__init_uart>
   22008:	00000097          	auipc	ra,0x0
   2200c:	01c080e7          	jalr	28(ra) # 22024 <print_asm>
   22010:	00003117          	auipc	sp,0x3
   22014:	ff010113          	addi	sp,sp,-16 # 25000 <stacks_start>
   22018:	000012b7          	lui	t0,0x1
   2201c:	00510133          	add	sp,sp,t0
   22020:	0b80006f          	j	220d8 <kernel_main>

0000000000022024 <print_asm>:
   22024:	00008493          	mv	s1,ra
   22028:	00003517          	auipc	a0,0x3
   2202c:	9e850513          	addi	a0,a0,-1560 # 24a10 <boot_string>
   22030:	049020ef          	jal	ra,24878 <put_string_uart>
   22034:	00048093          	mv	ra,s1
   22038:	00008067          	ret

Disassembly of section .text:

0000000000022040 <add_c>:
   22040:	fe010113          	addi	sp,sp,-32
   22044:	00113c23          	sd	ra,24(sp)
   22048:	00813823          	sd	s0,16(sp)
   2204c:	02010413          	addi	s0,sp,32
   22050:	00050793          	mv	a5,a0
   22054:	00058713          	mv	a4,a1
   22058:	fef42623          	sw	a5,-20(s0)
   2205c:	00070793          	mv	a5,a4
   22060:	fef42423          	sw	a5,-24(s0)
   22064:	28c010ef          	jal	ra,232f0 <dump_stack>
   22068:	fec42703          	lw	a4,-20(s0)
   2206c:	fe842783          	lw	a5,-24(s0)
   22070:	00f707bb          	addw	a5,a4,a5
   22074:	0007879b          	sext.w	a5,a5
   22078:	00078513          	mv	a0,a5
   2207c:	01813083          	ld	ra,24(sp)
   22080:	01013403          	ld	s0,16(sp)
   22084:	02010113          	addi	sp,sp,32
   22088:	00008067          	ret

000000000002208c <func1>:
   2208c:	fe010113          	addi	sp,sp,-32
   22090:	00113c23          	sd	ra,24(sp)
   22094:	00813823          	sd	s0,16(sp)
   22098:	02010413          	addi	s0,sp,32
   2209c:	00100793          	li	a5,1
   220a0:	fef42623          	sw	a5,-20(s0)
   220a4:	00200793          	li	a5,2
   220a8:	fef42423          	sw	a5,-24(s0)
   220ac:	fe842703          	lw	a4,-24(s0)
   220b0:	fec42783          	lw	a5,-20(s0)
   220b4:	00070593          	mv	a1,a4
   220b8:	00078513          	mv	a0,a5
   220bc:	f85ff0ef          	jal	ra,22040 <add_c>
   220c0:	00050793          	mv	a5,a0
   220c4:	00078513          	mv	a0,a5
   220c8:	01813083          	ld	ra,24(sp)
   220cc:	01013403          	ld	s0,16(sp)
   220d0:	02010113          	addi	sp,sp,32
   220d4:	00008067          	ret

00000000000220d8 <kernel_main>:
   220d8:	ff010113          	addi	sp,sp,-16
   220dc:	00113423          	sd	ra,8(sp)
   220e0:	00813023          	sd	s0,0(sp)
   220e4:	01010413          	addi	s0,sp,16
   220e8:	229010ef          	jal	ra,23b10 <sys_clock_init>
   220ec:	335010ef          	jal	ra,23c20 <uart_init>
   220f0:	6f1000ef          	jal	ra,22fe0 <init_printk_done>
   220f4:	f99ff0ef          	jal	ra,2208c <func1>
   220f8:	0000006f          	j	220f8 <kernel_main+0x20>

00000000000220fc <__memset_16bytes_inline_asm>:
   220fc:	fc010113          	addi	sp,sp,-64
   22100:	02813c23          	sd	s0,56(sp)
   22104:	04010413          	addi	s0,sp,64
   22108:	fca43c23          	sd	a0,-40(s0)
   2210c:	fcb43823          	sd	a1,-48(s0)
   22110:	00060793          	mv	a5,a2
   22114:	fcf42623          	sw	a5,-52(s0)
   22118:	fe042623          	sw	zero,-20(s0)
   2211c:	fd043603          	ld	a2,-48(s0)
   22120:	fd843683          	ld	a3,-40(s0)
   22124:	fcc42703          	lw	a4,-52(s0)
   22128:	fec42783          	lw	a5,-20(s0)
   2212c:	00c6b023          	sd	a2,0(a3)
   22130:	00c6b423          	sd	a2,8(a3)
   22134:	01078793          	addi	a5,a5,16
   22138:	fee7cae3          	blt	a5,a4,2212c <__memset_16bytes_inline_asm+0x30>
   2213c:	fcd43c23          	sd	a3,-40(s0)
   22140:	fce42623          	sw	a4,-52(s0)
   22144:	fef42623          	sw	a5,-20(s0)
   22148:	00000013          	nop
   2214c:	03813403          	ld	s0,56(sp)
   22150:	04010113          	addi	sp,sp,64
   22154:	00008067          	ret

0000000000022158 <__memset_1bytes>:
   22158:	fc010113          	addi	sp,sp,-64
   2215c:	02813c23          	sd	s0,56(sp)
   22160:	04010413          	addi	s0,sp,64
   22164:	fca43c23          	sd	a0,-40(s0)
   22168:	00058793          	mv	a5,a1
   2216c:	fcc43423          	sd	a2,-56(s0)
   22170:	fcf42a23          	sw	a5,-44(s0)
   22174:	fd843783          	ld	a5,-40(s0)
   22178:	fef43423          	sd	a5,-24(s0)
   2217c:	01c0006f          	j	22198 <__memset_1bytes+0x40>
   22180:	fe843783          	ld	a5,-24(s0)
   22184:	00178713          	addi	a4,a5,1
   22188:	fee43423          	sd	a4,-24(s0)
   2218c:	fd442703          	lw	a4,-44(s0)
   22190:	0ff77713          	andi	a4,a4,255
   22194:	00e78023          	sb	a4,0(a5)
   22198:	fc843783          	ld	a5,-56(s0)
   2219c:	fff78713          	addi	a4,a5,-1
   221a0:	fce43423          	sd	a4,-56(s0)
   221a4:	fc079ee3          	bnez	a5,22180 <__memset_1bytes+0x28>
   221a8:	fd843783          	ld	a5,-40(s0)
   221ac:	00078513          	mv	a0,a5
   221b0:	03813403          	ld	s0,56(sp)
   221b4:	04010113          	addi	sp,sp,64
   221b8:	00008067          	ret

00000000000221bc <__memset>:
   221bc:	f9010113          	addi	sp,sp,-112
   221c0:	06113423          	sd	ra,104(sp)
   221c4:	06813023          	sd	s0,96(sp)
   221c8:	07010413          	addi	s0,sp,112
   221cc:	faa43423          	sd	a0,-88(s0)
   221d0:	00058793          	mv	a5,a1
   221d4:	f8c43c23          	sd	a2,-104(s0)
   221d8:	faf42223          	sw	a5,-92(s0)
   221dc:	fa843783          	ld	a5,-88(s0)
   221e0:	fef43423          	sd	a5,-24(s0)
   221e4:	01000793          	li	a5,16
   221e8:	fcf43423          	sd	a5,-56(s0)
   221ec:	f9843783          	ld	a5,-104(s0)
   221f0:	fef43023          	sd	a5,-32(s0)
   221f4:	fe843783          	ld	a5,-24(s0)
   221f8:	fcf43023          	sd	a5,-64(s0)
   221fc:	fc043823          	sd	zero,-48(s0)
   22200:	fc042e23          	sw	zero,-36(s0)
   22204:	0340006f          	j	22238 <__memset+0x7c>
   22208:	fa442783          	lw	a5,-92(s0)
   2220c:	0ff7f793          	andi	a5,a5,255
   22210:	fdc42703          	lw	a4,-36(s0)
   22214:	0037171b          	slliw	a4,a4,0x3
   22218:	0007071b          	sext.w	a4,a4
   2221c:	00e797b3          	sll	a5,a5,a4
   22220:	fd043703          	ld	a4,-48(s0)
   22224:	00f767b3          	or	a5,a4,a5
   22228:	fcf43823          	sd	a5,-48(s0)
   2222c:	fdc42783          	lw	a5,-36(s0)
   22230:	0017879b          	addiw	a5,a5,1
   22234:	fcf42e23          	sw	a5,-36(s0)
   22238:	fdc42783          	lw	a5,-36(s0)
   2223c:	0007871b          	sext.w	a4,a5
   22240:	00700793          	li	a5,7
   22244:	fce7d2e3          	bge	a5,a4,22208 <__memset+0x4c>
   22248:	fc843783          	ld	a5,-56(s0)
   2224c:	fff78713          	addi	a4,a5,-1
   22250:	fc043783          	ld	a5,-64(s0)
   22254:	00f777b3          	and	a5,a4,a5
   22258:	04078e63          	beqz	a5,222b4 <__memset+0xf8>
   2225c:	fc843783          	ld	a5,-56(s0)
   22260:	fff78793          	addi	a5,a5,-1
   22264:	fc043703          	ld	a4,-64(s0)
   22268:	00f777b3          	and	a5,a4,a5
   2226c:	faf43c23          	sd	a5,-72(s0)
   22270:	fc843703          	ld	a4,-56(s0)
   22274:	fb843783          	ld	a5,-72(s0)
   22278:	40f707b3          	sub	a5,a4,a5
   2227c:	faf43c23          	sd	a5,-72(s0)
   22280:	fa442783          	lw	a5,-92(s0)
   22284:	fb843603          	ld	a2,-72(s0)
   22288:	00078593          	mv	a1,a5
   2228c:	fe843503          	ld	a0,-24(s0)
   22290:	ec9ff0ef          	jal	ra,22158 <__memset_1bytes>
   22294:	fe843703          	ld	a4,-24(s0)
   22298:	fb843783          	ld	a5,-72(s0)
   2229c:	00f707b3          	add	a5,a4,a5
   222a0:	fef43423          	sd	a5,-24(s0)
   222a4:	f9843703          	ld	a4,-104(s0)
   222a8:	fb843783          	ld	a5,-72(s0)
   222ac:	40f707b3          	sub	a5,a4,a5
   222b0:	fef43023          	sd	a5,-32(s0)
   222b4:	fe043703          	ld	a4,-32(s0)
   222b8:	fc843783          	ld	a5,-56(s0)
   222bc:	06e7fa63          	bgeu	a5,a4,22330 <__memset+0x174>
   222c0:	fe043703          	ld	a4,-32(s0)
   222c4:	fc843783          	ld	a5,-56(s0)
   222c8:	02f757b3          	divu	a5,a4,a5
   222cc:	faf42a23          	sw	a5,-76(s0)
   222d0:	fe043703          	ld	a4,-32(s0)
   222d4:	fc843783          	ld	a5,-56(s0)
   222d8:	02f777b3          	remu	a5,a4,a5
   222dc:	fef43023          	sd	a5,-32(s0)
   222e0:	fb442783          	lw	a5,-76(s0)
   222e4:	0047979b          	slliw	a5,a5,0x4
   222e8:	0007879b          	sext.w	a5,a5
   222ec:	00078613          	mv	a2,a5
   222f0:	fd043583          	ld	a1,-48(s0)
   222f4:	fe843503          	ld	a0,-24(s0)
   222f8:	e05ff0ef          	jal	ra,220fc <__memset_16bytes_inline_asm>
   222fc:	fe043783          	ld	a5,-32(s0)
   22300:	02078863          	beqz	a5,22330 <__memset+0x174>
   22304:	fb442783          	lw	a5,-76(s0)
   22308:	0047979b          	slliw	a5,a5,0x4
   2230c:	0007879b          	sext.w	a5,a5
   22310:	00078713          	mv	a4,a5
   22314:	fe843783          	ld	a5,-24(s0)
   22318:	00e787b3          	add	a5,a5,a4
   2231c:	fa442703          	lw	a4,-92(s0)
   22320:	fe043603          	ld	a2,-32(s0)
   22324:	00070593          	mv	a1,a4
   22328:	00078513          	mv	a0,a5
   2232c:	e2dff0ef          	jal	ra,22158 <__memset_1bytes>
   22330:	fa843783          	ld	a5,-88(s0)
   22334:	00078513          	mv	a0,a5
   22338:	06813083          	ld	ra,104(sp)
   2233c:	06013403          	ld	s0,96(sp)
   22340:	07010113          	addi	sp,sp,112
   22344:	00008067          	ret

0000000000022348 <memset>:
   22348:	fd010113          	addi	sp,sp,-48
   2234c:	02113423          	sd	ra,40(sp)
   22350:	02813023          	sd	s0,32(sp)
   22354:	03010413          	addi	s0,sp,48
   22358:	fea43423          	sd	a0,-24(s0)
   2235c:	00058793          	mv	a5,a1
   22360:	fcc43c23          	sd	a2,-40(s0)
   22364:	fef42223          	sw	a5,-28(s0)
   22368:	fe442783          	lw	a5,-28(s0)
   2236c:	fd843603          	ld	a2,-40(s0)
   22370:	00078593          	mv	a1,a5
   22374:	fe843503          	ld	a0,-24(s0)
   22378:	e45ff0ef          	jal	ra,221bc <__memset>
   2237c:	00050793          	mv	a5,a0
   22380:	00078513          	mv	a0,a5
   22384:	02813083          	ld	ra,40(sp)
   22388:	02013403          	ld	s0,32(sp)
   2238c:	03010113          	addi	sp,sp,48
   22390:	00008067          	ret

0000000000022394 <scan_number>:
   22394:	fd010113          	addi	sp,sp,-48
   22398:	02813423          	sd	s0,40(sp)
   2239c:	03010413          	addi	s0,sp,48
   223a0:	fca43c23          	sd	a0,-40(s0)
   223a4:	fcb43823          	sd	a1,-48(s0)
   223a8:	fe042623          	sw	zero,-20(s0)
   223ac:	0440006f          	j	223f0 <scan_number+0x5c>
   223b0:	fec42703          	lw	a4,-20(s0)
   223b4:	00070793          	mv	a5,a4
   223b8:	0027979b          	slliw	a5,a5,0x2
   223bc:	00e787bb          	addw	a5,a5,a4
   223c0:	0017979b          	slliw	a5,a5,0x1
   223c4:	fef42623          	sw	a5,-20(s0)
   223c8:	fd843783          	ld	a5,-40(s0)
   223cc:	00178713          	addi	a4,a5,1
   223d0:	fce43c23          	sd	a4,-40(s0)
   223d4:	0007c783          	lbu	a5,0(a5)
   223d8:	0007879b          	sext.w	a5,a5
   223dc:	fd07879b          	addiw	a5,a5,-48
   223e0:	0007879b          	sext.w	a5,a5
   223e4:	fec42703          	lw	a4,-20(s0)
   223e8:	00f707bb          	addw	a5,a4,a5
   223ec:	fef42623          	sw	a5,-20(s0)
   223f0:	fd843783          	ld	a5,-40(s0)
   223f4:	0007c783          	lbu	a5,0(a5)
   223f8:	00078713          	mv	a4,a5
   223fc:	02f00793          	li	a5,47
   22400:	00e7fc63          	bgeu	a5,a4,22418 <scan_number+0x84>
   22404:	fd843783          	ld	a5,-40(s0)
   22408:	0007c783          	lbu	a5,0(a5)
   2240c:	00078713          	mv	a4,a5
   22410:	03900793          	li	a5,57
   22414:	f8e7fee3          	bgeu	a5,a4,223b0 <scan_number+0x1c>
   22418:	fd043783          	ld	a5,-48(s0)
   2241c:	fec42703          	lw	a4,-20(s0)
   22420:	00e7a023          	sw	a4,0(a5)
   22424:	fd843783          	ld	a5,-40(s0)
   22428:	00078513          	mv	a0,a5
   2242c:	02813403          	ld	s0,40(sp)
   22430:	03010113          	addi	sp,sp,48
   22434:	00008067          	ret

0000000000022438 <number>:
   22438:	f2010113          	addi	sp,sp,-224
   2243c:	0c813c23          	sd	s0,216(sp)
   22440:	0e010413          	addi	s0,sp,224
   22444:	f2a43c23          	sd	a0,-200(s0)
   22448:	f2b43823          	sd	a1,-208(s0)
   2244c:	00060593          	mv	a1,a2
   22450:	00068613          	mv	a2,a3
   22454:	00070693          	mv	a3,a4
   22458:	00078713          	mv	a4,a5
   2245c:	00058793          	mv	a5,a1
   22460:	f2f42623          	sw	a5,-212(s0)
   22464:	00060793          	mv	a5,a2
   22468:	f2f42423          	sw	a5,-216(s0)
   2246c:	00068793          	mv	a5,a3
   22470:	f2f42223          	sw	a5,-220(s0)
   22474:	00070793          	mv	a5,a4
   22478:	f2f42023          	sw	a5,-224(s0)
   2247c:	fe0407a3          	sb	zero,-17(s0)
   22480:	00002797          	auipc	a5,0x2
   22484:	43878793          	addi	a5,a5,1080 # 248b8 <_etext+0x4>
   22488:	fef43023          	sd	a5,-32(s0)
   2248c:	f2042783          	lw	a5,-224(s0)
   22490:	0407f793          	andi	a5,a5,64
   22494:	0007879b          	sext.w	a5,a5
   22498:	00078863          	beqz	a5,224a8 <number+0x70>
   2249c:	00002797          	auipc	a5,0x2
   224a0:	44478793          	addi	a5,a5,1092 # 248e0 <_etext+0x2c>
   224a4:	fef43023          	sd	a5,-32(s0)
   224a8:	f2042783          	lw	a5,-224(s0)
   224ac:	0107f793          	andi	a5,a5,16
   224b0:	0007879b          	sext.w	a5,a5
   224b4:	00078863          	beqz	a5,224c4 <number+0x8c>
   224b8:	f2042783          	lw	a5,-224(s0)
   224bc:	ffe7f793          	andi	a5,a5,-2
   224c0:	f2f42023          	sw	a5,-224(s0)
   224c4:	f2c42783          	lw	a5,-212(s0)
   224c8:	0007871b          	sext.w	a4,a5
   224cc:	00100793          	li	a5,1
   224d0:	00e7da63          	bge	a5,a4,224e4 <number+0xac>
   224d4:	f2c42783          	lw	a5,-212(s0)
   224d8:	0007871b          	sext.w	a4,a5
   224dc:	02400793          	li	a5,36
   224e0:	00e7d663          	bge	a5,a4,224ec <number+0xb4>
   224e4:	00000793          	li	a5,0
   224e8:	3400006f          	j	22828 <number+0x3f0>
   224ec:	f2042783          	lw	a5,-224(s0)
   224f0:	0017f793          	andi	a5,a5,1
   224f4:	0007879b          	sext.w	a5,a5
   224f8:	00078663          	beqz	a5,22504 <number+0xcc>
   224fc:	03000793          	li	a5,48
   22500:	0080006f          	j	22508 <number+0xd0>
   22504:	02000793          	li	a5,32
   22508:	fcf40da3          	sb	a5,-37(s0)
   2250c:	f2042783          	lw	a5,-224(s0)
   22510:	0027f793          	andi	a5,a5,2
   22514:	0007879b          	sext.w	a5,a5
   22518:	06078c63          	beqz	a5,22590 <number+0x158>
   2251c:	f3043783          	ld	a5,-208(s0)
   22520:	fcf43823          	sd	a5,-48(s0)
   22524:	fd043783          	ld	a5,-48(s0)
   22528:	0007de63          	bgez	a5,22544 <number+0x10c>
   2252c:	02d00793          	li	a5,45
   22530:	fef407a3          	sb	a5,-17(s0)
   22534:	fd043783          	ld	a5,-48(s0)
   22538:	40f007b3          	neg	a5,a5
   2253c:	f2f43823          	sd	a5,-208(s0)
   22540:	0500006f          	j	22590 <number+0x158>
   22544:	f2042783          	lw	a5,-224(s0)
   22548:	0047f793          	andi	a5,a5,4
   2254c:	0007879b          	sext.w	a5,a5
   22550:	00078e63          	beqz	a5,2256c <number+0x134>
   22554:	02b00793          	li	a5,43
   22558:	fef407a3          	sb	a5,-17(s0)
   2255c:	f2842783          	lw	a5,-216(s0)
   22560:	fff7879b          	addiw	a5,a5,-1
   22564:	f2f42423          	sw	a5,-216(s0)
   22568:	0280006f          	j	22590 <number+0x158>
   2256c:	f2042783          	lw	a5,-224(s0)
   22570:	0087f793          	andi	a5,a5,8
   22574:	0007879b          	sext.w	a5,a5
   22578:	00078c63          	beqz	a5,22590 <number+0x158>
   2257c:	02000793          	li	a5,32
   22580:	fef407a3          	sb	a5,-17(s0)
   22584:	f2842783          	lw	a5,-216(s0)
   22588:	fff7879b          	addiw	a5,a5,-1
   2258c:	f2f42423          	sw	a5,-216(s0)
   22590:	f2042783          	lw	a5,-224(s0)
   22594:	0207f793          	andi	a5,a5,32
   22598:	0007879b          	sext.w	a5,a5
   2259c:	04078063          	beqz	a5,225dc <number+0x1a4>
   225a0:	f2c42783          	lw	a5,-212(s0)
   225a4:	0007871b          	sext.w	a4,a5
   225a8:	01000793          	li	a5,16
   225ac:	00f71a63          	bne	a4,a5,225c0 <number+0x188>
   225b0:	f2842783          	lw	a5,-216(s0)
   225b4:	ffe7879b          	addiw	a5,a5,-2
   225b8:	f2f42423          	sw	a5,-216(s0)
   225bc:	0200006f          	j	225dc <number+0x1a4>
   225c0:	f2c42783          	lw	a5,-212(s0)
   225c4:	0007871b          	sext.w	a4,a5
   225c8:	00800793          	li	a5,8
   225cc:	00f71863          	bne	a4,a5,225dc <number+0x1a4>
   225d0:	f2842783          	lw	a5,-216(s0)
   225d4:	fff7879b          	addiw	a5,a5,-1
   225d8:	f2f42423          	sw	a5,-216(s0)
   225dc:	fc042e23          	sw	zero,-36(s0)
   225e0:	f3043783          	ld	a5,-208(s0)
   225e4:	06079e63          	bnez	a5,22660 <number+0x228>
   225e8:	fdc42783          	lw	a5,-36(s0)
   225ec:	0017871b          	addiw	a4,a5,1
   225f0:	fce42e23          	sw	a4,-36(s0)
   225f4:	ff040713          	addi	a4,s0,-16
   225f8:	00f707b3          	add	a5,a4,a5
   225fc:	03000713          	li	a4,48
   22600:	f4e78c23          	sb	a4,-168(a5)
   22604:	0640006f          	j	22668 <number+0x230>
   22608:	f2c42783          	lw	a5,-212(s0)
   2260c:	fcf42623          	sw	a5,-52(s0)
   22610:	fcc46783          	lwu	a5,-52(s0)
   22614:	f3043703          	ld	a4,-208(s0)
   22618:	02f777b3          	remu	a5,a4,a5
   2261c:	fcf42423          	sw	a5,-56(s0)
   22620:	fcc46783          	lwu	a5,-52(s0)
   22624:	f3043703          	ld	a4,-208(s0)
   22628:	02f757b3          	divu	a5,a4,a5
   2262c:	f2f43823          	sd	a5,-208(s0)
   22630:	fc842783          	lw	a5,-56(s0)
   22634:	02079793          	slli	a5,a5,0x20
   22638:	0207d793          	srli	a5,a5,0x20
   2263c:	fe043703          	ld	a4,-32(s0)
   22640:	00f70733          	add	a4,a4,a5
   22644:	fdc42783          	lw	a5,-36(s0)
   22648:	0017869b          	addiw	a3,a5,1
   2264c:	fcd42e23          	sw	a3,-36(s0)
   22650:	00074703          	lbu	a4,0(a4)
   22654:	ff040693          	addi	a3,s0,-16
   22658:	00f687b3          	add	a5,a3,a5
   2265c:	f4e78c23          	sb	a4,-168(a5)
   22660:	f3043783          	ld	a5,-208(s0)
   22664:	fa0792e3          	bnez	a5,22608 <number+0x1d0>
   22668:	fdc42703          	lw	a4,-36(s0)
   2266c:	f2442783          	lw	a5,-220(s0)
   22670:	0007071b          	sext.w	a4,a4
   22674:	0007879b          	sext.w	a5,a5
   22678:	00e7d663          	bge	a5,a4,22684 <number+0x24c>
   2267c:	fdc42783          	lw	a5,-36(s0)
   22680:	f2f42223          	sw	a5,-220(s0)
   22684:	f2842703          	lw	a4,-216(s0)
   22688:	f2442783          	lw	a5,-220(s0)
   2268c:	40f707bb          	subw	a5,a4,a5
   22690:	f2f42423          	sw	a5,-216(s0)
   22694:	f2042783          	lw	a5,-224(s0)
   22698:	0117f793          	andi	a5,a5,17
   2269c:	0007879b          	sext.w	a5,a5
   226a0:	02079663          	bnez	a5,226cc <number+0x294>
   226a4:	0180006f          	j	226bc <number+0x284>
   226a8:	f3843783          	ld	a5,-200(s0)
   226ac:	00178713          	addi	a4,a5,1
   226b0:	f2e43c23          	sd	a4,-200(s0)
   226b4:	02000713          	li	a4,32
   226b8:	00e78023          	sb	a4,0(a5)
   226bc:	f2842783          	lw	a5,-216(s0)
   226c0:	fff7871b          	addiw	a4,a5,-1
   226c4:	f2e42423          	sw	a4,-216(s0)
   226c8:	fef040e3          	bgtz	a5,226a8 <number+0x270>
   226cc:	fef44783          	lbu	a5,-17(s0)
   226d0:	0ff7f793          	andi	a5,a5,255
   226d4:	00078c63          	beqz	a5,226ec <number+0x2b4>
   226d8:	f3843783          	ld	a5,-200(s0)
   226dc:	00178713          	addi	a4,a5,1
   226e0:	f2e43c23          	sd	a4,-200(s0)
   226e4:	fef44703          	lbu	a4,-17(s0)
   226e8:	00e78023          	sb	a4,0(a5)
   226ec:	f2042783          	lw	a5,-224(s0)
   226f0:	0207f793          	andi	a5,a5,32
   226f4:	0007879b          	sext.w	a5,a5
   226f8:	06078463          	beqz	a5,22760 <number+0x328>
   226fc:	f2c42783          	lw	a5,-212(s0)
   22700:	0007871b          	sext.w	a4,a5
   22704:	00800793          	li	a5,8
   22708:	00f71e63          	bne	a4,a5,22724 <number+0x2ec>
   2270c:	f3843783          	ld	a5,-200(s0)
   22710:	00178713          	addi	a4,a5,1
   22714:	f2e43c23          	sd	a4,-200(s0)
   22718:	03000713          	li	a4,48
   2271c:	00e78023          	sb	a4,0(a5)
   22720:	0400006f          	j	22760 <number+0x328>
   22724:	f2c42783          	lw	a5,-212(s0)
   22728:	0007871b          	sext.w	a4,a5
   2272c:	01000793          	li	a5,16
   22730:	02f71863          	bne	a4,a5,22760 <number+0x328>
   22734:	f3843783          	ld	a5,-200(s0)
   22738:	00178713          	addi	a4,a5,1
   2273c:	f2e43c23          	sd	a4,-200(s0)
   22740:	03000713          	li	a4,48
   22744:	00e78023          	sb	a4,0(a5)
   22748:	f3843783          	ld	a5,-200(s0)
   2274c:	00178713          	addi	a4,a5,1
   22750:	f2e43c23          	sd	a4,-200(s0)
   22754:	fe043703          	ld	a4,-32(s0)
   22758:	02174703          	lbu	a4,33(a4)
   2275c:	00e78023          	sb	a4,0(a5)
   22760:	f2042783          	lw	a5,-224(s0)
   22764:	0107f793          	andi	a5,a5,16
   22768:	0007879b          	sext.w	a5,a5
   2276c:	04079263          	bnez	a5,227b0 <number+0x378>
   22770:	0180006f          	j	22788 <number+0x350>
   22774:	f3843783          	ld	a5,-200(s0)
   22778:	00178713          	addi	a4,a5,1
   2277c:	f2e43c23          	sd	a4,-200(s0)
   22780:	fdb44703          	lbu	a4,-37(s0)
   22784:	00e78023          	sb	a4,0(a5)
   22788:	f2842783          	lw	a5,-216(s0)
   2278c:	fff7871b          	addiw	a4,a5,-1
   22790:	f2e42423          	sw	a4,-216(s0)
   22794:	fef040e3          	bgtz	a5,22774 <number+0x33c>
   22798:	0180006f          	j	227b0 <number+0x378>
   2279c:	f3843783          	ld	a5,-200(s0)
   227a0:	00178713          	addi	a4,a5,1
   227a4:	f2e43c23          	sd	a4,-200(s0)
   227a8:	03000713          	li	a4,48
   227ac:	00e78023          	sb	a4,0(a5)
   227b0:	f2442783          	lw	a5,-220(s0)
   227b4:	fff7871b          	addiw	a4,a5,-1
   227b8:	f2e42223          	sw	a4,-220(s0)
   227bc:	fdc42703          	lw	a4,-36(s0)
   227c0:	0007071b          	sext.w	a4,a4
   227c4:	fcf74ce3          	blt	a4,a5,2279c <number+0x364>
   227c8:	0240006f          	j	227ec <number+0x3b4>
   227cc:	f3843783          	ld	a5,-200(s0)
   227d0:	00178713          	addi	a4,a5,1
   227d4:	f2e43c23          	sd	a4,-200(s0)
   227d8:	fdc42703          	lw	a4,-36(s0)
   227dc:	ff040693          	addi	a3,s0,-16
   227e0:	00e68733          	add	a4,a3,a4
   227e4:	f5874703          	lbu	a4,-168(a4)
   227e8:	00e78023          	sb	a4,0(a5)
   227ec:	fdc42783          	lw	a5,-36(s0)
   227f0:	fff7871b          	addiw	a4,a5,-1
   227f4:	fce42e23          	sw	a4,-36(s0)
   227f8:	fcf04ae3          	bgtz	a5,227cc <number+0x394>
   227fc:	0180006f          	j	22814 <number+0x3dc>
   22800:	f3843783          	ld	a5,-200(s0)
   22804:	00178713          	addi	a4,a5,1
   22808:	f2e43c23          	sd	a4,-200(s0)
   2280c:	02000713          	li	a4,32
   22810:	00e78023          	sb	a4,0(a5)
   22814:	f2842783          	lw	a5,-216(s0)
   22818:	fff7871b          	addiw	a4,a5,-1
   2281c:	f2e42423          	sw	a4,-216(s0)
   22820:	fef040e3          	bgtz	a5,22800 <number+0x3c8>
   22824:	f3843783          	ld	a5,-200(s0)
   22828:	00078513          	mv	a0,a5
   2282c:	0d813403          	ld	s0,216(sp)
   22830:	0e010113          	addi	sp,sp,224
   22834:	00008067          	ret

0000000000022838 <myprintf>:
   22838:	f9010113          	addi	sp,sp,-112
   2283c:	06113423          	sd	ra,104(sp)
   22840:	06813023          	sd	s0,96(sp)
   22844:	07010413          	addi	s0,sp,112
   22848:	faa43423          	sd	a0,-88(s0)
   2284c:	00058793          	mv	a5,a1
   22850:	f8c43c23          	sd	a2,-104(s0)
   22854:	f8d43823          	sd	a3,-112(s0)
   22858:	faf42223          	sw	a5,-92(s0)
   2285c:	fa843783          	ld	a5,-88(s0)
   22860:	fef43423          	sd	a5,-24(s0)
   22864:	7440006f          	j	22fa8 <myprintf+0x770>
   22868:	f9843783          	ld	a5,-104(s0)
   2286c:	0007c783          	lbu	a5,0(a5)
   22870:	00078713          	mv	a4,a5
   22874:	02500793          	li	a5,37
   22878:	02f70063          	beq	a4,a5,22898 <myprintf+0x60>
   2287c:	fe843783          	ld	a5,-24(s0)
   22880:	00178713          	addi	a4,a5,1
   22884:	fee43423          	sd	a4,-24(s0)
   22888:	f9843703          	ld	a4,-104(s0)
   2288c:	00074703          	lbu	a4,0(a4)
   22890:	00e78023          	sb	a4,0(a5)
   22894:	7080006f          	j	22f9c <myprintf+0x764>
   22898:	fe042223          	sw	zero,-28(s0)
   2289c:	f9843783          	ld	a5,-104(s0)
   228a0:	00178793          	addi	a5,a5,1
   228a4:	f8f43c23          	sd	a5,-104(s0)
   228a8:	f9843783          	ld	a5,-104(s0)
   228ac:	0007c783          	lbu	a5,0(a5)
   228b0:	0007879b          	sext.w	a5,a5
   228b4:	fe07869b          	addiw	a3,a5,-32
   228b8:	0006871b          	sext.w	a4,a3
   228bc:	01000793          	li	a5,16
   228c0:	08e7e263          	bltu	a5,a4,22944 <myprintf+0x10c>
   228c4:	02069793          	slli	a5,a3,0x20
   228c8:	0207d793          	srli	a5,a5,0x20
   228cc:	00279713          	slli	a4,a5,0x2
   228d0:	00002797          	auipc	a5,0x2
   228d4:	04078793          	addi	a5,a5,64 # 24910 <_etext+0x5c>
   228d8:	00f707b3          	add	a5,a4,a5
   228dc:	0007a783          	lw	a5,0(a5)
   228e0:	0007871b          	sext.w	a4,a5
   228e4:	00002797          	auipc	a5,0x2
   228e8:	02c78793          	addi	a5,a5,44 # 24910 <_etext+0x5c>
   228ec:	00f707b3          	add	a5,a4,a5
   228f0:	00078067          	jr	a5
   228f4:	fe442783          	lw	a5,-28(s0)
   228f8:	0107e793          	ori	a5,a5,16
   228fc:	fef42223          	sw	a5,-28(s0)
   22900:	f9dff06f          	j	2289c <myprintf+0x64>
   22904:	fe442783          	lw	a5,-28(s0)
   22908:	0047e793          	ori	a5,a5,4
   2290c:	fef42223          	sw	a5,-28(s0)
   22910:	f8dff06f          	j	2289c <myprintf+0x64>
   22914:	fe442783          	lw	a5,-28(s0)
   22918:	0087e793          	ori	a5,a5,8
   2291c:	fef42223          	sw	a5,-28(s0)
   22920:	f7dff06f          	j	2289c <myprintf+0x64>
   22924:	fe442783          	lw	a5,-28(s0)
   22928:	0207e793          	ori	a5,a5,32
   2292c:	fef42223          	sw	a5,-28(s0)
   22930:	f6dff06f          	j	2289c <myprintf+0x64>
   22934:	fe442783          	lw	a5,-28(s0)
   22938:	0017e793          	ori	a5,a5,1
   2293c:	fef42223          	sw	a5,-28(s0)
   22940:	f5dff06f          	j	2289c <myprintf+0x64>
   22944:	fff00793          	li	a5,-1
   22948:	faf42a23          	sw	a5,-76(s0)
   2294c:	f9843783          	ld	a5,-104(s0)
   22950:	0007c783          	lbu	a5,0(a5)
   22954:	00078713          	mv	a4,a5
   22958:	02f00793          	li	a5,47
   2295c:	02e7f863          	bgeu	a5,a4,2298c <myprintf+0x154>
   22960:	f9843783          	ld	a5,-104(s0)
   22964:	0007c783          	lbu	a5,0(a5)
   22968:	00078713          	mv	a4,a5
   2296c:	03900793          	li	a5,57
   22970:	00e7ee63          	bltu	a5,a4,2298c <myprintf+0x154>
   22974:	fb440793          	addi	a5,s0,-76
   22978:	00078593          	mv	a1,a5
   2297c:	f9843503          	ld	a0,-104(s0)
   22980:	a15ff0ef          	jal	ra,22394 <scan_number>
   22984:	f8a43c23          	sd	a0,-104(s0)
   22988:	0500006f          	j	229d8 <myprintf+0x1a0>
   2298c:	f9843783          	ld	a5,-104(s0)
   22990:	0007c783          	lbu	a5,0(a5)
   22994:	00078713          	mv	a4,a5
   22998:	02a00793          	li	a5,42
   2299c:	02f71e63          	bne	a4,a5,229d8 <myprintf+0x1a0>
   229a0:	f9043783          	ld	a5,-112(s0)
   229a4:	00878713          	addi	a4,a5,8
   229a8:	f8e43823          	sd	a4,-112(s0)
   229ac:	0007a783          	lw	a5,0(a5)
   229b0:	faf42a23          	sw	a5,-76(s0)
   229b4:	fb442783          	lw	a5,-76(s0)
   229b8:	0207d063          	bgez	a5,229d8 <myprintf+0x1a0>
   229bc:	fb442783          	lw	a5,-76(s0)
   229c0:	40f007bb          	negw	a5,a5
   229c4:	0007879b          	sext.w	a5,a5
   229c8:	faf42a23          	sw	a5,-76(s0)
   229cc:	fe442783          	lw	a5,-28(s0)
   229d0:	0107e793          	ori	a5,a5,16
   229d4:	fef42223          	sw	a5,-28(s0)
   229d8:	fff00793          	li	a5,-1
   229dc:	faf42823          	sw	a5,-80(s0)
   229e0:	f9843783          	ld	a5,-104(s0)
   229e4:	0007c783          	lbu	a5,0(a5)
   229e8:	00078713          	mv	a4,a5
   229ec:	02e00793          	li	a5,46
   229f0:	08f71263          	bne	a4,a5,22a74 <myprintf+0x23c>
   229f4:	f9843783          	ld	a5,-104(s0)
   229f8:	00178793          	addi	a5,a5,1
   229fc:	f8f43c23          	sd	a5,-104(s0)
   22a00:	f9843783          	ld	a5,-104(s0)
   22a04:	0007c783          	lbu	a5,0(a5)
   22a08:	00078713          	mv	a4,a5
   22a0c:	02f00793          	li	a5,47
   22a10:	02e7f863          	bgeu	a5,a4,22a40 <myprintf+0x208>
   22a14:	f9843783          	ld	a5,-104(s0)
   22a18:	0007c783          	lbu	a5,0(a5)
   22a1c:	00078713          	mv	a4,a5
   22a20:	03900793          	li	a5,57
   22a24:	00e7ee63          	bltu	a5,a4,22a40 <myprintf+0x208>
   22a28:	fb040793          	addi	a5,s0,-80
   22a2c:	00078593          	mv	a1,a5
   22a30:	f9843503          	ld	a0,-104(s0)
   22a34:	961ff0ef          	jal	ra,22394 <scan_number>
   22a38:	f8a43c23          	sd	a0,-104(s0)
   22a3c:	02c0006f          	j	22a68 <myprintf+0x230>
   22a40:	f9843783          	ld	a5,-104(s0)
   22a44:	0007c783          	lbu	a5,0(a5)
   22a48:	00078713          	mv	a4,a5
   22a4c:	02a00793          	li	a5,42
   22a50:	00f71c63          	bne	a4,a5,22a68 <myprintf+0x230>
   22a54:	f9043783          	ld	a5,-112(s0)
   22a58:	00878713          	addi	a4,a5,8
   22a5c:	f8e43823          	sd	a4,-112(s0)
   22a60:	0007a783          	lw	a5,0(a5)
   22a64:	faf42823          	sw	a5,-80(s0)
   22a68:	fb042783          	lw	a5,-80(s0)
   22a6c:	0007d463          	bgez	a5,22a74 <myprintf+0x23c>
   22a70:	fa042823          	sw	zero,-80(s0)
   22a74:	fff00793          	li	a5,-1
   22a78:	fef42023          	sw	a5,-32(s0)
   22a7c:	f9843783          	ld	a5,-104(s0)
   22a80:	0007c783          	lbu	a5,0(a5)
   22a84:	00078713          	mv	a4,a5
   22a88:	06800793          	li	a5,104
   22a8c:	02f70663          	beq	a4,a5,22ab8 <myprintf+0x280>
   22a90:	f9843783          	ld	a5,-104(s0)
   22a94:	0007c783          	lbu	a5,0(a5)
   22a98:	00078713          	mv	a4,a5
   22a9c:	06c00793          	li	a5,108
   22aa0:	00f70c63          	beq	a4,a5,22ab8 <myprintf+0x280>
   22aa4:	f9843783          	ld	a5,-104(s0)
   22aa8:	0007c783          	lbu	a5,0(a5)
   22aac:	00078713          	mv	a4,a5
   22ab0:	04c00793          	li	a5,76
   22ab4:	04f71a63          	bne	a4,a5,22b08 <myprintf+0x2d0>
   22ab8:	f9843783          	ld	a5,-104(s0)
   22abc:	0007c783          	lbu	a5,0(a5)
   22ac0:	fef42023          	sw	a5,-32(s0)
   22ac4:	f9843783          	ld	a5,-104(s0)
   22ac8:	00178793          	addi	a5,a5,1
   22acc:	f8f43c23          	sd	a5,-104(s0)
   22ad0:	fe042783          	lw	a5,-32(s0)
   22ad4:	0007871b          	sext.w	a4,a5
   22ad8:	06c00793          	li	a5,108
   22adc:	02f71663          	bne	a4,a5,22b08 <myprintf+0x2d0>
   22ae0:	f9843783          	ld	a5,-104(s0)
   22ae4:	0007c783          	lbu	a5,0(a5)
   22ae8:	00078713          	mv	a4,a5
   22aec:	06c00793          	li	a5,108
   22af0:	00f71c63          	bne	a4,a5,22b08 <myprintf+0x2d0>
   22af4:	04c00793          	li	a5,76
   22af8:	fef42023          	sw	a5,-32(s0)
   22afc:	f9843783          	ld	a5,-104(s0)
   22b00:	00178793          	addi	a5,a5,1
   22b04:	f8f43c23          	sd	a5,-104(s0)
   22b08:	f9843783          	ld	a5,-104(s0)
   22b0c:	0007c783          	lbu	a5,0(a5)
   22b10:	0007879b          	sext.w	a5,a5
   22b14:	fa87869b          	addiw	a3,a5,-88
   22b18:	0006871b          	sext.w	a4,a3
   22b1c:	02000793          	li	a5,32
   22b20:	2ae7ec63          	bltu	a5,a4,22dd8 <myprintf+0x5a0>
   22b24:	02069793          	slli	a5,a3,0x20
   22b28:	0207d793          	srli	a5,a5,0x20
   22b2c:	00279713          	slli	a4,a5,0x2
   22b30:	00002797          	auipc	a5,0x2
   22b34:	e2478793          	addi	a5,a5,-476 # 24954 <_etext+0xa0>
   22b38:	00f707b3          	add	a5,a4,a5
   22b3c:	0007a783          	lw	a5,0(a5)
   22b40:	0007871b          	sext.w	a4,a5
   22b44:	00002797          	auipc	a5,0x2
   22b48:	e1078793          	addi	a5,a5,-496 # 24954 <_etext+0xa0>
   22b4c:	00f707b3          	add	a5,a4,a5
   22b50:	00078067          	jr	a5
   22b54:	fe442783          	lw	a5,-28(s0)
   22b58:	0107f793          	andi	a5,a5,16
   22b5c:	0007879b          	sext.w	a5,a5
   22b60:	02079a63          	bnez	a5,22b94 <myprintf+0x35c>
   22b64:	0180006f          	j	22b7c <myprintf+0x344>
   22b68:	fe843783          	ld	a5,-24(s0)
   22b6c:	00178713          	addi	a4,a5,1
   22b70:	fee43423          	sd	a4,-24(s0)
   22b74:	02000713          	li	a4,32
   22b78:	00e78023          	sb	a4,0(a5)
   22b7c:	fb442783          	lw	a5,-76(s0)
   22b80:	fff7879b          	addiw	a5,a5,-1
   22b84:	0007879b          	sext.w	a5,a5
   22b88:	faf42a23          	sw	a5,-76(s0)
   22b8c:	fb442783          	lw	a5,-76(s0)
   22b90:	fcf04ce3          	bgtz	a5,22b68 <myprintf+0x330>
   22b94:	f9043783          	ld	a5,-112(s0)
   22b98:	00878713          	addi	a4,a5,8
   22b9c:	f8e43823          	sd	a4,-112(s0)
   22ba0:	0007a683          	lw	a3,0(a5)
   22ba4:	fe843783          	ld	a5,-24(s0)
   22ba8:	00178713          	addi	a4,a5,1
   22bac:	fee43423          	sd	a4,-24(s0)
   22bb0:	0ff6f713          	andi	a4,a3,255
   22bb4:	00e78023          	sb	a4,0(a5)
   22bb8:	0180006f          	j	22bd0 <myprintf+0x398>
   22bbc:	fe843783          	ld	a5,-24(s0)
   22bc0:	00178713          	addi	a4,a5,1
   22bc4:	fee43423          	sd	a4,-24(s0)
   22bc8:	02000713          	li	a4,32
   22bcc:	00e78023          	sb	a4,0(a5)
   22bd0:	fb442783          	lw	a5,-76(s0)
   22bd4:	fff7879b          	addiw	a5,a5,-1
   22bd8:	0007879b          	sext.w	a5,a5
   22bdc:	faf42a23          	sw	a5,-76(s0)
   22be0:	fb442783          	lw	a5,-76(s0)
   22be4:	fcf04ce3          	bgtz	a5,22bbc <myprintf+0x384>
   22be8:	3b40006f          	j	22f9c <myprintf+0x764>
   22bec:	f9043783          	ld	a5,-112(s0)
   22bf0:	00878713          	addi	a4,a5,8
   22bf4:	f8e43823          	sd	a4,-112(s0)
   22bf8:	0007b783          	ld	a5,0(a5)
   22bfc:	fcf43c23          	sd	a5,-40(s0)
   22c00:	fd843783          	ld	a5,-40(s0)
   22c04:	00079863          	bnez	a5,22c14 <myprintf+0x3dc>
   22c08:	00002797          	auipc	a5,0x2
   22c0c:	d0078793          	addi	a5,a5,-768 # 24908 <_etext+0x54>
   22c10:	fcf43c23          	sd	a5,-40(s0)
   22c14:	fd843503          	ld	a0,-40(s0)
   22c18:	70c000ef          	jal	ra,23324 <strlen>
   22c1c:	00050793          	mv	a5,a0
   22c20:	fcf42823          	sw	a5,-48(s0)
   22c24:	fb042783          	lw	a5,-80(s0)
   22c28:	0007d863          	bgez	a5,22c38 <myprintf+0x400>
   22c2c:	fd042783          	lw	a5,-48(s0)
   22c30:	faf42823          	sw	a5,-80(s0)
   22c34:	01c0006f          	j	22c50 <myprintf+0x418>
   22c38:	fb042703          	lw	a4,-80(s0)
   22c3c:	fd042783          	lw	a5,-48(s0)
   22c40:	0007879b          	sext.w	a5,a5
   22c44:	00f75663          	bge	a4,a5,22c50 <myprintf+0x418>
   22c48:	fb042783          	lw	a5,-80(s0)
   22c4c:	fcf42823          	sw	a5,-48(s0)
   22c50:	fe442783          	lw	a5,-28(s0)
   22c54:	0107f793          	andi	a5,a5,16
   22c58:	0007879b          	sext.w	a5,a5
   22c5c:	02079c63          	bnez	a5,22c94 <myprintf+0x45c>
   22c60:	0180006f          	j	22c78 <myprintf+0x440>
   22c64:	fe843783          	ld	a5,-24(s0)
   22c68:	00178713          	addi	a4,a5,1
   22c6c:	fee43423          	sd	a4,-24(s0)
   22c70:	02000713          	li	a4,32
   22c74:	00e78023          	sb	a4,0(a5)
   22c78:	fb442783          	lw	a5,-76(s0)
   22c7c:	fff7871b          	addiw	a4,a5,-1
   22c80:	0007071b          	sext.w	a4,a4
   22c84:	fae42a23          	sw	a4,-76(s0)
   22c88:	fd042703          	lw	a4,-48(s0)
   22c8c:	0007071b          	sext.w	a4,a4
   22c90:	fcf74ae3          	blt	a4,a5,22c64 <myprintf+0x42c>
   22c94:	fc042a23          	sw	zero,-44(s0)
   22c98:	0300006f          	j	22cc8 <myprintf+0x490>
   22c9c:	fd843703          	ld	a4,-40(s0)
   22ca0:	00170793          	addi	a5,a4,1
   22ca4:	fcf43c23          	sd	a5,-40(s0)
   22ca8:	fe843783          	ld	a5,-24(s0)
   22cac:	00178693          	addi	a3,a5,1
   22cb0:	fed43423          	sd	a3,-24(s0)
   22cb4:	00074703          	lbu	a4,0(a4)
   22cb8:	00e78023          	sb	a4,0(a5)
   22cbc:	fd442783          	lw	a5,-44(s0)
   22cc0:	0017879b          	addiw	a5,a5,1
   22cc4:	fcf42a23          	sw	a5,-44(s0)
   22cc8:	fd442703          	lw	a4,-44(s0)
   22ccc:	fd042783          	lw	a5,-48(s0)
   22cd0:	0007071b          	sext.w	a4,a4
   22cd4:	0007879b          	sext.w	a5,a5
   22cd8:	fcf742e3          	blt	a4,a5,22c9c <myprintf+0x464>
   22cdc:	0180006f          	j	22cf4 <myprintf+0x4bc>
   22ce0:	fe843783          	ld	a5,-24(s0)
   22ce4:	00178713          	addi	a4,a5,1
   22ce8:	fee43423          	sd	a4,-24(s0)
   22cec:	02000713          	li	a4,32
   22cf0:	00e78023          	sb	a4,0(a5)
   22cf4:	fb442783          	lw	a5,-76(s0)
   22cf8:	fff7871b          	addiw	a4,a5,-1
   22cfc:	0007071b          	sext.w	a4,a4
   22d00:	fae42a23          	sw	a4,-76(s0)
   22d04:	fd042703          	lw	a4,-48(s0)
   22d08:	0007071b          	sext.w	a4,a4
   22d0c:	fcf74ae3          	blt	a4,a5,22ce0 <myprintf+0x4a8>
   22d10:	28c0006f          	j	22f9c <myprintf+0x764>
   22d14:	f9043783          	ld	a5,-112(s0)
   22d18:	00878713          	addi	a4,a5,8
   22d1c:	f8e43823          	sd	a4,-112(s0)
   22d20:	0007b783          	ld	a5,0(a5)
   22d24:	faf43c23          	sd	a5,-72(s0)
   22d28:	fe843703          	ld	a4,-24(s0)
   22d2c:	fa843783          	ld	a5,-88(s0)
   22d30:	40f707b3          	sub	a5,a4,a5
   22d34:	0ff7f713          	andi	a4,a5,255
   22d38:	fb843783          	ld	a5,-72(s0)
   22d3c:	00e78023          	sb	a4,0(a5)
   22d40:	25c0006f          	j	22f9c <myprintf+0x764>
   22d44:	fb442783          	lw	a5,-76(s0)
   22d48:	00078713          	mv	a4,a5
   22d4c:	fff00793          	li	a5,-1
   22d50:	00f71c63          	bne	a4,a5,22d68 <myprintf+0x530>
   22d54:	01000793          	li	a5,16
   22d58:	faf42a23          	sw	a5,-76(s0)
   22d5c:	fe442783          	lw	a5,-28(s0)
   22d60:	0017e793          	ori	a5,a5,1
   22d64:	fef42223          	sw	a5,-28(s0)
   22d68:	f9043783          	ld	a5,-112(s0)
   22d6c:	00878713          	addi	a4,a5,8
   22d70:	f8e43823          	sd	a4,-112(s0)
   22d74:	0007b783          	ld	a5,0(a5)
   22d78:	00078593          	mv	a1,a5
   22d7c:	fb442683          	lw	a3,-76(s0)
   22d80:	fb042703          	lw	a4,-80(s0)
   22d84:	fe442783          	lw	a5,-28(s0)
   22d88:	01000613          	li	a2,16
   22d8c:	fe843503          	ld	a0,-24(s0)
   22d90:	ea8ff0ef          	jal	ra,22438 <number>
   22d94:	fea43423          	sd	a0,-24(s0)
   22d98:	2040006f          	j	22f9c <myprintf+0x764>
   22d9c:	00800793          	li	a5,8
   22da0:	fcf42223          	sw	a5,-60(s0)
   22da4:	0940006f          	j	22e38 <myprintf+0x600>
   22da8:	fe442783          	lw	a5,-28(s0)
   22dac:	0407e793          	ori	a5,a5,64
   22db0:	fef42223          	sw	a5,-28(s0)
   22db4:	01000793          	li	a5,16
   22db8:	fcf42223          	sw	a5,-60(s0)
   22dbc:	07c0006f          	j	22e38 <myprintf+0x600>
   22dc0:	fe442783          	lw	a5,-28(s0)
   22dc4:	0027e793          	ori	a5,a5,2
   22dc8:	fef42223          	sw	a5,-28(s0)
   22dcc:	00a00793          	li	a5,10
   22dd0:	fcf42223          	sw	a5,-60(s0)
   22dd4:	0640006f          	j	22e38 <myprintf+0x600>
   22dd8:	f9843783          	ld	a5,-104(s0)
   22ddc:	0007c783          	lbu	a5,0(a5)
   22de0:	00078713          	mv	a4,a5
   22de4:	02500793          	li	a5,37
   22de8:	00f70c63          	beq	a4,a5,22e00 <myprintf+0x5c8>
   22dec:	fe843783          	ld	a5,-24(s0)
   22df0:	00178713          	addi	a4,a5,1
   22df4:	fee43423          	sd	a4,-24(s0)
   22df8:	02500713          	li	a4,37
   22dfc:	00e78023          	sb	a4,0(a5)
   22e00:	f9843783          	ld	a5,-104(s0)
   22e04:	0007c783          	lbu	a5,0(a5)
   22e08:	02078063          	beqz	a5,22e28 <myprintf+0x5f0>
   22e0c:	fe843783          	ld	a5,-24(s0)
   22e10:	00178713          	addi	a4,a5,1
   22e14:	fee43423          	sd	a4,-24(s0)
   22e18:	f9843703          	ld	a4,-104(s0)
   22e1c:	00074703          	lbu	a4,0(a4)
   22e20:	00e78023          	sb	a4,0(a5)
   22e24:	0100006f          	j	22e34 <myprintf+0x5fc>
   22e28:	f9843783          	ld	a5,-104(s0)
   22e2c:	fff78793          	addi	a5,a5,-1
   22e30:	f8f43c23          	sd	a5,-104(s0)
   22e34:	00000013          	nop
   22e38:	fe042783          	lw	a5,-32(s0)
   22e3c:	0007871b          	sext.w	a4,a5
   22e40:	04c00793          	li	a5,76
   22e44:	04f71263          	bne	a4,a5,22e88 <myprintf+0x650>
   22e48:	fe442783          	lw	a5,-28(s0)
   22e4c:	0027f793          	andi	a5,a5,2
   22e50:	0007879b          	sext.w	a5,a5
   22e54:	00078e63          	beqz	a5,22e70 <myprintf+0x638>
   22e58:	f9043783          	ld	a5,-112(s0)
   22e5c:	00878713          	addi	a4,a5,8
   22e60:	f8e43823          	sd	a4,-112(s0)
   22e64:	0007b783          	ld	a5,0(a5)
   22e68:	fcf43423          	sd	a5,-56(s0)
   22e6c:	1100006f          	j	22f7c <myprintf+0x744>
   22e70:	f9043783          	ld	a5,-112(s0)
   22e74:	00878713          	addi	a4,a5,8
   22e78:	f8e43823          	sd	a4,-112(s0)
   22e7c:	0007b783          	ld	a5,0(a5)
   22e80:	fcf43423          	sd	a5,-56(s0)
   22e84:	0f80006f          	j	22f7c <myprintf+0x744>
   22e88:	fe042783          	lw	a5,-32(s0)
   22e8c:	0007871b          	sext.w	a4,a5
   22e90:	06800793          	li	a5,104
   22e94:	04f71a63          	bne	a4,a5,22ee8 <myprintf+0x6b0>
   22e98:	fe442783          	lw	a5,-28(s0)
   22e9c:	0027f793          	andi	a5,a5,2
   22ea0:	0007879b          	sext.w	a5,a5
   22ea4:	02078263          	beqz	a5,22ec8 <myprintf+0x690>
   22ea8:	f9043783          	ld	a5,-112(s0)
   22eac:	00878713          	addi	a4,a5,8
   22eb0:	f8e43823          	sd	a4,-112(s0)
   22eb4:	0007a783          	lw	a5,0(a5)
   22eb8:	0107979b          	slliw	a5,a5,0x10
   22ebc:	4107d79b          	sraiw	a5,a5,0x10
   22ec0:	fcf43423          	sd	a5,-56(s0)
   22ec4:	0b80006f          	j	22f7c <myprintf+0x744>
   22ec8:	f9043783          	ld	a5,-112(s0)
   22ecc:	00878713          	addi	a4,a5,8
   22ed0:	f8e43823          	sd	a4,-112(s0)
   22ed4:	0007a783          	lw	a5,0(a5)
   22ed8:	03079793          	slli	a5,a5,0x30
   22edc:	0307d793          	srli	a5,a5,0x30
   22ee0:	fcf43423          	sd	a5,-56(s0)
   22ee4:	0980006f          	j	22f7c <myprintf+0x744>
   22ee8:	fe042783          	lw	a5,-32(s0)
   22eec:	0007871b          	sext.w	a4,a5
   22ef0:	06c00793          	li	a5,108
   22ef4:	04f71263          	bne	a4,a5,22f38 <myprintf+0x700>
   22ef8:	fe442783          	lw	a5,-28(s0)
   22efc:	0027f793          	andi	a5,a5,2
   22f00:	0007879b          	sext.w	a5,a5
   22f04:	00078e63          	beqz	a5,22f20 <myprintf+0x6e8>
   22f08:	f9043783          	ld	a5,-112(s0)
   22f0c:	00878713          	addi	a4,a5,8
   22f10:	f8e43823          	sd	a4,-112(s0)
   22f14:	0007b783          	ld	a5,0(a5)
   22f18:	fcf43423          	sd	a5,-56(s0)
   22f1c:	0600006f          	j	22f7c <myprintf+0x744>
   22f20:	f9043783          	ld	a5,-112(s0)
   22f24:	00878713          	addi	a4,a5,8
   22f28:	f8e43823          	sd	a4,-112(s0)
   22f2c:	0007b783          	ld	a5,0(a5)
   22f30:	fcf43423          	sd	a5,-56(s0)
   22f34:	0480006f          	j	22f7c <myprintf+0x744>
   22f38:	fe442783          	lw	a5,-28(s0)
   22f3c:	0027f793          	andi	a5,a5,2
   22f40:	0007879b          	sext.w	a5,a5
   22f44:	00078e63          	beqz	a5,22f60 <myprintf+0x728>
   22f48:	f9043783          	ld	a5,-112(s0)
   22f4c:	00878713          	addi	a4,a5,8
   22f50:	f8e43823          	sd	a4,-112(s0)
   22f54:	0007a783          	lw	a5,0(a5)
   22f58:	fcf43423          	sd	a5,-56(s0)
   22f5c:	0200006f          	j	22f7c <myprintf+0x744>
   22f60:	f9043783          	ld	a5,-112(s0)
   22f64:	00878713          	addi	a4,a5,8
   22f68:	f8e43823          	sd	a4,-112(s0)
   22f6c:	0007a783          	lw	a5,0(a5)
   22f70:	02079793          	slli	a5,a5,0x20
   22f74:	0207d793          	srli	a5,a5,0x20
   22f78:	fcf43423          	sd	a5,-56(s0)
   22f7c:	fb442683          	lw	a3,-76(s0)
   22f80:	fb042703          	lw	a4,-80(s0)
   22f84:	fe442783          	lw	a5,-28(s0)
   22f88:	fc442603          	lw	a2,-60(s0)
   22f8c:	fc843583          	ld	a1,-56(s0)
   22f90:	fe843503          	ld	a0,-24(s0)
   22f94:	ca4ff0ef          	jal	ra,22438 <number>
   22f98:	fea43423          	sd	a0,-24(s0)
   22f9c:	f9843783          	ld	a5,-104(s0)
   22fa0:	00178793          	addi	a5,a5,1
   22fa4:	f8f43c23          	sd	a5,-104(s0)
   22fa8:	f9843783          	ld	a5,-104(s0)
   22fac:	0007c783          	lbu	a5,0(a5)
   22fb0:	8a079ce3          	bnez	a5,22868 <myprintf+0x30>
   22fb4:	fe843783          	ld	a5,-24(s0)
   22fb8:	00078023          	sb	zero,0(a5)
   22fbc:	fe843703          	ld	a4,-24(s0)
   22fc0:	fa843783          	ld	a5,-88(s0)
   22fc4:	40f707b3          	sub	a5,a4,a5
   22fc8:	0007879b          	sext.w	a5,a5
   22fcc:	00078513          	mv	a0,a5
   22fd0:	06813083          	ld	ra,104(sp)
   22fd4:	06013403          	ld	s0,96(sp)
   22fd8:	07010113          	addi	sp,sp,112
   22fdc:	00008067          	ret

0000000000022fe0 <init_printk_done>:
   22fe0:	fe010113          	addi	sp,sp,-32
   22fe4:	00113c23          	sd	ra,24(sp)
   22fe8:	00813823          	sd	s0,16(sp)
   22fec:	02010413          	addi	s0,sp,32
   22ff0:	00003797          	auipc	a5,0x3
   22ff4:	21878793          	addi	a5,a5,536 # 26208 <g_printk_status>
   22ff8:	00100713          	li	a4,1
   22ffc:	00e7a023          	sw	a4,0(a5)
   23000:	fe043423          	sd	zero,-24(s0)
   23004:	0300006f          	j	23034 <init_printk_done+0x54>
   23008:	00003717          	auipc	a4,0x3
   2300c:	10070713          	addi	a4,a4,256 # 26108 <log_buf>
   23010:	fe843783          	ld	a5,-24(s0)
   23014:	00f707b3          	add	a5,a4,a5
   23018:	0007c783          	lbu	a5,0(a5)
   2301c:	0007879b          	sext.w	a5,a5
   23020:	00078513          	mv	a0,a5
   23024:	6b9000ef          	jal	ra,23edc <putchar>
   23028:	fe843783          	ld	a5,-24(s0)
   2302c:	00178793          	addi	a5,a5,1
   23030:	fef43423          	sd	a5,-24(s0)
   23034:	00003797          	auipc	a5,0x3
   23038:	1dc78793          	addi	a5,a5,476 # 26210 <g_record_len>
   2303c:	0007b783          	ld	a5,0(a5)
   23040:	fe843703          	ld	a4,-24(s0)
   23044:	fcf762e3          	bltu	a4,a5,23008 <init_printk_done+0x28>
   23048:	00003797          	auipc	a5,0x3
   2304c:	fb878793          	addi	a5,a5,-72 # 26000 <g_record>
   23050:	00003717          	auipc	a4,0x3
   23054:	0b870713          	addi	a4,a4,184 # 26108 <log_buf>
   23058:	00e7b023          	sd	a4,0(a5)
   2305c:	00003797          	auipc	a5,0x3
   23060:	1b478793          	addi	a5,a5,436 # 26210 <g_record_len>
   23064:	0007b023          	sd	zero,0(a5)
   23068:	00000013          	nop
   2306c:	01813083          	ld	ra,24(sp)
   23070:	01013403          	ld	s0,16(sp)
   23074:	02010113          	addi	sp,sp,32
   23078:	00008067          	ret

000000000002307c <printk>:
   2307c:	f9010113          	addi	sp,sp,-112
   23080:	02113423          	sd	ra,40(sp)
   23084:	02813023          	sd	s0,32(sp)
   23088:	03010413          	addi	s0,sp,48
   2308c:	fca43c23          	sd	a0,-40(s0)
   23090:	00b43423          	sd	a1,8(s0)
   23094:	00c43823          	sd	a2,16(s0)
   23098:	00d43c23          	sd	a3,24(s0)
   2309c:	02e43023          	sd	a4,32(s0)
   230a0:	02f43423          	sd	a5,40(s0)
   230a4:	03043823          	sd	a6,48(s0)
   230a8:	03143c23          	sd	a7,56(s0)
   230ac:	04040793          	addi	a5,s0,64
   230b0:	fcf43823          	sd	a5,-48(s0)
   230b4:	fd043783          	ld	a5,-48(s0)
   230b8:	fc878793          	addi	a5,a5,-56
   230bc:	fef43023          	sd	a5,-32(s0)
   230c0:	fe043783          	ld	a5,-32(s0)
   230c4:	00078693          	mv	a3,a5
   230c8:	fd843603          	ld	a2,-40(s0)
   230cc:	10000593          	li	a1,256
   230d0:	00003517          	auipc	a0,0x3
   230d4:	f3850513          	addi	a0,a0,-200 # 26008 <print_buf>
   230d8:	f60ff0ef          	jal	ra,22838 <myprintf>
   230dc:	00050793          	mv	a5,a0
   230e0:	fef42423          	sw	a5,-24(s0)
   230e4:	00003797          	auipc	a5,0x3
   230e8:	12478793          	addi	a5,a5,292 # 26208 <g_printk_status>
   230ec:	0007a783          	lw	a5,0(a5)
   230f0:	06079663          	bnez	a5,2315c <printk+0xe0>
   230f4:	00003797          	auipc	a5,0x3
   230f8:	f0c78793          	addi	a5,a5,-244 # 26000 <g_record>
   230fc:	0007b783          	ld	a5,0(a5)
   23100:	fe842703          	lw	a4,-24(s0)
   23104:	00070613          	mv	a2,a4
   23108:	00003597          	auipc	a1,0x3
   2310c:	f0058593          	addi	a1,a1,-256 # 26008 <print_buf>
   23110:	00078513          	mv	a0,a5
   23114:	260000ef          	jal	ra,23374 <memcpy>
   23118:	fe842703          	lw	a4,-24(s0)
   2311c:	00003797          	auipc	a5,0x3
   23120:	fec78793          	addi	a5,a5,-20 # 26108 <log_buf>
   23124:	00f70733          	add	a4,a4,a5
   23128:	00003797          	auipc	a5,0x3
   2312c:	ed878793          	addi	a5,a5,-296 # 26000 <g_record>
   23130:	00e7b023          	sd	a4,0(a5)
   23134:	fe842703          	lw	a4,-24(s0)
   23138:	00003797          	auipc	a5,0x3
   2313c:	0d878793          	addi	a5,a5,216 # 26210 <g_record_len>
   23140:	0007b783          	ld	a5,0(a5)
   23144:	00f70733          	add	a4,a4,a5
   23148:	00003797          	auipc	a5,0x3
   2314c:	0c878793          	addi	a5,a5,200 # 26210 <g_record_len>
   23150:	00e7b023          	sd	a4,0(a5)
   23154:	00000793          	li	a5,0
   23158:	0680006f          	j	231c0 <printk+0x144>
   2315c:	fe042623          	sw	zero,-20(s0)
   23160:	0400006f          	j	231a0 <printk+0x124>
   23164:	00003717          	auipc	a4,0x3
   23168:	ea470713          	addi	a4,a4,-348 # 26008 <print_buf>
   2316c:	fec42783          	lw	a5,-20(s0)
   23170:	00f707b3          	add	a5,a4,a5
   23174:	0007c783          	lbu	a5,0(a5)
   23178:	0007879b          	sext.w	a5,a5
   2317c:	00078513          	mv	a0,a5
   23180:	55d000ef          	jal	ra,23edc <putchar>
   23184:	fec42783          	lw	a5,-20(s0)
   23188:	00078713          	mv	a4,a5
   2318c:	10000793          	li	a5,256
   23190:	02e7e463          	bltu	a5,a4,231b8 <printk+0x13c>
   23194:	fec42783          	lw	a5,-20(s0)
   23198:	0017879b          	addiw	a5,a5,1
   2319c:	fef42623          	sw	a5,-20(s0)
   231a0:	fec42703          	lw	a4,-20(s0)
   231a4:	fe842783          	lw	a5,-24(s0)
   231a8:	0007071b          	sext.w	a4,a4
   231ac:	0007879b          	sext.w	a5,a5
   231b0:	faf74ae3          	blt	a4,a5,23164 <printk+0xe8>
   231b4:	0080006f          	j	231bc <printk+0x140>
   231b8:	00000013          	nop
   231bc:	fe842783          	lw	a5,-24(s0)
   231c0:	00078513          	mv	a0,a5
   231c4:	02813083          	ld	ra,40(sp)
   231c8:	02013403          	ld	s0,32(sp)
   231cc:	07010113          	addi	sp,sp,112
   231d0:	00008067          	ret

00000000000231d4 <kernel_text>:
   231d4:	fe010113          	addi	sp,sp,-32
   231d8:	00813c23          	sd	s0,24(sp)
   231dc:	02010413          	addi	s0,sp,32
   231e0:	fea43423          	sd	a0,-24(s0)
   231e4:	fffff797          	auipc	a5,0xfffff
   231e8:	e5c78793          	addi	a5,a5,-420 # 22040 <add_c>
   231ec:	fe843703          	ld	a4,-24(s0)
   231f0:	00f76e63          	bltu	a4,a5,2320c <kernel_text+0x38>
   231f4:	00001797          	auipc	a5,0x1
   231f8:	6c078793          	addi	a5,a5,1728 # 248b4 <_etext>
   231fc:	fe843703          	ld	a4,-24(s0)
   23200:	00f77663          	bgeu	a4,a5,2320c <kernel_text+0x38>
   23204:	00100793          	li	a5,1
   23208:	0080006f          	j	23210 <kernel_text+0x3c>
   2320c:	00000793          	li	a5,0
   23210:	00078513          	mv	a0,a5
   23214:	01813403          	ld	s0,24(sp)
   23218:	02010113          	addi	sp,sp,32
   2321c:	00008067          	ret

0000000000023220 <walk_stackframe>:
   23220:	fc010113          	addi	sp,sp,-64
   23224:	02113c23          	sd	ra,56(sp)
   23228:	02813823          	sd	s0,48(sp)
   2322c:	04010413          	addi	s0,sp,64
   23230:	fe243423          	sd	sp,-24(s0)
   23234:	00000797          	auipc	a5,0x0
   23238:	fec78793          	addi	a5,a5,-20 # 23220 <walk_stackframe>
   2323c:	fcf43c23          	sd	a5,-40(s0)
   23240:	00040793          	mv	a5,s0
   23244:	fef43023          	sd	a5,-32(s0)
   23248:	fd843503          	ld	a0,-40(s0)
   2324c:	f89ff0ef          	jal	ra,231d4 <kernel_text>
   23250:	00050793          	mv	a5,a0
   23254:	08078263          	beqz	a5,232d8 <walk_stackframe+0xb8>
   23258:	fe843783          	ld	a5,-24(s0)
   2325c:	01078793          	addi	a5,a5,16
   23260:	fcf43823          	sd	a5,-48(s0)
   23264:	fe043703          	ld	a4,-32(s0)
   23268:	fd043783          	ld	a5,-48(s0)
   2326c:	06f76863          	bltu	a4,a5,232dc <walk_stackframe+0xbc>
   23270:	fe043783          	ld	a5,-32(s0)
   23274:	00f7f793          	andi	a5,a5,15
   23278:	06079263          	bnez	a5,232dc <walk_stackframe+0xbc>
   2327c:	fe043783          	ld	a5,-32(s0)
   23280:	ff078793          	addi	a5,a5,-16
   23284:	fcf43423          	sd	a5,-56(s0)
   23288:	fe043783          	ld	a5,-32(s0)
   2328c:	fef43423          	sd	a5,-24(s0)
   23290:	fc843783          	ld	a5,-56(s0)
   23294:	0007b783          	ld	a5,0(a5)
   23298:	fef43023          	sd	a5,-32(s0)
   2329c:	fc843783          	ld	a5,-56(s0)
   232a0:	0087b783          	ld	a5,8(a5)
   232a4:	ffc78793          	addi	a5,a5,-4
   232a8:	fcf43c23          	sd	a5,-40(s0)
   232ac:	fd843503          	ld	a0,-40(s0)
   232b0:	f25ff0ef          	jal	ra,231d4 <kernel_text>
   232b4:	00050793          	mv	a5,a0
   232b8:	f80788e3          	beqz	a5,23248 <walk_stackframe+0x28>
   232bc:	fd843683          	ld	a3,-40(s0)
   232c0:	fe043603          	ld	a2,-32(s0)
   232c4:	fe843583          	ld	a1,-24(s0)
   232c8:	00001517          	auipc	a0,0x1
   232cc:	71050513          	addi	a0,a0,1808 # 249d8 <_etext+0x124>
   232d0:	dadff0ef          	jal	ra,2307c <printk>
   232d4:	f75ff06f          	j	23248 <walk_stackframe+0x28>
   232d8:	00000013          	nop
   232dc:	00000013          	nop
   232e0:	03813083          	ld	ra,56(sp)
   232e4:	03013403          	ld	s0,48(sp)
   232e8:	04010113          	addi	sp,sp,64
   232ec:	00008067          	ret

00000000000232f0 <dump_stack>:
   232f0:	ff010113          	addi	sp,sp,-16
   232f4:	00113423          	sd	ra,8(sp)
   232f8:	00813023          	sd	s0,0(sp)
   232fc:	01010413          	addi	s0,sp,16
   23300:	00001517          	auipc	a0,0x1
   23304:	70050513          	addi	a0,a0,1792 # 24a00 <_etext+0x14c>
   23308:	d75ff0ef          	jal	ra,2307c <printk>
   2330c:	f15ff0ef          	jal	ra,23220 <walk_stackframe>
   23310:	00000013          	nop
   23314:	00813083          	ld	ra,8(sp)
   23318:	00013403          	ld	s0,0(sp)
   2331c:	01010113          	addi	sp,sp,16
   23320:	00008067          	ret

0000000000023324 <strlen>:
   23324:	fd010113          	addi	sp,sp,-48
   23328:	02813423          	sd	s0,40(sp)
   2332c:	03010413          	addi	s0,sp,48
   23330:	fca43c23          	sd	a0,-40(s0)
   23334:	fd843783          	ld	a5,-40(s0)
   23338:	fef43423          	sd	a5,-24(s0)
   2333c:	0100006f          	j	2334c <strlen+0x28>
   23340:	fe843783          	ld	a5,-24(s0)
   23344:	00178793          	addi	a5,a5,1
   23348:	fef43423          	sd	a5,-24(s0)
   2334c:	fe843783          	ld	a5,-24(s0)
   23350:	0007c783          	lbu	a5,0(a5)
   23354:	fe0796e3          	bnez	a5,23340 <strlen+0x1c>
   23358:	fe843703          	ld	a4,-24(s0)
   2335c:	fd843783          	ld	a5,-40(s0)
   23360:	40f707b3          	sub	a5,a4,a5
   23364:	00078513          	mv	a0,a5
   23368:	02813403          	ld	s0,40(sp)
   2336c:	03010113          	addi	sp,sp,48
   23370:	00008067          	ret

0000000000023374 <memcpy>:
   23374:	fc010113          	addi	sp,sp,-64
   23378:	02813c23          	sd	s0,56(sp)
   2337c:	04010413          	addi	s0,sp,64
   23380:	fca43c23          	sd	a0,-40(s0)
   23384:	fcb43823          	sd	a1,-48(s0)
   23388:	fcc43423          	sd	a2,-56(s0)
   2338c:	fd843783          	ld	a5,-40(s0)
   23390:	fef43423          	sd	a5,-24(s0)
   23394:	fd043783          	ld	a5,-48(s0)
   23398:	fef43023          	sd	a5,-32(s0)
   2339c:	0240006f          	j	233c0 <memcpy+0x4c>
   233a0:	fe043703          	ld	a4,-32(s0)
   233a4:	00170793          	addi	a5,a4,1
   233a8:	fef43023          	sd	a5,-32(s0)
   233ac:	fe843783          	ld	a5,-24(s0)
   233b0:	00178693          	addi	a3,a5,1
   233b4:	fed43423          	sd	a3,-24(s0)
   233b8:	00074703          	lbu	a4,0(a4)
   233bc:	00e78023          	sb	a4,0(a5)
   233c0:	fc843783          	ld	a5,-56(s0)
   233c4:	fff78713          	addi	a4,a5,-1
   233c8:	fce43423          	sd	a4,-56(s0)
   233cc:	fc079ae3          	bnez	a5,233a0 <memcpy+0x2c>
   233d0:	fd843783          	ld	a5,-40(s0)
   233d4:	00078513          	mv	a0,a5
   233d8:	03813403          	ld	s0,56(sp)
   233dc:	04010113          	addi	sp,sp,64
   233e0:	00008067          	ret

00000000000233e4 <read32>:
   233e4:	fe010113          	addi	sp,sp,-32
   233e8:	00813c23          	sd	s0,24(sp)
   233ec:	02010413          	addi	s0,sp,32
   233f0:	fea43423          	sd	a0,-24(s0)
   233f4:	fe843783          	ld	a5,-24(s0)
   233f8:	0007a783          	lw	a5,0(a5)
   233fc:	0007879b          	sext.w	a5,a5
   23400:	00078513          	mv	a0,a5
   23404:	01813403          	ld	s0,24(sp)
   23408:	02010113          	addi	sp,sp,32
   2340c:	00008067          	ret

0000000000023410 <write32>:
   23410:	fe010113          	addi	sp,sp,-32
   23414:	00813c23          	sd	s0,24(sp)
   23418:	02010413          	addi	s0,sp,32
   2341c:	fea43423          	sd	a0,-24(s0)
   23420:	00058793          	mv	a5,a1
   23424:	fef42223          	sw	a5,-28(s0)
   23428:	fe843783          	ld	a5,-24(s0)
   2342c:	fe442703          	lw	a4,-28(s0)
   23430:	00e7a023          	sw	a4,0(a5)
   23434:	00000013          	nop
   23438:	01813403          	ld	s0,24(sp)
   2343c:	02010113          	addi	sp,sp,32
   23440:	00008067          	ret

0000000000023444 <sdelay>:
   23444:	fe010113          	addi	sp,sp,-32
   23448:	00813c23          	sd	s0,24(sp)
   2344c:	02010413          	addi	s0,sp,32
   23450:	fea43423          	sd	a0,-24(s0)
   23454:	fe843783          	ld	a5,-24(s0)
   23458:	00a79793          	slli	a5,a5,0xa
   2345c:	fef43423          	sd	a5,-24(s0)
   23460:	00000013          	nop
   23464:	fe843783          	ld	a5,-24(s0)
   23468:	fff78713          	addi	a4,a5,-1
   2346c:	fee43423          	sd	a4,-24(s0)
   23470:	fe079ae3          	bnez	a5,23464 <sdelay+0x20>
   23474:	00000013          	nop
   23478:	00000013          	nop
   2347c:	01813403          	ld	s0,24(sp)
   23480:	02010113          	addi	sp,sp,32
   23484:	00008067          	ret

0000000000023488 <set_pll_cpux_axi>:
   23488:	fe010113          	addi	sp,sp,-32
   2348c:	00113c23          	sd	ra,24(sp)
   23490:	00813823          	sd	s0,16(sp)
   23494:	02010413          	addi	s0,sp,32
   23498:	30100593          	li	a1,769
   2349c:	020027b7          	lui	a5,0x2002
   234a0:	d0078513          	addi	a0,a5,-768 # 2001d00 <bss_end+0x1fdbae8>
   234a4:	f6dff0ef          	jal	ra,23410 <write32>
   234a8:	00100513          	li	a0,1
   234ac:	f99ff0ef          	jal	ra,23444 <sdelay>
   234b0:	02001537          	lui	a0,0x2001
   234b4:	f31ff0ef          	jal	ra,233e4 <read32>
   234b8:	00050793          	mv	a5,a0
   234bc:	fef42623          	sw	a5,-20(s0)
   234c0:	fec42703          	lw	a4,-20(s0)
   234c4:	f80007b7          	lui	a5,0xf8000
   234c8:	fff78793          	addi	a5,a5,-1 # fffffffff7ffffff <bss_end+0xfffffffff7fd9de7>
   234cc:	00f777b3          	and	a5,a4,a5
   234d0:	fef42623          	sw	a5,-20(s0)
   234d4:	fec42783          	lw	a5,-20(s0)
   234d8:	00078593          	mv	a1,a5
   234dc:	02001537          	lui	a0,0x2001
   234e0:	f31ff0ef          	jal	ra,23410 <write32>
   234e4:	02001537          	lui	a0,0x2001
   234e8:	efdff0ef          	jal	ra,233e4 <read32>
   234ec:	00050793          	mv	a5,a0
   234f0:	fef42623          	sw	a5,-20(s0)
   234f4:	fec42703          	lw	a4,-20(s0)
   234f8:	400007b7          	lui	a5,0x40000
   234fc:	00f767b3          	or	a5,a4,a5
   23500:	fef42623          	sw	a5,-20(s0)
   23504:	fec42783          	lw	a5,-20(s0)
   23508:	00078593          	mv	a1,a5
   2350c:	02001537          	lui	a0,0x2001
   23510:	f01ff0ef          	jal	ra,23410 <write32>
   23514:	00500513          	li	a0,5
   23518:	f2dff0ef          	jal	ra,23444 <sdelay>
   2351c:	02001537          	lui	a0,0x2001
   23520:	ec5ff0ef          	jal	ra,233e4 <read32>
   23524:	00050793          	mv	a5,a0
   23528:	fef42623          	sw	a5,-20(s0)
   2352c:	fec42703          	lw	a4,-20(s0)
   23530:	fffc07b7          	lui	a5,0xfffc0
   23534:	0fc78793          	addi	a5,a5,252 # fffffffffffc00fc <bss_end+0xfffffffffff99ee4>
   23538:	00f777b3          	and	a5,a4,a5
   2353c:	fef42623          	sw	a5,-20(s0)
   23540:	fec42703          	lw	a4,-20(s0)
   23544:	000037b7          	lui	a5,0x3
   23548:	90078793          	addi	a5,a5,-1792 # 2900 <_start-0x1f700>
   2354c:	00f767b3          	or	a5,a4,a5
   23550:	fef42623          	sw	a5,-20(s0)
   23554:	fec42783          	lw	a5,-20(s0)
   23558:	00078593          	mv	a1,a5
   2355c:	02001537          	lui	a0,0x2001
   23560:	eb1ff0ef          	jal	ra,23410 <write32>
   23564:	02001537          	lui	a0,0x2001
   23568:	e7dff0ef          	jal	ra,233e4 <read32>
   2356c:	00050793          	mv	a5,a0
   23570:	fef42623          	sw	a5,-20(s0)
   23574:	fec42703          	lw	a4,-20(s0)
   23578:	200007b7          	lui	a5,0x20000
   2357c:	00f767b3          	or	a5,a4,a5
   23580:	fef42623          	sw	a5,-20(s0)
   23584:	fec42783          	lw	a5,-20(s0)
   23588:	00078593          	mv	a1,a5
   2358c:	02001537          	lui	a0,0x2001
   23590:	e81ff0ef          	jal	ra,23410 <write32>
   23594:	02001537          	lui	a0,0x2001
   23598:	e4dff0ef          	jal	ra,233e4 <read32>
   2359c:	00050793          	mv	a5,a0
   235a0:	fef42623          	sw	a5,-20(s0)
   235a4:	fec42703          	lw	a4,-20(s0)
   235a8:	800007b7          	lui	a5,0x80000
   235ac:	00f767b3          	or	a5,a4,a5
   235b0:	fef42623          	sw	a5,-20(s0)
   235b4:	fec42783          	lw	a5,-20(s0)
   235b8:	00078593          	mv	a1,a5
   235bc:	02001537          	lui	a0,0x2001
   235c0:	e51ff0ef          	jal	ra,23410 <write32>
   235c4:	00000013          	nop
   235c8:	02001537          	lui	a0,0x2001
   235cc:	e19ff0ef          	jal	ra,233e4 <read32>
   235d0:	00050793          	mv	a5,a0
   235d4:	0007879b          	sext.w	a5,a5
   235d8:	00078713          	mv	a4,a5
   235dc:	100007b7          	lui	a5,0x10000
   235e0:	00f777b3          	and	a5,a4,a5
   235e4:	0007879b          	sext.w	a5,a5
   235e8:	fe0780e3          	beqz	a5,235c8 <set_pll_cpux_axi+0x140>
   235ec:	01400513          	li	a0,20
   235f0:	e55ff0ef          	jal	ra,23444 <sdelay>
   235f4:	02001537          	lui	a0,0x2001
   235f8:	dedff0ef          	jal	ra,233e4 <read32>
   235fc:	00050793          	mv	a5,a0
   23600:	fef42623          	sw	a5,-20(s0)
   23604:	fec42703          	lw	a4,-20(s0)
   23608:	080007b7          	lui	a5,0x8000
   2360c:	00f767b3          	or	a5,a4,a5
   23610:	fef42623          	sw	a5,-20(s0)
   23614:	fec42783          	lw	a5,-20(s0)
   23618:	00078593          	mv	a1,a5
   2361c:	02001537          	lui	a0,0x2001
   23620:	df1ff0ef          	jal	ra,23410 <write32>
   23624:	02001537          	lui	a0,0x2001
   23628:	dbdff0ef          	jal	ra,233e4 <read32>
   2362c:	00050793          	mv	a5,a0
   23630:	fef42623          	sw	a5,-20(s0)
   23634:	fec42703          	lw	a4,-20(s0)
   23638:	e00007b7          	lui	a5,0xe0000
   2363c:	fff78793          	addi	a5,a5,-1 # ffffffffdfffffff <bss_end+0xffffffffdffd9de7>
   23640:	00f777b3          	and	a5,a4,a5
   23644:	fef42623          	sw	a5,-20(s0)
   23648:	fec42783          	lw	a5,-20(s0)
   2364c:	00078593          	mv	a1,a5
   23650:	02001537          	lui	a0,0x2001
   23654:	dbdff0ef          	jal	ra,23410 <write32>
   23658:	00100513          	li	a0,1
   2365c:	de9ff0ef          	jal	ra,23444 <sdelay>
   23660:	020027b7          	lui	a5,0x2002
   23664:	d0078513          	addi	a0,a5,-768 # 2001d00 <bss_end+0x1fdbae8>
   23668:	d7dff0ef          	jal	ra,233e4 <read32>
   2366c:	00050793          	mv	a5,a0
   23670:	fef42623          	sw	a5,-20(s0)
   23674:	fec42703          	lw	a4,-20(s0)
   23678:	f90007b7          	lui	a5,0xf9000
   2367c:	cf078793          	addi	a5,a5,-784 # fffffffff8fffcf0 <bss_end+0xfffffffff8fd9ad8>
   23680:	00f777b3          	and	a5,a4,a5
   23684:	fef42623          	sw	a5,-20(s0)
   23688:	fec42703          	lw	a4,-20(s0)
   2368c:	050007b7          	lui	a5,0x5000
   23690:	10078793          	addi	a5,a5,256 # 5000100 <bss_end+0x4fd9ee8>
   23694:	00f767b3          	or	a5,a4,a5
   23698:	fef42623          	sw	a5,-20(s0)
   2369c:	fec42783          	lw	a5,-20(s0)
   236a0:	00078593          	mv	a1,a5
   236a4:	020027b7          	lui	a5,0x2002
   236a8:	d0078513          	addi	a0,a5,-768 # 2001d00 <bss_end+0x1fdbae8>
   236ac:	d65ff0ef          	jal	ra,23410 <write32>
   236b0:	00100513          	li	a0,1
   236b4:	d91ff0ef          	jal	ra,23444 <sdelay>
   236b8:	00000013          	nop
   236bc:	01813083          	ld	ra,24(sp)
   236c0:	01013403          	ld	s0,16(sp)
   236c4:	02010113          	addi	sp,sp,32
   236c8:	00008067          	ret

00000000000236cc <set_pll_periph0>:
   236cc:	fe010113          	addi	sp,sp,-32
   236d0:	00113c23          	sd	ra,24(sp)
   236d4:	00813823          	sd	s0,16(sp)
   236d8:	02010413          	addi	s0,sp,32
   236dc:	020017b7          	lui	a5,0x2001
   236e0:	02078513          	addi	a0,a5,32 # 2001020 <bss_end+0x1fdae08>
   236e4:	d01ff0ef          	jal	ra,233e4 <read32>
   236e8:	00050793          	mv	a5,a0
   236ec:	0007879b          	sext.w	a5,a5
   236f0:	0007879b          	sext.w	a5,a5
   236f4:	1207cc63          	bltz	a5,2382c <set_pll_periph0+0x160>
   236f8:	020017b7          	lui	a5,0x2001
   236fc:	51078513          	addi	a0,a5,1296 # 2001510 <bss_end+0x1fdb2f8>
   23700:	ce5ff0ef          	jal	ra,233e4 <read32>
   23704:	00050793          	mv	a5,a0
   23708:	fef42623          	sw	a5,-20(s0)
   2370c:	fec42703          	lw	a4,-20(s0)
   23710:	fd0007b7          	lui	a5,0xfd000
   23714:	fff78793          	addi	a5,a5,-1 # fffffffffcffffff <bss_end+0xfffffffffcfd9de7>
   23718:	00f777b3          	and	a5,a4,a5
   2371c:	fef42623          	sw	a5,-20(s0)
   23720:	fec46703          	lwu	a4,-20(s0)
   23724:	020017b7          	lui	a5,0x2001
   23728:	51078593          	addi	a1,a5,1296 # 2001510 <bss_end+0x1fdb2f8>
   2372c:	00070513          	mv	a0,a4
   23730:	ce1ff0ef          	jal	ra,23410 <write32>
   23734:	000067b7          	lui	a5,0x6
   23738:	30078593          	addi	a1,a5,768 # 6300 <_start-0x1bd00>
   2373c:	020017b7          	lui	a5,0x2001
   23740:	02078513          	addi	a0,a5,32 # 2001020 <bss_end+0x1fdae08>
   23744:	ccdff0ef          	jal	ra,23410 <write32>
   23748:	020017b7          	lui	a5,0x2001
   2374c:	02078513          	addi	a0,a5,32 # 2001020 <bss_end+0x1fdae08>
   23750:	c95ff0ef          	jal	ra,233e4 <read32>
   23754:	00050793          	mv	a5,a0
   23758:	fef42623          	sw	a5,-20(s0)
   2375c:	fec42703          	lw	a4,-20(s0)
   23760:	200007b7          	lui	a5,0x20000
   23764:	00f767b3          	or	a5,a4,a5
   23768:	fef42623          	sw	a5,-20(s0)
   2376c:	fec42783          	lw	a5,-20(s0)
   23770:	00078593          	mv	a1,a5
   23774:	020017b7          	lui	a5,0x2001
   23778:	02078513          	addi	a0,a5,32 # 2001020 <bss_end+0x1fdae08>
   2377c:	c95ff0ef          	jal	ra,23410 <write32>
   23780:	020017b7          	lui	a5,0x2001
   23784:	02078513          	addi	a0,a5,32 # 2001020 <bss_end+0x1fdae08>
   23788:	c5dff0ef          	jal	ra,233e4 <read32>
   2378c:	00050793          	mv	a5,a0
   23790:	fef42623          	sw	a5,-20(s0)
   23794:	fec42703          	lw	a4,-20(s0)
   23798:	800007b7          	lui	a5,0x80000
   2379c:	00f767b3          	or	a5,a4,a5
   237a0:	fef42623          	sw	a5,-20(s0)
   237a4:	fec42783          	lw	a5,-20(s0)
   237a8:	00078593          	mv	a1,a5
   237ac:	020017b7          	lui	a5,0x2001
   237b0:	02078513          	addi	a0,a5,32 # 2001020 <bss_end+0x1fdae08>
   237b4:	c5dff0ef          	jal	ra,23410 <write32>
   237b8:	00000013          	nop
   237bc:	020017b7          	lui	a5,0x2001
   237c0:	02078513          	addi	a0,a5,32 # 2001020 <bss_end+0x1fdae08>
   237c4:	c21ff0ef          	jal	ra,233e4 <read32>
   237c8:	00050793          	mv	a5,a0
   237cc:	0007879b          	sext.w	a5,a5
   237d0:	00078713          	mv	a4,a5
   237d4:	100007b7          	lui	a5,0x10000
   237d8:	00f777b3          	and	a5,a4,a5
   237dc:	0007879b          	sext.w	a5,a5
   237e0:	fc078ee3          	beqz	a5,237bc <set_pll_periph0+0xf0>
   237e4:	01400513          	li	a0,20
   237e8:	c5dff0ef          	jal	ra,23444 <sdelay>
   237ec:	020017b7          	lui	a5,0x2001
   237f0:	02078513          	addi	a0,a5,32 # 2001020 <bss_end+0x1fdae08>
   237f4:	bf1ff0ef          	jal	ra,233e4 <read32>
   237f8:	00050793          	mv	a5,a0
   237fc:	fef42623          	sw	a5,-20(s0)
   23800:	fec42703          	lw	a4,-20(s0)
   23804:	e00007b7          	lui	a5,0xe0000
   23808:	fff78793          	addi	a5,a5,-1 # ffffffffdfffffff <bss_end+0xffffffffdffd9de7>
   2380c:	00f777b3          	and	a5,a4,a5
   23810:	fef42623          	sw	a5,-20(s0)
   23814:	fec42783          	lw	a5,-20(s0)
   23818:	00078593          	mv	a1,a5
   2381c:	020017b7          	lui	a5,0x2001
   23820:	02078513          	addi	a0,a5,32 # 2001020 <bss_end+0x1fdae08>
   23824:	bedff0ef          	jal	ra,23410 <write32>
   23828:	0080006f          	j	23830 <set_pll_periph0+0x164>
   2382c:	00000013          	nop
   23830:	01813083          	ld	ra,24(sp)
   23834:	01013403          	ld	s0,16(sp)
   23838:	02010113          	addi	sp,sp,32
   2383c:	00008067          	ret

0000000000023840 <set_ahb>:
   23840:	ff010113          	addi	sp,sp,-16
   23844:	00113423          	sd	ra,8(sp)
   23848:	00813023          	sd	s0,0(sp)
   2384c:	01010413          	addi	s0,sp,16
   23850:	00200593          	li	a1,2
   23854:	020017b7          	lui	a5,0x2001
   23858:	51078513          	addi	a0,a5,1296 # 2001510 <bss_end+0x1fdb2f8>
   2385c:	bb5ff0ef          	jal	ra,23410 <write32>
   23860:	020017b7          	lui	a5,0x2001
   23864:	51078513          	addi	a0,a5,1296 # 2001510 <bss_end+0x1fdb2f8>
   23868:	b7dff0ef          	jal	ra,233e4 <read32>
   2386c:	00050793          	mv	a5,a0
   23870:	0007879b          	sext.w	a5,a5
   23874:	00078713          	mv	a4,a5
   23878:	030007b7          	lui	a5,0x3000
   2387c:	00f767b3          	or	a5,a4,a5
   23880:	0007879b          	sext.w	a5,a5
   23884:	00078593          	mv	a1,a5
   23888:	020017b7          	lui	a5,0x2001
   2388c:	51078513          	addi	a0,a5,1296 # 2001510 <bss_end+0x1fdb2f8>
   23890:	b81ff0ef          	jal	ra,23410 <write32>
   23894:	00100513          	li	a0,1
   23898:	badff0ef          	jal	ra,23444 <sdelay>
   2389c:	00000013          	nop
   238a0:	00813083          	ld	ra,8(sp)
   238a4:	00013403          	ld	s0,0(sp)
   238a8:	01010113          	addi	sp,sp,16
   238ac:	00008067          	ret

00000000000238b0 <set_apb>:
   238b0:	ff010113          	addi	sp,sp,-16
   238b4:	00113423          	sd	ra,8(sp)
   238b8:	00813023          	sd	s0,0(sp)
   238bc:	01010413          	addi	s0,sp,16
   238c0:	10200593          	li	a1,258
   238c4:	020017b7          	lui	a5,0x2001
   238c8:	52078513          	addi	a0,a5,1312 # 2001520 <bss_end+0x1fdb308>
   238cc:	b45ff0ef          	jal	ra,23410 <write32>
   238d0:	020017b7          	lui	a5,0x2001
   238d4:	52078513          	addi	a0,a5,1312 # 2001520 <bss_end+0x1fdb308>
   238d8:	b0dff0ef          	jal	ra,233e4 <read32>
   238dc:	00050793          	mv	a5,a0
   238e0:	0007879b          	sext.w	a5,a5
   238e4:	00078713          	mv	a4,a5
   238e8:	030007b7          	lui	a5,0x3000
   238ec:	00f767b3          	or	a5,a4,a5
   238f0:	0007879b          	sext.w	a5,a5
   238f4:	00078593          	mv	a1,a5
   238f8:	020017b7          	lui	a5,0x2001
   238fc:	52078513          	addi	a0,a5,1312 # 2001520 <bss_end+0x1fdb308>
   23900:	b11ff0ef          	jal	ra,23410 <write32>
   23904:	00100513          	li	a0,1
   23908:	b3dff0ef          	jal	ra,23444 <sdelay>
   2390c:	00000013          	nop
   23910:	00813083          	ld	ra,8(sp)
   23914:	00013403          	ld	s0,0(sp)
   23918:	01010113          	addi	sp,sp,16
   2391c:	00008067          	ret

0000000000023920 <set_dma>:
   23920:	ff010113          	addi	sp,sp,-16
   23924:	00113423          	sd	ra,8(sp)
   23928:	00813023          	sd	s0,0(sp)
   2392c:	01010413          	addi	s0,sp,16
   23930:	020017b7          	lui	a5,0x2001
   23934:	70c78513          	addi	a0,a5,1804 # 200170c <bss_end+0x1fdb4f4>
   23938:	aadff0ef          	jal	ra,233e4 <read32>
   2393c:	00050793          	mv	a5,a0
   23940:	0007879b          	sext.w	a5,a5
   23944:	00078713          	mv	a4,a5
   23948:	000107b7          	lui	a5,0x10
   2394c:	00f767b3          	or	a5,a4,a5
   23950:	0007879b          	sext.w	a5,a5
   23954:	00078593          	mv	a1,a5
   23958:	020017b7          	lui	a5,0x2001
   2395c:	70c78513          	addi	a0,a5,1804 # 200170c <bss_end+0x1fdb4f4>
   23960:	ab1ff0ef          	jal	ra,23410 <write32>
   23964:	01400513          	li	a0,20
   23968:	addff0ef          	jal	ra,23444 <sdelay>
   2396c:	020017b7          	lui	a5,0x2001
   23970:	70c78513          	addi	a0,a5,1804 # 200170c <bss_end+0x1fdb4f4>
   23974:	a71ff0ef          	jal	ra,233e4 <read32>
   23978:	00050793          	mv	a5,a0
   2397c:	0007879b          	sext.w	a5,a5
   23980:	0017e793          	ori	a5,a5,1
   23984:	0007879b          	sext.w	a5,a5
   23988:	00078593          	mv	a1,a5
   2398c:	020017b7          	lui	a5,0x2001
   23990:	70c78513          	addi	a0,a5,1804 # 200170c <bss_end+0x1fdb4f4>
   23994:	a7dff0ef          	jal	ra,23410 <write32>
   23998:	00000013          	nop
   2399c:	00813083          	ld	ra,8(sp)
   239a0:	00013403          	ld	s0,0(sp)
   239a4:	01010113          	addi	sp,sp,16
   239a8:	00008067          	ret

00000000000239ac <set_mbus>:
   239ac:	fe010113          	addi	sp,sp,-32
   239b0:	00113c23          	sd	ra,24(sp)
   239b4:	00813823          	sd	s0,16(sp)
   239b8:	02010413          	addi	s0,sp,32
   239bc:	020017b7          	lui	a5,0x2001
   239c0:	54078513          	addi	a0,a5,1344 # 2001540 <bss_end+0x1fdb328>
   239c4:	a21ff0ef          	jal	ra,233e4 <read32>
   239c8:	00050793          	mv	a5,a0
   239cc:	fef42623          	sw	a5,-20(s0)
   239d0:	fec42703          	lw	a4,-20(s0)
   239d4:	400007b7          	lui	a5,0x40000
   239d8:	00f767b3          	or	a5,a4,a5
   239dc:	fef42623          	sw	a5,-20(s0)
   239e0:	fec42783          	lw	a5,-20(s0)
   239e4:	00078593          	mv	a1,a5
   239e8:	020017b7          	lui	a5,0x2001
   239ec:	54078513          	addi	a0,a5,1344 # 2001540 <bss_end+0x1fdb328>
   239f0:	a21ff0ef          	jal	ra,23410 <write32>
   239f4:	00100513          	li	a0,1
   239f8:	a4dff0ef          	jal	ra,23444 <sdelay>
   239fc:	00000013          	nop
   23a00:	01813083          	ld	ra,24(sp)
   23a04:	01013403          	ld	s0,16(sp)
   23a08:	02010113          	addi	sp,sp,32
   23a0c:	00008067          	ret

0000000000023a10 <set_module>:
   23a10:	fd010113          	addi	sp,sp,-48
   23a14:	02113423          	sd	ra,40(sp)
   23a18:	02813023          	sd	s0,32(sp)
   23a1c:	03010413          	addi	s0,sp,48
   23a20:	fca43c23          	sd	a0,-40(s0)
   23a24:	fd843503          	ld	a0,-40(s0)
   23a28:	9bdff0ef          	jal	ra,233e4 <read32>
   23a2c:	00050793          	mv	a5,a0
   23a30:	0007879b          	sext.w	a5,a5
   23a34:	0007879b          	sext.w	a5,a5
   23a38:	0c07c263          	bltz	a5,23afc <set_module+0xec>
   23a3c:	fd843503          	ld	a0,-40(s0)
   23a40:	9a5ff0ef          	jal	ra,233e4 <read32>
   23a44:	00050793          	mv	a5,a0
   23a48:	fef42623          	sw	a5,-20(s0)
   23a4c:	fec42703          	lw	a4,-20(s0)
   23a50:	c00007b7          	lui	a5,0xc0000
   23a54:	00f767b3          	or	a5,a4,a5
   23a58:	0007879b          	sext.w	a5,a5
   23a5c:	00078593          	mv	a1,a5
   23a60:	fd843503          	ld	a0,-40(s0)
   23a64:	9adff0ef          	jal	ra,23410 <write32>
   23a68:	fd843503          	ld	a0,-40(s0)
   23a6c:	979ff0ef          	jal	ra,233e4 <read32>
   23a70:	00050793          	mv	a5,a0
   23a74:	fef42623          	sw	a5,-20(s0)
   23a78:	fec42703          	lw	a4,-20(s0)
   23a7c:	200007b7          	lui	a5,0x20000
   23a80:	00f767b3          	or	a5,a4,a5
   23a84:	fef42623          	sw	a5,-20(s0)
   23a88:	fec42783          	lw	a5,-20(s0)
   23a8c:	00078593          	mv	a1,a5
   23a90:	fd843503          	ld	a0,-40(s0)
   23a94:	97dff0ef          	jal	ra,23410 <write32>
   23a98:	00000013          	nop
   23a9c:	fd843503          	ld	a0,-40(s0)
   23aa0:	945ff0ef          	jal	ra,233e4 <read32>
   23aa4:	00050793          	mv	a5,a0
   23aa8:	0007879b          	sext.w	a5,a5
   23aac:	00078713          	mv	a4,a5
   23ab0:	100007b7          	lui	a5,0x10000
   23ab4:	00f777b3          	and	a5,a4,a5
   23ab8:	0007879b          	sext.w	a5,a5
   23abc:	fe0780e3          	beqz	a5,23a9c <set_module+0x8c>
   23ac0:	01400513          	li	a0,20
   23ac4:	981ff0ef          	jal	ra,23444 <sdelay>
   23ac8:	fd843503          	ld	a0,-40(s0)
   23acc:	919ff0ef          	jal	ra,233e4 <read32>
   23ad0:	00050793          	mv	a5,a0
   23ad4:	fef42623          	sw	a5,-20(s0)
   23ad8:	fec42703          	lw	a4,-20(s0)
   23adc:	e00007b7          	lui	a5,0xe0000
   23ae0:	fff78793          	addi	a5,a5,-1 # ffffffffdfffffff <bss_end+0xffffffffdffd9de7>
   23ae4:	00f777b3          	and	a5,a4,a5
   23ae8:	fef42623          	sw	a5,-20(s0)
   23aec:	fec42783          	lw	a5,-20(s0)
   23af0:	00078593          	mv	a1,a5
   23af4:	fd843503          	ld	a0,-40(s0)
   23af8:	919ff0ef          	jal	ra,23410 <write32>
   23afc:	00000013          	nop
   23b00:	02813083          	ld	ra,40(sp)
   23b04:	02013403          	ld	s0,32(sp)
   23b08:	03010113          	addi	sp,sp,48
   23b0c:	00008067          	ret

0000000000023b10 <sys_clock_init>:
   23b10:	ff010113          	addi	sp,sp,-16
   23b14:	00113423          	sd	ra,8(sp)
   23b18:	00813023          	sd	s0,0(sp)
   23b1c:	01010413          	addi	s0,sp,16
   23b20:	969ff0ef          	jal	ra,23488 <set_pll_cpux_axi>
   23b24:	ba9ff0ef          	jal	ra,236cc <set_pll_periph0>
   23b28:	d19ff0ef          	jal	ra,23840 <set_ahb>
   23b2c:	d85ff0ef          	jal	ra,238b0 <set_apb>
   23b30:	df1ff0ef          	jal	ra,23920 <set_dma>
   23b34:	e79ff0ef          	jal	ra,239ac <set_mbus>
   23b38:	020017b7          	lui	a5,0x2001
   23b3c:	02078513          	addi	a0,a5,32 # 2001020 <bss_end+0x1fdae08>
   23b40:	ed1ff0ef          	jal	ra,23a10 <set_module>
   23b44:	020017b7          	lui	a5,0x2001
   23b48:	04078513          	addi	a0,a5,64 # 2001040 <bss_end+0x1fdae28>
   23b4c:	ec5ff0ef          	jal	ra,23a10 <set_module>
   23b50:	020017b7          	lui	a5,0x2001
   23b54:	04878513          	addi	a0,a5,72 # 2001048 <bss_end+0x1fdae30>
   23b58:	eb9ff0ef          	jal	ra,23a10 <set_module>
   23b5c:	020017b7          	lui	a5,0x2001
   23b60:	05878513          	addi	a0,a5,88 # 2001058 <bss_end+0x1fdae40>
   23b64:	eadff0ef          	jal	ra,23a10 <set_module>
   23b68:	020017b7          	lui	a5,0x2001
   23b6c:	07878513          	addi	a0,a5,120 # 2001078 <bss_end+0x1fdae60>
   23b70:	ea1ff0ef          	jal	ra,23a10 <set_module>
   23b74:	020017b7          	lui	a5,0x2001
   23b78:	08078513          	addi	a0,a5,128 # 2001080 <bss_end+0x1fdae68>
   23b7c:	e95ff0ef          	jal	ra,23a10 <set_module>
   23b80:	00000013          	nop
   23b84:	00813083          	ld	ra,8(sp)
   23b88:	00013403          	ld	s0,0(sp)
   23b8c:	01010113          	addi	sp,sp,16
   23b90:	00008067          	ret

0000000000023b94 <read8>:
   23b94:	fe010113          	addi	sp,sp,-32
   23b98:	00813c23          	sd	s0,24(sp)
   23b9c:	02010413          	addi	s0,sp,32
   23ba0:	fea43423          	sd	a0,-24(s0)
   23ba4:	fe843783          	ld	a5,-24(s0)
   23ba8:	0007c783          	lbu	a5,0(a5)
   23bac:	0ff7f793          	andi	a5,a5,255
   23bb0:	00078513          	mv	a0,a5
   23bb4:	01813403          	ld	s0,24(sp)
   23bb8:	02010113          	addi	sp,sp,32
   23bbc:	00008067          	ret

0000000000023bc0 <read32>:
   23bc0:	fe010113          	addi	sp,sp,-32
   23bc4:	00813c23          	sd	s0,24(sp)
   23bc8:	02010413          	addi	s0,sp,32
   23bcc:	fea43423          	sd	a0,-24(s0)
   23bd0:	fe843783          	ld	a5,-24(s0)
   23bd4:	0007a783          	lw	a5,0(a5)
   23bd8:	0007879b          	sext.w	a5,a5
   23bdc:	00078513          	mv	a0,a5
   23be0:	01813403          	ld	s0,24(sp)
   23be4:	02010113          	addi	sp,sp,32
   23be8:	00008067          	ret

0000000000023bec <write32>:
   23bec:	fe010113          	addi	sp,sp,-32
   23bf0:	00813c23          	sd	s0,24(sp)
   23bf4:	02010413          	addi	s0,sp,32
   23bf8:	fea43423          	sd	a0,-24(s0)
   23bfc:	00058793          	mv	a5,a1
   23c00:	fef42223          	sw	a5,-28(s0)
   23c04:	fe843783          	ld	a5,-24(s0)
   23c08:	fe442703          	lw	a4,-28(s0)
   23c0c:	00e7a023          	sw	a4,0(a5)
   23c10:	00000013          	nop
   23c14:	01813403          	ld	s0,24(sp)
   23c18:	02010113          	addi	sp,sp,32
   23c1c:	00008067          	ret

0000000000023c20 <uart_init>:
   23c20:	fe010113          	addi	sp,sp,-32
   23c24:	00113c23          	sd	ra,24(sp)
   23c28:	00813823          	sd	s0,16(sp)
   23c2c:	02010413          	addi	s0,sp,32
   23c30:	020007b7          	lui	a5,0x2000
   23c34:	0f078793          	addi	a5,a5,240 # 20000f0 <bss_end+0x1fd9ed8>
   23c38:	fef43423          	sd	a5,-24(s0)
   23c3c:	fe843503          	ld	a0,-24(s0)
   23c40:	f81ff0ef          	jal	ra,23bc0 <read32>
   23c44:	00050793          	mv	a5,a0
   23c48:	fef42223          	sw	a5,-28(s0)
   23c4c:	fe442703          	lw	a4,-28(s0)
   23c50:	fffff7b7          	lui	a5,0xfffff
   23c54:	0ff78793          	addi	a5,a5,255 # fffffffffffff0ff <bss_end+0xfffffffffffd8ee7>
   23c58:	00f777b3          	and	a5,a4,a5
   23c5c:	fef42223          	sw	a5,-28(s0)
   23c60:	fe442783          	lw	a5,-28(s0)
   23c64:	3007e793          	ori	a5,a5,768
   23c68:	fef42223          	sw	a5,-28(s0)
   23c6c:	fe442783          	lw	a5,-28(s0)
   23c70:	00078593          	mv	a1,a5
   23c74:	fe843503          	ld	a0,-24(s0)
   23c78:	f75ff0ef          	jal	ra,23bec <write32>
   23c7c:	fe843503          	ld	a0,-24(s0)
   23c80:	f41ff0ef          	jal	ra,23bc0 <read32>
   23c84:	00050793          	mv	a5,a0
   23c88:	fef42223          	sw	a5,-28(s0)
   23c8c:	fe442703          	lw	a4,-28(s0)
   23c90:	fff107b7          	lui	a5,0xfff10
   23c94:	fff78793          	addi	a5,a5,-1 # fffffffffff0ffff <bss_end+0xffffffffffee9de7>
   23c98:	00f777b3          	and	a5,a4,a5
   23c9c:	fef42223          	sw	a5,-28(s0)
   23ca0:	fe442703          	lw	a4,-28(s0)
   23ca4:	000307b7          	lui	a5,0x30
   23ca8:	00f767b3          	or	a5,a4,a5
   23cac:	fef42223          	sw	a5,-28(s0)
   23cb0:	fe442783          	lw	a5,-28(s0)
   23cb4:	00078593          	mv	a1,a5
   23cb8:	fe843503          	ld	a0,-24(s0)
   23cbc:	f31ff0ef          	jal	ra,23bec <write32>
   23cc0:	020027b7          	lui	a5,0x2002
   23cc4:	90c78793          	addi	a5,a5,-1780 # 200190c <bss_end+0x1fdb6f4>
   23cc8:	fef43423          	sd	a5,-24(s0)
   23ccc:	fe843503          	ld	a0,-24(s0)
   23cd0:	ef1ff0ef          	jal	ra,23bc0 <read32>
   23cd4:	00050793          	mv	a5,a0
   23cd8:	fef42223          	sw	a5,-28(s0)
   23cdc:	fe442783          	lw	a5,-28(s0)
   23ce0:	0017e793          	ori	a5,a5,1
   23ce4:	fef42223          	sw	a5,-28(s0)
   23ce8:	fe442783          	lw	a5,-28(s0)
   23cec:	00078593          	mv	a1,a5
   23cf0:	fe843503          	ld	a0,-24(s0)
   23cf4:	ef9ff0ef          	jal	ra,23bec <write32>
   23cf8:	020027b7          	lui	a5,0x2002
   23cfc:	90c78793          	addi	a5,a5,-1780 # 200190c <bss_end+0x1fdb6f4>
   23d00:	fef43423          	sd	a5,-24(s0)
   23d04:	fe843503          	ld	a0,-24(s0)
   23d08:	eb9ff0ef          	jal	ra,23bc0 <read32>
   23d0c:	00050793          	mv	a5,a0
   23d10:	fef42223          	sw	a5,-28(s0)
   23d14:	fe442703          	lw	a4,-28(s0)
   23d18:	000107b7          	lui	a5,0x10
   23d1c:	00f767b3          	or	a5,a4,a5
   23d20:	fef42223          	sw	a5,-28(s0)
   23d24:	fe442783          	lw	a5,-28(s0)
   23d28:	00078593          	mv	a1,a5
   23d2c:	fe843503          	ld	a0,-24(s0)
   23d30:	ebdff0ef          	jal	ra,23bec <write32>
   23d34:	025007b7          	lui	a5,0x2500
   23d38:	fef43423          	sd	a5,-24(s0)
   23d3c:	fe843783          	ld	a5,-24(s0)
   23d40:	00478793          	addi	a5,a5,4 # 2500004 <bss_end+0x24d9dec>
   23d44:	00000593          	li	a1,0
   23d48:	00078513          	mv	a0,a5
   23d4c:	ea1ff0ef          	jal	ra,23bec <write32>
   23d50:	fe843783          	ld	a5,-24(s0)
   23d54:	00878793          	addi	a5,a5,8
   23d58:	0f700593          	li	a1,247
   23d5c:	00078513          	mv	a0,a5
   23d60:	e8dff0ef          	jal	ra,23bec <write32>
   23d64:	fe843783          	ld	a5,-24(s0)
   23d68:	01078793          	addi	a5,a5,16
   23d6c:	00000593          	li	a1,0
   23d70:	00078513          	mv	a0,a5
   23d74:	e79ff0ef          	jal	ra,23bec <write32>
   23d78:	fe843783          	ld	a5,-24(s0)
   23d7c:	00c78793          	addi	a5,a5,12
   23d80:	00078513          	mv	a0,a5
   23d84:	e3dff0ef          	jal	ra,23bc0 <read32>
   23d88:	00050793          	mv	a5,a0
   23d8c:	fef42223          	sw	a5,-28(s0)
   23d90:	fe442783          	lw	a5,-28(s0)
   23d94:	0807e793          	ori	a5,a5,128
   23d98:	fef42223          	sw	a5,-28(s0)
   23d9c:	fe843783          	ld	a5,-24(s0)
   23da0:	00c78793          	addi	a5,a5,12
   23da4:	fe442703          	lw	a4,-28(s0)
   23da8:	00070593          	mv	a1,a4
   23dac:	00078513          	mv	a0,a5
   23db0:	e3dff0ef          	jal	ra,23bec <write32>
   23db4:	00d00593          	li	a1,13
   23db8:	fe843503          	ld	a0,-24(s0)
   23dbc:	e31ff0ef          	jal	ra,23bec <write32>
   23dc0:	fe843783          	ld	a5,-24(s0)
   23dc4:	00478793          	addi	a5,a5,4
   23dc8:	00000593          	li	a1,0
   23dcc:	00078513          	mv	a0,a5
   23dd0:	e1dff0ef          	jal	ra,23bec <write32>
   23dd4:	fe843783          	ld	a5,-24(s0)
   23dd8:	00c78793          	addi	a5,a5,12
   23ddc:	00078513          	mv	a0,a5
   23de0:	de1ff0ef          	jal	ra,23bc0 <read32>
   23de4:	00050793          	mv	a5,a0
   23de8:	fef42223          	sw	a5,-28(s0)
   23dec:	fe442783          	lw	a5,-28(s0)
   23df0:	f7f7f793          	andi	a5,a5,-129
   23df4:	fef42223          	sw	a5,-28(s0)
   23df8:	fe843783          	ld	a5,-24(s0)
   23dfc:	00c78793          	addi	a5,a5,12
   23e00:	fe442703          	lw	a4,-28(s0)
   23e04:	00070593          	mv	a1,a4
   23e08:	00078513          	mv	a0,a5
   23e0c:	de1ff0ef          	jal	ra,23bec <write32>
   23e10:	fe843783          	ld	a5,-24(s0)
   23e14:	00c78793          	addi	a5,a5,12
   23e18:	00078513          	mv	a0,a5
   23e1c:	da5ff0ef          	jal	ra,23bc0 <read32>
   23e20:	00050793          	mv	a5,a0
   23e24:	fef42223          	sw	a5,-28(s0)
   23e28:	fe442783          	lw	a5,-28(s0)
   23e2c:	fe07f793          	andi	a5,a5,-32
   23e30:	fef42223          	sw	a5,-28(s0)
   23e34:	fe442783          	lw	a5,-28(s0)
   23e38:	0037e793          	ori	a5,a5,3
   23e3c:	fef42223          	sw	a5,-28(s0)
   23e40:	fe843783          	ld	a5,-24(s0)
   23e44:	00c78793          	addi	a5,a5,12
   23e48:	fe442703          	lw	a4,-28(s0)
   23e4c:	00070593          	mv	a1,a4
   23e50:	00078513          	mv	a0,a5
   23e54:	d99ff0ef          	jal	ra,23bec <write32>
   23e58:	00000013          	nop
   23e5c:	01813083          	ld	ra,24(sp)
   23e60:	01013403          	ld	s0,16(sp)
   23e64:	02010113          	addi	sp,sp,32
   23e68:	00008067          	ret

0000000000023e6c <uart_send>:
   23e6c:	fd010113          	addi	sp,sp,-48
   23e70:	02113423          	sd	ra,40(sp)
   23e74:	02813023          	sd	s0,32(sp)
   23e78:	03010413          	addi	s0,sp,48
   23e7c:	00050793          	mv	a5,a0
   23e80:	fcf40fa3          	sb	a5,-33(s0)
   23e84:	025007b7          	lui	a5,0x2500
   23e88:	fef43423          	sd	a5,-24(s0)
   23e8c:	00000013          	nop
   23e90:	fe843783          	ld	a5,-24(s0)
   23e94:	07c78793          	addi	a5,a5,124 # 250007c <bss_end+0x24d9e64>
   23e98:	00078513          	mv	a0,a5
   23e9c:	d25ff0ef          	jal	ra,23bc0 <read32>
   23ea0:	00050793          	mv	a5,a0
   23ea4:	0007879b          	sext.w	a5,a5
   23ea8:	0027f793          	andi	a5,a5,2
   23eac:	0007879b          	sext.w	a5,a5
   23eb0:	fe0780e3          	beqz	a5,23e90 <uart_send+0x24>
   23eb4:	fdf44783          	lbu	a5,-33(s0)
   23eb8:	0007879b          	sext.w	a5,a5
   23ebc:	00078593          	mv	a1,a5
   23ec0:	fe843503          	ld	a0,-24(s0)
   23ec4:	d29ff0ef          	jal	ra,23bec <write32>
   23ec8:	00000013          	nop
   23ecc:	02813083          	ld	ra,40(sp)
   23ed0:	02013403          	ld	s0,32(sp)
   23ed4:	03010113          	addi	sp,sp,48
   23ed8:	00008067          	ret

0000000000023edc <putchar>:
   23edc:	fe010113          	addi	sp,sp,-32
   23ee0:	00113c23          	sd	ra,24(sp)
   23ee4:	00813823          	sd	s0,16(sp)
   23ee8:	02010413          	addi	s0,sp,32
   23eec:	00050793          	mv	a5,a0
   23ef0:	fef42623          	sw	a5,-20(s0)
   23ef4:	fec42783          	lw	a5,-20(s0)
   23ef8:	0ff7f793          	andi	a5,a5,255
   23efc:	00078513          	mv	a0,a5
   23f00:	f6dff0ef          	jal	ra,23e6c <uart_send>
   23f04:	fec42783          	lw	a5,-20(s0)
   23f08:	00078513          	mv	a0,a5
   23f0c:	01813083          	ld	ra,24(sp)
   23f10:	01013403          	ld	s0,16(sp)
   23f14:	02010113          	addi	sp,sp,32
   23f18:	00008067          	ret

0000000000023f1c <uart_recv>:
   23f1c:	fe010113          	addi	sp,sp,-32
   23f20:	00113c23          	sd	ra,24(sp)
   23f24:	00813823          	sd	s0,16(sp)
   23f28:	02010413          	addi	s0,sp,32
   23f2c:	025007b7          	lui	a5,0x2500
   23f30:	fef43423          	sd	a5,-24(s0)
   23f34:	00000013          	nop
   23f38:	fe843783          	ld	a5,-24(s0)
   23f3c:	07c78793          	addi	a5,a5,124 # 250007c <bss_end+0x24d9e64>
   23f40:	00078513          	mv	a0,a5
   23f44:	c7dff0ef          	jal	ra,23bc0 <read32>
   23f48:	00050793          	mv	a5,a0
   23f4c:	0007879b          	sext.w	a5,a5
   23f50:	0087f793          	andi	a5,a5,8
   23f54:	0007879b          	sext.w	a5,a5
   23f58:	fe0780e3          	beqz	a5,23f38 <uart_recv+0x1c>
   23f5c:	fe843503          	ld	a0,-24(s0)
   23f60:	c35ff0ef          	jal	ra,23b94 <read8>
   23f64:	00050793          	mv	a5,a0
   23f68:	00078513          	mv	a0,a5
   23f6c:	01813083          	ld	ra,24(sp)
   23f70:	01013403          	ld	s0,16(sp)
   23f74:	02010113          	addi	sp,sp,32
   23f78:	00008067          	ret

0000000000023f7c <uart_send_string>:
   23f7c:	fd010113          	addi	sp,sp,-48
   23f80:	02113423          	sd	ra,40(sp)
   23f84:	02813023          	sd	s0,32(sp)
   23f88:	03010413          	addi	s0,sp,48
   23f8c:	fca43c23          	sd	a0,-40(s0)
   23f90:	fe042623          	sw	zero,-20(s0)
   23f94:	0280006f          	j	23fbc <uart_send_string+0x40>
   23f98:	fec42783          	lw	a5,-20(s0)
   23f9c:	fd843703          	ld	a4,-40(s0)
   23fa0:	00f707b3          	add	a5,a4,a5
   23fa4:	0007c783          	lbu	a5,0(a5)
   23fa8:	00078513          	mv	a0,a5
   23fac:	ec1ff0ef          	jal	ra,23e6c <uart_send>
   23fb0:	fec42783          	lw	a5,-20(s0)
   23fb4:	0017879b          	addiw	a5,a5,1
   23fb8:	fef42623          	sw	a5,-20(s0)
   23fbc:	fec42783          	lw	a5,-20(s0)
   23fc0:	fd843703          	ld	a4,-40(s0)
   23fc4:	00f707b3          	add	a5,a4,a5
   23fc8:	0007c783          	lbu	a5,0(a5)
   23fcc:	fc0796e3          	bnez	a5,23f98 <uart_send_string+0x1c>
   23fd0:	00000013          	nop
   23fd4:	00000013          	nop
   23fd8:	02813083          	ld	ra,40(sp)
   23fdc:	02013403          	ld	s0,32(sp)
   23fe0:	03010113          	addi	sp,sp,48
   23fe4:	00008067          	ret

0000000000023fe8 <vpf_str_to_num>:
   23fe8:	fc010113          	addi	sp,sp,-64
   23fec:	02813c23          	sd	s0,56(sp)
   23ff0:	04010413          	addi	s0,sp,64
   23ff4:	fca43423          	sd	a0,-56(s0)
   23ff8:	fcb43023          	sd	a1,-64(s0)
   23ffc:	fe042223          	sw	zero,-28(s0)
   24000:	fc843783          	ld	a5,-56(s0)
   24004:	fef43423          	sd	a5,-24(s0)
   24008:	0900006f          	j	24098 <vpf_str_to_num+0xb0>
   2400c:	fe843783          	ld	a5,-24(s0)
   24010:	0007c783          	lbu	a5,0(a5)
   24014:	00078713          	mv	a4,a5
   24018:	02f00793          	li	a5,47
   2401c:	02e7f063          	bgeu	a5,a4,2403c <vpf_str_to_num+0x54>
   24020:	fe843783          	ld	a5,-24(s0)
   24024:	0007c783          	lbu	a5,0(a5)
   24028:	00078713          	mv	a4,a5
   2402c:	03900793          	li	a5,57
   24030:	00e7e663          	bltu	a5,a4,2403c <vpf_str_to_num+0x54>
   24034:	00100793          	li	a5,1
   24038:	0080006f          	j	24040 <vpf_str_to_num+0x58>
   2403c:	00000793          	li	a5,0
   24040:	fef42023          	sw	a5,-32(s0)
   24044:	fe042783          	lw	a5,-32(s0)
   24048:	0007879b          	sext.w	a5,a5
   2404c:	04078e63          	beqz	a5,240a8 <vpf_str_to_num+0xc0>
   24050:	fe843783          	ld	a5,-24(s0)
   24054:	0007c783          	lbu	a5,0(a5)
   24058:	0007879b          	sext.w	a5,a5
   2405c:	fd07879b          	addiw	a5,a5,-48
   24060:	fcf42e23          	sw	a5,-36(s0)
   24064:	fe442703          	lw	a4,-28(s0)
   24068:	00070793          	mv	a5,a4
   2406c:	0027979b          	slliw	a5,a5,0x2
   24070:	00e787bb          	addw	a5,a5,a4
   24074:	0017979b          	slliw	a5,a5,0x1
   24078:	fef42223          	sw	a5,-28(s0)
   2407c:	fe442703          	lw	a4,-28(s0)
   24080:	fdc42783          	lw	a5,-36(s0)
   24084:	00f707bb          	addw	a5,a4,a5
   24088:	fef42223          	sw	a5,-28(s0)
   2408c:	fe843783          	ld	a5,-24(s0)
   24090:	00178793          	addi	a5,a5,1
   24094:	fef43423          	sd	a5,-24(s0)
   24098:	fc843783          	ld	a5,-56(s0)
   2409c:	0007c783          	lbu	a5,0(a5)
   240a0:	f60796e3          	bnez	a5,2400c <vpf_str_to_num+0x24>
   240a4:	0080006f          	j	240ac <vpf_str_to_num+0xc4>
   240a8:	00000013          	nop
   240ac:	fc043783          	ld	a5,-64(s0)
   240b0:	fe442703          	lw	a4,-28(s0)
   240b4:	00e7a023          	sw	a4,0(a5)
   240b8:	fe843703          	ld	a4,-24(s0)
   240bc:	fc843783          	ld	a5,-56(s0)
   240c0:	40f707b3          	sub	a5,a4,a5
   240c4:	0007879b          	sext.w	a5,a5
   240c8:	00078513          	mv	a0,a5
   240cc:	03813403          	ld	s0,56(sp)
   240d0:	04010113          	addi	sp,sp,64
   240d4:	00008067          	ret

00000000000240d8 <vpf_num_to_str>:
   240d8:	fb010113          	addi	sp,sp,-80
   240dc:	04113423          	sd	ra,72(sp)
   240e0:	04813023          	sd	s0,64(sp)
   240e4:	05010413          	addi	s0,sp,80
   240e8:	00050793          	mv	a5,a0
   240ec:	00068713          	mv	a4,a3
   240f0:	faf42e23          	sw	a5,-68(s0)
   240f4:	00058793          	mv	a5,a1
   240f8:	faf42c23          	sw	a5,-72(s0)
   240fc:	00060793          	mv	a5,a2
   24100:	faf42a23          	sw	a5,-76(s0)
   24104:	00070793          	mv	a5,a4
   24108:	faf42823          	sw	a5,-80(s0)
   2410c:	fe042223          	sw	zero,-28(s0)
   24110:	0280006f          	j	24138 <vpf_num_to_str+0x60>
   24114:	fb042783          	lw	a5,-80(s0)
   24118:	0ff7f713          	andi	a4,a5,255
   2411c:	fe442783          	lw	a5,-28(s0)
   24120:	ff040693          	addi	a3,s0,-16
   24124:	00f687b3          	add	a5,a3,a5
   24128:	fce78823          	sb	a4,-48(a5)
   2412c:	fe442783          	lw	a5,-28(s0)
   24130:	0017879b          	addiw	a5,a5,1
   24134:	fef42223          	sw	a5,-28(s0)
   24138:	fe442783          	lw	a5,-28(s0)
   2413c:	00078713          	mv	a4,a5
   24140:	01f00793          	li	a5,31
   24144:	fce7f8e3          	bgeu	a5,a4,24114 <vpf_num_to_str+0x3c>
   24148:	00a00793          	li	a5,10
   2414c:	fef42623          	sw	a5,-20(s0)
   24150:	fb842783          	lw	a5,-72(s0)
   24154:	0007879b          	sext.w	a5,a5
   24158:	00078663          	beqz	a5,24164 <vpf_num_to_str+0x8c>
   2415c:	01000793          	li	a5,16
   24160:	fef42623          	sw	a5,-20(s0)
   24164:	fe042423          	sw	zero,-24(s0)
   24168:	fbc42703          	lw	a4,-68(s0)
   2416c:	fec42783          	lw	a5,-20(s0)
   24170:	02f777bb          	remuw	a5,a4,a5
   24174:	0007879b          	sext.w	a5,a5
   24178:	fef42023          	sw	a5,-32(s0)
   2417c:	fe042783          	lw	a5,-32(s0)
   24180:	0007871b          	sext.w	a4,a5
   24184:	00900793          	li	a5,9
   24188:	02e7d463          	bge	a5,a4,241b0 <vpf_num_to_str+0xd8>
   2418c:	fe042783          	lw	a5,-32(s0)
   24190:	0ff7f793          	andi	a5,a5,255
   24194:	0577879b          	addiw	a5,a5,87
   24198:	0ff7f713          	andi	a4,a5,255
   2419c:	fe842783          	lw	a5,-24(s0)
   241a0:	ff040693          	addi	a3,s0,-16
   241a4:	00f687b3          	add	a5,a3,a5
   241a8:	fce78823          	sb	a4,-48(a5)
   241ac:	0240006f          	j	241d0 <vpf_num_to_str+0xf8>
   241b0:	fe042783          	lw	a5,-32(s0)
   241b4:	0ff7f793          	andi	a5,a5,255
   241b8:	0307879b          	addiw	a5,a5,48
   241bc:	0ff7f713          	andi	a4,a5,255
   241c0:	fe842783          	lw	a5,-24(s0)
   241c4:	ff040693          	addi	a3,s0,-16
   241c8:	00f687b3          	add	a5,a3,a5
   241cc:	fce78823          	sb	a4,-48(a5)
   241d0:	fbc42703          	lw	a4,-68(s0)
   241d4:	fec42783          	lw	a5,-20(s0)
   241d8:	02f757bb          	divuw	a5,a4,a5
   241dc:	faf42e23          	sw	a5,-68(s0)
   241e0:	fe842783          	lw	a5,-24(s0)
   241e4:	0017879b          	addiw	a5,a5,1
   241e8:	fef42423          	sw	a5,-24(s0)
   241ec:	fbc42783          	lw	a5,-68(s0)
   241f0:	0007879b          	sext.w	a5,a5
   241f4:	f6079ae3          	bnez	a5,24168 <vpf_num_to_str+0x90>
   241f8:	fb442783          	lw	a5,-76(s0)
   241fc:	0007879b          	sext.w	a5,a5
   24200:	02f05c63          	blez	a5,24238 <vpf_num_to_str+0x160>
   24204:	fb442783          	lw	a5,-76(s0)
   24208:	00078713          	mv	a4,a5
   2420c:	01f00793          	li	a5,31
   24210:	00e7f663          	bgeu	a5,a4,2421c <vpf_num_to_str+0x144>
   24214:	01f00793          	li	a5,31
   24218:	faf42a23          	sw	a5,-76(s0)
   2421c:	fe842703          	lw	a4,-24(s0)
   24220:	fb442783          	lw	a5,-76(s0)
   24224:	0007071b          	sext.w	a4,a4
   24228:	0007879b          	sext.w	a5,a5
   2422c:	00f75663          	bge	a4,a5,24238 <vpf_num_to_str+0x160>
   24230:	fb442783          	lw	a5,-76(s0)
   24234:	fef42423          	sw	a5,-24(s0)
   24238:	fe842783          	lw	a5,-24(s0)
   2423c:	ff040713          	addi	a4,s0,-16
   24240:	00f707b3          	add	a5,a4,a5
   24244:	fc078823          	sb	zero,-48(a5)
   24248:	fe842783          	lw	a5,-24(s0)
   2424c:	fff7879b          	addiw	a5,a5,-1
   24250:	fef42223          	sw	a5,-28(s0)
   24254:	0280006f          	j	2427c <vpf_num_to_str+0x1a4>
   24258:	fe442783          	lw	a5,-28(s0)
   2425c:	ff040713          	addi	a4,s0,-16
   24260:	00f707b3          	add	a5,a4,a5
   24264:	fd07c783          	lbu	a5,-48(a5)
   24268:	00078513          	mv	a0,a5
   2426c:	c01ff0ef          	jal	ra,23e6c <uart_send>
   24270:	fe442783          	lw	a5,-28(s0)
   24274:	fff7879b          	addiw	a5,a5,-1
   24278:	fef42223          	sw	a5,-28(s0)
   2427c:	fe442783          	lw	a5,-28(s0)
   24280:	0007879b          	sext.w	a5,a5
   24284:	fc07dae3          	bgez	a5,24258 <vpf_num_to_str+0x180>
   24288:	00000013          	nop
   2428c:	00000013          	nop
   24290:	04813083          	ld	ra,72(sp)
   24294:	04013403          	ld	s0,64(sp)
   24298:	05010113          	addi	sp,sp,80
   2429c:	00008067          	ret

00000000000242a0 <vpf>:
   242a0:	fb010113          	addi	sp,sp,-80
   242a4:	04113423          	sd	ra,72(sp)
   242a8:	04813023          	sd	s0,64(sp)
   242ac:	05010413          	addi	s0,sp,80
   242b0:	faa43c23          	sd	a0,-72(s0)
   242b4:	fab43823          	sd	a1,-80(s0)
   242b8:	02000793          	li	a5,32
   242bc:	fcf42a23          	sw	a5,-44(s0)
   242c0:	fb843783          	ld	a5,-72(s0)
   242c4:	fef43423          	sd	a5,-24(s0)
   242c8:	1880006f          	j	24450 <vpf+0x1b0>
   242cc:	fc042e23          	sw	zero,-36(s0)
   242d0:	fc042223          	sw	zero,-60(s0)
   242d4:	fe843783          	ld	a5,-24(s0)
   242d8:	0007c783          	lbu	a5,0(a5)
   242dc:	fcf42823          	sw	a5,-48(s0)
   242e0:	fe843783          	ld	a5,-24(s0)
   242e4:	fef43023          	sd	a5,-32(s0)
   242e8:	fe843783          	ld	a5,-24(s0)
   242ec:	0007c783          	lbu	a5,0(a5)
   242f0:	00078713          	mv	a4,a5
   242f4:	02500793          	li	a5,37
   242f8:	06f71863          	bne	a4,a5,24368 <vpf+0xc8>
   242fc:	fe843783          	ld	a5,-24(s0)
   24300:	fef43023          	sd	a5,-32(s0)
   24304:	fe843783          	ld	a5,-24(s0)
   24308:	00178793          	addi	a5,a5,1
   2430c:	fef43423          	sd	a5,-24(s0)
   24310:	fe843783          	ld	a5,-24(s0)
   24314:	0007c783          	lbu	a5,0(a5)
   24318:	00078713          	mv	a4,a5
   2431c:	02f00793          	li	a5,47
   24320:	02e7fe63          	bgeu	a5,a4,2435c <vpf+0xbc>
   24324:	fe843783          	ld	a5,-24(s0)
   24328:	0007c783          	lbu	a5,0(a5)
   2432c:	00078713          	mv	a4,a5
   24330:	03900793          	li	a5,57
   24334:	02e7e463          	bltu	a5,a4,2435c <vpf+0xbc>
   24338:	fc440793          	addi	a5,s0,-60
   2433c:	00078593          	mv	a1,a5
   24340:	fe843503          	ld	a0,-24(s0)
   24344:	ca5ff0ef          	jal	ra,23fe8 <vpf_str_to_num>
   24348:	00050793          	mv	a5,a0
   2434c:	00078713          	mv	a4,a5
   24350:	fe843783          	ld	a5,-24(s0)
   24354:	00e787b3          	add	a5,a5,a4
   24358:	fef43423          	sd	a5,-24(s0)
   2435c:	fe843783          	ld	a5,-24(s0)
   24360:	0007c783          	lbu	a5,0(a5)
   24364:	fcf42e23          	sw	a5,-36(s0)
   24368:	fdc42783          	lw	a5,-36(s0)
   2436c:	0007871b          	sext.w	a4,a5
   24370:	06400793          	li	a5,100
   24374:	00f70a63          	beq	a4,a5,24388 <vpf+0xe8>
   24378:	fdc42783          	lw	a5,-36(s0)
   2437c:	0007871b          	sext.w	a4,a5
   24380:	07800793          	li	a5,120
   24384:	04f71863          	bne	a4,a5,243d4 <vpf+0x134>
   24388:	fb043783          	ld	a5,-80(s0)
   2438c:	00878713          	addi	a4,a5,8
   24390:	fae43823          	sd	a4,-80(s0)
   24394:	0007a783          	lw	a5,0(a5)
   24398:	fcf42423          	sw	a5,-56(s0)
   2439c:	fc842503          	lw	a0,-56(s0)
   243a0:	fdc42783          	lw	a5,-36(s0)
   243a4:	0007871b          	sext.w	a4,a5
   243a8:	07800793          	li	a5,120
   243ac:	40f707b3          	sub	a5,a4,a5
   243b0:	0017b793          	seqz	a5,a5
   243b4:	0ff7f793          	andi	a5,a5,255
   243b8:	0007879b          	sext.w	a5,a5
   243bc:	fc442703          	lw	a4,-60(s0)
   243c0:	fd442683          	lw	a3,-44(s0)
   243c4:	00070613          	mv	a2,a4
   243c8:	00078593          	mv	a1,a5
   243cc:	d0dff0ef          	jal	ra,240d8 <vpf_num_to_str>
   243d0:	0740006f          	j	24444 <vpf+0x1a4>
   243d4:	fc042c23          	sw	zero,-40(s0)
   243d8:	0280006f          	j	24400 <vpf+0x160>
   243dc:	fd842783          	lw	a5,-40(s0)
   243e0:	fe043703          	ld	a4,-32(s0)
   243e4:	00f707b3          	add	a5,a4,a5
   243e8:	0007c783          	lbu	a5,0(a5)
   243ec:	00078513          	mv	a0,a5
   243f0:	a7dff0ef          	jal	ra,23e6c <uart_send>
   243f4:	fd842783          	lw	a5,-40(s0)
   243f8:	0017879b          	addiw	a5,a5,1
   243fc:	fcf42c23          	sw	a5,-40(s0)
   24400:	fd842703          	lw	a4,-40(s0)
   24404:	fe843683          	ld	a3,-24(s0)
   24408:	fe043783          	ld	a5,-32(s0)
   2440c:	40f687b3          	sub	a5,a3,a5
   24410:	fcf746e3          	blt	a4,a5,243dc <vpf+0x13c>
   24414:	fdc42783          	lw	a5,-36(s0)
   24418:	0007879b          	sext.w	a5,a5
   2441c:	00078863          	beqz	a5,2442c <vpf+0x18c>
   24420:	fdc42783          	lw	a5,-36(s0)
   24424:	0ff7f793          	andi	a5,a5,255
   24428:	00c0006f          	j	24434 <vpf+0x194>
   2442c:	fd042783          	lw	a5,-48(s0)
   24430:	0ff7f793          	andi	a5,a5,255
   24434:	fcf407a3          	sb	a5,-49(s0)
   24438:	fcf44783          	lbu	a5,-49(s0)
   2443c:	00078513          	mv	a0,a5
   24440:	a2dff0ef          	jal	ra,23e6c <uart_send>
   24444:	fe843783          	ld	a5,-24(s0)
   24448:	00178793          	addi	a5,a5,1
   2444c:	fef43423          	sd	a5,-24(s0)
   24450:	fe843783          	ld	a5,-24(s0)
   24454:	0007c783          	lbu	a5,0(a5)
   24458:	e6079ae3          	bnez	a5,242cc <vpf+0x2c>
   2445c:	00000793          	li	a5,0
   24460:	00078513          	mv	a0,a5
   24464:	04813083          	ld	ra,72(sp)
   24468:	04013403          	ld	s0,64(sp)
   2446c:	05010113          	addi	sp,sp,80
   24470:	00008067          	ret

0000000000024474 <sys_uart_printf>:
   24474:	f9010113          	addi	sp,sp,-112
   24478:	02113423          	sd	ra,40(sp)
   2447c:	02813023          	sd	s0,32(sp)
   24480:	03010413          	addi	s0,sp,48
   24484:	fca43c23          	sd	a0,-40(s0)
   24488:	00b43423          	sd	a1,8(s0)
   2448c:	00c43823          	sd	a2,16(s0)
   24490:	00d43c23          	sd	a3,24(s0)
   24494:	02e43023          	sd	a4,32(s0)
   24498:	02f43423          	sd	a5,40(s0)
   2449c:	03043823          	sd	a6,48(s0)
   244a0:	03143c23          	sd	a7,56(s0)
   244a4:	04040793          	addi	a5,s0,64
   244a8:	fcf43823          	sd	a5,-48(s0)
   244ac:	fd043783          	ld	a5,-48(s0)
   244b0:	fc878793          	addi	a5,a5,-56
   244b4:	fef43423          	sd	a5,-24(s0)
   244b8:	fe843783          	ld	a5,-24(s0)
   244bc:	00078593          	mv	a1,a5
   244c0:	fd843503          	ld	a0,-40(s0)
   244c4:	dddff0ef          	jal	ra,242a0 <vpf>
   244c8:	00000793          	li	a5,0
   244cc:	00078513          	mv	a0,a5
   244d0:	02813083          	ld	ra,40(sp)
   244d4:	02013403          	ld	s0,32(sp)
   244d8:	07010113          	addi	sp,sp,112
   244dc:	00008067          	ret

00000000000244e0 <print_hex>:
   244e0:	fd010113          	addi	sp,sp,-48
   244e4:	02113423          	sd	ra,40(sp)
   244e8:	02813023          	sd	s0,32(sp)
   244ec:	03010413          	addi	s0,sp,48
   244f0:	00050793          	mv	a5,a0
   244f4:	fcf42e23          	sw	a5,-36(s0)
   244f8:	03000513          	li	a0,48
   244fc:	971ff0ef          	jal	ra,23e6c <uart_send>
   24500:	07800513          	li	a0,120
   24504:	969ff0ef          	jal	ra,23e6c <uart_send>
   24508:	00700793          	li	a5,7
   2450c:	fef42623          	sw	a5,-20(s0)
   24510:	07c0006f          	j	2458c <print_hex+0xac>
   24514:	fec42783          	lw	a5,-20(s0)
   24518:	0027979b          	slliw	a5,a5,0x2
   2451c:	0007879b          	sext.w	a5,a5
   24520:	00078713          	mv	a4,a5
   24524:	fdc42783          	lw	a5,-36(s0)
   24528:	00e7d7bb          	srlw	a5,a5,a4
   2452c:	0007879b          	sext.w	a5,a5
   24530:	0007879b          	sext.w	a5,a5
   24534:	00f7f793          	andi	a5,a5,15
   24538:	fef42423          	sw	a5,-24(s0)
   2453c:	fe842783          	lw	a5,-24(s0)
   24540:	0007871b          	sext.w	a4,a5
   24544:	00900793          	li	a5,9
   24548:	02e7c063          	blt	a5,a4,24568 <print_hex+0x88>
   2454c:	fe842783          	lw	a5,-24(s0)
   24550:	0ff7f793          	andi	a5,a5,255
   24554:	0307879b          	addiw	a5,a5,48
   24558:	0ff7f793          	andi	a5,a5,255
   2455c:	00078513          	mv	a0,a5
   24560:	90dff0ef          	jal	ra,23e6c <uart_send>
   24564:	01c0006f          	j	24580 <print_hex+0xa0>
   24568:	fe842783          	lw	a5,-24(s0)
   2456c:	0ff7f793          	andi	a5,a5,255
   24570:	0377879b          	addiw	a5,a5,55
   24574:	0ff7f793          	andi	a5,a5,255
   24578:	00078513          	mv	a0,a5
   2457c:	8f1ff0ef          	jal	ra,23e6c <uart_send>
   24580:	fec42783          	lw	a5,-20(s0)
   24584:	fff7879b          	addiw	a5,a5,-1
   24588:	fef42623          	sw	a5,-20(s0)
   2458c:	fec42783          	lw	a5,-20(s0)
   24590:	0007879b          	sext.w	a5,a5
   24594:	f807d0e3          	bgez	a5,24514 <print_hex+0x34>
   24598:	00000013          	nop
   2459c:	00000013          	nop
   245a0:	02813083          	ld	ra,40(sp)
   245a4:	02013403          	ld	s0,32(sp)
   245a8:	03010113          	addi	sp,sp,48
   245ac:	00008067          	ret

00000000000245b0 <my_test_data>:
   245b0:	abcd                	j	24ba2 <boot_string+0x192>
   245b2:	abcd                	j	24ba4 <boot_string+0x194>
   245b4:	5678                	lw	a4,108(a2)
   245b6:	1234                	addi	a3,sp,296

00000000000245b8 <load_store_test>:
   245b8:	000222b7          	lui	t0,0x22
   245bc:	00028303          	lb	t1,0(t0) # 22000 <_start>
   245c0:	00428303          	lb	t1,4(t0)
   245c4:	ffc28303          	lb	t1,-4(t0)
   245c8:	0002b303          	ld	t1,0(t0)
   245cc:	00428303          	lb	t1,4(t0)
   245d0:	00000297          	auipc	t0,0x0
   245d4:	fe028293          	addi	t0,t0,-32 # 245b0 <my_test_data>
   245d8:	00000317          	auipc	t1,0x0
   245dc:	fd830313          	addi	t1,t1,-40 # 245b0 <my_test_data>
   245e0:	802002b7          	lui	t0,0x80200
   245e4:	40200337          	lui	t1,0x40200
   245e8:	00008067          	ret

00000000000245ec <shift_test>:
   245ec:	c00002b7          	lui	t0,0xc0000
   245f0:	0452829b          	addiw	t0,t0,69
   245f4:	02129293          	slli	t0,t0,0x21
   245f8:	4012d593          	srai	a1,t0,0x1
   245fc:	0012d313          	srli	t1,t0,0x1
   24600:	0250029b          	addiw	t0,zero,37
   24604:	01f29293          	slli	t0,t0,0x1f
   24608:	08a28293          	addi	t0,t0,138 # ffffffffc000008a <bss_end+0xffffffffbffd9e72>
   2460c:	4012d61b          	sraiw	a2,t0,0x1
   24610:	0012d31b          	srliw	t1,t0,0x1
   24614:	0012969b          	slliw	a3,t0,0x1
   24618:	0490029b          	addiw	t0,zero,73
   2461c:	01e29293          	slli	t0,t0,0x1e
   24620:	08a28293          	addi	t0,t0,138
   24624:	4012d61b          	sraiw	a2,t0,0x1
   24628:	0012d31b          	srliw	t1,t0,0x1
   2462c:	0012971b          	slliw	a4,t0,0x1
   24630:	00008067          	ret

0000000000024634 <add_sub_test>:
   24634:	80028593          	addi	a1,t0,-2048
   24638:	000012b7          	lui	t0,0x1
   2463c:	a012829b          	addiw	t0,t0,-1535
   24640:	01529293          	slli	t0,t0,0x15
   24644:	40000337          	lui	t1,0x40000
   24648:	70028593          	addi	a1,t0,1792 # 1700 <_start-0x20900>
   2464c:	80028593          	addi	a1,t0,-2048
   24650:	0802861b          	addiw	a2,t0,128
   24654:	006286b3          	add	a3,t0,t1
   24658:	0062873b          	addw	a4,t0,t1
   2465c:	000012b7          	lui	t0,0x1
   24660:	c012829b          	addiw	t0,t0,-1023
   24664:	01529293          	slli	t0,t0,0x15
   24668:	00200337          	lui	t1,0x200
   2466c:	40628533          	sub	a0,t0,t1
   24670:	406285bb          	subw	a1,t0,t1
   24674:	00008067          	ret

0000000000024678 <add_test>:
   24678:	00b50533          	add	a0,a0,a1
   2467c:	00000013          	nop
   24680:	00008067          	ret

0000000000024684 <branch_test>:
   24684:	ff810113          	addi	sp,sp,-8
   24688:	00113023          	sd	ra,0(sp)
   2468c:	00100513          	li	a0,1
   24690:	00200593          	li	a1,2
   24694:	fe5ff0ef          	jal	ra,24678 <add_test>
   24698:	00000013          	nop
   2469c:	00013083          	ld	ra,0(sp)
   246a0:	00810113          	addi	sp,sp,8
   246a4:	00008067          	ret

00000000000246a8 <my_memcpy_test>:
   246a8:	000202b7          	lui	t0,0x20
   246ac:	00021337          	lui	t1,0x21
   246b0:	02028393          	addi	t2,t0,32 # 20020 <_start-0x1fe0>

00000000000246b4 <.loop>:
   246b4:	0002be03          	ld	t3,0(t0)
   246b8:	01c33023          	sd	t3,0(t1) # 21000 <_start-0x1000>
   246bc:	00828293          	addi	t0,t0,8
   246c0:	00830313          	addi	t1,t1,8
   246c4:	fe72c8e3          	blt	t0,t2,246b4 <.loop>
   246c8:	00008067          	ret

00000000000246cc <compare_and_return>:
   246cc:	00b56663          	bltu	a0,a1,246d8 <compare_and_return+0xc>
   246d0:	00000793          	li	a5,0
   246d4:	0080006f          	j	246dc <compare_and_return+0x10>
   246d8:	fff00793          	li	a5,-1
   246dc:	00078513          	mv	a0,a5
   246e0:	00008067          	ret

00000000000246e4 <sel_test>:
   246e4:	00050663          	beqz	a0,246f0 <sel_test+0xc>
   246e8:	fff58793          	addi	a5,a1,-1
   246ec:	0080006f          	j	246f4 <sel_test+0x10>
   246f0:	00258793          	addi	a5,a1,2
   246f4:	00078513          	mv	a0,a5
   246f8:	00008067          	ret

00000000000246fc <bl_test>:
   246fc:	ff010113          	addi	sp,sp,-16
   24700:	00113423          	sd	ra,8(sp)
   24704:	fe1ff0ef          	jal	ra,246e4 <sel_test>
   24708:	00813083          	ld	ra,8(sp)
   2470c:	01010113          	addi	sp,sp,16
   24710:	00008067          	ret
   24714:	00000013          	nop

0000000000024718 <func_addr>:
   24718:	0800                	addi	s0,sp,16
   2471a:	0080                	addi	s0,sp,64
   2471c:	0000                	unimp
   2471e:	0000                	unimp
   24720:	0860                	addi	s0,sp,28
   24722:	0080                	addi	s0,sp,64
   24724:	0000                	unimp
   24726:	0000                	unimp
   24728:	0880                	addi	s0,sp,80
   2472a:	0080                	addi	s0,sp,64
   2472c:	0000                	unimp
	...

0000000000024730 <func_string>:
   24730:	7566                	ld	a0,120(sp)
   24732:	636e                	ld	t1,216(sp)
   24734:	615f 6600 6e75      	0x6e756600615f
   2473a:	00625f63          	bge	tp,t1,24758 <op_2>
   2473e:	7566                	ld	a0,120(sp)
   24740:	636e                	ld	t1,216(sp)
   24742:	635f 0100 0000      	0x100635f

0000000000024748 <func_num_syms>:
   24748:	00000003          	lb	zero,0(zero) # 0 <_start-0x22000>
   2474c:	0000                	unimp
	...

0000000000024750 <op_1>:
   24750:	00b50533          	add	a0,a0,a1
   24754:	00008067          	ret

0000000000024758 <op_2>:
   24758:	40b50533          	sub	a0,a0,a1
   2475c:	00008067          	ret

0000000000024760 <macro_test_1>:
   24760:	ff010113          	addi	sp,sp,-16
   24764:	00113423          	sd	ra,8(sp)
   24768:	00050293          	mv	t0,a0
   2476c:	00058313          	mv	t1,a1
   24770:	00028513          	mv	a0,t0
   24774:	00030593          	mv	a1,t1
   24778:	fd9ff0ef          	jal	ra,24750 <op_1>
   2477c:	00813083          	ld	ra,8(sp)
   24780:	01010113          	addi	sp,sp,16
   24784:	00008067          	ret

0000000000024788 <macro_test_2>:
   24788:	ff010113          	addi	sp,sp,-16
   2478c:	00113423          	sd	ra,8(sp)
   24790:	00050293          	mv	t0,a0
   24794:	00058313          	mv	t1,a1
   24798:	00028513          	mv	a0,t0
   2479c:	00030593          	mv	a1,t1
   247a0:	fb9ff0ef          	jal	ra,24758 <op_2>
   247a4:	00813083          	ld	ra,8(sp)
   247a8:	01010113          	addi	sp,sp,16
   247ac:	00008067          	ret
	...

00000000000247b8 <__init_uart>:
   247b8:	020002b7          	lui	t0,0x2000
   247bc:	0f02829b          	addiw	t0,t0,240
   247c0:	0002a303          	lw	t1,0(t0) # 2000000 <bss_end+0x1fd9de8>
   247c4:	fff0f3b7          	lui	t2,0xfff0f
   247c8:	0ff3839b          	addiw	t2,t2,255
   247cc:	00737333          	and	t1,t1,t2
   247d0:	000303b7          	lui	t2,0x30
   247d4:	3003839b          	addiw	t2,t2,768
   247d8:	00736333          	or	t1,t1,t2
   247dc:	0062a023          	sw	t1,0(t0)
   247e0:	020022b7          	lui	t0,0x2002
   247e4:	90c2829b          	addiw	t0,t0,-1780
   247e8:	0002a303          	lw	t1,0(t0) # 2002000 <bss_end+0x1fdbde8>
   247ec:	00136313          	ori	t1,t1,1
   247f0:	0062a023          	sw	t1,0(t0)
   247f4:	020022b7          	lui	t0,0x2002
   247f8:	90c2829b          	addiw	t0,t0,-1780
   247fc:	0002a303          	lw	t1,0(t0) # 2002000 <bss_end+0x1fdbde8>
   24800:	000103b7          	lui	t2,0x10
   24804:	00736333          	or	t1,t1,t2
   24808:	0062a023          	sw	t1,0(t0)
   2480c:	025002b7          	lui	t0,0x2500
   24810:	0002a223          	sw	zero,4(t0) # 2500004 <bss_end+0x24d9dec>
   24814:	0f700313          	li	t1,247
   24818:	0062a423          	sw	t1,8(t0)
   2481c:	0002a823          	sw	zero,16(t0)
   24820:	00c2a303          	lw	t1,12(t0)
   24824:	08036313          	ori	t1,t1,128
   24828:	0062a623          	sw	t1,12(t0)
   2482c:	00d00393          	li	t2,13
   24830:	0072a023          	sw	t2,0(t0)
   24834:	00000393          	li	t2,0
   24838:	0072a223          	sw	t2,4(t0)
   2483c:	08034313          	xori	t1,t1,128
   24840:	0062a623          	sw	t1,12(t0)
   24844:	00c2a303          	lw	t1,12(t0)
   24848:	ff000393          	li	t2,-16
   2484c:	00737333          	and	t1,t1,t2
   24850:	00300393          	li	t2,3
   24854:	00736333          	or	t1,t1,t2
   24858:	0062a623          	sw	t1,12(t0)
   2485c:	00008067          	ret

0000000000024860 <put_uart>:
   24860:	025002b7          	lui	t0,0x2500

0000000000024864 <.loop>:
   24864:	07c2a303          	lw	t1,124(t0) # 250007c <bss_end+0x24d9e64>
   24868:	00237313          	andi	t1,t1,2
   2486c:	fe030ce3          	beqz	t1,24864 <.loop>
   24870:	00a28023          	sb	a0,0(t0)
   24874:	00008067          	ret

0000000000024878 <put_string_uart>:
   24878:	00008c13          	mv	s8,ra
   2487c:	00050793          	mv	a5,a0

0000000000024880 <.loop1>:
   24880:	0007c503          	lbu	a0,0(a5)
   24884:	00050863          	beqz	a0,24894 <.loop1+0x14>
   24888:	fd9ff0ef          	jal	ra,24860 <put_uart>
   2488c:	00178793          	addi	a5,a5,1
   24890:	ff1ff06f          	j	24880 <.loop1>
   24894:	000c0093          	mv	ra,s8
   24898:	00008067          	ret

000000000002489c <__memset_16bytes_asm>:
   2489c:	00000293          	li	t0,0

00000000000248a0 <.loop>:
   248a0:	00b53023          	sd	a1,0(a0) # 2001000 <bss_end+0x1fdade8>
   248a4:	00b53423          	sd	a1,8(a0)
   248a8:	01028293          	addi	t0,t0,16
   248ac:	fec2cae3          	blt	t0,a2,248a0 <.loop>
   248b0:	00008067          	ret

Disassembly of section .rodata:

00000000000248b8 <boot_string-0x158>:
   248b8:	3130                	fld	fa2,96(a0)
   248ba:	3332                	fld	ft6,296(sp)
   248bc:	3534                	fld	fa3,104(a0)
   248be:	3736                	fld	fa4,360(sp)
   248c0:	3938                	fld	fa4,112(a0)
   248c2:	4241                	li	tp,16
   248c4:	46454443          	fmadd.q	fs0,fa0,ft4,fs0,rmm
   248c8:	4a494847          	fmsub.d	fa6,fs2,ft4,fs1,rmm
   248cc:	4e4d4c4b          	fnmsub.q	fs8,fs10,ft4,fs1,rmm
   248d0:	5251504f          	fnmadd.d	ft0,ft2,ft5,fa0,unknown
   248d4:	56555453          	0x56555453
   248d8:	5a595857          	0x5a595857
   248dc:	0000                	unimp
   248de:	0000                	unimp
   248e0:	3130                	fld	fa2,96(a0)
   248e2:	3332                	fld	ft6,296(sp)
   248e4:	3534                	fld	fa3,104(a0)
   248e6:	3736                	fld	fa4,360(sp)
   248e8:	3938                	fld	fa4,112(a0)
   248ea:	6261                	lui	tp,0x18
   248ec:	66656463          	bltu	a0,t1,24f54 <boot_string+0x544>
   248f0:	6a696867          	0x6a696867
   248f4:	6e6d6c6b          	0x6e6d6c6b
   248f8:	7271706f          	j	3c81e <bss_end+0x16606>
   248fc:	76757473          	csrrci	s0,0x767,10
   24900:	7a797877          	0x7a797877
   24904:	0000                	unimp
   24906:	0000                	unimp
   24908:	4e3c                	lw	a5,88(a2)
   2490a:	4c55                	li	s8,21
   2490c:	3e4c                	fld	fa1,184(a2)
   2490e:	0000                	unimp
   24910:	e004                	sd	s1,0(s0)
   24912:	e034ffff          	0xe034ffff
   24916:	e034ffff          	0xe034ffff
   2491a:	e014ffff          	0xe014ffff
   2491e:	e034ffff          	0xe034ffff
   24922:	e034ffff          	0xe034ffff
   24926:	e034ffff          	0xe034ffff
   2492a:	e034ffff          	0xe034ffff
   2492e:	e034ffff          	0xe034ffff
   24932:	e034ffff          	0xe034ffff
   24936:	e034ffff          	0xe034ffff
   2493a:	dff4ffff          	0xdff4ffff
   2493e:	e034ffff          	0xe034ffff
   24942:	dfe4ffff          	0xdfe4ffff
   24946:	e034ffff          	0xe034ffff
   2494a:	e034ffff          	0xe034ffff
   2494e:	e024ffff          	0xe024ffff
   24952:	e460ffff          	0xe460ffff
   24956:	e484ffff          	0xe484ffff
   2495a:	e484ffff          	0xe484ffff
   2495e:	e484ffff          	0xe484ffff
   24962:	e484ffff          	0xe484ffff
   24966:	e484ffff          	0xe484ffff
   2496a:	e484ffff          	0xe484ffff
   2496e:	e484ffff          	0xe484ffff
   24972:	e484ffff          	0xe484ffff
   24976:	e484ffff          	0xe484ffff
   2497a:	e484ffff          	0xe484ffff
   2497e:	e200ffff          	0xe200ffff
   24982:	e46cffff          	0xe46cffff
   24986:	e484ffff          	0xe484ffff
   2498a:	e484ffff          	0xe484ffff
   2498e:	e484ffff          	0xe484ffff
   24992:	e484ffff          	0xe484ffff
   24996:	e46cffff          	0xe46cffff
   2499a:	e484ffff          	0xe484ffff
   2499e:	e484ffff          	0xe484ffff
   249a2:	e484ffff          	0xe484ffff
   249a6:	e484ffff          	0xe484ffff
   249aa:	e3c0ffff          	0xe3c0ffff
   249ae:	e448ffff          	0xe448ffff
   249b2:	e3f0ffff          	0xe3f0ffff
   249b6:	e484ffff          	0xe484ffff
   249ba:	e484ffff          	0xe484ffff
   249be:	e298ffff          	0xe298ffff
   249c2:	e484ffff          	0xe484ffff
   249c6:	e478ffff          	0xe478ffff
   249ca:	e484ffff          	0xe484ffff
   249ce:	e484ffff          	0xe484ffff
   249d2:	e454ffff          	0xe454ffff
   249d6:	305bffff          	0x305bffff
   249da:	2578                	fld	fa4,200(a0)
   249dc:	3130                	fld	fa2,96(a0)
   249de:	6c36                	ld	s8,328(sp)
   249e0:	2078                	fld	fa4,192(s0)
   249e2:	202d                	0x202d
   249e4:	7830                	ld	a2,112(s0)
   249e6:	3025                	0x3025
   249e8:	3631                	addiw	a2,a2,-20
   249ea:	786c                	ld	a1,240(s0)
   249ec:	205d                	0x205d
   249ee:	7020                	ld	s0,96(s0)
   249f0:	78302063          	0x78302063
   249f4:	3025                	0x3025
   249f6:	3631                	addiw	a2,a2,-20
   249f8:	786c                	ld	a1,240(s0)
   249fa:	0a0d                	addi	s4,s4,3
   249fc:	0000                	unimp
   249fe:	0000                	unimp
   24a00:	6c6c6143          	fmadd.h	ft2,fs8,ft6,fa3,unknown
   24a04:	4620                	lw	s0,72(a2)
   24a06:	6172                	ld	sp,280(sp)
   24a08:	656d                	lui	a0,0x1b
   24a0a:	0d3a                	slli	s10,s10,0xe
   24a0c:	000a                	c.slli	zero,0x2
	...

0000000000024a10 <boot_string>:
   24a10:	0a0d                	addi	s4,s4,3
   24a12:	6f42                	ld	t5,16(sp)
   24a14:	6e69746f          	jal	s0,bc0fa <bss_end+0x95ee2>
   24a18:	74612067          	0x74612067
   24a1c:	6120                	ld	s0,64(a0)
   24a1e:	0a0d6d73          	csrrsi	s10,0xa0,26
	...

Disassembly of section .data:

0000000000025000 <stacks_start>:
	...

Disassembly of section .sdata:

0000000000026000 <g_record>:
   26000:	6108                	ld	a0,0(a0)
   26002:	0002                	c.slli64	zero
   26004:	0000                	unimp
	...

Disassembly of section .bss:

0000000000026008 <print_buf>:
	...

0000000000026108 <log_buf>:
	...

0000000000026208 <g_printk_status>:
	...

0000000000026210 <g_record_len>:
	...

