
mysbi.elf:     file format elf64-littleriscv


Disassembly of section .text.boot:

0000000000020000 <_start>:
   20000:	0300006f          	j	20030 <reset>
   20004:	4765                	li	a4,25
   20006:	422e4e4f          	fnmadd.d	ft8,ft8,ft2,fs0,rmm
   2000a:	3054                	fld	fa3,160(s0)
   2000c:	5678                	lw	a4,108(a2)
   2000e:	1234                	addi	a3,sp,296
   20010:	6000                	ld	s0,0(s0)
   20012:	0000                	unimp
   20014:	0030                	addi	a2,sp,8
   20016:	0000                	unimp
   20018:	30303033          	0x30303033
   2001c:	0000                	unimp
   2001e:	0002                	c.slli64	zero
   20020:	0000                	unimp
   20022:	0002                	c.slli64	zero
	...
   2002c:	2e34                	fld	fa3,88(a2)
   2002e:	0030                	addi	a2,sp,8

0000000000020030 <reset>:
   20030:	00005117          	auipc	sp,0x5
   20034:	fd010113          	addi	sp,sp,-48 # 25000 <stacks_start>
   20038:	000012b7          	lui	t0,0x1
   2003c:	00510133          	add	sp,sp,t0
   20040:	4a00006f          	j	204e0 <sbi_main>

Disassembly of section .text:

0000000000020044 <read_csr_num>:
   20044:	fd010113          	addi	sp,sp,-48
   20048:	02813423          	sd	s0,40(sp)
   2004c:	02913023          	sd	s1,32(sp)
   20050:	03010413          	addi	s0,sp,48
   20054:	00050793          	mv	a5,a0
   20058:	fcf42e23          	sw	a5,-36(s0)
   2005c:	fe043423          	sd	zero,-24(s0)
   20060:	fdc42783          	lw	a5,-36(s0)
   20064:	c607869b          	addiw	a3,a5,-928
   20068:	0006871b          	sext.w	a4,a3
   2006c:	01700793          	li	a5,23
   20070:	0ee7e463          	bltu	a5,a4,20158 <read_csr_num+0x114>
   20074:	02069793          	slli	a5,a3,0x20
   20078:	0207d793          	srli	a5,a5,0x20
   2007c:	00279713          	slli	a4,a5,0x2
   20080:	00004797          	auipc	a5,0x4
   20084:	54078793          	addi	a5,a5,1344 # 245c0 <payload_bin+0x4008>
   20088:	00f707b3          	add	a5,a4,a5
   2008c:	0007a783          	lw	a5,0(a5)
   20090:	0007871b          	sext.w	a4,a5
   20094:	00004797          	auipc	a5,0x4
   20098:	52c78793          	addi	a5,a5,1324 # 245c0 <payload_bin+0x4008>
   2009c:	00f707b3          	add	a5,a4,a5
   200a0:	00078067          	jr	a5
   200a4:	3a0027f3          	csrr	a5,pmpcfg0
   200a8:	00078493          	mv	s1,a5
   200ac:	00048793          	mv	a5,s1
   200b0:	fef43423          	sd	a5,-24(s0)
   200b4:	0a80006f          	j	2015c <read_csr_num+0x118>
   200b8:	3b0027f3          	csrr	a5,pmpaddr0
   200bc:	00078493          	mv	s1,a5
   200c0:	00048793          	mv	a5,s1
   200c4:	fef43423          	sd	a5,-24(s0)
   200c8:	0940006f          	j	2015c <read_csr_num+0x118>
   200cc:	3b1027f3          	csrr	a5,pmpaddr1
   200d0:	00078493          	mv	s1,a5
   200d4:	00048793          	mv	a5,s1
   200d8:	fef43423          	sd	a5,-24(s0)
   200dc:	0800006f          	j	2015c <read_csr_num+0x118>
   200e0:	3b2027f3          	csrr	a5,pmpaddr2
   200e4:	00078493          	mv	s1,a5
   200e8:	00048793          	mv	a5,s1
   200ec:	fef43423          	sd	a5,-24(s0)
   200f0:	06c0006f          	j	2015c <read_csr_num+0x118>
   200f4:	3b3027f3          	csrr	a5,pmpaddr3
   200f8:	00078493          	mv	s1,a5
   200fc:	00048793          	mv	a5,s1
   20100:	fef43423          	sd	a5,-24(s0)
   20104:	0580006f          	j	2015c <read_csr_num+0x118>
   20108:	3b4027f3          	csrr	a5,pmpaddr4
   2010c:	00078493          	mv	s1,a5
   20110:	00048793          	mv	a5,s1
   20114:	fef43423          	sd	a5,-24(s0)
   20118:	0440006f          	j	2015c <read_csr_num+0x118>
   2011c:	3b5027f3          	csrr	a5,pmpaddr5
   20120:	00078493          	mv	s1,a5
   20124:	00048793          	mv	a5,s1
   20128:	fef43423          	sd	a5,-24(s0)
   2012c:	0300006f          	j	2015c <read_csr_num+0x118>
   20130:	3b6027f3          	csrr	a5,pmpaddr6
   20134:	00078493          	mv	s1,a5
   20138:	00048793          	mv	a5,s1
   2013c:	fef43423          	sd	a5,-24(s0)
   20140:	01c0006f          	j	2015c <read_csr_num+0x118>
   20144:	3b7027f3          	csrr	a5,pmpaddr7
   20148:	00078493          	mv	s1,a5
   2014c:	00048793          	mv	a5,s1
   20150:	fef43423          	sd	a5,-24(s0)
   20154:	0080006f          	j	2015c <read_csr_num+0x118>
   20158:	00000013          	nop
   2015c:	fe843783          	ld	a5,-24(s0)
   20160:	00078513          	mv	a0,a5
   20164:	02813403          	ld	s0,40(sp)
   20168:	02013483          	ld	s1,32(sp)
   2016c:	03010113          	addi	sp,sp,48
   20170:	00008067          	ret

0000000000020174 <write_csr_num>:
   20174:	f9010113          	addi	sp,sp,-112
   20178:	06813423          	sd	s0,104(sp)
   2017c:	07010413          	addi	s0,sp,112
   20180:	00050793          	mv	a5,a0
   20184:	f8b43823          	sd	a1,-112(s0)
   20188:	f8f42e23          	sw	a5,-100(s0)
   2018c:	f9c42783          	lw	a5,-100(s0)
   20190:	c607869b          	addiw	a3,a5,-928
   20194:	0006871b          	sext.w	a4,a3
   20198:	01700793          	li	a5,23
   2019c:	0ee7e463          	bltu	a5,a4,20284 <write_csr_num+0x110>
   201a0:	02069793          	slli	a5,a3,0x20
   201a4:	0207d793          	srli	a5,a5,0x20
   201a8:	00279713          	slli	a4,a5,0x2
   201ac:	00004797          	auipc	a5,0x4
   201b0:	47478793          	addi	a5,a5,1140 # 24620 <payload_bin+0x4068>
   201b4:	00f707b3          	add	a5,a4,a5
   201b8:	0007a783          	lw	a5,0(a5)
   201bc:	0007871b          	sext.w	a4,a5
   201c0:	00004797          	auipc	a5,0x4
   201c4:	46078793          	addi	a5,a5,1120 # 24620 <payload_bin+0x4068>
   201c8:	00f707b3          	add	a5,a4,a5
   201cc:	00078067          	jr	a5
   201d0:	f9043783          	ld	a5,-112(s0)
   201d4:	faf43423          	sd	a5,-88(s0)
   201d8:	fa843783          	ld	a5,-88(s0)
   201dc:	3a079073          	csrw	pmpcfg0,a5
   201e0:	0a80006f          	j	20288 <write_csr_num+0x114>
   201e4:	f9043783          	ld	a5,-112(s0)
   201e8:	faf43823          	sd	a5,-80(s0)
   201ec:	fb043783          	ld	a5,-80(s0)
   201f0:	3b079073          	csrw	pmpaddr0,a5
   201f4:	0940006f          	j	20288 <write_csr_num+0x114>
   201f8:	f9043783          	ld	a5,-112(s0)
   201fc:	faf43c23          	sd	a5,-72(s0)
   20200:	fb843783          	ld	a5,-72(s0)
   20204:	3b179073          	csrw	pmpaddr1,a5
   20208:	0800006f          	j	20288 <write_csr_num+0x114>
   2020c:	f9043783          	ld	a5,-112(s0)
   20210:	fcf43023          	sd	a5,-64(s0)
   20214:	fc043783          	ld	a5,-64(s0)
   20218:	3b279073          	csrw	pmpaddr2,a5
   2021c:	06c0006f          	j	20288 <write_csr_num+0x114>
   20220:	f9043783          	ld	a5,-112(s0)
   20224:	fcf43423          	sd	a5,-56(s0)
   20228:	fc843783          	ld	a5,-56(s0)
   2022c:	3b379073          	csrw	pmpaddr3,a5
   20230:	0580006f          	j	20288 <write_csr_num+0x114>
   20234:	f9043783          	ld	a5,-112(s0)
   20238:	fcf43823          	sd	a5,-48(s0)
   2023c:	fd043783          	ld	a5,-48(s0)
   20240:	3b479073          	csrw	pmpaddr4,a5
   20244:	0440006f          	j	20288 <write_csr_num+0x114>
   20248:	f9043783          	ld	a5,-112(s0)
   2024c:	fcf43c23          	sd	a5,-40(s0)
   20250:	fd843783          	ld	a5,-40(s0)
   20254:	3b579073          	csrw	pmpaddr5,a5
   20258:	0300006f          	j	20288 <write_csr_num+0x114>
   2025c:	f9043783          	ld	a5,-112(s0)
   20260:	fef43023          	sd	a5,-32(s0)
   20264:	fe043783          	ld	a5,-32(s0)
   20268:	3b679073          	csrw	pmpaddr6,a5
   2026c:	01c0006f          	j	20288 <write_csr_num+0x114>
   20270:	f9043783          	ld	a5,-112(s0)
   20274:	fef43423          	sd	a5,-24(s0)
   20278:	fe843783          	ld	a5,-24(s0)
   2027c:	3b779073          	csrw	pmpaddr7,a5
   20280:	0080006f          	j	20288 <write_csr_num+0x114>
   20284:	00000013          	nop
   20288:	00000013          	nop
   2028c:	06813403          	ld	s0,104(sp)
   20290:	07010113          	addi	sp,sp,112
   20294:	00008067          	ret

0000000000020298 <log2roundup>:
   20298:	fd010113          	addi	sp,sp,-48
   2029c:	02813423          	sd	s0,40(sp)
   202a0:	03010413          	addi	s0,sp,48
   202a4:	fca43c23          	sd	a0,-40(s0)
   202a8:	fe043423          	sd	zero,-24(s0)
   202ac:	02c0006f          	j	202d8 <log2roundup+0x40>
   202b0:	fe843783          	ld	a5,-24(s0)
   202b4:	0007879b          	sext.w	a5,a5
   202b8:	00078713          	mv	a4,a5
   202bc:	00100793          	li	a5,1
   202c0:	00e797b3          	sll	a5,a5,a4
   202c4:	fd843703          	ld	a4,-40(s0)
   202c8:	02e7f063          	bgeu	a5,a4,202e8 <log2roundup+0x50>
   202cc:	fe843783          	ld	a5,-24(s0)
   202d0:	00178793          	addi	a5,a5,1
   202d4:	fef43423          	sd	a5,-24(s0)
   202d8:	fe843703          	ld	a4,-24(s0)
   202dc:	03f00793          	li	a5,63
   202e0:	fce7f8e3          	bgeu	a5,a4,202b0 <log2roundup+0x18>
   202e4:	0080006f          	j	202ec <log2roundup+0x54>
   202e8:	00000013          	nop
   202ec:	fe843783          	ld	a5,-24(s0)
   202f0:	00078513          	mv	a0,a5
   202f4:	02813403          	ld	s0,40(sp)
   202f8:	03010113          	addi	sp,sp,48
   202fc:	00008067          	ret

0000000000020300 <sbi_set_pmp>:
   20300:	fa010113          	addi	sp,sp,-96
   20304:	04113c23          	sd	ra,88(sp)
   20308:	04813823          	sd	s0,80(sp)
   2030c:	06010413          	addi	s0,sp,96
   20310:	00050793          	mv	a5,a0
   20314:	fab43823          	sd	a1,-80(s0)
   20318:	fac43423          	sd	a2,-88(s0)
   2031c:	fad43023          	sd	a3,-96(s0)
   20320:	faf42e23          	sw	a5,-68(s0)
   20324:	fbc42783          	lw	a5,-68(s0)
   20328:	0007871b          	sext.w	a4,a5
   2032c:	00800793          	li	a5,8
   20330:	00e7d663          	bge	a5,a4,2033c <sbi_set_pmp+0x3c>
   20334:	fff00793          	li	a5,-1
   20338:	1940006f          	j	204cc <sbi_set_pmp+0x1cc>
   2033c:	fa843503          	ld	a0,-88(s0)
   20340:	f59ff0ef          	jal	ra,20298 <log2roundup>
   20344:	00050793          	mv	a5,a0
   20348:	fef42223          	sw	a5,-28(s0)
   2034c:	fe442783          	lw	a5,-28(s0)
   20350:	0007871b          	sext.w	a4,a5
   20354:	00100793          	li	a5,1
   20358:	00e7c663          	blt	a5,a4,20364 <sbi_set_pmp+0x64>
   2035c:	fff00793          	li	a5,-1
   20360:	16c0006f          	j	204cc <sbi_set_pmp+0x1cc>
   20364:	fb043783          	ld	a5,-80(s0)
   20368:	0027d793          	srli	a5,a5,0x2
   2036c:	fef43423          	sd	a5,-24(s0)
   20370:	fbc42783          	lw	a5,-68(s0)
   20374:	4027d79b          	sraiw	a5,a5,0x2
   20378:	0007879b          	sext.w	a5,a5
   2037c:	3a07879b          	addiw	a5,a5,928
   20380:	0007879b          	sext.w	a5,a5
   20384:	ffe7f793          	andi	a5,a5,-2
   20388:	fef42023          	sw	a5,-32(s0)
   2038c:	fbc42783          	lw	a5,-68(s0)
   20390:	0037979b          	slliw	a5,a5,0x3
   20394:	0007879b          	sext.w	a5,a5
   20398:	0387f793          	andi	a5,a5,56
   2039c:	fcf42e23          	sw	a5,-36(s0)
   203a0:	fbc42783          	lw	a5,-68(s0)
   203a4:	3b07879b          	addiw	a5,a5,944
   203a8:	fcf42c23          	sw	a5,-40(s0)
   203ac:	fa043783          	ld	a5,-96(s0)
   203b0:	fe77f793          	andi	a5,a5,-25
   203b4:	faf43023          	sd	a5,-96(s0)
   203b8:	fe442783          	lw	a5,-28(s0)
   203bc:	0007871b          	sext.w	a4,a5
   203c0:	00200793          	li	a5,2
   203c4:	00f71663          	bne	a4,a5,203d0 <sbi_set_pmp+0xd0>
   203c8:	01000793          	li	a5,16
   203cc:	0080006f          	j	203d4 <sbi_set_pmp+0xd4>
   203d0:	01800793          	li	a5,24
   203d4:	fa043703          	ld	a4,-96(s0)
   203d8:	00f767b3          	or	a5,a4,a5
   203dc:	faf43023          	sd	a5,-96(s0)
   203e0:	fdc42783          	lw	a5,-36(s0)
   203e4:	0ff00713          	li	a4,255
   203e8:	00f717b3          	sll	a5,a4,a5
   203ec:	fff7c793          	not	a5,a5
   203f0:	fcf43823          	sd	a5,-48(s0)
   203f4:	fe042783          	lw	a5,-32(s0)
   203f8:	00078513          	mv	a0,a5
   203fc:	c49ff0ef          	jal	ra,20044 <read_csr_num>
   20400:	00050713          	mv	a4,a0
   20404:	fd043783          	ld	a5,-48(s0)
   20408:	00e7f7b3          	and	a5,a5,a4
   2040c:	fcf43423          	sd	a5,-56(s0)
   20410:	fdc42783          	lw	a5,-36(s0)
   20414:	fa043703          	ld	a4,-96(s0)
   20418:	00f71733          	sll	a4,a4,a5
   2041c:	fd043783          	ld	a5,-48(s0)
   20420:	fff7c793          	not	a5,a5
   20424:	00f777b3          	and	a5,a4,a5
   20428:	fc843703          	ld	a4,-56(s0)
   2042c:	00f767b3          	or	a5,a4,a5
   20430:	fcf43423          	sd	a5,-56(s0)
   20434:	fe442783          	lw	a5,-28(s0)
   20438:	0007871b          	sext.w	a4,a5
   2043c:	00200793          	li	a5,2
   20440:	06e7d463          	bge	a5,a4,204a8 <sbi_set_pmp+0x1a8>
   20444:	fe442783          	lw	a5,-28(s0)
   20448:	0007871b          	sext.w	a4,a5
   2044c:	04000793          	li	a5,64
   20450:	00f71863          	bne	a4,a5,20460 <sbi_set_pmp+0x160>
   20454:	fff00793          	li	a5,-1
   20458:	fef43423          	sd	a5,-24(s0)
   2045c:	04c0006f          	j	204a8 <sbi_set_pmp+0x1a8>
   20460:	fe442783          	lw	a5,-28(s0)
   20464:	ffe7879b          	addiw	a5,a5,-2
   20468:	0007879b          	sext.w	a5,a5
   2046c:	00078713          	mv	a4,a5
   20470:	00100793          	li	a5,1
   20474:	00e797b3          	sll	a5,a5,a4
   20478:	fff78793          	addi	a5,a5,-1
   2047c:	fcf43023          	sd	a5,-64(s0)
   20480:	fc043783          	ld	a5,-64(s0)
   20484:	fff7c793          	not	a5,a5
   20488:	fe843703          	ld	a4,-24(s0)
   2048c:	00f777b3          	and	a5,a4,a5
   20490:	fef43423          	sd	a5,-24(s0)
   20494:	fc043783          	ld	a5,-64(s0)
   20498:	0017d793          	srli	a5,a5,0x1
   2049c:	fe843703          	ld	a4,-24(s0)
   204a0:	00f767b3          	or	a5,a4,a5
   204a4:	fef43423          	sd	a5,-24(s0)
   204a8:	fd842783          	lw	a5,-40(s0)
   204ac:	fe843583          	ld	a1,-24(s0)
   204b0:	00078513          	mv	a0,a5
   204b4:	cc1ff0ef          	jal	ra,20174 <write_csr_num>
   204b8:	fe042783          	lw	a5,-32(s0)
   204bc:	fc843583          	ld	a1,-56(s0)
   204c0:	00078513          	mv	a0,a5
   204c4:	cb1ff0ef          	jal	ra,20174 <write_csr_num>
   204c8:	00000793          	li	a5,0
   204cc:	00078513          	mv	a0,a5
   204d0:	05813083          	ld	ra,88(sp)
   204d4:	05013403          	ld	s0,80(sp)
   204d8:	06010113          	addi	sp,sp,96
   204dc:	00008067          	ret

00000000000204e0 <sbi_main>:
   204e0:	fa010113          	addi	sp,sp,-96
   204e4:	04113c23          	sd	ra,88(sp)
   204e8:	04813823          	sd	s0,80(sp)
   204ec:	04913423          	sd	s1,72(sp)
   204f0:	06010413          	addi	s0,sp,96
   204f4:	00700693          	li	a3,7
   204f8:	fff00613          	li	a2,-1
   204fc:	00000593          	li	a1,0
   20500:	00000513          	li	a0,0
   20504:	dfdff0ef          	jal	ra,20300 <sbi_set_pmp>
   20508:	300027f3          	csrr	a5,mstatus
   2050c:	00078493          	mv	s1,a5
   20510:	00048793          	mv	a5,s1
   20514:	fcf43c23          	sd	a5,-40(s0)
   20518:	fd843703          	ld	a4,-40(s0)
   2051c:	ffffe7b7          	lui	a5,0xffffe
   20520:	7ff78793          	addi	a5,a5,2047 # ffffffffffffe7ff <bss_begin+0xfffffffffffd87ff>
   20524:	00f77733          	and	a4,a4,a5
   20528:	000017b7          	lui	a5,0x1
   2052c:	80078793          	addi	a5,a5,-2048 # 800 <__bin_size-0x5800>
   20530:	00f767b3          	or	a5,a4,a5
   20534:	fcf43c23          	sd	a5,-40(s0)
   20538:	fd843783          	ld	a5,-40(s0)
   2053c:	f7f7f793          	andi	a5,a5,-129
   20540:	fcf43c23          	sd	a5,-40(s0)
   20544:	fd843783          	ld	a5,-40(s0)
   20548:	fcf43823          	sd	a5,-48(s0)
   2054c:	fd043783          	ld	a5,-48(s0)
   20550:	30079073          	csrw	mstatus,a5
   20554:	000227b7          	lui	a5,0x22
   20558:	fcf43423          	sd	a5,-56(s0)
   2055c:	fc843783          	ld	a5,-56(s0)
   20560:	34179073          	csrw	mepc,a5
   20564:	000207b7          	lui	a5,0x20
   20568:	fcf43023          	sd	a5,-64(s0)
   2056c:	fc043783          	ld	a5,-64(s0)
   20570:	30579073          	csrw	mtvec,a5
   20574:	000227b7          	lui	a5,0x22
   20578:	faf43c23          	sd	a5,-72(s0)
   2057c:	fb843783          	ld	a5,-72(s0)
   20580:	10579073          	csrw	stvec,a5
   20584:	fa043823          	sd	zero,-80(s0)
   20588:	fb043783          	ld	a5,-80(s0)
   2058c:	10479073          	csrw	sie,a5
   20590:	fa043423          	sd	zero,-88(s0)
   20594:	fa843783          	ld	a5,-88(s0)
   20598:	18079073          	csrw	satp,a5
   2059c:	30200073          	mret
   205a0:	00000013          	nop
   205a4:	05813083          	ld	ra,88(sp)
   205a8:	05013403          	ld	s0,80(sp)
   205ac:	04813483          	ld	s1,72(sp)
   205b0:	06010113          	addi	sp,sp,96
   205b4:	00008067          	ret

Disassembly of section .payload:

00000000000205b8 <payload_bin>:
   205b8:	10401073          	csrw	sie,zero
   205bc:	7b4020ef          	jal	ra,22d70 <payload_bin+0x27b8>
   205c0:	00000097          	auipc	ra,0x0
   205c4:	01c080e7          	jalr	28(ra) # 205dc <payload_bin+0x24>
   205c8:	00003117          	auipc	sp,0x3
   205cc:	ff010113          	addi	sp,sp,-16 # 235b8 <payload_bin+0x3000>
   205d0:	000012b7          	lui	t0,0x1
   205d4:	00510133          	add	sp,sp,t0
   205d8:	0b80006f          	j	20690 <payload_bin+0xd8>
   205dc:	00008493          	mv	s1,ra
   205e0:	00003517          	auipc	a0,0x3
   205e4:	9e850513          	addi	a0,a0,-1560 # 22fc8 <payload_bin+0x2a10>
   205e8:	049020ef          	jal	ra,22e30 <payload_bin+0x2878>
   205ec:	00048093          	mv	ra,s1
   205f0:	00008067          	ret
   205f4:	0000                	unimp
   205f6:	0000                	unimp
   205f8:	fe010113          	addi	sp,sp,-32
   205fc:	00113c23          	sd	ra,24(sp)
   20600:	00813823          	sd	s0,16(sp)
   20604:	02010413          	addi	s0,sp,32
   20608:	00050793          	mv	a5,a0
   2060c:	00058713          	mv	a4,a1
   20610:	fef42623          	sw	a5,-20(s0)
   20614:	00070793          	mv	a5,a4
   20618:	fef42423          	sw	a5,-24(s0)
   2061c:	28c010ef          	jal	ra,218a8 <payload_bin+0x12f0>
   20620:	fec42703          	lw	a4,-20(s0)
   20624:	fe842783          	lw	a5,-24(s0)
   20628:	00f707bb          	addw	a5,a4,a5
   2062c:	0007879b          	sext.w	a5,a5
   20630:	00078513          	mv	a0,a5
   20634:	01813083          	ld	ra,24(sp)
   20638:	01013403          	ld	s0,16(sp)
   2063c:	02010113          	addi	sp,sp,32
   20640:	00008067          	ret
   20644:	fe010113          	addi	sp,sp,-32
   20648:	00113c23          	sd	ra,24(sp)
   2064c:	00813823          	sd	s0,16(sp)
   20650:	02010413          	addi	s0,sp,32
   20654:	00100793          	li	a5,1
   20658:	fef42623          	sw	a5,-20(s0)
   2065c:	00200793          	li	a5,2
   20660:	fef42423          	sw	a5,-24(s0)
   20664:	fe842703          	lw	a4,-24(s0)
   20668:	fec42783          	lw	a5,-20(s0)
   2066c:	00070593          	mv	a1,a4
   20670:	00078513          	mv	a0,a5
   20674:	f85ff0ef          	jal	ra,205f8 <payload_bin+0x40>
   20678:	00050793          	mv	a5,a0
   2067c:	00078513          	mv	a0,a5
   20680:	01813083          	ld	ra,24(sp)
   20684:	01013403          	ld	s0,16(sp)
   20688:	02010113          	addi	sp,sp,32
   2068c:	00008067          	ret
   20690:	ff010113          	addi	sp,sp,-16
   20694:	00113423          	sd	ra,8(sp)
   20698:	00813023          	sd	s0,0(sp)
   2069c:	01010413          	addi	s0,sp,16
   206a0:	229010ef          	jal	ra,220c8 <payload_bin+0x1b10>
   206a4:	335010ef          	jal	ra,221d8 <payload_bin+0x1c20>
   206a8:	6f1000ef          	jal	ra,21598 <payload_bin+0xfe0>
   206ac:	f99ff0ef          	jal	ra,20644 <payload_bin+0x8c>
   206b0:	0000006f          	j	206b0 <payload_bin+0xf8>
   206b4:	fc010113          	addi	sp,sp,-64
   206b8:	02813c23          	sd	s0,56(sp)
   206bc:	04010413          	addi	s0,sp,64
   206c0:	fca43c23          	sd	a0,-40(s0)
   206c4:	fcb43823          	sd	a1,-48(s0)
   206c8:	00060793          	mv	a5,a2
   206cc:	fcf42623          	sw	a5,-52(s0)
   206d0:	fe042623          	sw	zero,-20(s0)
   206d4:	fd043603          	ld	a2,-48(s0)
   206d8:	fd843683          	ld	a3,-40(s0)
   206dc:	fcc42703          	lw	a4,-52(s0)
   206e0:	fec42783          	lw	a5,-20(s0)
   206e4:	00c6b023          	sd	a2,0(a3)
   206e8:	00c6b423          	sd	a2,8(a3)
   206ec:	01078793          	addi	a5,a5,16 # 22010 <payload_bin+0x1a58>
   206f0:	fee7cae3          	blt	a5,a4,206e4 <payload_bin+0x12c>
   206f4:	fcd43c23          	sd	a3,-40(s0)
   206f8:	fce42623          	sw	a4,-52(s0)
   206fc:	fef42623          	sw	a5,-20(s0)
   20700:	00000013          	nop
   20704:	03813403          	ld	s0,56(sp)
   20708:	04010113          	addi	sp,sp,64
   2070c:	00008067          	ret
   20710:	fc010113          	addi	sp,sp,-64
   20714:	02813c23          	sd	s0,56(sp)
   20718:	04010413          	addi	s0,sp,64
   2071c:	fca43c23          	sd	a0,-40(s0)
   20720:	00058793          	mv	a5,a1
   20724:	fcc43423          	sd	a2,-56(s0)
   20728:	fcf42a23          	sw	a5,-44(s0)
   2072c:	fd843783          	ld	a5,-40(s0)
   20730:	fef43423          	sd	a5,-24(s0)
   20734:	01c0006f          	j	20750 <payload_bin+0x198>
   20738:	fe843783          	ld	a5,-24(s0)
   2073c:	00178713          	addi	a4,a5,1
   20740:	fee43423          	sd	a4,-24(s0)
   20744:	fd442703          	lw	a4,-44(s0)
   20748:	0ff77713          	andi	a4,a4,255
   2074c:	00e78023          	sb	a4,0(a5)
   20750:	fc843783          	ld	a5,-56(s0)
   20754:	fff78713          	addi	a4,a5,-1
   20758:	fce43423          	sd	a4,-56(s0)
   2075c:	fc079ee3          	bnez	a5,20738 <payload_bin+0x180>
   20760:	fd843783          	ld	a5,-40(s0)
   20764:	00078513          	mv	a0,a5
   20768:	03813403          	ld	s0,56(sp)
   2076c:	04010113          	addi	sp,sp,64
   20770:	00008067          	ret
   20774:	f9010113          	addi	sp,sp,-112
   20778:	06113423          	sd	ra,104(sp)
   2077c:	06813023          	sd	s0,96(sp)
   20780:	07010413          	addi	s0,sp,112
   20784:	faa43423          	sd	a0,-88(s0)
   20788:	00058793          	mv	a5,a1
   2078c:	f8c43c23          	sd	a2,-104(s0)
   20790:	faf42223          	sw	a5,-92(s0)
   20794:	fa843783          	ld	a5,-88(s0)
   20798:	fef43423          	sd	a5,-24(s0)
   2079c:	01000793          	li	a5,16
   207a0:	fcf43423          	sd	a5,-56(s0)
   207a4:	f9843783          	ld	a5,-104(s0)
   207a8:	fef43023          	sd	a5,-32(s0)
   207ac:	fe843783          	ld	a5,-24(s0)
   207b0:	fcf43023          	sd	a5,-64(s0)
   207b4:	fc043823          	sd	zero,-48(s0)
   207b8:	fc042e23          	sw	zero,-36(s0)
   207bc:	0340006f          	j	207f0 <payload_bin+0x238>
   207c0:	fa442783          	lw	a5,-92(s0)
   207c4:	0ff7f793          	andi	a5,a5,255
   207c8:	fdc42703          	lw	a4,-36(s0)
   207cc:	0037171b          	slliw	a4,a4,0x3
   207d0:	0007071b          	sext.w	a4,a4
   207d4:	00e797b3          	sll	a5,a5,a4
   207d8:	fd043703          	ld	a4,-48(s0)
   207dc:	00f767b3          	or	a5,a4,a5
   207e0:	fcf43823          	sd	a5,-48(s0)
   207e4:	fdc42783          	lw	a5,-36(s0)
   207e8:	0017879b          	addiw	a5,a5,1
   207ec:	fcf42e23          	sw	a5,-36(s0)
   207f0:	fdc42783          	lw	a5,-36(s0)
   207f4:	0007871b          	sext.w	a4,a5
   207f8:	00700793          	li	a5,7
   207fc:	fce7d2e3          	bge	a5,a4,207c0 <payload_bin+0x208>
   20800:	fc843783          	ld	a5,-56(s0)
   20804:	fff78713          	addi	a4,a5,-1
   20808:	fc043783          	ld	a5,-64(s0)
   2080c:	00f777b3          	and	a5,a4,a5
   20810:	04078e63          	beqz	a5,2086c <payload_bin+0x2b4>
   20814:	fc843783          	ld	a5,-56(s0)
   20818:	fff78793          	addi	a5,a5,-1
   2081c:	fc043703          	ld	a4,-64(s0)
   20820:	00f777b3          	and	a5,a4,a5
   20824:	faf43c23          	sd	a5,-72(s0)
   20828:	fc843703          	ld	a4,-56(s0)
   2082c:	fb843783          	ld	a5,-72(s0)
   20830:	40f707b3          	sub	a5,a4,a5
   20834:	faf43c23          	sd	a5,-72(s0)
   20838:	fa442783          	lw	a5,-92(s0)
   2083c:	fb843603          	ld	a2,-72(s0)
   20840:	00078593          	mv	a1,a5
   20844:	fe843503          	ld	a0,-24(s0)
   20848:	ec9ff0ef          	jal	ra,20710 <payload_bin+0x158>
   2084c:	fe843703          	ld	a4,-24(s0)
   20850:	fb843783          	ld	a5,-72(s0)
   20854:	00f707b3          	add	a5,a4,a5
   20858:	fef43423          	sd	a5,-24(s0)
   2085c:	f9843703          	ld	a4,-104(s0)
   20860:	fb843783          	ld	a5,-72(s0)
   20864:	40f707b3          	sub	a5,a4,a5
   20868:	fef43023          	sd	a5,-32(s0)
   2086c:	fe043703          	ld	a4,-32(s0)
   20870:	fc843783          	ld	a5,-56(s0)
   20874:	06e7fa63          	bgeu	a5,a4,208e8 <payload_bin+0x330>
   20878:	fe043703          	ld	a4,-32(s0)
   2087c:	fc843783          	ld	a5,-56(s0)
   20880:	02f757b3          	divu	a5,a4,a5
   20884:	faf42a23          	sw	a5,-76(s0)
   20888:	fe043703          	ld	a4,-32(s0)
   2088c:	fc843783          	ld	a5,-56(s0)
   20890:	02f777b3          	remu	a5,a4,a5
   20894:	fef43023          	sd	a5,-32(s0)
   20898:	fb442783          	lw	a5,-76(s0)
   2089c:	0047979b          	slliw	a5,a5,0x4
   208a0:	0007879b          	sext.w	a5,a5
   208a4:	00078613          	mv	a2,a5
   208a8:	fd043583          	ld	a1,-48(s0)
   208ac:	fe843503          	ld	a0,-24(s0)
   208b0:	e05ff0ef          	jal	ra,206b4 <payload_bin+0xfc>
   208b4:	fe043783          	ld	a5,-32(s0)
   208b8:	02078863          	beqz	a5,208e8 <payload_bin+0x330>
   208bc:	fb442783          	lw	a5,-76(s0)
   208c0:	0047979b          	slliw	a5,a5,0x4
   208c4:	0007879b          	sext.w	a5,a5
   208c8:	00078713          	mv	a4,a5
   208cc:	fe843783          	ld	a5,-24(s0)
   208d0:	00e787b3          	add	a5,a5,a4
   208d4:	fa442703          	lw	a4,-92(s0)
   208d8:	fe043603          	ld	a2,-32(s0)
   208dc:	00070593          	mv	a1,a4
   208e0:	00078513          	mv	a0,a5
   208e4:	e2dff0ef          	jal	ra,20710 <payload_bin+0x158>
   208e8:	fa843783          	ld	a5,-88(s0)
   208ec:	00078513          	mv	a0,a5
   208f0:	06813083          	ld	ra,104(sp)
   208f4:	06013403          	ld	s0,96(sp)
   208f8:	07010113          	addi	sp,sp,112
   208fc:	00008067          	ret
   20900:	fd010113          	addi	sp,sp,-48
   20904:	02113423          	sd	ra,40(sp)
   20908:	02813023          	sd	s0,32(sp)
   2090c:	03010413          	addi	s0,sp,48
   20910:	fea43423          	sd	a0,-24(s0)
   20914:	00058793          	mv	a5,a1
   20918:	fcc43c23          	sd	a2,-40(s0)
   2091c:	fef42223          	sw	a5,-28(s0)
   20920:	fe442783          	lw	a5,-28(s0)
   20924:	fd843603          	ld	a2,-40(s0)
   20928:	00078593          	mv	a1,a5
   2092c:	fe843503          	ld	a0,-24(s0)
   20930:	e45ff0ef          	jal	ra,20774 <payload_bin+0x1bc>
   20934:	00050793          	mv	a5,a0
   20938:	00078513          	mv	a0,a5
   2093c:	02813083          	ld	ra,40(sp)
   20940:	02013403          	ld	s0,32(sp)
   20944:	03010113          	addi	sp,sp,48
   20948:	00008067          	ret
   2094c:	fd010113          	addi	sp,sp,-48
   20950:	02813423          	sd	s0,40(sp)
   20954:	03010413          	addi	s0,sp,48
   20958:	fca43c23          	sd	a0,-40(s0)
   2095c:	fcb43823          	sd	a1,-48(s0)
   20960:	fe042623          	sw	zero,-20(s0)
   20964:	0440006f          	j	209a8 <payload_bin+0x3f0>
   20968:	fec42703          	lw	a4,-20(s0)
   2096c:	00070793          	mv	a5,a4
   20970:	0027979b          	slliw	a5,a5,0x2
   20974:	00e787bb          	addw	a5,a5,a4
   20978:	0017979b          	slliw	a5,a5,0x1
   2097c:	fef42623          	sw	a5,-20(s0)
   20980:	fd843783          	ld	a5,-40(s0)
   20984:	00178713          	addi	a4,a5,1
   20988:	fce43c23          	sd	a4,-40(s0)
   2098c:	0007c783          	lbu	a5,0(a5)
   20990:	0007879b          	sext.w	a5,a5
   20994:	fd07879b          	addiw	a5,a5,-48
   20998:	0007879b          	sext.w	a5,a5
   2099c:	fec42703          	lw	a4,-20(s0)
   209a0:	00f707bb          	addw	a5,a4,a5
   209a4:	fef42623          	sw	a5,-20(s0)
   209a8:	fd843783          	ld	a5,-40(s0)
   209ac:	0007c783          	lbu	a5,0(a5)
   209b0:	00078713          	mv	a4,a5
   209b4:	02f00793          	li	a5,47
   209b8:	00e7fc63          	bgeu	a5,a4,209d0 <payload_bin+0x418>
   209bc:	fd843783          	ld	a5,-40(s0)
   209c0:	0007c783          	lbu	a5,0(a5)
   209c4:	00078713          	mv	a4,a5
   209c8:	03900793          	li	a5,57
   209cc:	f8e7fee3          	bgeu	a5,a4,20968 <payload_bin+0x3b0>
   209d0:	fd043783          	ld	a5,-48(s0)
   209d4:	fec42703          	lw	a4,-20(s0)
   209d8:	00e7a023          	sw	a4,0(a5)
   209dc:	fd843783          	ld	a5,-40(s0)
   209e0:	00078513          	mv	a0,a5
   209e4:	02813403          	ld	s0,40(sp)
   209e8:	03010113          	addi	sp,sp,48
   209ec:	00008067          	ret
   209f0:	f2010113          	addi	sp,sp,-224
   209f4:	0c813c23          	sd	s0,216(sp)
   209f8:	0e010413          	addi	s0,sp,224
   209fc:	f2a43c23          	sd	a0,-200(s0)
   20a00:	f2b43823          	sd	a1,-208(s0)
   20a04:	00060593          	mv	a1,a2
   20a08:	00068613          	mv	a2,a3
   20a0c:	00070693          	mv	a3,a4
   20a10:	00078713          	mv	a4,a5
   20a14:	00058793          	mv	a5,a1
   20a18:	f2f42623          	sw	a5,-212(s0)
   20a1c:	00060793          	mv	a5,a2
   20a20:	f2f42423          	sw	a5,-216(s0)
   20a24:	00068793          	mv	a5,a3
   20a28:	f2f42223          	sw	a5,-220(s0)
   20a2c:	00070793          	mv	a5,a4
   20a30:	f2f42023          	sw	a5,-224(s0)
   20a34:	fe0407a3          	sb	zero,-17(s0)
   20a38:	00002797          	auipc	a5,0x2
   20a3c:	43878793          	addi	a5,a5,1080 # 22e70 <payload_bin+0x28b8>
   20a40:	fef43023          	sd	a5,-32(s0)
   20a44:	f2042783          	lw	a5,-224(s0)
   20a48:	0407f793          	andi	a5,a5,64
   20a4c:	0007879b          	sext.w	a5,a5
   20a50:	00078863          	beqz	a5,20a60 <payload_bin+0x4a8>
   20a54:	00002797          	auipc	a5,0x2
   20a58:	44478793          	addi	a5,a5,1092 # 22e98 <payload_bin+0x28e0>
   20a5c:	fef43023          	sd	a5,-32(s0)
   20a60:	f2042783          	lw	a5,-224(s0)
   20a64:	0107f793          	andi	a5,a5,16
   20a68:	0007879b          	sext.w	a5,a5
   20a6c:	00078863          	beqz	a5,20a7c <payload_bin+0x4c4>
   20a70:	f2042783          	lw	a5,-224(s0)
   20a74:	ffe7f793          	andi	a5,a5,-2
   20a78:	f2f42023          	sw	a5,-224(s0)
   20a7c:	f2c42783          	lw	a5,-212(s0)
   20a80:	0007871b          	sext.w	a4,a5
   20a84:	00100793          	li	a5,1
   20a88:	00e7da63          	bge	a5,a4,20a9c <payload_bin+0x4e4>
   20a8c:	f2c42783          	lw	a5,-212(s0)
   20a90:	0007871b          	sext.w	a4,a5
   20a94:	02400793          	li	a5,36
   20a98:	00e7d663          	bge	a5,a4,20aa4 <payload_bin+0x4ec>
   20a9c:	00000793          	li	a5,0
   20aa0:	3400006f          	j	20de0 <payload_bin+0x828>
   20aa4:	f2042783          	lw	a5,-224(s0)
   20aa8:	0017f793          	andi	a5,a5,1
   20aac:	0007879b          	sext.w	a5,a5
   20ab0:	00078663          	beqz	a5,20abc <payload_bin+0x504>
   20ab4:	03000793          	li	a5,48
   20ab8:	0080006f          	j	20ac0 <payload_bin+0x508>
   20abc:	02000793          	li	a5,32
   20ac0:	fcf40da3          	sb	a5,-37(s0)
   20ac4:	f2042783          	lw	a5,-224(s0)
   20ac8:	0027f793          	andi	a5,a5,2
   20acc:	0007879b          	sext.w	a5,a5
   20ad0:	06078c63          	beqz	a5,20b48 <payload_bin+0x590>
   20ad4:	f3043783          	ld	a5,-208(s0)
   20ad8:	fcf43823          	sd	a5,-48(s0)
   20adc:	fd043783          	ld	a5,-48(s0)
   20ae0:	0007de63          	bgez	a5,20afc <payload_bin+0x544>
   20ae4:	02d00793          	li	a5,45
   20ae8:	fef407a3          	sb	a5,-17(s0)
   20aec:	fd043783          	ld	a5,-48(s0)
   20af0:	40f007b3          	neg	a5,a5
   20af4:	f2f43823          	sd	a5,-208(s0)
   20af8:	0500006f          	j	20b48 <payload_bin+0x590>
   20afc:	f2042783          	lw	a5,-224(s0)
   20b00:	0047f793          	andi	a5,a5,4
   20b04:	0007879b          	sext.w	a5,a5
   20b08:	00078e63          	beqz	a5,20b24 <payload_bin+0x56c>
   20b0c:	02b00793          	li	a5,43
   20b10:	fef407a3          	sb	a5,-17(s0)
   20b14:	f2842783          	lw	a5,-216(s0)
   20b18:	fff7879b          	addiw	a5,a5,-1
   20b1c:	f2f42423          	sw	a5,-216(s0)
   20b20:	0280006f          	j	20b48 <payload_bin+0x590>
   20b24:	f2042783          	lw	a5,-224(s0)
   20b28:	0087f793          	andi	a5,a5,8
   20b2c:	0007879b          	sext.w	a5,a5
   20b30:	00078c63          	beqz	a5,20b48 <payload_bin+0x590>
   20b34:	02000793          	li	a5,32
   20b38:	fef407a3          	sb	a5,-17(s0)
   20b3c:	f2842783          	lw	a5,-216(s0)
   20b40:	fff7879b          	addiw	a5,a5,-1
   20b44:	f2f42423          	sw	a5,-216(s0)
   20b48:	f2042783          	lw	a5,-224(s0)
   20b4c:	0207f793          	andi	a5,a5,32
   20b50:	0007879b          	sext.w	a5,a5
   20b54:	04078063          	beqz	a5,20b94 <payload_bin+0x5dc>
   20b58:	f2c42783          	lw	a5,-212(s0)
   20b5c:	0007871b          	sext.w	a4,a5
   20b60:	01000793          	li	a5,16
   20b64:	00f71a63          	bne	a4,a5,20b78 <payload_bin+0x5c0>
   20b68:	f2842783          	lw	a5,-216(s0)
   20b6c:	ffe7879b          	addiw	a5,a5,-2
   20b70:	f2f42423          	sw	a5,-216(s0)
   20b74:	0200006f          	j	20b94 <payload_bin+0x5dc>
   20b78:	f2c42783          	lw	a5,-212(s0)
   20b7c:	0007871b          	sext.w	a4,a5
   20b80:	00800793          	li	a5,8
   20b84:	00f71863          	bne	a4,a5,20b94 <payload_bin+0x5dc>
   20b88:	f2842783          	lw	a5,-216(s0)
   20b8c:	fff7879b          	addiw	a5,a5,-1
   20b90:	f2f42423          	sw	a5,-216(s0)
   20b94:	fc042e23          	sw	zero,-36(s0)
   20b98:	f3043783          	ld	a5,-208(s0)
   20b9c:	06079e63          	bnez	a5,20c18 <payload_bin+0x660>
   20ba0:	fdc42783          	lw	a5,-36(s0)
   20ba4:	0017871b          	addiw	a4,a5,1
   20ba8:	fce42e23          	sw	a4,-36(s0)
   20bac:	ff040713          	addi	a4,s0,-16
   20bb0:	00f707b3          	add	a5,a4,a5
   20bb4:	03000713          	li	a4,48
   20bb8:	f4e78c23          	sb	a4,-168(a5)
   20bbc:	0640006f          	j	20c20 <payload_bin+0x668>
   20bc0:	f2c42783          	lw	a5,-212(s0)
   20bc4:	fcf42623          	sw	a5,-52(s0)
   20bc8:	fcc46783          	lwu	a5,-52(s0)
   20bcc:	f3043703          	ld	a4,-208(s0)
   20bd0:	02f777b3          	remu	a5,a4,a5
   20bd4:	fcf42423          	sw	a5,-56(s0)
   20bd8:	fcc46783          	lwu	a5,-52(s0)
   20bdc:	f3043703          	ld	a4,-208(s0)
   20be0:	02f757b3          	divu	a5,a4,a5
   20be4:	f2f43823          	sd	a5,-208(s0)
   20be8:	fc842783          	lw	a5,-56(s0)
   20bec:	02079793          	slli	a5,a5,0x20
   20bf0:	0207d793          	srli	a5,a5,0x20
   20bf4:	fe043703          	ld	a4,-32(s0)
   20bf8:	00f70733          	add	a4,a4,a5
   20bfc:	fdc42783          	lw	a5,-36(s0)
   20c00:	0017869b          	addiw	a3,a5,1
   20c04:	fcd42e23          	sw	a3,-36(s0)
   20c08:	00074703          	lbu	a4,0(a4)
   20c0c:	ff040693          	addi	a3,s0,-16
   20c10:	00f687b3          	add	a5,a3,a5
   20c14:	f4e78c23          	sb	a4,-168(a5)
   20c18:	f3043783          	ld	a5,-208(s0)
   20c1c:	fa0792e3          	bnez	a5,20bc0 <payload_bin+0x608>
   20c20:	fdc42703          	lw	a4,-36(s0)
   20c24:	f2442783          	lw	a5,-220(s0)
   20c28:	0007071b          	sext.w	a4,a4
   20c2c:	0007879b          	sext.w	a5,a5
   20c30:	00e7d663          	bge	a5,a4,20c3c <payload_bin+0x684>
   20c34:	fdc42783          	lw	a5,-36(s0)
   20c38:	f2f42223          	sw	a5,-220(s0)
   20c3c:	f2842703          	lw	a4,-216(s0)
   20c40:	f2442783          	lw	a5,-220(s0)
   20c44:	40f707bb          	subw	a5,a4,a5
   20c48:	f2f42423          	sw	a5,-216(s0)
   20c4c:	f2042783          	lw	a5,-224(s0)
   20c50:	0117f793          	andi	a5,a5,17
   20c54:	0007879b          	sext.w	a5,a5
   20c58:	02079663          	bnez	a5,20c84 <payload_bin+0x6cc>
   20c5c:	0180006f          	j	20c74 <payload_bin+0x6bc>
   20c60:	f3843783          	ld	a5,-200(s0)
   20c64:	00178713          	addi	a4,a5,1
   20c68:	f2e43c23          	sd	a4,-200(s0)
   20c6c:	02000713          	li	a4,32
   20c70:	00e78023          	sb	a4,0(a5)
   20c74:	f2842783          	lw	a5,-216(s0)
   20c78:	fff7871b          	addiw	a4,a5,-1
   20c7c:	f2e42423          	sw	a4,-216(s0)
   20c80:	fef040e3          	bgtz	a5,20c60 <payload_bin+0x6a8>
   20c84:	fef44783          	lbu	a5,-17(s0)
   20c88:	0ff7f793          	andi	a5,a5,255
   20c8c:	00078c63          	beqz	a5,20ca4 <payload_bin+0x6ec>
   20c90:	f3843783          	ld	a5,-200(s0)
   20c94:	00178713          	addi	a4,a5,1
   20c98:	f2e43c23          	sd	a4,-200(s0)
   20c9c:	fef44703          	lbu	a4,-17(s0)
   20ca0:	00e78023          	sb	a4,0(a5)
   20ca4:	f2042783          	lw	a5,-224(s0)
   20ca8:	0207f793          	andi	a5,a5,32
   20cac:	0007879b          	sext.w	a5,a5
   20cb0:	06078463          	beqz	a5,20d18 <payload_bin+0x760>
   20cb4:	f2c42783          	lw	a5,-212(s0)
   20cb8:	0007871b          	sext.w	a4,a5
   20cbc:	00800793          	li	a5,8
   20cc0:	00f71e63          	bne	a4,a5,20cdc <payload_bin+0x724>
   20cc4:	f3843783          	ld	a5,-200(s0)
   20cc8:	00178713          	addi	a4,a5,1
   20ccc:	f2e43c23          	sd	a4,-200(s0)
   20cd0:	03000713          	li	a4,48
   20cd4:	00e78023          	sb	a4,0(a5)
   20cd8:	0400006f          	j	20d18 <payload_bin+0x760>
   20cdc:	f2c42783          	lw	a5,-212(s0)
   20ce0:	0007871b          	sext.w	a4,a5
   20ce4:	01000793          	li	a5,16
   20ce8:	02f71863          	bne	a4,a5,20d18 <payload_bin+0x760>
   20cec:	f3843783          	ld	a5,-200(s0)
   20cf0:	00178713          	addi	a4,a5,1
   20cf4:	f2e43c23          	sd	a4,-200(s0)
   20cf8:	03000713          	li	a4,48
   20cfc:	00e78023          	sb	a4,0(a5)
   20d00:	f3843783          	ld	a5,-200(s0)
   20d04:	00178713          	addi	a4,a5,1
   20d08:	f2e43c23          	sd	a4,-200(s0)
   20d0c:	fe043703          	ld	a4,-32(s0)
   20d10:	02174703          	lbu	a4,33(a4)
   20d14:	00e78023          	sb	a4,0(a5)
   20d18:	f2042783          	lw	a5,-224(s0)
   20d1c:	0107f793          	andi	a5,a5,16
   20d20:	0007879b          	sext.w	a5,a5
   20d24:	04079263          	bnez	a5,20d68 <payload_bin+0x7b0>
   20d28:	0180006f          	j	20d40 <payload_bin+0x788>
   20d2c:	f3843783          	ld	a5,-200(s0)
   20d30:	00178713          	addi	a4,a5,1
   20d34:	f2e43c23          	sd	a4,-200(s0)
   20d38:	fdb44703          	lbu	a4,-37(s0)
   20d3c:	00e78023          	sb	a4,0(a5)
   20d40:	f2842783          	lw	a5,-216(s0)
   20d44:	fff7871b          	addiw	a4,a5,-1
   20d48:	f2e42423          	sw	a4,-216(s0)
   20d4c:	fef040e3          	bgtz	a5,20d2c <payload_bin+0x774>
   20d50:	0180006f          	j	20d68 <payload_bin+0x7b0>
   20d54:	f3843783          	ld	a5,-200(s0)
   20d58:	00178713          	addi	a4,a5,1
   20d5c:	f2e43c23          	sd	a4,-200(s0)
   20d60:	03000713          	li	a4,48
   20d64:	00e78023          	sb	a4,0(a5)
   20d68:	f2442783          	lw	a5,-220(s0)
   20d6c:	fff7871b          	addiw	a4,a5,-1
   20d70:	f2e42223          	sw	a4,-220(s0)
   20d74:	fdc42703          	lw	a4,-36(s0)
   20d78:	0007071b          	sext.w	a4,a4
   20d7c:	fcf74ce3          	blt	a4,a5,20d54 <payload_bin+0x79c>
   20d80:	0240006f          	j	20da4 <payload_bin+0x7ec>
   20d84:	f3843783          	ld	a5,-200(s0)
   20d88:	00178713          	addi	a4,a5,1
   20d8c:	f2e43c23          	sd	a4,-200(s0)
   20d90:	fdc42703          	lw	a4,-36(s0)
   20d94:	ff040693          	addi	a3,s0,-16
   20d98:	00e68733          	add	a4,a3,a4
   20d9c:	f5874703          	lbu	a4,-168(a4)
   20da0:	00e78023          	sb	a4,0(a5)
   20da4:	fdc42783          	lw	a5,-36(s0)
   20da8:	fff7871b          	addiw	a4,a5,-1
   20dac:	fce42e23          	sw	a4,-36(s0)
   20db0:	fcf04ae3          	bgtz	a5,20d84 <payload_bin+0x7cc>
   20db4:	0180006f          	j	20dcc <payload_bin+0x814>
   20db8:	f3843783          	ld	a5,-200(s0)
   20dbc:	00178713          	addi	a4,a5,1
   20dc0:	f2e43c23          	sd	a4,-200(s0)
   20dc4:	02000713          	li	a4,32
   20dc8:	00e78023          	sb	a4,0(a5)
   20dcc:	f2842783          	lw	a5,-216(s0)
   20dd0:	fff7871b          	addiw	a4,a5,-1
   20dd4:	f2e42423          	sw	a4,-216(s0)
   20dd8:	fef040e3          	bgtz	a5,20db8 <payload_bin+0x800>
   20ddc:	f3843783          	ld	a5,-200(s0)
   20de0:	00078513          	mv	a0,a5
   20de4:	0d813403          	ld	s0,216(sp)
   20de8:	0e010113          	addi	sp,sp,224
   20dec:	00008067          	ret
   20df0:	f9010113          	addi	sp,sp,-112
   20df4:	06113423          	sd	ra,104(sp)
   20df8:	06813023          	sd	s0,96(sp)
   20dfc:	07010413          	addi	s0,sp,112
   20e00:	faa43423          	sd	a0,-88(s0)
   20e04:	00058793          	mv	a5,a1
   20e08:	f8c43c23          	sd	a2,-104(s0)
   20e0c:	f8d43823          	sd	a3,-112(s0)
   20e10:	faf42223          	sw	a5,-92(s0)
   20e14:	fa843783          	ld	a5,-88(s0)
   20e18:	fef43423          	sd	a5,-24(s0)
   20e1c:	7440006f          	j	21560 <payload_bin+0xfa8>
   20e20:	f9843783          	ld	a5,-104(s0)
   20e24:	0007c783          	lbu	a5,0(a5)
   20e28:	00078713          	mv	a4,a5
   20e2c:	02500793          	li	a5,37
   20e30:	02f70063          	beq	a4,a5,20e50 <payload_bin+0x898>
   20e34:	fe843783          	ld	a5,-24(s0)
   20e38:	00178713          	addi	a4,a5,1
   20e3c:	fee43423          	sd	a4,-24(s0)
   20e40:	f9843703          	ld	a4,-104(s0)
   20e44:	00074703          	lbu	a4,0(a4)
   20e48:	00e78023          	sb	a4,0(a5)
   20e4c:	7080006f          	j	21554 <payload_bin+0xf9c>
   20e50:	fe042223          	sw	zero,-28(s0)
   20e54:	f9843783          	ld	a5,-104(s0)
   20e58:	00178793          	addi	a5,a5,1
   20e5c:	f8f43c23          	sd	a5,-104(s0)
   20e60:	f9843783          	ld	a5,-104(s0)
   20e64:	0007c783          	lbu	a5,0(a5)
   20e68:	0007879b          	sext.w	a5,a5
   20e6c:	fe07869b          	addiw	a3,a5,-32
   20e70:	0006871b          	sext.w	a4,a3
   20e74:	01000793          	li	a5,16
   20e78:	08e7e263          	bltu	a5,a4,20efc <payload_bin+0x944>
   20e7c:	02069793          	slli	a5,a3,0x20
   20e80:	0207d793          	srli	a5,a5,0x20
   20e84:	00279713          	slli	a4,a5,0x2
   20e88:	00002797          	auipc	a5,0x2
   20e8c:	04078793          	addi	a5,a5,64 # 22ec8 <payload_bin+0x2910>
   20e90:	00f707b3          	add	a5,a4,a5
   20e94:	0007a783          	lw	a5,0(a5)
   20e98:	0007871b          	sext.w	a4,a5
   20e9c:	00002797          	auipc	a5,0x2
   20ea0:	02c78793          	addi	a5,a5,44 # 22ec8 <payload_bin+0x2910>
   20ea4:	00f707b3          	add	a5,a4,a5
   20ea8:	00078067          	jr	a5
   20eac:	fe442783          	lw	a5,-28(s0)
   20eb0:	0107e793          	ori	a5,a5,16
   20eb4:	fef42223          	sw	a5,-28(s0)
   20eb8:	f9dff06f          	j	20e54 <payload_bin+0x89c>
   20ebc:	fe442783          	lw	a5,-28(s0)
   20ec0:	0047e793          	ori	a5,a5,4
   20ec4:	fef42223          	sw	a5,-28(s0)
   20ec8:	f8dff06f          	j	20e54 <payload_bin+0x89c>
   20ecc:	fe442783          	lw	a5,-28(s0)
   20ed0:	0087e793          	ori	a5,a5,8
   20ed4:	fef42223          	sw	a5,-28(s0)
   20ed8:	f7dff06f          	j	20e54 <payload_bin+0x89c>
   20edc:	fe442783          	lw	a5,-28(s0)
   20ee0:	0207e793          	ori	a5,a5,32
   20ee4:	fef42223          	sw	a5,-28(s0)
   20ee8:	f6dff06f          	j	20e54 <payload_bin+0x89c>
   20eec:	fe442783          	lw	a5,-28(s0)
   20ef0:	0017e793          	ori	a5,a5,1
   20ef4:	fef42223          	sw	a5,-28(s0)
   20ef8:	f5dff06f          	j	20e54 <payload_bin+0x89c>
   20efc:	fff00793          	li	a5,-1
   20f00:	faf42a23          	sw	a5,-76(s0)
   20f04:	f9843783          	ld	a5,-104(s0)
   20f08:	0007c783          	lbu	a5,0(a5)
   20f0c:	00078713          	mv	a4,a5
   20f10:	02f00793          	li	a5,47
   20f14:	02e7f863          	bgeu	a5,a4,20f44 <payload_bin+0x98c>
   20f18:	f9843783          	ld	a5,-104(s0)
   20f1c:	0007c783          	lbu	a5,0(a5)
   20f20:	00078713          	mv	a4,a5
   20f24:	03900793          	li	a5,57
   20f28:	00e7ee63          	bltu	a5,a4,20f44 <payload_bin+0x98c>
   20f2c:	fb440793          	addi	a5,s0,-76
   20f30:	00078593          	mv	a1,a5
   20f34:	f9843503          	ld	a0,-104(s0)
   20f38:	a15ff0ef          	jal	ra,2094c <payload_bin+0x394>
   20f3c:	f8a43c23          	sd	a0,-104(s0)
   20f40:	0500006f          	j	20f90 <payload_bin+0x9d8>
   20f44:	f9843783          	ld	a5,-104(s0)
   20f48:	0007c783          	lbu	a5,0(a5)
   20f4c:	00078713          	mv	a4,a5
   20f50:	02a00793          	li	a5,42
   20f54:	02f71e63          	bne	a4,a5,20f90 <payload_bin+0x9d8>
   20f58:	f9043783          	ld	a5,-112(s0)
   20f5c:	00878713          	addi	a4,a5,8
   20f60:	f8e43823          	sd	a4,-112(s0)
   20f64:	0007a783          	lw	a5,0(a5)
   20f68:	faf42a23          	sw	a5,-76(s0)
   20f6c:	fb442783          	lw	a5,-76(s0)
   20f70:	0207d063          	bgez	a5,20f90 <payload_bin+0x9d8>
   20f74:	fb442783          	lw	a5,-76(s0)
   20f78:	40f007bb          	negw	a5,a5
   20f7c:	0007879b          	sext.w	a5,a5
   20f80:	faf42a23          	sw	a5,-76(s0)
   20f84:	fe442783          	lw	a5,-28(s0)
   20f88:	0107e793          	ori	a5,a5,16
   20f8c:	fef42223          	sw	a5,-28(s0)
   20f90:	fff00793          	li	a5,-1
   20f94:	faf42823          	sw	a5,-80(s0)
   20f98:	f9843783          	ld	a5,-104(s0)
   20f9c:	0007c783          	lbu	a5,0(a5)
   20fa0:	00078713          	mv	a4,a5
   20fa4:	02e00793          	li	a5,46
   20fa8:	08f71263          	bne	a4,a5,2102c <payload_bin+0xa74>
   20fac:	f9843783          	ld	a5,-104(s0)
   20fb0:	00178793          	addi	a5,a5,1
   20fb4:	f8f43c23          	sd	a5,-104(s0)
   20fb8:	f9843783          	ld	a5,-104(s0)
   20fbc:	0007c783          	lbu	a5,0(a5)
   20fc0:	00078713          	mv	a4,a5
   20fc4:	02f00793          	li	a5,47
   20fc8:	02e7f863          	bgeu	a5,a4,20ff8 <payload_bin+0xa40>
   20fcc:	f9843783          	ld	a5,-104(s0)
   20fd0:	0007c783          	lbu	a5,0(a5)
   20fd4:	00078713          	mv	a4,a5
   20fd8:	03900793          	li	a5,57
   20fdc:	00e7ee63          	bltu	a5,a4,20ff8 <payload_bin+0xa40>
   20fe0:	fb040793          	addi	a5,s0,-80
   20fe4:	00078593          	mv	a1,a5
   20fe8:	f9843503          	ld	a0,-104(s0)
   20fec:	961ff0ef          	jal	ra,2094c <payload_bin+0x394>
   20ff0:	f8a43c23          	sd	a0,-104(s0)
   20ff4:	02c0006f          	j	21020 <payload_bin+0xa68>
   20ff8:	f9843783          	ld	a5,-104(s0)
   20ffc:	0007c783          	lbu	a5,0(a5)
   21000:	00078713          	mv	a4,a5
   21004:	02a00793          	li	a5,42
   21008:	00f71c63          	bne	a4,a5,21020 <payload_bin+0xa68>
   2100c:	f9043783          	ld	a5,-112(s0)
   21010:	00878713          	addi	a4,a5,8
   21014:	f8e43823          	sd	a4,-112(s0)
   21018:	0007a783          	lw	a5,0(a5)
   2101c:	faf42823          	sw	a5,-80(s0)
   21020:	fb042783          	lw	a5,-80(s0)
   21024:	0007d463          	bgez	a5,2102c <payload_bin+0xa74>
   21028:	fa042823          	sw	zero,-80(s0)
   2102c:	fff00793          	li	a5,-1
   21030:	fef42023          	sw	a5,-32(s0)
   21034:	f9843783          	ld	a5,-104(s0)
   21038:	0007c783          	lbu	a5,0(a5)
   2103c:	00078713          	mv	a4,a5
   21040:	06800793          	li	a5,104
   21044:	02f70663          	beq	a4,a5,21070 <payload_bin+0xab8>
   21048:	f9843783          	ld	a5,-104(s0)
   2104c:	0007c783          	lbu	a5,0(a5)
   21050:	00078713          	mv	a4,a5
   21054:	06c00793          	li	a5,108
   21058:	00f70c63          	beq	a4,a5,21070 <payload_bin+0xab8>
   2105c:	f9843783          	ld	a5,-104(s0)
   21060:	0007c783          	lbu	a5,0(a5)
   21064:	00078713          	mv	a4,a5
   21068:	04c00793          	li	a5,76
   2106c:	04f71a63          	bne	a4,a5,210c0 <payload_bin+0xb08>
   21070:	f9843783          	ld	a5,-104(s0)
   21074:	0007c783          	lbu	a5,0(a5)
   21078:	fef42023          	sw	a5,-32(s0)
   2107c:	f9843783          	ld	a5,-104(s0)
   21080:	00178793          	addi	a5,a5,1
   21084:	f8f43c23          	sd	a5,-104(s0)
   21088:	fe042783          	lw	a5,-32(s0)
   2108c:	0007871b          	sext.w	a4,a5
   21090:	06c00793          	li	a5,108
   21094:	02f71663          	bne	a4,a5,210c0 <payload_bin+0xb08>
   21098:	f9843783          	ld	a5,-104(s0)
   2109c:	0007c783          	lbu	a5,0(a5)
   210a0:	00078713          	mv	a4,a5
   210a4:	06c00793          	li	a5,108
   210a8:	00f71c63          	bne	a4,a5,210c0 <payload_bin+0xb08>
   210ac:	04c00793          	li	a5,76
   210b0:	fef42023          	sw	a5,-32(s0)
   210b4:	f9843783          	ld	a5,-104(s0)
   210b8:	00178793          	addi	a5,a5,1
   210bc:	f8f43c23          	sd	a5,-104(s0)
   210c0:	f9843783          	ld	a5,-104(s0)
   210c4:	0007c783          	lbu	a5,0(a5)
   210c8:	0007879b          	sext.w	a5,a5
   210cc:	fa87869b          	addiw	a3,a5,-88
   210d0:	0006871b          	sext.w	a4,a3
   210d4:	02000793          	li	a5,32
   210d8:	2ae7ec63          	bltu	a5,a4,21390 <payload_bin+0xdd8>
   210dc:	02069793          	slli	a5,a3,0x20
   210e0:	0207d793          	srli	a5,a5,0x20
   210e4:	00279713          	slli	a4,a5,0x2
   210e8:	00002797          	auipc	a5,0x2
   210ec:	e2478793          	addi	a5,a5,-476 # 22f0c <payload_bin+0x2954>
   210f0:	00f707b3          	add	a5,a4,a5
   210f4:	0007a783          	lw	a5,0(a5)
   210f8:	0007871b          	sext.w	a4,a5
   210fc:	00002797          	auipc	a5,0x2
   21100:	e1078793          	addi	a5,a5,-496 # 22f0c <payload_bin+0x2954>
   21104:	00f707b3          	add	a5,a4,a5
   21108:	00078067          	jr	a5
   2110c:	fe442783          	lw	a5,-28(s0)
   21110:	0107f793          	andi	a5,a5,16
   21114:	0007879b          	sext.w	a5,a5
   21118:	02079a63          	bnez	a5,2114c <payload_bin+0xb94>
   2111c:	0180006f          	j	21134 <payload_bin+0xb7c>
   21120:	fe843783          	ld	a5,-24(s0)
   21124:	00178713          	addi	a4,a5,1
   21128:	fee43423          	sd	a4,-24(s0)
   2112c:	02000713          	li	a4,32
   21130:	00e78023          	sb	a4,0(a5)
   21134:	fb442783          	lw	a5,-76(s0)
   21138:	fff7879b          	addiw	a5,a5,-1
   2113c:	0007879b          	sext.w	a5,a5
   21140:	faf42a23          	sw	a5,-76(s0)
   21144:	fb442783          	lw	a5,-76(s0)
   21148:	fcf04ce3          	bgtz	a5,21120 <payload_bin+0xb68>
   2114c:	f9043783          	ld	a5,-112(s0)
   21150:	00878713          	addi	a4,a5,8
   21154:	f8e43823          	sd	a4,-112(s0)
   21158:	0007a683          	lw	a3,0(a5)
   2115c:	fe843783          	ld	a5,-24(s0)
   21160:	00178713          	addi	a4,a5,1
   21164:	fee43423          	sd	a4,-24(s0)
   21168:	0ff6f713          	andi	a4,a3,255
   2116c:	00e78023          	sb	a4,0(a5)
   21170:	0180006f          	j	21188 <payload_bin+0xbd0>
   21174:	fe843783          	ld	a5,-24(s0)
   21178:	00178713          	addi	a4,a5,1
   2117c:	fee43423          	sd	a4,-24(s0)
   21180:	02000713          	li	a4,32
   21184:	00e78023          	sb	a4,0(a5)
   21188:	fb442783          	lw	a5,-76(s0)
   2118c:	fff7879b          	addiw	a5,a5,-1
   21190:	0007879b          	sext.w	a5,a5
   21194:	faf42a23          	sw	a5,-76(s0)
   21198:	fb442783          	lw	a5,-76(s0)
   2119c:	fcf04ce3          	bgtz	a5,21174 <payload_bin+0xbbc>
   211a0:	3b40006f          	j	21554 <payload_bin+0xf9c>
   211a4:	f9043783          	ld	a5,-112(s0)
   211a8:	00878713          	addi	a4,a5,8
   211ac:	f8e43823          	sd	a4,-112(s0)
   211b0:	0007b783          	ld	a5,0(a5)
   211b4:	fcf43c23          	sd	a5,-40(s0)
   211b8:	fd843783          	ld	a5,-40(s0)
   211bc:	00079863          	bnez	a5,211cc <payload_bin+0xc14>
   211c0:	00002797          	auipc	a5,0x2
   211c4:	d0078793          	addi	a5,a5,-768 # 22ec0 <payload_bin+0x2908>
   211c8:	fcf43c23          	sd	a5,-40(s0)
   211cc:	fd843503          	ld	a0,-40(s0)
   211d0:	70c000ef          	jal	ra,218dc <payload_bin+0x1324>
   211d4:	00050793          	mv	a5,a0
   211d8:	fcf42823          	sw	a5,-48(s0)
   211dc:	fb042783          	lw	a5,-80(s0)
   211e0:	0007d863          	bgez	a5,211f0 <payload_bin+0xc38>
   211e4:	fd042783          	lw	a5,-48(s0)
   211e8:	faf42823          	sw	a5,-80(s0)
   211ec:	01c0006f          	j	21208 <payload_bin+0xc50>
   211f0:	fb042703          	lw	a4,-80(s0)
   211f4:	fd042783          	lw	a5,-48(s0)
   211f8:	0007879b          	sext.w	a5,a5
   211fc:	00f75663          	bge	a4,a5,21208 <payload_bin+0xc50>
   21200:	fb042783          	lw	a5,-80(s0)
   21204:	fcf42823          	sw	a5,-48(s0)
   21208:	fe442783          	lw	a5,-28(s0)
   2120c:	0107f793          	andi	a5,a5,16
   21210:	0007879b          	sext.w	a5,a5
   21214:	02079c63          	bnez	a5,2124c <payload_bin+0xc94>
   21218:	0180006f          	j	21230 <payload_bin+0xc78>
   2121c:	fe843783          	ld	a5,-24(s0)
   21220:	00178713          	addi	a4,a5,1
   21224:	fee43423          	sd	a4,-24(s0)
   21228:	02000713          	li	a4,32
   2122c:	00e78023          	sb	a4,0(a5)
   21230:	fb442783          	lw	a5,-76(s0)
   21234:	fff7871b          	addiw	a4,a5,-1
   21238:	0007071b          	sext.w	a4,a4
   2123c:	fae42a23          	sw	a4,-76(s0)
   21240:	fd042703          	lw	a4,-48(s0)
   21244:	0007071b          	sext.w	a4,a4
   21248:	fcf74ae3          	blt	a4,a5,2121c <payload_bin+0xc64>
   2124c:	fc042a23          	sw	zero,-44(s0)
   21250:	0300006f          	j	21280 <payload_bin+0xcc8>
   21254:	fd843703          	ld	a4,-40(s0)
   21258:	00170793          	addi	a5,a4,1
   2125c:	fcf43c23          	sd	a5,-40(s0)
   21260:	fe843783          	ld	a5,-24(s0)
   21264:	00178693          	addi	a3,a5,1
   21268:	fed43423          	sd	a3,-24(s0)
   2126c:	00074703          	lbu	a4,0(a4)
   21270:	00e78023          	sb	a4,0(a5)
   21274:	fd442783          	lw	a5,-44(s0)
   21278:	0017879b          	addiw	a5,a5,1
   2127c:	fcf42a23          	sw	a5,-44(s0)
   21280:	fd442703          	lw	a4,-44(s0)
   21284:	fd042783          	lw	a5,-48(s0)
   21288:	0007071b          	sext.w	a4,a4
   2128c:	0007879b          	sext.w	a5,a5
   21290:	fcf742e3          	blt	a4,a5,21254 <payload_bin+0xc9c>
   21294:	0180006f          	j	212ac <payload_bin+0xcf4>
   21298:	fe843783          	ld	a5,-24(s0)
   2129c:	00178713          	addi	a4,a5,1
   212a0:	fee43423          	sd	a4,-24(s0)
   212a4:	02000713          	li	a4,32
   212a8:	00e78023          	sb	a4,0(a5)
   212ac:	fb442783          	lw	a5,-76(s0)
   212b0:	fff7871b          	addiw	a4,a5,-1
   212b4:	0007071b          	sext.w	a4,a4
   212b8:	fae42a23          	sw	a4,-76(s0)
   212bc:	fd042703          	lw	a4,-48(s0)
   212c0:	0007071b          	sext.w	a4,a4
   212c4:	fcf74ae3          	blt	a4,a5,21298 <payload_bin+0xce0>
   212c8:	28c0006f          	j	21554 <payload_bin+0xf9c>
   212cc:	f9043783          	ld	a5,-112(s0)
   212d0:	00878713          	addi	a4,a5,8
   212d4:	f8e43823          	sd	a4,-112(s0)
   212d8:	0007b783          	ld	a5,0(a5)
   212dc:	faf43c23          	sd	a5,-72(s0)
   212e0:	fe843703          	ld	a4,-24(s0)
   212e4:	fa843783          	ld	a5,-88(s0)
   212e8:	40f707b3          	sub	a5,a4,a5
   212ec:	0ff7f713          	andi	a4,a5,255
   212f0:	fb843783          	ld	a5,-72(s0)
   212f4:	00e78023          	sb	a4,0(a5)
   212f8:	25c0006f          	j	21554 <payload_bin+0xf9c>
   212fc:	fb442783          	lw	a5,-76(s0)
   21300:	00078713          	mv	a4,a5
   21304:	fff00793          	li	a5,-1
   21308:	00f71c63          	bne	a4,a5,21320 <payload_bin+0xd68>
   2130c:	01000793          	li	a5,16
   21310:	faf42a23          	sw	a5,-76(s0)
   21314:	fe442783          	lw	a5,-28(s0)
   21318:	0017e793          	ori	a5,a5,1
   2131c:	fef42223          	sw	a5,-28(s0)
   21320:	f9043783          	ld	a5,-112(s0)
   21324:	00878713          	addi	a4,a5,8
   21328:	f8e43823          	sd	a4,-112(s0)
   2132c:	0007b783          	ld	a5,0(a5)
   21330:	00078593          	mv	a1,a5
   21334:	fb442683          	lw	a3,-76(s0)
   21338:	fb042703          	lw	a4,-80(s0)
   2133c:	fe442783          	lw	a5,-28(s0)
   21340:	01000613          	li	a2,16
   21344:	fe843503          	ld	a0,-24(s0)
   21348:	ea8ff0ef          	jal	ra,209f0 <payload_bin+0x438>
   2134c:	fea43423          	sd	a0,-24(s0)
   21350:	2040006f          	j	21554 <payload_bin+0xf9c>
   21354:	00800793          	li	a5,8
   21358:	fcf42223          	sw	a5,-60(s0)
   2135c:	0940006f          	j	213f0 <payload_bin+0xe38>
   21360:	fe442783          	lw	a5,-28(s0)
   21364:	0407e793          	ori	a5,a5,64
   21368:	fef42223          	sw	a5,-28(s0)
   2136c:	01000793          	li	a5,16
   21370:	fcf42223          	sw	a5,-60(s0)
   21374:	07c0006f          	j	213f0 <payload_bin+0xe38>
   21378:	fe442783          	lw	a5,-28(s0)
   2137c:	0027e793          	ori	a5,a5,2
   21380:	fef42223          	sw	a5,-28(s0)
   21384:	00a00793          	li	a5,10
   21388:	fcf42223          	sw	a5,-60(s0)
   2138c:	0640006f          	j	213f0 <payload_bin+0xe38>
   21390:	f9843783          	ld	a5,-104(s0)
   21394:	0007c783          	lbu	a5,0(a5)
   21398:	00078713          	mv	a4,a5
   2139c:	02500793          	li	a5,37
   213a0:	00f70c63          	beq	a4,a5,213b8 <payload_bin+0xe00>
   213a4:	fe843783          	ld	a5,-24(s0)
   213a8:	00178713          	addi	a4,a5,1
   213ac:	fee43423          	sd	a4,-24(s0)
   213b0:	02500713          	li	a4,37
   213b4:	00e78023          	sb	a4,0(a5)
   213b8:	f9843783          	ld	a5,-104(s0)
   213bc:	0007c783          	lbu	a5,0(a5)
   213c0:	02078063          	beqz	a5,213e0 <payload_bin+0xe28>
   213c4:	fe843783          	ld	a5,-24(s0)
   213c8:	00178713          	addi	a4,a5,1
   213cc:	fee43423          	sd	a4,-24(s0)
   213d0:	f9843703          	ld	a4,-104(s0)
   213d4:	00074703          	lbu	a4,0(a4)
   213d8:	00e78023          	sb	a4,0(a5)
   213dc:	0100006f          	j	213ec <payload_bin+0xe34>
   213e0:	f9843783          	ld	a5,-104(s0)
   213e4:	fff78793          	addi	a5,a5,-1
   213e8:	f8f43c23          	sd	a5,-104(s0)
   213ec:	00000013          	nop
   213f0:	fe042783          	lw	a5,-32(s0)
   213f4:	0007871b          	sext.w	a4,a5
   213f8:	04c00793          	li	a5,76
   213fc:	04f71263          	bne	a4,a5,21440 <payload_bin+0xe88>
   21400:	fe442783          	lw	a5,-28(s0)
   21404:	0027f793          	andi	a5,a5,2
   21408:	0007879b          	sext.w	a5,a5
   2140c:	00078e63          	beqz	a5,21428 <payload_bin+0xe70>
   21410:	f9043783          	ld	a5,-112(s0)
   21414:	00878713          	addi	a4,a5,8
   21418:	f8e43823          	sd	a4,-112(s0)
   2141c:	0007b783          	ld	a5,0(a5)
   21420:	fcf43423          	sd	a5,-56(s0)
   21424:	1100006f          	j	21534 <payload_bin+0xf7c>
   21428:	f9043783          	ld	a5,-112(s0)
   2142c:	00878713          	addi	a4,a5,8
   21430:	f8e43823          	sd	a4,-112(s0)
   21434:	0007b783          	ld	a5,0(a5)
   21438:	fcf43423          	sd	a5,-56(s0)
   2143c:	0f80006f          	j	21534 <payload_bin+0xf7c>
   21440:	fe042783          	lw	a5,-32(s0)
   21444:	0007871b          	sext.w	a4,a5
   21448:	06800793          	li	a5,104
   2144c:	04f71a63          	bne	a4,a5,214a0 <payload_bin+0xee8>
   21450:	fe442783          	lw	a5,-28(s0)
   21454:	0027f793          	andi	a5,a5,2
   21458:	0007879b          	sext.w	a5,a5
   2145c:	02078263          	beqz	a5,21480 <payload_bin+0xec8>
   21460:	f9043783          	ld	a5,-112(s0)
   21464:	00878713          	addi	a4,a5,8
   21468:	f8e43823          	sd	a4,-112(s0)
   2146c:	0007a783          	lw	a5,0(a5)
   21470:	0107979b          	slliw	a5,a5,0x10
   21474:	4107d79b          	sraiw	a5,a5,0x10
   21478:	fcf43423          	sd	a5,-56(s0)
   2147c:	0b80006f          	j	21534 <payload_bin+0xf7c>
   21480:	f9043783          	ld	a5,-112(s0)
   21484:	00878713          	addi	a4,a5,8
   21488:	f8e43823          	sd	a4,-112(s0)
   2148c:	0007a783          	lw	a5,0(a5)
   21490:	03079793          	slli	a5,a5,0x30
   21494:	0307d793          	srli	a5,a5,0x30
   21498:	fcf43423          	sd	a5,-56(s0)
   2149c:	0980006f          	j	21534 <payload_bin+0xf7c>
   214a0:	fe042783          	lw	a5,-32(s0)
   214a4:	0007871b          	sext.w	a4,a5
   214a8:	06c00793          	li	a5,108
   214ac:	04f71263          	bne	a4,a5,214f0 <payload_bin+0xf38>
   214b0:	fe442783          	lw	a5,-28(s0)
   214b4:	0027f793          	andi	a5,a5,2
   214b8:	0007879b          	sext.w	a5,a5
   214bc:	00078e63          	beqz	a5,214d8 <payload_bin+0xf20>
   214c0:	f9043783          	ld	a5,-112(s0)
   214c4:	00878713          	addi	a4,a5,8
   214c8:	f8e43823          	sd	a4,-112(s0)
   214cc:	0007b783          	ld	a5,0(a5)
   214d0:	fcf43423          	sd	a5,-56(s0)
   214d4:	0600006f          	j	21534 <payload_bin+0xf7c>
   214d8:	f9043783          	ld	a5,-112(s0)
   214dc:	00878713          	addi	a4,a5,8
   214e0:	f8e43823          	sd	a4,-112(s0)
   214e4:	0007b783          	ld	a5,0(a5)
   214e8:	fcf43423          	sd	a5,-56(s0)
   214ec:	0480006f          	j	21534 <payload_bin+0xf7c>
   214f0:	fe442783          	lw	a5,-28(s0)
   214f4:	0027f793          	andi	a5,a5,2
   214f8:	0007879b          	sext.w	a5,a5
   214fc:	00078e63          	beqz	a5,21518 <payload_bin+0xf60>
   21500:	f9043783          	ld	a5,-112(s0)
   21504:	00878713          	addi	a4,a5,8
   21508:	f8e43823          	sd	a4,-112(s0)
   2150c:	0007a783          	lw	a5,0(a5)
   21510:	fcf43423          	sd	a5,-56(s0)
   21514:	0200006f          	j	21534 <payload_bin+0xf7c>
   21518:	f9043783          	ld	a5,-112(s0)
   2151c:	00878713          	addi	a4,a5,8
   21520:	f8e43823          	sd	a4,-112(s0)
   21524:	0007a783          	lw	a5,0(a5)
   21528:	02079793          	slli	a5,a5,0x20
   2152c:	0207d793          	srli	a5,a5,0x20
   21530:	fcf43423          	sd	a5,-56(s0)
   21534:	fb442683          	lw	a3,-76(s0)
   21538:	fb042703          	lw	a4,-80(s0)
   2153c:	fe442783          	lw	a5,-28(s0)
   21540:	fc442603          	lw	a2,-60(s0)
   21544:	fc843583          	ld	a1,-56(s0)
   21548:	fe843503          	ld	a0,-24(s0)
   2154c:	ca4ff0ef          	jal	ra,209f0 <payload_bin+0x438>
   21550:	fea43423          	sd	a0,-24(s0)
   21554:	f9843783          	ld	a5,-104(s0)
   21558:	00178793          	addi	a5,a5,1
   2155c:	f8f43c23          	sd	a5,-104(s0)
   21560:	f9843783          	ld	a5,-104(s0)
   21564:	0007c783          	lbu	a5,0(a5)
   21568:	8a079ce3          	bnez	a5,20e20 <payload_bin+0x868>
   2156c:	fe843783          	ld	a5,-24(s0)
   21570:	00078023          	sb	zero,0(a5)
   21574:	fe843703          	ld	a4,-24(s0)
   21578:	fa843783          	ld	a5,-88(s0)
   2157c:	40f707b3          	sub	a5,a4,a5
   21580:	0007879b          	sext.w	a5,a5
   21584:	00078513          	mv	a0,a5
   21588:	06813083          	ld	ra,104(sp)
   2158c:	06013403          	ld	s0,96(sp)
   21590:	07010113          	addi	sp,sp,112
   21594:	00008067          	ret
   21598:	fe010113          	addi	sp,sp,-32
   2159c:	00113c23          	sd	ra,24(sp)
   215a0:	00813823          	sd	s0,16(sp)
   215a4:	02010413          	addi	s0,sp,32
   215a8:	00003797          	auipc	a5,0x3
   215ac:	21878793          	addi	a5,a5,536 # 247c0 <payload_bin+0x4208>
   215b0:	00100713          	li	a4,1
   215b4:	00e7a023          	sw	a4,0(a5)
   215b8:	fe043423          	sd	zero,-24(s0)
   215bc:	0300006f          	j	215ec <payload_bin+0x1034>
   215c0:	00003717          	auipc	a4,0x3
   215c4:	10070713          	addi	a4,a4,256 # 246c0 <payload_bin+0x4108>
   215c8:	fe843783          	ld	a5,-24(s0)
   215cc:	00f707b3          	add	a5,a4,a5
   215d0:	0007c783          	lbu	a5,0(a5)
   215d4:	0007879b          	sext.w	a5,a5
   215d8:	00078513          	mv	a0,a5
   215dc:	6b9000ef          	jal	ra,22494 <payload_bin+0x1edc>
   215e0:	fe843783          	ld	a5,-24(s0)
   215e4:	00178793          	addi	a5,a5,1
   215e8:	fef43423          	sd	a5,-24(s0)
   215ec:	00003797          	auipc	a5,0x3
   215f0:	1dc78793          	addi	a5,a5,476 # 247c8 <payload_bin+0x4210>
   215f4:	0007b783          	ld	a5,0(a5)
   215f8:	fe843703          	ld	a4,-24(s0)
   215fc:	fcf762e3          	bltu	a4,a5,215c0 <payload_bin+0x1008>
   21600:	00003797          	auipc	a5,0x3
   21604:	fb878793          	addi	a5,a5,-72 # 245b8 <payload_bin+0x4000>
   21608:	00003717          	auipc	a4,0x3
   2160c:	0b870713          	addi	a4,a4,184 # 246c0 <payload_bin+0x4108>
   21610:	00e7b023          	sd	a4,0(a5)
   21614:	00003797          	auipc	a5,0x3
   21618:	1b478793          	addi	a5,a5,436 # 247c8 <payload_bin+0x4210>
   2161c:	0007b023          	sd	zero,0(a5)
   21620:	00000013          	nop
   21624:	01813083          	ld	ra,24(sp)
   21628:	01013403          	ld	s0,16(sp)
   2162c:	02010113          	addi	sp,sp,32
   21630:	00008067          	ret
   21634:	f9010113          	addi	sp,sp,-112
   21638:	02113423          	sd	ra,40(sp)
   2163c:	02813023          	sd	s0,32(sp)
   21640:	03010413          	addi	s0,sp,48
   21644:	fca43c23          	sd	a0,-40(s0)
   21648:	00b43423          	sd	a1,8(s0)
   2164c:	00c43823          	sd	a2,16(s0)
   21650:	00d43c23          	sd	a3,24(s0)
   21654:	02e43023          	sd	a4,32(s0)
   21658:	02f43423          	sd	a5,40(s0)
   2165c:	03043823          	sd	a6,48(s0)
   21660:	03143c23          	sd	a7,56(s0)
   21664:	04040793          	addi	a5,s0,64
   21668:	fcf43823          	sd	a5,-48(s0)
   2166c:	fd043783          	ld	a5,-48(s0)
   21670:	fc878793          	addi	a5,a5,-56
   21674:	fef43023          	sd	a5,-32(s0)
   21678:	fe043783          	ld	a5,-32(s0)
   2167c:	00078693          	mv	a3,a5
   21680:	fd843603          	ld	a2,-40(s0)
   21684:	10000593          	li	a1,256
   21688:	00003517          	auipc	a0,0x3
   2168c:	f3850513          	addi	a0,a0,-200 # 245c0 <payload_bin+0x4008>
   21690:	f60ff0ef          	jal	ra,20df0 <payload_bin+0x838>
   21694:	00050793          	mv	a5,a0
   21698:	fef42423          	sw	a5,-24(s0)
   2169c:	00003797          	auipc	a5,0x3
   216a0:	12478793          	addi	a5,a5,292 # 247c0 <payload_bin+0x4208>
   216a4:	0007a783          	lw	a5,0(a5)
   216a8:	06079663          	bnez	a5,21714 <payload_bin+0x115c>
   216ac:	00003797          	auipc	a5,0x3
   216b0:	f0c78793          	addi	a5,a5,-244 # 245b8 <payload_bin+0x4000>
   216b4:	0007b783          	ld	a5,0(a5)
   216b8:	fe842703          	lw	a4,-24(s0)
   216bc:	00070613          	mv	a2,a4
   216c0:	00003597          	auipc	a1,0x3
   216c4:	f0058593          	addi	a1,a1,-256 # 245c0 <payload_bin+0x4008>
   216c8:	00078513          	mv	a0,a5
   216cc:	260000ef          	jal	ra,2192c <payload_bin+0x1374>
   216d0:	fe842703          	lw	a4,-24(s0)
   216d4:	00003797          	auipc	a5,0x3
   216d8:	fec78793          	addi	a5,a5,-20 # 246c0 <payload_bin+0x4108>
   216dc:	00f70733          	add	a4,a4,a5
   216e0:	00003797          	auipc	a5,0x3
   216e4:	ed878793          	addi	a5,a5,-296 # 245b8 <payload_bin+0x4000>
   216e8:	00e7b023          	sd	a4,0(a5)
   216ec:	fe842703          	lw	a4,-24(s0)
   216f0:	00003797          	auipc	a5,0x3
   216f4:	0d878793          	addi	a5,a5,216 # 247c8 <payload_bin+0x4210>
   216f8:	0007b783          	ld	a5,0(a5)
   216fc:	00f70733          	add	a4,a4,a5
   21700:	00003797          	auipc	a5,0x3
   21704:	0c878793          	addi	a5,a5,200 # 247c8 <payload_bin+0x4210>
   21708:	00e7b023          	sd	a4,0(a5)
   2170c:	00000793          	li	a5,0
   21710:	0680006f          	j	21778 <payload_bin+0x11c0>
   21714:	fe042623          	sw	zero,-20(s0)
   21718:	0400006f          	j	21758 <payload_bin+0x11a0>
   2171c:	00003717          	auipc	a4,0x3
   21720:	ea470713          	addi	a4,a4,-348 # 245c0 <payload_bin+0x4008>
   21724:	fec42783          	lw	a5,-20(s0)
   21728:	00f707b3          	add	a5,a4,a5
   2172c:	0007c783          	lbu	a5,0(a5)
   21730:	0007879b          	sext.w	a5,a5
   21734:	00078513          	mv	a0,a5
   21738:	55d000ef          	jal	ra,22494 <payload_bin+0x1edc>
   2173c:	fec42783          	lw	a5,-20(s0)
   21740:	00078713          	mv	a4,a5
   21744:	10000793          	li	a5,256
   21748:	02e7e463          	bltu	a5,a4,21770 <payload_bin+0x11b8>
   2174c:	fec42783          	lw	a5,-20(s0)
   21750:	0017879b          	addiw	a5,a5,1
   21754:	fef42623          	sw	a5,-20(s0)
   21758:	fec42703          	lw	a4,-20(s0)
   2175c:	fe842783          	lw	a5,-24(s0)
   21760:	0007071b          	sext.w	a4,a4
   21764:	0007879b          	sext.w	a5,a5
   21768:	faf74ae3          	blt	a4,a5,2171c <payload_bin+0x1164>
   2176c:	0080006f          	j	21774 <payload_bin+0x11bc>
   21770:	00000013          	nop
   21774:	fe842783          	lw	a5,-24(s0)
   21778:	00078513          	mv	a0,a5
   2177c:	02813083          	ld	ra,40(sp)
   21780:	02013403          	ld	s0,32(sp)
   21784:	07010113          	addi	sp,sp,112
   21788:	00008067          	ret
   2178c:	fe010113          	addi	sp,sp,-32
   21790:	00813c23          	sd	s0,24(sp)
   21794:	02010413          	addi	s0,sp,32
   21798:	fea43423          	sd	a0,-24(s0)
   2179c:	fffff797          	auipc	a5,0xfffff
   217a0:	e5c78793          	addi	a5,a5,-420 # 205f8 <payload_bin+0x40>
   217a4:	fe843703          	ld	a4,-24(s0)
   217a8:	00f76e63          	bltu	a4,a5,217c4 <payload_bin+0x120c>
   217ac:	00001797          	auipc	a5,0x1
   217b0:	6c078793          	addi	a5,a5,1728 # 22e6c <payload_bin+0x28b4>
   217b4:	fe843703          	ld	a4,-24(s0)
   217b8:	00f77663          	bgeu	a4,a5,217c4 <payload_bin+0x120c>
   217bc:	00100793          	li	a5,1
   217c0:	0080006f          	j	217c8 <payload_bin+0x1210>
   217c4:	00000793          	li	a5,0
   217c8:	00078513          	mv	a0,a5
   217cc:	01813403          	ld	s0,24(sp)
   217d0:	02010113          	addi	sp,sp,32
   217d4:	00008067          	ret
   217d8:	fc010113          	addi	sp,sp,-64
   217dc:	02113c23          	sd	ra,56(sp)
   217e0:	02813823          	sd	s0,48(sp)
   217e4:	04010413          	addi	s0,sp,64
   217e8:	fe243423          	sd	sp,-24(s0)
   217ec:	00000797          	auipc	a5,0x0
   217f0:	fec78793          	addi	a5,a5,-20 # 217d8 <payload_bin+0x1220>
   217f4:	fcf43c23          	sd	a5,-40(s0)
   217f8:	00040793          	mv	a5,s0
   217fc:	fef43023          	sd	a5,-32(s0)
   21800:	fd843503          	ld	a0,-40(s0)
   21804:	f89ff0ef          	jal	ra,2178c <payload_bin+0x11d4>
   21808:	00050793          	mv	a5,a0
   2180c:	08078263          	beqz	a5,21890 <payload_bin+0x12d8>
   21810:	fe843783          	ld	a5,-24(s0)
   21814:	01078793          	addi	a5,a5,16
   21818:	fcf43823          	sd	a5,-48(s0)
   2181c:	fe043703          	ld	a4,-32(s0)
   21820:	fd043783          	ld	a5,-48(s0)
   21824:	06f76863          	bltu	a4,a5,21894 <payload_bin+0x12dc>
   21828:	fe043783          	ld	a5,-32(s0)
   2182c:	00f7f793          	andi	a5,a5,15
   21830:	06079263          	bnez	a5,21894 <payload_bin+0x12dc>
   21834:	fe043783          	ld	a5,-32(s0)
   21838:	ff078793          	addi	a5,a5,-16
   2183c:	fcf43423          	sd	a5,-56(s0)
   21840:	fe043783          	ld	a5,-32(s0)
   21844:	fef43423          	sd	a5,-24(s0)
   21848:	fc843783          	ld	a5,-56(s0)
   2184c:	0007b783          	ld	a5,0(a5)
   21850:	fef43023          	sd	a5,-32(s0)
   21854:	fc843783          	ld	a5,-56(s0)
   21858:	0087b783          	ld	a5,8(a5)
   2185c:	ffc78793          	addi	a5,a5,-4
   21860:	fcf43c23          	sd	a5,-40(s0)
   21864:	fd843503          	ld	a0,-40(s0)
   21868:	f25ff0ef          	jal	ra,2178c <payload_bin+0x11d4>
   2186c:	00050793          	mv	a5,a0
   21870:	f80788e3          	beqz	a5,21800 <payload_bin+0x1248>
   21874:	fd843683          	ld	a3,-40(s0)
   21878:	fe043603          	ld	a2,-32(s0)
   2187c:	fe843583          	ld	a1,-24(s0)
   21880:	00001517          	auipc	a0,0x1
   21884:	71050513          	addi	a0,a0,1808 # 22f90 <payload_bin+0x29d8>
   21888:	dadff0ef          	jal	ra,21634 <payload_bin+0x107c>
   2188c:	f75ff06f          	j	21800 <payload_bin+0x1248>
   21890:	00000013          	nop
   21894:	00000013          	nop
   21898:	03813083          	ld	ra,56(sp)
   2189c:	03013403          	ld	s0,48(sp)
   218a0:	04010113          	addi	sp,sp,64
   218a4:	00008067          	ret
   218a8:	ff010113          	addi	sp,sp,-16
   218ac:	00113423          	sd	ra,8(sp)
   218b0:	00813023          	sd	s0,0(sp)
   218b4:	01010413          	addi	s0,sp,16
   218b8:	00001517          	auipc	a0,0x1
   218bc:	70050513          	addi	a0,a0,1792 # 22fb8 <payload_bin+0x2a00>
   218c0:	d75ff0ef          	jal	ra,21634 <payload_bin+0x107c>
   218c4:	f15ff0ef          	jal	ra,217d8 <payload_bin+0x1220>
   218c8:	00000013          	nop
   218cc:	00813083          	ld	ra,8(sp)
   218d0:	00013403          	ld	s0,0(sp)
   218d4:	01010113          	addi	sp,sp,16
   218d8:	00008067          	ret
   218dc:	fd010113          	addi	sp,sp,-48
   218e0:	02813423          	sd	s0,40(sp)
   218e4:	03010413          	addi	s0,sp,48
   218e8:	fca43c23          	sd	a0,-40(s0)
   218ec:	fd843783          	ld	a5,-40(s0)
   218f0:	fef43423          	sd	a5,-24(s0)
   218f4:	0100006f          	j	21904 <payload_bin+0x134c>
   218f8:	fe843783          	ld	a5,-24(s0)
   218fc:	00178793          	addi	a5,a5,1
   21900:	fef43423          	sd	a5,-24(s0)
   21904:	fe843783          	ld	a5,-24(s0)
   21908:	0007c783          	lbu	a5,0(a5)
   2190c:	fe0796e3          	bnez	a5,218f8 <payload_bin+0x1340>
   21910:	fe843703          	ld	a4,-24(s0)
   21914:	fd843783          	ld	a5,-40(s0)
   21918:	40f707b3          	sub	a5,a4,a5
   2191c:	00078513          	mv	a0,a5
   21920:	02813403          	ld	s0,40(sp)
   21924:	03010113          	addi	sp,sp,48
   21928:	00008067          	ret
   2192c:	fc010113          	addi	sp,sp,-64
   21930:	02813c23          	sd	s0,56(sp)
   21934:	04010413          	addi	s0,sp,64
   21938:	fca43c23          	sd	a0,-40(s0)
   2193c:	fcb43823          	sd	a1,-48(s0)
   21940:	fcc43423          	sd	a2,-56(s0)
   21944:	fd843783          	ld	a5,-40(s0)
   21948:	fef43423          	sd	a5,-24(s0)
   2194c:	fd043783          	ld	a5,-48(s0)
   21950:	fef43023          	sd	a5,-32(s0)
   21954:	0240006f          	j	21978 <payload_bin+0x13c0>
   21958:	fe043703          	ld	a4,-32(s0)
   2195c:	00170793          	addi	a5,a4,1
   21960:	fef43023          	sd	a5,-32(s0)
   21964:	fe843783          	ld	a5,-24(s0)
   21968:	00178693          	addi	a3,a5,1
   2196c:	fed43423          	sd	a3,-24(s0)
   21970:	00074703          	lbu	a4,0(a4)
   21974:	00e78023          	sb	a4,0(a5)
   21978:	fc843783          	ld	a5,-56(s0)
   2197c:	fff78713          	addi	a4,a5,-1
   21980:	fce43423          	sd	a4,-56(s0)
   21984:	fc079ae3          	bnez	a5,21958 <payload_bin+0x13a0>
   21988:	fd843783          	ld	a5,-40(s0)
   2198c:	00078513          	mv	a0,a5
   21990:	03813403          	ld	s0,56(sp)
   21994:	04010113          	addi	sp,sp,64
   21998:	00008067          	ret
   2199c:	fe010113          	addi	sp,sp,-32
   219a0:	00813c23          	sd	s0,24(sp)
   219a4:	02010413          	addi	s0,sp,32
   219a8:	fea43423          	sd	a0,-24(s0)
   219ac:	fe843783          	ld	a5,-24(s0)
   219b0:	0007a783          	lw	a5,0(a5)
   219b4:	0007879b          	sext.w	a5,a5
   219b8:	00078513          	mv	a0,a5
   219bc:	01813403          	ld	s0,24(sp)
   219c0:	02010113          	addi	sp,sp,32
   219c4:	00008067          	ret
   219c8:	fe010113          	addi	sp,sp,-32
   219cc:	00813c23          	sd	s0,24(sp)
   219d0:	02010413          	addi	s0,sp,32
   219d4:	fea43423          	sd	a0,-24(s0)
   219d8:	00058793          	mv	a5,a1
   219dc:	fef42223          	sw	a5,-28(s0)
   219e0:	fe843783          	ld	a5,-24(s0)
   219e4:	fe442703          	lw	a4,-28(s0)
   219e8:	00e7a023          	sw	a4,0(a5)
   219ec:	00000013          	nop
   219f0:	01813403          	ld	s0,24(sp)
   219f4:	02010113          	addi	sp,sp,32
   219f8:	00008067          	ret
   219fc:	fe010113          	addi	sp,sp,-32
   21a00:	00813c23          	sd	s0,24(sp)
   21a04:	02010413          	addi	s0,sp,32
   21a08:	fea43423          	sd	a0,-24(s0)
   21a0c:	fe843783          	ld	a5,-24(s0)
   21a10:	00a79793          	slli	a5,a5,0xa
   21a14:	fef43423          	sd	a5,-24(s0)
   21a18:	00000013          	nop
   21a1c:	fe843783          	ld	a5,-24(s0)
   21a20:	fff78713          	addi	a4,a5,-1
   21a24:	fee43423          	sd	a4,-24(s0)
   21a28:	fe079ae3          	bnez	a5,21a1c <payload_bin+0x1464>
   21a2c:	00000013          	nop
   21a30:	00000013          	nop
   21a34:	01813403          	ld	s0,24(sp)
   21a38:	02010113          	addi	sp,sp,32
   21a3c:	00008067          	ret
   21a40:	fe010113          	addi	sp,sp,-32
   21a44:	00113c23          	sd	ra,24(sp)
   21a48:	00813823          	sd	s0,16(sp)
   21a4c:	02010413          	addi	s0,sp,32
   21a50:	30100593          	li	a1,769
   21a54:	020027b7          	lui	a5,0x2002
   21a58:	d0078513          	addi	a0,a5,-768 # 2001d00 <bss_begin+0x1fdbd00>
   21a5c:	f6dff0ef          	jal	ra,219c8 <payload_bin+0x1410>
   21a60:	00100513          	li	a0,1
   21a64:	f99ff0ef          	jal	ra,219fc <payload_bin+0x1444>
   21a68:	02001537          	lui	a0,0x2001
   21a6c:	f31ff0ef          	jal	ra,2199c <payload_bin+0x13e4>
   21a70:	00050793          	mv	a5,a0
   21a74:	fef42623          	sw	a5,-20(s0)
   21a78:	fec42703          	lw	a4,-20(s0)
   21a7c:	f80007b7          	lui	a5,0xf8000
   21a80:	fff78793          	addi	a5,a5,-1 # fffffffff7ffffff <bss_begin+0xfffffffff7fd9fff>
   21a84:	00f777b3          	and	a5,a4,a5
   21a88:	fef42623          	sw	a5,-20(s0)
   21a8c:	fec42783          	lw	a5,-20(s0)
   21a90:	00078593          	mv	a1,a5
   21a94:	02001537          	lui	a0,0x2001
   21a98:	f31ff0ef          	jal	ra,219c8 <payload_bin+0x1410>
   21a9c:	02001537          	lui	a0,0x2001
   21aa0:	efdff0ef          	jal	ra,2199c <payload_bin+0x13e4>
   21aa4:	00050793          	mv	a5,a0
   21aa8:	fef42623          	sw	a5,-20(s0)
   21aac:	fec42703          	lw	a4,-20(s0)
   21ab0:	400007b7          	lui	a5,0x40000
   21ab4:	00f767b3          	or	a5,a4,a5
   21ab8:	fef42623          	sw	a5,-20(s0)
   21abc:	fec42783          	lw	a5,-20(s0)
   21ac0:	00078593          	mv	a1,a5
   21ac4:	02001537          	lui	a0,0x2001
   21ac8:	f01ff0ef          	jal	ra,219c8 <payload_bin+0x1410>
   21acc:	00500513          	li	a0,5
   21ad0:	f2dff0ef          	jal	ra,219fc <payload_bin+0x1444>
   21ad4:	02001537          	lui	a0,0x2001
   21ad8:	ec5ff0ef          	jal	ra,2199c <payload_bin+0x13e4>
   21adc:	00050793          	mv	a5,a0
   21ae0:	fef42623          	sw	a5,-20(s0)
   21ae4:	fec42703          	lw	a4,-20(s0)
   21ae8:	fffc07b7          	lui	a5,0xfffc0
   21aec:	0fc78793          	addi	a5,a5,252 # fffffffffffc00fc <bss_begin+0xfffffffffff9a0fc>
   21af0:	00f777b3          	and	a5,a4,a5
   21af4:	fef42623          	sw	a5,-20(s0)
   21af8:	fec42703          	lw	a4,-20(s0)
   21afc:	000037b7          	lui	a5,0x3
   21b00:	90078793          	addi	a5,a5,-1792 # 2900 <__bin_size-0x3700>
   21b04:	00f767b3          	or	a5,a4,a5
   21b08:	fef42623          	sw	a5,-20(s0)
   21b0c:	fec42783          	lw	a5,-20(s0)
   21b10:	00078593          	mv	a1,a5
   21b14:	02001537          	lui	a0,0x2001
   21b18:	eb1ff0ef          	jal	ra,219c8 <payload_bin+0x1410>
   21b1c:	02001537          	lui	a0,0x2001
   21b20:	e7dff0ef          	jal	ra,2199c <payload_bin+0x13e4>
   21b24:	00050793          	mv	a5,a0
   21b28:	fef42623          	sw	a5,-20(s0)
   21b2c:	fec42703          	lw	a4,-20(s0)
   21b30:	200007b7          	lui	a5,0x20000
   21b34:	00f767b3          	or	a5,a4,a5
   21b38:	fef42623          	sw	a5,-20(s0)
   21b3c:	fec42783          	lw	a5,-20(s0)
   21b40:	00078593          	mv	a1,a5
   21b44:	02001537          	lui	a0,0x2001
   21b48:	e81ff0ef          	jal	ra,219c8 <payload_bin+0x1410>
   21b4c:	02001537          	lui	a0,0x2001
   21b50:	e4dff0ef          	jal	ra,2199c <payload_bin+0x13e4>
   21b54:	00050793          	mv	a5,a0
   21b58:	fef42623          	sw	a5,-20(s0)
   21b5c:	fec42703          	lw	a4,-20(s0)
   21b60:	800007b7          	lui	a5,0x80000
   21b64:	00f767b3          	or	a5,a4,a5
   21b68:	fef42623          	sw	a5,-20(s0)
   21b6c:	fec42783          	lw	a5,-20(s0)
   21b70:	00078593          	mv	a1,a5
   21b74:	02001537          	lui	a0,0x2001
   21b78:	e51ff0ef          	jal	ra,219c8 <payload_bin+0x1410>
   21b7c:	00000013          	nop
   21b80:	02001537          	lui	a0,0x2001
   21b84:	e19ff0ef          	jal	ra,2199c <payload_bin+0x13e4>
   21b88:	00050793          	mv	a5,a0
   21b8c:	0007879b          	sext.w	a5,a5
   21b90:	00078713          	mv	a4,a5
   21b94:	100007b7          	lui	a5,0x10000
   21b98:	00f777b3          	and	a5,a4,a5
   21b9c:	0007879b          	sext.w	a5,a5
   21ba0:	fe0780e3          	beqz	a5,21b80 <payload_bin+0x15c8>
   21ba4:	01400513          	li	a0,20
   21ba8:	e55ff0ef          	jal	ra,219fc <payload_bin+0x1444>
   21bac:	02001537          	lui	a0,0x2001
   21bb0:	dedff0ef          	jal	ra,2199c <payload_bin+0x13e4>
   21bb4:	00050793          	mv	a5,a0
   21bb8:	fef42623          	sw	a5,-20(s0)
   21bbc:	fec42703          	lw	a4,-20(s0)
   21bc0:	080007b7          	lui	a5,0x8000
   21bc4:	00f767b3          	or	a5,a4,a5
   21bc8:	fef42623          	sw	a5,-20(s0)
   21bcc:	fec42783          	lw	a5,-20(s0)
   21bd0:	00078593          	mv	a1,a5
   21bd4:	02001537          	lui	a0,0x2001
   21bd8:	df1ff0ef          	jal	ra,219c8 <payload_bin+0x1410>
   21bdc:	02001537          	lui	a0,0x2001
   21be0:	dbdff0ef          	jal	ra,2199c <payload_bin+0x13e4>
   21be4:	00050793          	mv	a5,a0
   21be8:	fef42623          	sw	a5,-20(s0)
   21bec:	fec42703          	lw	a4,-20(s0)
   21bf0:	e00007b7          	lui	a5,0xe0000
   21bf4:	fff78793          	addi	a5,a5,-1 # ffffffffdfffffff <bss_begin+0xffffffffdffd9fff>
   21bf8:	00f777b3          	and	a5,a4,a5
   21bfc:	fef42623          	sw	a5,-20(s0)
   21c00:	fec42783          	lw	a5,-20(s0)
   21c04:	00078593          	mv	a1,a5
   21c08:	02001537          	lui	a0,0x2001
   21c0c:	dbdff0ef          	jal	ra,219c8 <payload_bin+0x1410>
   21c10:	00100513          	li	a0,1
   21c14:	de9ff0ef          	jal	ra,219fc <payload_bin+0x1444>
   21c18:	020027b7          	lui	a5,0x2002
   21c1c:	d0078513          	addi	a0,a5,-768 # 2001d00 <bss_begin+0x1fdbd00>
   21c20:	d7dff0ef          	jal	ra,2199c <payload_bin+0x13e4>
   21c24:	00050793          	mv	a5,a0
   21c28:	fef42623          	sw	a5,-20(s0)
   21c2c:	fec42703          	lw	a4,-20(s0)
   21c30:	f90007b7          	lui	a5,0xf9000
   21c34:	cf078793          	addi	a5,a5,-784 # fffffffff8fffcf0 <bss_begin+0xfffffffff8fd9cf0>
   21c38:	00f777b3          	and	a5,a4,a5
   21c3c:	fef42623          	sw	a5,-20(s0)
   21c40:	fec42703          	lw	a4,-20(s0)
   21c44:	050007b7          	lui	a5,0x5000
   21c48:	10078793          	addi	a5,a5,256 # 5000100 <bss_begin+0x4fda100>
   21c4c:	00f767b3          	or	a5,a4,a5
   21c50:	fef42623          	sw	a5,-20(s0)
   21c54:	fec42783          	lw	a5,-20(s0)
   21c58:	00078593          	mv	a1,a5
   21c5c:	020027b7          	lui	a5,0x2002
   21c60:	d0078513          	addi	a0,a5,-768 # 2001d00 <bss_begin+0x1fdbd00>
   21c64:	d65ff0ef          	jal	ra,219c8 <payload_bin+0x1410>
   21c68:	00100513          	li	a0,1
   21c6c:	d91ff0ef          	jal	ra,219fc <payload_bin+0x1444>
   21c70:	00000013          	nop
   21c74:	01813083          	ld	ra,24(sp)
   21c78:	01013403          	ld	s0,16(sp)
   21c7c:	02010113          	addi	sp,sp,32
   21c80:	00008067          	ret
   21c84:	fe010113          	addi	sp,sp,-32
   21c88:	00113c23          	sd	ra,24(sp)
   21c8c:	00813823          	sd	s0,16(sp)
   21c90:	02010413          	addi	s0,sp,32
   21c94:	020017b7          	lui	a5,0x2001
   21c98:	02078513          	addi	a0,a5,32 # 2001020 <bss_begin+0x1fdb020>
   21c9c:	d01ff0ef          	jal	ra,2199c <payload_bin+0x13e4>
   21ca0:	00050793          	mv	a5,a0
   21ca4:	0007879b          	sext.w	a5,a5
   21ca8:	0007879b          	sext.w	a5,a5
   21cac:	1207cc63          	bltz	a5,21de4 <payload_bin+0x182c>
   21cb0:	020017b7          	lui	a5,0x2001
   21cb4:	51078513          	addi	a0,a5,1296 # 2001510 <bss_begin+0x1fdb510>
   21cb8:	ce5ff0ef          	jal	ra,2199c <payload_bin+0x13e4>
   21cbc:	00050793          	mv	a5,a0
   21cc0:	fef42623          	sw	a5,-20(s0)
   21cc4:	fec42703          	lw	a4,-20(s0)
   21cc8:	fd0007b7          	lui	a5,0xfd000
   21ccc:	fff78793          	addi	a5,a5,-1 # fffffffffcffffff <bss_begin+0xfffffffffcfd9fff>
   21cd0:	00f777b3          	and	a5,a4,a5
   21cd4:	fef42623          	sw	a5,-20(s0)
   21cd8:	fec46703          	lwu	a4,-20(s0)
   21cdc:	020017b7          	lui	a5,0x2001
   21ce0:	51078593          	addi	a1,a5,1296 # 2001510 <bss_begin+0x1fdb510>
   21ce4:	00070513          	mv	a0,a4
   21ce8:	ce1ff0ef          	jal	ra,219c8 <payload_bin+0x1410>
   21cec:	000067b7          	lui	a5,0x6
   21cf0:	30078593          	addi	a1,a5,768 # 6300 <__bin_size+0x300>
   21cf4:	020017b7          	lui	a5,0x2001
   21cf8:	02078513          	addi	a0,a5,32 # 2001020 <bss_begin+0x1fdb020>
   21cfc:	ccdff0ef          	jal	ra,219c8 <payload_bin+0x1410>
   21d00:	020017b7          	lui	a5,0x2001
   21d04:	02078513          	addi	a0,a5,32 # 2001020 <bss_begin+0x1fdb020>
   21d08:	c95ff0ef          	jal	ra,2199c <payload_bin+0x13e4>
   21d0c:	00050793          	mv	a5,a0
   21d10:	fef42623          	sw	a5,-20(s0)
   21d14:	fec42703          	lw	a4,-20(s0)
   21d18:	200007b7          	lui	a5,0x20000
   21d1c:	00f767b3          	or	a5,a4,a5
   21d20:	fef42623          	sw	a5,-20(s0)
   21d24:	fec42783          	lw	a5,-20(s0)
   21d28:	00078593          	mv	a1,a5
   21d2c:	020017b7          	lui	a5,0x2001
   21d30:	02078513          	addi	a0,a5,32 # 2001020 <bss_begin+0x1fdb020>
   21d34:	c95ff0ef          	jal	ra,219c8 <payload_bin+0x1410>
   21d38:	020017b7          	lui	a5,0x2001
   21d3c:	02078513          	addi	a0,a5,32 # 2001020 <bss_begin+0x1fdb020>
   21d40:	c5dff0ef          	jal	ra,2199c <payload_bin+0x13e4>
   21d44:	00050793          	mv	a5,a0
   21d48:	fef42623          	sw	a5,-20(s0)
   21d4c:	fec42703          	lw	a4,-20(s0)
   21d50:	800007b7          	lui	a5,0x80000
   21d54:	00f767b3          	or	a5,a4,a5
   21d58:	fef42623          	sw	a5,-20(s0)
   21d5c:	fec42783          	lw	a5,-20(s0)
   21d60:	00078593          	mv	a1,a5
   21d64:	020017b7          	lui	a5,0x2001
   21d68:	02078513          	addi	a0,a5,32 # 2001020 <bss_begin+0x1fdb020>
   21d6c:	c5dff0ef          	jal	ra,219c8 <payload_bin+0x1410>
   21d70:	00000013          	nop
   21d74:	020017b7          	lui	a5,0x2001
   21d78:	02078513          	addi	a0,a5,32 # 2001020 <bss_begin+0x1fdb020>
   21d7c:	c21ff0ef          	jal	ra,2199c <payload_bin+0x13e4>
   21d80:	00050793          	mv	a5,a0
   21d84:	0007879b          	sext.w	a5,a5
   21d88:	00078713          	mv	a4,a5
   21d8c:	100007b7          	lui	a5,0x10000
   21d90:	00f777b3          	and	a5,a4,a5
   21d94:	0007879b          	sext.w	a5,a5
   21d98:	fc078ee3          	beqz	a5,21d74 <payload_bin+0x17bc>
   21d9c:	01400513          	li	a0,20
   21da0:	c5dff0ef          	jal	ra,219fc <payload_bin+0x1444>
   21da4:	020017b7          	lui	a5,0x2001
   21da8:	02078513          	addi	a0,a5,32 # 2001020 <bss_begin+0x1fdb020>
   21dac:	bf1ff0ef          	jal	ra,2199c <payload_bin+0x13e4>
   21db0:	00050793          	mv	a5,a0
   21db4:	fef42623          	sw	a5,-20(s0)
   21db8:	fec42703          	lw	a4,-20(s0)
   21dbc:	e00007b7          	lui	a5,0xe0000
   21dc0:	fff78793          	addi	a5,a5,-1 # ffffffffdfffffff <bss_begin+0xffffffffdffd9fff>
   21dc4:	00f777b3          	and	a5,a4,a5
   21dc8:	fef42623          	sw	a5,-20(s0)
   21dcc:	fec42783          	lw	a5,-20(s0)
   21dd0:	00078593          	mv	a1,a5
   21dd4:	020017b7          	lui	a5,0x2001
   21dd8:	02078513          	addi	a0,a5,32 # 2001020 <bss_begin+0x1fdb020>
   21ddc:	bedff0ef          	jal	ra,219c8 <payload_bin+0x1410>
   21de0:	0080006f          	j	21de8 <payload_bin+0x1830>
   21de4:	00000013          	nop
   21de8:	01813083          	ld	ra,24(sp)
   21dec:	01013403          	ld	s0,16(sp)
   21df0:	02010113          	addi	sp,sp,32
   21df4:	00008067          	ret
   21df8:	ff010113          	addi	sp,sp,-16
   21dfc:	00113423          	sd	ra,8(sp)
   21e00:	00813023          	sd	s0,0(sp)
   21e04:	01010413          	addi	s0,sp,16
   21e08:	00200593          	li	a1,2
   21e0c:	020017b7          	lui	a5,0x2001
   21e10:	51078513          	addi	a0,a5,1296 # 2001510 <bss_begin+0x1fdb510>
   21e14:	bb5ff0ef          	jal	ra,219c8 <payload_bin+0x1410>
   21e18:	020017b7          	lui	a5,0x2001
   21e1c:	51078513          	addi	a0,a5,1296 # 2001510 <bss_begin+0x1fdb510>
   21e20:	b7dff0ef          	jal	ra,2199c <payload_bin+0x13e4>
   21e24:	00050793          	mv	a5,a0
   21e28:	0007879b          	sext.w	a5,a5
   21e2c:	00078713          	mv	a4,a5
   21e30:	030007b7          	lui	a5,0x3000
   21e34:	00f767b3          	or	a5,a4,a5
   21e38:	0007879b          	sext.w	a5,a5
   21e3c:	00078593          	mv	a1,a5
   21e40:	020017b7          	lui	a5,0x2001
   21e44:	51078513          	addi	a0,a5,1296 # 2001510 <bss_begin+0x1fdb510>
   21e48:	b81ff0ef          	jal	ra,219c8 <payload_bin+0x1410>
   21e4c:	00100513          	li	a0,1
   21e50:	badff0ef          	jal	ra,219fc <payload_bin+0x1444>
   21e54:	00000013          	nop
   21e58:	00813083          	ld	ra,8(sp)
   21e5c:	00013403          	ld	s0,0(sp)
   21e60:	01010113          	addi	sp,sp,16
   21e64:	00008067          	ret
   21e68:	ff010113          	addi	sp,sp,-16
   21e6c:	00113423          	sd	ra,8(sp)
   21e70:	00813023          	sd	s0,0(sp)
   21e74:	01010413          	addi	s0,sp,16
   21e78:	10200593          	li	a1,258
   21e7c:	020017b7          	lui	a5,0x2001
   21e80:	52078513          	addi	a0,a5,1312 # 2001520 <bss_begin+0x1fdb520>
   21e84:	b45ff0ef          	jal	ra,219c8 <payload_bin+0x1410>
   21e88:	020017b7          	lui	a5,0x2001
   21e8c:	52078513          	addi	a0,a5,1312 # 2001520 <bss_begin+0x1fdb520>
   21e90:	b0dff0ef          	jal	ra,2199c <payload_bin+0x13e4>
   21e94:	00050793          	mv	a5,a0
   21e98:	0007879b          	sext.w	a5,a5
   21e9c:	00078713          	mv	a4,a5
   21ea0:	030007b7          	lui	a5,0x3000
   21ea4:	00f767b3          	or	a5,a4,a5
   21ea8:	0007879b          	sext.w	a5,a5
   21eac:	00078593          	mv	a1,a5
   21eb0:	020017b7          	lui	a5,0x2001
   21eb4:	52078513          	addi	a0,a5,1312 # 2001520 <bss_begin+0x1fdb520>
   21eb8:	b11ff0ef          	jal	ra,219c8 <payload_bin+0x1410>
   21ebc:	00100513          	li	a0,1
   21ec0:	b3dff0ef          	jal	ra,219fc <payload_bin+0x1444>
   21ec4:	00000013          	nop
   21ec8:	00813083          	ld	ra,8(sp)
   21ecc:	00013403          	ld	s0,0(sp)
   21ed0:	01010113          	addi	sp,sp,16
   21ed4:	00008067          	ret
   21ed8:	ff010113          	addi	sp,sp,-16
   21edc:	00113423          	sd	ra,8(sp)
   21ee0:	00813023          	sd	s0,0(sp)
   21ee4:	01010413          	addi	s0,sp,16
   21ee8:	020017b7          	lui	a5,0x2001
   21eec:	70c78513          	addi	a0,a5,1804 # 200170c <bss_begin+0x1fdb70c>
   21ef0:	aadff0ef          	jal	ra,2199c <payload_bin+0x13e4>
   21ef4:	00050793          	mv	a5,a0
   21ef8:	0007879b          	sext.w	a5,a5
   21efc:	00078713          	mv	a4,a5
   21f00:	000107b7          	lui	a5,0x10
   21f04:	00f767b3          	or	a5,a4,a5
   21f08:	0007879b          	sext.w	a5,a5
   21f0c:	00078593          	mv	a1,a5
   21f10:	020017b7          	lui	a5,0x2001
   21f14:	70c78513          	addi	a0,a5,1804 # 200170c <bss_begin+0x1fdb70c>
   21f18:	ab1ff0ef          	jal	ra,219c8 <payload_bin+0x1410>
   21f1c:	01400513          	li	a0,20
   21f20:	addff0ef          	jal	ra,219fc <payload_bin+0x1444>
   21f24:	020017b7          	lui	a5,0x2001
   21f28:	70c78513          	addi	a0,a5,1804 # 200170c <bss_begin+0x1fdb70c>
   21f2c:	a71ff0ef          	jal	ra,2199c <payload_bin+0x13e4>
   21f30:	00050793          	mv	a5,a0
   21f34:	0007879b          	sext.w	a5,a5
   21f38:	0017e793          	ori	a5,a5,1
   21f3c:	0007879b          	sext.w	a5,a5
   21f40:	00078593          	mv	a1,a5
   21f44:	020017b7          	lui	a5,0x2001
   21f48:	70c78513          	addi	a0,a5,1804 # 200170c <bss_begin+0x1fdb70c>
   21f4c:	a7dff0ef          	jal	ra,219c8 <payload_bin+0x1410>
   21f50:	00000013          	nop
   21f54:	00813083          	ld	ra,8(sp)
   21f58:	00013403          	ld	s0,0(sp)
   21f5c:	01010113          	addi	sp,sp,16
   21f60:	00008067          	ret
   21f64:	fe010113          	addi	sp,sp,-32
   21f68:	00113c23          	sd	ra,24(sp)
   21f6c:	00813823          	sd	s0,16(sp)
   21f70:	02010413          	addi	s0,sp,32
   21f74:	020017b7          	lui	a5,0x2001
   21f78:	54078513          	addi	a0,a5,1344 # 2001540 <bss_begin+0x1fdb540>
   21f7c:	a21ff0ef          	jal	ra,2199c <payload_bin+0x13e4>
   21f80:	00050793          	mv	a5,a0
   21f84:	fef42623          	sw	a5,-20(s0)
   21f88:	fec42703          	lw	a4,-20(s0)
   21f8c:	400007b7          	lui	a5,0x40000
   21f90:	00f767b3          	or	a5,a4,a5
   21f94:	fef42623          	sw	a5,-20(s0)
   21f98:	fec42783          	lw	a5,-20(s0)
   21f9c:	00078593          	mv	a1,a5
   21fa0:	020017b7          	lui	a5,0x2001
   21fa4:	54078513          	addi	a0,a5,1344 # 2001540 <bss_begin+0x1fdb540>
   21fa8:	a21ff0ef          	jal	ra,219c8 <payload_bin+0x1410>
   21fac:	00100513          	li	a0,1
   21fb0:	a4dff0ef          	jal	ra,219fc <payload_bin+0x1444>
   21fb4:	00000013          	nop
   21fb8:	01813083          	ld	ra,24(sp)
   21fbc:	01013403          	ld	s0,16(sp)
   21fc0:	02010113          	addi	sp,sp,32
   21fc4:	00008067          	ret
   21fc8:	fd010113          	addi	sp,sp,-48
   21fcc:	02113423          	sd	ra,40(sp)
   21fd0:	02813023          	sd	s0,32(sp)
   21fd4:	03010413          	addi	s0,sp,48
   21fd8:	fca43c23          	sd	a0,-40(s0)
   21fdc:	fd843503          	ld	a0,-40(s0)
   21fe0:	9bdff0ef          	jal	ra,2199c <payload_bin+0x13e4>
   21fe4:	00050793          	mv	a5,a0
   21fe8:	0007879b          	sext.w	a5,a5
   21fec:	0007879b          	sext.w	a5,a5
   21ff0:	0c07c263          	bltz	a5,220b4 <payload_bin+0x1afc>
   21ff4:	fd843503          	ld	a0,-40(s0)
   21ff8:	9a5ff0ef          	jal	ra,2199c <payload_bin+0x13e4>
   21ffc:	00050793          	mv	a5,a0
   22000:	fef42623          	sw	a5,-20(s0)
   22004:	fec42703          	lw	a4,-20(s0)
   22008:	c00007b7          	lui	a5,0xc0000
   2200c:	00f767b3          	or	a5,a4,a5
   22010:	0007879b          	sext.w	a5,a5
   22014:	00078593          	mv	a1,a5
   22018:	fd843503          	ld	a0,-40(s0)
   2201c:	9adff0ef          	jal	ra,219c8 <payload_bin+0x1410>
   22020:	fd843503          	ld	a0,-40(s0)
   22024:	979ff0ef          	jal	ra,2199c <payload_bin+0x13e4>
   22028:	00050793          	mv	a5,a0
   2202c:	fef42623          	sw	a5,-20(s0)
   22030:	fec42703          	lw	a4,-20(s0)
   22034:	200007b7          	lui	a5,0x20000
   22038:	00f767b3          	or	a5,a4,a5
   2203c:	fef42623          	sw	a5,-20(s0)
   22040:	fec42783          	lw	a5,-20(s0)
   22044:	00078593          	mv	a1,a5
   22048:	fd843503          	ld	a0,-40(s0)
   2204c:	97dff0ef          	jal	ra,219c8 <payload_bin+0x1410>
   22050:	00000013          	nop
   22054:	fd843503          	ld	a0,-40(s0)
   22058:	945ff0ef          	jal	ra,2199c <payload_bin+0x13e4>
   2205c:	00050793          	mv	a5,a0
   22060:	0007879b          	sext.w	a5,a5
   22064:	00078713          	mv	a4,a5
   22068:	100007b7          	lui	a5,0x10000
   2206c:	00f777b3          	and	a5,a4,a5
   22070:	0007879b          	sext.w	a5,a5
   22074:	fe0780e3          	beqz	a5,22054 <payload_bin+0x1a9c>
   22078:	01400513          	li	a0,20
   2207c:	981ff0ef          	jal	ra,219fc <payload_bin+0x1444>
   22080:	fd843503          	ld	a0,-40(s0)
   22084:	919ff0ef          	jal	ra,2199c <payload_bin+0x13e4>
   22088:	00050793          	mv	a5,a0
   2208c:	fef42623          	sw	a5,-20(s0)
   22090:	fec42703          	lw	a4,-20(s0)
   22094:	e00007b7          	lui	a5,0xe0000
   22098:	fff78793          	addi	a5,a5,-1 # ffffffffdfffffff <bss_begin+0xffffffffdffd9fff>
   2209c:	00f777b3          	and	a5,a4,a5
   220a0:	fef42623          	sw	a5,-20(s0)
   220a4:	fec42783          	lw	a5,-20(s0)
   220a8:	00078593          	mv	a1,a5
   220ac:	fd843503          	ld	a0,-40(s0)
   220b0:	919ff0ef          	jal	ra,219c8 <payload_bin+0x1410>
   220b4:	00000013          	nop
   220b8:	02813083          	ld	ra,40(sp)
   220bc:	02013403          	ld	s0,32(sp)
   220c0:	03010113          	addi	sp,sp,48
   220c4:	00008067          	ret
   220c8:	ff010113          	addi	sp,sp,-16
   220cc:	00113423          	sd	ra,8(sp)
   220d0:	00813023          	sd	s0,0(sp)
   220d4:	01010413          	addi	s0,sp,16
   220d8:	969ff0ef          	jal	ra,21a40 <payload_bin+0x1488>
   220dc:	ba9ff0ef          	jal	ra,21c84 <payload_bin+0x16cc>
   220e0:	d19ff0ef          	jal	ra,21df8 <payload_bin+0x1840>
   220e4:	d85ff0ef          	jal	ra,21e68 <payload_bin+0x18b0>
   220e8:	df1ff0ef          	jal	ra,21ed8 <payload_bin+0x1920>
   220ec:	e79ff0ef          	jal	ra,21f64 <payload_bin+0x19ac>
   220f0:	020017b7          	lui	a5,0x2001
   220f4:	02078513          	addi	a0,a5,32 # 2001020 <bss_begin+0x1fdb020>
   220f8:	ed1ff0ef          	jal	ra,21fc8 <payload_bin+0x1a10>
   220fc:	020017b7          	lui	a5,0x2001
   22100:	04078513          	addi	a0,a5,64 # 2001040 <bss_begin+0x1fdb040>
   22104:	ec5ff0ef          	jal	ra,21fc8 <payload_bin+0x1a10>
   22108:	020017b7          	lui	a5,0x2001
   2210c:	04878513          	addi	a0,a5,72 # 2001048 <bss_begin+0x1fdb048>
   22110:	eb9ff0ef          	jal	ra,21fc8 <payload_bin+0x1a10>
   22114:	020017b7          	lui	a5,0x2001
   22118:	05878513          	addi	a0,a5,88 # 2001058 <bss_begin+0x1fdb058>
   2211c:	eadff0ef          	jal	ra,21fc8 <payload_bin+0x1a10>
   22120:	020017b7          	lui	a5,0x2001
   22124:	07878513          	addi	a0,a5,120 # 2001078 <bss_begin+0x1fdb078>
   22128:	ea1ff0ef          	jal	ra,21fc8 <payload_bin+0x1a10>
   2212c:	020017b7          	lui	a5,0x2001
   22130:	08078513          	addi	a0,a5,128 # 2001080 <bss_begin+0x1fdb080>
   22134:	e95ff0ef          	jal	ra,21fc8 <payload_bin+0x1a10>
   22138:	00000013          	nop
   2213c:	00813083          	ld	ra,8(sp)
   22140:	00013403          	ld	s0,0(sp)
   22144:	01010113          	addi	sp,sp,16
   22148:	00008067          	ret
   2214c:	fe010113          	addi	sp,sp,-32
   22150:	00813c23          	sd	s0,24(sp)
   22154:	02010413          	addi	s0,sp,32
   22158:	fea43423          	sd	a0,-24(s0)
   2215c:	fe843783          	ld	a5,-24(s0)
   22160:	0007c783          	lbu	a5,0(a5)
   22164:	0ff7f793          	andi	a5,a5,255
   22168:	00078513          	mv	a0,a5
   2216c:	01813403          	ld	s0,24(sp)
   22170:	02010113          	addi	sp,sp,32
   22174:	00008067          	ret
   22178:	fe010113          	addi	sp,sp,-32
   2217c:	00813c23          	sd	s0,24(sp)
   22180:	02010413          	addi	s0,sp,32
   22184:	fea43423          	sd	a0,-24(s0)
   22188:	fe843783          	ld	a5,-24(s0)
   2218c:	0007a783          	lw	a5,0(a5)
   22190:	0007879b          	sext.w	a5,a5
   22194:	00078513          	mv	a0,a5
   22198:	01813403          	ld	s0,24(sp)
   2219c:	02010113          	addi	sp,sp,32
   221a0:	00008067          	ret
   221a4:	fe010113          	addi	sp,sp,-32
   221a8:	00813c23          	sd	s0,24(sp)
   221ac:	02010413          	addi	s0,sp,32
   221b0:	fea43423          	sd	a0,-24(s0)
   221b4:	00058793          	mv	a5,a1
   221b8:	fef42223          	sw	a5,-28(s0)
   221bc:	fe843783          	ld	a5,-24(s0)
   221c0:	fe442703          	lw	a4,-28(s0)
   221c4:	00e7a023          	sw	a4,0(a5)
   221c8:	00000013          	nop
   221cc:	01813403          	ld	s0,24(sp)
   221d0:	02010113          	addi	sp,sp,32
   221d4:	00008067          	ret
   221d8:	fe010113          	addi	sp,sp,-32
   221dc:	00113c23          	sd	ra,24(sp)
   221e0:	00813823          	sd	s0,16(sp)
   221e4:	02010413          	addi	s0,sp,32
   221e8:	020007b7          	lui	a5,0x2000
   221ec:	0f078793          	addi	a5,a5,240 # 20000f0 <bss_begin+0x1fda0f0>
   221f0:	fef43423          	sd	a5,-24(s0)
   221f4:	fe843503          	ld	a0,-24(s0)
   221f8:	f81ff0ef          	jal	ra,22178 <payload_bin+0x1bc0>
   221fc:	00050793          	mv	a5,a0
   22200:	fef42223          	sw	a5,-28(s0)
   22204:	fe442703          	lw	a4,-28(s0)
   22208:	fffff7b7          	lui	a5,0xfffff
   2220c:	0ff78793          	addi	a5,a5,255 # fffffffffffff0ff <bss_begin+0xfffffffffffd90ff>
   22210:	00f777b3          	and	a5,a4,a5
   22214:	fef42223          	sw	a5,-28(s0)
   22218:	fe442783          	lw	a5,-28(s0)
   2221c:	3007e793          	ori	a5,a5,768
   22220:	fef42223          	sw	a5,-28(s0)
   22224:	fe442783          	lw	a5,-28(s0)
   22228:	00078593          	mv	a1,a5
   2222c:	fe843503          	ld	a0,-24(s0)
   22230:	f75ff0ef          	jal	ra,221a4 <payload_bin+0x1bec>
   22234:	fe843503          	ld	a0,-24(s0)
   22238:	f41ff0ef          	jal	ra,22178 <payload_bin+0x1bc0>
   2223c:	00050793          	mv	a5,a0
   22240:	fef42223          	sw	a5,-28(s0)
   22244:	fe442703          	lw	a4,-28(s0)
   22248:	fff107b7          	lui	a5,0xfff10
   2224c:	fff78793          	addi	a5,a5,-1 # fffffffffff0ffff <bss_begin+0xffffffffffee9fff>
   22250:	00f777b3          	and	a5,a4,a5
   22254:	fef42223          	sw	a5,-28(s0)
   22258:	fe442703          	lw	a4,-28(s0)
   2225c:	000307b7          	lui	a5,0x30
   22260:	00f767b3          	or	a5,a4,a5
   22264:	fef42223          	sw	a5,-28(s0)
   22268:	fe442783          	lw	a5,-28(s0)
   2226c:	00078593          	mv	a1,a5
   22270:	fe843503          	ld	a0,-24(s0)
   22274:	f31ff0ef          	jal	ra,221a4 <payload_bin+0x1bec>
   22278:	020027b7          	lui	a5,0x2002
   2227c:	90c78793          	addi	a5,a5,-1780 # 200190c <bss_begin+0x1fdb90c>
   22280:	fef43423          	sd	a5,-24(s0)
   22284:	fe843503          	ld	a0,-24(s0)
   22288:	ef1ff0ef          	jal	ra,22178 <payload_bin+0x1bc0>
   2228c:	00050793          	mv	a5,a0
   22290:	fef42223          	sw	a5,-28(s0)
   22294:	fe442783          	lw	a5,-28(s0)
   22298:	0017e793          	ori	a5,a5,1
   2229c:	fef42223          	sw	a5,-28(s0)
   222a0:	fe442783          	lw	a5,-28(s0)
   222a4:	00078593          	mv	a1,a5
   222a8:	fe843503          	ld	a0,-24(s0)
   222ac:	ef9ff0ef          	jal	ra,221a4 <payload_bin+0x1bec>
   222b0:	020027b7          	lui	a5,0x2002
   222b4:	90c78793          	addi	a5,a5,-1780 # 200190c <bss_begin+0x1fdb90c>
   222b8:	fef43423          	sd	a5,-24(s0)
   222bc:	fe843503          	ld	a0,-24(s0)
   222c0:	eb9ff0ef          	jal	ra,22178 <payload_bin+0x1bc0>
   222c4:	00050793          	mv	a5,a0
   222c8:	fef42223          	sw	a5,-28(s0)
   222cc:	fe442703          	lw	a4,-28(s0)
   222d0:	000107b7          	lui	a5,0x10
   222d4:	00f767b3          	or	a5,a4,a5
   222d8:	fef42223          	sw	a5,-28(s0)
   222dc:	fe442783          	lw	a5,-28(s0)
   222e0:	00078593          	mv	a1,a5
   222e4:	fe843503          	ld	a0,-24(s0)
   222e8:	ebdff0ef          	jal	ra,221a4 <payload_bin+0x1bec>
   222ec:	025007b7          	lui	a5,0x2500
   222f0:	fef43423          	sd	a5,-24(s0)
   222f4:	fe843783          	ld	a5,-24(s0)
   222f8:	00478793          	addi	a5,a5,4 # 2500004 <bss_begin+0x24da004>
   222fc:	00000593          	li	a1,0
   22300:	00078513          	mv	a0,a5
   22304:	ea1ff0ef          	jal	ra,221a4 <payload_bin+0x1bec>
   22308:	fe843783          	ld	a5,-24(s0)
   2230c:	00878793          	addi	a5,a5,8
   22310:	0f700593          	li	a1,247
   22314:	00078513          	mv	a0,a5
   22318:	e8dff0ef          	jal	ra,221a4 <payload_bin+0x1bec>
   2231c:	fe843783          	ld	a5,-24(s0)
   22320:	01078793          	addi	a5,a5,16
   22324:	00000593          	li	a1,0
   22328:	00078513          	mv	a0,a5
   2232c:	e79ff0ef          	jal	ra,221a4 <payload_bin+0x1bec>
   22330:	fe843783          	ld	a5,-24(s0)
   22334:	00c78793          	addi	a5,a5,12
   22338:	00078513          	mv	a0,a5
   2233c:	e3dff0ef          	jal	ra,22178 <payload_bin+0x1bc0>
   22340:	00050793          	mv	a5,a0
   22344:	fef42223          	sw	a5,-28(s0)
   22348:	fe442783          	lw	a5,-28(s0)
   2234c:	0807e793          	ori	a5,a5,128
   22350:	fef42223          	sw	a5,-28(s0)
   22354:	fe843783          	ld	a5,-24(s0)
   22358:	00c78793          	addi	a5,a5,12
   2235c:	fe442703          	lw	a4,-28(s0)
   22360:	00070593          	mv	a1,a4
   22364:	00078513          	mv	a0,a5
   22368:	e3dff0ef          	jal	ra,221a4 <payload_bin+0x1bec>
   2236c:	00d00593          	li	a1,13
   22370:	fe843503          	ld	a0,-24(s0)
   22374:	e31ff0ef          	jal	ra,221a4 <payload_bin+0x1bec>
   22378:	fe843783          	ld	a5,-24(s0)
   2237c:	00478793          	addi	a5,a5,4
   22380:	00000593          	li	a1,0
   22384:	00078513          	mv	a0,a5
   22388:	e1dff0ef          	jal	ra,221a4 <payload_bin+0x1bec>
   2238c:	fe843783          	ld	a5,-24(s0)
   22390:	00c78793          	addi	a5,a5,12
   22394:	00078513          	mv	a0,a5
   22398:	de1ff0ef          	jal	ra,22178 <payload_bin+0x1bc0>
   2239c:	00050793          	mv	a5,a0
   223a0:	fef42223          	sw	a5,-28(s0)
   223a4:	fe442783          	lw	a5,-28(s0)
   223a8:	f7f7f793          	andi	a5,a5,-129
   223ac:	fef42223          	sw	a5,-28(s0)
   223b0:	fe843783          	ld	a5,-24(s0)
   223b4:	00c78793          	addi	a5,a5,12
   223b8:	fe442703          	lw	a4,-28(s0)
   223bc:	00070593          	mv	a1,a4
   223c0:	00078513          	mv	a0,a5
   223c4:	de1ff0ef          	jal	ra,221a4 <payload_bin+0x1bec>
   223c8:	fe843783          	ld	a5,-24(s0)
   223cc:	00c78793          	addi	a5,a5,12
   223d0:	00078513          	mv	a0,a5
   223d4:	da5ff0ef          	jal	ra,22178 <payload_bin+0x1bc0>
   223d8:	00050793          	mv	a5,a0
   223dc:	fef42223          	sw	a5,-28(s0)
   223e0:	fe442783          	lw	a5,-28(s0)
   223e4:	fe07f793          	andi	a5,a5,-32
   223e8:	fef42223          	sw	a5,-28(s0)
   223ec:	fe442783          	lw	a5,-28(s0)
   223f0:	0037e793          	ori	a5,a5,3
   223f4:	fef42223          	sw	a5,-28(s0)
   223f8:	fe843783          	ld	a5,-24(s0)
   223fc:	00c78793          	addi	a5,a5,12
   22400:	fe442703          	lw	a4,-28(s0)
   22404:	00070593          	mv	a1,a4
   22408:	00078513          	mv	a0,a5
   2240c:	d99ff0ef          	jal	ra,221a4 <payload_bin+0x1bec>
   22410:	00000013          	nop
   22414:	01813083          	ld	ra,24(sp)
   22418:	01013403          	ld	s0,16(sp)
   2241c:	02010113          	addi	sp,sp,32
   22420:	00008067          	ret
   22424:	fd010113          	addi	sp,sp,-48
   22428:	02113423          	sd	ra,40(sp)
   2242c:	02813023          	sd	s0,32(sp)
   22430:	03010413          	addi	s0,sp,48
   22434:	00050793          	mv	a5,a0
   22438:	fcf40fa3          	sb	a5,-33(s0)
   2243c:	025007b7          	lui	a5,0x2500
   22440:	fef43423          	sd	a5,-24(s0)
   22444:	00000013          	nop
   22448:	fe843783          	ld	a5,-24(s0)
   2244c:	07c78793          	addi	a5,a5,124 # 250007c <bss_begin+0x24da07c>
   22450:	00078513          	mv	a0,a5
   22454:	d25ff0ef          	jal	ra,22178 <payload_bin+0x1bc0>
   22458:	00050793          	mv	a5,a0
   2245c:	0007879b          	sext.w	a5,a5
   22460:	0027f793          	andi	a5,a5,2
   22464:	0007879b          	sext.w	a5,a5
   22468:	fe0780e3          	beqz	a5,22448 <payload_bin+0x1e90>
   2246c:	fdf44783          	lbu	a5,-33(s0)
   22470:	0007879b          	sext.w	a5,a5
   22474:	00078593          	mv	a1,a5
   22478:	fe843503          	ld	a0,-24(s0)
   2247c:	d29ff0ef          	jal	ra,221a4 <payload_bin+0x1bec>
   22480:	00000013          	nop
   22484:	02813083          	ld	ra,40(sp)
   22488:	02013403          	ld	s0,32(sp)
   2248c:	03010113          	addi	sp,sp,48
   22490:	00008067          	ret
   22494:	fe010113          	addi	sp,sp,-32
   22498:	00113c23          	sd	ra,24(sp)
   2249c:	00813823          	sd	s0,16(sp)
   224a0:	02010413          	addi	s0,sp,32
   224a4:	00050793          	mv	a5,a0
   224a8:	fef42623          	sw	a5,-20(s0)
   224ac:	fec42783          	lw	a5,-20(s0)
   224b0:	0ff7f793          	andi	a5,a5,255
   224b4:	00078513          	mv	a0,a5
   224b8:	f6dff0ef          	jal	ra,22424 <payload_bin+0x1e6c>
   224bc:	fec42783          	lw	a5,-20(s0)
   224c0:	00078513          	mv	a0,a5
   224c4:	01813083          	ld	ra,24(sp)
   224c8:	01013403          	ld	s0,16(sp)
   224cc:	02010113          	addi	sp,sp,32
   224d0:	00008067          	ret
   224d4:	fe010113          	addi	sp,sp,-32
   224d8:	00113c23          	sd	ra,24(sp)
   224dc:	00813823          	sd	s0,16(sp)
   224e0:	02010413          	addi	s0,sp,32
   224e4:	025007b7          	lui	a5,0x2500
   224e8:	fef43423          	sd	a5,-24(s0)
   224ec:	00000013          	nop
   224f0:	fe843783          	ld	a5,-24(s0)
   224f4:	07c78793          	addi	a5,a5,124 # 250007c <bss_begin+0x24da07c>
   224f8:	00078513          	mv	a0,a5
   224fc:	c7dff0ef          	jal	ra,22178 <payload_bin+0x1bc0>
   22500:	00050793          	mv	a5,a0
   22504:	0007879b          	sext.w	a5,a5
   22508:	0087f793          	andi	a5,a5,8
   2250c:	0007879b          	sext.w	a5,a5
   22510:	fe0780e3          	beqz	a5,224f0 <payload_bin+0x1f38>
   22514:	fe843503          	ld	a0,-24(s0)
   22518:	c35ff0ef          	jal	ra,2214c <payload_bin+0x1b94>
   2251c:	00050793          	mv	a5,a0
   22520:	00078513          	mv	a0,a5
   22524:	01813083          	ld	ra,24(sp)
   22528:	01013403          	ld	s0,16(sp)
   2252c:	02010113          	addi	sp,sp,32
   22530:	00008067          	ret
   22534:	fd010113          	addi	sp,sp,-48
   22538:	02113423          	sd	ra,40(sp)
   2253c:	02813023          	sd	s0,32(sp)
   22540:	03010413          	addi	s0,sp,48
   22544:	fca43c23          	sd	a0,-40(s0)
   22548:	fe042623          	sw	zero,-20(s0)
   2254c:	0280006f          	j	22574 <payload_bin+0x1fbc>
   22550:	fec42783          	lw	a5,-20(s0)
   22554:	fd843703          	ld	a4,-40(s0)
   22558:	00f707b3          	add	a5,a4,a5
   2255c:	0007c783          	lbu	a5,0(a5)
   22560:	00078513          	mv	a0,a5
   22564:	ec1ff0ef          	jal	ra,22424 <payload_bin+0x1e6c>
   22568:	fec42783          	lw	a5,-20(s0)
   2256c:	0017879b          	addiw	a5,a5,1
   22570:	fef42623          	sw	a5,-20(s0)
   22574:	fec42783          	lw	a5,-20(s0)
   22578:	fd843703          	ld	a4,-40(s0)
   2257c:	00f707b3          	add	a5,a4,a5
   22580:	0007c783          	lbu	a5,0(a5)
   22584:	fc0796e3          	bnez	a5,22550 <payload_bin+0x1f98>
   22588:	00000013          	nop
   2258c:	00000013          	nop
   22590:	02813083          	ld	ra,40(sp)
   22594:	02013403          	ld	s0,32(sp)
   22598:	03010113          	addi	sp,sp,48
   2259c:	00008067          	ret
   225a0:	fc010113          	addi	sp,sp,-64
   225a4:	02813c23          	sd	s0,56(sp)
   225a8:	04010413          	addi	s0,sp,64
   225ac:	fca43423          	sd	a0,-56(s0)
   225b0:	fcb43023          	sd	a1,-64(s0)
   225b4:	fe042223          	sw	zero,-28(s0)
   225b8:	fc843783          	ld	a5,-56(s0)
   225bc:	fef43423          	sd	a5,-24(s0)
   225c0:	0900006f          	j	22650 <payload_bin+0x2098>
   225c4:	fe843783          	ld	a5,-24(s0)
   225c8:	0007c783          	lbu	a5,0(a5)
   225cc:	00078713          	mv	a4,a5
   225d0:	02f00793          	li	a5,47
   225d4:	02e7f063          	bgeu	a5,a4,225f4 <payload_bin+0x203c>
   225d8:	fe843783          	ld	a5,-24(s0)
   225dc:	0007c783          	lbu	a5,0(a5)
   225e0:	00078713          	mv	a4,a5
   225e4:	03900793          	li	a5,57
   225e8:	00e7e663          	bltu	a5,a4,225f4 <payload_bin+0x203c>
   225ec:	00100793          	li	a5,1
   225f0:	0080006f          	j	225f8 <payload_bin+0x2040>
   225f4:	00000793          	li	a5,0
   225f8:	fef42023          	sw	a5,-32(s0)
   225fc:	fe042783          	lw	a5,-32(s0)
   22600:	0007879b          	sext.w	a5,a5
   22604:	04078e63          	beqz	a5,22660 <payload_bin+0x20a8>
   22608:	fe843783          	ld	a5,-24(s0)
   2260c:	0007c783          	lbu	a5,0(a5)
   22610:	0007879b          	sext.w	a5,a5
   22614:	fd07879b          	addiw	a5,a5,-48
   22618:	fcf42e23          	sw	a5,-36(s0)
   2261c:	fe442703          	lw	a4,-28(s0)
   22620:	00070793          	mv	a5,a4
   22624:	0027979b          	slliw	a5,a5,0x2
   22628:	00e787bb          	addw	a5,a5,a4
   2262c:	0017979b          	slliw	a5,a5,0x1
   22630:	fef42223          	sw	a5,-28(s0)
   22634:	fe442703          	lw	a4,-28(s0)
   22638:	fdc42783          	lw	a5,-36(s0)
   2263c:	00f707bb          	addw	a5,a4,a5
   22640:	fef42223          	sw	a5,-28(s0)
   22644:	fe843783          	ld	a5,-24(s0)
   22648:	00178793          	addi	a5,a5,1
   2264c:	fef43423          	sd	a5,-24(s0)
   22650:	fc843783          	ld	a5,-56(s0)
   22654:	0007c783          	lbu	a5,0(a5)
   22658:	f60796e3          	bnez	a5,225c4 <payload_bin+0x200c>
   2265c:	0080006f          	j	22664 <payload_bin+0x20ac>
   22660:	00000013          	nop
   22664:	fc043783          	ld	a5,-64(s0)
   22668:	fe442703          	lw	a4,-28(s0)
   2266c:	00e7a023          	sw	a4,0(a5)
   22670:	fe843703          	ld	a4,-24(s0)
   22674:	fc843783          	ld	a5,-56(s0)
   22678:	40f707b3          	sub	a5,a4,a5
   2267c:	0007879b          	sext.w	a5,a5
   22680:	00078513          	mv	a0,a5
   22684:	03813403          	ld	s0,56(sp)
   22688:	04010113          	addi	sp,sp,64
   2268c:	00008067          	ret
   22690:	fb010113          	addi	sp,sp,-80
   22694:	04113423          	sd	ra,72(sp)
   22698:	04813023          	sd	s0,64(sp)
   2269c:	05010413          	addi	s0,sp,80
   226a0:	00050793          	mv	a5,a0
   226a4:	00068713          	mv	a4,a3
   226a8:	faf42e23          	sw	a5,-68(s0)
   226ac:	00058793          	mv	a5,a1
   226b0:	faf42c23          	sw	a5,-72(s0)
   226b4:	00060793          	mv	a5,a2
   226b8:	faf42a23          	sw	a5,-76(s0)
   226bc:	00070793          	mv	a5,a4
   226c0:	faf42823          	sw	a5,-80(s0)
   226c4:	fe042223          	sw	zero,-28(s0)
   226c8:	0280006f          	j	226f0 <payload_bin+0x2138>
   226cc:	fb042783          	lw	a5,-80(s0)
   226d0:	0ff7f713          	andi	a4,a5,255
   226d4:	fe442783          	lw	a5,-28(s0)
   226d8:	ff040693          	addi	a3,s0,-16
   226dc:	00f687b3          	add	a5,a3,a5
   226e0:	fce78823          	sb	a4,-48(a5)
   226e4:	fe442783          	lw	a5,-28(s0)
   226e8:	0017879b          	addiw	a5,a5,1
   226ec:	fef42223          	sw	a5,-28(s0)
   226f0:	fe442783          	lw	a5,-28(s0)
   226f4:	00078713          	mv	a4,a5
   226f8:	01f00793          	li	a5,31
   226fc:	fce7f8e3          	bgeu	a5,a4,226cc <payload_bin+0x2114>
   22700:	00a00793          	li	a5,10
   22704:	fef42623          	sw	a5,-20(s0)
   22708:	fb842783          	lw	a5,-72(s0)
   2270c:	0007879b          	sext.w	a5,a5
   22710:	00078663          	beqz	a5,2271c <payload_bin+0x2164>
   22714:	01000793          	li	a5,16
   22718:	fef42623          	sw	a5,-20(s0)
   2271c:	fe042423          	sw	zero,-24(s0)
   22720:	fbc42703          	lw	a4,-68(s0)
   22724:	fec42783          	lw	a5,-20(s0)
   22728:	02f777bb          	remuw	a5,a4,a5
   2272c:	0007879b          	sext.w	a5,a5
   22730:	fef42023          	sw	a5,-32(s0)
   22734:	fe042783          	lw	a5,-32(s0)
   22738:	0007871b          	sext.w	a4,a5
   2273c:	00900793          	li	a5,9
   22740:	02e7d463          	bge	a5,a4,22768 <payload_bin+0x21b0>
   22744:	fe042783          	lw	a5,-32(s0)
   22748:	0ff7f793          	andi	a5,a5,255
   2274c:	0577879b          	addiw	a5,a5,87
   22750:	0ff7f713          	andi	a4,a5,255
   22754:	fe842783          	lw	a5,-24(s0)
   22758:	ff040693          	addi	a3,s0,-16
   2275c:	00f687b3          	add	a5,a3,a5
   22760:	fce78823          	sb	a4,-48(a5)
   22764:	0240006f          	j	22788 <payload_bin+0x21d0>
   22768:	fe042783          	lw	a5,-32(s0)
   2276c:	0ff7f793          	andi	a5,a5,255
   22770:	0307879b          	addiw	a5,a5,48
   22774:	0ff7f713          	andi	a4,a5,255
   22778:	fe842783          	lw	a5,-24(s0)
   2277c:	ff040693          	addi	a3,s0,-16
   22780:	00f687b3          	add	a5,a3,a5
   22784:	fce78823          	sb	a4,-48(a5)
   22788:	fbc42703          	lw	a4,-68(s0)
   2278c:	fec42783          	lw	a5,-20(s0)
   22790:	02f757bb          	divuw	a5,a4,a5
   22794:	faf42e23          	sw	a5,-68(s0)
   22798:	fe842783          	lw	a5,-24(s0)
   2279c:	0017879b          	addiw	a5,a5,1
   227a0:	fef42423          	sw	a5,-24(s0)
   227a4:	fbc42783          	lw	a5,-68(s0)
   227a8:	0007879b          	sext.w	a5,a5
   227ac:	f6079ae3          	bnez	a5,22720 <payload_bin+0x2168>
   227b0:	fb442783          	lw	a5,-76(s0)
   227b4:	0007879b          	sext.w	a5,a5
   227b8:	02f05c63          	blez	a5,227f0 <payload_bin+0x2238>
   227bc:	fb442783          	lw	a5,-76(s0)
   227c0:	00078713          	mv	a4,a5
   227c4:	01f00793          	li	a5,31
   227c8:	00e7f663          	bgeu	a5,a4,227d4 <payload_bin+0x221c>
   227cc:	01f00793          	li	a5,31
   227d0:	faf42a23          	sw	a5,-76(s0)
   227d4:	fe842703          	lw	a4,-24(s0)
   227d8:	fb442783          	lw	a5,-76(s0)
   227dc:	0007071b          	sext.w	a4,a4
   227e0:	0007879b          	sext.w	a5,a5
   227e4:	00f75663          	bge	a4,a5,227f0 <payload_bin+0x2238>
   227e8:	fb442783          	lw	a5,-76(s0)
   227ec:	fef42423          	sw	a5,-24(s0)
   227f0:	fe842783          	lw	a5,-24(s0)
   227f4:	ff040713          	addi	a4,s0,-16
   227f8:	00f707b3          	add	a5,a4,a5
   227fc:	fc078823          	sb	zero,-48(a5)
   22800:	fe842783          	lw	a5,-24(s0)
   22804:	fff7879b          	addiw	a5,a5,-1
   22808:	fef42223          	sw	a5,-28(s0)
   2280c:	0280006f          	j	22834 <payload_bin+0x227c>
   22810:	fe442783          	lw	a5,-28(s0)
   22814:	ff040713          	addi	a4,s0,-16
   22818:	00f707b3          	add	a5,a4,a5
   2281c:	fd07c783          	lbu	a5,-48(a5)
   22820:	00078513          	mv	a0,a5
   22824:	c01ff0ef          	jal	ra,22424 <payload_bin+0x1e6c>
   22828:	fe442783          	lw	a5,-28(s0)
   2282c:	fff7879b          	addiw	a5,a5,-1
   22830:	fef42223          	sw	a5,-28(s0)
   22834:	fe442783          	lw	a5,-28(s0)
   22838:	0007879b          	sext.w	a5,a5
   2283c:	fc07dae3          	bgez	a5,22810 <payload_bin+0x2258>
   22840:	00000013          	nop
   22844:	00000013          	nop
   22848:	04813083          	ld	ra,72(sp)
   2284c:	04013403          	ld	s0,64(sp)
   22850:	05010113          	addi	sp,sp,80
   22854:	00008067          	ret
   22858:	fb010113          	addi	sp,sp,-80
   2285c:	04113423          	sd	ra,72(sp)
   22860:	04813023          	sd	s0,64(sp)
   22864:	05010413          	addi	s0,sp,80
   22868:	faa43c23          	sd	a0,-72(s0)
   2286c:	fab43823          	sd	a1,-80(s0)
   22870:	02000793          	li	a5,32
   22874:	fcf42a23          	sw	a5,-44(s0)
   22878:	fb843783          	ld	a5,-72(s0)
   2287c:	fef43423          	sd	a5,-24(s0)
   22880:	1880006f          	j	22a08 <payload_bin+0x2450>
   22884:	fc042e23          	sw	zero,-36(s0)
   22888:	fc042223          	sw	zero,-60(s0)
   2288c:	fe843783          	ld	a5,-24(s0)
   22890:	0007c783          	lbu	a5,0(a5)
   22894:	fcf42823          	sw	a5,-48(s0)
   22898:	fe843783          	ld	a5,-24(s0)
   2289c:	fef43023          	sd	a5,-32(s0)
   228a0:	fe843783          	ld	a5,-24(s0)
   228a4:	0007c783          	lbu	a5,0(a5)
   228a8:	00078713          	mv	a4,a5
   228ac:	02500793          	li	a5,37
   228b0:	06f71863          	bne	a4,a5,22920 <payload_bin+0x2368>
   228b4:	fe843783          	ld	a5,-24(s0)
   228b8:	fef43023          	sd	a5,-32(s0)
   228bc:	fe843783          	ld	a5,-24(s0)
   228c0:	00178793          	addi	a5,a5,1
   228c4:	fef43423          	sd	a5,-24(s0)
   228c8:	fe843783          	ld	a5,-24(s0)
   228cc:	0007c783          	lbu	a5,0(a5)
   228d0:	00078713          	mv	a4,a5
   228d4:	02f00793          	li	a5,47
   228d8:	02e7fe63          	bgeu	a5,a4,22914 <payload_bin+0x235c>
   228dc:	fe843783          	ld	a5,-24(s0)
   228e0:	0007c783          	lbu	a5,0(a5)
   228e4:	00078713          	mv	a4,a5
   228e8:	03900793          	li	a5,57
   228ec:	02e7e463          	bltu	a5,a4,22914 <payload_bin+0x235c>
   228f0:	fc440793          	addi	a5,s0,-60
   228f4:	00078593          	mv	a1,a5
   228f8:	fe843503          	ld	a0,-24(s0)
   228fc:	ca5ff0ef          	jal	ra,225a0 <payload_bin+0x1fe8>
   22900:	00050793          	mv	a5,a0
   22904:	00078713          	mv	a4,a5
   22908:	fe843783          	ld	a5,-24(s0)
   2290c:	00e787b3          	add	a5,a5,a4
   22910:	fef43423          	sd	a5,-24(s0)
   22914:	fe843783          	ld	a5,-24(s0)
   22918:	0007c783          	lbu	a5,0(a5)
   2291c:	fcf42e23          	sw	a5,-36(s0)
   22920:	fdc42783          	lw	a5,-36(s0)
   22924:	0007871b          	sext.w	a4,a5
   22928:	06400793          	li	a5,100
   2292c:	00f70a63          	beq	a4,a5,22940 <payload_bin+0x2388>
   22930:	fdc42783          	lw	a5,-36(s0)
   22934:	0007871b          	sext.w	a4,a5
   22938:	07800793          	li	a5,120
   2293c:	04f71863          	bne	a4,a5,2298c <payload_bin+0x23d4>
   22940:	fb043783          	ld	a5,-80(s0)
   22944:	00878713          	addi	a4,a5,8
   22948:	fae43823          	sd	a4,-80(s0)
   2294c:	0007a783          	lw	a5,0(a5)
   22950:	fcf42423          	sw	a5,-56(s0)
   22954:	fc842503          	lw	a0,-56(s0)
   22958:	fdc42783          	lw	a5,-36(s0)
   2295c:	0007871b          	sext.w	a4,a5
   22960:	07800793          	li	a5,120
   22964:	40f707b3          	sub	a5,a4,a5
   22968:	0017b793          	seqz	a5,a5
   2296c:	0ff7f793          	andi	a5,a5,255
   22970:	0007879b          	sext.w	a5,a5
   22974:	fc442703          	lw	a4,-60(s0)
   22978:	fd442683          	lw	a3,-44(s0)
   2297c:	00070613          	mv	a2,a4
   22980:	00078593          	mv	a1,a5
   22984:	d0dff0ef          	jal	ra,22690 <payload_bin+0x20d8>
   22988:	0740006f          	j	229fc <payload_bin+0x2444>
   2298c:	fc042c23          	sw	zero,-40(s0)
   22990:	0280006f          	j	229b8 <payload_bin+0x2400>
   22994:	fd842783          	lw	a5,-40(s0)
   22998:	fe043703          	ld	a4,-32(s0)
   2299c:	00f707b3          	add	a5,a4,a5
   229a0:	0007c783          	lbu	a5,0(a5)
   229a4:	00078513          	mv	a0,a5
   229a8:	a7dff0ef          	jal	ra,22424 <payload_bin+0x1e6c>
   229ac:	fd842783          	lw	a5,-40(s0)
   229b0:	0017879b          	addiw	a5,a5,1
   229b4:	fcf42c23          	sw	a5,-40(s0)
   229b8:	fd842703          	lw	a4,-40(s0)
   229bc:	fe843683          	ld	a3,-24(s0)
   229c0:	fe043783          	ld	a5,-32(s0)
   229c4:	40f687b3          	sub	a5,a3,a5
   229c8:	fcf746e3          	blt	a4,a5,22994 <payload_bin+0x23dc>
   229cc:	fdc42783          	lw	a5,-36(s0)
   229d0:	0007879b          	sext.w	a5,a5
   229d4:	00078863          	beqz	a5,229e4 <payload_bin+0x242c>
   229d8:	fdc42783          	lw	a5,-36(s0)
   229dc:	0ff7f793          	andi	a5,a5,255
   229e0:	00c0006f          	j	229ec <payload_bin+0x2434>
   229e4:	fd042783          	lw	a5,-48(s0)
   229e8:	0ff7f793          	andi	a5,a5,255
   229ec:	fcf407a3          	sb	a5,-49(s0)
   229f0:	fcf44783          	lbu	a5,-49(s0)
   229f4:	00078513          	mv	a0,a5
   229f8:	a2dff0ef          	jal	ra,22424 <payload_bin+0x1e6c>
   229fc:	fe843783          	ld	a5,-24(s0)
   22a00:	00178793          	addi	a5,a5,1
   22a04:	fef43423          	sd	a5,-24(s0)
   22a08:	fe843783          	ld	a5,-24(s0)
   22a0c:	0007c783          	lbu	a5,0(a5)
   22a10:	e6079ae3          	bnez	a5,22884 <payload_bin+0x22cc>
   22a14:	00000793          	li	a5,0
   22a18:	00078513          	mv	a0,a5
   22a1c:	04813083          	ld	ra,72(sp)
   22a20:	04013403          	ld	s0,64(sp)
   22a24:	05010113          	addi	sp,sp,80
   22a28:	00008067          	ret
   22a2c:	f9010113          	addi	sp,sp,-112
   22a30:	02113423          	sd	ra,40(sp)
   22a34:	02813023          	sd	s0,32(sp)
   22a38:	03010413          	addi	s0,sp,48
   22a3c:	fca43c23          	sd	a0,-40(s0)
   22a40:	00b43423          	sd	a1,8(s0)
   22a44:	00c43823          	sd	a2,16(s0)
   22a48:	00d43c23          	sd	a3,24(s0)
   22a4c:	02e43023          	sd	a4,32(s0)
   22a50:	02f43423          	sd	a5,40(s0)
   22a54:	03043823          	sd	a6,48(s0)
   22a58:	03143c23          	sd	a7,56(s0)
   22a5c:	04040793          	addi	a5,s0,64
   22a60:	fcf43823          	sd	a5,-48(s0)
   22a64:	fd043783          	ld	a5,-48(s0)
   22a68:	fc878793          	addi	a5,a5,-56
   22a6c:	fef43423          	sd	a5,-24(s0)
   22a70:	fe843783          	ld	a5,-24(s0)
   22a74:	00078593          	mv	a1,a5
   22a78:	fd843503          	ld	a0,-40(s0)
   22a7c:	dddff0ef          	jal	ra,22858 <payload_bin+0x22a0>
   22a80:	00000793          	li	a5,0
   22a84:	00078513          	mv	a0,a5
   22a88:	02813083          	ld	ra,40(sp)
   22a8c:	02013403          	ld	s0,32(sp)
   22a90:	07010113          	addi	sp,sp,112
   22a94:	00008067          	ret
   22a98:	fd010113          	addi	sp,sp,-48
   22a9c:	02113423          	sd	ra,40(sp)
   22aa0:	02813023          	sd	s0,32(sp)
   22aa4:	03010413          	addi	s0,sp,48
   22aa8:	00050793          	mv	a5,a0
   22aac:	fcf42e23          	sw	a5,-36(s0)
   22ab0:	03000513          	li	a0,48
   22ab4:	971ff0ef          	jal	ra,22424 <payload_bin+0x1e6c>
   22ab8:	07800513          	li	a0,120
   22abc:	969ff0ef          	jal	ra,22424 <payload_bin+0x1e6c>
   22ac0:	00700793          	li	a5,7
   22ac4:	fef42623          	sw	a5,-20(s0)
   22ac8:	07c0006f          	j	22b44 <payload_bin+0x258c>
   22acc:	fec42783          	lw	a5,-20(s0)
   22ad0:	0027979b          	slliw	a5,a5,0x2
   22ad4:	0007879b          	sext.w	a5,a5
   22ad8:	00078713          	mv	a4,a5
   22adc:	fdc42783          	lw	a5,-36(s0)
   22ae0:	00e7d7bb          	srlw	a5,a5,a4
   22ae4:	0007879b          	sext.w	a5,a5
   22ae8:	0007879b          	sext.w	a5,a5
   22aec:	00f7f793          	andi	a5,a5,15
   22af0:	fef42423          	sw	a5,-24(s0)
   22af4:	fe842783          	lw	a5,-24(s0)
   22af8:	0007871b          	sext.w	a4,a5
   22afc:	00900793          	li	a5,9
   22b00:	02e7c063          	blt	a5,a4,22b20 <payload_bin+0x2568>
   22b04:	fe842783          	lw	a5,-24(s0)
   22b08:	0ff7f793          	andi	a5,a5,255
   22b0c:	0307879b          	addiw	a5,a5,48
   22b10:	0ff7f793          	andi	a5,a5,255
   22b14:	00078513          	mv	a0,a5
   22b18:	90dff0ef          	jal	ra,22424 <payload_bin+0x1e6c>
   22b1c:	01c0006f          	j	22b38 <payload_bin+0x2580>
   22b20:	fe842783          	lw	a5,-24(s0)
   22b24:	0ff7f793          	andi	a5,a5,255
   22b28:	0377879b          	addiw	a5,a5,55
   22b2c:	0ff7f793          	andi	a5,a5,255
   22b30:	00078513          	mv	a0,a5
   22b34:	8f1ff0ef          	jal	ra,22424 <payload_bin+0x1e6c>
   22b38:	fec42783          	lw	a5,-20(s0)
   22b3c:	fff7879b          	addiw	a5,a5,-1
   22b40:	fef42623          	sw	a5,-20(s0)
   22b44:	fec42783          	lw	a5,-20(s0)
   22b48:	0007879b          	sext.w	a5,a5
   22b4c:	f807d0e3          	bgez	a5,22acc <payload_bin+0x2514>
   22b50:	00000013          	nop
   22b54:	00000013          	nop
   22b58:	02813083          	ld	ra,40(sp)
   22b5c:	02013403          	ld	s0,32(sp)
   22b60:	03010113          	addi	sp,sp,48
   22b64:	00008067          	ret
   22b68:	abcd                	j	2315a <payload_bin+0x2ba2>
   22b6a:	abcd                	j	2315c <payload_bin+0x2ba4>
   22b6c:	5678                	lw	a4,108(a2)
   22b6e:	1234                	addi	a3,sp,296
   22b70:	000222b7          	lui	t0,0x22
   22b74:	00028303          	lb	t1,0(t0) # 22000 <payload_bin+0x1a48>
   22b78:	00428303          	lb	t1,4(t0)
   22b7c:	ffc28303          	lb	t1,-4(t0)
   22b80:	0002b303          	ld	t1,0(t0)
   22b84:	00428303          	lb	t1,4(t0)
   22b88:	00000297          	auipc	t0,0x0
   22b8c:	fe028293          	addi	t0,t0,-32 # 22b68 <payload_bin+0x25b0>
   22b90:	00000317          	auipc	t1,0x0
   22b94:	fd830313          	addi	t1,t1,-40 # 22b68 <payload_bin+0x25b0>
   22b98:	802002b7          	lui	t0,0x80200
   22b9c:	40200337          	lui	t1,0x40200
   22ba0:	00008067          	ret
   22ba4:	c00002b7          	lui	t0,0xc0000
   22ba8:	0452829b          	addiw	t0,t0,69
   22bac:	02129293          	slli	t0,t0,0x21
   22bb0:	4012d593          	srai	a1,t0,0x1
   22bb4:	0012d313          	srli	t1,t0,0x1
   22bb8:	0250029b          	addiw	t0,zero,37
   22bbc:	01f29293          	slli	t0,t0,0x1f
   22bc0:	08a28293          	addi	t0,t0,138 # ffffffffc000008a <bss_begin+0xffffffffbffda08a>
   22bc4:	4012d61b          	sraiw	a2,t0,0x1
   22bc8:	0012d31b          	srliw	t1,t0,0x1
   22bcc:	0012969b          	slliw	a3,t0,0x1
   22bd0:	0490029b          	addiw	t0,zero,73
   22bd4:	01e29293          	slli	t0,t0,0x1e
   22bd8:	08a28293          	addi	t0,t0,138
   22bdc:	4012d61b          	sraiw	a2,t0,0x1
   22be0:	0012d31b          	srliw	t1,t0,0x1
   22be4:	0012971b          	slliw	a4,t0,0x1
   22be8:	00008067          	ret
   22bec:	80028593          	addi	a1,t0,-2048
   22bf0:	000012b7          	lui	t0,0x1
   22bf4:	a012829b          	addiw	t0,t0,-1535
   22bf8:	01529293          	slli	t0,t0,0x15
   22bfc:	40000337          	lui	t1,0x40000
   22c00:	70028593          	addi	a1,t0,1792 # 1700 <__bin_size-0x4900>
   22c04:	80028593          	addi	a1,t0,-2048
   22c08:	0802861b          	addiw	a2,t0,128
   22c0c:	006286b3          	add	a3,t0,t1
   22c10:	0062873b          	addw	a4,t0,t1
   22c14:	000012b7          	lui	t0,0x1
   22c18:	c012829b          	addiw	t0,t0,-1023
   22c1c:	01529293          	slli	t0,t0,0x15
   22c20:	00200337          	lui	t1,0x200
   22c24:	40628533          	sub	a0,t0,t1
   22c28:	406285bb          	subw	a1,t0,t1
   22c2c:	00008067          	ret
   22c30:	00b50533          	add	a0,a0,a1
   22c34:	00000013          	nop
   22c38:	00008067          	ret
   22c3c:	ff810113          	addi	sp,sp,-8
   22c40:	00113023          	sd	ra,0(sp)
   22c44:	00100513          	li	a0,1
   22c48:	00200593          	li	a1,2
   22c4c:	fe5ff0ef          	jal	ra,22c30 <payload_bin+0x2678>
   22c50:	00000013          	nop
   22c54:	00013083          	ld	ra,0(sp)
   22c58:	00810113          	addi	sp,sp,8
   22c5c:	00008067          	ret
   22c60:	000202b7          	lui	t0,0x20
   22c64:	00021337          	lui	t1,0x21
   22c68:	02028393          	addi	t2,t0,32 # 20020 <_start+0x20>
   22c6c:	0002be03          	ld	t3,0(t0)
   22c70:	01c33023          	sd	t3,0(t1) # 21000 <payload_bin+0xa48>
   22c74:	00828293          	addi	t0,t0,8
   22c78:	00830313          	addi	t1,t1,8
   22c7c:	fe72c8e3          	blt	t0,t2,22c6c <payload_bin+0x26b4>
   22c80:	00008067          	ret
   22c84:	00b56663          	bltu	a0,a1,22c90 <payload_bin+0x26d8>
   22c88:	00000793          	li	a5,0
   22c8c:	0080006f          	j	22c94 <payload_bin+0x26dc>
   22c90:	fff00793          	li	a5,-1
   22c94:	00078513          	mv	a0,a5
   22c98:	00008067          	ret
   22c9c:	00050663          	beqz	a0,22ca8 <payload_bin+0x26f0>
   22ca0:	fff58793          	addi	a5,a1,-1
   22ca4:	0080006f          	j	22cac <payload_bin+0x26f4>
   22ca8:	00258793          	addi	a5,a1,2
   22cac:	00078513          	mv	a0,a5
   22cb0:	00008067          	ret
   22cb4:	ff010113          	addi	sp,sp,-16
   22cb8:	00113423          	sd	ra,8(sp)
   22cbc:	fe1ff0ef          	jal	ra,22c9c <payload_bin+0x26e4>
   22cc0:	00813083          	ld	ra,8(sp)
   22cc4:	01010113          	addi	sp,sp,16
   22cc8:	00008067          	ret
   22ccc:	00000013          	nop
   22cd0:	0800                	addi	s0,sp,16
   22cd2:	0080                	addi	s0,sp,64
   22cd4:	0000                	unimp
   22cd6:	0000                	unimp
   22cd8:	0860                	addi	s0,sp,28
   22cda:	0080                	addi	s0,sp,64
   22cdc:	0000                	unimp
   22cde:	0000                	unimp
   22ce0:	0880                	addi	s0,sp,80
   22ce2:	0080                	addi	s0,sp,64
   22ce4:	0000                	unimp
   22ce6:	0000                	unimp
   22ce8:	7566                	ld	a0,120(sp)
   22cea:	636e                	ld	t1,216(sp)
   22cec:	615f 6600 6e75      	0x6e756600615f
   22cf2:	00625f63          	bge	tp,t1,22d10 <payload_bin+0x2758>
   22cf6:	7566                	ld	a0,120(sp)
   22cf8:	636e                	ld	t1,216(sp)
   22cfa:	635f 0100 0000      	0x100635f
   22d00:	00000003          	lb	zero,0(zero) # 0 <__bin_size-0x6000>
   22d04:	0000                	unimp
   22d06:	0000                	unimp
   22d08:	00b50533          	add	a0,a0,a1
   22d0c:	00008067          	ret
   22d10:	40b50533          	sub	a0,a0,a1
   22d14:	00008067          	ret
   22d18:	ff010113          	addi	sp,sp,-16
   22d1c:	00113423          	sd	ra,8(sp)
   22d20:	00050293          	mv	t0,a0
   22d24:	00058313          	mv	t1,a1
   22d28:	00028513          	mv	a0,t0
   22d2c:	00030593          	mv	a1,t1
   22d30:	fd9ff0ef          	jal	ra,22d08 <payload_bin+0x2750>
   22d34:	00813083          	ld	ra,8(sp)
   22d38:	01010113          	addi	sp,sp,16
   22d3c:	00008067          	ret
   22d40:	ff010113          	addi	sp,sp,-16
   22d44:	00113423          	sd	ra,8(sp)
   22d48:	00050293          	mv	t0,a0
   22d4c:	00058313          	mv	t1,a1
   22d50:	00028513          	mv	a0,t0
   22d54:	00030593          	mv	a1,t1
   22d58:	fb9ff0ef          	jal	ra,22d10 <payload_bin+0x2758>
   22d5c:	00813083          	ld	ra,8(sp)
   22d60:	01010113          	addi	sp,sp,16
   22d64:	00008067          	ret
	...
   22d70:	020002b7          	lui	t0,0x2000
   22d74:	0f02829b          	addiw	t0,t0,240
   22d78:	0002a303          	lw	t1,0(t0) # 2000000 <bss_begin+0x1fda000>
   22d7c:	fff0f3b7          	lui	t2,0xfff0f
   22d80:	0ff3839b          	addiw	t2,t2,255
   22d84:	00737333          	and	t1,t1,t2
   22d88:	000303b7          	lui	t2,0x30
   22d8c:	3003839b          	addiw	t2,t2,768
   22d90:	00736333          	or	t1,t1,t2
   22d94:	0062a023          	sw	t1,0(t0)
   22d98:	020022b7          	lui	t0,0x2002
   22d9c:	90c2829b          	addiw	t0,t0,-1780
   22da0:	0002a303          	lw	t1,0(t0) # 2002000 <bss_begin+0x1fdc000>
   22da4:	00136313          	ori	t1,t1,1
   22da8:	0062a023          	sw	t1,0(t0)
   22dac:	020022b7          	lui	t0,0x2002
   22db0:	90c2829b          	addiw	t0,t0,-1780
   22db4:	0002a303          	lw	t1,0(t0) # 2002000 <bss_begin+0x1fdc000>
   22db8:	000103b7          	lui	t2,0x10
   22dbc:	00736333          	or	t1,t1,t2
   22dc0:	0062a023          	sw	t1,0(t0)
   22dc4:	025002b7          	lui	t0,0x2500
   22dc8:	0002a223          	sw	zero,4(t0) # 2500004 <bss_begin+0x24da004>
   22dcc:	0f700313          	li	t1,247
   22dd0:	0062a423          	sw	t1,8(t0)
   22dd4:	0002a823          	sw	zero,16(t0)
   22dd8:	00c2a303          	lw	t1,12(t0)
   22ddc:	08036313          	ori	t1,t1,128
   22de0:	0062a623          	sw	t1,12(t0)
   22de4:	00d00393          	li	t2,13
   22de8:	0072a023          	sw	t2,0(t0)
   22dec:	00000393          	li	t2,0
   22df0:	0072a223          	sw	t2,4(t0)
   22df4:	08034313          	xori	t1,t1,128
   22df8:	0062a623          	sw	t1,12(t0)
   22dfc:	00c2a303          	lw	t1,12(t0)
   22e00:	ff000393          	li	t2,-16
   22e04:	00737333          	and	t1,t1,t2
   22e08:	00300393          	li	t2,3
   22e0c:	00736333          	or	t1,t1,t2
   22e10:	0062a623          	sw	t1,12(t0)
   22e14:	00008067          	ret
   22e18:	025002b7          	lui	t0,0x2500
   22e1c:	07c2a303          	lw	t1,124(t0) # 250007c <bss_begin+0x24da07c>
   22e20:	00237313          	andi	t1,t1,2
   22e24:	fe030ce3          	beqz	t1,22e1c <payload_bin+0x2864>
   22e28:	00a28023          	sb	a0,0(t0)
   22e2c:	00008067          	ret
   22e30:	00008c13          	mv	s8,ra
   22e34:	00050793          	mv	a5,a0
   22e38:	0007c503          	lbu	a0,0(a5)
   22e3c:	00050863          	beqz	a0,22e4c <payload_bin+0x2894>
   22e40:	fd9ff0ef          	jal	ra,22e18 <payload_bin+0x2860>
   22e44:	00178793          	addi	a5,a5,1
   22e48:	ff1ff06f          	j	22e38 <payload_bin+0x2880>
   22e4c:	000c0093          	mv	ra,s8
   22e50:	00008067          	ret
   22e54:	00000293          	li	t0,0
   22e58:	00b53023          	sd	a1,0(a0) # 2001000 <bss_begin+0x1fdb000>
   22e5c:	00b53423          	sd	a1,8(a0)
   22e60:	01028293          	addi	t0,t0,16
   22e64:	fec2cae3          	blt	t0,a2,22e58 <payload_bin+0x28a0>
   22e68:	00008067          	ret
   22e6c:	0000                	unimp
   22e6e:	0000                	unimp
   22e70:	3130                	fld	fa2,96(a0)
   22e72:	3332                	fld	ft6,296(sp)
   22e74:	3534                	fld	fa3,104(a0)
   22e76:	3736                	fld	fa4,360(sp)
   22e78:	3938                	fld	fa4,112(a0)
   22e7a:	4241                	li	tp,16
   22e7c:	46454443          	fmadd.q	fs0,fa0,ft4,fs0,rmm
   22e80:	4a494847          	fmsub.d	fa6,fs2,ft4,fs1,rmm
   22e84:	4e4d4c4b          	fnmsub.q	fs8,fs10,ft4,fs1,rmm
   22e88:	5251504f          	fnmadd.d	ft0,ft2,ft5,fa0,unknown
   22e8c:	56555453          	0x56555453
   22e90:	5a595857          	0x5a595857
   22e94:	0000                	unimp
   22e96:	0000                	unimp
   22e98:	3130                	fld	fa2,96(a0)
   22e9a:	3332                	fld	ft6,296(sp)
   22e9c:	3534                	fld	fa3,104(a0)
   22e9e:	3736                	fld	fa4,360(sp)
   22ea0:	3938                	fld	fa4,112(a0)
   22ea2:	6261                	lui	tp,0x18
   22ea4:	66656463          	bltu	a0,t1,2350c <payload_bin+0x2f54>
   22ea8:	6a696867          	0x6a696867
   22eac:	6e6d6c6b          	0x6e6d6c6b
   22eb0:	7271706f          	j	3add6 <bss_begin+0x14dd6>
   22eb4:	76757473          	csrrci	s0,0x767,10
   22eb8:	7a797877          	0x7a797877
   22ebc:	0000                	unimp
   22ebe:	0000                	unimp
   22ec0:	4e3c                	lw	a5,88(a2)
   22ec2:	4c55                	li	s8,21
   22ec4:	3e4c                	fld	fa1,184(a2)
   22ec6:	0000                	unimp
   22ec8:	e004                	sd	s1,0(s0)
   22eca:	e034ffff          	0xe034ffff
   22ece:	e034ffff          	0xe034ffff
   22ed2:	e014ffff          	0xe014ffff
   22ed6:	e034ffff          	0xe034ffff
   22eda:	e034ffff          	0xe034ffff
   22ede:	e034ffff          	0xe034ffff
   22ee2:	e034ffff          	0xe034ffff
   22ee6:	e034ffff          	0xe034ffff
   22eea:	e034ffff          	0xe034ffff
   22eee:	e034ffff          	0xe034ffff
   22ef2:	dff4ffff          	0xdff4ffff
   22ef6:	e034ffff          	0xe034ffff
   22efa:	dfe4ffff          	0xdfe4ffff
   22efe:	e034ffff          	0xe034ffff
   22f02:	e034ffff          	0xe034ffff
   22f06:	e024ffff          	0xe024ffff
   22f0a:	e460ffff          	0xe460ffff
   22f0e:	e484ffff          	0xe484ffff
   22f12:	e484ffff          	0xe484ffff
   22f16:	e484ffff          	0xe484ffff
   22f1a:	e484ffff          	0xe484ffff
   22f1e:	e484ffff          	0xe484ffff
   22f22:	e484ffff          	0xe484ffff
   22f26:	e484ffff          	0xe484ffff
   22f2a:	e484ffff          	0xe484ffff
   22f2e:	e484ffff          	0xe484ffff
   22f32:	e484ffff          	0xe484ffff
   22f36:	e200ffff          	0xe200ffff
   22f3a:	e46cffff          	0xe46cffff
   22f3e:	e484ffff          	0xe484ffff
   22f42:	e484ffff          	0xe484ffff
   22f46:	e484ffff          	0xe484ffff
   22f4a:	e484ffff          	0xe484ffff
   22f4e:	e46cffff          	0xe46cffff
   22f52:	e484ffff          	0xe484ffff
   22f56:	e484ffff          	0xe484ffff
   22f5a:	e484ffff          	0xe484ffff
   22f5e:	e484ffff          	0xe484ffff
   22f62:	e3c0ffff          	0xe3c0ffff
   22f66:	e448ffff          	0xe448ffff
   22f6a:	e3f0ffff          	0xe3f0ffff
   22f6e:	e484ffff          	0xe484ffff
   22f72:	e484ffff          	0xe484ffff
   22f76:	e298ffff          	0xe298ffff
   22f7a:	e484ffff          	0xe484ffff
   22f7e:	e478ffff          	0xe478ffff
   22f82:	e484ffff          	0xe484ffff
   22f86:	e484ffff          	0xe484ffff
   22f8a:	e454ffff          	0xe454ffff
   22f8e:	305bffff          	0x305bffff
   22f92:	2578                	fld	fa4,200(a0)
   22f94:	3130                	fld	fa2,96(a0)
   22f96:	6c36                	ld	s8,328(sp)
   22f98:	2078                	fld	fa4,192(s0)
   22f9a:	202d                	0x202d
   22f9c:	7830                	ld	a2,112(s0)
   22f9e:	3025                	0x3025
   22fa0:	3631                	addiw	a2,a2,-20
   22fa2:	786c                	ld	a1,240(s0)
   22fa4:	205d                	0x205d
   22fa6:	7020                	ld	s0,96(s0)
   22fa8:	78302063          	0x78302063
   22fac:	3025                	0x3025
   22fae:	3631                	addiw	a2,a2,-20
   22fb0:	786c                	ld	a1,240(s0)
   22fb2:	0a0d                	addi	s4,s4,3
   22fb4:	0000                	unimp
   22fb6:	0000                	unimp
   22fb8:	6c6c6143          	fmadd.h	ft2,fs8,ft6,fa3,unknown
   22fbc:	4620                	lw	s0,72(a2)
   22fbe:	6172                	ld	sp,280(sp)
   22fc0:	656d                	lui	a0,0x1b
   22fc2:	0d3a                	slli	s10,s10,0xe
   22fc4:	000a                	c.slli	zero,0x2
   22fc6:	0000                	unimp
   22fc8:	0a0d                	addi	s4,s4,3
   22fca:	6f42                	ld	t5,16(sp)
   22fcc:	6e69746f          	jal	s0,ba6b2 <bss_begin+0x946b2>
   22fd0:	74612067          	0x74612067
   22fd4:	6120                	ld	s0,64(a0)
   22fd6:	0a0d6d73          	csrrsi	s10,0xa0,26
	...
   245b6:	0000                	unimp
   245b8:	6108                	ld	a0,0(a0)
   245ba:	0002                	c.slli64	zero
   245bc:	0000                	unimp
	...

Disassembly of section .rodata:

00000000000245c0 <.rodata>:
   245c0:	bae4                	fsd	fs1,240(a3)
   245c2:	bb98ffff          	0xbb98ffff
   245c6:	bb98ffff          	0xbb98ffff
   245ca:	bb98ffff          	0xbb98ffff
   245ce:	bb98ffff          	0xbb98ffff
   245d2:	bb98ffff          	0xbb98ffff
   245d6:	bb98ffff          	0xbb98ffff
   245da:	bb98ffff          	0xbb98ffff
   245de:	bb98ffff          	0xbb98ffff
   245e2:	bb98ffff          	0xbb98ffff
   245e6:	bb98ffff          	0xbb98ffff
   245ea:	bb98ffff          	0xbb98ffff
   245ee:	bb98ffff          	0xbb98ffff
   245f2:	bb98ffff          	0xbb98ffff
   245f6:	bb98ffff          	0xbb98ffff
   245fa:	bb98ffff          	0xbb98ffff
   245fe:	baf8ffff          	0xbaf8ffff
   24602:	bb0cffff          	0xbb0cffff
   24606:	bb20ffff          	0xbb20ffff
   2460a:	bb34ffff          	0xbb34ffff
   2460e:	bb48ffff          	0xbb48ffff
   24612:	bb5cffff          	0xbb5cffff
   24616:	bb70ffff          	0xbb70ffff
   2461a:	bb84ffff          	0xbb84ffff
   2461e:	bbb0ffff          	0xbbb0ffff
   24622:	bc64ffff          	0xbc64ffff
   24626:	bc64ffff          	0xbc64ffff
   2462a:	bc64ffff          	0xbc64ffff
   2462e:	bc64ffff          	0xbc64ffff
   24632:	bc64ffff          	0xbc64ffff
   24636:	bc64ffff          	0xbc64ffff
   2463a:	bc64ffff          	0xbc64ffff
   2463e:	bc64ffff          	0xbc64ffff
   24642:	bc64ffff          	0xbc64ffff
   24646:	bc64ffff          	0xbc64ffff
   2464a:	bc64ffff          	0xbc64ffff
   2464e:	bc64ffff          	0xbc64ffff
   24652:	bc64ffff          	0xbc64ffff
   24656:	bc64ffff          	0xbc64ffff
   2465a:	bc64ffff          	0xbc64ffff
   2465e:	bbc4ffff          	0xbbc4ffff
   24662:	bbd8ffff          	0xbbd8ffff
   24666:	bbecffff          	0xbbecffff
   2466a:	bc00ffff          	0xbc00ffff
   2466e:	bc14ffff          	0xbc14ffff
   24672:	bc28ffff          	0xbc28ffff
   24676:	bc3cffff          	0xbc3cffff
   2467a:	bc50ffff          	0xbc50ffff
   2467e:	          	0xffff

Disassembly of section .data:

0000000000025000 <stacks_start>:
	...

