
mysbi.elf:     file format elf64-littleriscv


Disassembly of section .text.boot:

0000000000020000 <_start>:
   20000:	0300006f          	j	20030 <reset>
   20004:	4765                	li	a4,25
   20006:	422e4e4f          	fnmadd.d	ft8,ft8,ft2,fs0,rmm
   2000a:	3054                	fld	fa3,160(s0)
   2000c:	5678                	lw	a4,108(a2)
   2000e:	1234                	addi	a3,sp,296
   20010:	5000                	lw	s0,32(s0)
   20012:	0000                	unimp
   20014:	0030                	addi	a2,sp,8
   20016:	0000                	unimp
   20018:	30303033          	0x30303033
   2001c:	0000                	unimp
   2001e:	0002                	c.slli64	zero
   20020:	0000                	unimp
   20022:	0002                	c.slli64	zero
	...
   2002c:	2e34                	fld	fa3,88(a2)
   2002e:	0030                	addi	a2,sp,8

0000000000020030 <reset>:
   20030:	00004117          	auipc	sp,0x4
   20034:	fd010113          	addi	sp,sp,-48 # 24000 <stacks_start>
   20038:	000012b7          	lui	t0,0x1
   2003c:	00510133          	add	sp,sp,t0
   20040:	4700006f          	j	204b0 <sbi_main>

Disassembly of section .text:

0000000000020044 <read_csr_num>:
   20044:	fd010113          	addi	sp,sp,-48
   20048:	02813423          	sd	s0,40(sp)
   2004c:	00050793          	mv	a5,a0
   20050:	00f12623          	sw	a5,12(sp)
   20054:	00013c23          	sd	zero,24(sp)
   20058:	00c12783          	lw	a5,12(sp)
   2005c:	c607869b          	addiw	a3,a5,-928
   20060:	0006871b          	sext.w	a4,a3
   20064:	01700793          	li	a5,23
   20068:	0ee7e463          	bltu	a5,a4,20150 <read_csr_num+0x10c>
   2006c:	02069793          	slli	a5,a3,0x20
   20070:	0207d793          	srli	a5,a5,0x20
   20074:	00279713          	slli	a4,a5,0x2
   20078:	00003797          	auipc	a5,0x3
   2007c:	50478793          	addi	a5,a5,1284 # 2357c <payload_bin+0x3000>
   20080:	00f707b3          	add	a5,a4,a5
   20084:	0007a783          	lw	a5,0(a5)
   20088:	0007871b          	sext.w	a4,a5
   2008c:	00003797          	auipc	a5,0x3
   20090:	4f078793          	addi	a5,a5,1264 # 2357c <payload_bin+0x3000>
   20094:	00f707b3          	add	a5,a4,a5
   20098:	00078067          	jr	a5
   2009c:	3a0027f3          	csrr	a5,pmpcfg0
   200a0:	00078413          	mv	s0,a5
   200a4:	00040793          	mv	a5,s0
   200a8:	00f13c23          	sd	a5,24(sp)
   200ac:	0a80006f          	j	20154 <read_csr_num+0x110>
   200b0:	3b0027f3          	csrr	a5,pmpaddr0
   200b4:	00078413          	mv	s0,a5
   200b8:	00040793          	mv	a5,s0
   200bc:	00f13c23          	sd	a5,24(sp)
   200c0:	0940006f          	j	20154 <read_csr_num+0x110>
   200c4:	3b1027f3          	csrr	a5,pmpaddr1
   200c8:	00078413          	mv	s0,a5
   200cc:	00040793          	mv	a5,s0
   200d0:	00f13c23          	sd	a5,24(sp)
   200d4:	0800006f          	j	20154 <read_csr_num+0x110>
   200d8:	3b2027f3          	csrr	a5,pmpaddr2
   200dc:	00078413          	mv	s0,a5
   200e0:	00040793          	mv	a5,s0
   200e4:	00f13c23          	sd	a5,24(sp)
   200e8:	06c0006f          	j	20154 <read_csr_num+0x110>
   200ec:	3b3027f3          	csrr	a5,pmpaddr3
   200f0:	00078413          	mv	s0,a5
   200f4:	00040793          	mv	a5,s0
   200f8:	00f13c23          	sd	a5,24(sp)
   200fc:	0580006f          	j	20154 <read_csr_num+0x110>
   20100:	3b4027f3          	csrr	a5,pmpaddr4
   20104:	00078413          	mv	s0,a5
   20108:	00040793          	mv	a5,s0
   2010c:	00f13c23          	sd	a5,24(sp)
   20110:	0440006f          	j	20154 <read_csr_num+0x110>
   20114:	3b5027f3          	csrr	a5,pmpaddr5
   20118:	00078413          	mv	s0,a5
   2011c:	00040793          	mv	a5,s0
   20120:	00f13c23          	sd	a5,24(sp)
   20124:	0300006f          	j	20154 <read_csr_num+0x110>
   20128:	3b6027f3          	csrr	a5,pmpaddr6
   2012c:	00078413          	mv	s0,a5
   20130:	00040793          	mv	a5,s0
   20134:	00f13c23          	sd	a5,24(sp)
   20138:	01c0006f          	j	20154 <read_csr_num+0x110>
   2013c:	3b7027f3          	csrr	a5,pmpaddr7
   20140:	00078413          	mv	s0,a5
   20144:	00040793          	mv	a5,s0
   20148:	00f13c23          	sd	a5,24(sp)
   2014c:	0080006f          	j	20154 <read_csr_num+0x110>
   20150:	00000013          	nop
   20154:	01813783          	ld	a5,24(sp)
   20158:	00078513          	mv	a0,a5
   2015c:	02813403          	ld	s0,40(sp)
   20160:	03010113          	addi	sp,sp,48
   20164:	00008067          	ret

0000000000020168 <write_csr_num>:
   20168:	fa010113          	addi	sp,sp,-96
   2016c:	00050793          	mv	a5,a0
   20170:	00b13023          	sd	a1,0(sp)
   20174:	00f12623          	sw	a5,12(sp)
   20178:	00c12783          	lw	a5,12(sp)
   2017c:	c607869b          	addiw	a3,a5,-928
   20180:	0006871b          	sext.w	a4,a3
   20184:	01700793          	li	a5,23
   20188:	0ee7e463          	bltu	a5,a4,20270 <write_csr_num+0x108>
   2018c:	02069793          	slli	a5,a3,0x20
   20190:	0207d793          	srli	a5,a5,0x20
   20194:	00279713          	slli	a4,a5,0x2
   20198:	00003797          	auipc	a5,0x3
   2019c:	44478793          	addi	a5,a5,1092 # 235dc <payload_bin+0x3060>
   201a0:	00f707b3          	add	a5,a4,a5
   201a4:	0007a783          	lw	a5,0(a5)
   201a8:	0007871b          	sext.w	a4,a5
   201ac:	00003797          	auipc	a5,0x3
   201b0:	43078793          	addi	a5,a5,1072 # 235dc <payload_bin+0x3060>
   201b4:	00f707b3          	add	a5,a4,a5
   201b8:	00078067          	jr	a5
   201bc:	00013783          	ld	a5,0(sp)
   201c0:	00f13c23          	sd	a5,24(sp)
   201c4:	01813783          	ld	a5,24(sp)
   201c8:	3a079073          	csrw	pmpcfg0,a5
   201cc:	0a80006f          	j	20274 <write_csr_num+0x10c>
   201d0:	00013783          	ld	a5,0(sp)
   201d4:	02f13023          	sd	a5,32(sp)
   201d8:	02013783          	ld	a5,32(sp)
   201dc:	3b079073          	csrw	pmpaddr0,a5
   201e0:	0940006f          	j	20274 <write_csr_num+0x10c>
   201e4:	00013783          	ld	a5,0(sp)
   201e8:	02f13423          	sd	a5,40(sp)
   201ec:	02813783          	ld	a5,40(sp)
   201f0:	3b179073          	csrw	pmpaddr1,a5
   201f4:	0800006f          	j	20274 <write_csr_num+0x10c>
   201f8:	00013783          	ld	a5,0(sp)
   201fc:	02f13823          	sd	a5,48(sp)
   20200:	03013783          	ld	a5,48(sp)
   20204:	3b279073          	csrw	pmpaddr2,a5
   20208:	06c0006f          	j	20274 <write_csr_num+0x10c>
   2020c:	00013783          	ld	a5,0(sp)
   20210:	02f13c23          	sd	a5,56(sp)
   20214:	03813783          	ld	a5,56(sp)
   20218:	3b379073          	csrw	pmpaddr3,a5
   2021c:	0580006f          	j	20274 <write_csr_num+0x10c>
   20220:	00013783          	ld	a5,0(sp)
   20224:	04f13023          	sd	a5,64(sp)
   20228:	04013783          	ld	a5,64(sp)
   2022c:	3b479073          	csrw	pmpaddr4,a5
   20230:	0440006f          	j	20274 <write_csr_num+0x10c>
   20234:	00013783          	ld	a5,0(sp)
   20238:	04f13423          	sd	a5,72(sp)
   2023c:	04813783          	ld	a5,72(sp)
   20240:	3b579073          	csrw	pmpaddr5,a5
   20244:	0300006f          	j	20274 <write_csr_num+0x10c>
   20248:	00013783          	ld	a5,0(sp)
   2024c:	04f13823          	sd	a5,80(sp)
   20250:	05013783          	ld	a5,80(sp)
   20254:	3b679073          	csrw	pmpaddr6,a5
   20258:	01c0006f          	j	20274 <write_csr_num+0x10c>
   2025c:	00013783          	ld	a5,0(sp)
   20260:	04f13c23          	sd	a5,88(sp)
   20264:	05813783          	ld	a5,88(sp)
   20268:	3b779073          	csrw	pmpaddr7,a5
   2026c:	0080006f          	j	20274 <write_csr_num+0x10c>
   20270:	00000013          	nop
   20274:	00000013          	nop
   20278:	06010113          	addi	sp,sp,96
   2027c:	00008067          	ret

0000000000020280 <log2roundup>:
   20280:	fe010113          	addi	sp,sp,-32
   20284:	00a13423          	sd	a0,8(sp)
   20288:	00013c23          	sd	zero,24(sp)
   2028c:	02c0006f          	j	202b8 <log2roundup+0x38>
   20290:	01813783          	ld	a5,24(sp)
   20294:	0007879b          	sext.w	a5,a5
   20298:	00078713          	mv	a4,a5
   2029c:	00100793          	li	a5,1
   202a0:	00e797b3          	sll	a5,a5,a4
   202a4:	00813703          	ld	a4,8(sp)
   202a8:	02e7f063          	bgeu	a5,a4,202c8 <log2roundup+0x48>
   202ac:	01813783          	ld	a5,24(sp)
   202b0:	00178793          	addi	a5,a5,1
   202b4:	00f13c23          	sd	a5,24(sp)
   202b8:	01813703          	ld	a4,24(sp)
   202bc:	03f00793          	li	a5,63
   202c0:	fce7f8e3          	bgeu	a5,a4,20290 <log2roundup+0x10>
   202c4:	0080006f          	j	202cc <log2roundup+0x4c>
   202c8:	00000013          	nop
   202cc:	01813783          	ld	a5,24(sp)
   202d0:	00078513          	mv	a0,a5
   202d4:	02010113          	addi	sp,sp,32
   202d8:	00008067          	ret

00000000000202dc <sbi_set_pmp>:
   202dc:	fa010113          	addi	sp,sp,-96
   202e0:	04113c23          	sd	ra,88(sp)
   202e4:	00050793          	mv	a5,a0
   202e8:	00b13823          	sd	a1,16(sp)
   202ec:	00c13423          	sd	a2,8(sp)
   202f0:	00d13023          	sd	a3,0(sp)
   202f4:	00f12e23          	sw	a5,28(sp)
   202f8:	01c12783          	lw	a5,28(sp)
   202fc:	0007871b          	sext.w	a4,a5
   20300:	00800793          	li	a5,8
   20304:	00e7d663          	bge	a5,a4,20310 <sbi_set_pmp+0x34>
   20308:	fff00793          	li	a5,-1
   2030c:	1940006f          	j	204a0 <sbi_set_pmp+0x1c4>
   20310:	00813503          	ld	a0,8(sp)
   20314:	f6dff0ef          	jal	ra,20280 <log2roundup>
   20318:	00050793          	mv	a5,a0
   2031c:	04f12223          	sw	a5,68(sp)
   20320:	04412783          	lw	a5,68(sp)
   20324:	0007871b          	sext.w	a4,a5
   20328:	00100793          	li	a5,1
   2032c:	00e7c663          	blt	a5,a4,20338 <sbi_set_pmp+0x5c>
   20330:	fff00793          	li	a5,-1
   20334:	16c0006f          	j	204a0 <sbi_set_pmp+0x1c4>
   20338:	01013783          	ld	a5,16(sp)
   2033c:	0027d793          	srli	a5,a5,0x2
   20340:	04f13423          	sd	a5,72(sp)
   20344:	01c12783          	lw	a5,28(sp)
   20348:	4027d79b          	sraiw	a5,a5,0x2
   2034c:	0007879b          	sext.w	a5,a5
   20350:	3a07879b          	addiw	a5,a5,928
   20354:	0007879b          	sext.w	a5,a5
   20358:	ffe7f793          	andi	a5,a5,-2
   2035c:	04f12023          	sw	a5,64(sp)
   20360:	01c12783          	lw	a5,28(sp)
   20364:	0037979b          	slliw	a5,a5,0x3
   20368:	0007879b          	sext.w	a5,a5
   2036c:	0387f793          	andi	a5,a5,56
   20370:	02f12e23          	sw	a5,60(sp)
   20374:	01c12783          	lw	a5,28(sp)
   20378:	3b07879b          	addiw	a5,a5,944
   2037c:	02f12c23          	sw	a5,56(sp)
   20380:	00013783          	ld	a5,0(sp)
   20384:	fe77f793          	andi	a5,a5,-25
   20388:	00f13023          	sd	a5,0(sp)
   2038c:	04412783          	lw	a5,68(sp)
   20390:	0007871b          	sext.w	a4,a5
   20394:	00200793          	li	a5,2
   20398:	00f71663          	bne	a4,a5,203a4 <sbi_set_pmp+0xc8>
   2039c:	01000793          	li	a5,16
   203a0:	0080006f          	j	203a8 <sbi_set_pmp+0xcc>
   203a4:	01800793          	li	a5,24
   203a8:	00013703          	ld	a4,0(sp)
   203ac:	00f767b3          	or	a5,a4,a5
   203b0:	00f13023          	sd	a5,0(sp)
   203b4:	03c12783          	lw	a5,60(sp)
   203b8:	0ff00713          	li	a4,255
   203bc:	00f717b3          	sll	a5,a4,a5
   203c0:	fff7c793          	not	a5,a5
   203c4:	02f13823          	sd	a5,48(sp)
   203c8:	04012783          	lw	a5,64(sp)
   203cc:	00078513          	mv	a0,a5
   203d0:	c75ff0ef          	jal	ra,20044 <read_csr_num>
   203d4:	00050713          	mv	a4,a0
   203d8:	03013783          	ld	a5,48(sp)
   203dc:	00e7f7b3          	and	a5,a5,a4
   203e0:	02f13423          	sd	a5,40(sp)
   203e4:	03c12783          	lw	a5,60(sp)
   203e8:	00013703          	ld	a4,0(sp)
   203ec:	00f71733          	sll	a4,a4,a5
   203f0:	03013783          	ld	a5,48(sp)
   203f4:	fff7c793          	not	a5,a5
   203f8:	00f777b3          	and	a5,a4,a5
   203fc:	02813703          	ld	a4,40(sp)
   20400:	00f767b3          	or	a5,a4,a5
   20404:	02f13423          	sd	a5,40(sp)
   20408:	04412783          	lw	a5,68(sp)
   2040c:	0007871b          	sext.w	a4,a5
   20410:	00200793          	li	a5,2
   20414:	06e7d463          	bge	a5,a4,2047c <sbi_set_pmp+0x1a0>
   20418:	04412783          	lw	a5,68(sp)
   2041c:	0007871b          	sext.w	a4,a5
   20420:	04000793          	li	a5,64
   20424:	00f71863          	bne	a4,a5,20434 <sbi_set_pmp+0x158>
   20428:	fff00793          	li	a5,-1
   2042c:	04f13423          	sd	a5,72(sp)
   20430:	04c0006f          	j	2047c <sbi_set_pmp+0x1a0>
   20434:	04412783          	lw	a5,68(sp)
   20438:	ffe7879b          	addiw	a5,a5,-2
   2043c:	0007879b          	sext.w	a5,a5
   20440:	00078713          	mv	a4,a5
   20444:	00100793          	li	a5,1
   20448:	00e797b3          	sll	a5,a5,a4
   2044c:	fff78793          	addi	a5,a5,-1
   20450:	02f13023          	sd	a5,32(sp)
   20454:	02013783          	ld	a5,32(sp)
   20458:	fff7c793          	not	a5,a5
   2045c:	04813703          	ld	a4,72(sp)
   20460:	00f777b3          	and	a5,a4,a5
   20464:	04f13423          	sd	a5,72(sp)
   20468:	02013783          	ld	a5,32(sp)
   2046c:	0017d793          	srli	a5,a5,0x1
   20470:	04813703          	ld	a4,72(sp)
   20474:	00f767b3          	or	a5,a4,a5
   20478:	04f13423          	sd	a5,72(sp)
   2047c:	03812783          	lw	a5,56(sp)
   20480:	04813583          	ld	a1,72(sp)
   20484:	00078513          	mv	a0,a5
   20488:	ce1ff0ef          	jal	ra,20168 <write_csr_num>
   2048c:	04012783          	lw	a5,64(sp)
   20490:	02813583          	ld	a1,40(sp)
   20494:	00078513          	mv	a0,a5
   20498:	cd1ff0ef          	jal	ra,20168 <write_csr_num>
   2049c:	00000793          	li	a5,0
   204a0:	00078513          	mv	a0,a5
   204a4:	05813083          	ld	ra,88(sp)
   204a8:	06010113          	addi	sp,sp,96
   204ac:	00008067          	ret

00000000000204b0 <sbi_main>:
   204b0:	fb010113          	addi	sp,sp,-80
   204b4:	04113423          	sd	ra,72(sp)
   204b8:	04813023          	sd	s0,64(sp)
   204bc:	00700693          	li	a3,7
   204c0:	fff00613          	li	a2,-1
   204c4:	00000593          	li	a1,0
   204c8:	00000513          	li	a0,0
   204cc:	e11ff0ef          	jal	ra,202dc <sbi_set_pmp>
   204d0:	300027f3          	csrr	a5,mstatus
   204d4:	00078413          	mv	s0,a5
   204d8:	00040793          	mv	a5,s0
   204dc:	02f13c23          	sd	a5,56(sp)
   204e0:	03813703          	ld	a4,56(sp)
   204e4:	ffffe7b7          	lui	a5,0xffffe
   204e8:	7ff78793          	addi	a5,a5,2047 # ffffffffffffe7ff <bss_begin+0xfffffffffffd97ff>
   204ec:	00f77733          	and	a4,a4,a5
   204f0:	000017b7          	lui	a5,0x1
   204f4:	80078793          	addi	a5,a5,-2048 # 800 <__bin_size-0x4800>
   204f8:	00f767b3          	or	a5,a4,a5
   204fc:	02f13c23          	sd	a5,56(sp)
   20500:	03813783          	ld	a5,56(sp)
   20504:	f7f7f793          	andi	a5,a5,-129
   20508:	02f13c23          	sd	a5,56(sp)
   2050c:	03813783          	ld	a5,56(sp)
   20510:	02f13823          	sd	a5,48(sp)
   20514:	03013783          	ld	a5,48(sp)
   20518:	30079073          	csrw	mstatus,a5
   2051c:	000227b7          	lui	a5,0x22
   20520:	02f13423          	sd	a5,40(sp)
   20524:	02813783          	ld	a5,40(sp)
   20528:	34179073          	csrw	mepc,a5
   2052c:	000207b7          	lui	a5,0x20
   20530:	02f13023          	sd	a5,32(sp)
   20534:	02013783          	ld	a5,32(sp)
   20538:	30579073          	csrw	mtvec,a5
   2053c:	000227b7          	lui	a5,0x22
   20540:	00f13c23          	sd	a5,24(sp)
   20544:	01813783          	ld	a5,24(sp)
   20548:	10579073          	csrw	stvec,a5
   2054c:	00013823          	sd	zero,16(sp)
   20550:	01013783          	ld	a5,16(sp)
   20554:	10479073          	csrw	sie,a5
   20558:	00013423          	sd	zero,8(sp)
   2055c:	00813783          	ld	a5,8(sp)
   20560:	18079073          	csrw	satp,a5
   20564:	30200073          	mret
   20568:	00000013          	nop
   2056c:	04813083          	ld	ra,72(sp)
   20570:	04013403          	ld	s0,64(sp)
   20574:	05010113          	addi	sp,sp,80
   20578:	00008067          	ret

Disassembly of section .payload:

000000000002057c <payload_bin>:
   2057c:	10401073          	csrw	sie,zero
   20580:	5a8010ef          	jal	ra,21b28 <payload_bin+0x15ac>
   20584:	00000097          	auipc	ra,0x0
   20588:	01c080e7          	jalr	28(ra) # 205a0 <payload_bin+0x24>
   2058c:	00002117          	auipc	sp,0x2
   20590:	ff010113          	addi	sp,sp,-16 # 2257c <payload_bin+0x2000>
   20594:	000012b7          	lui	t0,0x1
   20598:	00510133          	add	sp,sp,t0
   2059c:	1280006f          	j	206c4 <payload_bin+0x148>
   205a0:	00008493          	mv	s1,ra
   205a4:	00001517          	auipc	a0,0x1
   205a8:	6f850513          	addi	a0,a0,1784 # 21c9c <payload_bin+0x1720>
   205ac:	63c010ef          	jal	ra,21be8 <payload_bin+0x166c>
   205b0:	00048093          	mv	ra,s1
   205b4:	00008067          	ret
   205b8:	0000                	unimp
   205ba:	0000                	unimp
   205bc:	fe010113          	addi	sp,sp,-32
   205c0:	00113c23          	sd	ra,24(sp)
   205c4:	410010ef          	jal	ra,219d4 <payload_bin+0x1458>
   205c8:	440010ef          	jal	ra,21a08 <payload_bin+0x148c>
   205cc:	44c010ef          	jal	ra,21a18 <payload_bin+0x149c>
   205d0:	490010ef          	jal	ra,21a60 <payload_bin+0x14e4>
   205d4:	00900593          	li	a1,9
   205d8:	00a00513          	li	a0,10
   205dc:	4c8010ef          	jal	ra,21aa4 <payload_bin+0x1528>
   205e0:	00a13423          	sd	a0,8(sp)
   205e4:	00813783          	ld	a5,8(sp)
   205e8:	00079a63          	bnez	a5,205fc <payload_bin+0x80>
   205ec:	00001517          	auipc	a0,0x1
   205f0:	63850513          	addi	a0,a0,1592 # 21c24 <payload_bin+0x16a8>
   205f4:	5e9000ef          	jal	ra,213dc <payload_bin+0xe60>
   205f8:	0100006f          	j	20608 <payload_bin+0x8c>
   205fc:	00001517          	auipc	a0,0x1
   20600:	64050513          	addi	a0,a0,1600 # 21c3c <payload_bin+0x16c0>
   20604:	5d9000ef          	jal	ra,213dc <payload_bin+0xe60>
   20608:	00a00593          	li	a1,10
   2060c:	00900513          	li	a0,9
   20610:	494010ef          	jal	ra,21aa4 <payload_bin+0x1528>
   20614:	00a13023          	sd	a0,0(sp)
   20618:	00013703          	ld	a4,0(sp)
   2061c:	fff00793          	li	a5,-1
   20620:	00f71a63          	bne	a4,a5,20634 <payload_bin+0xb8>
   20624:	00001517          	auipc	a0,0x1
   20628:	60050513          	addi	a0,a0,1536 # 21c24 <payload_bin+0x16a8>
   2062c:	5b1000ef          	jal	ra,213dc <payload_bin+0xe60>
   20630:	0100006f          	j	20640 <payload_bin+0xc4>
   20634:	00001517          	auipc	a0,0x1
   20638:	60850513          	addi	a0,a0,1544 # 21c3c <payload_bin+0x16c0>
   2063c:	5a1000ef          	jal	ra,213dc <payload_bin+0xe60>
   20640:	00900593          	li	a1,9
   20644:	00000513          	li	a0,0
   20648:	474010ef          	jal	ra,21abc <payload_bin+0x1540>
   2064c:	00a13423          	sd	a0,8(sp)
   20650:	00813703          	ld	a4,8(sp)
   20654:	00b00793          	li	a5,11
   20658:	00f71863          	bne	a4,a5,20668 <payload_bin+0xec>
   2065c:	00001517          	auipc	a0,0x1
   20660:	60050513          	addi	a0,a0,1536 # 21c5c <payload_bin+0x16e0>
   20664:	579000ef          	jal	ra,213dc <payload_bin+0xe60>
   20668:	00200593          	li	a1,2
   2066c:	00500513          	li	a0,5
   20670:	44c010ef          	jal	ra,21abc <payload_bin+0x1540>
   20674:	00a13023          	sd	a0,0(sp)
   20678:	00013703          	ld	a4,0(sp)
   2067c:	00100793          	li	a5,1
   20680:	00f71863          	bne	a4,a5,20690 <payload_bin+0x114>
   20684:	00001517          	auipc	a0,0x1
   20688:	5d850513          	addi	a0,a0,1496 # 21c5c <payload_bin+0x16e0>
   2068c:	551000ef          	jal	ra,213dc <payload_bin+0xe60>
   20690:	444010ef          	jal	ra,21ad4 <payload_bin+0x1558>
   20694:	02800613          	li	a2,40
   20698:	05500593          	li	a1,85
   2069c:	00020537          	lui	a0,0x20
   206a0:	270000ef          	jal	ra,20910 <payload_bin+0x394>
   206a4:	460010ef          	jal	ra,21b04 <payload_bin+0x1588>
   206a8:	00001517          	auipc	a0,0x1
   206ac:	5c450513          	addi	a0,a0,1476 # 21c6c <payload_bin+0x16f0>
   206b0:	52d000ef          	jal	ra,213dc <payload_bin+0xe60>
   206b4:	00000013          	nop
   206b8:	01813083          	ld	ra,24(sp)
   206bc:	02010113          	addi	sp,sp,32
   206c0:	00008067          	ret
   206c4:	ff010113          	addi	sp,sp,-16
   206c8:	00113423          	sd	ra,8(sp)
   206cc:	139000ef          	jal	ra,21004 <payload_bin+0xa88>
   206d0:	215000ef          	jal	ra,210e4 <payload_bin+0xb68>
   206d4:	00001517          	auipc	a0,0x1
   206d8:	5b050513          	addi	a0,a0,1456 # 21c84 <payload_bin+0x1708>
   206dc:	501000ef          	jal	ra,213dc <payload_bin+0xe60>
   206e0:	eddff0ef          	jal	ra,205bc <payload_bin+0x40>
   206e4:	0000006f          	j	206e4 <payload_bin+0x168>
   206e8:	fd010113          	addi	sp,sp,-48
   206ec:	00a13c23          	sd	a0,24(sp)
   206f0:	00b13823          	sd	a1,16(sp)
   206f4:	00060793          	mv	a5,a2
   206f8:	00f12623          	sw	a5,12(sp)
   206fc:	02012623          	sw	zero,44(sp)
   20700:	01013603          	ld	a2,16(sp)
   20704:	01813683          	ld	a3,24(sp)
   20708:	00c12703          	lw	a4,12(sp)
   2070c:	02c12783          	lw	a5,44(sp)
   20710:	00c6b023          	sd	a2,0(a3)
   20714:	00c6b423          	sd	a2,8(a3)
   20718:	01078793          	addi	a5,a5,16 # 22010 <payload_bin+0x1a94>
   2071c:	fee7cae3          	blt	a5,a4,20710 <payload_bin+0x194>
   20720:	00d13c23          	sd	a3,24(sp)
   20724:	00e12623          	sw	a4,12(sp)
   20728:	02f12623          	sw	a5,44(sp)
   2072c:	00000013          	nop
   20730:	03010113          	addi	sp,sp,48
   20734:	00008067          	ret
   20738:	fd010113          	addi	sp,sp,-48
   2073c:	00a13c23          	sd	a0,24(sp)
   20740:	00058793          	mv	a5,a1
   20744:	00c13423          	sd	a2,8(sp)
   20748:	00f12a23          	sw	a5,20(sp)
   2074c:	01813783          	ld	a5,24(sp)
   20750:	02f13423          	sd	a5,40(sp)
   20754:	01c0006f          	j	20770 <payload_bin+0x1f4>
   20758:	02813783          	ld	a5,40(sp)
   2075c:	00178713          	addi	a4,a5,1
   20760:	02e13423          	sd	a4,40(sp)
   20764:	01412703          	lw	a4,20(sp)
   20768:	0ff77713          	andi	a4,a4,255
   2076c:	00e78023          	sb	a4,0(a5)
   20770:	00813783          	ld	a5,8(sp)
   20774:	fff78713          	addi	a4,a5,-1
   20778:	00e13423          	sd	a4,8(sp)
   2077c:	fc079ee3          	bnez	a5,20758 <payload_bin+0x1dc>
   20780:	01813783          	ld	a5,24(sp)
   20784:	00078513          	mv	a0,a5
   20788:	03010113          	addi	sp,sp,48
   2078c:	00008067          	ret
   20790:	f9010113          	addi	sp,sp,-112
   20794:	06113423          	sd	ra,104(sp)
   20798:	00a13c23          	sd	a0,24(sp)
   2079c:	00058793          	mv	a5,a1
   207a0:	00c13423          	sd	a2,8(sp)
   207a4:	00f12a23          	sw	a5,20(sp)
   207a8:	01813783          	ld	a5,24(sp)
   207ac:	04f13c23          	sd	a5,88(sp)
   207b0:	01000793          	li	a5,16
   207b4:	02f13c23          	sd	a5,56(sp)
   207b8:	00813783          	ld	a5,8(sp)
   207bc:	04f13823          	sd	a5,80(sp)
   207c0:	05813783          	ld	a5,88(sp)
   207c4:	02f13823          	sd	a5,48(sp)
   207c8:	04013023          	sd	zero,64(sp)
   207cc:	04012623          	sw	zero,76(sp)
   207d0:	0340006f          	j	20804 <payload_bin+0x288>
   207d4:	01412783          	lw	a5,20(sp)
   207d8:	0ff7f793          	andi	a5,a5,255
   207dc:	04c12703          	lw	a4,76(sp)
   207e0:	0037171b          	slliw	a4,a4,0x3
   207e4:	0007071b          	sext.w	a4,a4
   207e8:	00e797b3          	sll	a5,a5,a4
   207ec:	04013703          	ld	a4,64(sp)
   207f0:	00f767b3          	or	a5,a4,a5
   207f4:	04f13023          	sd	a5,64(sp)
   207f8:	04c12783          	lw	a5,76(sp)
   207fc:	0017879b          	addiw	a5,a5,1
   20800:	04f12623          	sw	a5,76(sp)
   20804:	04c12783          	lw	a5,76(sp)
   20808:	0007871b          	sext.w	a4,a5
   2080c:	00700793          	li	a5,7
   20810:	fce7d2e3          	bge	a5,a4,207d4 <payload_bin+0x258>
   20814:	03813783          	ld	a5,56(sp)
   20818:	fff78713          	addi	a4,a5,-1
   2081c:	03013783          	ld	a5,48(sp)
   20820:	00f777b3          	and	a5,a4,a5
   20824:	04078e63          	beqz	a5,20880 <payload_bin+0x304>
   20828:	03813783          	ld	a5,56(sp)
   2082c:	fff78793          	addi	a5,a5,-1
   20830:	03013703          	ld	a4,48(sp)
   20834:	00f777b3          	and	a5,a4,a5
   20838:	02f13423          	sd	a5,40(sp)
   2083c:	03813703          	ld	a4,56(sp)
   20840:	02813783          	ld	a5,40(sp)
   20844:	40f707b3          	sub	a5,a4,a5
   20848:	02f13423          	sd	a5,40(sp)
   2084c:	01412783          	lw	a5,20(sp)
   20850:	02813603          	ld	a2,40(sp)
   20854:	00078593          	mv	a1,a5
   20858:	05813503          	ld	a0,88(sp)
   2085c:	eddff0ef          	jal	ra,20738 <payload_bin+0x1bc>
   20860:	05813703          	ld	a4,88(sp)
   20864:	02813783          	ld	a5,40(sp)
   20868:	00f707b3          	add	a5,a4,a5
   2086c:	04f13c23          	sd	a5,88(sp)
   20870:	00813703          	ld	a4,8(sp)
   20874:	02813783          	ld	a5,40(sp)
   20878:	40f707b3          	sub	a5,a4,a5
   2087c:	04f13823          	sd	a5,80(sp)
   20880:	05013703          	ld	a4,80(sp)
   20884:	03813783          	ld	a5,56(sp)
   20888:	06e7fa63          	bgeu	a5,a4,208fc <payload_bin+0x380>
   2088c:	05013703          	ld	a4,80(sp)
   20890:	03813783          	ld	a5,56(sp)
   20894:	02f757b3          	divu	a5,a4,a5
   20898:	02f12223          	sw	a5,36(sp)
   2089c:	05013703          	ld	a4,80(sp)
   208a0:	03813783          	ld	a5,56(sp)
   208a4:	02f777b3          	remu	a5,a4,a5
   208a8:	04f13823          	sd	a5,80(sp)
   208ac:	02412783          	lw	a5,36(sp)
   208b0:	0047979b          	slliw	a5,a5,0x4
   208b4:	0007879b          	sext.w	a5,a5
   208b8:	00078613          	mv	a2,a5
   208bc:	04013583          	ld	a1,64(sp)
   208c0:	05813503          	ld	a0,88(sp)
   208c4:	e25ff0ef          	jal	ra,206e8 <payload_bin+0x16c>
   208c8:	05013783          	ld	a5,80(sp)
   208cc:	02078863          	beqz	a5,208fc <payload_bin+0x380>
   208d0:	02412783          	lw	a5,36(sp)
   208d4:	0047979b          	slliw	a5,a5,0x4
   208d8:	0007879b          	sext.w	a5,a5
   208dc:	00078713          	mv	a4,a5
   208e0:	05813783          	ld	a5,88(sp)
   208e4:	00e787b3          	add	a5,a5,a4
   208e8:	01412703          	lw	a4,20(sp)
   208ec:	05013603          	ld	a2,80(sp)
   208f0:	00070593          	mv	a1,a4
   208f4:	00078513          	mv	a0,a5
   208f8:	e41ff0ef          	jal	ra,20738 <payload_bin+0x1bc>
   208fc:	01813783          	ld	a5,24(sp)
   20900:	00078513          	mv	a0,a5
   20904:	06813083          	ld	ra,104(sp)
   20908:	07010113          	addi	sp,sp,112
   2090c:	00008067          	ret
   20910:	fd010113          	addi	sp,sp,-48
   20914:	02113423          	sd	ra,40(sp)
   20918:	00a13c23          	sd	a0,24(sp)
   2091c:	00058793          	mv	a5,a1
   20920:	00c13423          	sd	a2,8(sp)
   20924:	00f12a23          	sw	a5,20(sp)
   20928:	01412783          	lw	a5,20(sp)
   2092c:	00813603          	ld	a2,8(sp)
   20930:	00078593          	mv	a1,a5
   20934:	01813503          	ld	a0,24(sp)
   20938:	e59ff0ef          	jal	ra,20790 <payload_bin+0x214>
   2093c:	00050793          	mv	a5,a0
   20940:	00078513          	mv	a0,a5
   20944:	02813083          	ld	ra,40(sp)
   20948:	03010113          	addi	sp,sp,48
   2094c:	00008067          	ret
   20950:	ff010113          	addi	sp,sp,-16
   20954:	00a13423          	sd	a0,8(sp)
   20958:	00813783          	ld	a5,8(sp)
   2095c:	0007a783          	lw	a5,0(a5)
   20960:	0007879b          	sext.w	a5,a5
   20964:	00078513          	mv	a0,a5
   20968:	01010113          	addi	sp,sp,16
   2096c:	00008067          	ret
   20970:	ff010113          	addi	sp,sp,-16
   20974:	00a13423          	sd	a0,8(sp)
   20978:	00058793          	mv	a5,a1
   2097c:	00f12223          	sw	a5,4(sp)
   20980:	00813783          	ld	a5,8(sp)
   20984:	00412703          	lw	a4,4(sp)
   20988:	00e7a023          	sw	a4,0(a5)
   2098c:	00000013          	nop
   20990:	01010113          	addi	sp,sp,16
   20994:	00008067          	ret
   20998:	ff010113          	addi	sp,sp,-16
   2099c:	00a13423          	sd	a0,8(sp)
   209a0:	00813783          	ld	a5,8(sp)
   209a4:	00a79793          	slli	a5,a5,0xa
   209a8:	00f13423          	sd	a5,8(sp)
   209ac:	00000013          	nop
   209b0:	00813783          	ld	a5,8(sp)
   209b4:	fff78713          	addi	a4,a5,-1
   209b8:	00e13423          	sd	a4,8(sp)
   209bc:	fe079ae3          	bnez	a5,209b0 <payload_bin+0x434>
   209c0:	00000013          	nop
   209c4:	00000013          	nop
   209c8:	01010113          	addi	sp,sp,16
   209cc:	00008067          	ret
   209d0:	fe010113          	addi	sp,sp,-32
   209d4:	00113c23          	sd	ra,24(sp)
   209d8:	30100593          	li	a1,769
   209dc:	020027b7          	lui	a5,0x2002
   209e0:	d0078513          	addi	a0,a5,-768 # 2001d00 <bss_begin+0x1fdcd00>
   209e4:	f8dff0ef          	jal	ra,20970 <payload_bin+0x3f4>
   209e8:	00100513          	li	a0,1
   209ec:	fadff0ef          	jal	ra,20998 <payload_bin+0x41c>
   209f0:	02001537          	lui	a0,0x2001
   209f4:	f5dff0ef          	jal	ra,20950 <payload_bin+0x3d4>
   209f8:	00050793          	mv	a5,a0
   209fc:	00f12623          	sw	a5,12(sp)
   20a00:	00c12703          	lw	a4,12(sp)
   20a04:	f80007b7          	lui	a5,0xf8000
   20a08:	fff78793          	addi	a5,a5,-1 # fffffffff7ffffff <bss_begin+0xfffffffff7fdafff>
   20a0c:	00f777b3          	and	a5,a4,a5
   20a10:	00f12623          	sw	a5,12(sp)
   20a14:	00c12783          	lw	a5,12(sp)
   20a18:	00078593          	mv	a1,a5
   20a1c:	02001537          	lui	a0,0x2001
   20a20:	f51ff0ef          	jal	ra,20970 <payload_bin+0x3f4>
   20a24:	02001537          	lui	a0,0x2001
   20a28:	f29ff0ef          	jal	ra,20950 <payload_bin+0x3d4>
   20a2c:	00050793          	mv	a5,a0
   20a30:	00f12623          	sw	a5,12(sp)
   20a34:	00c12703          	lw	a4,12(sp)
   20a38:	400007b7          	lui	a5,0x40000
   20a3c:	00f767b3          	or	a5,a4,a5
   20a40:	00f12623          	sw	a5,12(sp)
   20a44:	00c12783          	lw	a5,12(sp)
   20a48:	00078593          	mv	a1,a5
   20a4c:	02001537          	lui	a0,0x2001
   20a50:	f21ff0ef          	jal	ra,20970 <payload_bin+0x3f4>
   20a54:	00500513          	li	a0,5
   20a58:	f41ff0ef          	jal	ra,20998 <payload_bin+0x41c>
   20a5c:	02001537          	lui	a0,0x2001
   20a60:	ef1ff0ef          	jal	ra,20950 <payload_bin+0x3d4>
   20a64:	00050793          	mv	a5,a0
   20a68:	00f12623          	sw	a5,12(sp)
   20a6c:	00c12703          	lw	a4,12(sp)
   20a70:	fffc07b7          	lui	a5,0xfffc0
   20a74:	0fc78793          	addi	a5,a5,252 # fffffffffffc00fc <bss_begin+0xfffffffffff9b0fc>
   20a78:	00f777b3          	and	a5,a4,a5
   20a7c:	00f12623          	sw	a5,12(sp)
   20a80:	00c12703          	lw	a4,12(sp)
   20a84:	000037b7          	lui	a5,0x3
   20a88:	90078793          	addi	a5,a5,-1792 # 2900 <__bin_size-0x2700>
   20a8c:	00f767b3          	or	a5,a4,a5
   20a90:	00f12623          	sw	a5,12(sp)
   20a94:	00c12783          	lw	a5,12(sp)
   20a98:	00078593          	mv	a1,a5
   20a9c:	02001537          	lui	a0,0x2001
   20aa0:	ed1ff0ef          	jal	ra,20970 <payload_bin+0x3f4>
   20aa4:	02001537          	lui	a0,0x2001
   20aa8:	ea9ff0ef          	jal	ra,20950 <payload_bin+0x3d4>
   20aac:	00050793          	mv	a5,a0
   20ab0:	00f12623          	sw	a5,12(sp)
   20ab4:	00c12703          	lw	a4,12(sp)
   20ab8:	200007b7          	lui	a5,0x20000
   20abc:	00f767b3          	or	a5,a4,a5
   20ac0:	00f12623          	sw	a5,12(sp)
   20ac4:	00c12783          	lw	a5,12(sp)
   20ac8:	00078593          	mv	a1,a5
   20acc:	02001537          	lui	a0,0x2001
   20ad0:	ea1ff0ef          	jal	ra,20970 <payload_bin+0x3f4>
   20ad4:	02001537          	lui	a0,0x2001
   20ad8:	e79ff0ef          	jal	ra,20950 <payload_bin+0x3d4>
   20adc:	00050793          	mv	a5,a0
   20ae0:	00f12623          	sw	a5,12(sp)
   20ae4:	00c12703          	lw	a4,12(sp)
   20ae8:	800007b7          	lui	a5,0x80000
   20aec:	00f767b3          	or	a5,a4,a5
   20af0:	00f12623          	sw	a5,12(sp)
   20af4:	00c12783          	lw	a5,12(sp)
   20af8:	00078593          	mv	a1,a5
   20afc:	02001537          	lui	a0,0x2001
   20b00:	e71ff0ef          	jal	ra,20970 <payload_bin+0x3f4>
   20b04:	00000013          	nop
   20b08:	02001537          	lui	a0,0x2001
   20b0c:	e45ff0ef          	jal	ra,20950 <payload_bin+0x3d4>
   20b10:	00050793          	mv	a5,a0
   20b14:	0007879b          	sext.w	a5,a5
   20b18:	00078713          	mv	a4,a5
   20b1c:	100007b7          	lui	a5,0x10000
   20b20:	00f777b3          	and	a5,a4,a5
   20b24:	0007879b          	sext.w	a5,a5
   20b28:	fe0780e3          	beqz	a5,20b08 <payload_bin+0x58c>
   20b2c:	01400513          	li	a0,20
   20b30:	e69ff0ef          	jal	ra,20998 <payload_bin+0x41c>
   20b34:	02001537          	lui	a0,0x2001
   20b38:	e19ff0ef          	jal	ra,20950 <payload_bin+0x3d4>
   20b3c:	00050793          	mv	a5,a0
   20b40:	00f12623          	sw	a5,12(sp)
   20b44:	00c12703          	lw	a4,12(sp)
   20b48:	080007b7          	lui	a5,0x8000
   20b4c:	00f767b3          	or	a5,a4,a5
   20b50:	00f12623          	sw	a5,12(sp)
   20b54:	00c12783          	lw	a5,12(sp)
   20b58:	00078593          	mv	a1,a5
   20b5c:	02001537          	lui	a0,0x2001
   20b60:	e11ff0ef          	jal	ra,20970 <payload_bin+0x3f4>
   20b64:	02001537          	lui	a0,0x2001
   20b68:	de9ff0ef          	jal	ra,20950 <payload_bin+0x3d4>
   20b6c:	00050793          	mv	a5,a0
   20b70:	00f12623          	sw	a5,12(sp)
   20b74:	00c12703          	lw	a4,12(sp)
   20b78:	e00007b7          	lui	a5,0xe0000
   20b7c:	fff78793          	addi	a5,a5,-1 # ffffffffdfffffff <bss_begin+0xffffffffdffdafff>
   20b80:	00f777b3          	and	a5,a4,a5
   20b84:	00f12623          	sw	a5,12(sp)
   20b88:	00c12783          	lw	a5,12(sp)
   20b8c:	00078593          	mv	a1,a5
   20b90:	02001537          	lui	a0,0x2001
   20b94:	dddff0ef          	jal	ra,20970 <payload_bin+0x3f4>
   20b98:	00100513          	li	a0,1
   20b9c:	dfdff0ef          	jal	ra,20998 <payload_bin+0x41c>
   20ba0:	020027b7          	lui	a5,0x2002
   20ba4:	d0078513          	addi	a0,a5,-768 # 2001d00 <bss_begin+0x1fdcd00>
   20ba8:	da9ff0ef          	jal	ra,20950 <payload_bin+0x3d4>
   20bac:	00050793          	mv	a5,a0
   20bb0:	00f12623          	sw	a5,12(sp)
   20bb4:	00c12703          	lw	a4,12(sp)
   20bb8:	f90007b7          	lui	a5,0xf9000
   20bbc:	cf078793          	addi	a5,a5,-784 # fffffffff8fffcf0 <bss_begin+0xfffffffff8fdacf0>
   20bc0:	00f777b3          	and	a5,a4,a5
   20bc4:	00f12623          	sw	a5,12(sp)
   20bc8:	00c12703          	lw	a4,12(sp)
   20bcc:	050007b7          	lui	a5,0x5000
   20bd0:	10078793          	addi	a5,a5,256 # 5000100 <bss_begin+0x4fdb100>
   20bd4:	00f767b3          	or	a5,a4,a5
   20bd8:	00f12623          	sw	a5,12(sp)
   20bdc:	00c12783          	lw	a5,12(sp)
   20be0:	00078593          	mv	a1,a5
   20be4:	020027b7          	lui	a5,0x2002
   20be8:	d0078513          	addi	a0,a5,-768 # 2001d00 <bss_begin+0x1fdcd00>
   20bec:	d85ff0ef          	jal	ra,20970 <payload_bin+0x3f4>
   20bf0:	00100513          	li	a0,1
   20bf4:	da5ff0ef          	jal	ra,20998 <payload_bin+0x41c>
   20bf8:	00000013          	nop
   20bfc:	01813083          	ld	ra,24(sp)
   20c00:	02010113          	addi	sp,sp,32
   20c04:	00008067          	ret
   20c08:	fe010113          	addi	sp,sp,-32
   20c0c:	00113c23          	sd	ra,24(sp)
   20c10:	020017b7          	lui	a5,0x2001
   20c14:	02078513          	addi	a0,a5,32 # 2001020 <bss_begin+0x1fdc020>
   20c18:	d39ff0ef          	jal	ra,20950 <payload_bin+0x3d4>
   20c1c:	00050793          	mv	a5,a0
   20c20:	0007879b          	sext.w	a5,a5
   20c24:	0007879b          	sext.w	a5,a5
   20c28:	1207cc63          	bltz	a5,20d60 <payload_bin+0x7e4>
   20c2c:	020017b7          	lui	a5,0x2001
   20c30:	51078513          	addi	a0,a5,1296 # 2001510 <bss_begin+0x1fdc510>
   20c34:	d1dff0ef          	jal	ra,20950 <payload_bin+0x3d4>
   20c38:	00050793          	mv	a5,a0
   20c3c:	00f12623          	sw	a5,12(sp)
   20c40:	00c12703          	lw	a4,12(sp)
   20c44:	fd0007b7          	lui	a5,0xfd000
   20c48:	fff78793          	addi	a5,a5,-1 # fffffffffcffffff <bss_begin+0xfffffffffcfdafff>
   20c4c:	00f777b3          	and	a5,a4,a5
   20c50:	00f12623          	sw	a5,12(sp)
   20c54:	00c16703          	lwu	a4,12(sp)
   20c58:	020017b7          	lui	a5,0x2001
   20c5c:	51078593          	addi	a1,a5,1296 # 2001510 <bss_begin+0x1fdc510>
   20c60:	00070513          	mv	a0,a4
   20c64:	d0dff0ef          	jal	ra,20970 <payload_bin+0x3f4>
   20c68:	000067b7          	lui	a5,0x6
   20c6c:	30078593          	addi	a1,a5,768 # 6300 <__bin_size+0x1300>
   20c70:	020017b7          	lui	a5,0x2001
   20c74:	02078513          	addi	a0,a5,32 # 2001020 <bss_begin+0x1fdc020>
   20c78:	cf9ff0ef          	jal	ra,20970 <payload_bin+0x3f4>
   20c7c:	020017b7          	lui	a5,0x2001
   20c80:	02078513          	addi	a0,a5,32 # 2001020 <bss_begin+0x1fdc020>
   20c84:	ccdff0ef          	jal	ra,20950 <payload_bin+0x3d4>
   20c88:	00050793          	mv	a5,a0
   20c8c:	00f12623          	sw	a5,12(sp)
   20c90:	00c12703          	lw	a4,12(sp)
   20c94:	200007b7          	lui	a5,0x20000
   20c98:	00f767b3          	or	a5,a4,a5
   20c9c:	00f12623          	sw	a5,12(sp)
   20ca0:	00c12783          	lw	a5,12(sp)
   20ca4:	00078593          	mv	a1,a5
   20ca8:	020017b7          	lui	a5,0x2001
   20cac:	02078513          	addi	a0,a5,32 # 2001020 <bss_begin+0x1fdc020>
   20cb0:	cc1ff0ef          	jal	ra,20970 <payload_bin+0x3f4>
   20cb4:	020017b7          	lui	a5,0x2001
   20cb8:	02078513          	addi	a0,a5,32 # 2001020 <bss_begin+0x1fdc020>
   20cbc:	c95ff0ef          	jal	ra,20950 <payload_bin+0x3d4>
   20cc0:	00050793          	mv	a5,a0
   20cc4:	00f12623          	sw	a5,12(sp)
   20cc8:	00c12703          	lw	a4,12(sp)
   20ccc:	800007b7          	lui	a5,0x80000
   20cd0:	00f767b3          	or	a5,a4,a5
   20cd4:	00f12623          	sw	a5,12(sp)
   20cd8:	00c12783          	lw	a5,12(sp)
   20cdc:	00078593          	mv	a1,a5
   20ce0:	020017b7          	lui	a5,0x2001
   20ce4:	02078513          	addi	a0,a5,32 # 2001020 <bss_begin+0x1fdc020>
   20ce8:	c89ff0ef          	jal	ra,20970 <payload_bin+0x3f4>
   20cec:	00000013          	nop
   20cf0:	020017b7          	lui	a5,0x2001
   20cf4:	02078513          	addi	a0,a5,32 # 2001020 <bss_begin+0x1fdc020>
   20cf8:	c59ff0ef          	jal	ra,20950 <payload_bin+0x3d4>
   20cfc:	00050793          	mv	a5,a0
   20d00:	0007879b          	sext.w	a5,a5
   20d04:	00078713          	mv	a4,a5
   20d08:	100007b7          	lui	a5,0x10000
   20d0c:	00f777b3          	and	a5,a4,a5
   20d10:	0007879b          	sext.w	a5,a5
   20d14:	fc078ee3          	beqz	a5,20cf0 <payload_bin+0x774>
   20d18:	01400513          	li	a0,20
   20d1c:	c7dff0ef          	jal	ra,20998 <payload_bin+0x41c>
   20d20:	020017b7          	lui	a5,0x2001
   20d24:	02078513          	addi	a0,a5,32 # 2001020 <bss_begin+0x1fdc020>
   20d28:	c29ff0ef          	jal	ra,20950 <payload_bin+0x3d4>
   20d2c:	00050793          	mv	a5,a0
   20d30:	00f12623          	sw	a5,12(sp)
   20d34:	00c12703          	lw	a4,12(sp)
   20d38:	e00007b7          	lui	a5,0xe0000
   20d3c:	fff78793          	addi	a5,a5,-1 # ffffffffdfffffff <bss_begin+0xffffffffdffdafff>
   20d40:	00f777b3          	and	a5,a4,a5
   20d44:	00f12623          	sw	a5,12(sp)
   20d48:	00c12783          	lw	a5,12(sp)
   20d4c:	00078593          	mv	a1,a5
   20d50:	020017b7          	lui	a5,0x2001
   20d54:	02078513          	addi	a0,a5,32 # 2001020 <bss_begin+0x1fdc020>
   20d58:	c19ff0ef          	jal	ra,20970 <payload_bin+0x3f4>
   20d5c:	0080006f          	j	20d64 <payload_bin+0x7e8>
   20d60:	00000013          	nop
   20d64:	01813083          	ld	ra,24(sp)
   20d68:	02010113          	addi	sp,sp,32
   20d6c:	00008067          	ret
   20d70:	ff010113          	addi	sp,sp,-16
   20d74:	00113423          	sd	ra,8(sp)
   20d78:	00200593          	li	a1,2
   20d7c:	020017b7          	lui	a5,0x2001
   20d80:	51078513          	addi	a0,a5,1296 # 2001510 <bss_begin+0x1fdc510>
   20d84:	bedff0ef          	jal	ra,20970 <payload_bin+0x3f4>
   20d88:	020017b7          	lui	a5,0x2001
   20d8c:	51078513          	addi	a0,a5,1296 # 2001510 <bss_begin+0x1fdc510>
   20d90:	bc1ff0ef          	jal	ra,20950 <payload_bin+0x3d4>
   20d94:	00050793          	mv	a5,a0
   20d98:	0007879b          	sext.w	a5,a5
   20d9c:	00078713          	mv	a4,a5
   20da0:	030007b7          	lui	a5,0x3000
   20da4:	00f767b3          	or	a5,a4,a5
   20da8:	0007879b          	sext.w	a5,a5
   20dac:	00078593          	mv	a1,a5
   20db0:	020017b7          	lui	a5,0x2001
   20db4:	51078513          	addi	a0,a5,1296 # 2001510 <bss_begin+0x1fdc510>
   20db8:	bb9ff0ef          	jal	ra,20970 <payload_bin+0x3f4>
   20dbc:	00100513          	li	a0,1
   20dc0:	bd9ff0ef          	jal	ra,20998 <payload_bin+0x41c>
   20dc4:	00000013          	nop
   20dc8:	00813083          	ld	ra,8(sp)
   20dcc:	01010113          	addi	sp,sp,16
   20dd0:	00008067          	ret
   20dd4:	ff010113          	addi	sp,sp,-16
   20dd8:	00113423          	sd	ra,8(sp)
   20ddc:	10200593          	li	a1,258
   20de0:	020017b7          	lui	a5,0x2001
   20de4:	52078513          	addi	a0,a5,1312 # 2001520 <bss_begin+0x1fdc520>
   20de8:	b89ff0ef          	jal	ra,20970 <payload_bin+0x3f4>
   20dec:	020017b7          	lui	a5,0x2001
   20df0:	52078513          	addi	a0,a5,1312 # 2001520 <bss_begin+0x1fdc520>
   20df4:	b5dff0ef          	jal	ra,20950 <payload_bin+0x3d4>
   20df8:	00050793          	mv	a5,a0
   20dfc:	0007879b          	sext.w	a5,a5
   20e00:	00078713          	mv	a4,a5
   20e04:	030007b7          	lui	a5,0x3000
   20e08:	00f767b3          	or	a5,a4,a5
   20e0c:	0007879b          	sext.w	a5,a5
   20e10:	00078593          	mv	a1,a5
   20e14:	020017b7          	lui	a5,0x2001
   20e18:	52078513          	addi	a0,a5,1312 # 2001520 <bss_begin+0x1fdc520>
   20e1c:	b55ff0ef          	jal	ra,20970 <payload_bin+0x3f4>
   20e20:	00100513          	li	a0,1
   20e24:	b75ff0ef          	jal	ra,20998 <payload_bin+0x41c>
   20e28:	00000013          	nop
   20e2c:	00813083          	ld	ra,8(sp)
   20e30:	01010113          	addi	sp,sp,16
   20e34:	00008067          	ret
   20e38:	ff010113          	addi	sp,sp,-16
   20e3c:	00113423          	sd	ra,8(sp)
   20e40:	020017b7          	lui	a5,0x2001
   20e44:	70c78513          	addi	a0,a5,1804 # 200170c <bss_begin+0x1fdc70c>
   20e48:	b09ff0ef          	jal	ra,20950 <payload_bin+0x3d4>
   20e4c:	00050793          	mv	a5,a0
   20e50:	0007879b          	sext.w	a5,a5
   20e54:	00078713          	mv	a4,a5
   20e58:	000107b7          	lui	a5,0x10
   20e5c:	00f767b3          	or	a5,a4,a5
   20e60:	0007879b          	sext.w	a5,a5
   20e64:	00078593          	mv	a1,a5
   20e68:	020017b7          	lui	a5,0x2001
   20e6c:	70c78513          	addi	a0,a5,1804 # 200170c <bss_begin+0x1fdc70c>
   20e70:	b01ff0ef          	jal	ra,20970 <payload_bin+0x3f4>
   20e74:	01400513          	li	a0,20
   20e78:	b21ff0ef          	jal	ra,20998 <payload_bin+0x41c>
   20e7c:	020017b7          	lui	a5,0x2001
   20e80:	70c78513          	addi	a0,a5,1804 # 200170c <bss_begin+0x1fdc70c>
   20e84:	acdff0ef          	jal	ra,20950 <payload_bin+0x3d4>
   20e88:	00050793          	mv	a5,a0
   20e8c:	0007879b          	sext.w	a5,a5
   20e90:	0017e793          	ori	a5,a5,1
   20e94:	0007879b          	sext.w	a5,a5
   20e98:	00078593          	mv	a1,a5
   20e9c:	020017b7          	lui	a5,0x2001
   20ea0:	70c78513          	addi	a0,a5,1804 # 200170c <bss_begin+0x1fdc70c>
   20ea4:	acdff0ef          	jal	ra,20970 <payload_bin+0x3f4>
   20ea8:	00000013          	nop
   20eac:	00813083          	ld	ra,8(sp)
   20eb0:	01010113          	addi	sp,sp,16
   20eb4:	00008067          	ret
   20eb8:	fe010113          	addi	sp,sp,-32
   20ebc:	00113c23          	sd	ra,24(sp)
   20ec0:	020017b7          	lui	a5,0x2001
   20ec4:	54078513          	addi	a0,a5,1344 # 2001540 <bss_begin+0x1fdc540>
   20ec8:	a89ff0ef          	jal	ra,20950 <payload_bin+0x3d4>
   20ecc:	00050793          	mv	a5,a0
   20ed0:	00f12623          	sw	a5,12(sp)
   20ed4:	00c12703          	lw	a4,12(sp)
   20ed8:	400007b7          	lui	a5,0x40000
   20edc:	00f767b3          	or	a5,a4,a5
   20ee0:	00f12623          	sw	a5,12(sp)
   20ee4:	00c12783          	lw	a5,12(sp)
   20ee8:	00078593          	mv	a1,a5
   20eec:	020017b7          	lui	a5,0x2001
   20ef0:	54078513          	addi	a0,a5,1344 # 2001540 <bss_begin+0x1fdc540>
   20ef4:	a7dff0ef          	jal	ra,20970 <payload_bin+0x3f4>
   20ef8:	00100513          	li	a0,1
   20efc:	a9dff0ef          	jal	ra,20998 <payload_bin+0x41c>
   20f00:	00000013          	nop
   20f04:	01813083          	ld	ra,24(sp)
   20f08:	02010113          	addi	sp,sp,32
   20f0c:	00008067          	ret
   20f10:	fd010113          	addi	sp,sp,-48
   20f14:	02113423          	sd	ra,40(sp)
   20f18:	00a13423          	sd	a0,8(sp)
   20f1c:	00813503          	ld	a0,8(sp)
   20f20:	a31ff0ef          	jal	ra,20950 <payload_bin+0x3d4>
   20f24:	00050793          	mv	a5,a0
   20f28:	0007879b          	sext.w	a5,a5
   20f2c:	0007879b          	sext.w	a5,a5
   20f30:	0c07c263          	bltz	a5,20ff4 <payload_bin+0xa78>
   20f34:	00813503          	ld	a0,8(sp)
   20f38:	a19ff0ef          	jal	ra,20950 <payload_bin+0x3d4>
   20f3c:	00050793          	mv	a5,a0
   20f40:	00f12e23          	sw	a5,28(sp)
   20f44:	01c12703          	lw	a4,28(sp)
   20f48:	c00007b7          	lui	a5,0xc0000
   20f4c:	00f767b3          	or	a5,a4,a5
   20f50:	0007879b          	sext.w	a5,a5
   20f54:	00078593          	mv	a1,a5
   20f58:	00813503          	ld	a0,8(sp)
   20f5c:	a15ff0ef          	jal	ra,20970 <payload_bin+0x3f4>
   20f60:	00813503          	ld	a0,8(sp)
   20f64:	9edff0ef          	jal	ra,20950 <payload_bin+0x3d4>
   20f68:	00050793          	mv	a5,a0
   20f6c:	00f12e23          	sw	a5,28(sp)
   20f70:	01c12703          	lw	a4,28(sp)
   20f74:	200007b7          	lui	a5,0x20000
   20f78:	00f767b3          	or	a5,a4,a5
   20f7c:	00f12e23          	sw	a5,28(sp)
   20f80:	01c12783          	lw	a5,28(sp)
   20f84:	00078593          	mv	a1,a5
   20f88:	00813503          	ld	a0,8(sp)
   20f8c:	9e5ff0ef          	jal	ra,20970 <payload_bin+0x3f4>
   20f90:	00000013          	nop
   20f94:	00813503          	ld	a0,8(sp)
   20f98:	9b9ff0ef          	jal	ra,20950 <payload_bin+0x3d4>
   20f9c:	00050793          	mv	a5,a0
   20fa0:	0007879b          	sext.w	a5,a5
   20fa4:	00078713          	mv	a4,a5
   20fa8:	100007b7          	lui	a5,0x10000
   20fac:	00f777b3          	and	a5,a4,a5
   20fb0:	0007879b          	sext.w	a5,a5
   20fb4:	fe0780e3          	beqz	a5,20f94 <payload_bin+0xa18>
   20fb8:	01400513          	li	a0,20
   20fbc:	9ddff0ef          	jal	ra,20998 <payload_bin+0x41c>
   20fc0:	00813503          	ld	a0,8(sp)
   20fc4:	98dff0ef          	jal	ra,20950 <payload_bin+0x3d4>
   20fc8:	00050793          	mv	a5,a0
   20fcc:	00f12e23          	sw	a5,28(sp)
   20fd0:	01c12703          	lw	a4,28(sp)
   20fd4:	e00007b7          	lui	a5,0xe0000
   20fd8:	fff78793          	addi	a5,a5,-1 # ffffffffdfffffff <bss_begin+0xffffffffdffdafff>
   20fdc:	00f777b3          	and	a5,a4,a5
   20fe0:	00f12e23          	sw	a5,28(sp)
   20fe4:	01c12783          	lw	a5,28(sp)
   20fe8:	00078593          	mv	a1,a5
   20fec:	00813503          	ld	a0,8(sp)
   20ff0:	981ff0ef          	jal	ra,20970 <payload_bin+0x3f4>
   20ff4:	00000013          	nop
   20ff8:	02813083          	ld	ra,40(sp)
   20ffc:	03010113          	addi	sp,sp,48
   21000:	00008067          	ret
   21004:	ff010113          	addi	sp,sp,-16
   21008:	00113423          	sd	ra,8(sp)
   2100c:	9c5ff0ef          	jal	ra,209d0 <payload_bin+0x454>
   21010:	bf9ff0ef          	jal	ra,20c08 <payload_bin+0x68c>
   21014:	d5dff0ef          	jal	ra,20d70 <payload_bin+0x7f4>
   21018:	dbdff0ef          	jal	ra,20dd4 <payload_bin+0x858>
   2101c:	e1dff0ef          	jal	ra,20e38 <payload_bin+0x8bc>
   21020:	e99ff0ef          	jal	ra,20eb8 <payload_bin+0x93c>
   21024:	020017b7          	lui	a5,0x2001
   21028:	02078513          	addi	a0,a5,32 # 2001020 <bss_begin+0x1fdc020>
   2102c:	ee5ff0ef          	jal	ra,20f10 <payload_bin+0x994>
   21030:	020017b7          	lui	a5,0x2001
   21034:	04078513          	addi	a0,a5,64 # 2001040 <bss_begin+0x1fdc040>
   21038:	ed9ff0ef          	jal	ra,20f10 <payload_bin+0x994>
   2103c:	020017b7          	lui	a5,0x2001
   21040:	04878513          	addi	a0,a5,72 # 2001048 <bss_begin+0x1fdc048>
   21044:	ecdff0ef          	jal	ra,20f10 <payload_bin+0x994>
   21048:	020017b7          	lui	a5,0x2001
   2104c:	05878513          	addi	a0,a5,88 # 2001058 <bss_begin+0x1fdc058>
   21050:	ec1ff0ef          	jal	ra,20f10 <payload_bin+0x994>
   21054:	020017b7          	lui	a5,0x2001
   21058:	07878513          	addi	a0,a5,120 # 2001078 <bss_begin+0x1fdc078>
   2105c:	eb5ff0ef          	jal	ra,20f10 <payload_bin+0x994>
   21060:	020017b7          	lui	a5,0x2001
   21064:	08078513          	addi	a0,a5,128 # 2001080 <bss_begin+0x1fdc080>
   21068:	ea9ff0ef          	jal	ra,20f10 <payload_bin+0x994>
   2106c:	00000013          	nop
   21070:	00813083          	ld	ra,8(sp)
   21074:	01010113          	addi	sp,sp,16
   21078:	00008067          	ret
   2107c:	ff010113          	addi	sp,sp,-16
   21080:	00a13423          	sd	a0,8(sp)
   21084:	00813783          	ld	a5,8(sp)
   21088:	0007c783          	lbu	a5,0(a5)
   2108c:	0ff7f793          	andi	a5,a5,255
   21090:	00078513          	mv	a0,a5
   21094:	01010113          	addi	sp,sp,16
   21098:	00008067          	ret
   2109c:	ff010113          	addi	sp,sp,-16
   210a0:	00a13423          	sd	a0,8(sp)
   210a4:	00813783          	ld	a5,8(sp)
   210a8:	0007a783          	lw	a5,0(a5)
   210ac:	0007879b          	sext.w	a5,a5
   210b0:	00078513          	mv	a0,a5
   210b4:	01010113          	addi	sp,sp,16
   210b8:	00008067          	ret
   210bc:	ff010113          	addi	sp,sp,-16
   210c0:	00a13423          	sd	a0,8(sp)
   210c4:	00058793          	mv	a5,a1
   210c8:	00f12223          	sw	a5,4(sp)
   210cc:	00813783          	ld	a5,8(sp)
   210d0:	00412703          	lw	a4,4(sp)
   210d4:	00e7a023          	sw	a4,0(a5)
   210d8:	00000013          	nop
   210dc:	01010113          	addi	sp,sp,16
   210e0:	00008067          	ret
   210e4:	fe010113          	addi	sp,sp,-32
   210e8:	00113c23          	sd	ra,24(sp)
   210ec:	020007b7          	lui	a5,0x2000
   210f0:	0f078793          	addi	a5,a5,240 # 20000f0 <bss_begin+0x1fdb0f0>
   210f4:	00f13423          	sd	a5,8(sp)
   210f8:	00813503          	ld	a0,8(sp)
   210fc:	fa1ff0ef          	jal	ra,2109c <payload_bin+0xb20>
   21100:	00050793          	mv	a5,a0
   21104:	00f12223          	sw	a5,4(sp)
   21108:	00412703          	lw	a4,4(sp)
   2110c:	fffff7b7          	lui	a5,0xfffff
   21110:	0ff78793          	addi	a5,a5,255 # fffffffffffff0ff <bss_begin+0xfffffffffffda0ff>
   21114:	00f777b3          	and	a5,a4,a5
   21118:	00f12223          	sw	a5,4(sp)
   2111c:	00412783          	lw	a5,4(sp)
   21120:	3007e793          	ori	a5,a5,768
   21124:	00f12223          	sw	a5,4(sp)
   21128:	00412783          	lw	a5,4(sp)
   2112c:	00078593          	mv	a1,a5
   21130:	00813503          	ld	a0,8(sp)
   21134:	f89ff0ef          	jal	ra,210bc <payload_bin+0xb40>
   21138:	00813503          	ld	a0,8(sp)
   2113c:	f61ff0ef          	jal	ra,2109c <payload_bin+0xb20>
   21140:	00050793          	mv	a5,a0
   21144:	00f12223          	sw	a5,4(sp)
   21148:	00412703          	lw	a4,4(sp)
   2114c:	fff107b7          	lui	a5,0xfff10
   21150:	fff78793          	addi	a5,a5,-1 # fffffffffff0ffff <bss_begin+0xffffffffffeeafff>
   21154:	00f777b3          	and	a5,a4,a5
   21158:	00f12223          	sw	a5,4(sp)
   2115c:	00412703          	lw	a4,4(sp)
   21160:	000307b7          	lui	a5,0x30
   21164:	00f767b3          	or	a5,a4,a5
   21168:	00f12223          	sw	a5,4(sp)
   2116c:	00412783          	lw	a5,4(sp)
   21170:	00078593          	mv	a1,a5
   21174:	00813503          	ld	a0,8(sp)
   21178:	f45ff0ef          	jal	ra,210bc <payload_bin+0xb40>
   2117c:	020027b7          	lui	a5,0x2002
   21180:	90c78793          	addi	a5,a5,-1780 # 200190c <bss_begin+0x1fdc90c>
   21184:	00f13423          	sd	a5,8(sp)
   21188:	00813503          	ld	a0,8(sp)
   2118c:	f11ff0ef          	jal	ra,2109c <payload_bin+0xb20>
   21190:	00050793          	mv	a5,a0
   21194:	00f12223          	sw	a5,4(sp)
   21198:	00412783          	lw	a5,4(sp)
   2119c:	0017e793          	ori	a5,a5,1
   211a0:	00f12223          	sw	a5,4(sp)
   211a4:	00412783          	lw	a5,4(sp)
   211a8:	00078593          	mv	a1,a5
   211ac:	00813503          	ld	a0,8(sp)
   211b0:	f0dff0ef          	jal	ra,210bc <payload_bin+0xb40>
   211b4:	020027b7          	lui	a5,0x2002
   211b8:	90c78793          	addi	a5,a5,-1780 # 200190c <bss_begin+0x1fdc90c>
   211bc:	00f13423          	sd	a5,8(sp)
   211c0:	00813503          	ld	a0,8(sp)
   211c4:	ed9ff0ef          	jal	ra,2109c <payload_bin+0xb20>
   211c8:	00050793          	mv	a5,a0
   211cc:	00f12223          	sw	a5,4(sp)
   211d0:	00412703          	lw	a4,4(sp)
   211d4:	000107b7          	lui	a5,0x10
   211d8:	00f767b3          	or	a5,a4,a5
   211dc:	00f12223          	sw	a5,4(sp)
   211e0:	00412783          	lw	a5,4(sp)
   211e4:	00078593          	mv	a1,a5
   211e8:	00813503          	ld	a0,8(sp)
   211ec:	ed1ff0ef          	jal	ra,210bc <payload_bin+0xb40>
   211f0:	025007b7          	lui	a5,0x2500
   211f4:	00f13423          	sd	a5,8(sp)
   211f8:	00813783          	ld	a5,8(sp)
   211fc:	00478793          	addi	a5,a5,4 # 2500004 <bss_begin+0x24db004>
   21200:	00000593          	li	a1,0
   21204:	00078513          	mv	a0,a5
   21208:	eb5ff0ef          	jal	ra,210bc <payload_bin+0xb40>
   2120c:	00813783          	ld	a5,8(sp)
   21210:	00878793          	addi	a5,a5,8
   21214:	0f700593          	li	a1,247
   21218:	00078513          	mv	a0,a5
   2121c:	ea1ff0ef          	jal	ra,210bc <payload_bin+0xb40>
   21220:	00813783          	ld	a5,8(sp)
   21224:	01078793          	addi	a5,a5,16
   21228:	00000593          	li	a1,0
   2122c:	00078513          	mv	a0,a5
   21230:	e8dff0ef          	jal	ra,210bc <payload_bin+0xb40>
   21234:	00813783          	ld	a5,8(sp)
   21238:	00c78793          	addi	a5,a5,12
   2123c:	00078513          	mv	a0,a5
   21240:	e5dff0ef          	jal	ra,2109c <payload_bin+0xb20>
   21244:	00050793          	mv	a5,a0
   21248:	00f12223          	sw	a5,4(sp)
   2124c:	00412783          	lw	a5,4(sp)
   21250:	0807e793          	ori	a5,a5,128
   21254:	00f12223          	sw	a5,4(sp)
   21258:	00813783          	ld	a5,8(sp)
   2125c:	00c78793          	addi	a5,a5,12
   21260:	00412703          	lw	a4,4(sp)
   21264:	00070593          	mv	a1,a4
   21268:	00078513          	mv	a0,a5
   2126c:	e51ff0ef          	jal	ra,210bc <payload_bin+0xb40>
   21270:	00d00593          	li	a1,13
   21274:	00813503          	ld	a0,8(sp)
   21278:	e45ff0ef          	jal	ra,210bc <payload_bin+0xb40>
   2127c:	00813783          	ld	a5,8(sp)
   21280:	00478793          	addi	a5,a5,4
   21284:	00000593          	li	a1,0
   21288:	00078513          	mv	a0,a5
   2128c:	e31ff0ef          	jal	ra,210bc <payload_bin+0xb40>
   21290:	00813783          	ld	a5,8(sp)
   21294:	00c78793          	addi	a5,a5,12
   21298:	00078513          	mv	a0,a5
   2129c:	e01ff0ef          	jal	ra,2109c <payload_bin+0xb20>
   212a0:	00050793          	mv	a5,a0
   212a4:	00f12223          	sw	a5,4(sp)
   212a8:	00412783          	lw	a5,4(sp)
   212ac:	f7f7f793          	andi	a5,a5,-129
   212b0:	00f12223          	sw	a5,4(sp)
   212b4:	00813783          	ld	a5,8(sp)
   212b8:	00c78793          	addi	a5,a5,12
   212bc:	00412703          	lw	a4,4(sp)
   212c0:	00070593          	mv	a1,a4
   212c4:	00078513          	mv	a0,a5
   212c8:	df5ff0ef          	jal	ra,210bc <payload_bin+0xb40>
   212cc:	00813783          	ld	a5,8(sp)
   212d0:	00c78793          	addi	a5,a5,12
   212d4:	00078513          	mv	a0,a5
   212d8:	dc5ff0ef          	jal	ra,2109c <payload_bin+0xb20>
   212dc:	00050793          	mv	a5,a0
   212e0:	00f12223          	sw	a5,4(sp)
   212e4:	00412783          	lw	a5,4(sp)
   212e8:	fe07f793          	andi	a5,a5,-32
   212ec:	00f12223          	sw	a5,4(sp)
   212f0:	00412783          	lw	a5,4(sp)
   212f4:	0037e793          	ori	a5,a5,3
   212f8:	00f12223          	sw	a5,4(sp)
   212fc:	00813783          	ld	a5,8(sp)
   21300:	00c78793          	addi	a5,a5,12
   21304:	00412703          	lw	a4,4(sp)
   21308:	00070593          	mv	a1,a4
   2130c:	00078513          	mv	a0,a5
   21310:	dadff0ef          	jal	ra,210bc <payload_bin+0xb40>
   21314:	00000013          	nop
   21318:	01813083          	ld	ra,24(sp)
   2131c:	02010113          	addi	sp,sp,32
   21320:	00008067          	ret
   21324:	fd010113          	addi	sp,sp,-48
   21328:	02113423          	sd	ra,40(sp)
   2132c:	00050793          	mv	a5,a0
   21330:	00f107a3          	sb	a5,15(sp)
   21334:	025007b7          	lui	a5,0x2500
   21338:	00f13c23          	sd	a5,24(sp)
   2133c:	00000013          	nop
   21340:	01813783          	ld	a5,24(sp)
   21344:	07c78793          	addi	a5,a5,124 # 250007c <bss_begin+0x24db07c>
   21348:	00078513          	mv	a0,a5
   2134c:	d51ff0ef          	jal	ra,2109c <payload_bin+0xb20>
   21350:	00050793          	mv	a5,a0
   21354:	0007879b          	sext.w	a5,a5
   21358:	0027f793          	andi	a5,a5,2
   2135c:	0007879b          	sext.w	a5,a5
   21360:	fe0780e3          	beqz	a5,21340 <payload_bin+0xdc4>
   21364:	00f14783          	lbu	a5,15(sp)
   21368:	0007879b          	sext.w	a5,a5
   2136c:	00078593          	mv	a1,a5
   21370:	01813503          	ld	a0,24(sp)
   21374:	d49ff0ef          	jal	ra,210bc <payload_bin+0xb40>
   21378:	00000013          	nop
   2137c:	02813083          	ld	ra,40(sp)
   21380:	03010113          	addi	sp,sp,48
   21384:	00008067          	ret
   21388:	fe010113          	addi	sp,sp,-32
   2138c:	00113c23          	sd	ra,24(sp)
   21390:	025007b7          	lui	a5,0x2500
   21394:	00f13423          	sd	a5,8(sp)
   21398:	00000013          	nop
   2139c:	00813783          	ld	a5,8(sp)
   213a0:	07c78793          	addi	a5,a5,124 # 250007c <bss_begin+0x24db07c>
   213a4:	00078513          	mv	a0,a5
   213a8:	cf5ff0ef          	jal	ra,2109c <payload_bin+0xb20>
   213ac:	00050793          	mv	a5,a0
   213b0:	0007879b          	sext.w	a5,a5
   213b4:	0087f793          	andi	a5,a5,8
   213b8:	0007879b          	sext.w	a5,a5
   213bc:	fe0780e3          	beqz	a5,2139c <payload_bin+0xe20>
   213c0:	00813503          	ld	a0,8(sp)
   213c4:	cb9ff0ef          	jal	ra,2107c <payload_bin+0xb00>
   213c8:	00050793          	mv	a5,a0
   213cc:	00078513          	mv	a0,a5
   213d0:	01813083          	ld	ra,24(sp)
   213d4:	02010113          	addi	sp,sp,32
   213d8:	00008067          	ret
   213dc:	fd010113          	addi	sp,sp,-48
   213e0:	02113423          	sd	ra,40(sp)
   213e4:	00a13423          	sd	a0,8(sp)
   213e8:	00012e23          	sw	zero,28(sp)
   213ec:	0280006f          	j	21414 <payload_bin+0xe98>
   213f0:	01c12783          	lw	a5,28(sp)
   213f4:	00813703          	ld	a4,8(sp)
   213f8:	00f707b3          	add	a5,a4,a5
   213fc:	0007c783          	lbu	a5,0(a5)
   21400:	00078513          	mv	a0,a5
   21404:	f21ff0ef          	jal	ra,21324 <payload_bin+0xda8>
   21408:	01c12783          	lw	a5,28(sp)
   2140c:	0017879b          	addiw	a5,a5,1
   21410:	00f12e23          	sw	a5,28(sp)
   21414:	01c12783          	lw	a5,28(sp)
   21418:	00813703          	ld	a4,8(sp)
   2141c:	00f707b3          	add	a5,a4,a5
   21420:	0007c783          	lbu	a5,0(a5)
   21424:	fc0796e3          	bnez	a5,213f0 <payload_bin+0xe74>
   21428:	00000013          	nop
   2142c:	00000013          	nop
   21430:	02813083          	ld	ra,40(sp)
   21434:	03010113          	addi	sp,sp,48
   21438:	00008067          	ret
   2143c:	fd010113          	addi	sp,sp,-48
   21440:	00a13423          	sd	a0,8(sp)
   21444:	00b13023          	sd	a1,0(sp)
   21448:	02012223          	sw	zero,36(sp)
   2144c:	00813783          	ld	a5,8(sp)
   21450:	02f13423          	sd	a5,40(sp)
   21454:	0900006f          	j	214e4 <payload_bin+0xf68>
   21458:	02813783          	ld	a5,40(sp)
   2145c:	0007c783          	lbu	a5,0(a5)
   21460:	00078713          	mv	a4,a5
   21464:	02f00793          	li	a5,47
   21468:	02e7f063          	bgeu	a5,a4,21488 <payload_bin+0xf0c>
   2146c:	02813783          	ld	a5,40(sp)
   21470:	0007c783          	lbu	a5,0(a5)
   21474:	00078713          	mv	a4,a5
   21478:	03900793          	li	a5,57
   2147c:	00e7e663          	bltu	a5,a4,21488 <payload_bin+0xf0c>
   21480:	00100793          	li	a5,1
   21484:	0080006f          	j	2148c <payload_bin+0xf10>
   21488:	00000793          	li	a5,0
   2148c:	02f12023          	sw	a5,32(sp)
   21490:	02012783          	lw	a5,32(sp)
   21494:	0007879b          	sext.w	a5,a5
   21498:	04078e63          	beqz	a5,214f4 <payload_bin+0xf78>
   2149c:	02813783          	ld	a5,40(sp)
   214a0:	0007c783          	lbu	a5,0(a5)
   214a4:	0007879b          	sext.w	a5,a5
   214a8:	fd07879b          	addiw	a5,a5,-48
   214ac:	00f12e23          	sw	a5,28(sp)
   214b0:	02412703          	lw	a4,36(sp)
   214b4:	00070793          	mv	a5,a4
   214b8:	0027979b          	slliw	a5,a5,0x2
   214bc:	00e787bb          	addw	a5,a5,a4
   214c0:	0017979b          	slliw	a5,a5,0x1
   214c4:	02f12223          	sw	a5,36(sp)
   214c8:	02412703          	lw	a4,36(sp)
   214cc:	01c12783          	lw	a5,28(sp)
   214d0:	00f707bb          	addw	a5,a4,a5
   214d4:	02f12223          	sw	a5,36(sp)
   214d8:	02813783          	ld	a5,40(sp)
   214dc:	00178793          	addi	a5,a5,1
   214e0:	02f13423          	sd	a5,40(sp)
   214e4:	00813783          	ld	a5,8(sp)
   214e8:	0007c783          	lbu	a5,0(a5)
   214ec:	f60796e3          	bnez	a5,21458 <payload_bin+0xedc>
   214f0:	0080006f          	j	214f8 <payload_bin+0xf7c>
   214f4:	00000013          	nop
   214f8:	00013783          	ld	a5,0(sp)
   214fc:	02412703          	lw	a4,36(sp)
   21500:	00e7a023          	sw	a4,0(a5)
   21504:	02813703          	ld	a4,40(sp)
   21508:	00813783          	ld	a5,8(sp)
   2150c:	40f707b3          	sub	a5,a4,a5
   21510:	0007879b          	sext.w	a5,a5
   21514:	00078513          	mv	a0,a5
   21518:	03010113          	addi	sp,sp,48
   2151c:	00008067          	ret
   21520:	fb010113          	addi	sp,sp,-80
   21524:	04113423          	sd	ra,72(sp)
   21528:	00050793          	mv	a5,a0
   2152c:	00068713          	mv	a4,a3
   21530:	00f12623          	sw	a5,12(sp)
   21534:	00058793          	mv	a5,a1
   21538:	00f12423          	sw	a5,8(sp)
   2153c:	00060793          	mv	a5,a2
   21540:	00f12223          	sw	a5,4(sp)
   21544:	00070793          	mv	a5,a4
   21548:	00f12023          	sw	a5,0(sp)
   2154c:	02012a23          	sw	zero,52(sp)
   21550:	0280006f          	j	21578 <payload_bin+0xffc>
   21554:	00012783          	lw	a5,0(sp)
   21558:	0ff7f713          	andi	a4,a5,255
   2155c:	03412783          	lw	a5,52(sp)
   21560:	04010693          	addi	a3,sp,64
   21564:	00f687b3          	add	a5,a3,a5
   21568:	fce78823          	sb	a4,-48(a5)
   2156c:	03412783          	lw	a5,52(sp)
   21570:	0017879b          	addiw	a5,a5,1
   21574:	02f12a23          	sw	a5,52(sp)
   21578:	03412783          	lw	a5,52(sp)
   2157c:	00078713          	mv	a4,a5
   21580:	01f00793          	li	a5,31
   21584:	fce7f8e3          	bgeu	a5,a4,21554 <payload_bin+0xfd8>
   21588:	00a00793          	li	a5,10
   2158c:	02f12e23          	sw	a5,60(sp)
   21590:	00812783          	lw	a5,8(sp)
   21594:	0007879b          	sext.w	a5,a5
   21598:	00078663          	beqz	a5,215a4 <payload_bin+0x1028>
   2159c:	01000793          	li	a5,16
   215a0:	02f12e23          	sw	a5,60(sp)
   215a4:	02012c23          	sw	zero,56(sp)
   215a8:	00c12703          	lw	a4,12(sp)
   215ac:	03c12783          	lw	a5,60(sp)
   215b0:	02f777bb          	remuw	a5,a4,a5
   215b4:	0007879b          	sext.w	a5,a5
   215b8:	02f12823          	sw	a5,48(sp)
   215bc:	03012783          	lw	a5,48(sp)
   215c0:	0007871b          	sext.w	a4,a5
   215c4:	00900793          	li	a5,9
   215c8:	02e7d463          	bge	a5,a4,215f0 <payload_bin+0x1074>
   215cc:	03012783          	lw	a5,48(sp)
   215d0:	0ff7f793          	andi	a5,a5,255
   215d4:	0577879b          	addiw	a5,a5,87
   215d8:	0ff7f713          	andi	a4,a5,255
   215dc:	03812783          	lw	a5,56(sp)
   215e0:	04010693          	addi	a3,sp,64
   215e4:	00f687b3          	add	a5,a3,a5
   215e8:	fce78823          	sb	a4,-48(a5)
   215ec:	0240006f          	j	21610 <payload_bin+0x1094>
   215f0:	03012783          	lw	a5,48(sp)
   215f4:	0ff7f793          	andi	a5,a5,255
   215f8:	0307879b          	addiw	a5,a5,48
   215fc:	0ff7f713          	andi	a4,a5,255
   21600:	03812783          	lw	a5,56(sp)
   21604:	04010693          	addi	a3,sp,64
   21608:	00f687b3          	add	a5,a3,a5
   2160c:	fce78823          	sb	a4,-48(a5)
   21610:	00c12703          	lw	a4,12(sp)
   21614:	03c12783          	lw	a5,60(sp)
   21618:	02f757bb          	divuw	a5,a4,a5
   2161c:	00f12623          	sw	a5,12(sp)
   21620:	03812783          	lw	a5,56(sp)
   21624:	0017879b          	addiw	a5,a5,1
   21628:	02f12c23          	sw	a5,56(sp)
   2162c:	00c12783          	lw	a5,12(sp)
   21630:	0007879b          	sext.w	a5,a5
   21634:	f6079ae3          	bnez	a5,215a8 <payload_bin+0x102c>
   21638:	00412783          	lw	a5,4(sp)
   2163c:	0007879b          	sext.w	a5,a5
   21640:	02f05c63          	blez	a5,21678 <payload_bin+0x10fc>
   21644:	00412783          	lw	a5,4(sp)
   21648:	00078713          	mv	a4,a5
   2164c:	01f00793          	li	a5,31
   21650:	00e7f663          	bgeu	a5,a4,2165c <payload_bin+0x10e0>
   21654:	01f00793          	li	a5,31
   21658:	00f12223          	sw	a5,4(sp)
   2165c:	03812703          	lw	a4,56(sp)
   21660:	00412783          	lw	a5,4(sp)
   21664:	0007071b          	sext.w	a4,a4
   21668:	0007879b          	sext.w	a5,a5
   2166c:	00f75663          	bge	a4,a5,21678 <payload_bin+0x10fc>
   21670:	00412783          	lw	a5,4(sp)
   21674:	02f12c23          	sw	a5,56(sp)
   21678:	03812783          	lw	a5,56(sp)
   2167c:	04010713          	addi	a4,sp,64
   21680:	00f707b3          	add	a5,a4,a5
   21684:	fc078823          	sb	zero,-48(a5)
   21688:	03812783          	lw	a5,56(sp)
   2168c:	fff7879b          	addiw	a5,a5,-1
   21690:	02f12a23          	sw	a5,52(sp)
   21694:	0280006f          	j	216bc <payload_bin+0x1140>
   21698:	03412783          	lw	a5,52(sp)
   2169c:	04010713          	addi	a4,sp,64
   216a0:	00f707b3          	add	a5,a4,a5
   216a4:	fd07c783          	lbu	a5,-48(a5)
   216a8:	00078513          	mv	a0,a5
   216ac:	c79ff0ef          	jal	ra,21324 <payload_bin+0xda8>
   216b0:	03412783          	lw	a5,52(sp)
   216b4:	fff7879b          	addiw	a5,a5,-1
   216b8:	02f12a23          	sw	a5,52(sp)
   216bc:	03412783          	lw	a5,52(sp)
   216c0:	0007879b          	sext.w	a5,a5
   216c4:	fc07dae3          	bgez	a5,21698 <payload_bin+0x111c>
   216c8:	00000013          	nop
   216cc:	00000013          	nop
   216d0:	04813083          	ld	ra,72(sp)
   216d4:	05010113          	addi	sp,sp,80
   216d8:	00008067          	ret
   216dc:	fb010113          	addi	sp,sp,-80
   216e0:	04113423          	sd	ra,72(sp)
   216e4:	00a13423          	sd	a0,8(sp)
   216e8:	00b13023          	sd	a1,0(sp)
   216ec:	02000793          	li	a5,32
   216f0:	02f12223          	sw	a5,36(sp)
   216f4:	00813783          	ld	a5,8(sp)
   216f8:	02f13c23          	sd	a5,56(sp)
   216fc:	1880006f          	j	21884 <payload_bin+0x1308>
   21700:	02012623          	sw	zero,44(sp)
   21704:	00012a23          	sw	zero,20(sp)
   21708:	03813783          	ld	a5,56(sp)
   2170c:	0007c783          	lbu	a5,0(a5)
   21710:	02f12023          	sw	a5,32(sp)
   21714:	03813783          	ld	a5,56(sp)
   21718:	02f13823          	sd	a5,48(sp)
   2171c:	03813783          	ld	a5,56(sp)
   21720:	0007c783          	lbu	a5,0(a5)
   21724:	00078713          	mv	a4,a5
   21728:	02500793          	li	a5,37
   2172c:	06f71863          	bne	a4,a5,2179c <payload_bin+0x1220>
   21730:	03813783          	ld	a5,56(sp)
   21734:	02f13823          	sd	a5,48(sp)
   21738:	03813783          	ld	a5,56(sp)
   2173c:	00178793          	addi	a5,a5,1
   21740:	02f13c23          	sd	a5,56(sp)
   21744:	03813783          	ld	a5,56(sp)
   21748:	0007c783          	lbu	a5,0(a5)
   2174c:	00078713          	mv	a4,a5
   21750:	02f00793          	li	a5,47
   21754:	02e7fe63          	bgeu	a5,a4,21790 <payload_bin+0x1214>
   21758:	03813783          	ld	a5,56(sp)
   2175c:	0007c783          	lbu	a5,0(a5)
   21760:	00078713          	mv	a4,a5
   21764:	03900793          	li	a5,57
   21768:	02e7e463          	bltu	a5,a4,21790 <payload_bin+0x1214>
   2176c:	01410793          	addi	a5,sp,20
   21770:	00078593          	mv	a1,a5
   21774:	03813503          	ld	a0,56(sp)
   21778:	cc5ff0ef          	jal	ra,2143c <payload_bin+0xec0>
   2177c:	00050793          	mv	a5,a0
   21780:	00078713          	mv	a4,a5
   21784:	03813783          	ld	a5,56(sp)
   21788:	00e787b3          	add	a5,a5,a4
   2178c:	02f13c23          	sd	a5,56(sp)
   21790:	03813783          	ld	a5,56(sp)
   21794:	0007c783          	lbu	a5,0(a5)
   21798:	02f12623          	sw	a5,44(sp)
   2179c:	02c12783          	lw	a5,44(sp)
   217a0:	0007871b          	sext.w	a4,a5
   217a4:	06400793          	li	a5,100
   217a8:	00f70a63          	beq	a4,a5,217bc <payload_bin+0x1240>
   217ac:	02c12783          	lw	a5,44(sp)
   217b0:	0007871b          	sext.w	a4,a5
   217b4:	07800793          	li	a5,120
   217b8:	04f71863          	bne	a4,a5,21808 <payload_bin+0x128c>
   217bc:	00013783          	ld	a5,0(sp)
   217c0:	00878713          	addi	a4,a5,8
   217c4:	00e13023          	sd	a4,0(sp)
   217c8:	0007a783          	lw	a5,0(a5)
   217cc:	00f12c23          	sw	a5,24(sp)
   217d0:	01812503          	lw	a0,24(sp)
   217d4:	02c12783          	lw	a5,44(sp)
   217d8:	0007871b          	sext.w	a4,a5
   217dc:	07800793          	li	a5,120
   217e0:	40f707b3          	sub	a5,a4,a5
   217e4:	0017b793          	seqz	a5,a5
   217e8:	0ff7f793          	andi	a5,a5,255
   217ec:	0007879b          	sext.w	a5,a5
   217f0:	01412703          	lw	a4,20(sp)
   217f4:	02412683          	lw	a3,36(sp)
   217f8:	00070613          	mv	a2,a4
   217fc:	00078593          	mv	a1,a5
   21800:	d21ff0ef          	jal	ra,21520 <payload_bin+0xfa4>
   21804:	0740006f          	j	21878 <payload_bin+0x12fc>
   21808:	02012423          	sw	zero,40(sp)
   2180c:	0280006f          	j	21834 <payload_bin+0x12b8>
   21810:	02812783          	lw	a5,40(sp)
   21814:	03013703          	ld	a4,48(sp)
   21818:	00f707b3          	add	a5,a4,a5
   2181c:	0007c783          	lbu	a5,0(a5)
   21820:	00078513          	mv	a0,a5
   21824:	b01ff0ef          	jal	ra,21324 <payload_bin+0xda8>
   21828:	02812783          	lw	a5,40(sp)
   2182c:	0017879b          	addiw	a5,a5,1
   21830:	02f12423          	sw	a5,40(sp)
   21834:	02812703          	lw	a4,40(sp)
   21838:	03813683          	ld	a3,56(sp)
   2183c:	03013783          	ld	a5,48(sp)
   21840:	40f687b3          	sub	a5,a3,a5
   21844:	fcf746e3          	blt	a4,a5,21810 <payload_bin+0x1294>
   21848:	02c12783          	lw	a5,44(sp)
   2184c:	0007879b          	sext.w	a5,a5
   21850:	00078863          	beqz	a5,21860 <payload_bin+0x12e4>
   21854:	02c12783          	lw	a5,44(sp)
   21858:	0ff7f793          	andi	a5,a5,255
   2185c:	00c0006f          	j	21868 <payload_bin+0x12ec>
   21860:	02012783          	lw	a5,32(sp)
   21864:	0ff7f793          	andi	a5,a5,255
   21868:	00f10fa3          	sb	a5,31(sp)
   2186c:	01f14783          	lbu	a5,31(sp)
   21870:	00078513          	mv	a0,a5
   21874:	ab1ff0ef          	jal	ra,21324 <payload_bin+0xda8>
   21878:	03813783          	ld	a5,56(sp)
   2187c:	00178793          	addi	a5,a5,1
   21880:	02f13c23          	sd	a5,56(sp)
   21884:	03813783          	ld	a5,56(sp)
   21888:	0007c783          	lbu	a5,0(a5)
   2188c:	e6079ae3          	bnez	a5,21700 <payload_bin+0x1184>
   21890:	00000793          	li	a5,0
   21894:	00078513          	mv	a0,a5
   21898:	04813083          	ld	ra,72(sp)
   2189c:	05010113          	addi	sp,sp,80
   218a0:	00008067          	ret
   218a4:	f9010113          	addi	sp,sp,-112
   218a8:	02113423          	sd	ra,40(sp)
   218ac:	00a13423          	sd	a0,8(sp)
   218b0:	02b13c23          	sd	a1,56(sp)
   218b4:	04c13023          	sd	a2,64(sp)
   218b8:	04d13423          	sd	a3,72(sp)
   218bc:	04e13823          	sd	a4,80(sp)
   218c0:	04f13c23          	sd	a5,88(sp)
   218c4:	07013023          	sd	a6,96(sp)
   218c8:	07113423          	sd	a7,104(sp)
   218cc:	07010793          	addi	a5,sp,112
   218d0:	00f13023          	sd	a5,0(sp)
   218d4:	00013783          	ld	a5,0(sp)
   218d8:	fc878793          	addi	a5,a5,-56
   218dc:	00f13c23          	sd	a5,24(sp)
   218e0:	01813783          	ld	a5,24(sp)
   218e4:	00078593          	mv	a1,a5
   218e8:	00813503          	ld	a0,8(sp)
   218ec:	df1ff0ef          	jal	ra,216dc <payload_bin+0x1160>
   218f0:	00000793          	li	a5,0
   218f4:	00078513          	mv	a0,a5
   218f8:	02813083          	ld	ra,40(sp)
   218fc:	07010113          	addi	sp,sp,112
   21900:	00008067          	ret
   21904:	fd010113          	addi	sp,sp,-48
   21908:	02113423          	sd	ra,40(sp)
   2190c:	00050793          	mv	a5,a0
   21910:	00f12623          	sw	a5,12(sp)
   21914:	03000513          	li	a0,48
   21918:	a0dff0ef          	jal	ra,21324 <payload_bin+0xda8>
   2191c:	07800513          	li	a0,120
   21920:	a05ff0ef          	jal	ra,21324 <payload_bin+0xda8>
   21924:	00700793          	li	a5,7
   21928:	00f12e23          	sw	a5,28(sp)
   2192c:	07c0006f          	j	219a8 <payload_bin+0x142c>
   21930:	01c12783          	lw	a5,28(sp)
   21934:	0027979b          	slliw	a5,a5,0x2
   21938:	0007879b          	sext.w	a5,a5
   2193c:	00078713          	mv	a4,a5
   21940:	00c12783          	lw	a5,12(sp)
   21944:	00e7d7bb          	srlw	a5,a5,a4
   21948:	0007879b          	sext.w	a5,a5
   2194c:	0007879b          	sext.w	a5,a5
   21950:	00f7f793          	andi	a5,a5,15
   21954:	00f12c23          	sw	a5,24(sp)
   21958:	01812783          	lw	a5,24(sp)
   2195c:	0007871b          	sext.w	a4,a5
   21960:	00900793          	li	a5,9
   21964:	02e7c063          	blt	a5,a4,21984 <payload_bin+0x1408>
   21968:	01812783          	lw	a5,24(sp)
   2196c:	0ff7f793          	andi	a5,a5,255
   21970:	0307879b          	addiw	a5,a5,48
   21974:	0ff7f793          	andi	a5,a5,255
   21978:	00078513          	mv	a0,a5
   2197c:	9a9ff0ef          	jal	ra,21324 <payload_bin+0xda8>
   21980:	01c0006f          	j	2199c <payload_bin+0x1420>
   21984:	01812783          	lw	a5,24(sp)
   21988:	0ff7f793          	andi	a5,a5,255
   2198c:	0377879b          	addiw	a5,a5,55
   21990:	0ff7f793          	andi	a5,a5,255
   21994:	00078513          	mv	a0,a5
   21998:	98dff0ef          	jal	ra,21324 <payload_bin+0xda8>
   2199c:	01c12783          	lw	a5,28(sp)
   219a0:	fff7879b          	addiw	a5,a5,-1
   219a4:	00f12e23          	sw	a5,28(sp)
   219a8:	01c12783          	lw	a5,28(sp)
   219ac:	0007879b          	sext.w	a5,a5
   219b0:	f807d0e3          	bgez	a5,21930 <payload_bin+0x13b4>
   219b4:	00000013          	nop
   219b8:	00000013          	nop
   219bc:	02813083          	ld	ra,40(sp)
   219c0:	03010113          	addi	sp,sp,48
   219c4:	00008067          	ret
   219c8:	0000                	unimp
   219ca:	0000                	unimp
   219cc:	abcd                	j	21fbe <payload_bin+0x1a42>
   219ce:	abcd                	j	21fc0 <payload_bin+0x1a44>
   219d0:	5678                	lw	a4,108(a2)
   219d2:	1234                	addi	a3,sp,296
   219d4:	000222b7          	lui	t0,0x22
   219d8:	00028303          	lb	t1,0(t0) # 22000 <payload_bin+0x1a84>
   219dc:	00428303          	lb	t1,4(t0)
   219e0:	ffc28303          	lb	t1,-4(t0)
   219e4:	0002b303          	ld	t1,0(t0)
   219e8:	00428303          	lb	t1,4(t0)
   219ec:	802002b7          	lui	t0,0x80200
   219f0:	40200337          	lui	t1,0x40200
   219f4:	00000297          	auipc	t0,0x0
   219f8:	fd828293          	addi	t0,t0,-40 # 219cc <payload_bin+0x1450>
   219fc:	00000317          	auipc	t1,0x0
   21a00:	fd030313          	addi	t1,t1,-48 # 219cc <payload_bin+0x1450>
   21a04:	00008067          	ret
   21a08:	00001297          	auipc	t0,0x1
   21a0c:	80028293          	addi	t0,t0,-2048 # 22208 <payload_bin+0x1c8c>
   21a10:	8002b303          	ld	t1,-2048(t0)
   21a14:	00008067          	ret
   21a18:	c00002b7          	lui	t0,0xc0000
   21a1c:	0452829b          	addiw	t0,t0,69
   21a20:	02129293          	slli	t0,t0,0x21
   21a24:	4012d593          	srai	a1,t0,0x1
   21a28:	0012d313          	srli	t1,t0,0x1
   21a2c:	0250029b          	addiw	t0,zero,37
   21a30:	01f29293          	slli	t0,t0,0x1f
   21a34:	08a28293          	addi	t0,t0,138 # ffffffffc000008a <bss_begin+0xffffffffbffdb08a>
   21a38:	4012d61b          	sraiw	a2,t0,0x1
   21a3c:	0012d31b          	srliw	t1,t0,0x1
   21a40:	0012969b          	slliw	a3,t0,0x1
   21a44:	0490029b          	addiw	t0,zero,73
   21a48:	01e29293          	slli	t0,t0,0x1e
   21a4c:	08a28293          	addi	t0,t0,138
   21a50:	4012d61b          	sraiw	a2,t0,0x1
   21a54:	0012d31b          	srliw	t1,t0,0x1
   21a58:	0012971b          	slliw	a4,t0,0x1
   21a5c:	00008067          	ret
   21a60:	80028593          	addi	a1,t0,-2048
   21a64:	000012b7          	lui	t0,0x1
   21a68:	a012829b          	addiw	t0,t0,-1535
   21a6c:	01529293          	slli	t0,t0,0x15
   21a70:	40000337          	lui	t1,0x40000
   21a74:	70028593          	addi	a1,t0,1792 # 1700 <__bin_size-0x3900>
   21a78:	80028593          	addi	a1,t0,-2048
   21a7c:	0802861b          	addiw	a2,t0,128
   21a80:	006286b3          	add	a3,t0,t1
   21a84:	0062873b          	addw	a4,t0,t1
   21a88:	000012b7          	lui	t0,0x1
   21a8c:	c012829b          	addiw	t0,t0,-1023
   21a90:	01529293          	slli	t0,t0,0x15
   21a94:	00200337          	lui	t1,0x200
   21a98:	40628533          	sub	a0,t0,t1
   21a9c:	406285bb          	subw	a1,t0,t1
   21aa0:	00008067          	ret
   21aa4:	00b56663          	bltu	a0,a1,21ab0 <payload_bin+0x1534>
   21aa8:	00000793          	li	a5,0
   21aac:	0080006f          	j	21ab4 <payload_bin+0x1538>
   21ab0:	fff00793          	li	a5,-1
   21ab4:	00078513          	mv	a0,a5
   21ab8:	00008067          	ret
   21abc:	00050663          	beqz	a0,21ac8 <payload_bin+0x154c>
   21ac0:	fff58793          	addi	a5,a1,-1
   21ac4:	0080006f          	j	21acc <payload_bin+0x1550>
   21ac8:	00258793          	addi	a5,a1,2
   21acc:	00078513          	mv	a0,a5
   21ad0:	00008067          	ret
   21ad4:	000202b7          	lui	t0,0x20
   21ad8:	00021337          	lui	t1,0x21
   21adc:	02028393          	addi	t2,t0,32 # 20020 <_start+0x20>
   21ae0:	0002be03          	ld	t3,0(t0)
   21ae4:	01c33023          	sd	t3,0(t1) # 21000 <payload_bin+0xa84>
   21ae8:	00828293          	addi	t0,t0,8
   21aec:	00830313          	addi	t1,t1,8
   21af0:	fe72c8e3          	blt	t0,t2,21ae0 <payload_bin+0x1564>
   21af4:	00008067          	ret
   21af8:	00b50533          	add	a0,a0,a1
   21afc:	00000013          	nop
   21b00:	00008067          	ret
   21b04:	ff810113          	addi	sp,sp,-8
   21b08:	00113023          	sd	ra,0(sp)
   21b0c:	00100513          	li	a0,1
   21b10:	00200593          	li	a1,2
   21b14:	fe5ff0ef          	jal	ra,21af8 <payload_bin+0x157c>
   21b18:	00000013          	nop
   21b1c:	00013083          	ld	ra,0(sp)
   21b20:	00810113          	addi	sp,sp,8
   21b24:	00008067          	ret
   21b28:	020002b7          	lui	t0,0x2000
   21b2c:	0f02829b          	addiw	t0,t0,240
   21b30:	0002a303          	lw	t1,0(t0) # 2000000 <bss_begin+0x1fdb000>
   21b34:	fff0f3b7          	lui	t2,0xfff0f
   21b38:	0ff3839b          	addiw	t2,t2,255
   21b3c:	00737333          	and	t1,t1,t2
   21b40:	000303b7          	lui	t2,0x30
   21b44:	3003839b          	addiw	t2,t2,768
   21b48:	00736333          	or	t1,t1,t2
   21b4c:	0062a023          	sw	t1,0(t0)
   21b50:	020022b7          	lui	t0,0x2002
   21b54:	90c2829b          	addiw	t0,t0,-1780
   21b58:	0002a303          	lw	t1,0(t0) # 2002000 <bss_begin+0x1fdd000>
   21b5c:	00136313          	ori	t1,t1,1
   21b60:	0062a023          	sw	t1,0(t0)
   21b64:	020022b7          	lui	t0,0x2002
   21b68:	90c2829b          	addiw	t0,t0,-1780
   21b6c:	0002a303          	lw	t1,0(t0) # 2002000 <bss_begin+0x1fdd000>
   21b70:	000103b7          	lui	t2,0x10
   21b74:	00736333          	or	t1,t1,t2
   21b78:	0062a023          	sw	t1,0(t0)
   21b7c:	025002b7          	lui	t0,0x2500
   21b80:	0002a223          	sw	zero,4(t0) # 2500004 <bss_begin+0x24db004>
   21b84:	0f700313          	li	t1,247
   21b88:	0062a423          	sw	t1,8(t0)
   21b8c:	0002a823          	sw	zero,16(t0)
   21b90:	00c2a303          	lw	t1,12(t0)
   21b94:	08036313          	ori	t1,t1,128
   21b98:	0062a623          	sw	t1,12(t0)
   21b9c:	00d00393          	li	t2,13
   21ba0:	0072a023          	sw	t2,0(t0)
   21ba4:	00000393          	li	t2,0
   21ba8:	0072a223          	sw	t2,4(t0)
   21bac:	08034313          	xori	t1,t1,128
   21bb0:	0062a623          	sw	t1,12(t0)
   21bb4:	00c2a303          	lw	t1,12(t0)
   21bb8:	ff000393          	li	t2,-16
   21bbc:	00737333          	and	t1,t1,t2
   21bc0:	00300393          	li	t2,3
   21bc4:	00736333          	or	t1,t1,t2
   21bc8:	0062a623          	sw	t1,12(t0)
   21bcc:	00008067          	ret
   21bd0:	025002b7          	lui	t0,0x2500
   21bd4:	07c2a303          	lw	t1,124(t0) # 250007c <bss_begin+0x24db07c>
   21bd8:	00237313          	andi	t1,t1,2
   21bdc:	fe030ce3          	beqz	t1,21bd4 <payload_bin+0x1658>
   21be0:	00a28023          	sb	a0,0(t0)
   21be4:	00008067          	ret
   21be8:	00008c13          	mv	s8,ra
   21bec:	00050793          	mv	a5,a0
   21bf0:	0007c503          	lbu	a0,0(a5)
   21bf4:	00050863          	beqz	a0,21c04 <payload_bin+0x1688>
   21bf8:	fd9ff0ef          	jal	ra,21bd0 <payload_bin+0x1654>
   21bfc:	00178793          	addi	a5,a5,1
   21c00:	ff1ff06f          	j	21bf0 <payload_bin+0x1674>
   21c04:	000c0093          	mv	ra,s8
   21c08:	00008067          	ret
   21c0c:	00000293          	li	t0,0
   21c10:	00b53023          	sd	a1,0(a0) # 2001000 <bss_begin+0x1fdc000>
   21c14:	00b53423          	sd	a1,8(a0)
   21c18:	01028293          	addi	t0,t0,16
   21c1c:	fec2cae3          	blt	t0,a2,21c10 <payload_bin+0x1694>
   21c20:	00008067          	ret
   21c24:	706d6f63          	bltu	s10,t1,22342 <payload_bin+0x1dc6>
   21c28:	7261                	lui	tp,0xffff8
   21c2a:	5f65                	li	t5,-7
   21c2c:	6e61                	lui	t3,0x18
   21c2e:	5f64                	lw	s1,124(a4)
   21c30:	6572                	ld	a0,280(sp)
   21c32:	7574                	ld	a3,232(a0)
   21c34:	6e72                	ld	t3,280(sp)
   21c36:	6f20                	ld	s0,88(a4)
   21c38:	000a0d6b          	0xa0d6b
   21c3c:	706d6f63          	bltu	s10,t1,2235a <payload_bin+0x1dde>
   21c40:	7261                	lui	tp,0xffff8
   21c42:	5f65                	li	t5,-7
   21c44:	6e61                	lui	t3,0x18
   21c46:	5f64                	lw	s1,124(a4)
   21c48:	6572                	ld	a0,280(sp)
   21c4a:	7574                	ld	a3,232(a0)
   21c4c:	6e72                	ld	t3,280(sp)
   21c4e:	6620                	ld	s0,72(a2)
   21c50:	6961                	lui	s2,0x18
   21c52:	0d6c                	addi	a1,sp,668
   21c54:	000a                	c.slli	zero,0x2
   21c56:	0000                	unimp
   21c58:	0000                	unimp
   21c5a:	0000                	unimp
   21c5c:	206c6573          	csrrsi	a0,0x206,24
   21c60:	6574                	ld	a3,200(a0)
   21c62:	6f207473          	csrrci	s0,0x6f2,0
   21c66:	000a0d6b          	0xa0d6b
   21c6a:	0000                	unimp
   21c6c:	7262                	ld	tp,56(sp)
   21c6e:	6e61                	lui	t3,0x18
   21c70:	74206863          	bltu	zero,sp,223c0 <payload_bin+0x1e44>
   21c74:	7365                	lui	t1,0xffff9
   21c76:	2074                	fld	fa3,192(s0)
   21c78:	6f64                	ld	s1,216(a4)
   21c7a:	656e                	ld	a0,216(sp)
   21c7c:	0a0d                	addi	s4,s4,3
   21c7e:	0000                	unimp
   21c80:	0000                	unimp
   21c82:	0000                	unimp
   21c84:	636c6557          	0x636c6557
   21c88:	20656d6f          	jal	s10,77e8e <bss_begin+0x52e8e>
   21c8c:	4952                	lw	s2,20(sp)
   21c8e:	562d4353          	0x562d4353
   21c92:	0d21                	addi	s10,s10,8
   21c94:	000a                	c.slli	zero,0x2
   21c96:	0000                	unimp
   21c98:	0000                	unimp
   21c9a:	0000                	unimp
   21c9c:	0a0d                	addi	s4,s4,3
   21c9e:	6f42                	ld	t5,16(sp)
   21ca0:	6e69746f          	jal	s0,b9386 <bss_begin+0x94386>
   21ca4:	74612067          	0x74612067
   21ca8:	6120                	ld	s0,64(a0)
   21caa:	0a0d6d73          	csrrsi	s10,0xa0,26
	...

Disassembly of section .rodata:

000000000002357c <.rodata>:
   2357c:	cb20                	sw	s0,80(a4)
   2357e:	cbd4ffff          	0xcbd4ffff
   23582:	cbd4ffff          	0xcbd4ffff
   23586:	cbd4ffff          	0xcbd4ffff
   2358a:	cbd4ffff          	0xcbd4ffff
   2358e:	cbd4ffff          	0xcbd4ffff
   23592:	cbd4ffff          	0xcbd4ffff
   23596:	cbd4ffff          	0xcbd4ffff
   2359a:	cbd4ffff          	0xcbd4ffff
   2359e:	cbd4ffff          	0xcbd4ffff
   235a2:	cbd4ffff          	0xcbd4ffff
   235a6:	cbd4ffff          	0xcbd4ffff
   235aa:	cbd4ffff          	0xcbd4ffff
   235ae:	cbd4ffff          	0xcbd4ffff
   235b2:	cbd4ffff          	0xcbd4ffff
   235b6:	cbd4ffff          	0xcbd4ffff
   235ba:	cb34ffff          	0xcb34ffff
   235be:	cb48ffff          	0xcb48ffff
   235c2:	cb5cffff          	0xcb5cffff
   235c6:	cb70ffff          	0xcb70ffff
   235ca:	cb84ffff          	0xcb84ffff
   235ce:	cb98ffff          	0xcb98ffff
   235d2:	cbacffff          	0xcbacffff
   235d6:	cbc0ffff          	0xcbc0ffff
   235da:	cbe0ffff          	0xcbe0ffff
   235de:	cc94ffff          	0xcc94ffff
   235e2:	cc94ffff          	0xcc94ffff
   235e6:	cc94ffff          	0xcc94ffff
   235ea:	cc94ffff          	0xcc94ffff
   235ee:	cc94ffff          	0xcc94ffff
   235f2:	cc94ffff          	0xcc94ffff
   235f6:	cc94ffff          	0xcc94ffff
   235fa:	cc94ffff          	0xcc94ffff
   235fe:	cc94ffff          	0xcc94ffff
   23602:	cc94ffff          	0xcc94ffff
   23606:	cc94ffff          	0xcc94ffff
   2360a:	cc94ffff          	0xcc94ffff
   2360e:	cc94ffff          	0xcc94ffff
   23612:	cc94ffff          	0xcc94ffff
   23616:	cc94ffff          	0xcc94ffff
   2361a:	cbf4ffff          	0xcbf4ffff
   2361e:	cc08ffff          	0xcc08ffff
   23622:	cc1cffff          	0xcc1cffff
   23626:	cc30ffff          	0xcc30ffff
   2362a:	cc44ffff          	0xcc44ffff
   2362e:	cc58ffff          	0xcc58ffff
   23632:	cc6cffff          	0xcc6cffff
   23636:	cc80ffff          	0xcc80ffff
   2363a:	          	0xffff

Disassembly of section .data:

0000000000024000 <stacks_start>:
	...

