
mysbi.elf:     file format elf64-littleriscv


Disassembly of section .text.boot:

0000000000020000 <_start>:
   20000:	0300006f          	j	20030 <reset>
   20004:	4765                	li	a4,25
   20006:	422e4e4f          	fnmadd.d	ft8,ft8,ft2,fs0,rmm
   2000a:	3054                	fld	fa3,160(s0)
   2000c:	5678                	lw	a4,108(a2)
   2000e:	1234                	addi	a3,sp,296
   20010:	5000                	lw	s0,32(s0)
   20012:	0000                	unimp
   20014:	0030                	addi	a2,sp,8
   20016:	0000                	unimp
   20018:	30303033          	0x30303033
   2001c:	0000                	unimp
   2001e:	0002                	c.slli64	zero
   20020:	0000                	unimp
   20022:	0002                	c.slli64	zero
	...
   2002c:	2e34                	fld	fa3,88(a2)
   2002e:	0030                	addi	a2,sp,8

0000000000020030 <reset>:
   20030:	00004117          	auipc	sp,0x4
   20034:	fd010113          	addi	sp,sp,-48 # 24000 <stacks_start>
   20038:	000012b7          	lui	t0,0x1
   2003c:	00510133          	add	sp,sp,t0
   20040:	4a00006f          	j	204e0 <sbi_main>

Disassembly of section .text:

0000000000020044 <read_csr_num>:
   20044:	fd010113          	addi	sp,sp,-48
   20048:	02813423          	sd	s0,40(sp)
   2004c:	02913023          	sd	s1,32(sp)
   20050:	03010413          	addi	s0,sp,48
   20054:	00050793          	mv	a5,a0
   20058:	fcf42e23          	sw	a5,-36(s0)
   2005c:	fe043423          	sd	zero,-24(s0)
   20060:	fdc42783          	lw	a5,-36(s0)
   20064:	c607869b          	addiw	a3,a5,-928
   20068:	0006871b          	sext.w	a4,a3
   2006c:	01700793          	li	a5,23
   20070:	0ee7e463          	bltu	a5,a4,20158 <read_csr_num+0x114>
   20074:	02069793          	slli	a5,a3,0x20
   20078:	0207d793          	srli	a5,a5,0x20
   2007c:	00279713          	slli	a4,a5,0x2
   20080:	00003797          	auipc	a5,0x3
   20084:	53878793          	addi	a5,a5,1336 # 235b8 <payload_bin+0x3000>
   20088:	00f707b3          	add	a5,a4,a5
   2008c:	0007a783          	lw	a5,0(a5)
   20090:	0007871b          	sext.w	a4,a5
   20094:	00003797          	auipc	a5,0x3
   20098:	52478793          	addi	a5,a5,1316 # 235b8 <payload_bin+0x3000>
   2009c:	00f707b3          	add	a5,a4,a5
   200a0:	00078067          	jr	a5
   200a4:	3a0027f3          	csrr	a5,pmpcfg0
   200a8:	00078493          	mv	s1,a5
   200ac:	00048793          	mv	a5,s1
   200b0:	fef43423          	sd	a5,-24(s0)
   200b4:	0a80006f          	j	2015c <read_csr_num+0x118>
   200b8:	3b0027f3          	csrr	a5,pmpaddr0
   200bc:	00078493          	mv	s1,a5
   200c0:	00048793          	mv	a5,s1
   200c4:	fef43423          	sd	a5,-24(s0)
   200c8:	0940006f          	j	2015c <read_csr_num+0x118>
   200cc:	3b1027f3          	csrr	a5,pmpaddr1
   200d0:	00078493          	mv	s1,a5
   200d4:	00048793          	mv	a5,s1
   200d8:	fef43423          	sd	a5,-24(s0)
   200dc:	0800006f          	j	2015c <read_csr_num+0x118>
   200e0:	3b2027f3          	csrr	a5,pmpaddr2
   200e4:	00078493          	mv	s1,a5
   200e8:	00048793          	mv	a5,s1
   200ec:	fef43423          	sd	a5,-24(s0)
   200f0:	06c0006f          	j	2015c <read_csr_num+0x118>
   200f4:	3b3027f3          	csrr	a5,pmpaddr3
   200f8:	00078493          	mv	s1,a5
   200fc:	00048793          	mv	a5,s1
   20100:	fef43423          	sd	a5,-24(s0)
   20104:	0580006f          	j	2015c <read_csr_num+0x118>
   20108:	3b4027f3          	csrr	a5,pmpaddr4
   2010c:	00078493          	mv	s1,a5
   20110:	00048793          	mv	a5,s1
   20114:	fef43423          	sd	a5,-24(s0)
   20118:	0440006f          	j	2015c <read_csr_num+0x118>
   2011c:	3b5027f3          	csrr	a5,pmpaddr5
   20120:	00078493          	mv	s1,a5
   20124:	00048793          	mv	a5,s1
   20128:	fef43423          	sd	a5,-24(s0)
   2012c:	0300006f          	j	2015c <read_csr_num+0x118>
   20130:	3b6027f3          	csrr	a5,pmpaddr6
   20134:	00078493          	mv	s1,a5
   20138:	00048793          	mv	a5,s1
   2013c:	fef43423          	sd	a5,-24(s0)
   20140:	01c0006f          	j	2015c <read_csr_num+0x118>
   20144:	3b7027f3          	csrr	a5,pmpaddr7
   20148:	00078493          	mv	s1,a5
   2014c:	00048793          	mv	a5,s1
   20150:	fef43423          	sd	a5,-24(s0)
   20154:	0080006f          	j	2015c <read_csr_num+0x118>
   20158:	00000013          	nop
   2015c:	fe843783          	ld	a5,-24(s0)
   20160:	00078513          	mv	a0,a5
   20164:	02813403          	ld	s0,40(sp)
   20168:	02013483          	ld	s1,32(sp)
   2016c:	03010113          	addi	sp,sp,48
   20170:	00008067          	ret

0000000000020174 <write_csr_num>:
   20174:	f9010113          	addi	sp,sp,-112
   20178:	06813423          	sd	s0,104(sp)
   2017c:	07010413          	addi	s0,sp,112
   20180:	00050793          	mv	a5,a0
   20184:	f8b43823          	sd	a1,-112(s0)
   20188:	f8f42e23          	sw	a5,-100(s0)
   2018c:	f9c42783          	lw	a5,-100(s0)
   20190:	c607869b          	addiw	a3,a5,-928
   20194:	0006871b          	sext.w	a4,a3
   20198:	01700793          	li	a5,23
   2019c:	0ee7e463          	bltu	a5,a4,20284 <write_csr_num+0x110>
   201a0:	02069793          	slli	a5,a3,0x20
   201a4:	0207d793          	srli	a5,a5,0x20
   201a8:	00279713          	slli	a4,a5,0x2
   201ac:	00003797          	auipc	a5,0x3
   201b0:	46c78793          	addi	a5,a5,1132 # 23618 <payload_bin+0x3060>
   201b4:	00f707b3          	add	a5,a4,a5
   201b8:	0007a783          	lw	a5,0(a5)
   201bc:	0007871b          	sext.w	a4,a5
   201c0:	00003797          	auipc	a5,0x3
   201c4:	45878793          	addi	a5,a5,1112 # 23618 <payload_bin+0x3060>
   201c8:	00f707b3          	add	a5,a4,a5
   201cc:	00078067          	jr	a5
   201d0:	f9043783          	ld	a5,-112(s0)
   201d4:	faf43423          	sd	a5,-88(s0)
   201d8:	fa843783          	ld	a5,-88(s0)
   201dc:	3a079073          	csrw	pmpcfg0,a5
   201e0:	0a80006f          	j	20288 <write_csr_num+0x114>
   201e4:	f9043783          	ld	a5,-112(s0)
   201e8:	faf43823          	sd	a5,-80(s0)
   201ec:	fb043783          	ld	a5,-80(s0)
   201f0:	3b079073          	csrw	pmpaddr0,a5
   201f4:	0940006f          	j	20288 <write_csr_num+0x114>
   201f8:	f9043783          	ld	a5,-112(s0)
   201fc:	faf43c23          	sd	a5,-72(s0)
   20200:	fb843783          	ld	a5,-72(s0)
   20204:	3b179073          	csrw	pmpaddr1,a5
   20208:	0800006f          	j	20288 <write_csr_num+0x114>
   2020c:	f9043783          	ld	a5,-112(s0)
   20210:	fcf43023          	sd	a5,-64(s0)
   20214:	fc043783          	ld	a5,-64(s0)
   20218:	3b279073          	csrw	pmpaddr2,a5
   2021c:	06c0006f          	j	20288 <write_csr_num+0x114>
   20220:	f9043783          	ld	a5,-112(s0)
   20224:	fcf43423          	sd	a5,-56(s0)
   20228:	fc843783          	ld	a5,-56(s0)
   2022c:	3b379073          	csrw	pmpaddr3,a5
   20230:	0580006f          	j	20288 <write_csr_num+0x114>
   20234:	f9043783          	ld	a5,-112(s0)
   20238:	fcf43823          	sd	a5,-48(s0)
   2023c:	fd043783          	ld	a5,-48(s0)
   20240:	3b479073          	csrw	pmpaddr4,a5
   20244:	0440006f          	j	20288 <write_csr_num+0x114>
   20248:	f9043783          	ld	a5,-112(s0)
   2024c:	fcf43c23          	sd	a5,-40(s0)
   20250:	fd843783          	ld	a5,-40(s0)
   20254:	3b579073          	csrw	pmpaddr5,a5
   20258:	0300006f          	j	20288 <write_csr_num+0x114>
   2025c:	f9043783          	ld	a5,-112(s0)
   20260:	fef43023          	sd	a5,-32(s0)
   20264:	fe043783          	ld	a5,-32(s0)
   20268:	3b679073          	csrw	pmpaddr6,a5
   2026c:	01c0006f          	j	20288 <write_csr_num+0x114>
   20270:	f9043783          	ld	a5,-112(s0)
   20274:	fef43423          	sd	a5,-24(s0)
   20278:	fe843783          	ld	a5,-24(s0)
   2027c:	3b779073          	csrw	pmpaddr7,a5
   20280:	0080006f          	j	20288 <write_csr_num+0x114>
   20284:	00000013          	nop
   20288:	00000013          	nop
   2028c:	06813403          	ld	s0,104(sp)
   20290:	07010113          	addi	sp,sp,112
   20294:	00008067          	ret

0000000000020298 <log2roundup>:
   20298:	fd010113          	addi	sp,sp,-48
   2029c:	02813423          	sd	s0,40(sp)
   202a0:	03010413          	addi	s0,sp,48
   202a4:	fca43c23          	sd	a0,-40(s0)
   202a8:	fe043423          	sd	zero,-24(s0)
   202ac:	02c0006f          	j	202d8 <log2roundup+0x40>
   202b0:	fe843783          	ld	a5,-24(s0)
   202b4:	0007879b          	sext.w	a5,a5
   202b8:	00078713          	mv	a4,a5
   202bc:	00100793          	li	a5,1
   202c0:	00e797b3          	sll	a5,a5,a4
   202c4:	fd843703          	ld	a4,-40(s0)
   202c8:	02e7f063          	bgeu	a5,a4,202e8 <log2roundup+0x50>
   202cc:	fe843783          	ld	a5,-24(s0)
   202d0:	00178793          	addi	a5,a5,1
   202d4:	fef43423          	sd	a5,-24(s0)
   202d8:	fe843703          	ld	a4,-24(s0)
   202dc:	03f00793          	li	a5,63
   202e0:	fce7f8e3          	bgeu	a5,a4,202b0 <log2roundup+0x18>
   202e4:	0080006f          	j	202ec <log2roundup+0x54>
   202e8:	00000013          	nop
   202ec:	fe843783          	ld	a5,-24(s0)
   202f0:	00078513          	mv	a0,a5
   202f4:	02813403          	ld	s0,40(sp)
   202f8:	03010113          	addi	sp,sp,48
   202fc:	00008067          	ret

0000000000020300 <sbi_set_pmp>:
   20300:	fa010113          	addi	sp,sp,-96
   20304:	04113c23          	sd	ra,88(sp)
   20308:	04813823          	sd	s0,80(sp)
   2030c:	06010413          	addi	s0,sp,96
   20310:	00050793          	mv	a5,a0
   20314:	fab43823          	sd	a1,-80(s0)
   20318:	fac43423          	sd	a2,-88(s0)
   2031c:	fad43023          	sd	a3,-96(s0)
   20320:	faf42e23          	sw	a5,-68(s0)
   20324:	fbc42783          	lw	a5,-68(s0)
   20328:	0007871b          	sext.w	a4,a5
   2032c:	00800793          	li	a5,8
   20330:	00e7d663          	bge	a5,a4,2033c <sbi_set_pmp+0x3c>
   20334:	fff00793          	li	a5,-1
   20338:	1940006f          	j	204cc <sbi_set_pmp+0x1cc>
   2033c:	fa843503          	ld	a0,-88(s0)
   20340:	f59ff0ef          	jal	ra,20298 <log2roundup>
   20344:	00050793          	mv	a5,a0
   20348:	fef42223          	sw	a5,-28(s0)
   2034c:	fe442783          	lw	a5,-28(s0)
   20350:	0007871b          	sext.w	a4,a5
   20354:	00100793          	li	a5,1
   20358:	00e7c663          	blt	a5,a4,20364 <sbi_set_pmp+0x64>
   2035c:	fff00793          	li	a5,-1
   20360:	16c0006f          	j	204cc <sbi_set_pmp+0x1cc>
   20364:	fb043783          	ld	a5,-80(s0)
   20368:	0027d793          	srli	a5,a5,0x2
   2036c:	fef43423          	sd	a5,-24(s0)
   20370:	fbc42783          	lw	a5,-68(s0)
   20374:	4027d79b          	sraiw	a5,a5,0x2
   20378:	0007879b          	sext.w	a5,a5
   2037c:	3a07879b          	addiw	a5,a5,928
   20380:	0007879b          	sext.w	a5,a5
   20384:	ffe7f793          	andi	a5,a5,-2
   20388:	fef42023          	sw	a5,-32(s0)
   2038c:	fbc42783          	lw	a5,-68(s0)
   20390:	0037979b          	slliw	a5,a5,0x3
   20394:	0007879b          	sext.w	a5,a5
   20398:	0387f793          	andi	a5,a5,56
   2039c:	fcf42e23          	sw	a5,-36(s0)
   203a0:	fbc42783          	lw	a5,-68(s0)
   203a4:	3b07879b          	addiw	a5,a5,944
   203a8:	fcf42c23          	sw	a5,-40(s0)
   203ac:	fa043783          	ld	a5,-96(s0)
   203b0:	fe77f793          	andi	a5,a5,-25
   203b4:	faf43023          	sd	a5,-96(s0)
   203b8:	fe442783          	lw	a5,-28(s0)
   203bc:	0007871b          	sext.w	a4,a5
   203c0:	00200793          	li	a5,2
   203c4:	00f71663          	bne	a4,a5,203d0 <sbi_set_pmp+0xd0>
   203c8:	01000793          	li	a5,16
   203cc:	0080006f          	j	203d4 <sbi_set_pmp+0xd4>
   203d0:	01800793          	li	a5,24
   203d4:	fa043703          	ld	a4,-96(s0)
   203d8:	00f767b3          	or	a5,a4,a5
   203dc:	faf43023          	sd	a5,-96(s0)
   203e0:	fdc42783          	lw	a5,-36(s0)
   203e4:	0ff00713          	li	a4,255
   203e8:	00f717b3          	sll	a5,a4,a5
   203ec:	fff7c793          	not	a5,a5
   203f0:	fcf43823          	sd	a5,-48(s0)
   203f4:	fe042783          	lw	a5,-32(s0)
   203f8:	00078513          	mv	a0,a5
   203fc:	c49ff0ef          	jal	ra,20044 <read_csr_num>
   20400:	00050713          	mv	a4,a0
   20404:	fd043783          	ld	a5,-48(s0)
   20408:	00e7f7b3          	and	a5,a5,a4
   2040c:	fcf43423          	sd	a5,-56(s0)
   20410:	fdc42783          	lw	a5,-36(s0)
   20414:	fa043703          	ld	a4,-96(s0)
   20418:	00f71733          	sll	a4,a4,a5
   2041c:	fd043783          	ld	a5,-48(s0)
   20420:	fff7c793          	not	a5,a5
   20424:	00f777b3          	and	a5,a4,a5
   20428:	fc843703          	ld	a4,-56(s0)
   2042c:	00f767b3          	or	a5,a4,a5
   20430:	fcf43423          	sd	a5,-56(s0)
   20434:	fe442783          	lw	a5,-28(s0)
   20438:	0007871b          	sext.w	a4,a5
   2043c:	00200793          	li	a5,2
   20440:	06e7d463          	bge	a5,a4,204a8 <sbi_set_pmp+0x1a8>
   20444:	fe442783          	lw	a5,-28(s0)
   20448:	0007871b          	sext.w	a4,a5
   2044c:	04000793          	li	a5,64
   20450:	00f71863          	bne	a4,a5,20460 <sbi_set_pmp+0x160>
   20454:	fff00793          	li	a5,-1
   20458:	fef43423          	sd	a5,-24(s0)
   2045c:	04c0006f          	j	204a8 <sbi_set_pmp+0x1a8>
   20460:	fe442783          	lw	a5,-28(s0)
   20464:	ffe7879b          	addiw	a5,a5,-2
   20468:	0007879b          	sext.w	a5,a5
   2046c:	00078713          	mv	a4,a5
   20470:	00100793          	li	a5,1
   20474:	00e797b3          	sll	a5,a5,a4
   20478:	fff78793          	addi	a5,a5,-1
   2047c:	fcf43023          	sd	a5,-64(s0)
   20480:	fc043783          	ld	a5,-64(s0)
   20484:	fff7c793          	not	a5,a5
   20488:	fe843703          	ld	a4,-24(s0)
   2048c:	00f777b3          	and	a5,a4,a5
   20490:	fef43423          	sd	a5,-24(s0)
   20494:	fc043783          	ld	a5,-64(s0)
   20498:	0017d793          	srli	a5,a5,0x1
   2049c:	fe843703          	ld	a4,-24(s0)
   204a0:	00f767b3          	or	a5,a4,a5
   204a4:	fef43423          	sd	a5,-24(s0)
   204a8:	fd842783          	lw	a5,-40(s0)
   204ac:	fe843583          	ld	a1,-24(s0)
   204b0:	00078513          	mv	a0,a5
   204b4:	cc1ff0ef          	jal	ra,20174 <write_csr_num>
   204b8:	fe042783          	lw	a5,-32(s0)
   204bc:	fc843583          	ld	a1,-56(s0)
   204c0:	00078513          	mv	a0,a5
   204c4:	cb1ff0ef          	jal	ra,20174 <write_csr_num>
   204c8:	00000793          	li	a5,0
   204cc:	00078513          	mv	a0,a5
   204d0:	05813083          	ld	ra,88(sp)
   204d4:	05013403          	ld	s0,80(sp)
   204d8:	06010113          	addi	sp,sp,96
   204dc:	00008067          	ret

00000000000204e0 <sbi_main>:
   204e0:	fa010113          	addi	sp,sp,-96
   204e4:	04113c23          	sd	ra,88(sp)
   204e8:	04813823          	sd	s0,80(sp)
   204ec:	04913423          	sd	s1,72(sp)
   204f0:	06010413          	addi	s0,sp,96
   204f4:	00700693          	li	a3,7
   204f8:	fff00613          	li	a2,-1
   204fc:	00000593          	li	a1,0
   20500:	00000513          	li	a0,0
   20504:	dfdff0ef          	jal	ra,20300 <sbi_set_pmp>
   20508:	300027f3          	csrr	a5,mstatus
   2050c:	00078493          	mv	s1,a5
   20510:	00048793          	mv	a5,s1
   20514:	fcf43c23          	sd	a5,-40(s0)
   20518:	fd843703          	ld	a4,-40(s0)
   2051c:	ffffe7b7          	lui	a5,0xffffe
   20520:	7ff78793          	addi	a5,a5,2047 # ffffffffffffe7ff <bss_begin+0xfffffffffffd97ff>
   20524:	00f77733          	and	a4,a4,a5
   20528:	000017b7          	lui	a5,0x1
   2052c:	80078793          	addi	a5,a5,-2048 # 800 <__bin_size-0x4800>
   20530:	00f767b3          	or	a5,a4,a5
   20534:	fcf43c23          	sd	a5,-40(s0)
   20538:	fd843783          	ld	a5,-40(s0)
   2053c:	f7f7f793          	andi	a5,a5,-129
   20540:	fcf43c23          	sd	a5,-40(s0)
   20544:	fd843783          	ld	a5,-40(s0)
   20548:	fcf43823          	sd	a5,-48(s0)
   2054c:	fd043783          	ld	a5,-48(s0)
   20550:	30079073          	csrw	mstatus,a5
   20554:	000227b7          	lui	a5,0x22
   20558:	fcf43423          	sd	a5,-56(s0)
   2055c:	fc843783          	ld	a5,-56(s0)
   20560:	34179073          	csrw	mepc,a5
   20564:	000207b7          	lui	a5,0x20
   20568:	fcf43023          	sd	a5,-64(s0)
   2056c:	fc043783          	ld	a5,-64(s0)
   20570:	30579073          	csrw	mtvec,a5
   20574:	000227b7          	lui	a5,0x22
   20578:	faf43c23          	sd	a5,-72(s0)
   2057c:	fb843783          	ld	a5,-72(s0)
   20580:	10579073          	csrw	stvec,a5
   20584:	fa043823          	sd	zero,-80(s0)
   20588:	fb043783          	ld	a5,-80(s0)
   2058c:	10479073          	csrw	sie,a5
   20590:	fa043423          	sd	zero,-88(s0)
   20594:	fa843783          	ld	a5,-88(s0)
   20598:	18079073          	csrw	satp,a5
   2059c:	30200073          	mret
   205a0:	00000013          	nop
   205a4:	05813083          	ld	ra,88(sp)
   205a8:	05013403          	ld	s0,80(sp)
   205ac:	04813483          	ld	s1,72(sp)
   205b0:	06010113          	addi	sp,sp,96
   205b4:	00008067          	ret

Disassembly of section .payload:

00000000000205b8 <payload_bin>:
   205b8:	10401073          	csrw	sie,zero
   205bc:	0cd010ef          	jal	ra,21e88 <payload_bin+0x18d0>
   205c0:	00000097          	auipc	ra,0x0
   205c4:	01c080e7          	jalr	28(ra) # 205dc <payload_bin+0x24>
   205c8:	00002117          	auipc	sp,0x2
   205cc:	ff010113          	addi	sp,sp,-16 # 225b8 <payload_bin+0x2000>
   205d0:	000012b7          	lui	t0,0x1
   205d4:	00510133          	add	sp,sp,t0
   205d8:	22c0006f          	j	20804 <payload_bin+0x24c>
   205dc:	00008493          	mv	s1,ra
   205e0:	00002517          	auipc	a0,0x2
   205e4:	a4050513          	addi	a0,a0,-1472 # 22020 <payload_bin+0x1a68>
   205e8:	161010ef          	jal	ra,21f48 <payload_bin+0x1990>
   205ec:	00048093          	mv	ra,s1
   205f0:	00008067          	ret
   205f4:	0000                	unimp
   205f6:	0000                	unimp
   205f8:	fc010113          	addi	sp,sp,-64
   205fc:	02113c23          	sd	ra,56(sp)
   20600:	02813823          	sd	s0,48(sp)
   20604:	04010413          	addi	s0,sp,64
   20608:	fca43423          	sd	a0,-56(s0)
   2060c:	fe042623          	sw	zero,-20(s0)
   20610:	0300006f          	j	20640 <payload_bin+0x88>
   20614:	00001717          	auipc	a4,0x1
   20618:	7d470713          	addi	a4,a4,2004 # 21de8 <payload_bin+0x1830>
   2061c:	fec42783          	lw	a5,-20(s0)
   20620:	00379793          	slli	a5,a5,0x3
   20624:	00f707b3          	add	a5,a4,a5
   20628:	0007b783          	ld	a5,0(a5) # 22000 <payload_bin+0x1a48>
   2062c:	fc843703          	ld	a4,-56(s0)
   20630:	02f70663          	beq	a4,a5,2065c <payload_bin+0xa4>
   20634:	fec42783          	lw	a5,-20(s0)
   20638:	0017879b          	addiw	a5,a5,1
   2063c:	fef42623          	sw	a5,-20(s0)
   20640:	fec42703          	lw	a4,-20(s0)
   20644:	00001797          	auipc	a5,0x1
   20648:	7d478793          	addi	a5,a5,2004 # 21e18 <payload_bin+0x1860>
   2064c:	0007b783          	ld	a5,0(a5)
   20650:	fcf762e3          	bltu	a4,a5,20614 <payload_bin+0x5c>
   20654:	00000793          	li	a5,0
   20658:	0880006f          	j	206e0 <payload_bin+0x128>
   2065c:	00000013          	nop
   20660:	00001797          	auipc	a5,0x1
   20664:	7a078793          	addi	a5,a5,1952 # 21e00 <payload_bin+0x1848>
   20668:	fef43023          	sd	a5,-32(s0)
   2066c:	fec42783          	lw	a5,-20(s0)
   20670:	0007879b          	sext.w	a5,a5
   20674:	00079863          	bnez	a5,20684 <payload_bin+0xcc>
   20678:	fe043783          	ld	a5,-32(s0)
   2067c:	fcf43c23          	sd	a5,-40(s0)
   20680:	0480006f          	j	206c8 <payload_bin+0x110>
   20684:	fe043783          	ld	a5,-32(s0)
   20688:	00178793          	addi	a5,a5,1
   2068c:	fef43023          	sd	a5,-32(s0)
   20690:	fe043783          	ld	a5,-32(s0)
   20694:	0007c783          	lbu	a5,0(a5)
   20698:	00079863          	bnez	a5,206a8 <payload_bin+0xf0>
   2069c:	fec42783          	lw	a5,-20(s0)
   206a0:	fff7879b          	addiw	a5,a5,-1
   206a4:	fef42623          	sw	a5,-20(s0)
   206a8:	fec42783          	lw	a5,-20(s0)
   206ac:	0007879b          	sext.w	a5,a5
   206b0:	fc079ae3          	bnez	a5,20684 <payload_bin+0xcc>
   206b4:	fe043783          	ld	a5,-32(s0)
   206b8:	00178793          	addi	a5,a5,1
   206bc:	fef43023          	sd	a5,-32(s0)
   206c0:	fe043783          	ld	a5,-32(s0)
   206c4:	fcf43c23          	sd	a5,-40(s0)
   206c8:	fd843503          	ld	a0,-40(s0)
   206cc:	759000ef          	jal	ra,21624 <payload_bin+0x106c>
   206d0:	00002517          	auipc	a0,0x2
   206d4:	8b850513          	addi	a0,a0,-1864 # 21f88 <payload_bin+0x19d0>
   206d8:	74d000ef          	jal	ra,21624 <payload_bin+0x106c>
   206dc:	00000793          	li	a5,0
   206e0:	00078513          	mv	a0,a5
   206e4:	03813083          	ld	ra,56(sp)
   206e8:	03013403          	ld	s0,48(sp)
   206ec:	04010113          	addi	sp,sp,64
   206f0:	00008067          	ret
   206f4:	fe010113          	addi	sp,sp,-32
   206f8:	00113c23          	sd	ra,24(sp)
   206fc:	00813823          	sd	s0,16(sp)
   20700:	02010413          	addi	s0,sp,32
   20704:	584010ef          	jal	ra,21c88 <payload_bin+0x16d0>
   20708:	5b4010ef          	jal	ra,21cbc <payload_bin+0x1704>
   2070c:	5f8010ef          	jal	ra,21d04 <payload_bin+0x174c>
   20710:	644010ef          	jal	ra,21d54 <payload_bin+0x179c>
   20714:	664010ef          	jal	ra,21d78 <payload_bin+0x17c0>
   20718:	02800613          	li	a2,40
   2071c:	05500593          	li	a1,85
   20720:	00021537          	lui	a0,0x21
   20724:	31c000ef          	jal	ra,20a40 <payload_bin+0x488>
   20728:	00900593          	li	a1,9
   2072c:	00a00513          	li	a0,10
   20730:	66c010ef          	jal	ra,21d9c <payload_bin+0x17e4>
   20734:	fea43423          	sd	a0,-24(s0)
   20738:	fe843783          	ld	a5,-24(s0)
   2073c:	00079863          	bnez	a5,2074c <payload_bin+0x194>
   20740:	00002517          	auipc	a0,0x2
   20744:	85050513          	addi	a0,a0,-1968 # 21f90 <payload_bin+0x19d8>
   20748:	6dd000ef          	jal	ra,21624 <payload_bin+0x106c>
   2074c:	00a00593          	li	a1,10
   20750:	00900513          	li	a0,9
   20754:	648010ef          	jal	ra,21d9c <payload_bin+0x17e4>
   20758:	fea43023          	sd	a0,-32(s0)
   2075c:	fe043703          	ld	a4,-32(s0)
   20760:	fff00793          	li	a5,-1
   20764:	00f71863          	bne	a4,a5,20774 <payload_bin+0x1bc>
   20768:	00002517          	auipc	a0,0x2
   2076c:	82850513          	addi	a0,a0,-2008 # 21f90 <payload_bin+0x19d8>
   20770:	6b5000ef          	jal	ra,21624 <payload_bin+0x106c>
   20774:	00900593          	li	a1,9
   20778:	00000513          	li	a0,0
   2077c:	638010ef          	jal	ra,21db4 <payload_bin+0x17fc>
   20780:	fea43423          	sd	a0,-24(s0)
   20784:	00200593          	li	a1,2
   20788:	00500513          	li	a0,5
   2078c:	628010ef          	jal	ra,21db4 <payload_bin+0x17fc>
   20790:	fea43023          	sd	a0,-32(s0)
   20794:	638010ef          	jal	ra,21dcc <payload_bin+0x1814>
   20798:	00002517          	auipc	a0,0x2
   2079c:	81850513          	addi	a0,a0,-2024 # 21fb0 <payload_bin+0x19f8>
   207a0:	685000ef          	jal	ra,21624 <payload_bin+0x106c>
   207a4:	00500593          	li	a1,5
   207a8:	00500513          	li	a0,5
   207ac:	684010ef          	jal	ra,21e30 <payload_bin+0x1878>
   207b0:	fea43423          	sd	a0,-24(s0)
   207b4:	fe843703          	ld	a4,-24(s0)
   207b8:	00a00793          	li	a5,10
   207bc:	00f71863          	bne	a4,a5,207cc <payload_bin+0x214>
   207c0:	00002517          	auipc	a0,0x2
   207c4:	80850513          	addi	a0,a0,-2040 # 21fc8 <payload_bin+0x1a10>
   207c8:	65d000ef          	jal	ra,21624 <payload_bin+0x106c>
   207cc:	00500593          	li	a1,5
   207d0:	00500513          	li	a0,5
   207d4:	684010ef          	jal	ra,21e58 <payload_bin+0x18a0>
   207d8:	fea43023          	sd	a0,-32(s0)
   207dc:	fe043783          	ld	a5,-32(s0)
   207e0:	00079863          	bnez	a5,207f0 <payload_bin+0x238>
   207e4:	00002517          	auipc	a0,0x2
   207e8:	80450513          	addi	a0,a0,-2044 # 21fe8 <payload_bin+0x1a30>
   207ec:	639000ef          	jal	ra,21624 <payload_bin+0x106c>
   207f0:	00000013          	nop
   207f4:	01813083          	ld	ra,24(sp)
   207f8:	01013403          	ld	s0,16(sp)
   207fc:	02010113          	addi	sp,sp,32
   20800:	00008067          	ret
   20804:	ff010113          	addi	sp,sp,-16
   20808:	00113423          	sd	ra,8(sp)
   2080c:	00813023          	sd	s0,0(sp)
   20810:	01010413          	addi	s0,sp,16
   20814:	2b5000ef          	jal	ra,212c8 <payload_bin+0xd10>
   20818:	00001517          	auipc	a0,0x1
   2081c:	7f050513          	addi	a0,a0,2032 # 22008 <payload_bin+0x1a50>
   20820:	605000ef          	jal	ra,21624 <payload_bin+0x106c>
   20824:	ed1ff0ef          	jal	ra,206f4 <payload_bin+0x13c>
   20828:	008017b7          	lui	a5,0x801
   2082c:	88078513          	addi	a0,a5,-1920 # 800880 <bss_begin+0x7db880>
   20830:	dc9ff0ef          	jal	ra,205f8 <payload_bin+0x40>
   20834:	008017b7          	lui	a5,0x801
   20838:	86078513          	addi	a0,a5,-1952 # 800860 <bss_begin+0x7db860>
   2083c:	dbdff0ef          	jal	ra,205f8 <payload_bin+0x40>
   20840:	008017b7          	lui	a5,0x801
   20844:	80078513          	addi	a0,a5,-2048 # 800800 <bss_begin+0x7db800>
   20848:	db1ff0ef          	jal	ra,205f8 <payload_bin+0x40>
   2084c:	0000006f          	j	2084c <payload_bin+0x294>
   20850:	fc010113          	addi	sp,sp,-64
   20854:	02813c23          	sd	s0,56(sp)
   20858:	04010413          	addi	s0,sp,64
   2085c:	fca43c23          	sd	a0,-40(s0)
   20860:	00058793          	mv	a5,a1
   20864:	fcc43423          	sd	a2,-56(s0)
   20868:	fcf42a23          	sw	a5,-44(s0)
   2086c:	fd843783          	ld	a5,-40(s0)
   20870:	fef43423          	sd	a5,-24(s0)
   20874:	01c0006f          	j	20890 <payload_bin+0x2d8>
   20878:	fe843783          	ld	a5,-24(s0)
   2087c:	00178713          	addi	a4,a5,1
   20880:	fee43423          	sd	a4,-24(s0)
   20884:	fd442703          	lw	a4,-44(s0)
   20888:	0ff77713          	andi	a4,a4,255
   2088c:	00e78023          	sb	a4,0(a5)
   20890:	fc843783          	ld	a5,-56(s0)
   20894:	fff78713          	addi	a4,a5,-1
   20898:	fce43423          	sd	a4,-56(s0)
   2089c:	fc079ee3          	bnez	a5,20878 <payload_bin+0x2c0>
   208a0:	fd843783          	ld	a5,-40(s0)
   208a4:	00078513          	mv	a0,a5
   208a8:	03813403          	ld	s0,56(sp)
   208ac:	04010113          	addi	sp,sp,64
   208b0:	00008067          	ret
   208b4:	f9010113          	addi	sp,sp,-112
   208b8:	06113423          	sd	ra,104(sp)
   208bc:	06813023          	sd	s0,96(sp)
   208c0:	07010413          	addi	s0,sp,112
   208c4:	faa43423          	sd	a0,-88(s0)
   208c8:	00058793          	mv	a5,a1
   208cc:	f8c43c23          	sd	a2,-104(s0)
   208d0:	faf42223          	sw	a5,-92(s0)
   208d4:	fa843783          	ld	a5,-88(s0)
   208d8:	fef43423          	sd	a5,-24(s0)
   208dc:	01000793          	li	a5,16
   208e0:	fcf43423          	sd	a5,-56(s0)
   208e4:	f9843783          	ld	a5,-104(s0)
   208e8:	fef43023          	sd	a5,-32(s0)
   208ec:	fe843783          	ld	a5,-24(s0)
   208f0:	fcf43023          	sd	a5,-64(s0)
   208f4:	fc043823          	sd	zero,-48(s0)
   208f8:	fc042e23          	sw	zero,-36(s0)
   208fc:	0340006f          	j	20930 <payload_bin+0x378>
   20900:	fa442783          	lw	a5,-92(s0)
   20904:	0ff7f793          	andi	a5,a5,255
   20908:	fdc42703          	lw	a4,-36(s0)
   2090c:	0037171b          	slliw	a4,a4,0x3
   20910:	0007071b          	sext.w	a4,a4
   20914:	00e797b3          	sll	a5,a5,a4
   20918:	fd043703          	ld	a4,-48(s0)
   2091c:	00f767b3          	or	a5,a4,a5
   20920:	fcf43823          	sd	a5,-48(s0)
   20924:	fdc42783          	lw	a5,-36(s0)
   20928:	0017879b          	addiw	a5,a5,1
   2092c:	fcf42e23          	sw	a5,-36(s0)
   20930:	fdc42783          	lw	a5,-36(s0)
   20934:	0007871b          	sext.w	a4,a5
   20938:	00700793          	li	a5,7
   2093c:	fce7d2e3          	bge	a5,a4,20900 <payload_bin+0x348>
   20940:	fc843783          	ld	a5,-56(s0)
   20944:	fff78713          	addi	a4,a5,-1
   20948:	fc043783          	ld	a5,-64(s0)
   2094c:	00f777b3          	and	a5,a4,a5
   20950:	04078e63          	beqz	a5,209ac <payload_bin+0x3f4>
   20954:	fc843783          	ld	a5,-56(s0)
   20958:	fff78793          	addi	a5,a5,-1
   2095c:	fc043703          	ld	a4,-64(s0)
   20960:	00f777b3          	and	a5,a4,a5
   20964:	faf43c23          	sd	a5,-72(s0)
   20968:	fc843703          	ld	a4,-56(s0)
   2096c:	fb843783          	ld	a5,-72(s0)
   20970:	40f707b3          	sub	a5,a4,a5
   20974:	faf43c23          	sd	a5,-72(s0)
   20978:	fa442783          	lw	a5,-92(s0)
   2097c:	fb843603          	ld	a2,-72(s0)
   20980:	00078593          	mv	a1,a5
   20984:	fe843503          	ld	a0,-24(s0)
   20988:	ec9ff0ef          	jal	ra,20850 <payload_bin+0x298>
   2098c:	fe843703          	ld	a4,-24(s0)
   20990:	fb843783          	ld	a5,-72(s0)
   20994:	00f707b3          	add	a5,a4,a5
   20998:	fef43423          	sd	a5,-24(s0)
   2099c:	f9843703          	ld	a4,-104(s0)
   209a0:	fb843783          	ld	a5,-72(s0)
   209a4:	40f707b3          	sub	a5,a4,a5
   209a8:	fef43023          	sd	a5,-32(s0)
   209ac:	fe043703          	ld	a4,-32(s0)
   209b0:	fc843783          	ld	a5,-56(s0)
   209b4:	06e7fa63          	bgeu	a5,a4,20a28 <payload_bin+0x470>
   209b8:	fe043703          	ld	a4,-32(s0)
   209bc:	fc843783          	ld	a5,-56(s0)
   209c0:	02f757b3          	divu	a5,a4,a5
   209c4:	faf42a23          	sw	a5,-76(s0)
   209c8:	fe043703          	ld	a4,-32(s0)
   209cc:	fc843783          	ld	a5,-56(s0)
   209d0:	02f777b3          	remu	a5,a4,a5
   209d4:	fef43023          	sd	a5,-32(s0)
   209d8:	fb442783          	lw	a5,-76(s0)
   209dc:	0047979b          	slliw	a5,a5,0x4
   209e0:	0007879b          	sext.w	a5,a5
   209e4:	00078613          	mv	a2,a5
   209e8:	fd043583          	ld	a1,-48(s0)
   209ec:	fe843503          	ld	a0,-24(s0)
   209f0:	57c010ef          	jal	ra,21f6c <payload_bin+0x19b4>
   209f4:	fe043783          	ld	a5,-32(s0)
   209f8:	02078863          	beqz	a5,20a28 <payload_bin+0x470>
   209fc:	fb442783          	lw	a5,-76(s0)
   20a00:	0047979b          	slliw	a5,a5,0x4
   20a04:	0007879b          	sext.w	a5,a5
   20a08:	00078713          	mv	a4,a5
   20a0c:	fe843783          	ld	a5,-24(s0)
   20a10:	00e787b3          	add	a5,a5,a4
   20a14:	fa442703          	lw	a4,-92(s0)
   20a18:	fe043603          	ld	a2,-32(s0)
   20a1c:	00070593          	mv	a1,a4
   20a20:	00078513          	mv	a0,a5
   20a24:	e2dff0ef          	jal	ra,20850 <payload_bin+0x298>
   20a28:	fa843783          	ld	a5,-88(s0)
   20a2c:	00078513          	mv	a0,a5
   20a30:	06813083          	ld	ra,104(sp)
   20a34:	06013403          	ld	s0,96(sp)
   20a38:	07010113          	addi	sp,sp,112
   20a3c:	00008067          	ret
   20a40:	fd010113          	addi	sp,sp,-48
   20a44:	02113423          	sd	ra,40(sp)
   20a48:	02813023          	sd	s0,32(sp)
   20a4c:	03010413          	addi	s0,sp,48
   20a50:	fea43423          	sd	a0,-24(s0)
   20a54:	00058793          	mv	a5,a1
   20a58:	fcc43c23          	sd	a2,-40(s0)
   20a5c:	fef42223          	sw	a5,-28(s0)
   20a60:	fe442783          	lw	a5,-28(s0)
   20a64:	fd843603          	ld	a2,-40(s0)
   20a68:	00078593          	mv	a1,a5
   20a6c:	fe843503          	ld	a0,-24(s0)
   20a70:	e45ff0ef          	jal	ra,208b4 <payload_bin+0x2fc>
   20a74:	00050793          	mv	a5,a0
   20a78:	00078513          	mv	a0,a5
   20a7c:	02813083          	ld	ra,40(sp)
   20a80:	02013403          	ld	s0,32(sp)
   20a84:	03010113          	addi	sp,sp,48
   20a88:	00008067          	ret
   20a8c:	fe010113          	addi	sp,sp,-32
   20a90:	00813c23          	sd	s0,24(sp)
   20a94:	02010413          	addi	s0,sp,32
   20a98:	fea43423          	sd	a0,-24(s0)
   20a9c:	fe843783          	ld	a5,-24(s0)
   20aa0:	0007a783          	lw	a5,0(a5)
   20aa4:	0007879b          	sext.w	a5,a5
   20aa8:	00078513          	mv	a0,a5
   20aac:	01813403          	ld	s0,24(sp)
   20ab0:	02010113          	addi	sp,sp,32
   20ab4:	00008067          	ret
   20ab8:	fe010113          	addi	sp,sp,-32
   20abc:	00813c23          	sd	s0,24(sp)
   20ac0:	02010413          	addi	s0,sp,32
   20ac4:	fea43423          	sd	a0,-24(s0)
   20ac8:	00058793          	mv	a5,a1
   20acc:	fef42223          	sw	a5,-28(s0)
   20ad0:	fe843783          	ld	a5,-24(s0)
   20ad4:	fe442703          	lw	a4,-28(s0)
   20ad8:	00e7a023          	sw	a4,0(a5)
   20adc:	00000013          	nop
   20ae0:	01813403          	ld	s0,24(sp)
   20ae4:	02010113          	addi	sp,sp,32
   20ae8:	00008067          	ret
   20aec:	fe010113          	addi	sp,sp,-32
   20af0:	00813c23          	sd	s0,24(sp)
   20af4:	02010413          	addi	s0,sp,32
   20af8:	fea43423          	sd	a0,-24(s0)
   20afc:	fe843783          	ld	a5,-24(s0)
   20b00:	00a79793          	slli	a5,a5,0xa
   20b04:	fef43423          	sd	a5,-24(s0)
   20b08:	00000013          	nop
   20b0c:	fe843783          	ld	a5,-24(s0)
   20b10:	fff78713          	addi	a4,a5,-1
   20b14:	fee43423          	sd	a4,-24(s0)
   20b18:	fe079ae3          	bnez	a5,20b0c <payload_bin+0x554>
   20b1c:	00000013          	nop
   20b20:	00000013          	nop
   20b24:	01813403          	ld	s0,24(sp)
   20b28:	02010113          	addi	sp,sp,32
   20b2c:	00008067          	ret
   20b30:	fe010113          	addi	sp,sp,-32
   20b34:	00113c23          	sd	ra,24(sp)
   20b38:	00813823          	sd	s0,16(sp)
   20b3c:	02010413          	addi	s0,sp,32
   20b40:	30100593          	li	a1,769
   20b44:	020027b7          	lui	a5,0x2002
   20b48:	d0078513          	addi	a0,a5,-768 # 2001d00 <bss_begin+0x1fdcd00>
   20b4c:	f6dff0ef          	jal	ra,20ab8 <payload_bin+0x500>
   20b50:	00100513          	li	a0,1
   20b54:	f99ff0ef          	jal	ra,20aec <payload_bin+0x534>
   20b58:	02001537          	lui	a0,0x2001
   20b5c:	f31ff0ef          	jal	ra,20a8c <payload_bin+0x4d4>
   20b60:	00050793          	mv	a5,a0
   20b64:	fef42623          	sw	a5,-20(s0)
   20b68:	fec42703          	lw	a4,-20(s0)
   20b6c:	f80007b7          	lui	a5,0xf8000
   20b70:	fff78793          	addi	a5,a5,-1 # fffffffff7ffffff <bss_begin+0xfffffffff7fdafff>
   20b74:	00f777b3          	and	a5,a4,a5
   20b78:	fef42623          	sw	a5,-20(s0)
   20b7c:	fec42783          	lw	a5,-20(s0)
   20b80:	00078593          	mv	a1,a5
   20b84:	02001537          	lui	a0,0x2001
   20b88:	f31ff0ef          	jal	ra,20ab8 <payload_bin+0x500>
   20b8c:	02001537          	lui	a0,0x2001
   20b90:	efdff0ef          	jal	ra,20a8c <payload_bin+0x4d4>
   20b94:	00050793          	mv	a5,a0
   20b98:	fef42623          	sw	a5,-20(s0)
   20b9c:	fec42703          	lw	a4,-20(s0)
   20ba0:	400007b7          	lui	a5,0x40000
   20ba4:	00f767b3          	or	a5,a4,a5
   20ba8:	fef42623          	sw	a5,-20(s0)
   20bac:	fec42783          	lw	a5,-20(s0)
   20bb0:	00078593          	mv	a1,a5
   20bb4:	02001537          	lui	a0,0x2001
   20bb8:	f01ff0ef          	jal	ra,20ab8 <payload_bin+0x500>
   20bbc:	00500513          	li	a0,5
   20bc0:	f2dff0ef          	jal	ra,20aec <payload_bin+0x534>
   20bc4:	02001537          	lui	a0,0x2001
   20bc8:	ec5ff0ef          	jal	ra,20a8c <payload_bin+0x4d4>
   20bcc:	00050793          	mv	a5,a0
   20bd0:	fef42623          	sw	a5,-20(s0)
   20bd4:	fec42703          	lw	a4,-20(s0)
   20bd8:	fffc07b7          	lui	a5,0xfffc0
   20bdc:	0fc78793          	addi	a5,a5,252 # fffffffffffc00fc <bss_begin+0xfffffffffff9b0fc>
   20be0:	00f777b3          	and	a5,a4,a5
   20be4:	fef42623          	sw	a5,-20(s0)
   20be8:	fec42703          	lw	a4,-20(s0)
   20bec:	000037b7          	lui	a5,0x3
   20bf0:	90078793          	addi	a5,a5,-1792 # 2900 <__bin_size-0x2700>
   20bf4:	00f767b3          	or	a5,a4,a5
   20bf8:	fef42623          	sw	a5,-20(s0)
   20bfc:	fec42783          	lw	a5,-20(s0)
   20c00:	00078593          	mv	a1,a5
   20c04:	02001537          	lui	a0,0x2001
   20c08:	eb1ff0ef          	jal	ra,20ab8 <payload_bin+0x500>
   20c0c:	02001537          	lui	a0,0x2001
   20c10:	e7dff0ef          	jal	ra,20a8c <payload_bin+0x4d4>
   20c14:	00050793          	mv	a5,a0
   20c18:	fef42623          	sw	a5,-20(s0)
   20c1c:	fec42703          	lw	a4,-20(s0)
   20c20:	200007b7          	lui	a5,0x20000
   20c24:	00f767b3          	or	a5,a4,a5
   20c28:	fef42623          	sw	a5,-20(s0)
   20c2c:	fec42783          	lw	a5,-20(s0)
   20c30:	00078593          	mv	a1,a5
   20c34:	02001537          	lui	a0,0x2001
   20c38:	e81ff0ef          	jal	ra,20ab8 <payload_bin+0x500>
   20c3c:	02001537          	lui	a0,0x2001
   20c40:	e4dff0ef          	jal	ra,20a8c <payload_bin+0x4d4>
   20c44:	00050793          	mv	a5,a0
   20c48:	fef42623          	sw	a5,-20(s0)
   20c4c:	fec42703          	lw	a4,-20(s0)
   20c50:	800007b7          	lui	a5,0x80000
   20c54:	00f767b3          	or	a5,a4,a5
   20c58:	fef42623          	sw	a5,-20(s0)
   20c5c:	fec42783          	lw	a5,-20(s0)
   20c60:	00078593          	mv	a1,a5
   20c64:	02001537          	lui	a0,0x2001
   20c68:	e51ff0ef          	jal	ra,20ab8 <payload_bin+0x500>
   20c6c:	00000013          	nop
   20c70:	02001537          	lui	a0,0x2001
   20c74:	e19ff0ef          	jal	ra,20a8c <payload_bin+0x4d4>
   20c78:	00050793          	mv	a5,a0
   20c7c:	0007879b          	sext.w	a5,a5
   20c80:	00078713          	mv	a4,a5
   20c84:	100007b7          	lui	a5,0x10000
   20c88:	00f777b3          	and	a5,a4,a5
   20c8c:	0007879b          	sext.w	a5,a5
   20c90:	fe0780e3          	beqz	a5,20c70 <payload_bin+0x6b8>
   20c94:	01400513          	li	a0,20
   20c98:	e55ff0ef          	jal	ra,20aec <payload_bin+0x534>
   20c9c:	02001537          	lui	a0,0x2001
   20ca0:	dedff0ef          	jal	ra,20a8c <payload_bin+0x4d4>
   20ca4:	00050793          	mv	a5,a0
   20ca8:	fef42623          	sw	a5,-20(s0)
   20cac:	fec42703          	lw	a4,-20(s0)
   20cb0:	080007b7          	lui	a5,0x8000
   20cb4:	00f767b3          	or	a5,a4,a5
   20cb8:	fef42623          	sw	a5,-20(s0)
   20cbc:	fec42783          	lw	a5,-20(s0)
   20cc0:	00078593          	mv	a1,a5
   20cc4:	02001537          	lui	a0,0x2001
   20cc8:	df1ff0ef          	jal	ra,20ab8 <payload_bin+0x500>
   20ccc:	02001537          	lui	a0,0x2001
   20cd0:	dbdff0ef          	jal	ra,20a8c <payload_bin+0x4d4>
   20cd4:	00050793          	mv	a5,a0
   20cd8:	fef42623          	sw	a5,-20(s0)
   20cdc:	fec42703          	lw	a4,-20(s0)
   20ce0:	e00007b7          	lui	a5,0xe0000
   20ce4:	fff78793          	addi	a5,a5,-1 # ffffffffdfffffff <bss_begin+0xffffffffdffdafff>
   20ce8:	00f777b3          	and	a5,a4,a5
   20cec:	fef42623          	sw	a5,-20(s0)
   20cf0:	fec42783          	lw	a5,-20(s0)
   20cf4:	00078593          	mv	a1,a5
   20cf8:	02001537          	lui	a0,0x2001
   20cfc:	dbdff0ef          	jal	ra,20ab8 <payload_bin+0x500>
   20d00:	00100513          	li	a0,1
   20d04:	de9ff0ef          	jal	ra,20aec <payload_bin+0x534>
   20d08:	020027b7          	lui	a5,0x2002
   20d0c:	d0078513          	addi	a0,a5,-768 # 2001d00 <bss_begin+0x1fdcd00>
   20d10:	d7dff0ef          	jal	ra,20a8c <payload_bin+0x4d4>
   20d14:	00050793          	mv	a5,a0
   20d18:	fef42623          	sw	a5,-20(s0)
   20d1c:	fec42703          	lw	a4,-20(s0)
   20d20:	f90007b7          	lui	a5,0xf9000
   20d24:	cf078793          	addi	a5,a5,-784 # fffffffff8fffcf0 <bss_begin+0xfffffffff8fdacf0>
   20d28:	00f777b3          	and	a5,a4,a5
   20d2c:	fef42623          	sw	a5,-20(s0)
   20d30:	fec42703          	lw	a4,-20(s0)
   20d34:	050007b7          	lui	a5,0x5000
   20d38:	10078793          	addi	a5,a5,256 # 5000100 <bss_begin+0x4fdb100>
   20d3c:	00f767b3          	or	a5,a4,a5
   20d40:	fef42623          	sw	a5,-20(s0)
   20d44:	fec42783          	lw	a5,-20(s0)
   20d48:	00078593          	mv	a1,a5
   20d4c:	020027b7          	lui	a5,0x2002
   20d50:	d0078513          	addi	a0,a5,-768 # 2001d00 <bss_begin+0x1fdcd00>
   20d54:	d65ff0ef          	jal	ra,20ab8 <payload_bin+0x500>
   20d58:	00100513          	li	a0,1
   20d5c:	d91ff0ef          	jal	ra,20aec <payload_bin+0x534>
   20d60:	00000013          	nop
   20d64:	01813083          	ld	ra,24(sp)
   20d68:	01013403          	ld	s0,16(sp)
   20d6c:	02010113          	addi	sp,sp,32
   20d70:	00008067          	ret
   20d74:	fe010113          	addi	sp,sp,-32
   20d78:	00113c23          	sd	ra,24(sp)
   20d7c:	00813823          	sd	s0,16(sp)
   20d80:	02010413          	addi	s0,sp,32
   20d84:	020017b7          	lui	a5,0x2001
   20d88:	02078513          	addi	a0,a5,32 # 2001020 <bss_begin+0x1fdc020>
   20d8c:	d01ff0ef          	jal	ra,20a8c <payload_bin+0x4d4>
   20d90:	00050793          	mv	a5,a0
   20d94:	0007879b          	sext.w	a5,a5
   20d98:	0007879b          	sext.w	a5,a5
   20d9c:	1207cc63          	bltz	a5,20ed4 <payload_bin+0x91c>
   20da0:	020017b7          	lui	a5,0x2001
   20da4:	51078513          	addi	a0,a5,1296 # 2001510 <bss_begin+0x1fdc510>
   20da8:	ce5ff0ef          	jal	ra,20a8c <payload_bin+0x4d4>
   20dac:	00050793          	mv	a5,a0
   20db0:	fef42623          	sw	a5,-20(s0)
   20db4:	fec42703          	lw	a4,-20(s0)
   20db8:	fd0007b7          	lui	a5,0xfd000
   20dbc:	fff78793          	addi	a5,a5,-1 # fffffffffcffffff <bss_begin+0xfffffffffcfdafff>
   20dc0:	00f777b3          	and	a5,a4,a5
   20dc4:	fef42623          	sw	a5,-20(s0)
   20dc8:	fec46703          	lwu	a4,-20(s0)
   20dcc:	020017b7          	lui	a5,0x2001
   20dd0:	51078593          	addi	a1,a5,1296 # 2001510 <bss_begin+0x1fdc510>
   20dd4:	00070513          	mv	a0,a4
   20dd8:	ce1ff0ef          	jal	ra,20ab8 <payload_bin+0x500>
   20ddc:	000067b7          	lui	a5,0x6
   20de0:	30078593          	addi	a1,a5,768 # 6300 <__bin_size+0x1300>
   20de4:	020017b7          	lui	a5,0x2001
   20de8:	02078513          	addi	a0,a5,32 # 2001020 <bss_begin+0x1fdc020>
   20dec:	ccdff0ef          	jal	ra,20ab8 <payload_bin+0x500>
   20df0:	020017b7          	lui	a5,0x2001
   20df4:	02078513          	addi	a0,a5,32 # 2001020 <bss_begin+0x1fdc020>
   20df8:	c95ff0ef          	jal	ra,20a8c <payload_bin+0x4d4>
   20dfc:	00050793          	mv	a5,a0
   20e00:	fef42623          	sw	a5,-20(s0)
   20e04:	fec42703          	lw	a4,-20(s0)
   20e08:	200007b7          	lui	a5,0x20000
   20e0c:	00f767b3          	or	a5,a4,a5
   20e10:	fef42623          	sw	a5,-20(s0)
   20e14:	fec42783          	lw	a5,-20(s0)
   20e18:	00078593          	mv	a1,a5
   20e1c:	020017b7          	lui	a5,0x2001
   20e20:	02078513          	addi	a0,a5,32 # 2001020 <bss_begin+0x1fdc020>
   20e24:	c95ff0ef          	jal	ra,20ab8 <payload_bin+0x500>
   20e28:	020017b7          	lui	a5,0x2001
   20e2c:	02078513          	addi	a0,a5,32 # 2001020 <bss_begin+0x1fdc020>
   20e30:	c5dff0ef          	jal	ra,20a8c <payload_bin+0x4d4>
   20e34:	00050793          	mv	a5,a0
   20e38:	fef42623          	sw	a5,-20(s0)
   20e3c:	fec42703          	lw	a4,-20(s0)
   20e40:	800007b7          	lui	a5,0x80000
   20e44:	00f767b3          	or	a5,a4,a5
   20e48:	fef42623          	sw	a5,-20(s0)
   20e4c:	fec42783          	lw	a5,-20(s0)
   20e50:	00078593          	mv	a1,a5
   20e54:	020017b7          	lui	a5,0x2001
   20e58:	02078513          	addi	a0,a5,32 # 2001020 <bss_begin+0x1fdc020>
   20e5c:	c5dff0ef          	jal	ra,20ab8 <payload_bin+0x500>
   20e60:	00000013          	nop
   20e64:	020017b7          	lui	a5,0x2001
   20e68:	02078513          	addi	a0,a5,32 # 2001020 <bss_begin+0x1fdc020>
   20e6c:	c21ff0ef          	jal	ra,20a8c <payload_bin+0x4d4>
   20e70:	00050793          	mv	a5,a0
   20e74:	0007879b          	sext.w	a5,a5
   20e78:	00078713          	mv	a4,a5
   20e7c:	100007b7          	lui	a5,0x10000
   20e80:	00f777b3          	and	a5,a4,a5
   20e84:	0007879b          	sext.w	a5,a5
   20e88:	fc078ee3          	beqz	a5,20e64 <payload_bin+0x8ac>
   20e8c:	01400513          	li	a0,20
   20e90:	c5dff0ef          	jal	ra,20aec <payload_bin+0x534>
   20e94:	020017b7          	lui	a5,0x2001
   20e98:	02078513          	addi	a0,a5,32 # 2001020 <bss_begin+0x1fdc020>
   20e9c:	bf1ff0ef          	jal	ra,20a8c <payload_bin+0x4d4>
   20ea0:	00050793          	mv	a5,a0
   20ea4:	fef42623          	sw	a5,-20(s0)
   20ea8:	fec42703          	lw	a4,-20(s0)
   20eac:	e00007b7          	lui	a5,0xe0000
   20eb0:	fff78793          	addi	a5,a5,-1 # ffffffffdfffffff <bss_begin+0xffffffffdffdafff>
   20eb4:	00f777b3          	and	a5,a4,a5
   20eb8:	fef42623          	sw	a5,-20(s0)
   20ebc:	fec42783          	lw	a5,-20(s0)
   20ec0:	00078593          	mv	a1,a5
   20ec4:	020017b7          	lui	a5,0x2001
   20ec8:	02078513          	addi	a0,a5,32 # 2001020 <bss_begin+0x1fdc020>
   20ecc:	bedff0ef          	jal	ra,20ab8 <payload_bin+0x500>
   20ed0:	0080006f          	j	20ed8 <payload_bin+0x920>
   20ed4:	00000013          	nop
   20ed8:	01813083          	ld	ra,24(sp)
   20edc:	01013403          	ld	s0,16(sp)
   20ee0:	02010113          	addi	sp,sp,32
   20ee4:	00008067          	ret
   20ee8:	ff010113          	addi	sp,sp,-16
   20eec:	00113423          	sd	ra,8(sp)
   20ef0:	00813023          	sd	s0,0(sp)
   20ef4:	01010413          	addi	s0,sp,16
   20ef8:	00200593          	li	a1,2
   20efc:	020017b7          	lui	a5,0x2001
   20f00:	51078513          	addi	a0,a5,1296 # 2001510 <bss_begin+0x1fdc510>
   20f04:	bb5ff0ef          	jal	ra,20ab8 <payload_bin+0x500>
   20f08:	020017b7          	lui	a5,0x2001
   20f0c:	51078513          	addi	a0,a5,1296 # 2001510 <bss_begin+0x1fdc510>
   20f10:	b7dff0ef          	jal	ra,20a8c <payload_bin+0x4d4>
   20f14:	00050793          	mv	a5,a0
   20f18:	0007879b          	sext.w	a5,a5
   20f1c:	00078713          	mv	a4,a5
   20f20:	030007b7          	lui	a5,0x3000
   20f24:	00f767b3          	or	a5,a4,a5
   20f28:	0007879b          	sext.w	a5,a5
   20f2c:	00078593          	mv	a1,a5
   20f30:	020017b7          	lui	a5,0x2001
   20f34:	51078513          	addi	a0,a5,1296 # 2001510 <bss_begin+0x1fdc510>
   20f38:	b81ff0ef          	jal	ra,20ab8 <payload_bin+0x500>
   20f3c:	00100513          	li	a0,1
   20f40:	badff0ef          	jal	ra,20aec <payload_bin+0x534>
   20f44:	00000013          	nop
   20f48:	00813083          	ld	ra,8(sp)
   20f4c:	00013403          	ld	s0,0(sp)
   20f50:	01010113          	addi	sp,sp,16
   20f54:	00008067          	ret
   20f58:	ff010113          	addi	sp,sp,-16
   20f5c:	00113423          	sd	ra,8(sp)
   20f60:	00813023          	sd	s0,0(sp)
   20f64:	01010413          	addi	s0,sp,16
   20f68:	10200593          	li	a1,258
   20f6c:	020017b7          	lui	a5,0x2001
   20f70:	52078513          	addi	a0,a5,1312 # 2001520 <bss_begin+0x1fdc520>
   20f74:	b45ff0ef          	jal	ra,20ab8 <payload_bin+0x500>
   20f78:	020017b7          	lui	a5,0x2001
   20f7c:	52078513          	addi	a0,a5,1312 # 2001520 <bss_begin+0x1fdc520>
   20f80:	b0dff0ef          	jal	ra,20a8c <payload_bin+0x4d4>
   20f84:	00050793          	mv	a5,a0
   20f88:	0007879b          	sext.w	a5,a5
   20f8c:	00078713          	mv	a4,a5
   20f90:	030007b7          	lui	a5,0x3000
   20f94:	00f767b3          	or	a5,a4,a5
   20f98:	0007879b          	sext.w	a5,a5
   20f9c:	00078593          	mv	a1,a5
   20fa0:	020017b7          	lui	a5,0x2001
   20fa4:	52078513          	addi	a0,a5,1312 # 2001520 <bss_begin+0x1fdc520>
   20fa8:	b11ff0ef          	jal	ra,20ab8 <payload_bin+0x500>
   20fac:	00100513          	li	a0,1
   20fb0:	b3dff0ef          	jal	ra,20aec <payload_bin+0x534>
   20fb4:	00000013          	nop
   20fb8:	00813083          	ld	ra,8(sp)
   20fbc:	00013403          	ld	s0,0(sp)
   20fc0:	01010113          	addi	sp,sp,16
   20fc4:	00008067          	ret
   20fc8:	ff010113          	addi	sp,sp,-16
   20fcc:	00113423          	sd	ra,8(sp)
   20fd0:	00813023          	sd	s0,0(sp)
   20fd4:	01010413          	addi	s0,sp,16
   20fd8:	020017b7          	lui	a5,0x2001
   20fdc:	70c78513          	addi	a0,a5,1804 # 200170c <bss_begin+0x1fdc70c>
   20fe0:	aadff0ef          	jal	ra,20a8c <payload_bin+0x4d4>
   20fe4:	00050793          	mv	a5,a0
   20fe8:	0007879b          	sext.w	a5,a5
   20fec:	00078713          	mv	a4,a5
   20ff0:	000107b7          	lui	a5,0x10
   20ff4:	00f767b3          	or	a5,a4,a5
   20ff8:	0007879b          	sext.w	a5,a5
   20ffc:	00078593          	mv	a1,a5
   21000:	020017b7          	lui	a5,0x2001
   21004:	70c78513          	addi	a0,a5,1804 # 200170c <bss_begin+0x1fdc70c>
   21008:	ab1ff0ef          	jal	ra,20ab8 <payload_bin+0x500>
   2100c:	01400513          	li	a0,20
   21010:	addff0ef          	jal	ra,20aec <payload_bin+0x534>
   21014:	020017b7          	lui	a5,0x2001
   21018:	70c78513          	addi	a0,a5,1804 # 200170c <bss_begin+0x1fdc70c>
   2101c:	a71ff0ef          	jal	ra,20a8c <payload_bin+0x4d4>
   21020:	00050793          	mv	a5,a0
   21024:	0007879b          	sext.w	a5,a5
   21028:	0017e793          	ori	a5,a5,1
   2102c:	0007879b          	sext.w	a5,a5
   21030:	00078593          	mv	a1,a5
   21034:	020017b7          	lui	a5,0x2001
   21038:	70c78513          	addi	a0,a5,1804 # 200170c <bss_begin+0x1fdc70c>
   2103c:	a7dff0ef          	jal	ra,20ab8 <payload_bin+0x500>
   21040:	00000013          	nop
   21044:	00813083          	ld	ra,8(sp)
   21048:	00013403          	ld	s0,0(sp)
   2104c:	01010113          	addi	sp,sp,16
   21050:	00008067          	ret
   21054:	fe010113          	addi	sp,sp,-32
   21058:	00113c23          	sd	ra,24(sp)
   2105c:	00813823          	sd	s0,16(sp)
   21060:	02010413          	addi	s0,sp,32
   21064:	020017b7          	lui	a5,0x2001
   21068:	54078513          	addi	a0,a5,1344 # 2001540 <bss_begin+0x1fdc540>
   2106c:	a21ff0ef          	jal	ra,20a8c <payload_bin+0x4d4>
   21070:	00050793          	mv	a5,a0
   21074:	fef42623          	sw	a5,-20(s0)
   21078:	fec42703          	lw	a4,-20(s0)
   2107c:	400007b7          	lui	a5,0x40000
   21080:	00f767b3          	or	a5,a4,a5
   21084:	fef42623          	sw	a5,-20(s0)
   21088:	fec42783          	lw	a5,-20(s0)
   2108c:	00078593          	mv	a1,a5
   21090:	020017b7          	lui	a5,0x2001
   21094:	54078513          	addi	a0,a5,1344 # 2001540 <bss_begin+0x1fdc540>
   21098:	a21ff0ef          	jal	ra,20ab8 <payload_bin+0x500>
   2109c:	00100513          	li	a0,1
   210a0:	a4dff0ef          	jal	ra,20aec <payload_bin+0x534>
   210a4:	00000013          	nop
   210a8:	01813083          	ld	ra,24(sp)
   210ac:	01013403          	ld	s0,16(sp)
   210b0:	02010113          	addi	sp,sp,32
   210b4:	00008067          	ret
   210b8:	fd010113          	addi	sp,sp,-48
   210bc:	02113423          	sd	ra,40(sp)
   210c0:	02813023          	sd	s0,32(sp)
   210c4:	03010413          	addi	s0,sp,48
   210c8:	fca43c23          	sd	a0,-40(s0)
   210cc:	fd843503          	ld	a0,-40(s0)
   210d0:	9bdff0ef          	jal	ra,20a8c <payload_bin+0x4d4>
   210d4:	00050793          	mv	a5,a0
   210d8:	0007879b          	sext.w	a5,a5
   210dc:	0007879b          	sext.w	a5,a5
   210e0:	0c07c263          	bltz	a5,211a4 <payload_bin+0xbec>
   210e4:	fd843503          	ld	a0,-40(s0)
   210e8:	9a5ff0ef          	jal	ra,20a8c <payload_bin+0x4d4>
   210ec:	00050793          	mv	a5,a0
   210f0:	fef42623          	sw	a5,-20(s0)
   210f4:	fec42703          	lw	a4,-20(s0)
   210f8:	c00007b7          	lui	a5,0xc0000
   210fc:	00f767b3          	or	a5,a4,a5
   21100:	0007879b          	sext.w	a5,a5
   21104:	00078593          	mv	a1,a5
   21108:	fd843503          	ld	a0,-40(s0)
   2110c:	9adff0ef          	jal	ra,20ab8 <payload_bin+0x500>
   21110:	fd843503          	ld	a0,-40(s0)
   21114:	979ff0ef          	jal	ra,20a8c <payload_bin+0x4d4>
   21118:	00050793          	mv	a5,a0
   2111c:	fef42623          	sw	a5,-20(s0)
   21120:	fec42703          	lw	a4,-20(s0)
   21124:	200007b7          	lui	a5,0x20000
   21128:	00f767b3          	or	a5,a4,a5
   2112c:	fef42623          	sw	a5,-20(s0)
   21130:	fec42783          	lw	a5,-20(s0)
   21134:	00078593          	mv	a1,a5
   21138:	fd843503          	ld	a0,-40(s0)
   2113c:	97dff0ef          	jal	ra,20ab8 <payload_bin+0x500>
   21140:	00000013          	nop
   21144:	fd843503          	ld	a0,-40(s0)
   21148:	945ff0ef          	jal	ra,20a8c <payload_bin+0x4d4>
   2114c:	00050793          	mv	a5,a0
   21150:	0007879b          	sext.w	a5,a5
   21154:	00078713          	mv	a4,a5
   21158:	100007b7          	lui	a5,0x10000
   2115c:	00f777b3          	and	a5,a4,a5
   21160:	0007879b          	sext.w	a5,a5
   21164:	fe0780e3          	beqz	a5,21144 <payload_bin+0xb8c>
   21168:	01400513          	li	a0,20
   2116c:	981ff0ef          	jal	ra,20aec <payload_bin+0x534>
   21170:	fd843503          	ld	a0,-40(s0)
   21174:	919ff0ef          	jal	ra,20a8c <payload_bin+0x4d4>
   21178:	00050793          	mv	a5,a0
   2117c:	fef42623          	sw	a5,-20(s0)
   21180:	fec42703          	lw	a4,-20(s0)
   21184:	e00007b7          	lui	a5,0xe0000
   21188:	fff78793          	addi	a5,a5,-1 # ffffffffdfffffff <bss_begin+0xffffffffdffdafff>
   2118c:	00f777b3          	and	a5,a4,a5
   21190:	fef42623          	sw	a5,-20(s0)
   21194:	fec42783          	lw	a5,-20(s0)
   21198:	00078593          	mv	a1,a5
   2119c:	fd843503          	ld	a0,-40(s0)
   211a0:	919ff0ef          	jal	ra,20ab8 <payload_bin+0x500>
   211a4:	00000013          	nop
   211a8:	02813083          	ld	ra,40(sp)
   211ac:	02013403          	ld	s0,32(sp)
   211b0:	03010113          	addi	sp,sp,48
   211b4:	00008067          	ret
   211b8:	ff010113          	addi	sp,sp,-16
   211bc:	00113423          	sd	ra,8(sp)
   211c0:	00813023          	sd	s0,0(sp)
   211c4:	01010413          	addi	s0,sp,16
   211c8:	969ff0ef          	jal	ra,20b30 <payload_bin+0x578>
   211cc:	ba9ff0ef          	jal	ra,20d74 <payload_bin+0x7bc>
   211d0:	d19ff0ef          	jal	ra,20ee8 <payload_bin+0x930>
   211d4:	d85ff0ef          	jal	ra,20f58 <payload_bin+0x9a0>
   211d8:	df1ff0ef          	jal	ra,20fc8 <payload_bin+0xa10>
   211dc:	e79ff0ef          	jal	ra,21054 <payload_bin+0xa9c>
   211e0:	020017b7          	lui	a5,0x2001
   211e4:	02078513          	addi	a0,a5,32 # 2001020 <bss_begin+0x1fdc020>
   211e8:	ed1ff0ef          	jal	ra,210b8 <payload_bin+0xb00>
   211ec:	020017b7          	lui	a5,0x2001
   211f0:	04078513          	addi	a0,a5,64 # 2001040 <bss_begin+0x1fdc040>
   211f4:	ec5ff0ef          	jal	ra,210b8 <payload_bin+0xb00>
   211f8:	020017b7          	lui	a5,0x2001
   211fc:	04878513          	addi	a0,a5,72 # 2001048 <bss_begin+0x1fdc048>
   21200:	eb9ff0ef          	jal	ra,210b8 <payload_bin+0xb00>
   21204:	020017b7          	lui	a5,0x2001
   21208:	05878513          	addi	a0,a5,88 # 2001058 <bss_begin+0x1fdc058>
   2120c:	eadff0ef          	jal	ra,210b8 <payload_bin+0xb00>
   21210:	020017b7          	lui	a5,0x2001
   21214:	07878513          	addi	a0,a5,120 # 2001078 <bss_begin+0x1fdc078>
   21218:	ea1ff0ef          	jal	ra,210b8 <payload_bin+0xb00>
   2121c:	020017b7          	lui	a5,0x2001
   21220:	08078513          	addi	a0,a5,128 # 2001080 <bss_begin+0x1fdc080>
   21224:	e95ff0ef          	jal	ra,210b8 <payload_bin+0xb00>
   21228:	00000013          	nop
   2122c:	00813083          	ld	ra,8(sp)
   21230:	00013403          	ld	s0,0(sp)
   21234:	01010113          	addi	sp,sp,16
   21238:	00008067          	ret
   2123c:	fe010113          	addi	sp,sp,-32
   21240:	00813c23          	sd	s0,24(sp)
   21244:	02010413          	addi	s0,sp,32
   21248:	fea43423          	sd	a0,-24(s0)
   2124c:	fe843783          	ld	a5,-24(s0)
   21250:	0007c783          	lbu	a5,0(a5)
   21254:	0ff7f793          	andi	a5,a5,255
   21258:	00078513          	mv	a0,a5
   2125c:	01813403          	ld	s0,24(sp)
   21260:	02010113          	addi	sp,sp,32
   21264:	00008067          	ret
   21268:	fe010113          	addi	sp,sp,-32
   2126c:	00813c23          	sd	s0,24(sp)
   21270:	02010413          	addi	s0,sp,32
   21274:	fea43423          	sd	a0,-24(s0)
   21278:	fe843783          	ld	a5,-24(s0)
   2127c:	0007a783          	lw	a5,0(a5)
   21280:	0007879b          	sext.w	a5,a5
   21284:	00078513          	mv	a0,a5
   21288:	01813403          	ld	s0,24(sp)
   2128c:	02010113          	addi	sp,sp,32
   21290:	00008067          	ret
   21294:	fe010113          	addi	sp,sp,-32
   21298:	00813c23          	sd	s0,24(sp)
   2129c:	02010413          	addi	s0,sp,32
   212a0:	fea43423          	sd	a0,-24(s0)
   212a4:	00058793          	mv	a5,a1
   212a8:	fef42223          	sw	a5,-28(s0)
   212ac:	fe843783          	ld	a5,-24(s0)
   212b0:	fe442703          	lw	a4,-28(s0)
   212b4:	00e7a023          	sw	a4,0(a5)
   212b8:	00000013          	nop
   212bc:	01813403          	ld	s0,24(sp)
   212c0:	02010113          	addi	sp,sp,32
   212c4:	00008067          	ret
   212c8:	fe010113          	addi	sp,sp,-32
   212cc:	00113c23          	sd	ra,24(sp)
   212d0:	00813823          	sd	s0,16(sp)
   212d4:	02010413          	addi	s0,sp,32
   212d8:	020007b7          	lui	a5,0x2000
   212dc:	0f078793          	addi	a5,a5,240 # 20000f0 <bss_begin+0x1fdb0f0>
   212e0:	fef43423          	sd	a5,-24(s0)
   212e4:	fe843503          	ld	a0,-24(s0)
   212e8:	f81ff0ef          	jal	ra,21268 <payload_bin+0xcb0>
   212ec:	00050793          	mv	a5,a0
   212f0:	fef42223          	sw	a5,-28(s0)
   212f4:	fe442703          	lw	a4,-28(s0)
   212f8:	fffff7b7          	lui	a5,0xfffff
   212fc:	0ff78793          	addi	a5,a5,255 # fffffffffffff0ff <bss_begin+0xfffffffffffda0ff>
   21300:	00f777b3          	and	a5,a4,a5
   21304:	fef42223          	sw	a5,-28(s0)
   21308:	fe442783          	lw	a5,-28(s0)
   2130c:	3007e793          	ori	a5,a5,768
   21310:	fef42223          	sw	a5,-28(s0)
   21314:	fe442783          	lw	a5,-28(s0)
   21318:	00078593          	mv	a1,a5
   2131c:	fe843503          	ld	a0,-24(s0)
   21320:	f75ff0ef          	jal	ra,21294 <payload_bin+0xcdc>
   21324:	fe843503          	ld	a0,-24(s0)
   21328:	f41ff0ef          	jal	ra,21268 <payload_bin+0xcb0>
   2132c:	00050793          	mv	a5,a0
   21330:	fef42223          	sw	a5,-28(s0)
   21334:	fe442703          	lw	a4,-28(s0)
   21338:	fff107b7          	lui	a5,0xfff10
   2133c:	fff78793          	addi	a5,a5,-1 # fffffffffff0ffff <bss_begin+0xffffffffffeeafff>
   21340:	00f777b3          	and	a5,a4,a5
   21344:	fef42223          	sw	a5,-28(s0)
   21348:	fe442703          	lw	a4,-28(s0)
   2134c:	000307b7          	lui	a5,0x30
   21350:	00f767b3          	or	a5,a4,a5
   21354:	fef42223          	sw	a5,-28(s0)
   21358:	fe442783          	lw	a5,-28(s0)
   2135c:	00078593          	mv	a1,a5
   21360:	fe843503          	ld	a0,-24(s0)
   21364:	f31ff0ef          	jal	ra,21294 <payload_bin+0xcdc>
   21368:	020027b7          	lui	a5,0x2002
   2136c:	90c78793          	addi	a5,a5,-1780 # 200190c <bss_begin+0x1fdc90c>
   21370:	fef43423          	sd	a5,-24(s0)
   21374:	fe843503          	ld	a0,-24(s0)
   21378:	ef1ff0ef          	jal	ra,21268 <payload_bin+0xcb0>
   2137c:	00050793          	mv	a5,a0
   21380:	fef42223          	sw	a5,-28(s0)
   21384:	fe442783          	lw	a5,-28(s0)
   21388:	0017e793          	ori	a5,a5,1
   2138c:	fef42223          	sw	a5,-28(s0)
   21390:	fe442783          	lw	a5,-28(s0)
   21394:	00078593          	mv	a1,a5
   21398:	fe843503          	ld	a0,-24(s0)
   2139c:	ef9ff0ef          	jal	ra,21294 <payload_bin+0xcdc>
   213a0:	020027b7          	lui	a5,0x2002
   213a4:	90c78793          	addi	a5,a5,-1780 # 200190c <bss_begin+0x1fdc90c>
   213a8:	fef43423          	sd	a5,-24(s0)
   213ac:	fe843503          	ld	a0,-24(s0)
   213b0:	eb9ff0ef          	jal	ra,21268 <payload_bin+0xcb0>
   213b4:	00050793          	mv	a5,a0
   213b8:	fef42223          	sw	a5,-28(s0)
   213bc:	fe442703          	lw	a4,-28(s0)
   213c0:	000107b7          	lui	a5,0x10
   213c4:	00f767b3          	or	a5,a4,a5
   213c8:	fef42223          	sw	a5,-28(s0)
   213cc:	fe442783          	lw	a5,-28(s0)
   213d0:	00078593          	mv	a1,a5
   213d4:	fe843503          	ld	a0,-24(s0)
   213d8:	ebdff0ef          	jal	ra,21294 <payload_bin+0xcdc>
   213dc:	025007b7          	lui	a5,0x2500
   213e0:	fef43423          	sd	a5,-24(s0)
   213e4:	fe843783          	ld	a5,-24(s0)
   213e8:	00478793          	addi	a5,a5,4 # 2500004 <bss_begin+0x24db004>
   213ec:	00000593          	li	a1,0
   213f0:	00078513          	mv	a0,a5
   213f4:	ea1ff0ef          	jal	ra,21294 <payload_bin+0xcdc>
   213f8:	fe843783          	ld	a5,-24(s0)
   213fc:	00878793          	addi	a5,a5,8
   21400:	0f100593          	li	a1,241
   21404:	00078513          	mv	a0,a5
   21408:	e8dff0ef          	jal	ra,21294 <payload_bin+0xcdc>
   2140c:	fe843783          	ld	a5,-24(s0)
   21410:	01078793          	addi	a5,a5,16
   21414:	00000593          	li	a1,0
   21418:	00078513          	mv	a0,a5
   2141c:	e79ff0ef          	jal	ra,21294 <payload_bin+0xcdc>
   21420:	fe843783          	ld	a5,-24(s0)
   21424:	00c78793          	addi	a5,a5,12
   21428:	00078513          	mv	a0,a5
   2142c:	e3dff0ef          	jal	ra,21268 <payload_bin+0xcb0>
   21430:	00050793          	mv	a5,a0
   21434:	fef42223          	sw	a5,-28(s0)
   21438:	fe442783          	lw	a5,-28(s0)
   2143c:	0807e793          	ori	a5,a5,128
   21440:	fef42223          	sw	a5,-28(s0)
   21444:	fe843783          	ld	a5,-24(s0)
   21448:	00c78793          	addi	a5,a5,12
   2144c:	fe442703          	lw	a4,-28(s0)
   21450:	00070593          	mv	a1,a4
   21454:	00078513          	mv	a0,a5
   21458:	e3dff0ef          	jal	ra,21294 <payload_bin+0xcdc>
   2145c:	00d00593          	li	a1,13
   21460:	fe843503          	ld	a0,-24(s0)
   21464:	e31ff0ef          	jal	ra,21294 <payload_bin+0xcdc>
   21468:	fe843783          	ld	a5,-24(s0)
   2146c:	00478793          	addi	a5,a5,4
   21470:	00000593          	li	a1,0
   21474:	00078513          	mv	a0,a5
   21478:	e1dff0ef          	jal	ra,21294 <payload_bin+0xcdc>
   2147c:	fe843783          	ld	a5,-24(s0)
   21480:	00c78793          	addi	a5,a5,12
   21484:	00078513          	mv	a0,a5
   21488:	de1ff0ef          	jal	ra,21268 <payload_bin+0xcb0>
   2148c:	00050793          	mv	a5,a0
   21490:	fef42223          	sw	a5,-28(s0)
   21494:	fe442783          	lw	a5,-28(s0)
   21498:	f7f7f793          	andi	a5,a5,-129
   2149c:	fef42223          	sw	a5,-28(s0)
   214a0:	fe843783          	ld	a5,-24(s0)
   214a4:	00c78793          	addi	a5,a5,12
   214a8:	fe442703          	lw	a4,-28(s0)
   214ac:	00070593          	mv	a1,a4
   214b0:	00078513          	mv	a0,a5
   214b4:	de1ff0ef          	jal	ra,21294 <payload_bin+0xcdc>
   214b8:	fe843783          	ld	a5,-24(s0)
   214bc:	00c78793          	addi	a5,a5,12
   214c0:	00078513          	mv	a0,a5
   214c4:	da5ff0ef          	jal	ra,21268 <payload_bin+0xcb0>
   214c8:	00050793          	mv	a5,a0
   214cc:	fef42223          	sw	a5,-28(s0)
   214d0:	fe442783          	lw	a5,-28(s0)
   214d4:	fe07f793          	andi	a5,a5,-32
   214d8:	fef42223          	sw	a5,-28(s0)
   214dc:	fe442783          	lw	a5,-28(s0)
   214e0:	0037e793          	ori	a5,a5,3
   214e4:	fef42223          	sw	a5,-28(s0)
   214e8:	fe843783          	ld	a5,-24(s0)
   214ec:	00c78793          	addi	a5,a5,12
   214f0:	fe442703          	lw	a4,-28(s0)
   214f4:	00070593          	mv	a1,a4
   214f8:	00078513          	mv	a0,a5
   214fc:	d99ff0ef          	jal	ra,21294 <payload_bin+0xcdc>
   21500:	00000013          	nop
   21504:	01813083          	ld	ra,24(sp)
   21508:	01013403          	ld	s0,16(sp)
   2150c:	02010113          	addi	sp,sp,32
   21510:	00008067          	ret
   21514:	fd010113          	addi	sp,sp,-48
   21518:	02113423          	sd	ra,40(sp)
   2151c:	02813023          	sd	s0,32(sp)
   21520:	03010413          	addi	s0,sp,48
   21524:	00050793          	mv	a5,a0
   21528:	fcf40fa3          	sb	a5,-33(s0)
   2152c:	025007b7          	lui	a5,0x2500
   21530:	fef43423          	sd	a5,-24(s0)
   21534:	00000013          	nop
   21538:	fe843783          	ld	a5,-24(s0)
   2153c:	07c78793          	addi	a5,a5,124 # 250007c <bss_begin+0x24db07c>
   21540:	00078513          	mv	a0,a5
   21544:	d25ff0ef          	jal	ra,21268 <payload_bin+0xcb0>
   21548:	00050793          	mv	a5,a0
   2154c:	0007879b          	sext.w	a5,a5
   21550:	0027f793          	andi	a5,a5,2
   21554:	0007879b          	sext.w	a5,a5
   21558:	fe0780e3          	beqz	a5,21538 <payload_bin+0xf80>
   2155c:	fdf44783          	lbu	a5,-33(s0)
   21560:	0007879b          	sext.w	a5,a5
   21564:	00078593          	mv	a1,a5
   21568:	fe843503          	ld	a0,-24(s0)
   2156c:	d29ff0ef          	jal	ra,21294 <payload_bin+0xcdc>
   21570:	00000013          	nop
   21574:	02813083          	ld	ra,40(sp)
   21578:	02013403          	ld	s0,32(sp)
   2157c:	03010113          	addi	sp,sp,48
   21580:	00008067          	ret
   21584:	fe010113          	addi	sp,sp,-32
   21588:	00113c23          	sd	ra,24(sp)
   2158c:	00813823          	sd	s0,16(sp)
   21590:	02010413          	addi	s0,sp,32
   21594:	00050793          	mv	a5,a0
   21598:	fef42623          	sw	a5,-20(s0)
   2159c:	fec42783          	lw	a5,-20(s0)
   215a0:	0ff7f793          	andi	a5,a5,255
   215a4:	00078513          	mv	a0,a5
   215a8:	f6dff0ef          	jal	ra,21514 <payload_bin+0xf5c>
   215ac:	fec42783          	lw	a5,-20(s0)
   215b0:	00078513          	mv	a0,a5
   215b4:	01813083          	ld	ra,24(sp)
   215b8:	01013403          	ld	s0,16(sp)
   215bc:	02010113          	addi	sp,sp,32
   215c0:	00008067          	ret
   215c4:	fe010113          	addi	sp,sp,-32
   215c8:	00113c23          	sd	ra,24(sp)
   215cc:	00813823          	sd	s0,16(sp)
   215d0:	02010413          	addi	s0,sp,32
   215d4:	025007b7          	lui	a5,0x2500
   215d8:	fef43423          	sd	a5,-24(s0)
   215dc:	00000013          	nop
   215e0:	fe843783          	ld	a5,-24(s0)
   215e4:	07c78793          	addi	a5,a5,124 # 250007c <bss_begin+0x24db07c>
   215e8:	00078513          	mv	a0,a5
   215ec:	c7dff0ef          	jal	ra,21268 <payload_bin+0xcb0>
   215f0:	00050793          	mv	a5,a0
   215f4:	0007879b          	sext.w	a5,a5
   215f8:	0087f793          	andi	a5,a5,8
   215fc:	0007879b          	sext.w	a5,a5
   21600:	fe0780e3          	beqz	a5,215e0 <payload_bin+0x1028>
   21604:	fe843503          	ld	a0,-24(s0)
   21608:	c35ff0ef          	jal	ra,2123c <payload_bin+0xc84>
   2160c:	00050793          	mv	a5,a0
   21610:	00078513          	mv	a0,a5
   21614:	01813083          	ld	ra,24(sp)
   21618:	01013403          	ld	s0,16(sp)
   2161c:	02010113          	addi	sp,sp,32
   21620:	00008067          	ret
   21624:	fd010113          	addi	sp,sp,-48
   21628:	02113423          	sd	ra,40(sp)
   2162c:	02813023          	sd	s0,32(sp)
   21630:	03010413          	addi	s0,sp,48
   21634:	fca43c23          	sd	a0,-40(s0)
   21638:	fe042623          	sw	zero,-20(s0)
   2163c:	04c0006f          	j	21688 <payload_bin+0x10d0>
   21640:	fec42783          	lw	a5,-20(s0)
   21644:	fd843703          	ld	a4,-40(s0)
   21648:	00f707b3          	add	a5,a4,a5
   2164c:	0007c783          	lbu	a5,0(a5)
   21650:	00078713          	mv	a4,a5
   21654:	00a00793          	li	a5,10
   21658:	00f71663          	bne	a4,a5,21664 <payload_bin+0x10ac>
   2165c:	00d00513          	li	a0,13
   21660:	eb5ff0ef          	jal	ra,21514 <payload_bin+0xf5c>
   21664:	fec42783          	lw	a5,-20(s0)
   21668:	fd843703          	ld	a4,-40(s0)
   2166c:	00f707b3          	add	a5,a4,a5
   21670:	0007c783          	lbu	a5,0(a5)
   21674:	00078513          	mv	a0,a5
   21678:	e9dff0ef          	jal	ra,21514 <payload_bin+0xf5c>
   2167c:	fec42783          	lw	a5,-20(s0)
   21680:	0017879b          	addiw	a5,a5,1
   21684:	fef42623          	sw	a5,-20(s0)
   21688:	fec42783          	lw	a5,-20(s0)
   2168c:	fd843703          	ld	a4,-40(s0)
   21690:	00f707b3          	add	a5,a4,a5
   21694:	0007c783          	lbu	a5,0(a5)
   21698:	fa0794e3          	bnez	a5,21640 <payload_bin+0x1088>
   2169c:	00000013          	nop
   216a0:	00000013          	nop
   216a4:	02813083          	ld	ra,40(sp)
   216a8:	02013403          	ld	s0,32(sp)
   216ac:	03010113          	addi	sp,sp,48
   216b0:	00008067          	ret
   216b4:	fc010113          	addi	sp,sp,-64
   216b8:	02813c23          	sd	s0,56(sp)
   216bc:	04010413          	addi	s0,sp,64
   216c0:	fca43423          	sd	a0,-56(s0)
   216c4:	fcb43023          	sd	a1,-64(s0)
   216c8:	fe042223          	sw	zero,-28(s0)
   216cc:	fc843783          	ld	a5,-56(s0)
   216d0:	fef43423          	sd	a5,-24(s0)
   216d4:	0900006f          	j	21764 <payload_bin+0x11ac>
   216d8:	fe843783          	ld	a5,-24(s0)
   216dc:	0007c783          	lbu	a5,0(a5)
   216e0:	00078713          	mv	a4,a5
   216e4:	02f00793          	li	a5,47
   216e8:	02e7f063          	bgeu	a5,a4,21708 <payload_bin+0x1150>
   216ec:	fe843783          	ld	a5,-24(s0)
   216f0:	0007c783          	lbu	a5,0(a5)
   216f4:	00078713          	mv	a4,a5
   216f8:	03900793          	li	a5,57
   216fc:	00e7e663          	bltu	a5,a4,21708 <payload_bin+0x1150>
   21700:	00100793          	li	a5,1
   21704:	0080006f          	j	2170c <payload_bin+0x1154>
   21708:	00000793          	li	a5,0
   2170c:	fef42023          	sw	a5,-32(s0)
   21710:	fe042783          	lw	a5,-32(s0)
   21714:	0007879b          	sext.w	a5,a5
   21718:	04078e63          	beqz	a5,21774 <payload_bin+0x11bc>
   2171c:	fe843783          	ld	a5,-24(s0)
   21720:	0007c783          	lbu	a5,0(a5)
   21724:	0007879b          	sext.w	a5,a5
   21728:	fd07879b          	addiw	a5,a5,-48
   2172c:	fcf42e23          	sw	a5,-36(s0)
   21730:	fe442703          	lw	a4,-28(s0)
   21734:	00070793          	mv	a5,a4
   21738:	0027979b          	slliw	a5,a5,0x2
   2173c:	00e787bb          	addw	a5,a5,a4
   21740:	0017979b          	slliw	a5,a5,0x1
   21744:	fef42223          	sw	a5,-28(s0)
   21748:	fe442703          	lw	a4,-28(s0)
   2174c:	fdc42783          	lw	a5,-36(s0)
   21750:	00f707bb          	addw	a5,a4,a5
   21754:	fef42223          	sw	a5,-28(s0)
   21758:	fe843783          	ld	a5,-24(s0)
   2175c:	00178793          	addi	a5,a5,1
   21760:	fef43423          	sd	a5,-24(s0)
   21764:	fc843783          	ld	a5,-56(s0)
   21768:	0007c783          	lbu	a5,0(a5)
   2176c:	f60796e3          	bnez	a5,216d8 <payload_bin+0x1120>
   21770:	0080006f          	j	21778 <payload_bin+0x11c0>
   21774:	00000013          	nop
   21778:	fc043783          	ld	a5,-64(s0)
   2177c:	fe442703          	lw	a4,-28(s0)
   21780:	00e7a023          	sw	a4,0(a5)
   21784:	fe843703          	ld	a4,-24(s0)
   21788:	fc843783          	ld	a5,-56(s0)
   2178c:	40f707b3          	sub	a5,a4,a5
   21790:	0007879b          	sext.w	a5,a5
   21794:	00078513          	mv	a0,a5
   21798:	03813403          	ld	s0,56(sp)
   2179c:	04010113          	addi	sp,sp,64
   217a0:	00008067          	ret
   217a4:	fb010113          	addi	sp,sp,-80
   217a8:	04113423          	sd	ra,72(sp)
   217ac:	04813023          	sd	s0,64(sp)
   217b0:	05010413          	addi	s0,sp,80
   217b4:	00050793          	mv	a5,a0
   217b8:	00068713          	mv	a4,a3
   217bc:	faf42e23          	sw	a5,-68(s0)
   217c0:	00058793          	mv	a5,a1
   217c4:	faf42c23          	sw	a5,-72(s0)
   217c8:	00060793          	mv	a5,a2
   217cc:	faf42a23          	sw	a5,-76(s0)
   217d0:	00070793          	mv	a5,a4
   217d4:	faf42823          	sw	a5,-80(s0)
   217d8:	fe042223          	sw	zero,-28(s0)
   217dc:	0280006f          	j	21804 <payload_bin+0x124c>
   217e0:	fb042783          	lw	a5,-80(s0)
   217e4:	0ff7f713          	andi	a4,a5,255
   217e8:	fe442783          	lw	a5,-28(s0)
   217ec:	ff040693          	addi	a3,s0,-16
   217f0:	00f687b3          	add	a5,a3,a5
   217f4:	fce78823          	sb	a4,-48(a5)
   217f8:	fe442783          	lw	a5,-28(s0)
   217fc:	0017879b          	addiw	a5,a5,1
   21800:	fef42223          	sw	a5,-28(s0)
   21804:	fe442783          	lw	a5,-28(s0)
   21808:	00078713          	mv	a4,a5
   2180c:	01f00793          	li	a5,31
   21810:	fce7f8e3          	bgeu	a5,a4,217e0 <payload_bin+0x1228>
   21814:	00a00793          	li	a5,10
   21818:	fef42623          	sw	a5,-20(s0)
   2181c:	fb842783          	lw	a5,-72(s0)
   21820:	0007879b          	sext.w	a5,a5
   21824:	00078663          	beqz	a5,21830 <payload_bin+0x1278>
   21828:	01000793          	li	a5,16
   2182c:	fef42623          	sw	a5,-20(s0)
   21830:	fe042423          	sw	zero,-24(s0)
   21834:	fbc42703          	lw	a4,-68(s0)
   21838:	fec42783          	lw	a5,-20(s0)
   2183c:	02f777bb          	remuw	a5,a4,a5
   21840:	0007879b          	sext.w	a5,a5
   21844:	fef42023          	sw	a5,-32(s0)
   21848:	fe042783          	lw	a5,-32(s0)
   2184c:	0007871b          	sext.w	a4,a5
   21850:	00900793          	li	a5,9
   21854:	02e7d463          	bge	a5,a4,2187c <payload_bin+0x12c4>
   21858:	fe042783          	lw	a5,-32(s0)
   2185c:	0ff7f793          	andi	a5,a5,255
   21860:	0577879b          	addiw	a5,a5,87
   21864:	0ff7f713          	andi	a4,a5,255
   21868:	fe842783          	lw	a5,-24(s0)
   2186c:	ff040693          	addi	a3,s0,-16
   21870:	00f687b3          	add	a5,a3,a5
   21874:	fce78823          	sb	a4,-48(a5)
   21878:	0240006f          	j	2189c <payload_bin+0x12e4>
   2187c:	fe042783          	lw	a5,-32(s0)
   21880:	0ff7f793          	andi	a5,a5,255
   21884:	0307879b          	addiw	a5,a5,48
   21888:	0ff7f713          	andi	a4,a5,255
   2188c:	fe842783          	lw	a5,-24(s0)
   21890:	ff040693          	addi	a3,s0,-16
   21894:	00f687b3          	add	a5,a3,a5
   21898:	fce78823          	sb	a4,-48(a5)
   2189c:	fbc42703          	lw	a4,-68(s0)
   218a0:	fec42783          	lw	a5,-20(s0)
   218a4:	02f757bb          	divuw	a5,a4,a5
   218a8:	faf42e23          	sw	a5,-68(s0)
   218ac:	fe842783          	lw	a5,-24(s0)
   218b0:	0017879b          	addiw	a5,a5,1
   218b4:	fef42423          	sw	a5,-24(s0)
   218b8:	fbc42783          	lw	a5,-68(s0)
   218bc:	0007879b          	sext.w	a5,a5
   218c0:	f6079ae3          	bnez	a5,21834 <payload_bin+0x127c>
   218c4:	fb442783          	lw	a5,-76(s0)
   218c8:	0007879b          	sext.w	a5,a5
   218cc:	02f05c63          	blez	a5,21904 <payload_bin+0x134c>
   218d0:	fb442783          	lw	a5,-76(s0)
   218d4:	00078713          	mv	a4,a5
   218d8:	01f00793          	li	a5,31
   218dc:	00e7f663          	bgeu	a5,a4,218e8 <payload_bin+0x1330>
   218e0:	01f00793          	li	a5,31
   218e4:	faf42a23          	sw	a5,-76(s0)
   218e8:	fe842703          	lw	a4,-24(s0)
   218ec:	fb442783          	lw	a5,-76(s0)
   218f0:	0007071b          	sext.w	a4,a4
   218f4:	0007879b          	sext.w	a5,a5
   218f8:	00f75663          	bge	a4,a5,21904 <payload_bin+0x134c>
   218fc:	fb442783          	lw	a5,-76(s0)
   21900:	fef42423          	sw	a5,-24(s0)
   21904:	fe842783          	lw	a5,-24(s0)
   21908:	ff040713          	addi	a4,s0,-16
   2190c:	00f707b3          	add	a5,a4,a5
   21910:	fc078823          	sb	zero,-48(a5)
   21914:	fe842783          	lw	a5,-24(s0)
   21918:	fff7879b          	addiw	a5,a5,-1
   2191c:	fef42223          	sw	a5,-28(s0)
   21920:	0280006f          	j	21948 <payload_bin+0x1390>
   21924:	fe442783          	lw	a5,-28(s0)
   21928:	ff040713          	addi	a4,s0,-16
   2192c:	00f707b3          	add	a5,a4,a5
   21930:	fd07c783          	lbu	a5,-48(a5)
   21934:	00078513          	mv	a0,a5
   21938:	bddff0ef          	jal	ra,21514 <payload_bin+0xf5c>
   2193c:	fe442783          	lw	a5,-28(s0)
   21940:	fff7879b          	addiw	a5,a5,-1
   21944:	fef42223          	sw	a5,-28(s0)
   21948:	fe442783          	lw	a5,-28(s0)
   2194c:	0007879b          	sext.w	a5,a5
   21950:	fc07dae3          	bgez	a5,21924 <payload_bin+0x136c>
   21954:	00000013          	nop
   21958:	00000013          	nop
   2195c:	04813083          	ld	ra,72(sp)
   21960:	04013403          	ld	s0,64(sp)
   21964:	05010113          	addi	sp,sp,80
   21968:	00008067          	ret
   2196c:	fb010113          	addi	sp,sp,-80
   21970:	04113423          	sd	ra,72(sp)
   21974:	04813023          	sd	s0,64(sp)
   21978:	05010413          	addi	s0,sp,80
   2197c:	faa43c23          	sd	a0,-72(s0)
   21980:	fab43823          	sd	a1,-80(s0)
   21984:	02000793          	li	a5,32
   21988:	fcf42a23          	sw	a5,-44(s0)
   2198c:	fb843783          	ld	a5,-72(s0)
   21990:	fef43423          	sd	a5,-24(s0)
   21994:	1880006f          	j	21b1c <payload_bin+0x1564>
   21998:	fc042e23          	sw	zero,-36(s0)
   2199c:	fc042223          	sw	zero,-60(s0)
   219a0:	fe843783          	ld	a5,-24(s0)
   219a4:	0007c783          	lbu	a5,0(a5)
   219a8:	fcf42823          	sw	a5,-48(s0)
   219ac:	fe843783          	ld	a5,-24(s0)
   219b0:	fef43023          	sd	a5,-32(s0)
   219b4:	fe843783          	ld	a5,-24(s0)
   219b8:	0007c783          	lbu	a5,0(a5)
   219bc:	00078713          	mv	a4,a5
   219c0:	02500793          	li	a5,37
   219c4:	06f71863          	bne	a4,a5,21a34 <payload_bin+0x147c>
   219c8:	fe843783          	ld	a5,-24(s0)
   219cc:	fef43023          	sd	a5,-32(s0)
   219d0:	fe843783          	ld	a5,-24(s0)
   219d4:	00178793          	addi	a5,a5,1
   219d8:	fef43423          	sd	a5,-24(s0)
   219dc:	fe843783          	ld	a5,-24(s0)
   219e0:	0007c783          	lbu	a5,0(a5)
   219e4:	00078713          	mv	a4,a5
   219e8:	02f00793          	li	a5,47
   219ec:	02e7fe63          	bgeu	a5,a4,21a28 <payload_bin+0x1470>
   219f0:	fe843783          	ld	a5,-24(s0)
   219f4:	0007c783          	lbu	a5,0(a5)
   219f8:	00078713          	mv	a4,a5
   219fc:	03900793          	li	a5,57
   21a00:	02e7e463          	bltu	a5,a4,21a28 <payload_bin+0x1470>
   21a04:	fc440793          	addi	a5,s0,-60
   21a08:	00078593          	mv	a1,a5
   21a0c:	fe843503          	ld	a0,-24(s0)
   21a10:	ca5ff0ef          	jal	ra,216b4 <payload_bin+0x10fc>
   21a14:	00050793          	mv	a5,a0
   21a18:	00078713          	mv	a4,a5
   21a1c:	fe843783          	ld	a5,-24(s0)
   21a20:	00e787b3          	add	a5,a5,a4
   21a24:	fef43423          	sd	a5,-24(s0)
   21a28:	fe843783          	ld	a5,-24(s0)
   21a2c:	0007c783          	lbu	a5,0(a5)
   21a30:	fcf42e23          	sw	a5,-36(s0)
   21a34:	fdc42783          	lw	a5,-36(s0)
   21a38:	0007871b          	sext.w	a4,a5
   21a3c:	06400793          	li	a5,100
   21a40:	00f70a63          	beq	a4,a5,21a54 <payload_bin+0x149c>
   21a44:	fdc42783          	lw	a5,-36(s0)
   21a48:	0007871b          	sext.w	a4,a5
   21a4c:	07800793          	li	a5,120
   21a50:	04f71863          	bne	a4,a5,21aa0 <payload_bin+0x14e8>
   21a54:	fb043783          	ld	a5,-80(s0)
   21a58:	00878713          	addi	a4,a5,8
   21a5c:	fae43823          	sd	a4,-80(s0)
   21a60:	0007a783          	lw	a5,0(a5)
   21a64:	fcf42423          	sw	a5,-56(s0)
   21a68:	fc842503          	lw	a0,-56(s0)
   21a6c:	fdc42783          	lw	a5,-36(s0)
   21a70:	0007871b          	sext.w	a4,a5
   21a74:	07800793          	li	a5,120
   21a78:	40f707b3          	sub	a5,a4,a5
   21a7c:	0017b793          	seqz	a5,a5
   21a80:	0ff7f793          	andi	a5,a5,255
   21a84:	0007879b          	sext.w	a5,a5
   21a88:	fc442703          	lw	a4,-60(s0)
   21a8c:	fd442683          	lw	a3,-44(s0)
   21a90:	00070613          	mv	a2,a4
   21a94:	00078593          	mv	a1,a5
   21a98:	d0dff0ef          	jal	ra,217a4 <payload_bin+0x11ec>
   21a9c:	0740006f          	j	21b10 <payload_bin+0x1558>
   21aa0:	fc042c23          	sw	zero,-40(s0)
   21aa4:	0280006f          	j	21acc <payload_bin+0x1514>
   21aa8:	fd842783          	lw	a5,-40(s0)
   21aac:	fe043703          	ld	a4,-32(s0)
   21ab0:	00f707b3          	add	a5,a4,a5
   21ab4:	0007c783          	lbu	a5,0(a5)
   21ab8:	00078513          	mv	a0,a5
   21abc:	a59ff0ef          	jal	ra,21514 <payload_bin+0xf5c>
   21ac0:	fd842783          	lw	a5,-40(s0)
   21ac4:	0017879b          	addiw	a5,a5,1
   21ac8:	fcf42c23          	sw	a5,-40(s0)
   21acc:	fd842703          	lw	a4,-40(s0)
   21ad0:	fe843683          	ld	a3,-24(s0)
   21ad4:	fe043783          	ld	a5,-32(s0)
   21ad8:	40f687b3          	sub	a5,a3,a5
   21adc:	fcf746e3          	blt	a4,a5,21aa8 <payload_bin+0x14f0>
   21ae0:	fdc42783          	lw	a5,-36(s0)
   21ae4:	0007879b          	sext.w	a5,a5
   21ae8:	00078863          	beqz	a5,21af8 <payload_bin+0x1540>
   21aec:	fdc42783          	lw	a5,-36(s0)
   21af0:	0ff7f793          	andi	a5,a5,255
   21af4:	00c0006f          	j	21b00 <payload_bin+0x1548>
   21af8:	fd042783          	lw	a5,-48(s0)
   21afc:	0ff7f793          	andi	a5,a5,255
   21b00:	fcf407a3          	sb	a5,-49(s0)
   21b04:	fcf44783          	lbu	a5,-49(s0)
   21b08:	00078513          	mv	a0,a5
   21b0c:	a09ff0ef          	jal	ra,21514 <payload_bin+0xf5c>
   21b10:	fe843783          	ld	a5,-24(s0)
   21b14:	00178793          	addi	a5,a5,1
   21b18:	fef43423          	sd	a5,-24(s0)
   21b1c:	fe843783          	ld	a5,-24(s0)
   21b20:	0007c783          	lbu	a5,0(a5)
   21b24:	e6079ae3          	bnez	a5,21998 <payload_bin+0x13e0>
   21b28:	00000793          	li	a5,0
   21b2c:	00078513          	mv	a0,a5
   21b30:	04813083          	ld	ra,72(sp)
   21b34:	04013403          	ld	s0,64(sp)
   21b38:	05010113          	addi	sp,sp,80
   21b3c:	00008067          	ret
   21b40:	f9010113          	addi	sp,sp,-112
   21b44:	02113423          	sd	ra,40(sp)
   21b48:	02813023          	sd	s0,32(sp)
   21b4c:	03010413          	addi	s0,sp,48
   21b50:	fca43c23          	sd	a0,-40(s0)
   21b54:	00b43423          	sd	a1,8(s0)
   21b58:	00c43823          	sd	a2,16(s0)
   21b5c:	00d43c23          	sd	a3,24(s0)
   21b60:	02e43023          	sd	a4,32(s0)
   21b64:	02f43423          	sd	a5,40(s0)
   21b68:	03043823          	sd	a6,48(s0)
   21b6c:	03143c23          	sd	a7,56(s0)
   21b70:	04040793          	addi	a5,s0,64
   21b74:	fcf43823          	sd	a5,-48(s0)
   21b78:	fd043783          	ld	a5,-48(s0)
   21b7c:	fc878793          	addi	a5,a5,-56
   21b80:	fef43423          	sd	a5,-24(s0)
   21b84:	fe843783          	ld	a5,-24(s0)
   21b88:	00078593          	mv	a1,a5
   21b8c:	fd843503          	ld	a0,-40(s0)
   21b90:	dddff0ef          	jal	ra,2196c <payload_bin+0x13b4>
   21b94:	00000793          	li	a5,0
   21b98:	00078513          	mv	a0,a5
   21b9c:	02813083          	ld	ra,40(sp)
   21ba0:	02013403          	ld	s0,32(sp)
   21ba4:	07010113          	addi	sp,sp,112
   21ba8:	00008067          	ret
   21bac:	fd010113          	addi	sp,sp,-48
   21bb0:	02113423          	sd	ra,40(sp)
   21bb4:	02813023          	sd	s0,32(sp)
   21bb8:	03010413          	addi	s0,sp,48
   21bbc:	00050793          	mv	a5,a0
   21bc0:	fcf42e23          	sw	a5,-36(s0)
   21bc4:	03000513          	li	a0,48
   21bc8:	94dff0ef          	jal	ra,21514 <payload_bin+0xf5c>
   21bcc:	07800513          	li	a0,120
   21bd0:	945ff0ef          	jal	ra,21514 <payload_bin+0xf5c>
   21bd4:	00700793          	li	a5,7
   21bd8:	fef42623          	sw	a5,-20(s0)
   21bdc:	07c0006f          	j	21c58 <payload_bin+0x16a0>
   21be0:	fec42783          	lw	a5,-20(s0)
   21be4:	0027979b          	slliw	a5,a5,0x2
   21be8:	0007879b          	sext.w	a5,a5
   21bec:	00078713          	mv	a4,a5
   21bf0:	fdc42783          	lw	a5,-36(s0)
   21bf4:	00e7d7bb          	srlw	a5,a5,a4
   21bf8:	0007879b          	sext.w	a5,a5
   21bfc:	0007879b          	sext.w	a5,a5
   21c00:	00f7f793          	andi	a5,a5,15
   21c04:	fef42423          	sw	a5,-24(s0)
   21c08:	fe842783          	lw	a5,-24(s0)
   21c0c:	0007871b          	sext.w	a4,a5
   21c10:	00900793          	li	a5,9
   21c14:	02e7c063          	blt	a5,a4,21c34 <payload_bin+0x167c>
   21c18:	fe842783          	lw	a5,-24(s0)
   21c1c:	0ff7f793          	andi	a5,a5,255
   21c20:	0307879b          	addiw	a5,a5,48
   21c24:	0ff7f793          	andi	a5,a5,255
   21c28:	00078513          	mv	a0,a5
   21c2c:	8e9ff0ef          	jal	ra,21514 <payload_bin+0xf5c>
   21c30:	01c0006f          	j	21c4c <payload_bin+0x1694>
   21c34:	fe842783          	lw	a5,-24(s0)
   21c38:	0ff7f793          	andi	a5,a5,255
   21c3c:	0377879b          	addiw	a5,a5,55
   21c40:	0ff7f793          	andi	a5,a5,255
   21c44:	00078513          	mv	a0,a5
   21c48:	8cdff0ef          	jal	ra,21514 <payload_bin+0xf5c>
   21c4c:	fec42783          	lw	a5,-20(s0)
   21c50:	fff7879b          	addiw	a5,a5,-1
   21c54:	fef42623          	sw	a5,-20(s0)
   21c58:	fec42783          	lw	a5,-20(s0)
   21c5c:	0007879b          	sext.w	a5,a5
   21c60:	f807d0e3          	bgez	a5,21be0 <payload_bin+0x1628>
   21c64:	00000013          	nop
   21c68:	00000013          	nop
   21c6c:	02813083          	ld	ra,40(sp)
   21c70:	02013403          	ld	s0,32(sp)
   21c74:	03010113          	addi	sp,sp,48
   21c78:	00008067          	ret
   21c7c:	0000                	unimp
   21c7e:	0000                	unimp
   21c80:	abcd                	j	22272 <payload_bin+0x1cba>
   21c82:	abcd                	j	22274 <payload_bin+0x1cbc>
   21c84:	5678                	lw	a4,108(a2)
   21c86:	1234                	addi	a3,sp,296
   21c88:	000212b7          	lui	t0,0x21
   21c8c:	00028303          	lb	t1,0(t0) # 21000 <payload_bin+0xa48>
   21c90:	00428303          	lb	t1,4(t0)
   21c94:	ffc28303          	lb	t1,-4(t0)
   21c98:	0002b303          	ld	t1,0(t0)
   21c9c:	00428303          	lb	t1,4(t0)
   21ca0:	00000297          	auipc	t0,0x0
   21ca4:	fe028293          	addi	t0,t0,-32 # 21c80 <payload_bin+0x16c8>
   21ca8:	00000317          	auipc	t1,0x0
   21cac:	fd830313          	addi	t1,t1,-40 # 21c80 <payload_bin+0x16c8>
   21cb0:	802002b7          	lui	t0,0x80200
   21cb4:	40200337          	lui	t1,0x40200
   21cb8:	00008067          	ret
   21cbc:	c00002b7          	lui	t0,0xc0000
   21cc0:	0452829b          	addiw	t0,t0,69
   21cc4:	02129293          	slli	t0,t0,0x21
   21cc8:	4012d593          	srai	a1,t0,0x1
   21ccc:	0012d313          	srli	t1,t0,0x1
   21cd0:	0250029b          	addiw	t0,zero,37
   21cd4:	01f29293          	slli	t0,t0,0x1f
   21cd8:	08a28293          	addi	t0,t0,138 # ffffffffc000008a <bss_begin+0xffffffffbffdb08a>
   21cdc:	4012d61b          	sraiw	a2,t0,0x1
   21ce0:	0012d31b          	srliw	t1,t0,0x1
   21ce4:	0012969b          	slliw	a3,t0,0x1
   21ce8:	0490029b          	addiw	t0,zero,73
   21cec:	01e29293          	slli	t0,t0,0x1e
   21cf0:	08a28293          	addi	t0,t0,138
   21cf4:	4012d61b          	sraiw	a2,t0,0x1
   21cf8:	0012d31b          	srliw	t1,t0,0x1
   21cfc:	0012971b          	slliw	a4,t0,0x1
   21d00:	00008067          	ret
   21d04:	80028593          	addi	a1,t0,-2048
   21d08:	000012b7          	lui	t0,0x1
   21d0c:	a012829b          	addiw	t0,t0,-1535
   21d10:	01529293          	slli	t0,t0,0x15
   21d14:	40000337          	lui	t1,0x40000
   21d18:	70028593          	addi	a1,t0,1792 # 1700 <__bin_size-0x3900>
   21d1c:	80028593          	addi	a1,t0,-2048
   21d20:	0802861b          	addiw	a2,t0,128
   21d24:	006286b3          	add	a3,t0,t1
   21d28:	0062873b          	addw	a4,t0,t1
   21d2c:	000012b7          	lui	t0,0x1
   21d30:	c012829b          	addiw	t0,t0,-1023
   21d34:	01529293          	slli	t0,t0,0x15
   21d38:	00200337          	lui	t1,0x200
   21d3c:	40628533          	sub	a0,t0,t1
   21d40:	406285bb          	subw	a1,t0,t1
   21d44:	00008067          	ret
   21d48:	00b50533          	add	a0,a0,a1
   21d4c:	00000013          	nop
   21d50:	00008067          	ret
   21d54:	ff810113          	addi	sp,sp,-8
   21d58:	00113023          	sd	ra,0(sp)
   21d5c:	00100513          	li	a0,1
   21d60:	00200593          	li	a1,2
   21d64:	fe5ff0ef          	jal	ra,21d48 <payload_bin+0x1790>
   21d68:	00000013          	nop
   21d6c:	00013083          	ld	ra,0(sp)
   21d70:	00810113          	addi	sp,sp,8
   21d74:	00008067          	ret
   21d78:	000202b7          	lui	t0,0x20
   21d7c:	00021337          	lui	t1,0x21
   21d80:	02028393          	addi	t2,t0,32 # 20020 <_start+0x20>
   21d84:	0002be03          	ld	t3,0(t0)
   21d88:	01c33023          	sd	t3,0(t1) # 21000 <payload_bin+0xa48>
   21d8c:	00828293          	addi	t0,t0,8
   21d90:	00830313          	addi	t1,t1,8
   21d94:	fe72c8e3          	blt	t0,t2,21d84 <payload_bin+0x17cc>
   21d98:	00008067          	ret
   21d9c:	00b56663          	bltu	a0,a1,21da8 <payload_bin+0x17f0>
   21da0:	00000793          	li	a5,0
   21da4:	0080006f          	j	21dac <payload_bin+0x17f4>
   21da8:	fff00793          	li	a5,-1
   21dac:	00078513          	mv	a0,a5
   21db0:	00008067          	ret
   21db4:	00050663          	beqz	a0,21dc0 <payload_bin+0x1808>
   21db8:	fff58793          	addi	a5,a1,-1
   21dbc:	0080006f          	j	21dc4 <payload_bin+0x180c>
   21dc0:	00258793          	addi	a5,a1,2
   21dc4:	00078513          	mv	a0,a5
   21dc8:	00008067          	ret
   21dcc:	ff010113          	addi	sp,sp,-16
   21dd0:	00113423          	sd	ra,8(sp)
   21dd4:	fe1ff0ef          	jal	ra,21db4 <payload_bin+0x17fc>
   21dd8:	00813083          	ld	ra,8(sp)
   21ddc:	01010113          	addi	sp,sp,16
   21de0:	00008067          	ret
   21de4:	00000013          	nop
   21de8:	0800                	addi	s0,sp,16
   21dea:	0080                	addi	s0,sp,64
   21dec:	0000                	unimp
   21dee:	0000                	unimp
   21df0:	0860                	addi	s0,sp,28
   21df2:	0080                	addi	s0,sp,64
   21df4:	0000                	unimp
   21df6:	0000                	unimp
   21df8:	0880                	addi	s0,sp,80
   21dfa:	0080                	addi	s0,sp,64
   21dfc:	0000                	unimp
   21dfe:	0000                	unimp
   21e00:	7566                	ld	a0,120(sp)
   21e02:	636e                	ld	t1,216(sp)
   21e04:	615f 6600 6e75      	0x6e756600615f
   21e0a:	00625f63          	bge	tp,t1,21e28 <payload_bin+0x1870>
   21e0e:	7566                	ld	a0,120(sp)
   21e10:	636e                	ld	t1,216(sp)
   21e12:	635f 0100 0000      	0x100635f
   21e18:	00000003          	lb	zero,0(zero) # 0 <__bin_size-0x5000>
   21e1c:	0000                	unimp
   21e1e:	0000                	unimp
   21e20:	00b50533          	add	a0,a0,a1
   21e24:	00008067          	ret
   21e28:	40b50533          	sub	a0,a0,a1
   21e2c:	00008067          	ret
   21e30:	ff010113          	addi	sp,sp,-16
   21e34:	00113423          	sd	ra,8(sp)
   21e38:	00050293          	mv	t0,a0
   21e3c:	00058313          	mv	t1,a1
   21e40:	00028513          	mv	a0,t0
   21e44:	00030593          	mv	a1,t1
   21e48:	fd9ff0ef          	jal	ra,21e20 <payload_bin+0x1868>
   21e4c:	00813083          	ld	ra,8(sp)
   21e50:	01010113          	addi	sp,sp,16
   21e54:	00008067          	ret
   21e58:	ff010113          	addi	sp,sp,-16
   21e5c:	00113423          	sd	ra,8(sp)
   21e60:	00050293          	mv	t0,a0
   21e64:	00058313          	mv	t1,a1
   21e68:	00028513          	mv	a0,t0
   21e6c:	00030593          	mv	a1,t1
   21e70:	fb9ff0ef          	jal	ra,21e28 <payload_bin+0x1870>
   21e74:	00813083          	ld	ra,8(sp)
   21e78:	01010113          	addi	sp,sp,16
   21e7c:	00008067          	ret
	...
   21e88:	020002b7          	lui	t0,0x2000
   21e8c:	0f02829b          	addiw	t0,t0,240
   21e90:	0002a303          	lw	t1,0(t0) # 2000000 <bss_begin+0x1fdb000>
   21e94:	fff0f3b7          	lui	t2,0xfff0f
   21e98:	0ff3839b          	addiw	t2,t2,255
   21e9c:	00737333          	and	t1,t1,t2
   21ea0:	000303b7          	lui	t2,0x30
   21ea4:	3003839b          	addiw	t2,t2,768
   21ea8:	00736333          	or	t1,t1,t2
   21eac:	0062a023          	sw	t1,0(t0)
   21eb0:	020022b7          	lui	t0,0x2002
   21eb4:	90c2829b          	addiw	t0,t0,-1780
   21eb8:	0002a303          	lw	t1,0(t0) # 2002000 <bss_begin+0x1fdd000>
   21ebc:	00136313          	ori	t1,t1,1
   21ec0:	0062a023          	sw	t1,0(t0)
   21ec4:	020022b7          	lui	t0,0x2002
   21ec8:	90c2829b          	addiw	t0,t0,-1780
   21ecc:	0002a303          	lw	t1,0(t0) # 2002000 <bss_begin+0x1fdd000>
   21ed0:	000103b7          	lui	t2,0x10
   21ed4:	00736333          	or	t1,t1,t2
   21ed8:	0062a023          	sw	t1,0(t0)
   21edc:	025002b7          	lui	t0,0x2500
   21ee0:	0002a223          	sw	zero,4(t0) # 2500004 <bss_begin+0x24db004>
   21ee4:	0f700313          	li	t1,247
   21ee8:	0062a423          	sw	t1,8(t0)
   21eec:	0002a823          	sw	zero,16(t0)
   21ef0:	00c2a303          	lw	t1,12(t0)
   21ef4:	08036313          	ori	t1,t1,128
   21ef8:	0062a623          	sw	t1,12(t0)
   21efc:	00d00393          	li	t2,13
   21f00:	0072a023          	sw	t2,0(t0)
   21f04:	00000393          	li	t2,0
   21f08:	0072a223          	sw	t2,4(t0)
   21f0c:	08034313          	xori	t1,t1,128
   21f10:	0062a623          	sw	t1,12(t0)
   21f14:	00c2a303          	lw	t1,12(t0)
   21f18:	ff000393          	li	t2,-16
   21f1c:	00737333          	and	t1,t1,t2
   21f20:	00300393          	li	t2,3
   21f24:	00736333          	or	t1,t1,t2
   21f28:	0062a623          	sw	t1,12(t0)
   21f2c:	00008067          	ret
   21f30:	025002b7          	lui	t0,0x2500
   21f34:	07c2a303          	lw	t1,124(t0) # 250007c <bss_begin+0x24db07c>
   21f38:	00237313          	andi	t1,t1,2
   21f3c:	fe030ce3          	beqz	t1,21f34 <payload_bin+0x197c>
   21f40:	00a28023          	sb	a0,0(t0)
   21f44:	00008067          	ret
   21f48:	00008c13          	mv	s8,ra
   21f4c:	00050793          	mv	a5,a0
   21f50:	0007c503          	lbu	a0,0(a5)
   21f54:	00050863          	beqz	a0,21f64 <payload_bin+0x19ac>
   21f58:	fd9ff0ef          	jal	ra,21f30 <payload_bin+0x1978>
   21f5c:	00178793          	addi	a5,a5,1
   21f60:	ff1ff06f          	j	21f50 <payload_bin+0x1998>
   21f64:	000c0093          	mv	ra,s8
   21f68:	00008067          	ret
   21f6c:	00000293          	li	t0,0
   21f70:	00b53023          	sd	a1,0(a0) # 2001000 <bss_begin+0x1fdc000>
   21f74:	00b53423          	sd	a1,8(a0)
   21f78:	01028293          	addi	t0,t0,16
   21f7c:	fec2cae3          	blt	t0,a2,21f70 <payload_bin+0x19b8>
   21f80:	00008067          	ret
   21f84:	0000                	unimp
   21f86:	0000                	unimp
   21f88:	000a                	c.slli	zero,0x2
   21f8a:	0000                	unimp
   21f8c:	0000                	unimp
   21f8e:	0000                	unimp
   21f90:	616c                	ld	a1,192(a0)
   21f92:	3362                	fld	ft6,56(sp)
   21f94:	352d                	addiw	a0,a0,-21
   21f96:	203a                	fld	ft0,392(sp)
   21f98:	706d6f63          	bltu	s10,t1,226b6 <payload_bin+0x20fe>
   21f9c:	7261                	lui	tp,0xffff8
   21f9e:	5f65                	li	t5,-7
   21fa0:	6e61                	lui	t3,0x18
   21fa2:	5f64                	lw	s1,124(a4)
   21fa4:	6572                	ld	a0,280(sp)
   21fa6:	7574                	ld	a3,232(a0)
   21fa8:	6e72                	ld	t3,280(sp)
   21faa:	6f20                	ld	s0,88(a4)
   21fac:	00000a6b          	0xa6b
   21fb0:	616c                	ld	a1,192(a0)
   21fb2:	3362                	fld	ft6,56(sp)
   21fb4:	372d                	addiw	a4,a4,-21
   21fb6:	203a                	fld	ft0,392(sp)
   21fb8:	7262                	ld	tp,56(sp)
   21fba:	6e61                	lui	t3,0x18
   21fbc:	74206863          	bltu	zero,sp,2270c <payload_bin+0x2154>
   21fc0:	7365                	lui	t1,0xffff9
   21fc2:	2074                	fld	fa3,192(s0)
   21fc4:	000a6b6f          	jal	s6,c7fc4 <bss_begin+0xa2fc4>
   21fc8:	616c                	ld	a1,192(a0)
   21fca:	3562                	fld	fa0,56(sp)
   21fcc:	352d                	addiw	a0,a0,-21
   21fce:	203a                	fld	ft0,392(sp)
   21fd0:	616d                	addi	sp,sp,240
   21fd2:	5f6f7263          	bgeu	t5,s6,225b6 <payload_bin+0x1ffe>
   21fd6:	6574                	ld	a3,200(a0)
   21fd8:	315f7473          	csrrci	s0,0x315,30
   21fdc:	6f20                	ld	s0,88(a4)
   21fde:	00000a6b          	0xa6b
   21fe2:	0000                	unimp
   21fe4:	0000                	unimp
   21fe6:	0000                	unimp
   21fe8:	616c                	ld	a1,192(a0)
   21fea:	3562                	fld	fa0,56(sp)
   21fec:	352d                	addiw	a0,a0,-21
   21fee:	203a                	fld	ft0,392(sp)
   21ff0:	616d                	addi	sp,sp,240
   21ff2:	5f6f7263          	bgeu	t5,s6,225d6 <payload_bin+0x201e>
   21ff6:	6574                	ld	a3,200(a0)
   21ff8:	325f7473          	csrrci	s0,mhpmevent5,30
   21ffc:	6f20                	ld	s0,88(a4)
   21ffe:	00000a6b          	0xa6b
   22002:	0000                	unimp
   22004:	0000                	unimp
   22006:	0000                	unimp
   22008:	636c6557          	0x636c6557
   2200c:	20656d6f          	jal	s10,78212 <bss_begin+0x53212>
   22010:	4952                	lw	s2,20(sp)
   22012:	562d4353          	0x562d4353
   22016:	0d21                	addi	s10,s10,8
   22018:	000a                	c.slli	zero,0x2
   2201a:	0000                	unimp
   2201c:	0000                	unimp
   2201e:	0000                	unimp
   22020:	0a0d                	addi	s4,s4,3
   22022:	6f42                	ld	t5,16(sp)
   22024:	6e69746f          	jal	s0,b970a <bss_begin+0x9470a>
   22028:	74612067          	0x74612067
   2202c:	6120                	ld	s0,64(a0)
   2202e:	0a0d6d73          	csrrsi	s10,0xa0,26
	...

Disassembly of section .rodata:

00000000000235b8 <.rodata>:
   235b8:	caec                	sw	a1,84(a3)
   235ba:	cba0ffff          	0xcba0ffff
   235be:	cba0ffff          	0xcba0ffff
   235c2:	cba0ffff          	0xcba0ffff
   235c6:	cba0ffff          	0xcba0ffff
   235ca:	cba0ffff          	0xcba0ffff
   235ce:	cba0ffff          	0xcba0ffff
   235d2:	cba0ffff          	0xcba0ffff
   235d6:	cba0ffff          	0xcba0ffff
   235da:	cba0ffff          	0xcba0ffff
   235de:	cba0ffff          	0xcba0ffff
   235e2:	cba0ffff          	0xcba0ffff
   235e6:	cba0ffff          	0xcba0ffff
   235ea:	cba0ffff          	0xcba0ffff
   235ee:	cba0ffff          	0xcba0ffff
   235f2:	cba0ffff          	0xcba0ffff
   235f6:	cb00ffff          	0xcb00ffff
   235fa:	cb14ffff          	0xcb14ffff
   235fe:	cb28ffff          	0xcb28ffff
   23602:	cb3cffff          	0xcb3cffff
   23606:	cb50ffff          	0xcb50ffff
   2360a:	cb64ffff          	0xcb64ffff
   2360e:	cb78ffff          	0xcb78ffff
   23612:	cb8cffff          	0xcb8cffff
   23616:	cbb8ffff          	0xcbb8ffff
   2361a:	cc6cffff          	0xcc6cffff
   2361e:	cc6cffff          	0xcc6cffff
   23622:	cc6cffff          	0xcc6cffff
   23626:	cc6cffff          	0xcc6cffff
   2362a:	cc6cffff          	0xcc6cffff
   2362e:	cc6cffff          	0xcc6cffff
   23632:	cc6cffff          	0xcc6cffff
   23636:	cc6cffff          	0xcc6cffff
   2363a:	cc6cffff          	0xcc6cffff
   2363e:	cc6cffff          	0xcc6cffff
   23642:	cc6cffff          	0xcc6cffff
   23646:	cc6cffff          	0xcc6cffff
   2364a:	cc6cffff          	0xcc6cffff
   2364e:	cc6cffff          	0xcc6cffff
   23652:	cc6cffff          	0xcc6cffff
   23656:	cbccffff          	0xcbccffff
   2365a:	cbe0ffff          	0xcbe0ffff
   2365e:	cbf4ffff          	0xcbf4ffff
   23662:	cc08ffff          	0xcc08ffff
   23666:	cc1cffff          	0xcc1cffff
   2366a:	cc30ffff          	0xcc30ffff
   2366e:	cc44ffff          	0xcc44ffff
   23672:	cc58ffff          	0xcc58ffff
   23676:	          	0xffff

Disassembly of section .data:

0000000000024000 <stacks_start>:
	...

